{
	"Clase Structs/Structs.sol": {
		"structs": {
			"abi": [
				{
					"inputs": [
						{
							"internalType": "address",
							"name": "",
							"type": "address"
						}
					],
					"name": "listaEstadosCuenta",
					"outputs": [
						{
							"internalType": "uint256",
							"name": "monto",
							"type": "uint256"
						},
						{
							"internalType": "uint256",
							"name": "fecha",
							"type": "uint256"
						},
						{
							"internalType": "string",
							"name": "nombres",
							"type": "string"
						},
						{
							"internalType": "string",
							"name": "apellidos",
							"type": "string"
						}
					],
					"stateMutability": "view",
					"type": "function"
				}
			],
			"devdoc": {
				"kind": "dev",
				"methods": {},
				"version": 1
			},
			"evm": {
				"assembly": "    /* \"Clase Structs/Structs.sol\":68:479  contract structs {\r... */\n  mstore(0x40, 0x80)\n    /* \"Clase Structs/Structs.sol\":257:400  EstadoCuenta({\r... */\n  mload(0x40)\n  dup1\n  0x80\n  add\n  0x40\n  mstore\n  dup1\n    /* \"Clase Structs/Structs.sol\":288:292  1000 */\n  0x03e8\n    /* \"Clase Structs/Structs.sol\":257:400  EstadoCuenta({\r... */\n  dup2\n  mstore\n  0x20\n  add\n    /* \"Clase Structs/Structs.sol\":310:314  1234 */\n  0x04d2\n    /* \"Clase Structs/Structs.sol\":257:400  EstadoCuenta({\r... */\n  dup2\n  mstore\n  0x20\n  add\n  mload(0x40)\n  dup1\n  0x40\n  add\n  0x40\n  mstore\n  dup1\n  0x0f\n  dup2\n  mstore\n  0x20\n  add\n  0x506564726f204775696c6c65726d6f0000000000000000000000000000000000\n  dup2\n  mstore\n  pop\n  dup2\n  mstore\n  0x20\n  add\n  mload(0x40)\n  dup1\n  0x40\n  add\n  0x40\n  mstore\n  dup1\n  0x0f\n  dup2\n  mstore\n  0x20\n  add\n  0x56616c657261204c616c616e6775690000000000000000000000000000000000\n  dup2\n  mstore\n  pop\n  dup2\n  mstore\n  pop\n    /* \"Clase Structs/Structs.sol\":229:400  EstadoCuenta estadoCuenta = EstadoCuenta({\r... */\n  0x00\n  dup1\n  dup3\n  add\n  mload\n  dup2\n  0x00\n  add\n  sstore\n  0x20\n  dup3\n  add\n  mload\n  dup2\n  0x01\n  add\n  sstore\n  0x40\n  dup3\n  add\n  mload\n  dup2\n  0x02\n  add\n  swap1\n  dup1\n  mload\n  swap1\n  0x20\n  add\n  swap1\n  tag_1\n  swap3\n  swap2\n  swap1\n  tag_2\n  jump\t// in\ntag_1:\n  pop\n  0x60\n  dup3\n  add\n  mload\n  dup2\n  0x03\n  add\n  swap1\n  dup1\n  mload\n  swap1\n  0x20\n  add\n  swap1\n  tag_3\n  swap3\n  swap2\n  swap1\n  tag_2\n  jump\t// in\ntag_3:\n  pop\n  pop\n  pop\n    /* \"Clase Structs/Structs.sol\":68:479  contract structs {\r... */\n  callvalue\n  dup1\n  iszero\n  tag_4\n  jumpi\n  0x00\n  dup1\n  revert\ntag_4:\n  pop\n  jump(tag_5)\ntag_2:\n  dup3\n  dup1\n  sload\n  tag_6\n  swap1\n  tag_7\n  jump\t// in\ntag_6:\n  swap1\n  0x00\n  mstore\n  keccak256(0x00, 0x20)\n  swap1\n  0x1f\n  add\n  0x20\n  swap1\n  div\n  dup2\n  add\n  swap3\n  dup3\n  tag_9\n  jumpi\n  0x00\n  dup6\n  sstore\n  jump(tag_8)\ntag_9:\n  dup3\n  0x1f\n  lt\n  tag_10\n  jumpi\n  dup1\n  mload\n  not(0xff)\n  and\n  dup4\n  dup1\n  add\n  or\n  dup6\n  sstore\n  jump(tag_8)\ntag_10:\n  dup3\n  dup1\n  add\n  0x01\n  add\n  dup6\n  sstore\n  dup3\n  iszero\n  tag_8\n  jumpi\n  swap2\n  dup3\n  add\ntag_11:\n  dup3\n  dup2\n  gt\n  iszero\n  tag_12\n  jumpi\n  dup3\n  mload\n  dup3\n  sstore\n  swap2\n  0x20\n  add\n  swap2\n  swap1\n  0x01\n  add\n  swap1\n  jump(tag_11)\ntag_12:\ntag_8:\n  pop\n  swap1\n  pop\n  tag_13\n  swap2\n  swap1\n  tag_14\n  jump\t// in\ntag_13:\n  pop\n  swap1\n  jump\t// out\ntag_14:\ntag_15:\n  dup1\n  dup3\n  gt\n  iszero\n  tag_16\n  jumpi\n  0x00\n  dup2\n  0x00\n  swap1\n  sstore\n  pop\n  0x01\n  add\n  jump(tag_15)\ntag_16:\n  pop\n  swap1\n  jump\t// out\n    /* \"#utility.yul\":7:327   */\ntag_7:\n    /* \"#utility.yul\":51:57   */\n  0x00\n    /* \"#utility.yul\":88:89   */\n  0x02\n    /* \"#utility.yul\":82:86   */\n  dup3\n    /* \"#utility.yul\":78:90   */\n  div\n    /* \"#utility.yul\":68:90   */\n  swap1\n  pop\n    /* \"#utility.yul\":135:136   */\n  0x01\n    /* \"#utility.yul\":129:133   */\n  dup3\n    /* \"#utility.yul\":125:137   */\n  and\n    /* \"#utility.yul\":156:174   */\n  dup1\n    /* \"#utility.yul\":146:227   */\n  tag_19\n  jumpi\n    /* \"#utility.yul\":212:216   */\n  0x7f\n    /* \"#utility.yul\":204:210   */\n  dup3\n    /* \"#utility.yul\":200:217   */\n  and\n    /* \"#utility.yul\":190:217   */\n  swap2\n  pop\n    /* \"#utility.yul\":146:227   */\ntag_19:\n    /* \"#utility.yul\":274:276   */\n  0x20\n    /* \"#utility.yul\":266:272   */\n  dup3\n    /* \"#utility.yul\":263:277   */\n  lt\n    /* \"#utility.yul\":243:261   */\n  dup2\n    /* \"#utility.yul\":240:278   */\n  eq\n    /* \"#utility.yul\":237:321   */\n  iszero\n  tag_20\n  jumpi\n    /* \"#utility.yul\":293:311   */\n  tag_21\n  tag_22\n  jump\t// in\ntag_21:\n    /* \"#utility.yul\":237:321   */\ntag_20:\n    /* \"#utility.yul\":58:327   */\n  pop\n    /* \"#utility.yul\":7:327   */\n  swap2\n  swap1\n  pop\n  jump\t// out\n    /* \"#utility.yul\":333:513   */\ntag_22:\n    /* \"#utility.yul\":381:458   */\n  0x4e487b7100000000000000000000000000000000000000000000000000000000\n    /* \"#utility.yul\":378:379   */\n  0x00\n    /* \"#utility.yul\":371:459   */\n  mstore\n    /* \"#utility.yul\":478:482   */\n  0x22\n    /* \"#utility.yul\":475:476   */\n  0x04\n    /* \"#utility.yul\":468:483   */\n  mstore\n    /* \"#utility.yul\":502:506   */\n  0x24\n    /* \"#utility.yul\":499:500   */\n  0x00\n    /* \"#utility.yul\":492:507   */\n  revert\n    /* \"Clase Structs/Structs.sol\":68:479  contract structs {\r... */\ntag_5:\n  dataSize(sub_0)\n  dup1\n  dataOffset(sub_0)\n  0x00\n  codecopy\n  0x00\n  return\nstop\n\nsub_0: assembly {\n        /* \"Clase Structs/Structs.sol\":68:479  contract structs {\r... */\n      mstore(0x40, 0x80)\n      callvalue\n      dup1\n      iszero\n      tag_1\n      jumpi\n      0x00\n      dup1\n      revert\n    tag_1:\n      pop\n      jumpi(tag_2, lt(calldatasize, 0x04))\n      shr(0xe0, calldataload(0x00))\n      dup1\n      0xf0c66fb3\n      eq\n      tag_3\n      jumpi\n    tag_2:\n      0x00\n      dup1\n      revert\n        /* \"Clase Structs/Structs.sol\":409:467  mapping(address => EstadoCuenta) public listaEstadosCuenta */\n    tag_3:\n      tag_4\n      0x04\n      dup1\n      calldatasize\n      sub\n      dup2\n      add\n      swap1\n      tag_5\n      swap2\n      swap1\n      tag_6\n      jump\t// in\n    tag_5:\n      tag_7\n      jump\t// in\n    tag_4:\n      mload(0x40)\n      tag_8\n      swap5\n      swap4\n      swap3\n      swap2\n      swap1\n      tag_9\n      jump\t// in\n    tag_8:\n      mload(0x40)\n      dup1\n      swap2\n      sub\n      swap1\n      return\n    tag_7:\n      mstore(0x20, 0x04)\n      dup1\n      0x00\n      mstore\n      keccak256(0x00, 0x40)\n      0x00\n      swap2\n      pop\n      swap1\n      pop\n      dup1\n      0x00\n      add\n      sload\n      swap1\n      dup1\n      0x01\n      add\n      sload\n      swap1\n      dup1\n      0x02\n      add\n      dup1\n      sload\n      tag_10\n      swap1\n      tag_11\n      jump\t// in\n    tag_10:\n      dup1\n      0x1f\n      add\n      0x20\n      dup1\n      swap2\n      div\n      mul\n      0x20\n      add\n      mload(0x40)\n      swap1\n      dup2\n      add\n      0x40\n      mstore\n      dup1\n      swap3\n      swap2\n      swap1\n      dup2\n      dup2\n      mstore\n      0x20\n      add\n      dup3\n      dup1\n      sload\n      tag_12\n      swap1\n      tag_11\n      jump\t// in\n    tag_12:\n      dup1\n      iszero\n      tag_13\n      jumpi\n      dup1\n      0x1f\n      lt\n      tag_14\n      jumpi\n      0x0100\n      dup1\n      dup4\n      sload\n      div\n      mul\n      dup4\n      mstore\n      swap2\n      0x20\n      add\n      swap2\n      jump(tag_13)\n    tag_14:\n      dup3\n      add\n      swap2\n      swap1\n      0x00\n      mstore\n      keccak256(0x00, 0x20)\n      swap1\n    tag_15:\n      dup2\n      sload\n      dup2\n      mstore\n      swap1\n      0x01\n      add\n      swap1\n      0x20\n      add\n      dup1\n      dup4\n      gt\n      tag_15\n      jumpi\n      dup3\n      swap1\n      sub\n      0x1f\n      and\n      dup3\n      add\n      swap2\n    tag_13:\n      pop\n      pop\n      pop\n      pop\n      pop\n      swap1\n      dup1\n      0x03\n      add\n      dup1\n      sload\n      tag_16\n      swap1\n      tag_11\n      jump\t// in\n    tag_16:\n      dup1\n      0x1f\n      add\n      0x20\n      dup1\n      swap2\n      div\n      mul\n      0x20\n      add\n      mload(0x40)\n      swap1\n      dup2\n      add\n      0x40\n      mstore\n      dup1\n      swap3\n      swap2\n      swap1\n      dup2\n      dup2\n      mstore\n      0x20\n      add\n      dup3\n      dup1\n      sload\n      tag_17\n      swap1\n      tag_11\n      jump\t// in\n    tag_17:\n      dup1\n      iszero\n      tag_18\n      jumpi\n      dup1\n      0x1f\n      lt\n      tag_19\n      jumpi\n      0x0100\n      dup1\n      dup4\n      sload\n      div\n      mul\n      dup4\n      mstore\n      swap2\n      0x20\n      add\n      swap2\n      jump(tag_18)\n    tag_19:\n      dup3\n      add\n      swap2\n      swap1\n      0x00\n      mstore\n      keccak256(0x00, 0x20)\n      swap1\n    tag_20:\n      dup2\n      sload\n      dup2\n      mstore\n      swap1\n      0x01\n      add\n      swap1\n      0x20\n      add\n      dup1\n      dup4\n      gt\n      tag_20\n      jumpi\n      dup3\n      swap1\n      sub\n      0x1f\n      and\n      dup3\n      add\n      swap2\n    tag_18:\n      pop\n      pop\n      pop\n      pop\n      pop\n      swap1\n      pop\n      dup5\n      jump\t// out\n        /* \"#utility.yul\":7:146   */\n    tag_22:\n        /* \"#utility.yul\":53:58   */\n      0x00\n        /* \"#utility.yul\":91:97   */\n      dup2\n        /* \"#utility.yul\":78:98   */\n      calldataload\n        /* \"#utility.yul\":69:98   */\n      swap1\n      pop\n        /* \"#utility.yul\":107:140   */\n      tag_24\n        /* \"#utility.yul\":134:139   */\n      dup2\n        /* \"#utility.yul\":107:140   */\n      tag_25\n      jump\t// in\n    tag_24:\n        /* \"#utility.yul\":7:146   */\n      swap3\n      swap2\n      pop\n      pop\n      jump\t// out\n        /* \"#utility.yul\":152:481   */\n    tag_6:\n        /* \"#utility.yul\":211:217   */\n      0x00\n        /* \"#utility.yul\":260:262   */\n      0x20\n        /* \"#utility.yul\":248:257   */\n      dup3\n        /* \"#utility.yul\":239:246   */\n      dup5\n        /* \"#utility.yul\":235:258   */\n      sub\n        /* \"#utility.yul\":231:263   */\n      slt\n        /* \"#utility.yul\":228:347   */\n      iszero\n      tag_27\n      jumpi\n        /* \"#utility.yul\":266:345   */\n      tag_28\n      tag_29\n      jump\t// in\n    tag_28:\n        /* \"#utility.yul\":228:347   */\n    tag_27:\n        /* \"#utility.yul\":386:387   */\n      0x00\n        /* \"#utility.yul\":411:464   */\n      tag_30\n        /* \"#utility.yul\":456:463   */\n      dup5\n        /* \"#utility.yul\":447:453   */\n      dup3\n        /* \"#utility.yul\":436:445   */\n      dup6\n        /* \"#utility.yul\":432:454   */\n      add\n        /* \"#utility.yul\":411:464   */\n      tag_22\n      jump\t// in\n    tag_30:\n        /* \"#utility.yul\":401:464   */\n      swap2\n      pop\n        /* \"#utility.yul\":357:474   */\n      pop\n        /* \"#utility.yul\":152:481   */\n      swap3\n      swap2\n      pop\n      pop\n      jump\t// out\n        /* \"#utility.yul\":487:851   */\n    tag_31:\n        /* \"#utility.yul\":575:578   */\n      0x00\n        /* \"#utility.yul\":603:642   */\n      tag_33\n        /* \"#utility.yul\":636:641   */\n      dup3\n        /* \"#utility.yul\":603:642   */\n      tag_34\n      jump\t// in\n    tag_33:\n        /* \"#utility.yul\":658:729   */\n      tag_35\n        /* \"#utility.yul\":722:728   */\n      dup2\n        /* \"#utility.yul\":717:720   */\n      dup6\n        /* \"#utility.yul\":658:729   */\n      tag_36\n      jump\t// in\n    tag_35:\n        /* \"#utility.yul\":651:729   */\n      swap4\n      pop\n        /* \"#utility.yul\":738:790   */\n      tag_37\n        /* \"#utility.yul\":783:789   */\n      dup2\n        /* \"#utility.yul\":778:781   */\n      dup6\n        /* \"#utility.yul\":771:775   */\n      0x20\n        /* \"#utility.yul\":764:769   */\n      dup7\n        /* \"#utility.yul\":760:776   */\n      add\n        /* \"#utility.yul\":738:790   */\n      tag_38\n      jump\t// in\n    tag_37:\n        /* \"#utility.yul\":815:844   */\n      tag_39\n        /* \"#utility.yul\":837:843   */\n      dup2\n        /* \"#utility.yul\":815:844   */\n      tag_40\n      jump\t// in\n    tag_39:\n        /* \"#utility.yul\":810:813   */\n      dup5\n        /* \"#utility.yul\":806:845   */\n      add\n        /* \"#utility.yul\":799:845   */\n      swap2\n      pop\n        /* \"#utility.yul\":579:851   */\n      pop\n        /* \"#utility.yul\":487:851   */\n      swap3\n      swap2\n      pop\n      pop\n      jump\t// out\n        /* \"#utility.yul\":857:975   */\n    tag_41:\n        /* \"#utility.yul\":944:968   */\n      tag_43\n        /* \"#utility.yul\":962:967   */\n      dup2\n        /* \"#utility.yul\":944:968   */\n      tag_44\n      jump\t// in\n    tag_43:\n        /* \"#utility.yul\":939:942   */\n      dup3\n        /* \"#utility.yul\":932:969   */\n      mstore\n        /* \"#utility.yul\":857:975   */\n      pop\n      pop\n      jump\t// out\n        /* \"#utility.yul\":981:1716   */\n    tag_9:\n        /* \"#utility.yul\":1198:1202   */\n      0x00\n        /* \"#utility.yul\":1236:1239   */\n      0x80\n        /* \"#utility.yul\":1225:1234   */\n      dup3\n        /* \"#utility.yul\":1221:1240   */\n      add\n        /* \"#utility.yul\":1213:1240   */\n      swap1\n      pop\n        /* \"#utility.yul\":1250:1321   */\n      tag_46\n        /* \"#utility.yul\":1318:1319   */\n      0x00\n        /* \"#utility.yul\":1307:1316   */\n      dup4\n        /* \"#utility.yul\":1303:1320   */\n      add\n        /* \"#utility.yul\":1294:1300   */\n      dup8\n        /* \"#utility.yul\":1250:1321   */\n      tag_41\n      jump\t// in\n    tag_46:\n        /* \"#utility.yul\":1331:1403   */\n      tag_47\n        /* \"#utility.yul\":1399:1401   */\n      0x20\n        /* \"#utility.yul\":1388:1397   */\n      dup4\n        /* \"#utility.yul\":1384:1402   */\n      add\n        /* \"#utility.yul\":1375:1381   */\n      dup7\n        /* \"#utility.yul\":1331:1403   */\n      tag_41\n      jump\t// in\n    tag_47:\n        /* \"#utility.yul\":1450:1459   */\n      dup2\n        /* \"#utility.yul\":1444:1448   */\n      dup2\n        /* \"#utility.yul\":1440:1460   */\n      sub\n        /* \"#utility.yul\":1435:1437   */\n      0x40\n        /* \"#utility.yul\":1424:1433   */\n      dup4\n        /* \"#utility.yul\":1420:1438   */\n      add\n        /* \"#utility.yul\":1413:1461   */\n      mstore\n        /* \"#utility.yul\":1478:1556   */\n      tag_48\n        /* \"#utility.yul\":1551:1555   */\n      dup2\n        /* \"#utility.yul\":1542:1548   */\n      dup6\n        /* \"#utility.yul\":1478:1556   */\n      tag_31\n      jump\t// in\n    tag_48:\n        /* \"#utility.yul\":1470:1556   */\n      swap1\n      pop\n        /* \"#utility.yul\":1603:1612   */\n      dup2\n        /* \"#utility.yul\":1597:1601   */\n      dup2\n        /* \"#utility.yul\":1593:1613   */\n      sub\n        /* \"#utility.yul\":1588:1590   */\n      0x60\n        /* \"#utility.yul\":1577:1586   */\n      dup4\n        /* \"#utility.yul\":1573:1591   */\n      add\n        /* \"#utility.yul\":1566:1614   */\n      mstore\n        /* \"#utility.yul\":1631:1709   */\n      tag_49\n        /* \"#utility.yul\":1704:1708   */\n      dup2\n        /* \"#utility.yul\":1695:1701   */\n      dup5\n        /* \"#utility.yul\":1631:1709   */\n      tag_31\n      jump\t// in\n    tag_49:\n        /* \"#utility.yul\":1623:1709   */\n      swap1\n      pop\n        /* \"#utility.yul\":981:1716   */\n      swap6\n      swap5\n      pop\n      pop\n      pop\n      pop\n      pop\n      jump\t// out\n        /* \"#utility.yul\":1803:1902   */\n    tag_34:\n        /* \"#utility.yul\":1855:1861   */\n      0x00\n        /* \"#utility.yul\":1889:1894   */\n      dup2\n        /* \"#utility.yul\":1883:1895   */\n      mload\n        /* \"#utility.yul\":1873:1895   */\n      swap1\n      pop\n        /* \"#utility.yul\":1803:1902   */\n      swap2\n      swap1\n      pop\n      jump\t// out\n        /* \"#utility.yul\":1908:2077   */\n    tag_36:\n        /* \"#utility.yul\":1992:2003   */\n      0x00\n        /* \"#utility.yul\":2026:2032   */\n      dup3\n        /* \"#utility.yul\":2021:2024   */\n      dup3\n        /* \"#utility.yul\":2014:2033   */\n      mstore\n        /* \"#utility.yul\":2066:2070   */\n      0x20\n        /* \"#utility.yul\":2061:2064   */\n      dup3\n        /* \"#utility.yul\":2057:2071   */\n      add\n        /* \"#utility.yul\":2042:2071   */\n      swap1\n      pop\n        /* \"#utility.yul\":1908:2077   */\n      swap3\n      swap2\n      pop\n      pop\n      jump\t// out\n        /* \"#utility.yul\":2083:2179   */\n    tag_54:\n        /* \"#utility.yul\":2120:2127   */\n      0x00\n        /* \"#utility.yul\":2149:2173   */\n      tag_56\n        /* \"#utility.yul\":2167:2172   */\n      dup3\n        /* \"#utility.yul\":2149:2173   */\n      tag_57\n      jump\t// in\n    tag_56:\n        /* \"#utility.yul\":2138:2173   */\n      swap1\n      pop\n        /* \"#utility.yul\":2083:2179   */\n      swap2\n      swap1\n      pop\n      jump\t// out\n        /* \"#utility.yul\":2185:2311   */\n    tag_57:\n        /* \"#utility.yul\":2222:2229   */\n      0x00\n        /* \"#utility.yul\":2262:2304   */\n      0xffffffffffffffffffffffffffffffffffffffff\n        /* \"#utility.yul\":2255:2260   */\n      dup3\n        /* \"#utility.yul\":2251:2305   */\n      and\n        /* \"#utility.yul\":2240:2305   */\n      swap1\n      pop\n        /* \"#utility.yul\":2185:2311   */\n      swap2\n      swap1\n      pop\n      jump\t// out\n        /* \"#utility.yul\":2317:2394   */\n    tag_44:\n        /* \"#utility.yul\":2354:2361   */\n      0x00\n        /* \"#utility.yul\":2383:2388   */\n      dup2\n        /* \"#utility.yul\":2372:2388   */\n      swap1\n      pop\n        /* \"#utility.yul\":2317:2394   */\n      swap2\n      swap1\n      pop\n      jump\t// out\n        /* \"#utility.yul\":2400:2707   */\n    tag_38:\n        /* \"#utility.yul\":2468:2469   */\n      0x00\n        /* \"#utility.yul\":2478:2591   */\n    tag_61:\n        /* \"#utility.yul\":2492:2498   */\n      dup4\n        /* \"#utility.yul\":2489:2490   */\n      dup2\n        /* \"#utility.yul\":2486:2499   */\n      lt\n        /* \"#utility.yul\":2478:2591   */\n      iszero\n      tag_63\n      jumpi\n        /* \"#utility.yul\":2577:2578   */\n      dup1\n        /* \"#utility.yul\":2572:2575   */\n      dup3\n        /* \"#utility.yul\":2568:2579   */\n      add\n        /* \"#utility.yul\":2562:2580   */\n      mload\n        /* \"#utility.yul\":2558:2559   */\n      dup2\n        /* \"#utility.yul\":2553:2556   */\n      dup5\n        /* \"#utility.yul\":2549:2560   */\n      add\n        /* \"#utility.yul\":2542:2581   */\n      mstore\n        /* \"#utility.yul\":2514:2516   */\n      0x20\n        /* \"#utility.yul\":2511:2512   */\n      dup2\n        /* \"#utility.yul\":2507:2517   */\n      add\n        /* \"#utility.yul\":2502:2517   */\n      swap1\n      pop\n        /* \"#utility.yul\":2478:2591   */\n      jump(tag_61)\n    tag_63:\n        /* \"#utility.yul\":2609:2615   */\n      dup4\n        /* \"#utility.yul\":2606:2607   */\n      dup2\n        /* \"#utility.yul\":2603:2616   */\n      gt\n        /* \"#utility.yul\":2600:2701   */\n      iszero\n      tag_64\n      jumpi\n        /* \"#utility.yul\":2689:2690   */\n      0x00\n        /* \"#utility.yul\":2680:2686   */\n      dup5\n        /* \"#utility.yul\":2675:2678   */\n      dup5\n        /* \"#utility.yul\":2671:2687   */\n      add\n        /* \"#utility.yul\":2664:2691   */\n      mstore\n        /* \"#utility.yul\":2600:2701   */\n    tag_64:\n        /* \"#utility.yul\":2449:2707   */\n      pop\n        /* \"#utility.yul\":2400:2707   */\n      pop\n      pop\n      pop\n      jump\t// out\n        /* \"#utility.yul\":2713:3033   */\n    tag_11:\n        /* \"#utility.yul\":2757:2763   */\n      0x00\n        /* \"#utility.yul\":2794:2795   */\n      0x02\n        /* \"#utility.yul\":2788:2792   */\n      dup3\n        /* \"#utility.yul\":2784:2796   */\n      div\n        /* \"#utility.yul\":2774:2796   */\n      swap1\n      pop\n        /* \"#utility.yul\":2841:2842   */\n      0x01\n        /* \"#utility.yul\":2835:2839   */\n      dup3\n        /* \"#utility.yul\":2831:2843   */\n      and\n        /* \"#utility.yul\":2862:2880   */\n      dup1\n        /* \"#utility.yul\":2852:2933   */\n      tag_66\n      jumpi\n        /* \"#utility.yul\":2918:2922   */\n      0x7f\n        /* \"#utility.yul\":2910:2916   */\n      dup3\n        /* \"#utility.yul\":2906:2923   */\n      and\n        /* \"#utility.yul\":2896:2923   */\n      swap2\n      pop\n        /* \"#utility.yul\":2852:2933   */\n    tag_66:\n        /* \"#utility.yul\":2980:2982   */\n      0x20\n        /* \"#utility.yul\":2972:2978   */\n      dup3\n        /* \"#utility.yul\":2969:2983   */\n      lt\n        /* \"#utility.yul\":2949:2967   */\n      dup2\n        /* \"#utility.yul\":2946:2984   */\n      eq\n        /* \"#utility.yul\":2943:3027   */\n      iszero\n      tag_67\n      jumpi\n        /* \"#utility.yul\":2999:3017   */\n      tag_68\n      tag_69\n      jump\t// in\n    tag_68:\n        /* \"#utility.yul\":2943:3027   */\n    tag_67:\n        /* \"#utility.yul\":2764:3033   */\n      pop\n        /* \"#utility.yul\":2713:3033   */\n      swap2\n      swap1\n      pop\n      jump\t// out\n        /* \"#utility.yul\":3039:3219   */\n    tag_69:\n        /* \"#utility.yul\":3087:3164   */\n      0x4e487b7100000000000000000000000000000000000000000000000000000000\n        /* \"#utility.yul\":3084:3085   */\n      0x00\n        /* \"#utility.yul\":3077:3165   */\n      mstore\n        /* \"#utility.yul\":3184:3188   */\n      0x22\n        /* \"#utility.yul\":3181:3182   */\n      0x04\n        /* \"#utility.yul\":3174:3189   */\n      mstore\n        /* \"#utility.yul\":3208:3212   */\n      0x24\n        /* \"#utility.yul\":3205:3206   */\n      0x00\n        /* \"#utility.yul\":3198:3213   */\n      revert\n        /* \"#utility.yul\":3348:3465   */\n    tag_29:\n        /* \"#utility.yul\":3457:3458   */\n      0x00\n        /* \"#utility.yul\":3454:3455   */\n      dup1\n        /* \"#utility.yul\":3447:3459   */\n      revert\n        /* \"#utility.yul\":3471:3573   */\n    tag_40:\n        /* \"#utility.yul\":3512:3518   */\n      0x00\n        /* \"#utility.yul\":3563:3565   */\n      0x1f\n        /* \"#utility.yul\":3559:3566   */\n      not\n        /* \"#utility.yul\":3554:3556   */\n      0x1f\n        /* \"#utility.yul\":3547:3552   */\n      dup4\n        /* \"#utility.yul\":3543:3557   */\n      add\n        /* \"#utility.yul\":3539:3567   */\n      and\n        /* \"#utility.yul\":3529:3567   */\n      swap1\n      pop\n        /* \"#utility.yul\":3471:3573   */\n      swap2\n      swap1\n      pop\n      jump\t// out\n        /* \"#utility.yul\":3579:3701   */\n    tag_25:\n        /* \"#utility.yul\":3652:3676   */\n      tag_76\n        /* \"#utility.yul\":3670:3675   */\n      dup2\n        /* \"#utility.yul\":3652:3676   */\n      tag_54\n      jump\t// in\n    tag_76:\n        /* \"#utility.yul\":3645:3650   */\n      dup2\n        /* \"#utility.yul\":3642:3677   */\n      eq\n        /* \"#utility.yul\":3632:3695   */\n      tag_77\n      jumpi\n        /* \"#utility.yul\":3691:3692   */\n      0x00\n        /* \"#utility.yul\":3688:3689   */\n      dup1\n        /* \"#utility.yul\":3681:3693   */\n      revert\n        /* \"#utility.yul\":3632:3695   */\n    tag_77:\n        /* \"#utility.yul\":3579:3701   */\n      pop\n      jump\t// out\n\n    auxdata: 0xa26469706673582212209f4894bd737dc543fdb41116eedff668a1ad6b2f2aaffaf7d8f4fff2626b5fb864736f6c63430008070033\n}\n",
				"bytecode": {
					"linkReferences": {},
					"object": "608060405260405180608001604052806103e881526020016104d281526020016040518060400160405280600f81526020017f506564726f204775696c6c65726d6f000000000000000000000000000000000081525081526020016040518060400160405280600f81526020017f56616c657261204c616c616e677569000000000000000000000000000000000081525081525060008082015181600001556020820151816001015560408201518160020190805190602001906100c49291906100f6565b5060608201518160030190805190602001906100e19291906100f6565b5050503480156100f057600080fd5b506101fa565b82805461010290610199565b90600052602060002090601f016020900481019282610124576000855561016b565b82601f1061013d57805160ff191683800117855561016b565b8280016001018555821561016b579182015b8281111561016a57825182559160200191906001019061014f565b5b509050610178919061017c565b5090565b5b8082111561019557600081600090555060010161017d565b5090565b600060028204905060018216806101b157607f821691505b602082108114156101c5576101c46101cb565b5b50919050565b7f4e487b7100000000000000000000000000000000000000000000000000000000600052602260045260246000fd5b6103cf806102096000396000f3fe608060405234801561001057600080fd5b506004361061002b5760003560e01c8063f0c66fb314610030575b600080fd5b61004a600480360381019061004591906101b8565b610063565b60405161005a949392919061022d565b60405180910390f35b60046020528060005260406000206000915090508060000154908060010154908060020180546100929061030b565b80601f01602080910402602001604051908101604052809291908181526020018280546100be9061030b565b801561010b5780601f106100e05761010080835404028352916020019161010b565b820191906000526020600020905b8154815290600101906020018083116100ee57829003601f168201915b5050505050908060030180546101209061030b565b80601f016020809104026020016040519081016040528092919081815260200182805461014c9061030b565b80156101995780601f1061016e57610100808354040283529160200191610199565b820191906000526020600020905b81548152906001019060200180831161017c57829003601f168201915b5050505050905084565b6000813590506101b281610382565b92915050565b6000602082840312156101ce576101cd61036c565b5b60006101dc848285016101a3565b91505092915050565b60006101f082610280565b6101fa818561028b565b935061020a8185602086016102d8565b61021381610371565b840191505092915050565b610227816102ce565b82525050565b6000608082019050610242600083018761021e565b61024f602083018661021e565b818103604083015261026181856101e5565b9050818103606083015261027581846101e5565b905095945050505050565b600081519050919050565b600082825260208201905092915050565b60006102a7826102ae565b9050919050565b600073ffffffffffffffffffffffffffffffffffffffff82169050919050565b6000819050919050565b60005b838110156102f65780820151818401526020810190506102db565b83811115610305576000848401525b50505050565b6000600282049050600182168061032357607f821691505b602082108114156103375761033661033d565b5b50919050565b7f4e487b7100000000000000000000000000000000000000000000000000000000600052602260045260246000fd5b600080fd5b6000601f19601f8301169050919050565b61038b8161029c565b811461039657600080fd5b5056fea26469706673582212209f4894bd737dc543fdb41116eedff668a1ad6b2f2aaffaf7d8f4fff2626b5fb864736f6c63430008070033",
					"opcodes": "PUSH1 0x80 PUSH1 0x40 MSTORE PUSH1 0x40 MLOAD DUP1 PUSH1 0x80 ADD PUSH1 0x40 MSTORE DUP1 PUSH2 0x3E8 DUP2 MSTORE PUSH1 0x20 ADD PUSH2 0x4D2 DUP2 MSTORE PUSH1 0x20 ADD PUSH1 0x40 MLOAD DUP1 PUSH1 0x40 ADD PUSH1 0x40 MSTORE DUP1 PUSH1 0xF DUP2 MSTORE PUSH1 0x20 ADD PUSH32 0x506564726F204775696C6C65726D6F0000000000000000000000000000000000 DUP2 MSTORE POP DUP2 MSTORE PUSH1 0x20 ADD PUSH1 0x40 MLOAD DUP1 PUSH1 0x40 ADD PUSH1 0x40 MSTORE DUP1 PUSH1 0xF DUP2 MSTORE PUSH1 0x20 ADD PUSH32 0x56616C657261204C616C616E6775690000000000000000000000000000000000 DUP2 MSTORE POP DUP2 MSTORE POP PUSH1 0x0 DUP1 DUP3 ADD MLOAD DUP2 PUSH1 0x0 ADD SSTORE PUSH1 0x20 DUP3 ADD MLOAD DUP2 PUSH1 0x1 ADD SSTORE PUSH1 0x40 DUP3 ADD MLOAD DUP2 PUSH1 0x2 ADD SWAP1 DUP1 MLOAD SWAP1 PUSH1 0x20 ADD SWAP1 PUSH2 0xC4 SWAP3 SWAP2 SWAP1 PUSH2 0xF6 JUMP JUMPDEST POP PUSH1 0x60 DUP3 ADD MLOAD DUP2 PUSH1 0x3 ADD SWAP1 DUP1 MLOAD SWAP1 PUSH1 0x20 ADD SWAP1 PUSH2 0xE1 SWAP3 SWAP2 SWAP1 PUSH2 0xF6 JUMP JUMPDEST POP POP POP CALLVALUE DUP1 ISZERO PUSH2 0xF0 JUMPI PUSH1 0x0 DUP1 REVERT JUMPDEST POP PUSH2 0x1FA JUMP JUMPDEST DUP3 DUP1 SLOAD PUSH2 0x102 SWAP1 PUSH2 0x199 JUMP JUMPDEST SWAP1 PUSH1 0x0 MSTORE PUSH1 0x20 PUSH1 0x0 KECCAK256 SWAP1 PUSH1 0x1F ADD PUSH1 0x20 SWAP1 DIV DUP2 ADD SWAP3 DUP3 PUSH2 0x124 JUMPI PUSH1 0x0 DUP6 SSTORE PUSH2 0x16B JUMP JUMPDEST DUP3 PUSH1 0x1F LT PUSH2 0x13D JUMPI DUP1 MLOAD PUSH1 0xFF NOT AND DUP4 DUP1 ADD OR DUP6 SSTORE PUSH2 0x16B JUMP JUMPDEST DUP3 DUP1 ADD PUSH1 0x1 ADD DUP6 SSTORE DUP3 ISZERO PUSH2 0x16B JUMPI SWAP2 DUP3 ADD JUMPDEST DUP3 DUP2 GT ISZERO PUSH2 0x16A JUMPI DUP3 MLOAD DUP3 SSTORE SWAP2 PUSH1 0x20 ADD SWAP2 SWAP1 PUSH1 0x1 ADD SWAP1 PUSH2 0x14F JUMP JUMPDEST JUMPDEST POP SWAP1 POP PUSH2 0x178 SWAP2 SWAP1 PUSH2 0x17C JUMP JUMPDEST POP SWAP1 JUMP JUMPDEST JUMPDEST DUP1 DUP3 GT ISZERO PUSH2 0x195 JUMPI PUSH1 0x0 DUP2 PUSH1 0x0 SWAP1 SSTORE POP PUSH1 0x1 ADD PUSH2 0x17D JUMP JUMPDEST POP SWAP1 JUMP JUMPDEST PUSH1 0x0 PUSH1 0x2 DUP3 DIV SWAP1 POP PUSH1 0x1 DUP3 AND DUP1 PUSH2 0x1B1 JUMPI PUSH1 0x7F DUP3 AND SWAP2 POP JUMPDEST PUSH1 0x20 DUP3 LT DUP2 EQ ISZERO PUSH2 0x1C5 JUMPI PUSH2 0x1C4 PUSH2 0x1CB JUMP JUMPDEST JUMPDEST POP SWAP2 SWAP1 POP JUMP JUMPDEST PUSH32 0x4E487B7100000000000000000000000000000000000000000000000000000000 PUSH1 0x0 MSTORE PUSH1 0x22 PUSH1 0x4 MSTORE PUSH1 0x24 PUSH1 0x0 REVERT JUMPDEST PUSH2 0x3CF DUP1 PUSH2 0x209 PUSH1 0x0 CODECOPY PUSH1 0x0 RETURN INVALID PUSH1 0x80 PUSH1 0x40 MSTORE CALLVALUE DUP1 ISZERO PUSH2 0x10 JUMPI PUSH1 0x0 DUP1 REVERT JUMPDEST POP PUSH1 0x4 CALLDATASIZE LT PUSH2 0x2B JUMPI PUSH1 0x0 CALLDATALOAD PUSH1 0xE0 SHR DUP1 PUSH4 0xF0C66FB3 EQ PUSH2 0x30 JUMPI JUMPDEST PUSH1 0x0 DUP1 REVERT JUMPDEST PUSH2 0x4A PUSH1 0x4 DUP1 CALLDATASIZE SUB DUP2 ADD SWAP1 PUSH2 0x45 SWAP2 SWAP1 PUSH2 0x1B8 JUMP JUMPDEST PUSH2 0x63 JUMP JUMPDEST PUSH1 0x40 MLOAD PUSH2 0x5A SWAP5 SWAP4 SWAP3 SWAP2 SWAP1 PUSH2 0x22D JUMP JUMPDEST PUSH1 0x40 MLOAD DUP1 SWAP2 SUB SWAP1 RETURN JUMPDEST PUSH1 0x4 PUSH1 0x20 MSTORE DUP1 PUSH1 0x0 MSTORE PUSH1 0x40 PUSH1 0x0 KECCAK256 PUSH1 0x0 SWAP2 POP SWAP1 POP DUP1 PUSH1 0x0 ADD SLOAD SWAP1 DUP1 PUSH1 0x1 ADD SLOAD SWAP1 DUP1 PUSH1 0x2 ADD DUP1 SLOAD PUSH2 0x92 SWAP1 PUSH2 0x30B JUMP JUMPDEST DUP1 PUSH1 0x1F ADD PUSH1 0x20 DUP1 SWAP2 DIV MUL PUSH1 0x20 ADD PUSH1 0x40 MLOAD SWAP1 DUP2 ADD PUSH1 0x40 MSTORE DUP1 SWAP3 SWAP2 SWAP1 DUP2 DUP2 MSTORE PUSH1 0x20 ADD DUP3 DUP1 SLOAD PUSH2 0xBE SWAP1 PUSH2 0x30B JUMP JUMPDEST DUP1 ISZERO PUSH2 0x10B JUMPI DUP1 PUSH1 0x1F LT PUSH2 0xE0 JUMPI PUSH2 0x100 DUP1 DUP4 SLOAD DIV MUL DUP4 MSTORE SWAP2 PUSH1 0x20 ADD SWAP2 PUSH2 0x10B JUMP JUMPDEST DUP3 ADD SWAP2 SWAP1 PUSH1 0x0 MSTORE PUSH1 0x20 PUSH1 0x0 KECCAK256 SWAP1 JUMPDEST DUP2 SLOAD DUP2 MSTORE SWAP1 PUSH1 0x1 ADD SWAP1 PUSH1 0x20 ADD DUP1 DUP4 GT PUSH2 0xEE JUMPI DUP3 SWAP1 SUB PUSH1 0x1F AND DUP3 ADD SWAP2 JUMPDEST POP POP POP POP POP SWAP1 DUP1 PUSH1 0x3 ADD DUP1 SLOAD PUSH2 0x120 SWAP1 PUSH2 0x30B JUMP JUMPDEST DUP1 PUSH1 0x1F ADD PUSH1 0x20 DUP1 SWAP2 DIV MUL PUSH1 0x20 ADD PUSH1 0x40 MLOAD SWAP1 DUP2 ADD PUSH1 0x40 MSTORE DUP1 SWAP3 SWAP2 SWAP1 DUP2 DUP2 MSTORE PUSH1 0x20 ADD DUP3 DUP1 SLOAD PUSH2 0x14C SWAP1 PUSH2 0x30B JUMP JUMPDEST DUP1 ISZERO PUSH2 0x199 JUMPI DUP1 PUSH1 0x1F LT PUSH2 0x16E JUMPI PUSH2 0x100 DUP1 DUP4 SLOAD DIV MUL DUP4 MSTORE SWAP2 PUSH1 0x20 ADD SWAP2 PUSH2 0x199 JUMP JUMPDEST DUP3 ADD SWAP2 SWAP1 PUSH1 0x0 MSTORE PUSH1 0x20 PUSH1 0x0 KECCAK256 SWAP1 JUMPDEST DUP2 SLOAD DUP2 MSTORE SWAP1 PUSH1 0x1 ADD SWAP1 PUSH1 0x20 ADD DUP1 DUP4 GT PUSH2 0x17C JUMPI DUP3 SWAP1 SUB PUSH1 0x1F AND DUP3 ADD SWAP2 JUMPDEST POP POP POP POP POP SWAP1 POP DUP5 JUMP JUMPDEST PUSH1 0x0 DUP2 CALLDATALOAD SWAP1 POP PUSH2 0x1B2 DUP2 PUSH2 0x382 JUMP JUMPDEST SWAP3 SWAP2 POP POP JUMP JUMPDEST PUSH1 0x0 PUSH1 0x20 DUP3 DUP5 SUB SLT ISZERO PUSH2 0x1CE JUMPI PUSH2 0x1CD PUSH2 0x36C JUMP JUMPDEST JUMPDEST PUSH1 0x0 PUSH2 0x1DC DUP5 DUP3 DUP6 ADD PUSH2 0x1A3 JUMP JUMPDEST SWAP2 POP POP SWAP3 SWAP2 POP POP JUMP JUMPDEST PUSH1 0x0 PUSH2 0x1F0 DUP3 PUSH2 0x280 JUMP JUMPDEST PUSH2 0x1FA DUP2 DUP6 PUSH2 0x28B JUMP JUMPDEST SWAP4 POP PUSH2 0x20A DUP2 DUP6 PUSH1 0x20 DUP7 ADD PUSH2 0x2D8 JUMP JUMPDEST PUSH2 0x213 DUP2 PUSH2 0x371 JUMP JUMPDEST DUP5 ADD SWAP2 POP POP SWAP3 SWAP2 POP POP JUMP JUMPDEST PUSH2 0x227 DUP2 PUSH2 0x2CE JUMP JUMPDEST DUP3 MSTORE POP POP JUMP JUMPDEST PUSH1 0x0 PUSH1 0x80 DUP3 ADD SWAP1 POP PUSH2 0x242 PUSH1 0x0 DUP4 ADD DUP8 PUSH2 0x21E JUMP JUMPDEST PUSH2 0x24F PUSH1 0x20 DUP4 ADD DUP7 PUSH2 0x21E JUMP JUMPDEST DUP2 DUP2 SUB PUSH1 0x40 DUP4 ADD MSTORE PUSH2 0x261 DUP2 DUP6 PUSH2 0x1E5 JUMP JUMPDEST SWAP1 POP DUP2 DUP2 SUB PUSH1 0x60 DUP4 ADD MSTORE PUSH2 0x275 DUP2 DUP5 PUSH2 0x1E5 JUMP JUMPDEST SWAP1 POP SWAP6 SWAP5 POP POP POP POP POP JUMP JUMPDEST PUSH1 0x0 DUP2 MLOAD SWAP1 POP SWAP2 SWAP1 POP JUMP JUMPDEST PUSH1 0x0 DUP3 DUP3 MSTORE PUSH1 0x20 DUP3 ADD SWAP1 POP SWAP3 SWAP2 POP POP JUMP JUMPDEST PUSH1 0x0 PUSH2 0x2A7 DUP3 PUSH2 0x2AE JUMP JUMPDEST SWAP1 POP SWAP2 SWAP1 POP JUMP JUMPDEST PUSH1 0x0 PUSH20 0xFFFFFFFFFFFFFFFFFFFFFFFFFFFFFFFFFFFFFFFF DUP3 AND SWAP1 POP SWAP2 SWAP1 POP JUMP JUMPDEST PUSH1 0x0 DUP2 SWAP1 POP SWAP2 SWAP1 POP JUMP JUMPDEST PUSH1 0x0 JUMPDEST DUP4 DUP2 LT ISZERO PUSH2 0x2F6 JUMPI DUP1 DUP3 ADD MLOAD DUP2 DUP5 ADD MSTORE PUSH1 0x20 DUP2 ADD SWAP1 POP PUSH2 0x2DB JUMP JUMPDEST DUP4 DUP2 GT ISZERO PUSH2 0x305 JUMPI PUSH1 0x0 DUP5 DUP5 ADD MSTORE JUMPDEST POP POP POP POP JUMP JUMPDEST PUSH1 0x0 PUSH1 0x2 DUP3 DIV SWAP1 POP PUSH1 0x1 DUP3 AND DUP1 PUSH2 0x323 JUMPI PUSH1 0x7F DUP3 AND SWAP2 POP JUMPDEST PUSH1 0x20 DUP3 LT DUP2 EQ ISZERO PUSH2 0x337 JUMPI PUSH2 0x336 PUSH2 0x33D JUMP JUMPDEST JUMPDEST POP SWAP2 SWAP1 POP JUMP JUMPDEST PUSH32 0x4E487B7100000000000000000000000000000000000000000000000000000000 PUSH1 0x0 MSTORE PUSH1 0x22 PUSH1 0x4 MSTORE PUSH1 0x24 PUSH1 0x0 REVERT JUMPDEST PUSH1 0x0 DUP1 REVERT JUMPDEST PUSH1 0x0 PUSH1 0x1F NOT PUSH1 0x1F DUP4 ADD AND SWAP1 POP SWAP2 SWAP1 POP JUMP JUMPDEST PUSH2 0x38B DUP2 PUSH2 0x29C JUMP JUMPDEST DUP2 EQ PUSH2 0x396 JUMPI PUSH1 0x0 DUP1 REVERT JUMPDEST POP JUMP INVALID LOG2 PUSH5 0x6970667358 0x22 SLT KECCAK256 SWAP16 BASEFEE SWAP5 0xBD PUSH20 0x7DC543FDB41116EEDFF668A1AD6B2F2AAFFAF7D8 DELEGATECALL SELFDESTRUCT CALLCODE PUSH3 0x6B5FB8 PUSH5 0x736F6C6343 STOP ADDMOD SMOD STOP CALLER "
				},
				"gasEstimates": {
					"creation": {
						"codeDepositCost": "195000",
						"executionCost": "infinite",
						"totalCost": "infinite"
					},
					"external": {
						"listaEstadosCuenta(address)": "infinite"
					}
				},
				"methodIdentifiers": {
					"listaEstadosCuenta(address)": "f0c66fb3"
				}
			},
			"storageLayout": {
				"storage": [
					{
						"astId": 19,
						"contract": "Clase Structs/Structs.sol:structs",
						"label": "estadoCuenta",
						"offset": 0,
						"slot": "0",
						"type": "t_struct(EstadoCuenta)10_storage"
					},
					{
						"astId": 24,
						"contract": "Clase Structs/Structs.sol:structs",
						"label": "listaEstadosCuenta",
						"offset": 0,
						"slot": "4",
						"type": "t_mapping(t_address,t_struct(EstadoCuenta)10_storage)"
					}
				],
				"types": {
					"t_address": {
						"encoding": "inplace",
						"label": "address",
						"numberOfBytes": "20"
					},
					"t_mapping(t_address,t_struct(EstadoCuenta)10_storage)": {
						"encoding": "mapping",
						"key": "t_address",
						"label": "mapping(address => struct structs.EstadoCuenta)",
						"numberOfBytes": "32",
						"value": "t_struct(EstadoCuenta)10_storage"
					},
					"t_string_storage": {
						"encoding": "bytes",
						"label": "string",
						"numberOfBytes": "32"
					},
					"t_struct(EstadoCuenta)10_storage": {
						"encoding": "inplace",
						"label": "struct structs.EstadoCuenta",
						"members": [
							{
								"astId": 3,
								"contract": "Clase Structs/Structs.sol:structs",
								"label": "monto",
								"offset": 0,
								"slot": "0",
								"type": "t_uint256"
							},
							{
								"astId": 5,
								"contract": "Clase Structs/Structs.sol:structs",
								"label": "fecha",
								"offset": 0,
								"slot": "1",
								"type": "t_uint256"
							},
							{
								"astId": 7,
								"contract": "Clase Structs/Structs.sol:structs",
								"label": "nombres",
								"offset": 0,
								"slot": "2",
								"type": "t_string_storage"
							},
							{
								"astId": 9,
								"contract": "Clase Structs/Structs.sol:structs",
								"label": "apellidos",
								"offset": 0,
								"slot": "3",
								"type": "t_string_storage"
							}
						],
						"numberOfBytes": "128"
					},
					"t_uint256": {
						"encoding": "inplace",
						"label": "uint256",
						"numberOfBytes": "32"
					}
				}
			},
			"userdoc": {
				"kind": "user",
				"methods": {},
				"version": 1
			}
		}
	}
}