{
	"Practica1/AccessControlLearning.sol": {
		"AccessControlLearning": {
			"abi": [
				{
					"inputs": [],
					"stateMutability": "nonpayable",
					"type": "constructor"
				},
				{
					"anonymous": false,
					"inputs": [
						{
							"indexed": false,
							"internalType": "address",
							"name": "renounceOwner",
							"type": "address"
						}
					],
					"name": "RenounceOwnership",
					"type": "event"
				},
				{
					"anonymous": false,
					"inputs": [
						{
							"indexed": false,
							"internalType": "address",
							"name": "_prevOwner",
							"type": "address"
						},
						{
							"indexed": false,
							"internalType": "address",
							"name": "_newOwner",
							"type": "address"
						}
					],
					"name": "TransferOwnership",
					"type": "event"
				},
				{
					"inputs": [],
					"name": "DEFAULT_ADMIN_ROLE",
					"outputs": [
						{
							"internalType": "bytes32",
							"name": "",
							"type": "bytes32"
						}
					],
					"stateMutability": "view",
					"type": "function"
				},
				{
					"inputs": [
						{
							"internalType": "address",
							"name": "_account",
							"type": "address"
						},
						{
							"internalType": "bytes32",
							"name": "_role",
							"type": "bytes32"
						}
					],
					"name": "grantRole",
					"outputs": [],
					"stateMutability": "nonpayable",
					"type": "function"
				},
				{
					"inputs": [
						{
							"internalType": "address",
							"name": "_account",
							"type": "address"
						},
						{
							"internalType": "bytes32",
							"name": "_role",
							"type": "bytes32"
						},
						{
							"internalType": "uint256",
							"name": "_limit",
							"type": "uint256"
						}
					],
					"name": "grantRoleTemporarily",
					"outputs": [],
					"stateMutability": "nonpayable",
					"type": "function"
				},
				{
					"inputs": [
						{
							"internalType": "address",
							"name": "_account",
							"type": "address"
						},
						{
							"internalType": "bytes32",
							"name": "_role",
							"type": "bytes32"
						}
					],
					"name": "hasRole",
					"outputs": [
						{
							"internalType": "bool",
							"name": "",
							"type": "bool"
						}
					],
					"stateMutability": "view",
					"type": "function"
				},
				{
					"inputs": [
						{
							"internalType": "address",
							"name": "_account",
							"type": "address"
						},
						{
							"internalType": "bytes32",
							"name": "_role",
							"type": "bytes32"
						}
					],
					"name": "hasTemporaryRole",
					"outputs": [
						{
							"internalType": "bool",
							"name": "",
							"type": "bool"
						},
						{
							"internalType": "uint256",
							"name": "",
							"type": "uint256"
						}
					],
					"stateMutability": "view",
					"type": "function"
				},
				{
					"inputs": [],
					"name": "renounceOwnership",
					"outputs": [],
					"stateMutability": "nonpayable",
					"type": "function"
				},
				{
					"inputs": [
						{
							"internalType": "address",
							"name": "_newOwner",
							"type": "address"
						}
					],
					"name": "transferOwnership",
					"outputs": [],
					"stateMutability": "nonpayable",
					"type": "function"
				}
			],
			"devdoc": {
				"kind": "dev",
				"methods": {},
				"version": 1
			},
			"evm": {
				"assembly": "    /* \"Practica1/AccessControlLearning.sol\":2683:7271  contract AccessControlLearning {... */\n  mstore(0x40, 0x80)\n    /* \"Practica1/AccessControlLearning.sol\":3484:3562  constructor() {... */\n  callvalue\n  dup1\n  iszero\n  tag_1\n  jumpi\n  0x00\n  dup1\n  revert\ntag_1:\n  pop\n    /* \"Practica1/AccessControlLearning.sol\":3550:3554  true */\n  0x01\n    /* \"Practica1/AccessControlLearning.sol\":3509:3515  _roles */\n  0x00\n    /* \"Practica1/AccessControlLearning.sol\":3509:3527  _roles[msg.sender] */\n  dup1\n    /* \"Practica1/AccessControlLearning.sol\":3516:3526  msg.sender */\n  caller\n    /* \"Practica1/AccessControlLearning.sol\":3509:3527  _roles[msg.sender] */\n  0xffffffffffffffffffffffffffffffffffffffff\n  and\n  0xffffffffffffffffffffffffffffffffffffffff\n  and\n  dup2\n  mstore\n  0x20\n  add\n  swap1\n  dup2\n  mstore\n  0x20\n  add\n  0x00\n  keccak256\n    /* \"Practica1/AccessControlLearning.sol\":3509:3547  _roles[msg.sender][DEFAULT_ADMIN_ROLE] */\n  0x00\n    /* \"Practica1/AccessControlLearning.sol\":2766:2770  0x00 */\n  dup1\n    /* \"Practica1/AccessControlLearning.sol\":3528:3546  DEFAULT_ADMIN_ROLE */\n  0x00\n  shl\n    /* \"Practica1/AccessControlLearning.sol\":3509:3547  _roles[msg.sender][DEFAULT_ADMIN_ROLE] */\n  dup2\n  mstore\n  0x20\n  add\n  swap1\n  dup2\n  mstore\n  0x20\n  add\n  0x00\n  keccak256\n  0x00\n    /* \"Practica1/AccessControlLearning.sol\":3509:3554  _roles[msg.sender][DEFAULT_ADMIN_ROLE] = true */\n  0x0100\n  exp\n  dup2\n  sload\n  dup2\n  0xff\n  mul\n  not\n  and\n  swap1\n  dup4\n  iszero\n  iszero\n  mul\n  or\n  swap1\n  sstore\n  pop\n    /* \"Practica1/AccessControlLearning.sol\":2683:7271  contract AccessControlLearning {... */\n  dataSize(sub_0)\n  dup1\n  dataOffset(sub_0)\n  0x00\n  codecopy\n  0x00\n  return\nstop\n\nsub_0: assembly {\n        /* \"Practica1/AccessControlLearning.sol\":2683:7271  contract AccessControlLearning {... */\n      mstore(0x40, 0x80)\n      callvalue\n      dup1\n      iszero\n      tag_1\n      jumpi\n      0x00\n      dup1\n      revert\n    tag_1:\n      pop\n      jumpi(tag_2, lt(calldatasize, 0x04))\n      shr(0xe0, calldataload(0x00))\n      dup1\n      0xac4ab3fb\n      gt\n      tag_10\n      jumpi\n      dup1\n      0xac4ab3fb\n      eq\n      tag_6\n      jumpi\n      dup1\n      0xe412ac65\n      eq\n      tag_7\n      jumpi\n      dup1\n      0xed119de0\n      eq\n      tag_8\n      jumpi\n      dup1\n      0xf2fde38b\n      eq\n      tag_9\n      jumpi\n      jump(tag_2)\n    tag_10:\n      dup1\n      0x715018a6\n      eq\n      tag_3\n      jumpi\n      dup1\n      0xa217fddf\n      eq\n      tag_4\n      jumpi\n      dup1\n      0xab2742dc\n      eq\n      tag_5\n      jumpi\n    tag_2:\n      0x00\n      dup1\n      revert\n        /* \"Practica1/AccessControlLearning.sol\":5611:5785  function renounceOwnership() public onlyRole(DEFAULT_ADMIN_ROLE){... */\n    tag_3:\n      tag_11\n      tag_12\n      jump\t// in\n    tag_11:\n      stop\n        /* \"Practica1/AccessControlLearning.sol\":2721:2770  bytes32 public constant DEFAULT_ADMIN_ROLE = 0x00 */\n    tag_4:\n      tag_13\n      tag_14\n      jump\t// in\n    tag_13:\n      mload(0x40)\n      tag_15\n      swap2\n      swap1\n      tag_16\n      jump\t// in\n    tag_15:\n      mload(0x40)\n      dup1\n      swap2\n      sub\n      swap1\n      return\n        /* \"Practica1/AccessControlLearning.sol\":4143:4624  function grantRole(address _account, bytes32 _role) public onlyRole(DEFAULT_ADMIN_ROLE)... */\n    tag_5:\n      tag_17\n      0x04\n      dup1\n      calldatasize\n      sub\n      dup2\n      add\n      swap1\n      tag_18\n      swap2\n      swap1\n      tag_19\n      jump\t// in\n    tag_18:\n      tag_20\n      jump\t// in\n    tag_17:\n      stop\n        /* \"Practica1/AccessControlLearning.sol\":3790:3915  function hasRole(address _account, bytes32 _role) public view returns (bool){... */\n    tag_6:\n      tag_21\n      0x04\n      dup1\n      calldatasize\n      sub\n      dup2\n      add\n      swap1\n      tag_22\n      swap2\n      swap1\n      tag_19\n      jump\t// in\n    tag_22:\n      tag_23\n      jump\t// in\n    tag_21:\n      mload(0x40)\n      tag_24\n      swap2\n      swap1\n      tag_25\n      jump\t// in\n    tag_24:\n      mload(0x40)\n      dup1\n      swap2\n      sub\n      swap1\n      return\n        /* \"Practica1/AccessControlLearning.sol\":6302:6575  function grantRoleTemporarily(address _account, bytes32 _role, uint256 _limit) public onlyRole(DEFAULT_ADMIN_ROLE) {... */\n    tag_7:\n      tag_26\n      0x04\n      dup1\n      calldatasize\n      sub\n      dup2\n      add\n      swap1\n      tag_27\n      swap2\n      swap1\n      tag_28\n      jump\t// in\n    tag_27:\n      tag_29\n      jump\t// in\n    tag_26:\n      stop\n        /* \"Practica1/AccessControlLearning.sol\":6960:7268  function hasTemporaryRole(address _account, bytes32 _role) public view returns (bool, uint256)... */\n    tag_8:\n      tag_30\n      0x04\n      dup1\n      calldatasize\n      sub\n      dup2\n      add\n      swap1\n      tag_31\n      swap2\n      swap1\n      tag_19\n      jump\t// in\n    tag_31:\n      tag_32\n      jump\t// in\n    tag_30:\n      mload(0x40)\n      tag_33\n      swap3\n      swap2\n      swap1\n      tag_34\n      jump\t// in\n    tag_33:\n      mload(0x40)\n      dup1\n      swap2\n      sub\n      swap1\n      return\n        /* \"Practica1/AccessControlLearning.sol\":5122:5379  function transferOwnership(address _newOwner) public onlyRole(DEFAULT_ADMIN_ROLE){... */\n    tag_9:\n      tag_35\n      0x04\n      dup1\n      calldatasize\n      sub\n      dup2\n      add\n      swap1\n      tag_36\n      swap2\n      swap1\n      tag_37\n      jump\t// in\n    tag_36:\n      tag_38\n      jump\t// in\n    tag_35:\n      stop\n        /* \"Practica1/AccessControlLearning.sol\":5611:5785  function renounceOwnership() public onlyRole(DEFAULT_ADMIN_ROLE){... */\n    tag_12:\n        /* \"Practica1/AccessControlLearning.sol\":2766:2770  0x00 */\n      0x00\n        /* \"Practica1/AccessControlLearning.sol\":5656:5674  DEFAULT_ADMIN_ROLE */\n      dup1\n      shl\n        /* \"Practica1/AccessControlLearning.sol\":3129:3154  hasRole(msg.sender,_role) */\n      tag_40\n        /* \"Practica1/AccessControlLearning.sol\":3137:3147  msg.sender */\n      caller\n        /* \"Practica1/AccessControlLearning.sol\":3148:3153  _role */\n      dup3\n        /* \"Practica1/AccessControlLearning.sol\":3129:3136  hasRole */\n      tag_23\n        /* \"Practica1/AccessControlLearning.sol\":3129:3154  hasRole(msg.sender,_role) */\n      jump\t// in\n    tag_40:\n        /* \"Practica1/AccessControlLearning.sol\":3121:3191  require(hasRole(msg.sender,_role), \"Cuenta no tiene el rol necesario\") */\n      tag_41\n      jumpi\n      mload(0x40)\n      0x08c379a000000000000000000000000000000000000000000000000000000000\n      dup2\n      mstore\n      0x04\n      add\n      tag_42\n      swap1\n      tag_43\n      jump\t// in\n    tag_42:\n      mload(0x40)\n      dup1\n      swap2\n      sub\n      swap1\n      revert\n    tag_41:\n        /* \"Practica1/AccessControlLearning.sol\":5727:5732  false */\n      0x00\n        /* \"Practica1/AccessControlLearning.sol\":5686:5692  _roles */\n      dup1\n        /* \"Practica1/AccessControlLearning.sol\":5686:5704  _roles[msg.sender] */\n      0x00\n        /* \"Practica1/AccessControlLearning.sol\":5693:5703  msg.sender */\n      caller\n        /* \"Practica1/AccessControlLearning.sol\":5686:5704  _roles[msg.sender] */\n      0xffffffffffffffffffffffffffffffffffffffff\n      and\n      0xffffffffffffffffffffffffffffffffffffffff\n      and\n      dup2\n      mstore\n      0x20\n      add\n      swap1\n      dup2\n      mstore\n      0x20\n      add\n      0x00\n      keccak256\n        /* \"Practica1/AccessControlLearning.sol\":5686:5724  _roles[msg.sender][DEFAULT_ADMIN_ROLE] */\n      0x00\n        /* \"Practica1/AccessControlLearning.sol\":2766:2770  0x00 */\n      dup1\n        /* \"Practica1/AccessControlLearning.sol\":5705:5723  DEFAULT_ADMIN_ROLE */\n      0x00\n      shl\n        /* \"Practica1/AccessControlLearning.sol\":5686:5724  _roles[msg.sender][DEFAULT_ADMIN_ROLE] */\n      dup2\n      mstore\n      0x20\n      add\n      swap1\n      dup2\n      mstore\n      0x20\n      add\n      0x00\n      keccak256\n      0x00\n        /* \"Practica1/AccessControlLearning.sol\":5686:5732  _roles[msg.sender][DEFAULT_ADMIN_ROLE] = false */\n      0x0100\n      exp\n      dup2\n      sload\n      dup2\n      0xff\n      mul\n      not\n      and\n      swap1\n      dup4\n      iszero\n      iszero\n      mul\n      or\n      swap1\n      sstore\n      pop\n        /* \"Practica1/AccessControlLearning.sol\":5748:5777  RenounceOwnership(msg.sender) */\n      0x78051f4d375fa5e34e0acac11b69c75d30c1414823705aded4dc11b9b6d70418\n        /* \"Practica1/AccessControlLearning.sol\":5766:5776  msg.sender */\n      caller\n        /* \"Practica1/AccessControlLearning.sol\":5748:5777  RenounceOwnership(msg.sender) */\n      mload(0x40)\n      tag_45\n      swap2\n      swap1\n      tag_46\n      jump\t// in\n    tag_45:\n      mload(0x40)\n      dup1\n      swap2\n      sub\n      swap1\n      log1\n        /* \"Practica1/AccessControlLearning.sol\":5611:5785  function renounceOwnership() public onlyRole(DEFAULT_ADMIN_ROLE){... */\n      pop\n      jump\t// out\n        /* \"Practica1/AccessControlLearning.sol\":2721:2770  bytes32 public constant DEFAULT_ADMIN_ROLE = 0x00 */\n    tag_14:\n        /* \"Practica1/AccessControlLearning.sol\":2766:2770  0x00 */\n      0x00\n        /* \"Practica1/AccessControlLearning.sol\":2721:2770  bytes32 public constant DEFAULT_ADMIN_ROLE = 0x00 */\n      dup1\n      shl\n      dup2\n      jump\t// out\n        /* \"Practica1/AccessControlLearning.sol\":4143:4624  function grantRole(address _account, bytes32 _role) public onlyRole(DEFAULT_ADMIN_ROLE)... */\n    tag_20:\n        /* \"Practica1/AccessControlLearning.sol\":2766:2770  0x00 */\n      0x00\n        /* \"Practica1/AccessControlLearning.sol\":4211:4229  DEFAULT_ADMIN_ROLE */\n      dup1\n      shl\n        /* \"Practica1/AccessControlLearning.sol\":3129:3154  hasRole(msg.sender,_role) */\n      tag_48\n        /* \"Practica1/AccessControlLearning.sol\":3137:3147  msg.sender */\n      caller\n        /* \"Practica1/AccessControlLearning.sol\":3148:3153  _role */\n      dup3\n        /* \"Practica1/AccessControlLearning.sol\":3129:3136  hasRole */\n      tag_23\n        /* \"Practica1/AccessControlLearning.sol\":3129:3154  hasRole(msg.sender,_role) */\n      jump\t// in\n    tag_48:\n        /* \"Practica1/AccessControlLearning.sol\":3121:3191  require(hasRole(msg.sender,_role), \"Cuenta no tiene el rol necesario\") */\n      tag_49\n      jumpi\n      mload(0x40)\n      0x08c379a000000000000000000000000000000000000000000000000000000000\n      dup2\n      mstore\n      0x04\n      add\n      tag_50\n      swap1\n      tag_43\n      jump\t// in\n    tag_50:\n      mload(0x40)\n      dup1\n      swap2\n      sub\n      swap1\n      revert\n    tag_49:\n        /* \"Practica1/AccessControlLearning.sol\":4273:4277  true */\n      0x01\n        /* \"Practica1/AccessControlLearning.sol\":4247:4253  _roles */\n      0x00\n        /* \"Practica1/AccessControlLearning.sol\":4247:4263  _roles[_account] */\n      dup1\n        /* \"Practica1/AccessControlLearning.sol\":4254:4262  _account */\n      dup6\n        /* \"Practica1/AccessControlLearning.sol\":4247:4263  _roles[_account] */\n      0xffffffffffffffffffffffffffffffffffffffff\n      and\n      0xffffffffffffffffffffffffffffffffffffffff\n      and\n      dup2\n      mstore\n      0x20\n      add\n      swap1\n      dup2\n      mstore\n      0x20\n      add\n      0x00\n      keccak256\n        /* \"Practica1/AccessControlLearning.sol\":4247:4270  _roles[_account][_role] */\n      0x00\n        /* \"Practica1/AccessControlLearning.sol\":4264:4269  _role */\n      dup5\n        /* \"Practica1/AccessControlLearning.sol\":4247:4270  _roles[_account][_role] */\n      dup2\n      mstore\n      0x20\n      add\n      swap1\n      dup2\n      mstore\n      0x20\n      add\n      0x00\n      keccak256\n      0x00\n        /* \"Practica1/AccessControlLearning.sol\":4247:4277  _roles[_account][_role] = true */\n      0x0100\n      exp\n      dup2\n      sload\n      dup2\n      0xff\n      mul\n      not\n      and\n      swap1\n      dup4\n      iszero\n      iszero\n      mul\n      or\n      swap1\n      sstore\n      pop\n        /* \"Practica1/AccessControlLearning.sol\":4290:4304  uint256 _limit */\n      0x00\n        /* \"Practica1/AccessControlLearning.sol\":4307:4322  _rolesTempLimit */\n      0x01\n        /* \"Practica1/AccessControlLearning.sol\":4307:4334  _rolesTempLimit[msg.sender] */\n      0x00\n        /* \"Practica1/AccessControlLearning.sol\":4323:4333  msg.sender */\n      caller\n        /* \"Practica1/AccessControlLearning.sol\":4307:4334  _rolesTempLimit[msg.sender] */\n      0xffffffffffffffffffffffffffffffffffffffff\n      and\n      0xffffffffffffffffffffffffffffffffffffffff\n      and\n      dup2\n      mstore\n      0x20\n      add\n      swap1\n      dup2\n      mstore\n      0x20\n      add\n      0x00\n      keccak256\n        /* \"Practica1/AccessControlLearning.sol\":4307:4354  _rolesTempLimit[msg.sender][DEFAULT_ADMIN_ROLE] */\n      0x00\n        /* \"Practica1/AccessControlLearning.sol\":2766:2770  0x00 */\n      dup1\n        /* \"Practica1/AccessControlLearning.sol\":4335:4353  DEFAULT_ADMIN_ROLE */\n      0x00\n      shl\n        /* \"Practica1/AccessControlLearning.sol\":4307:4354  _rolesTempLimit[msg.sender][DEFAULT_ADMIN_ROLE] */\n      dup2\n      mstore\n      0x20\n      add\n      swap1\n      dup2\n      mstore\n      0x20\n      add\n      0x00\n      keccak256\n      sload\n        /* \"Practica1/AccessControlLearning.sol\":4290:4354  uint256 _limit = _rolesTempLimit[msg.sender][DEFAULT_ADMIN_ROLE] */\n      swap1\n      pop\n        /* \"Practica1/AccessControlLearning.sol\":4378:4379  1 */\n      0x01\n        /* \"Practica1/AccessControlLearning.sol\":4368:4374  _limit */\n      dup2\n        /* \"Practica1/AccessControlLearning.sol\":4368:4379  _limit == 1 */\n      sub\n        /* \"Practica1/AccessControlLearning.sol\":4365:4517  if(_limit == 1){... */\n      tag_52\n      jumpi\n        /* \"Practica1/AccessControlLearning.sol\":4436:4441  false */\n      0x00\n        /* \"Practica1/AccessControlLearning.sol\":4395:4401  _roles */\n      dup1\n        /* \"Practica1/AccessControlLearning.sol\":4395:4413  _roles[msg.sender] */\n      0x00\n        /* \"Practica1/AccessControlLearning.sol\":4402:4412  msg.sender */\n      caller\n        /* \"Practica1/AccessControlLearning.sol\":4395:4413  _roles[msg.sender] */\n      0xffffffffffffffffffffffffffffffffffffffff\n      and\n      0xffffffffffffffffffffffffffffffffffffffff\n      and\n      dup2\n      mstore\n      0x20\n      add\n      swap1\n      dup2\n      mstore\n      0x20\n      add\n      0x00\n      keccak256\n        /* \"Practica1/AccessControlLearning.sol\":4395:4433  _roles[msg.sender][DEFAULT_ADMIN_ROLE] */\n      0x00\n        /* \"Practica1/AccessControlLearning.sol\":2766:2770  0x00 */\n      dup1\n        /* \"Practica1/AccessControlLearning.sol\":4414:4432  DEFAULT_ADMIN_ROLE */\n      0x00\n      shl\n        /* \"Practica1/AccessControlLearning.sol\":4395:4433  _roles[msg.sender][DEFAULT_ADMIN_ROLE] */\n      dup2\n      mstore\n      0x20\n      add\n      swap1\n      dup2\n      mstore\n      0x20\n      add\n      0x00\n      keccak256\n      0x00\n        /* \"Practica1/AccessControlLearning.sol\":4395:4441  _roles[msg.sender][DEFAULT_ADMIN_ROLE] = false */\n      0x0100\n      exp\n      dup2\n      sload\n      dup2\n      0xff\n      mul\n      not\n      and\n      swap1\n      dup4\n      iszero\n      iszero\n      mul\n      or\n      swap1\n      sstore\n      pop\n        /* \"Practica1/AccessControlLearning.sol\":4456:4471  _rolesTempLimit */\n      0x01\n        /* \"Practica1/AccessControlLearning.sol\":4456:4483  _rolesTempLimit[msg.sender] */\n      0x00\n        /* \"Practica1/AccessControlLearning.sol\":4472:4482  msg.sender */\n      caller\n        /* \"Practica1/AccessControlLearning.sol\":4456:4483  _rolesTempLimit[msg.sender] */\n      0xffffffffffffffffffffffffffffffffffffffff\n      and\n      0xffffffffffffffffffffffffffffffffffffffff\n      and\n      dup2\n      mstore\n      0x20\n      add\n      swap1\n      dup2\n      mstore\n      0x20\n      add\n      0x00\n      keccak256\n        /* \"Practica1/AccessControlLearning.sol\":4456:4503  _rolesTempLimit[msg.sender][DEFAULT_ADMIN_ROLE] */\n      0x00\n        /* \"Practica1/AccessControlLearning.sol\":2766:2770  0x00 */\n      dup1\n        /* \"Practica1/AccessControlLearning.sol\":4484:4502  DEFAULT_ADMIN_ROLE */\n      0x00\n      shl\n        /* \"Practica1/AccessControlLearning.sol\":4456:4503  _rolesTempLimit[msg.sender][DEFAULT_ADMIN_ROLE] */\n      dup2\n      mstore\n      0x20\n      add\n      swap1\n      dup2\n      mstore\n      0x20\n      add\n      0x00\n      keccak256\n      0x00\n        /* \"Practica1/AccessControlLearning.sol\":4456:4505  _rolesTempLimit[msg.sender][DEFAULT_ADMIN_ROLE]-- */\n      dup2\n      sload\n      dup1\n      swap3\n      swap2\n      swap1\n      tag_53\n      swap1\n      tag_54\n      jump\t// in\n    tag_53:\n      swap2\n      swap1\n      pop\n      sstore\n      pop\n        /* \"Practica1/AccessControlLearning.sol\":4365:4517  if(_limit == 1){... */\n    tag_52:\n        /* \"Practica1/AccessControlLearning.sol\":4539:4540  1 */\n      0x01\n        /* \"Practica1/AccessControlLearning.sol\":4530:4536  _limit */\n      dup2\n        /* \"Practica1/AccessControlLearning.sol\":4530:4540  _limit > 1 */\n      gt\n        /* \"Practica1/AccessControlLearning.sol\":4527:4617  if(_limit > 1){... */\n      iszero\n      tag_55\n      jumpi\n        /* \"Practica1/AccessControlLearning.sol\":4556:4571  _rolesTempLimit */\n      0x01\n        /* \"Practica1/AccessControlLearning.sol\":4556:4583  _rolesTempLimit[msg.sender] */\n      0x00\n        /* \"Practica1/AccessControlLearning.sol\":4572:4582  msg.sender */\n      caller\n        /* \"Practica1/AccessControlLearning.sol\":4556:4583  _rolesTempLimit[msg.sender] */\n      0xffffffffffffffffffffffffffffffffffffffff\n      and\n      0xffffffffffffffffffffffffffffffffffffffff\n      and\n      dup2\n      mstore\n      0x20\n      add\n      swap1\n      dup2\n      mstore\n      0x20\n      add\n      0x00\n      keccak256\n        /* \"Practica1/AccessControlLearning.sol\":4556:4603  _rolesTempLimit[msg.sender][DEFAULT_ADMIN_ROLE] */\n      0x00\n        /* \"Practica1/AccessControlLearning.sol\":2766:2770  0x00 */\n      dup1\n        /* \"Practica1/AccessControlLearning.sol\":4584:4602  DEFAULT_ADMIN_ROLE */\n      0x00\n      shl\n        /* \"Practica1/AccessControlLearning.sol\":4556:4603  _rolesTempLimit[msg.sender][DEFAULT_ADMIN_ROLE] */\n      dup2\n      mstore\n      0x20\n      add\n      swap1\n      dup2\n      mstore\n      0x20\n      add\n      0x00\n      keccak256\n      0x00\n        /* \"Practica1/AccessControlLearning.sol\":4556:4605  _rolesTempLimit[msg.sender][DEFAULT_ADMIN_ROLE]-- */\n      dup2\n      sload\n      dup1\n      swap3\n      swap2\n      swap1\n      tag_56\n      swap1\n      tag_54\n      jump\t// in\n    tag_56:\n      swap2\n      swap1\n      pop\n      sstore\n      pop\n        /* \"Practica1/AccessControlLearning.sol\":4527:4617  if(_limit > 1){... */\n    tag_55:\n        /* \"Practica1/AccessControlLearning.sol\":4236:4624  {... */\n      pop\n        /* \"Practica1/AccessControlLearning.sol\":4143:4624  function grantRole(address _account, bytes32 _role) public onlyRole(DEFAULT_ADMIN_ROLE)... */\n      pop\n      pop\n      pop\n      jump\t// out\n        /* \"Practica1/AccessControlLearning.sol\":3790:3915  function hasRole(address _account, bytes32 _role) public view returns (bool){... */\n    tag_23:\n        /* \"Practica1/AccessControlLearning.sol\":3861:3865  bool */\n      0x00\n        /* \"Practica1/AccessControlLearning.sol\":3884:3890  _roles */\n      dup1\n        /* \"Practica1/AccessControlLearning.sol\":3884:3900  _roles[_account] */\n      0x00\n        /* \"Practica1/AccessControlLearning.sol\":3891:3899  _account */\n      dup5\n        /* \"Practica1/AccessControlLearning.sol\":3884:3900  _roles[_account] */\n      0xffffffffffffffffffffffffffffffffffffffff\n      and\n      0xffffffffffffffffffffffffffffffffffffffff\n      and\n      dup2\n      mstore\n      0x20\n      add\n      swap1\n      dup2\n      mstore\n      0x20\n      add\n      0x00\n      keccak256\n        /* \"Practica1/AccessControlLearning.sol\":3884:3907  _roles[_account][_role] */\n      0x00\n        /* \"Practica1/AccessControlLearning.sol\":3901:3906  _role */\n      dup4\n        /* \"Practica1/AccessControlLearning.sol\":3884:3907  _roles[_account][_role] */\n      dup2\n      mstore\n      0x20\n      add\n      swap1\n      dup2\n      mstore\n      0x20\n      add\n      0x00\n      keccak256\n      0x00\n      swap1\n      sload\n      swap1\n      0x0100\n      exp\n      swap1\n      div\n      0xff\n      and\n        /* \"Practica1/AccessControlLearning.sol\":3877:3907  return _roles[_account][_role] */\n      swap1\n      pop\n        /* \"Practica1/AccessControlLearning.sol\":3790:3915  function hasRole(address _account, bytes32 _role) public view returns (bool){... */\n      swap3\n      swap2\n      pop\n      pop\n      jump\t// out\n        /* \"Practica1/AccessControlLearning.sol\":6302:6575  function grantRoleTemporarily(address _account, bytes32 _role, uint256 _limit) public onlyRole(DEFAULT_ADMIN_ROLE) {... */\n    tag_29:\n        /* \"Practica1/AccessControlLearning.sol\":2766:2770  0x00 */\n      0x00\n        /* \"Practica1/AccessControlLearning.sol\":6397:6415  DEFAULT_ADMIN_ROLE */\n      dup1\n      shl\n        /* \"Practica1/AccessControlLearning.sol\":3129:3154  hasRole(msg.sender,_role) */\n      tag_59\n        /* \"Practica1/AccessControlLearning.sol\":3137:3147  msg.sender */\n      caller\n        /* \"Practica1/AccessControlLearning.sol\":3148:3153  _role */\n      dup3\n        /* \"Practica1/AccessControlLearning.sol\":3129:3136  hasRole */\n      tag_23\n        /* \"Practica1/AccessControlLearning.sol\":3129:3154  hasRole(msg.sender,_role) */\n      jump\t// in\n    tag_59:\n        /* \"Practica1/AccessControlLearning.sol\":3121:3191  require(hasRole(msg.sender,_role), \"Cuenta no tiene el rol necesario\") */\n      tag_60\n      jumpi\n      mload(0x40)\n      0x08c379a000000000000000000000000000000000000000000000000000000000\n      dup2\n      mstore\n      0x04\n      add\n      tag_61\n      swap1\n      tag_43\n      jump\t// in\n    tag_61:\n      mload(0x40)\n      dup1\n      swap2\n      sub\n      swap1\n      revert\n    tag_60:\n        /* \"Practica1/AccessControlLearning.sol\":6446:6447  1 */\n      0x01\n        /* \"Practica1/AccessControlLearning.sol\":6436:6442  _limit */\n      dup3\n        /* \"Practica1/AccessControlLearning.sol\":6436:6447  _limit >= 1 */\n      lt\n      iszero\n        /* \"Practica1/AccessControlLearning.sol\":6428:6474  require(_limit >= 1, \"El limite es mayor a 1\") */\n      tag_63\n      jumpi\n      mload(0x40)\n      0x08c379a000000000000000000000000000000000000000000000000000000000\n      dup2\n      mstore\n      0x04\n      add\n      tag_64\n      swap1\n      tag_65\n      jump\t// in\n    tag_64:\n      mload(0x40)\n      dup1\n      swap2\n      sub\n      swap1\n      revert\n    tag_63:\n        /* \"Practica1/AccessControlLearning.sol\":6511:6515  true */\n      0x01\n        /* \"Practica1/AccessControlLearning.sol\":6485:6491  _roles */\n      0x00\n        /* \"Practica1/AccessControlLearning.sol\":6485:6501  _roles[_account] */\n      dup1\n        /* \"Practica1/AccessControlLearning.sol\":6492:6500  _account */\n      dup7\n        /* \"Practica1/AccessControlLearning.sol\":6485:6501  _roles[_account] */\n      0xffffffffffffffffffffffffffffffffffffffff\n      and\n      0xffffffffffffffffffffffffffffffffffffffff\n      and\n      dup2\n      mstore\n      0x20\n      add\n      swap1\n      dup2\n      mstore\n      0x20\n      add\n      0x00\n      keccak256\n        /* \"Practica1/AccessControlLearning.sol\":6485:6508  _roles[_account][_role] */\n      0x00\n        /* \"Practica1/AccessControlLearning.sol\":6502:6507  _role */\n      dup6\n        /* \"Practica1/AccessControlLearning.sol\":6485:6508  _roles[_account][_role] */\n      dup2\n      mstore\n      0x20\n      add\n      swap1\n      dup2\n      mstore\n      0x20\n      add\n      0x00\n      keccak256\n      0x00\n        /* \"Practica1/AccessControlLearning.sol\":6485:6515  _roles[_account][_role] = true */\n      0x0100\n      exp\n      dup2\n      sload\n      dup2\n      0xff\n      mul\n      not\n      and\n      swap1\n      dup4\n      iszero\n      iszero\n      mul\n      or\n      swap1\n      sstore\n      pop\n        /* \"Practica1/AccessControlLearning.sol\":6561:6567  _limit */\n      dup2\n        /* \"Practica1/AccessControlLearning.sol\":6526:6541  _rolesTempLimit */\n      0x01\n        /* \"Practica1/AccessControlLearning.sol\":6526:6551  _rolesTempLimit[_account] */\n      0x00\n        /* \"Practica1/AccessControlLearning.sol\":6542:6550  _account */\n      dup7\n        /* \"Practica1/AccessControlLearning.sol\":6526:6551  _rolesTempLimit[_account] */\n      0xffffffffffffffffffffffffffffffffffffffff\n      and\n      0xffffffffffffffffffffffffffffffffffffffff\n      and\n      dup2\n      mstore\n      0x20\n      add\n      swap1\n      dup2\n      mstore\n      0x20\n      add\n      0x00\n      keccak256\n        /* \"Practica1/AccessControlLearning.sol\":6526:6558  _rolesTempLimit[_account][_role] */\n      0x00\n        /* \"Practica1/AccessControlLearning.sol\":6552:6557  _role */\n      dup6\n        /* \"Practica1/AccessControlLearning.sol\":6526:6558  _rolesTempLimit[_account][_role] */\n      dup2\n      mstore\n      0x20\n      add\n      swap1\n      dup2\n      mstore\n      0x20\n      add\n      0x00\n      keccak256\n        /* \"Practica1/AccessControlLearning.sol\":6526:6567  _rolesTempLimit[_account][_role] = _limit */\n      dup2\n      swap1\n      sstore\n      pop\n        /* \"Practica1/AccessControlLearning.sol\":6302:6575  function grantRoleTemporarily(address _account, bytes32 _role, uint256 _limit) public onlyRole(DEFAULT_ADMIN_ROLE) {... */\n      pop\n      pop\n      pop\n      pop\n      jump\t// out\n        /* \"Practica1/AccessControlLearning.sol\":6960:7268  function hasTemporaryRole(address _account, bytes32 _role) public view returns (bool, uint256)... */\n    tag_32:\n        /* \"Practica1/AccessControlLearning.sol\":7040:7044  bool */\n      0x00\n        /* \"Practica1/AccessControlLearning.sol\":7046:7053  uint256 */\n      dup1\n        /* \"Practica1/AccessControlLearning.sol\":7071:7085  uint256 _limit */\n      0x00\n        /* \"Practica1/AccessControlLearning.sol\":7088:7103  _rolesTempLimit */\n      0x01\n        /* \"Practica1/AccessControlLearning.sol\":7088:7113  _rolesTempLimit[_account] */\n      0x00\n        /* \"Practica1/AccessControlLearning.sol\":7104:7112  _account */\n      dup7\n        /* \"Practica1/AccessControlLearning.sol\":7088:7113  _rolesTempLimit[_account] */\n      0xffffffffffffffffffffffffffffffffffffffff\n      and\n      0xffffffffffffffffffffffffffffffffffffffff\n      and\n      dup2\n      mstore\n      0x20\n      add\n      swap1\n      dup2\n      mstore\n      0x20\n      add\n      0x00\n      keccak256\n        /* \"Practica1/AccessControlLearning.sol\":7088:7120  _rolesTempLimit[_account][_role] */\n      0x00\n        /* \"Practica1/AccessControlLearning.sol\":7114:7119  _role */\n      dup6\n        /* \"Practica1/AccessControlLearning.sol\":7088:7120  _rolesTempLimit[_account][_role] */\n      dup2\n      mstore\n      0x20\n      add\n      swap1\n      dup2\n      mstore\n      0x20\n      add\n      0x00\n      keccak256\n      sload\n        /* \"Practica1/AccessControlLearning.sol\":7071:7120  uint256 _limit = _rolesTempLimit[_account][_role] */\n      swap1\n      pop\n        /* \"Practica1/AccessControlLearning.sol\":7142:7143  0 */\n      0x00\n        /* \"Practica1/AccessControlLearning.sol\":7135:7141  _limit */\n      dup2\n        /* \"Practica1/AccessControlLearning.sol\":7135:7143  _limit>0 */\n      gt\n        /* \"Practica1/AccessControlLearning.sol\":7131:7251  if (_limit>0) {... */\n      iszero\n      tag_67\n      jumpi\n        /* \"Practica1/AccessControlLearning.sol\":7168:7172  true */\n      0x01\n        /* \"Practica1/AccessControlLearning.sol\":7173:7179  _limit */\n      dup2\n        /* \"Practica1/AccessControlLearning.sol\":7160:7180  return (true,_limit) */\n      swap3\n      pop\n      swap3\n      pop\n      pop\n      jump(tag_66)\n        /* \"Practica1/AccessControlLearning.sol\":7131:7251  if (_limit>0) {... */\n    tag_67:\n        /* \"Practica1/AccessControlLearning.sol\":7230:7235  false */\n      0x00\n        /* \"Practica1/AccessControlLearning.sol\":7237:7238  0 */\n      dup1\n        /* \"Practica1/AccessControlLearning.sol\":7222:7239  return (false, 0) */\n      swap3\n      pop\n      swap3\n      pop\n      pop\n        /* \"Practica1/AccessControlLearning.sol\":6960:7268  function hasTemporaryRole(address _account, bytes32 _role) public view returns (bool, uint256)... */\n    tag_66:\n      swap3\n      pop\n      swap3\n      swap1\n      pop\n      jump\t// out\n        /* \"Practica1/AccessControlLearning.sol\":5122:5379  function transferOwnership(address _newOwner) public onlyRole(DEFAULT_ADMIN_ROLE){... */\n    tag_38:\n        /* \"Practica1/AccessControlLearning.sol\":2766:2770  0x00 */\n      0x00\n        /* \"Practica1/AccessControlLearning.sol\":5184:5202  DEFAULT_ADMIN_ROLE */\n      dup1\n      shl\n        /* \"Practica1/AccessControlLearning.sol\":3129:3154  hasRole(msg.sender,_role) */\n      tag_70\n        /* \"Practica1/AccessControlLearning.sol\":3137:3147  msg.sender */\n      caller\n        /* \"Practica1/AccessControlLearning.sol\":3148:3153  _role */\n      dup3\n        /* \"Practica1/AccessControlLearning.sol\":3129:3136  hasRole */\n      tag_23\n        /* \"Practica1/AccessControlLearning.sol\":3129:3154  hasRole(msg.sender,_role) */\n      jump\t// in\n    tag_70:\n        /* \"Practica1/AccessControlLearning.sol\":3121:3191  require(hasRole(msg.sender,_role), \"Cuenta no tiene el rol necesario\") */\n      tag_71\n      jumpi\n      mload(0x40)\n      0x08c379a000000000000000000000000000000000000000000000000000000000\n      dup2\n      mstore\n      0x04\n      add\n      tag_72\n      swap1\n      tag_43\n      jump\t// in\n    tag_72:\n      mload(0x40)\n      dup1\n      swap2\n      sub\n      swap1\n      revert\n    tag_71:\n        /* \"Practica1/AccessControlLearning.sol\":5254:5258  true */\n      0x01\n        /* \"Practica1/AccessControlLearning.sol\":5214:5220  _roles */\n      0x00\n        /* \"Practica1/AccessControlLearning.sol\":5214:5231  _roles[_newOwner] */\n      dup1\n        /* \"Practica1/AccessControlLearning.sol\":5221:5230  _newOwner */\n      dup5\n        /* \"Practica1/AccessControlLearning.sol\":5214:5231  _roles[_newOwner] */\n      0xffffffffffffffffffffffffffffffffffffffff\n      and\n      0xffffffffffffffffffffffffffffffffffffffff\n      and\n      dup2\n      mstore\n      0x20\n      add\n      swap1\n      dup2\n      mstore\n      0x20\n      add\n      0x00\n      keccak256\n        /* \"Practica1/AccessControlLearning.sol\":5214:5251  _roles[_newOwner][DEFAULT_ADMIN_ROLE] */\n      0x00\n        /* \"Practica1/AccessControlLearning.sol\":2766:2770  0x00 */\n      dup1\n        /* \"Practica1/AccessControlLearning.sol\":5232:5250  DEFAULT_ADMIN_ROLE */\n      0x00\n      shl\n        /* \"Practica1/AccessControlLearning.sol\":5214:5251  _roles[_newOwner][DEFAULT_ADMIN_ROLE] */\n      dup2\n      mstore\n      0x20\n      add\n      swap1\n      dup2\n      mstore\n      0x20\n      add\n      0x00\n      keccak256\n      0x00\n        /* \"Practica1/AccessControlLearning.sol\":5214:5258  _roles[_newOwner][DEFAULT_ADMIN_ROLE] = true */\n      0x0100\n      exp\n      dup2\n      sload\n      dup2\n      0xff\n      mul\n      not\n      and\n      swap1\n      dup4\n      iszero\n      iszero\n      mul\n      or\n      swap1\n      sstore\n      pop\n        /* \"Practica1/AccessControlLearning.sol\":5310:5315  false */\n      0x00\n        /* \"Practica1/AccessControlLearning.sol\":5269:5275  _roles */\n      dup1\n        /* \"Practica1/AccessControlLearning.sol\":5269:5287  _roles[msg.sender] */\n      0x00\n        /* \"Practica1/AccessControlLearning.sol\":5276:5286  msg.sender */\n      caller\n        /* \"Practica1/AccessControlLearning.sol\":5269:5287  _roles[msg.sender] */\n      0xffffffffffffffffffffffffffffffffffffffff\n      and\n      0xffffffffffffffffffffffffffffffffffffffff\n      and\n      dup2\n      mstore\n      0x20\n      add\n      swap1\n      dup2\n      mstore\n      0x20\n      add\n      0x00\n      keccak256\n        /* \"Practica1/AccessControlLearning.sol\":5269:5307  _roles[msg.sender][DEFAULT_ADMIN_ROLE] */\n      0x00\n        /* \"Practica1/AccessControlLearning.sol\":2766:2770  0x00 */\n      dup1\n        /* \"Practica1/AccessControlLearning.sol\":5288:5306  DEFAULT_ADMIN_ROLE */\n      0x00\n      shl\n        /* \"Practica1/AccessControlLearning.sol\":5269:5307  _roles[msg.sender][DEFAULT_ADMIN_ROLE] */\n      dup2\n      mstore\n      0x20\n      add\n      swap1\n      dup2\n      mstore\n      0x20\n      add\n      0x00\n      keccak256\n      0x00\n        /* \"Practica1/AccessControlLearning.sol\":5269:5315  _roles[msg.sender][DEFAULT_ADMIN_ROLE] = false */\n      0x0100\n      exp\n      dup2\n      sload\n      dup2\n      0xff\n      mul\n      not\n      and\n      swap1\n      dup4\n      iszero\n      iszero\n      mul\n      or\n      swap1\n      sstore\n      pop\n        /* \"Practica1/AccessControlLearning.sol\":5331:5371  TransferOwnership(msg.sender, _newOwner) */\n      0x5c486528ec3e3f0ea91181cff8116f02bfa350e03b8b6f12e00765adbb5af85c\n        /* \"Practica1/AccessControlLearning.sol\":5349:5359  msg.sender */\n      caller\n        /* \"Practica1/AccessControlLearning.sol\":5361:5370  _newOwner */\n      dup4\n        /* \"Practica1/AccessControlLearning.sol\":5331:5371  TransferOwnership(msg.sender, _newOwner) */\n      mload(0x40)\n      tag_74\n      swap3\n      swap2\n      swap1\n      tag_75\n      jump\t// in\n    tag_74:\n      mload(0x40)\n      dup1\n      swap2\n      sub\n      swap1\n      log1\n        /* \"Practica1/AccessControlLearning.sol\":5122:5379  function transferOwnership(address _newOwner) public onlyRole(DEFAULT_ADMIN_ROLE){... */\n      pop\n      pop\n      jump\t// out\n        /* \"#utility.yul\":7:84   */\n    tag_76:\n        /* \"#utility.yul\":44:51   */\n      0x00\n        /* \"#utility.yul\":73:78   */\n      dup2\n        /* \"#utility.yul\":62:78   */\n      swap1\n      pop\n        /* \"#utility.yul\":7:84   */\n      swap2\n      swap1\n      pop\n      jump\t// out\n        /* \"#utility.yul\":90:208   */\n    tag_77:\n        /* \"#utility.yul\":177:201   */\n      tag_103\n        /* \"#utility.yul\":195:200   */\n      dup2\n        /* \"#utility.yul\":177:201   */\n      tag_76\n      jump\t// in\n    tag_103:\n        /* \"#utility.yul\":172:175   */\n      dup3\n        /* \"#utility.yul\":165:202   */\n      mstore\n        /* \"#utility.yul\":90:208   */\n      pop\n      pop\n      jump\t// out\n        /* \"#utility.yul\":214:436   */\n    tag_16:\n        /* \"#utility.yul\":307:311   */\n      0x00\n        /* \"#utility.yul\":345:347   */\n      0x20\n        /* \"#utility.yul\":334:343   */\n      dup3\n        /* \"#utility.yul\":330:348   */\n      add\n        /* \"#utility.yul\":322:348   */\n      swap1\n      pop\n        /* \"#utility.yul\":358:429   */\n      tag_105\n        /* \"#utility.yul\":426:427   */\n      0x00\n        /* \"#utility.yul\":415:424   */\n      dup4\n        /* \"#utility.yul\":411:428   */\n      add\n        /* \"#utility.yul\":402:408   */\n      dup5\n        /* \"#utility.yul\":358:429   */\n      tag_77\n      jump\t// in\n    tag_105:\n        /* \"#utility.yul\":214:436   */\n      swap3\n      swap2\n      pop\n      pop\n      jump\t// out\n        /* \"#utility.yul\":523:640   */\n    tag_79:\n        /* \"#utility.yul\":632:633   */\n      0x00\n        /* \"#utility.yul\":629:630   */\n      dup1\n        /* \"#utility.yul\":622:634   */\n      revert\n        /* \"#utility.yul\":769:895   */\n    tag_81:\n        /* \"#utility.yul\":806:813   */\n      0x00\n        /* \"#utility.yul\":846:888   */\n      0xffffffffffffffffffffffffffffffffffffffff\n        /* \"#utility.yul\":839:844   */\n      dup3\n        /* \"#utility.yul\":835:889   */\n      and\n        /* \"#utility.yul\":824:889   */\n      swap1\n      pop\n        /* \"#utility.yul\":769:895   */\n      swap2\n      swap1\n      pop\n      jump\t// out\n        /* \"#utility.yul\":901:997   */\n    tag_82:\n        /* \"#utility.yul\":938:945   */\n      0x00\n        /* \"#utility.yul\":967:991   */\n      tag_111\n        /* \"#utility.yul\":985:990   */\n      dup3\n        /* \"#utility.yul\":967:991   */\n      tag_81\n      jump\t// in\n    tag_111:\n        /* \"#utility.yul\":956:991   */\n      swap1\n      pop\n        /* \"#utility.yul\":901:997   */\n      swap2\n      swap1\n      pop\n      jump\t// out\n        /* \"#utility.yul\":1003:1125   */\n    tag_83:\n        /* \"#utility.yul\":1076:1100   */\n      tag_113\n        /* \"#utility.yul\":1094:1099   */\n      dup2\n        /* \"#utility.yul\":1076:1100   */\n      tag_82\n      jump\t// in\n    tag_113:\n        /* \"#utility.yul\":1069:1074   */\n      dup2\n        /* \"#utility.yul\":1066:1101   */\n      eq\n        /* \"#utility.yul\":1056:1119   */\n      tag_114\n      jumpi\n        /* \"#utility.yul\":1115:1116   */\n      0x00\n        /* \"#utility.yul\":1112:1113   */\n      dup1\n        /* \"#utility.yul\":1105:1117   */\n      revert\n        /* \"#utility.yul\":1056:1119   */\n    tag_114:\n        /* \"#utility.yul\":1003:1125   */\n      pop\n      jump\t// out\n        /* \"#utility.yul\":1131:1270   */\n    tag_84:\n        /* \"#utility.yul\":1177:1182   */\n      0x00\n        /* \"#utility.yul\":1215:1221   */\n      dup2\n        /* \"#utility.yul\":1202:1222   */\n      calldataload\n        /* \"#utility.yul\":1193:1222   */\n      swap1\n      pop\n        /* \"#utility.yul\":1231:1264   */\n      tag_116\n        /* \"#utility.yul\":1258:1263   */\n      dup2\n        /* \"#utility.yul\":1231:1264   */\n      tag_83\n      jump\t// in\n    tag_116:\n        /* \"#utility.yul\":1131:1270   */\n      swap3\n      swap2\n      pop\n      pop\n      jump\t// out\n        /* \"#utility.yul\":1276:1398   */\n    tag_85:\n        /* \"#utility.yul\":1349:1373   */\n      tag_118\n        /* \"#utility.yul\":1367:1372   */\n      dup2\n        /* \"#utility.yul\":1349:1373   */\n      tag_76\n      jump\t// in\n    tag_118:\n        /* \"#utility.yul\":1342:1347   */\n      dup2\n        /* \"#utility.yul\":1339:1374   */\n      eq\n        /* \"#utility.yul\":1329:1392   */\n      tag_119\n      jumpi\n        /* \"#utility.yul\":1388:1389   */\n      0x00\n        /* \"#utility.yul\":1385:1386   */\n      dup1\n        /* \"#utility.yul\":1378:1390   */\n      revert\n        /* \"#utility.yul\":1329:1392   */\n    tag_119:\n        /* \"#utility.yul\":1276:1398   */\n      pop\n      jump\t// out\n        /* \"#utility.yul\":1404:1543   */\n    tag_86:\n        /* \"#utility.yul\":1450:1455   */\n      0x00\n        /* \"#utility.yul\":1488:1494   */\n      dup2\n        /* \"#utility.yul\":1475:1495   */\n      calldataload\n        /* \"#utility.yul\":1466:1495   */\n      swap1\n      pop\n        /* \"#utility.yul\":1504:1537   */\n      tag_121\n        /* \"#utility.yul\":1531:1536   */\n      dup2\n        /* \"#utility.yul\":1504:1537   */\n      tag_85\n      jump\t// in\n    tag_121:\n        /* \"#utility.yul\":1404:1543   */\n      swap3\n      swap2\n      pop\n      pop\n      jump\t// out\n        /* \"#utility.yul\":1549:2023   */\n    tag_19:\n        /* \"#utility.yul\":1617:1623   */\n      0x00\n        /* \"#utility.yul\":1625:1631   */\n      dup1\n        /* \"#utility.yul\":1674:1676   */\n      0x40\n        /* \"#utility.yul\":1662:1671   */\n      dup4\n        /* \"#utility.yul\":1653:1660   */\n      dup6\n        /* \"#utility.yul\":1649:1672   */\n      sub\n        /* \"#utility.yul\":1645:1677   */\n      slt\n        /* \"#utility.yul\":1642:1761   */\n      iszero\n      tag_123\n      jumpi\n        /* \"#utility.yul\":1680:1759   */\n      tag_124\n      tag_79\n      jump\t// in\n    tag_124:\n        /* \"#utility.yul\":1642:1761   */\n    tag_123:\n        /* \"#utility.yul\":1800:1801   */\n      0x00\n        /* \"#utility.yul\":1825:1878   */\n      tag_125\n        /* \"#utility.yul\":1870:1877   */\n      dup6\n        /* \"#utility.yul\":1861:1867   */\n      dup3\n        /* \"#utility.yul\":1850:1859   */\n      dup7\n        /* \"#utility.yul\":1846:1868   */\n      add\n        /* \"#utility.yul\":1825:1878   */\n      tag_84\n      jump\t// in\n    tag_125:\n        /* \"#utility.yul\":1815:1878   */\n      swap3\n      pop\n        /* \"#utility.yul\":1771:1888   */\n      pop\n        /* \"#utility.yul\":1927:1929   */\n      0x20\n        /* \"#utility.yul\":1953:2006   */\n      tag_126\n        /* \"#utility.yul\":1998:2005   */\n      dup6\n        /* \"#utility.yul\":1989:1995   */\n      dup3\n        /* \"#utility.yul\":1978:1987   */\n      dup7\n        /* \"#utility.yul\":1974:1996   */\n      add\n        /* \"#utility.yul\":1953:2006   */\n      tag_86\n      jump\t// in\n    tag_126:\n        /* \"#utility.yul\":1943:2006   */\n      swap2\n      pop\n        /* \"#utility.yul\":1898:2016   */\n      pop\n        /* \"#utility.yul\":1549:2023   */\n      swap3\n      pop\n      swap3\n      swap1\n      pop\n      jump\t// out\n        /* \"#utility.yul\":2029:2119   */\n    tag_87:\n        /* \"#utility.yul\":2063:2070   */\n      0x00\n        /* \"#utility.yul\":2106:2111   */\n      dup2\n        /* \"#utility.yul\":2099:2112   */\n      iszero\n        /* \"#utility.yul\":2092:2113   */\n      iszero\n        /* \"#utility.yul\":2081:2113   */\n      swap1\n      pop\n        /* \"#utility.yul\":2029:2119   */\n      swap2\n      swap1\n      pop\n      jump\t// out\n        /* \"#utility.yul\":2125:2234   */\n    tag_88:\n        /* \"#utility.yul\":2206:2227   */\n      tag_129\n        /* \"#utility.yul\":2221:2226   */\n      dup2\n        /* \"#utility.yul\":2206:2227   */\n      tag_87\n      jump\t// in\n    tag_129:\n        /* \"#utility.yul\":2201:2204   */\n      dup3\n        /* \"#utility.yul\":2194:2228   */\n      mstore\n        /* \"#utility.yul\":2125:2234   */\n      pop\n      pop\n      jump\t// out\n        /* \"#utility.yul\":2240:2450   */\n    tag_25:\n        /* \"#utility.yul\":2327:2331   */\n      0x00\n        /* \"#utility.yul\":2365:2367   */\n      0x20\n        /* \"#utility.yul\":2354:2363   */\n      dup3\n        /* \"#utility.yul\":2350:2368   */\n      add\n        /* \"#utility.yul\":2342:2368   */\n      swap1\n      pop\n        /* \"#utility.yul\":2378:2443   */\n      tag_131\n        /* \"#utility.yul\":2440:2441   */\n      0x00\n        /* \"#utility.yul\":2429:2438   */\n      dup4\n        /* \"#utility.yul\":2425:2442   */\n      add\n        /* \"#utility.yul\":2416:2422   */\n      dup5\n        /* \"#utility.yul\":2378:2443   */\n      tag_88\n      jump\t// in\n    tag_131:\n        /* \"#utility.yul\":2240:2450   */\n      swap3\n      swap2\n      pop\n      pop\n      jump\t// out\n        /* \"#utility.yul\":2456:2533   */\n    tag_89:\n        /* \"#utility.yul\":2493:2500   */\n      0x00\n        /* \"#utility.yul\":2522:2527   */\n      dup2\n        /* \"#utility.yul\":2511:2527   */\n      swap1\n      pop\n        /* \"#utility.yul\":2456:2533   */\n      swap2\n      swap1\n      pop\n      jump\t// out\n        /* \"#utility.yul\":2539:2661   */\n    tag_90:\n        /* \"#utility.yul\":2612:2636   */\n      tag_134\n        /* \"#utility.yul\":2630:2635   */\n      dup2\n        /* \"#utility.yul\":2612:2636   */\n      tag_89\n      jump\t// in\n    tag_134:\n        /* \"#utility.yul\":2605:2610   */\n      dup2\n        /* \"#utility.yul\":2602:2637   */\n      eq\n        /* \"#utility.yul\":2592:2655   */\n      tag_135\n      jumpi\n        /* \"#utility.yul\":2651:2652   */\n      0x00\n        /* \"#utility.yul\":2648:2649   */\n      dup1\n        /* \"#utility.yul\":2641:2653   */\n      revert\n        /* \"#utility.yul\":2592:2655   */\n    tag_135:\n        /* \"#utility.yul\":2539:2661   */\n      pop\n      jump\t// out\n        /* \"#utility.yul\":2667:2806   */\n    tag_91:\n        /* \"#utility.yul\":2713:2718   */\n      0x00\n        /* \"#utility.yul\":2751:2757   */\n      dup2\n        /* \"#utility.yul\":2738:2758   */\n      calldataload\n        /* \"#utility.yul\":2729:2758   */\n      swap1\n      pop\n        /* \"#utility.yul\":2767:2800   */\n      tag_137\n        /* \"#utility.yul\":2794:2799   */\n      dup2\n        /* \"#utility.yul\":2767:2800   */\n      tag_90\n      jump\t// in\n    tag_137:\n        /* \"#utility.yul\":2667:2806   */\n      swap3\n      swap2\n      pop\n      pop\n      jump\t// out\n        /* \"#utility.yul\":2812:3431   */\n    tag_28:\n        /* \"#utility.yul\":2889:2895   */\n      0x00\n        /* \"#utility.yul\":2897:2903   */\n      dup1\n        /* \"#utility.yul\":2905:2911   */\n      0x00\n        /* \"#utility.yul\":2954:2956   */\n      0x60\n        /* \"#utility.yul\":2942:2951   */\n      dup5\n        /* \"#utility.yul\":2933:2940   */\n      dup7\n        /* \"#utility.yul\":2929:2952   */\n      sub\n        /* \"#utility.yul\":2925:2957   */\n      slt\n        /* \"#utility.yul\":2922:3041   */\n      iszero\n      tag_139\n      jumpi\n        /* \"#utility.yul\":2960:3039   */\n      tag_140\n      tag_79\n      jump\t// in\n    tag_140:\n        /* \"#utility.yul\":2922:3041   */\n    tag_139:\n        /* \"#utility.yul\":3080:3081   */\n      0x00\n        /* \"#utility.yul\":3105:3158   */\n      tag_141\n        /* \"#utility.yul\":3150:3157   */\n      dup7\n        /* \"#utility.yul\":3141:3147   */\n      dup3\n        /* \"#utility.yul\":3130:3139   */\n      dup8\n        /* \"#utility.yul\":3126:3148   */\n      add\n        /* \"#utility.yul\":3105:3158   */\n      tag_84\n      jump\t// in\n    tag_141:\n        /* \"#utility.yul\":3095:3158   */\n      swap4\n      pop\n        /* \"#utility.yul\":3051:3168   */\n      pop\n        /* \"#utility.yul\":3207:3209   */\n      0x20\n        /* \"#utility.yul\":3233:3286   */\n      tag_142\n        /* \"#utility.yul\":3278:3285   */\n      dup7\n        /* \"#utility.yul\":3269:3275   */\n      dup3\n        /* \"#utility.yul\":3258:3267   */\n      dup8\n        /* \"#utility.yul\":3254:3276   */\n      add\n        /* \"#utility.yul\":3233:3286   */\n      tag_86\n      jump\t// in\n    tag_142:\n        /* \"#utility.yul\":3223:3286   */\n      swap3\n      pop\n        /* \"#utility.yul\":3178:3296   */\n      pop\n        /* \"#utility.yul\":3335:3337   */\n      0x40\n        /* \"#utility.yul\":3361:3414   */\n      tag_143\n        /* \"#utility.yul\":3406:3413   */\n      dup7\n        /* \"#utility.yul\":3397:3403   */\n      dup3\n        /* \"#utility.yul\":3386:3395   */\n      dup8\n        /* \"#utility.yul\":3382:3404   */\n      add\n        /* \"#utility.yul\":3361:3414   */\n      tag_91\n      jump\t// in\n    tag_143:\n        /* \"#utility.yul\":3351:3414   */\n      swap2\n      pop\n        /* \"#utility.yul\":3306:3424   */\n      pop\n        /* \"#utility.yul\":2812:3431   */\n      swap3\n      pop\n      swap3\n      pop\n      swap3\n      jump\t// out\n        /* \"#utility.yul\":3437:3555   */\n    tag_92:\n        /* \"#utility.yul\":3524:3548   */\n      tag_145\n        /* \"#utility.yul\":3542:3547   */\n      dup2\n        /* \"#utility.yul\":3524:3548   */\n      tag_89\n      jump\t// in\n    tag_145:\n        /* \"#utility.yul\":3519:3522   */\n      dup3\n        /* \"#utility.yul\":3512:3549   */\n      mstore\n        /* \"#utility.yul\":3437:3555   */\n      pop\n      pop\n      jump\t// out\n        /* \"#utility.yul\":3561:3881   */\n    tag_34:\n        /* \"#utility.yul\":3676:3680   */\n      0x00\n        /* \"#utility.yul\":3714:3716   */\n      0x40\n        /* \"#utility.yul\":3703:3712   */\n      dup3\n        /* \"#utility.yul\":3699:3717   */\n      add\n        /* \"#utility.yul\":3691:3717   */\n      swap1\n      pop\n        /* \"#utility.yul\":3727:3792   */\n      tag_147\n        /* \"#utility.yul\":3789:3790   */\n      0x00\n        /* \"#utility.yul\":3778:3787   */\n      dup4\n        /* \"#utility.yul\":3774:3791   */\n      add\n        /* \"#utility.yul\":3765:3771   */\n      dup6\n        /* \"#utility.yul\":3727:3792   */\n      tag_88\n      jump\t// in\n    tag_147:\n        /* \"#utility.yul\":3802:3874   */\n      tag_148\n        /* \"#utility.yul\":3870:3872   */\n      0x20\n        /* \"#utility.yul\":3859:3868   */\n      dup4\n        /* \"#utility.yul\":3855:3873   */\n      add\n        /* \"#utility.yul\":3846:3852   */\n      dup5\n        /* \"#utility.yul\":3802:3874   */\n      tag_92\n      jump\t// in\n    tag_148:\n        /* \"#utility.yul\":3561:3881   */\n      swap4\n      swap3\n      pop\n      pop\n      pop\n      jump\t// out\n        /* \"#utility.yul\":3887:4216   */\n    tag_37:\n        /* \"#utility.yul\":3946:3952   */\n      0x00\n        /* \"#utility.yul\":3995:3997   */\n      0x20\n        /* \"#utility.yul\":3983:3992   */\n      dup3\n        /* \"#utility.yul\":3974:3981   */\n      dup5\n        /* \"#utility.yul\":3970:3993   */\n      sub\n        /* \"#utility.yul\":3966:3998   */\n      slt\n        /* \"#utility.yul\":3963:4082   */\n      iszero\n      tag_150\n      jumpi\n        /* \"#utility.yul\":4001:4080   */\n      tag_151\n      tag_79\n      jump\t// in\n    tag_151:\n        /* \"#utility.yul\":3963:4082   */\n    tag_150:\n        /* \"#utility.yul\":4121:4122   */\n      0x00\n        /* \"#utility.yul\":4146:4199   */\n      tag_152\n        /* \"#utility.yul\":4191:4198   */\n      dup5\n        /* \"#utility.yul\":4182:4188   */\n      dup3\n        /* \"#utility.yul\":4171:4180   */\n      dup6\n        /* \"#utility.yul\":4167:4189   */\n      add\n        /* \"#utility.yul\":4146:4199   */\n      tag_84\n      jump\t// in\n    tag_152:\n        /* \"#utility.yul\":4136:4199   */\n      swap2\n      pop\n        /* \"#utility.yul\":4092:4209   */\n      pop\n        /* \"#utility.yul\":3887:4216   */\n      swap3\n      swap2\n      pop\n      pop\n      jump\t// out\n        /* \"#utility.yul\":4222:4391   */\n    tag_93:\n        /* \"#utility.yul\":4306:4317   */\n      0x00\n        /* \"#utility.yul\":4340:4346   */\n      dup3\n        /* \"#utility.yul\":4335:4338   */\n      dup3\n        /* \"#utility.yul\":4328:4347   */\n      mstore\n        /* \"#utility.yul\":4380:4384   */\n      0x20\n        /* \"#utility.yul\":4375:4378   */\n      dup3\n        /* \"#utility.yul\":4371:4385   */\n      add\n        /* \"#utility.yul\":4356:4385   */\n      swap1\n      pop\n        /* \"#utility.yul\":4222:4391   */\n      swap3\n      swap2\n      pop\n      pop\n      jump\t// out\n        /* \"#utility.yul\":4397:4579   */\n    tag_94:\n        /* \"#utility.yul\":4537:4571   */\n      0x4375656e7461206e6f207469656e6520656c20726f6c206e656365736172696f\n        /* \"#utility.yul\":4533:4534   */\n      0x00\n        /* \"#utility.yul\":4525:4531   */\n      dup3\n        /* \"#utility.yul\":4521:4535   */\n      add\n        /* \"#utility.yul\":4514:4572   */\n      mstore\n        /* \"#utility.yul\":4397:4579   */\n      pop\n      jump\t// out\n        /* \"#utility.yul\":4585:4951   */\n    tag_95:\n        /* \"#utility.yul\":4727:4730   */\n      0x00\n        /* \"#utility.yul\":4748:4815   */\n      tag_156\n        /* \"#utility.yul\":4812:4814   */\n      0x20\n        /* \"#utility.yul\":4807:4810   */\n      dup4\n        /* \"#utility.yul\":4748:4815   */\n      tag_93\n      jump\t// in\n    tag_156:\n        /* \"#utility.yul\":4741:4815   */\n      swap2\n      pop\n        /* \"#utility.yul\":4824:4917   */\n      tag_157\n        /* \"#utility.yul\":4913:4916   */\n      dup3\n        /* \"#utility.yul\":4824:4917   */\n      tag_94\n      jump\t// in\n    tag_157:\n        /* \"#utility.yul\":4942:4944   */\n      0x20\n        /* \"#utility.yul\":4937:4940   */\n      dup3\n        /* \"#utility.yul\":4933:4945   */\n      add\n        /* \"#utility.yul\":4926:4945   */\n      swap1\n      pop\n        /* \"#utility.yul\":4585:4951   */\n      swap2\n      swap1\n      pop\n      jump\t// out\n        /* \"#utility.yul\":4957:5376   */\n    tag_43:\n        /* \"#utility.yul\":5123:5127   */\n      0x00\n        /* \"#utility.yul\":5161:5163   */\n      0x20\n        /* \"#utility.yul\":5150:5159   */\n      dup3\n        /* \"#utility.yul\":5146:5164   */\n      add\n        /* \"#utility.yul\":5138:5164   */\n      swap1\n      pop\n        /* \"#utility.yul\":5210:5219   */\n      dup2\n        /* \"#utility.yul\":5204:5208   */\n      dup2\n        /* \"#utility.yul\":5200:5220   */\n      sub\n        /* \"#utility.yul\":5196:5197   */\n      0x00\n        /* \"#utility.yul\":5185:5194   */\n      dup4\n        /* \"#utility.yul\":5181:5198   */\n      add\n        /* \"#utility.yul\":5174:5221   */\n      mstore\n        /* \"#utility.yul\":5238:5369   */\n      tag_159\n        /* \"#utility.yul\":5364:5368   */\n      dup2\n        /* \"#utility.yul\":5238:5369   */\n      tag_95\n      jump\t// in\n    tag_159:\n        /* \"#utility.yul\":5230:5369   */\n      swap1\n      pop\n        /* \"#utility.yul\":4957:5376   */\n      swap2\n      swap1\n      pop\n      jump\t// out\n        /* \"#utility.yul\":5382:5500   */\n    tag_96:\n        /* \"#utility.yul\":5469:5493   */\n      tag_161\n        /* \"#utility.yul\":5487:5492   */\n      dup2\n        /* \"#utility.yul\":5469:5493   */\n      tag_82\n      jump\t// in\n    tag_161:\n        /* \"#utility.yul\":5464:5467   */\n      dup3\n        /* \"#utility.yul\":5457:5494   */\n      mstore\n        /* \"#utility.yul\":5382:5500   */\n      pop\n      pop\n      jump\t// out\n        /* \"#utility.yul\":5506:5728   */\n    tag_46:\n        /* \"#utility.yul\":5599:5603   */\n      0x00\n        /* \"#utility.yul\":5637:5639   */\n      0x20\n        /* \"#utility.yul\":5626:5635   */\n      dup3\n        /* \"#utility.yul\":5622:5640   */\n      add\n        /* \"#utility.yul\":5614:5640   */\n      swap1\n      pop\n        /* \"#utility.yul\":5650:5721   */\n      tag_163\n        /* \"#utility.yul\":5718:5719   */\n      0x00\n        /* \"#utility.yul\":5707:5716   */\n      dup4\n        /* \"#utility.yul\":5703:5720   */\n      add\n        /* \"#utility.yul\":5694:5700   */\n      dup5\n        /* \"#utility.yul\":5650:5721   */\n      tag_96\n      jump\t// in\n    tag_163:\n        /* \"#utility.yul\":5506:5728   */\n      swap3\n      swap2\n      pop\n      pop\n      jump\t// out\n        /* \"#utility.yul\":5734:5914   */\n    tag_97:\n        /* \"#utility.yul\":5782:5859   */\n      0x4e487b7100000000000000000000000000000000000000000000000000000000\n        /* \"#utility.yul\":5779:5780   */\n      0x00\n        /* \"#utility.yul\":5772:5860   */\n      mstore\n        /* \"#utility.yul\":5879:5883   */\n      0x11\n        /* \"#utility.yul\":5876:5877   */\n      0x04\n        /* \"#utility.yul\":5869:5884   */\n      mstore\n        /* \"#utility.yul\":5903:5907   */\n      0x24\n        /* \"#utility.yul\":5900:5901   */\n      0x00\n        /* \"#utility.yul\":5893:5908   */\n      revert\n        /* \"#utility.yul\":5920:6091   */\n    tag_54:\n        /* \"#utility.yul\":5959:5962   */\n      0x00\n        /* \"#utility.yul\":5982:6006   */\n      tag_166\n        /* \"#utility.yul\":6000:6005   */\n      dup3\n        /* \"#utility.yul\":5982:6006   */\n      tag_89\n      jump\t// in\n    tag_166:\n        /* \"#utility.yul\":5973:6006   */\n      swap2\n      pop\n        /* \"#utility.yul\":6028:6032   */\n      0x00\n        /* \"#utility.yul\":6021:6026   */\n      dup3\n        /* \"#utility.yul\":6018:6033   */\n      sub\n        /* \"#utility.yul\":6015:6056   */\n      tag_167\n      jumpi\n        /* \"#utility.yul\":6036:6054   */\n      tag_168\n      tag_97\n      jump\t// in\n    tag_168:\n        /* \"#utility.yul\":6015:6056   */\n    tag_167:\n        /* \"#utility.yul\":6083:6084   */\n      0x01\n        /* \"#utility.yul\":6076:6081   */\n      dup3\n        /* \"#utility.yul\":6072:6085   */\n      sub\n        /* \"#utility.yul\":6065:6085   */\n      swap1\n      pop\n        /* \"#utility.yul\":5920:6091   */\n      swap2\n      swap1\n      pop\n      jump\t// out\n        /* \"#utility.yul\":6097:6269   */\n    tag_98:\n        /* \"#utility.yul\":6237:6261   */\n      0x456c206c696d697465206573206d61796f722061203100000000000000000000\n        /* \"#utility.yul\":6233:6234   */\n      0x00\n        /* \"#utility.yul\":6225:6231   */\n      dup3\n        /* \"#utility.yul\":6221:6235   */\n      add\n        /* \"#utility.yul\":6214:6262   */\n      mstore\n        /* \"#utility.yul\":6097:6269   */\n      pop\n      jump\t// out\n        /* \"#utility.yul\":6275:6641   */\n    tag_99:\n        /* \"#utility.yul\":6417:6420   */\n      0x00\n        /* \"#utility.yul\":6438:6505   */\n      tag_171\n        /* \"#utility.yul\":6502:6504   */\n      0x16\n        /* \"#utility.yul\":6497:6500   */\n      dup4\n        /* \"#utility.yul\":6438:6505   */\n      tag_93\n      jump\t// in\n    tag_171:\n        /* \"#utility.yul\":6431:6505   */\n      swap2\n      pop\n        /* \"#utility.yul\":6514:6607   */\n      tag_172\n        /* \"#utility.yul\":6603:6606   */\n      dup3\n        /* \"#utility.yul\":6514:6607   */\n      tag_98\n      jump\t// in\n    tag_172:\n        /* \"#utility.yul\":6632:6634   */\n      0x20\n        /* \"#utility.yul\":6627:6630   */\n      dup3\n        /* \"#utility.yul\":6623:6635   */\n      add\n        /* \"#utility.yul\":6616:6635   */\n      swap1\n      pop\n        /* \"#utility.yul\":6275:6641   */\n      swap2\n      swap1\n      pop\n      jump\t// out\n        /* \"#utility.yul\":6647:7066   */\n    tag_65:\n        /* \"#utility.yul\":6813:6817   */\n      0x00\n        /* \"#utility.yul\":6851:6853   */\n      0x20\n        /* \"#utility.yul\":6840:6849   */\n      dup3\n        /* \"#utility.yul\":6836:6854   */\n      add\n        /* \"#utility.yul\":6828:6854   */\n      swap1\n      pop\n        /* \"#utility.yul\":6900:6909   */\n      dup2\n        /* \"#utility.yul\":6894:6898   */\n      dup2\n        /* \"#utility.yul\":6890:6910   */\n      sub\n        /* \"#utility.yul\":6886:6887   */\n      0x00\n        /* \"#utility.yul\":6875:6884   */\n      dup4\n        /* \"#utility.yul\":6871:6888   */\n      add\n        /* \"#utility.yul\":6864:6911   */\n      mstore\n        /* \"#utility.yul\":6928:7059   */\n      tag_174\n        /* \"#utility.yul\":7054:7058   */\n      dup2\n        /* \"#utility.yul\":6928:7059   */\n      tag_99\n      jump\t// in\n    tag_174:\n        /* \"#utility.yul\":6920:7059   */\n      swap1\n      pop\n        /* \"#utility.yul\":6647:7066   */\n      swap2\n      swap1\n      pop\n      jump\t// out\n        /* \"#utility.yul\":7072:7404   */\n    tag_75:\n        /* \"#utility.yul\":7193:7197   */\n      0x00\n        /* \"#utility.yul\":7231:7233   */\n      0x40\n        /* \"#utility.yul\":7220:7229   */\n      dup3\n        /* \"#utility.yul\":7216:7234   */\n      add\n        /* \"#utility.yul\":7208:7234   */\n      swap1\n      pop\n        /* \"#utility.yul\":7244:7315   */\n      tag_176\n        /* \"#utility.yul\":7312:7313   */\n      0x00\n        /* \"#utility.yul\":7301:7310   */\n      dup4\n        /* \"#utility.yul\":7297:7314   */\n      add\n        /* \"#utility.yul\":7288:7294   */\n      dup6\n        /* \"#utility.yul\":7244:7315   */\n      tag_96\n      jump\t// in\n    tag_176:\n        /* \"#utility.yul\":7325:7397   */\n      tag_177\n        /* \"#utility.yul\":7393:7395   */\n      0x20\n        /* \"#utility.yul\":7382:7391   */\n      dup4\n        /* \"#utility.yul\":7378:7396   */\n      add\n        /* \"#utility.yul\":7369:7375   */\n      dup5\n        /* \"#utility.yul\":7325:7397   */\n      tag_96\n      jump\t// in\n    tag_177:\n        /* \"#utility.yul\":7072:7404   */\n      swap4\n      swap3\n      pop\n      pop\n      pop\n      jump\t// out\n\n    auxdata: 0xa2646970667358221220125511ace0b3a2c8aad3b04a7241da770dc78daa89bdc8efa4f3ae4ec308377b64736f6c63430008110033\n}\n",
				"bytecode": {
					"linkReferences": {},
					"object": "608060405234801561001057600080fd5b5060016000803373ffffffffffffffffffffffffffffffffffffffff1673ffffffffffffffffffffffffffffffffffffffff16815260200190815260200160002060008060001b815260200190815260200160002060006101000a81548160ff021916908315150217905550610c458061008b6000396000f3fe608060405234801561001057600080fd5b506004361061007d5760003560e01c8063ac4ab3fb1161005b578063ac4ab3fb146100c6578063e412ac65146100f6578063ed119de014610112578063f2fde38b146101435761007d565b8063715018a614610082578063a217fddf1461008c578063ab2742dc146100aa575b600080fd5b61008a61015f565b005b610094610251565b6040516100a1919061086d565b60405180910390f35b6100c460048036038101906100bf9190610917565b610258565b005b6100e060048036038101906100db9190610917565b6104bb565b6040516100ed9190610972565b60405180910390f35b610110600480360381019061010b91906109c3565b610522565b005b61012c60048036038101906101279190610917565b610676565b60405161013a929190610a25565b60405180910390f35b61015d60048036038101906101589190610a4e565b6106f4565b005b6000801b61016d33826104bb565b6101ac576040517f08c379a00000000000000000000000000000000000000000000000000000000081526004016101a390610ad8565b60405180910390fd5b60008060003373ffffffffffffffffffffffffffffffffffffffff1673ffffffffffffffffffffffffffffffffffffffff16815260200190815260200160002060008060001b815260200190815260200160002060006101000a81548160ff0219169083151502179055507f78051f4d375fa5e34e0acac11b69c75d30c1414823705aded4dc11b9b6d70418336040516102469190610b07565b60405180910390a150565b6000801b81565b6000801b61026633826104bb565b6102a5576040517f08c379a000000000000000000000000000000000000000000000000000000000815260040161029c90610ad8565b60405180910390fd5b60016000808573ffffffffffffffffffffffffffffffffffffffff1673ffffffffffffffffffffffffffffffffffffffff168152602001908152602001600020600084815260200190815260200160002060006101000a81548160ff0219169083151502179055506000600160003373ffffffffffffffffffffffffffffffffffffffff1673ffffffffffffffffffffffffffffffffffffffff16815260200190815260200160002060008060001b8152602001908152602001600020549050600181036104425760008060003373ffffffffffffffffffffffffffffffffffffffff1673ffffffffffffffffffffffffffffffffffffffff16815260200190815260200160002060008060001b815260200190815260200160002060006101000a81548160ff021916908315150217905550600160003373ffffffffffffffffffffffffffffffffffffffff1673ffffffffffffffffffffffffffffffffffffffff16815260200190815260200160002060008060001b8152602001908152602001600020600081548092919061043c90610b51565b91905055505b60018111156104b557600160003373ffffffffffffffffffffffffffffffffffffffff1673ffffffffffffffffffffffffffffffffffffffff16815260200190815260200160002060008060001b815260200190815260200160002060008154809291906104af90610b51565b91905055505b50505050565b60008060008473ffffffffffffffffffffffffffffffffffffffff1673ffffffffffffffffffffffffffffffffffffffff168152602001908152602001600020600083815260200190815260200160002060009054906101000a900460ff16905092915050565b6000801b61053033826104bb565b61056f576040517f08c379a000000000000000000000000000000000000000000000000000000000815260040161056690610ad8565b60405180910390fd5b60018210156105b3576040517f08c379a00000000000000000000000000000000000000000000000000000000081526004016105aa90610bc6565b60405180910390fd5b60016000808673ffffffffffffffffffffffffffffffffffffffff1673ffffffffffffffffffffffffffffffffffffffff168152602001908152602001600020600085815260200190815260200160002060006101000a81548160ff02191690831515021790555081600160008673ffffffffffffffffffffffffffffffffffffffff1673ffffffffffffffffffffffffffffffffffffffff16815260200190815260200160002060008581526020019081526020016000208190555050505050565b6000806000600160008673ffffffffffffffffffffffffffffffffffffffff1673ffffffffffffffffffffffffffffffffffffffff168152602001908152602001600020600085815260200190815260200160002054905060008111156106e45760018192509250506106ed565b60008092509250505b9250929050565b6000801b61070233826104bb565b610741576040517f08c379a000000000000000000000000000000000000000000000000000000000815260040161073890610ad8565b60405180910390fd5b60016000808473ffffffffffffffffffffffffffffffffffffffff1673ffffffffffffffffffffffffffffffffffffffff16815260200190815260200160002060008060001b815260200190815260200160002060006101000a81548160ff02191690831515021790555060008060003373ffffffffffffffffffffffffffffffffffffffff1673ffffffffffffffffffffffffffffffffffffffff16815260200190815260200160002060008060001b815260200190815260200160002060006101000a81548160ff0219169083151502179055507f5c486528ec3e3f0ea91181cff8116f02bfa350e03b8b6f12e00765adbb5af85c3383604051610848929190610be6565b60405180910390a15050565b6000819050919050565b61086781610854565b82525050565b6000602082019050610882600083018461085e565b92915050565b600080fd5b600073ffffffffffffffffffffffffffffffffffffffff82169050919050565b60006108b88261088d565b9050919050565b6108c8816108ad565b81146108d357600080fd5b50565b6000813590506108e5816108bf565b92915050565b6108f481610854565b81146108ff57600080fd5b50565b600081359050610911816108eb565b92915050565b6000806040838503121561092e5761092d610888565b5b600061093c858286016108d6565b925050602061094d85828601610902565b9150509250929050565b60008115159050919050565b61096c81610957565b82525050565b60006020820190506109876000830184610963565b92915050565b6000819050919050565b6109a08161098d565b81146109ab57600080fd5b50565b6000813590506109bd81610997565b92915050565b6000806000606084860312156109dc576109db610888565b5b60006109ea868287016108d6565b93505060206109fb86828701610902565b9250506040610a0c868287016109ae565b9150509250925092565b610a1f8161098d565b82525050565b6000604082019050610a3a6000830185610963565b610a476020830184610a16565b9392505050565b600060208284031215610a6457610a63610888565b5b6000610a72848285016108d6565b91505092915050565b600082825260208201905092915050565b7f4375656e7461206e6f207469656e6520656c20726f6c206e656365736172696f600082015250565b6000610ac2602083610a7b565b9150610acd82610a8c565b602082019050919050565b60006020820190508181036000830152610af181610ab5565b9050919050565b610b01816108ad565b82525050565b6000602082019050610b1c6000830184610af8565b92915050565b7f4e487b7100000000000000000000000000000000000000000000000000000000600052601160045260246000fd5b6000610b5c8261098d565b915060008203610b6f57610b6e610b22565b5b600182039050919050565b7f456c206c696d697465206573206d61796f722061203100000000000000000000600082015250565b6000610bb0601683610a7b565b9150610bbb82610b7a565b602082019050919050565b60006020820190508181036000830152610bdf81610ba3565b9050919050565b6000604082019050610bfb6000830185610af8565b610c086020830184610af8565b939250505056fea2646970667358221220125511ace0b3a2c8aad3b04a7241da770dc78daa89bdc8efa4f3ae4ec308377b64736f6c63430008110033",
					"opcodes": "PUSH1 0x80 PUSH1 0x40 MSTORE CALLVALUE DUP1 ISZERO PUSH2 0x10 JUMPI PUSH1 0x0 DUP1 REVERT JUMPDEST POP PUSH1 0x1 PUSH1 0x0 DUP1 CALLER PUSH20 0xFFFFFFFFFFFFFFFFFFFFFFFFFFFFFFFFFFFFFFFF AND PUSH20 0xFFFFFFFFFFFFFFFFFFFFFFFFFFFFFFFFFFFFFFFF AND DUP2 MSTORE PUSH1 0x20 ADD SWAP1 DUP2 MSTORE PUSH1 0x20 ADD PUSH1 0x0 KECCAK256 PUSH1 0x0 DUP1 PUSH1 0x0 SHL DUP2 MSTORE PUSH1 0x20 ADD SWAP1 DUP2 MSTORE PUSH1 0x20 ADD PUSH1 0x0 KECCAK256 PUSH1 0x0 PUSH2 0x100 EXP DUP2 SLOAD DUP2 PUSH1 0xFF MUL NOT AND SWAP1 DUP4 ISZERO ISZERO MUL OR SWAP1 SSTORE POP PUSH2 0xC45 DUP1 PUSH2 0x8B PUSH1 0x0 CODECOPY PUSH1 0x0 RETURN INVALID PUSH1 0x80 PUSH1 0x40 MSTORE CALLVALUE DUP1 ISZERO PUSH2 0x10 JUMPI PUSH1 0x0 DUP1 REVERT JUMPDEST POP PUSH1 0x4 CALLDATASIZE LT PUSH2 0x7D JUMPI PUSH1 0x0 CALLDATALOAD PUSH1 0xE0 SHR DUP1 PUSH4 0xAC4AB3FB GT PUSH2 0x5B JUMPI DUP1 PUSH4 0xAC4AB3FB EQ PUSH2 0xC6 JUMPI DUP1 PUSH4 0xE412AC65 EQ PUSH2 0xF6 JUMPI DUP1 PUSH4 0xED119DE0 EQ PUSH2 0x112 JUMPI DUP1 PUSH4 0xF2FDE38B EQ PUSH2 0x143 JUMPI PUSH2 0x7D JUMP JUMPDEST DUP1 PUSH4 0x715018A6 EQ PUSH2 0x82 JUMPI DUP1 PUSH4 0xA217FDDF EQ PUSH2 0x8C JUMPI DUP1 PUSH4 0xAB2742DC EQ PUSH2 0xAA JUMPI JUMPDEST PUSH1 0x0 DUP1 REVERT JUMPDEST PUSH2 0x8A PUSH2 0x15F JUMP JUMPDEST STOP JUMPDEST PUSH2 0x94 PUSH2 0x251 JUMP JUMPDEST PUSH1 0x40 MLOAD PUSH2 0xA1 SWAP2 SWAP1 PUSH2 0x86D JUMP JUMPDEST PUSH1 0x40 MLOAD DUP1 SWAP2 SUB SWAP1 RETURN JUMPDEST PUSH2 0xC4 PUSH1 0x4 DUP1 CALLDATASIZE SUB DUP2 ADD SWAP1 PUSH2 0xBF SWAP2 SWAP1 PUSH2 0x917 JUMP JUMPDEST PUSH2 0x258 JUMP JUMPDEST STOP JUMPDEST PUSH2 0xE0 PUSH1 0x4 DUP1 CALLDATASIZE SUB DUP2 ADD SWAP1 PUSH2 0xDB SWAP2 SWAP1 PUSH2 0x917 JUMP JUMPDEST PUSH2 0x4BB JUMP JUMPDEST PUSH1 0x40 MLOAD PUSH2 0xED SWAP2 SWAP1 PUSH2 0x972 JUMP JUMPDEST PUSH1 0x40 MLOAD DUP1 SWAP2 SUB SWAP1 RETURN JUMPDEST PUSH2 0x110 PUSH1 0x4 DUP1 CALLDATASIZE SUB DUP2 ADD SWAP1 PUSH2 0x10B SWAP2 SWAP1 PUSH2 0x9C3 JUMP JUMPDEST PUSH2 0x522 JUMP JUMPDEST STOP JUMPDEST PUSH2 0x12C PUSH1 0x4 DUP1 CALLDATASIZE SUB DUP2 ADD SWAP1 PUSH2 0x127 SWAP2 SWAP1 PUSH2 0x917 JUMP JUMPDEST PUSH2 0x676 JUMP JUMPDEST PUSH1 0x40 MLOAD PUSH2 0x13A SWAP3 SWAP2 SWAP1 PUSH2 0xA25 JUMP JUMPDEST PUSH1 0x40 MLOAD DUP1 SWAP2 SUB SWAP1 RETURN JUMPDEST PUSH2 0x15D PUSH1 0x4 DUP1 CALLDATASIZE SUB DUP2 ADD SWAP1 PUSH2 0x158 SWAP2 SWAP1 PUSH2 0xA4E JUMP JUMPDEST PUSH2 0x6F4 JUMP JUMPDEST STOP JUMPDEST PUSH1 0x0 DUP1 SHL PUSH2 0x16D CALLER DUP3 PUSH2 0x4BB JUMP JUMPDEST PUSH2 0x1AC JUMPI PUSH1 0x40 MLOAD PUSH32 0x8C379A000000000000000000000000000000000000000000000000000000000 DUP2 MSTORE PUSH1 0x4 ADD PUSH2 0x1A3 SWAP1 PUSH2 0xAD8 JUMP JUMPDEST PUSH1 0x40 MLOAD DUP1 SWAP2 SUB SWAP1 REVERT JUMPDEST PUSH1 0x0 DUP1 PUSH1 0x0 CALLER PUSH20 0xFFFFFFFFFFFFFFFFFFFFFFFFFFFFFFFFFFFFFFFF AND PUSH20 0xFFFFFFFFFFFFFFFFFFFFFFFFFFFFFFFFFFFFFFFF AND DUP2 MSTORE PUSH1 0x20 ADD SWAP1 DUP2 MSTORE PUSH1 0x20 ADD PUSH1 0x0 KECCAK256 PUSH1 0x0 DUP1 PUSH1 0x0 SHL DUP2 MSTORE PUSH1 0x20 ADD SWAP1 DUP2 MSTORE PUSH1 0x20 ADD PUSH1 0x0 KECCAK256 PUSH1 0x0 PUSH2 0x100 EXP DUP2 SLOAD DUP2 PUSH1 0xFF MUL NOT AND SWAP1 DUP4 ISZERO ISZERO MUL OR SWAP1 SSTORE POP PUSH32 0x78051F4D375FA5E34E0ACAC11B69C75D30C1414823705ADED4DC11B9B6D70418 CALLER PUSH1 0x40 MLOAD PUSH2 0x246 SWAP2 SWAP1 PUSH2 0xB07 JUMP JUMPDEST PUSH1 0x40 MLOAD DUP1 SWAP2 SUB SWAP1 LOG1 POP JUMP JUMPDEST PUSH1 0x0 DUP1 SHL DUP2 JUMP JUMPDEST PUSH1 0x0 DUP1 SHL PUSH2 0x266 CALLER DUP3 PUSH2 0x4BB JUMP JUMPDEST PUSH2 0x2A5 JUMPI PUSH1 0x40 MLOAD PUSH32 0x8C379A000000000000000000000000000000000000000000000000000000000 DUP2 MSTORE PUSH1 0x4 ADD PUSH2 0x29C SWAP1 PUSH2 0xAD8 JUMP JUMPDEST PUSH1 0x40 MLOAD DUP1 SWAP2 SUB SWAP1 REVERT JUMPDEST PUSH1 0x1 PUSH1 0x0 DUP1 DUP6 PUSH20 0xFFFFFFFFFFFFFFFFFFFFFFFFFFFFFFFFFFFFFFFF AND PUSH20 0xFFFFFFFFFFFFFFFFFFFFFFFFFFFFFFFFFFFFFFFF AND DUP2 MSTORE PUSH1 0x20 ADD SWAP1 DUP2 MSTORE PUSH1 0x20 ADD PUSH1 0x0 KECCAK256 PUSH1 0x0 DUP5 DUP2 MSTORE PUSH1 0x20 ADD SWAP1 DUP2 MSTORE PUSH1 0x20 ADD PUSH1 0x0 KECCAK256 PUSH1 0x0 PUSH2 0x100 EXP DUP2 SLOAD DUP2 PUSH1 0xFF MUL NOT AND SWAP1 DUP4 ISZERO ISZERO MUL OR SWAP1 SSTORE POP PUSH1 0x0 PUSH1 0x1 PUSH1 0x0 CALLER PUSH20 0xFFFFFFFFFFFFFFFFFFFFFFFFFFFFFFFFFFFFFFFF AND PUSH20 0xFFFFFFFFFFFFFFFFFFFFFFFFFFFFFFFFFFFFFFFF AND DUP2 MSTORE PUSH1 0x20 ADD SWAP1 DUP2 MSTORE PUSH1 0x20 ADD PUSH1 0x0 KECCAK256 PUSH1 0x0 DUP1 PUSH1 0x0 SHL DUP2 MSTORE PUSH1 0x20 ADD SWAP1 DUP2 MSTORE PUSH1 0x20 ADD PUSH1 0x0 KECCAK256 SLOAD SWAP1 POP PUSH1 0x1 DUP2 SUB PUSH2 0x442 JUMPI PUSH1 0x0 DUP1 PUSH1 0x0 CALLER PUSH20 0xFFFFFFFFFFFFFFFFFFFFFFFFFFFFFFFFFFFFFFFF AND PUSH20 0xFFFFFFFFFFFFFFFFFFFFFFFFFFFFFFFFFFFFFFFF AND DUP2 MSTORE PUSH1 0x20 ADD SWAP1 DUP2 MSTORE PUSH1 0x20 ADD PUSH1 0x0 KECCAK256 PUSH1 0x0 DUP1 PUSH1 0x0 SHL DUP2 MSTORE PUSH1 0x20 ADD SWAP1 DUP2 MSTORE PUSH1 0x20 ADD PUSH1 0x0 KECCAK256 PUSH1 0x0 PUSH2 0x100 EXP DUP2 SLOAD DUP2 PUSH1 0xFF MUL NOT AND SWAP1 DUP4 ISZERO ISZERO MUL OR SWAP1 SSTORE POP PUSH1 0x1 PUSH1 0x0 CALLER PUSH20 0xFFFFFFFFFFFFFFFFFFFFFFFFFFFFFFFFFFFFFFFF AND PUSH20 0xFFFFFFFFFFFFFFFFFFFFFFFFFFFFFFFFFFFFFFFF AND DUP2 MSTORE PUSH1 0x20 ADD SWAP1 DUP2 MSTORE PUSH1 0x20 ADD PUSH1 0x0 KECCAK256 PUSH1 0x0 DUP1 PUSH1 0x0 SHL DUP2 MSTORE PUSH1 0x20 ADD SWAP1 DUP2 MSTORE PUSH1 0x20 ADD PUSH1 0x0 KECCAK256 PUSH1 0x0 DUP2 SLOAD DUP1 SWAP3 SWAP2 SWAP1 PUSH2 0x43C SWAP1 PUSH2 0xB51 JUMP JUMPDEST SWAP2 SWAP1 POP SSTORE POP JUMPDEST PUSH1 0x1 DUP2 GT ISZERO PUSH2 0x4B5 JUMPI PUSH1 0x1 PUSH1 0x0 CALLER PUSH20 0xFFFFFFFFFFFFFFFFFFFFFFFFFFFFFFFFFFFFFFFF AND PUSH20 0xFFFFFFFFFFFFFFFFFFFFFFFFFFFFFFFFFFFFFFFF AND DUP2 MSTORE PUSH1 0x20 ADD SWAP1 DUP2 MSTORE PUSH1 0x20 ADD PUSH1 0x0 KECCAK256 PUSH1 0x0 DUP1 PUSH1 0x0 SHL DUP2 MSTORE PUSH1 0x20 ADD SWAP1 DUP2 MSTORE PUSH1 0x20 ADD PUSH1 0x0 KECCAK256 PUSH1 0x0 DUP2 SLOAD DUP1 SWAP3 SWAP2 SWAP1 PUSH2 0x4AF SWAP1 PUSH2 0xB51 JUMP JUMPDEST SWAP2 SWAP1 POP SSTORE POP JUMPDEST POP POP POP POP JUMP JUMPDEST PUSH1 0x0 DUP1 PUSH1 0x0 DUP5 PUSH20 0xFFFFFFFFFFFFFFFFFFFFFFFFFFFFFFFFFFFFFFFF AND PUSH20 0xFFFFFFFFFFFFFFFFFFFFFFFFFFFFFFFFFFFFFFFF AND DUP2 MSTORE PUSH1 0x20 ADD SWAP1 DUP2 MSTORE PUSH1 0x20 ADD PUSH1 0x0 KECCAK256 PUSH1 0x0 DUP4 DUP2 MSTORE PUSH1 0x20 ADD SWAP1 DUP2 MSTORE PUSH1 0x20 ADD PUSH1 0x0 KECCAK256 PUSH1 0x0 SWAP1 SLOAD SWAP1 PUSH2 0x100 EXP SWAP1 DIV PUSH1 0xFF AND SWAP1 POP SWAP3 SWAP2 POP POP JUMP JUMPDEST PUSH1 0x0 DUP1 SHL PUSH2 0x530 CALLER DUP3 PUSH2 0x4BB JUMP JUMPDEST PUSH2 0x56F JUMPI PUSH1 0x40 MLOAD PUSH32 0x8C379A000000000000000000000000000000000000000000000000000000000 DUP2 MSTORE PUSH1 0x4 ADD PUSH2 0x566 SWAP1 PUSH2 0xAD8 JUMP JUMPDEST PUSH1 0x40 MLOAD DUP1 SWAP2 SUB SWAP1 REVERT JUMPDEST PUSH1 0x1 DUP3 LT ISZERO PUSH2 0x5B3 JUMPI PUSH1 0x40 MLOAD PUSH32 0x8C379A000000000000000000000000000000000000000000000000000000000 DUP2 MSTORE PUSH1 0x4 ADD PUSH2 0x5AA SWAP1 PUSH2 0xBC6 JUMP JUMPDEST PUSH1 0x40 MLOAD DUP1 SWAP2 SUB SWAP1 REVERT JUMPDEST PUSH1 0x1 PUSH1 0x0 DUP1 DUP7 PUSH20 0xFFFFFFFFFFFFFFFFFFFFFFFFFFFFFFFFFFFFFFFF AND PUSH20 0xFFFFFFFFFFFFFFFFFFFFFFFFFFFFFFFFFFFFFFFF AND DUP2 MSTORE PUSH1 0x20 ADD SWAP1 DUP2 MSTORE PUSH1 0x20 ADD PUSH1 0x0 KECCAK256 PUSH1 0x0 DUP6 DUP2 MSTORE PUSH1 0x20 ADD SWAP1 DUP2 MSTORE PUSH1 0x20 ADD PUSH1 0x0 KECCAK256 PUSH1 0x0 PUSH2 0x100 EXP DUP2 SLOAD DUP2 PUSH1 0xFF MUL NOT AND SWAP1 DUP4 ISZERO ISZERO MUL OR SWAP1 SSTORE POP DUP2 PUSH1 0x1 PUSH1 0x0 DUP7 PUSH20 0xFFFFFFFFFFFFFFFFFFFFFFFFFFFFFFFFFFFFFFFF AND PUSH20 0xFFFFFFFFFFFFFFFFFFFFFFFFFFFFFFFFFFFFFFFF AND DUP2 MSTORE PUSH1 0x20 ADD SWAP1 DUP2 MSTORE PUSH1 0x20 ADD PUSH1 0x0 KECCAK256 PUSH1 0x0 DUP6 DUP2 MSTORE PUSH1 0x20 ADD SWAP1 DUP2 MSTORE PUSH1 0x20 ADD PUSH1 0x0 KECCAK256 DUP2 SWAP1 SSTORE POP POP POP POP POP JUMP JUMPDEST PUSH1 0x0 DUP1 PUSH1 0x0 PUSH1 0x1 PUSH1 0x0 DUP7 PUSH20 0xFFFFFFFFFFFFFFFFFFFFFFFFFFFFFFFFFFFFFFFF AND PUSH20 0xFFFFFFFFFFFFFFFFFFFFFFFFFFFFFFFFFFFFFFFF AND DUP2 MSTORE PUSH1 0x20 ADD SWAP1 DUP2 MSTORE PUSH1 0x20 ADD PUSH1 0x0 KECCAK256 PUSH1 0x0 DUP6 DUP2 MSTORE PUSH1 0x20 ADD SWAP1 DUP2 MSTORE PUSH1 0x20 ADD PUSH1 0x0 KECCAK256 SLOAD SWAP1 POP PUSH1 0x0 DUP2 GT ISZERO PUSH2 0x6E4 JUMPI PUSH1 0x1 DUP2 SWAP3 POP SWAP3 POP POP PUSH2 0x6ED JUMP JUMPDEST PUSH1 0x0 DUP1 SWAP3 POP SWAP3 POP POP JUMPDEST SWAP3 POP SWAP3 SWAP1 POP JUMP JUMPDEST PUSH1 0x0 DUP1 SHL PUSH2 0x702 CALLER DUP3 PUSH2 0x4BB JUMP JUMPDEST PUSH2 0x741 JUMPI PUSH1 0x40 MLOAD PUSH32 0x8C379A000000000000000000000000000000000000000000000000000000000 DUP2 MSTORE PUSH1 0x4 ADD PUSH2 0x738 SWAP1 PUSH2 0xAD8 JUMP JUMPDEST PUSH1 0x40 MLOAD DUP1 SWAP2 SUB SWAP1 REVERT JUMPDEST PUSH1 0x1 PUSH1 0x0 DUP1 DUP5 PUSH20 0xFFFFFFFFFFFFFFFFFFFFFFFFFFFFFFFFFFFFFFFF AND PUSH20 0xFFFFFFFFFFFFFFFFFFFFFFFFFFFFFFFFFFFFFFFF AND DUP2 MSTORE PUSH1 0x20 ADD SWAP1 DUP2 MSTORE PUSH1 0x20 ADD PUSH1 0x0 KECCAK256 PUSH1 0x0 DUP1 PUSH1 0x0 SHL DUP2 MSTORE PUSH1 0x20 ADD SWAP1 DUP2 MSTORE PUSH1 0x20 ADD PUSH1 0x0 KECCAK256 PUSH1 0x0 PUSH2 0x100 EXP DUP2 SLOAD DUP2 PUSH1 0xFF MUL NOT AND SWAP1 DUP4 ISZERO ISZERO MUL OR SWAP1 SSTORE POP PUSH1 0x0 DUP1 PUSH1 0x0 CALLER PUSH20 0xFFFFFFFFFFFFFFFFFFFFFFFFFFFFFFFFFFFFFFFF AND PUSH20 0xFFFFFFFFFFFFFFFFFFFFFFFFFFFFFFFFFFFFFFFF AND DUP2 MSTORE PUSH1 0x20 ADD SWAP1 DUP2 MSTORE PUSH1 0x20 ADD PUSH1 0x0 KECCAK256 PUSH1 0x0 DUP1 PUSH1 0x0 SHL DUP2 MSTORE PUSH1 0x20 ADD SWAP1 DUP2 MSTORE PUSH1 0x20 ADD PUSH1 0x0 KECCAK256 PUSH1 0x0 PUSH2 0x100 EXP DUP2 SLOAD DUP2 PUSH1 0xFF MUL NOT AND SWAP1 DUP4 ISZERO ISZERO MUL OR SWAP1 SSTORE POP PUSH32 0x5C486528EC3E3F0EA91181CFF8116F02BFA350E03B8B6F12E00765ADBB5AF85C CALLER DUP4 PUSH1 0x40 MLOAD PUSH2 0x848 SWAP3 SWAP2 SWAP1 PUSH2 0xBE6 JUMP JUMPDEST PUSH1 0x40 MLOAD DUP1 SWAP2 SUB SWAP1 LOG1 POP POP JUMP JUMPDEST PUSH1 0x0 DUP2 SWAP1 POP SWAP2 SWAP1 POP JUMP JUMPDEST PUSH2 0x867 DUP2 PUSH2 0x854 JUMP JUMPDEST DUP3 MSTORE POP POP JUMP JUMPDEST PUSH1 0x0 PUSH1 0x20 DUP3 ADD SWAP1 POP PUSH2 0x882 PUSH1 0x0 DUP4 ADD DUP5 PUSH2 0x85E JUMP JUMPDEST SWAP3 SWAP2 POP POP JUMP JUMPDEST PUSH1 0x0 DUP1 REVERT JUMPDEST PUSH1 0x0 PUSH20 0xFFFFFFFFFFFFFFFFFFFFFFFFFFFFFFFFFFFFFFFF DUP3 AND SWAP1 POP SWAP2 SWAP1 POP JUMP JUMPDEST PUSH1 0x0 PUSH2 0x8B8 DUP3 PUSH2 0x88D JUMP JUMPDEST SWAP1 POP SWAP2 SWAP1 POP JUMP JUMPDEST PUSH2 0x8C8 DUP2 PUSH2 0x8AD JUMP JUMPDEST DUP2 EQ PUSH2 0x8D3 JUMPI PUSH1 0x0 DUP1 REVERT JUMPDEST POP JUMP JUMPDEST PUSH1 0x0 DUP2 CALLDATALOAD SWAP1 POP PUSH2 0x8E5 DUP2 PUSH2 0x8BF JUMP JUMPDEST SWAP3 SWAP2 POP POP JUMP JUMPDEST PUSH2 0x8F4 DUP2 PUSH2 0x854 JUMP JUMPDEST DUP2 EQ PUSH2 0x8FF JUMPI PUSH1 0x0 DUP1 REVERT JUMPDEST POP JUMP JUMPDEST PUSH1 0x0 DUP2 CALLDATALOAD SWAP1 POP PUSH2 0x911 DUP2 PUSH2 0x8EB JUMP JUMPDEST SWAP3 SWAP2 POP POP JUMP JUMPDEST PUSH1 0x0 DUP1 PUSH1 0x40 DUP4 DUP6 SUB SLT ISZERO PUSH2 0x92E JUMPI PUSH2 0x92D PUSH2 0x888 JUMP JUMPDEST JUMPDEST PUSH1 0x0 PUSH2 0x93C DUP6 DUP3 DUP7 ADD PUSH2 0x8D6 JUMP JUMPDEST SWAP3 POP POP PUSH1 0x20 PUSH2 0x94D DUP6 DUP3 DUP7 ADD PUSH2 0x902 JUMP JUMPDEST SWAP2 POP POP SWAP3 POP SWAP3 SWAP1 POP JUMP JUMPDEST PUSH1 0x0 DUP2 ISZERO ISZERO SWAP1 POP SWAP2 SWAP1 POP JUMP JUMPDEST PUSH2 0x96C DUP2 PUSH2 0x957 JUMP JUMPDEST DUP3 MSTORE POP POP JUMP JUMPDEST PUSH1 0x0 PUSH1 0x20 DUP3 ADD SWAP1 POP PUSH2 0x987 PUSH1 0x0 DUP4 ADD DUP5 PUSH2 0x963 JUMP JUMPDEST SWAP3 SWAP2 POP POP JUMP JUMPDEST PUSH1 0x0 DUP2 SWAP1 POP SWAP2 SWAP1 POP JUMP JUMPDEST PUSH2 0x9A0 DUP2 PUSH2 0x98D JUMP JUMPDEST DUP2 EQ PUSH2 0x9AB JUMPI PUSH1 0x0 DUP1 REVERT JUMPDEST POP JUMP JUMPDEST PUSH1 0x0 DUP2 CALLDATALOAD SWAP1 POP PUSH2 0x9BD DUP2 PUSH2 0x997 JUMP JUMPDEST SWAP3 SWAP2 POP POP JUMP JUMPDEST PUSH1 0x0 DUP1 PUSH1 0x0 PUSH1 0x60 DUP5 DUP7 SUB SLT ISZERO PUSH2 0x9DC JUMPI PUSH2 0x9DB PUSH2 0x888 JUMP JUMPDEST JUMPDEST PUSH1 0x0 PUSH2 0x9EA DUP7 DUP3 DUP8 ADD PUSH2 0x8D6 JUMP JUMPDEST SWAP4 POP POP PUSH1 0x20 PUSH2 0x9FB DUP7 DUP3 DUP8 ADD PUSH2 0x902 JUMP JUMPDEST SWAP3 POP POP PUSH1 0x40 PUSH2 0xA0C DUP7 DUP3 DUP8 ADD PUSH2 0x9AE JUMP JUMPDEST SWAP2 POP POP SWAP3 POP SWAP3 POP SWAP3 JUMP JUMPDEST PUSH2 0xA1F DUP2 PUSH2 0x98D JUMP JUMPDEST DUP3 MSTORE POP POP JUMP JUMPDEST PUSH1 0x0 PUSH1 0x40 DUP3 ADD SWAP1 POP PUSH2 0xA3A PUSH1 0x0 DUP4 ADD DUP6 PUSH2 0x963 JUMP JUMPDEST PUSH2 0xA47 PUSH1 0x20 DUP4 ADD DUP5 PUSH2 0xA16 JUMP JUMPDEST SWAP4 SWAP3 POP POP POP JUMP JUMPDEST PUSH1 0x0 PUSH1 0x20 DUP3 DUP5 SUB SLT ISZERO PUSH2 0xA64 JUMPI PUSH2 0xA63 PUSH2 0x888 JUMP JUMPDEST JUMPDEST PUSH1 0x0 PUSH2 0xA72 DUP5 DUP3 DUP6 ADD PUSH2 0x8D6 JUMP JUMPDEST SWAP2 POP POP SWAP3 SWAP2 POP POP JUMP JUMPDEST PUSH1 0x0 DUP3 DUP3 MSTORE PUSH1 0x20 DUP3 ADD SWAP1 POP SWAP3 SWAP2 POP POP JUMP JUMPDEST PUSH32 0x4375656E7461206E6F207469656E6520656C20726F6C206E656365736172696F PUSH1 0x0 DUP3 ADD MSTORE POP JUMP JUMPDEST PUSH1 0x0 PUSH2 0xAC2 PUSH1 0x20 DUP4 PUSH2 0xA7B JUMP JUMPDEST SWAP2 POP PUSH2 0xACD DUP3 PUSH2 0xA8C JUMP JUMPDEST PUSH1 0x20 DUP3 ADD SWAP1 POP SWAP2 SWAP1 POP JUMP JUMPDEST PUSH1 0x0 PUSH1 0x20 DUP3 ADD SWAP1 POP DUP2 DUP2 SUB PUSH1 0x0 DUP4 ADD MSTORE PUSH2 0xAF1 DUP2 PUSH2 0xAB5 JUMP JUMPDEST SWAP1 POP SWAP2 SWAP1 POP JUMP JUMPDEST PUSH2 0xB01 DUP2 PUSH2 0x8AD JUMP JUMPDEST DUP3 MSTORE POP POP JUMP JUMPDEST PUSH1 0x0 PUSH1 0x20 DUP3 ADD SWAP1 POP PUSH2 0xB1C PUSH1 0x0 DUP4 ADD DUP5 PUSH2 0xAF8 JUMP JUMPDEST SWAP3 SWAP2 POP POP JUMP JUMPDEST PUSH32 0x4E487B7100000000000000000000000000000000000000000000000000000000 PUSH1 0x0 MSTORE PUSH1 0x11 PUSH1 0x4 MSTORE PUSH1 0x24 PUSH1 0x0 REVERT JUMPDEST PUSH1 0x0 PUSH2 0xB5C DUP3 PUSH2 0x98D JUMP JUMPDEST SWAP2 POP PUSH1 0x0 DUP3 SUB PUSH2 0xB6F JUMPI PUSH2 0xB6E PUSH2 0xB22 JUMP JUMPDEST JUMPDEST PUSH1 0x1 DUP3 SUB SWAP1 POP SWAP2 SWAP1 POP JUMP JUMPDEST PUSH32 0x456C206C696D697465206573206D61796F722061203100000000000000000000 PUSH1 0x0 DUP3 ADD MSTORE POP JUMP JUMPDEST PUSH1 0x0 PUSH2 0xBB0 PUSH1 0x16 DUP4 PUSH2 0xA7B JUMP JUMPDEST SWAP2 POP PUSH2 0xBBB DUP3 PUSH2 0xB7A JUMP JUMPDEST PUSH1 0x20 DUP3 ADD SWAP1 POP SWAP2 SWAP1 POP JUMP JUMPDEST PUSH1 0x0 PUSH1 0x20 DUP3 ADD SWAP1 POP DUP2 DUP2 SUB PUSH1 0x0 DUP4 ADD MSTORE PUSH2 0xBDF DUP2 PUSH2 0xBA3 JUMP JUMPDEST SWAP1 POP SWAP2 SWAP1 POP JUMP JUMPDEST PUSH1 0x0 PUSH1 0x40 DUP3 ADD SWAP1 POP PUSH2 0xBFB PUSH1 0x0 DUP4 ADD DUP6 PUSH2 0xAF8 JUMP JUMPDEST PUSH2 0xC08 PUSH1 0x20 DUP4 ADD DUP5 PUSH2 0xAF8 JUMP JUMPDEST SWAP4 SWAP3 POP POP POP JUMP INVALID LOG2 PUSH5 0x6970667358 0x22 SLT KECCAK256 SLT SSTORE GT 0xAC 0xE0 0xB3 LOG2 0xC8 0xAA 0xD3 0xB0 0x4A PUSH19 0x41DA770DC78DAA89BDC8EFA4F3AE4EC308377B PUSH5 0x736F6C6343 STOP ADDMOD GT STOP CALLER "
				},
				"gasEstimates": {
					"creation": {
						"codeDepositCost": "628200",
						"executionCost": "25104",
						"totalCost": "653304"
					},
					"external": {
						"DEFAULT_ADMIN_ROLE()": "358",
						"grantRole(address,bytes32)": "infinite",
						"grantRoleTemporarily(address,bytes32,uint256)": "49942",
						"hasRole(address,bytes32)": "3134",
						"hasTemporaryRole(address,bytes32)": "3306",
						"renounceOwnership()": "28203",
						"transferOwnership(address)": "infinite"
					}
				},
				"methodIdentifiers": {
					"DEFAULT_ADMIN_ROLE()": "a217fddf",
					"grantRole(address,bytes32)": "ab2742dc",
					"grantRoleTemporarily(address,bytes32,uint256)": "e412ac65",
					"hasRole(address,bytes32)": "ac4ab3fb",
					"hasTemporaryRole(address,bytes32)": "ed119de0",
					"renounceOwnership()": "715018a6",
					"transferOwnership(address)": "f2fde38b"
				}
			},
			"storageLayout": {
				"storage": [
					{
						"astId": 26,
						"contract": "Practica1/AccessControlLearning.sol:AccessControlLearning",
						"label": "_roles",
						"offset": 0,
						"slot": "0",
						"type": "t_mapping(t_address,t_mapping(t_bytes32,t_bool))"
					},
					{
						"astId": 187,
						"contract": "Practica1/AccessControlLearning.sol:AccessControlLearning",
						"label": "_rolesTempLimit",
						"offset": 0,
						"slot": "1",
						"type": "t_mapping(t_address,t_mapping(t_bytes32,t_uint256))"
					}
				],
				"types": {
					"t_address": {
						"encoding": "inplace",
						"label": "address",
						"numberOfBytes": "20"
					},
					"t_bool": {
						"encoding": "inplace",
						"label": "bool",
						"numberOfBytes": "1"
					},
					"t_bytes32": {
						"encoding": "inplace",
						"label": "bytes32",
						"numberOfBytes": "32"
					},
					"t_mapping(t_address,t_mapping(t_bytes32,t_bool))": {
						"encoding": "mapping",
						"key": "t_address",
						"label": "mapping(address => mapping(bytes32 => bool))",
						"numberOfBytes": "32",
						"value": "t_mapping(t_bytes32,t_bool)"
					},
					"t_mapping(t_address,t_mapping(t_bytes32,t_uint256))": {
						"encoding": "mapping",
						"key": "t_address",
						"label": "mapping(address => mapping(bytes32 => uint256))",
						"numberOfBytes": "32",
						"value": "t_mapping(t_bytes32,t_uint256)"
					},
					"t_mapping(t_bytes32,t_bool)": {
						"encoding": "mapping",
						"key": "t_bytes32",
						"label": "mapping(bytes32 => bool)",
						"numberOfBytes": "32",
						"value": "t_bool"
					},
					"t_mapping(t_bytes32,t_uint256)": {
						"encoding": "mapping",
						"key": "t_bytes32",
						"label": "mapping(bytes32 => uint256)",
						"numberOfBytes": "32",
						"value": "t_uint256"
					},
					"t_uint256": {
						"encoding": "inplace",
						"label": "uint256",
						"numberOfBytes": "32"
					}
				}
			},
			"userdoc": {
				"kind": "user",
				"methods": {},
				"notice": "Desarrollar un sistema complejo de control de accesos. Seguir las instrucciones: Cada cuenta puede tener uno o más roles. Los roles se pueden repetir en varias cuentas. 0. Definir el rol de admin con el cual se inicializa el smart contract |           | MINTER | BURNER | PAUSER | | --------- | ------ | ------ | ------ | | Account 1 | True   | True   | True   | | Account 2 | True   | False  | True   | | Account 3 | False  | False  | True   | |   ...     |   ...  |  ...   |  ...   | 1. definir un mapping doble para guardar una matriz de información. El mapping debe ser 'private' mapping 1 -> address => role mapping 2 -> role => boolean mapping(address => mapping(bytes32 => bool)) roles; 2. definir metodo de lectura de datos de la matriz hasRole 3. definir método para escribir datos en la matriz grantRole mapping[accout 1][MINTER] = true mapping[accout 1][BURNER] = true mapping[accout 1][PAUSER] = true mapping[accout 2][MINTER] = true mapping[accout 2][PAUSER] = true mapping[accout 3][PAUSER] = true 4. crear modifier que verifica el acceso de los roles 5. utilizar el constructor para inicializar valores EXTRA: 6. Crear un método que se llame 'transferOwnership(address _newOwner)' Recibe un argumento: el address del nuevo owner Solo Puede ser llamado por una cuenta admin La cuenta admin transfiere sus derechos de admin a '_newOwner' Dispara el evento 'TransferOwnership(address _prevOwner, address _newOwner)' 7. Crear un método lalmada 'renounceOwnership' La cuenta que lo llama es una cuenta admin Esta cuenta renuncia su derecho a ser admin Dispara un evento RenounceOwnership(msg.sender) 8. Crear un método llamado 'grantRoleTemporarily' Le asigna un rol determinado a una cuenta por una cantidad 'N' de veces Dicha cuenta solo puede llamar métodos del tipo rol '_role' hasta 'N' function grantRoleTemporarily(address _account, bytes32 _role, uint256 _limit) El argumento '_limit' es mayor a uno - require 9. Definir su getter llamado 'hasTemporaryRole(address _account, bytes32 _role) returns (bool, uint256)' Retorna dos valores: - indica si dicha cuenta tiene una rol temporal: true/false - indica la cantidad de veces restantes que puede llamar métodos del tipo rol '_role' - si no tiene rol temporal, devolver (false, 0)",
				"version": 1
			}
		}
	}
}