{
	"Practica1/TokenERC20_1.sol": {
		"TokenERC20_1": {
			"abi": [
				{
					"inputs": [
						{
							"internalType": "string",
							"name": "_name",
							"type": "string"
						},
						{
							"internalType": "string",
							"name": "_symbol",
							"type": "string"
						},
						{
							"internalType": "uint8",
							"name": "_decimals",
							"type": "uint8"
						}
					],
					"stateMutability": "nonpayable",
					"type": "constructor"
				},
				{
					"anonymous": false,
					"inputs": [
						{
							"indexed": true,
							"internalType": "address",
							"name": "owner",
							"type": "address"
						},
						{
							"indexed": true,
							"internalType": "address",
							"name": "spender",
							"type": "address"
						},
						{
							"indexed": false,
							"internalType": "uint256",
							"name": "value",
							"type": "uint256"
						}
					],
					"name": "Approval",
					"type": "event"
				},
				{
					"anonymous": false,
					"inputs": [
						{
							"indexed": true,
							"internalType": "bytes32",
							"name": "role",
							"type": "bytes32"
						},
						{
							"indexed": true,
							"internalType": "bytes32",
							"name": "previousAdminRole",
							"type": "bytes32"
						},
						{
							"indexed": true,
							"internalType": "bytes32",
							"name": "newAdminRole",
							"type": "bytes32"
						}
					],
					"name": "RoleAdminChanged",
					"type": "event"
				},
				{
					"anonymous": false,
					"inputs": [
						{
							"indexed": true,
							"internalType": "bytes32",
							"name": "role",
							"type": "bytes32"
						},
						{
							"indexed": true,
							"internalType": "address",
							"name": "account",
							"type": "address"
						},
						{
							"indexed": true,
							"internalType": "address",
							"name": "sender",
							"type": "address"
						}
					],
					"name": "RoleGranted",
					"type": "event"
				},
				{
					"anonymous": false,
					"inputs": [
						{
							"indexed": true,
							"internalType": "bytes32",
							"name": "role",
							"type": "bytes32"
						},
						{
							"indexed": true,
							"internalType": "address",
							"name": "account",
							"type": "address"
						},
						{
							"indexed": true,
							"internalType": "address",
							"name": "sender",
							"type": "address"
						}
					],
					"name": "RoleRevoked",
					"type": "event"
				},
				{
					"anonymous": false,
					"inputs": [
						{
							"indexed": true,
							"internalType": "address",
							"name": "from",
							"type": "address"
						},
						{
							"indexed": true,
							"internalType": "address",
							"name": "to",
							"type": "address"
						},
						{
							"indexed": false,
							"internalType": "uint256",
							"name": "value",
							"type": "uint256"
						}
					],
					"name": "Transfer",
					"type": "event"
				},
				{
					"inputs": [],
					"name": "DEFAULT_ADMIN_ROLE",
					"outputs": [
						{
							"internalType": "bytes32",
							"name": "",
							"type": "bytes32"
						}
					],
					"stateMutability": "view",
					"type": "function"
				},
				{
					"inputs": [],
					"name": "MINTER_ROLE",
					"outputs": [
						{
							"internalType": "bytes32",
							"name": "",
							"type": "bytes32"
						}
					],
					"stateMutability": "view",
					"type": "function"
				},
				{
					"inputs": [
						{
							"internalType": "address",
							"name": "owner",
							"type": "address"
						},
						{
							"internalType": "address",
							"name": "spender",
							"type": "address"
						}
					],
					"name": "allowance",
					"outputs": [
						{
							"internalType": "uint256",
							"name": "",
							"type": "uint256"
						}
					],
					"stateMutability": "view",
					"type": "function"
				},
				{
					"inputs": [
						{
							"internalType": "address",
							"name": "spender",
							"type": "address"
						},
						{
							"internalType": "uint256",
							"name": "amount",
							"type": "uint256"
						}
					],
					"name": "approve",
					"outputs": [
						{
							"internalType": "bool",
							"name": "",
							"type": "bool"
						}
					],
					"stateMutability": "nonpayable",
					"type": "function"
				},
				{
					"inputs": [
						{
							"internalType": "address",
							"name": "account",
							"type": "address"
						}
					],
					"name": "balanceOf",
					"outputs": [
						{
							"internalType": "uint256",
							"name": "",
							"type": "uint256"
						}
					],
					"stateMutability": "view",
					"type": "function"
				},
				{
					"inputs": [
						{
							"internalType": "uint256",
							"name": "amount",
							"type": "uint256"
						}
					],
					"name": "burn",
					"outputs": [],
					"stateMutability": "nonpayable",
					"type": "function"
				},
				{
					"inputs": [],
					"name": "decimals",
					"outputs": [
						{
							"internalType": "uint8",
							"name": "",
							"type": "uint8"
						}
					],
					"stateMutability": "view",
					"type": "function"
				},
				{
					"inputs": [
						{
							"internalType": "address",
							"name": "spender",
							"type": "address"
						},
						{
							"internalType": "uint256",
							"name": "subtractedValue",
							"type": "uint256"
						}
					],
					"name": "decreaseAllowance",
					"outputs": [
						{
							"internalType": "bool",
							"name": "",
							"type": "bool"
						}
					],
					"stateMutability": "nonpayable",
					"type": "function"
				},
				{
					"inputs": [
						{
							"internalType": "bytes32",
							"name": "role",
							"type": "bytes32"
						}
					],
					"name": "getRoleAdmin",
					"outputs": [
						{
							"internalType": "bytes32",
							"name": "",
							"type": "bytes32"
						}
					],
					"stateMutability": "view",
					"type": "function"
				},
				{
					"inputs": [
						{
							"internalType": "bytes32",
							"name": "role",
							"type": "bytes32"
						},
						{
							"internalType": "address",
							"name": "account",
							"type": "address"
						}
					],
					"name": "grantRole",
					"outputs": [],
					"stateMutability": "nonpayable",
					"type": "function"
				},
				{
					"inputs": [
						{
							"internalType": "bytes32",
							"name": "role",
							"type": "bytes32"
						},
						{
							"internalType": "address",
							"name": "account",
							"type": "address"
						}
					],
					"name": "hasRole",
					"outputs": [
						{
							"internalType": "bool",
							"name": "",
							"type": "bool"
						}
					],
					"stateMutability": "view",
					"type": "function"
				},
				{
					"inputs": [
						{
							"internalType": "address",
							"name": "spender",
							"type": "address"
						},
						{
							"internalType": "uint256",
							"name": "addedValue",
							"type": "uint256"
						}
					],
					"name": "increaseAllowance",
					"outputs": [
						{
							"internalType": "bool",
							"name": "",
							"type": "bool"
						}
					],
					"stateMutability": "nonpayable",
					"type": "function"
				},
				{
					"inputs": [
						{
							"internalType": "address",
							"name": "to",
							"type": "address"
						},
						{
							"internalType": "uint256",
							"name": "amount",
							"type": "uint256"
						}
					],
					"name": "mint",
					"outputs": [],
					"stateMutability": "nonpayable",
					"type": "function"
				},
				{
					"inputs": [
						{
							"internalType": "address",
							"name": "to",
							"type": "address"
						},
						{
							"internalType": "uint256",
							"name": "amount",
							"type": "uint256"
						}
					],
					"name": "mintProtected",
					"outputs": [],
					"stateMutability": "nonpayable",
					"type": "function"
				},
				{
					"inputs": [],
					"name": "name",
					"outputs": [
						{
							"internalType": "string",
							"name": "",
							"type": "string"
						}
					],
					"stateMutability": "view",
					"type": "function"
				},
				{
					"inputs": [
						{
							"internalType": "bytes32",
							"name": "role",
							"type": "bytes32"
						},
						{
							"internalType": "address",
							"name": "account",
							"type": "address"
						}
					],
					"name": "renounceRole",
					"outputs": [],
					"stateMutability": "nonpayable",
					"type": "function"
				},
				{
					"inputs": [
						{
							"internalType": "bytes32",
							"name": "role",
							"type": "bytes32"
						},
						{
							"internalType": "address",
							"name": "account",
							"type": "address"
						}
					],
					"name": "revokeRole",
					"outputs": [],
					"stateMutability": "nonpayable",
					"type": "function"
				},
				{
					"inputs": [
						{
							"internalType": "bytes4",
							"name": "interfaceId",
							"type": "bytes4"
						}
					],
					"name": "supportsInterface",
					"outputs": [
						{
							"internalType": "bool",
							"name": "",
							"type": "bool"
						}
					],
					"stateMutability": "view",
					"type": "function"
				},
				{
					"inputs": [],
					"name": "symbol",
					"outputs": [
						{
							"internalType": "string",
							"name": "",
							"type": "string"
						}
					],
					"stateMutability": "view",
					"type": "function"
				},
				{
					"inputs": [],
					"name": "totalSupply",
					"outputs": [
						{
							"internalType": "uint256",
							"name": "",
							"type": "uint256"
						}
					],
					"stateMutability": "view",
					"type": "function"
				},
				{
					"inputs": [
						{
							"internalType": "address",
							"name": "to",
							"type": "address"
						},
						{
							"internalType": "uint256",
							"name": "amount",
							"type": "uint256"
						}
					],
					"name": "transfer",
					"outputs": [
						{
							"internalType": "bool",
							"name": "",
							"type": "bool"
						}
					],
					"stateMutability": "nonpayable",
					"type": "function"
				},
				{
					"inputs": [
						{
							"internalType": "address",
							"name": "from",
							"type": "address"
						},
						{
							"internalType": "address",
							"name": "to",
							"type": "address"
						},
						{
							"internalType": "uint256",
							"name": "amount",
							"type": "uint256"
						}
					],
					"name": "transferFrom",
					"outputs": [
						{
							"internalType": "bool",
							"name": "",
							"type": "bool"
						}
					],
					"stateMutability": "nonpayable",
					"type": "function"
				}
			],
			"devdoc": {
				"kind": "dev",
				"methods": {
					"allowance(address,address)": {
						"details": "Returns the remaining number of tokens that `spender` will be allowed to spend on behalf of `owner` through {transferFrom}. This is zero by default. This value changes when {approve} or {transferFrom} are called."
					},
					"approve(address,uint256)": {
						"details": "Sets `amount` as the allowance of `spender` over the caller's tokens. Returns a boolean value indicating whether the operation succeeded. Emits an {Approval} event."
					},
					"balanceOf(address)": {
						"details": "Returns the amount of tokens owned by `account`."
					},
					"decimals()": {
						"details": "Returns the decimals places of the token."
					},
					"getRoleAdmin(bytes32)": {
						"details": "Returns the admin role that controls `role`. See {grantRole} and {revokeRole}. To change a role's admin, use {_setRoleAdmin}."
					},
					"grantRole(bytes32,address)": {
						"details": "Grants `role` to `account`. If `account` had not been already granted `role`, emits a {RoleGranted} event. Requirements: - the caller must have ``role``'s admin role. May emit a {RoleGranted} event."
					},
					"hasRole(bytes32,address)": {
						"details": "Returns `true` if `account` has been granted `role`."
					},
					"name()": {
						"details": "Returns the name of the token."
					},
					"renounceRole(bytes32,address)": {
						"details": "Revokes `role` from the calling account. Roles are often managed via {grantRole} and {revokeRole}: this function's purpose is to provide a mechanism for accounts to lose their privileges if they are compromised (such as when a trusted device is misplaced). If the calling account had been revoked `role`, emits a {RoleRevoked} event. Requirements: - the caller must be `account`. May emit a {RoleRevoked} event."
					},
					"revokeRole(bytes32,address)": {
						"details": "Revokes `role` from `account`. If `account` had been granted `role`, emits a {RoleRevoked} event. Requirements: - the caller must have ``role``'s admin role. May emit a {RoleRevoked} event."
					},
					"supportsInterface(bytes4)": {
						"details": "See {IERC165-supportsInterface}."
					},
					"symbol()": {
						"details": "Returns the symbol of the token."
					},
					"totalSupply()": {
						"details": "Returns the amount of tokens in existence."
					},
					"transfer(address,uint256)": {
						"details": "Moves `amount` tokens from the caller's account to `to`. Returns a boolean value indicating whether the operation succeeded. Emits a {Transfer} event."
					},
					"transferFrom(address,address,uint256)": {
						"details": "Moves `amount` tokens from `from` to `to` using the allowance mechanism. `amount` is then deducted from the caller's allowance. Returns a boolean value indicating whether the operation succeeded. Emits a {Transfer} event."
					}
				},
				"version": 1
			},
			"evm": {
				"assembly": "    /* \"Practica1/TokenERC20_1.sol\":5865:12805  contract TokenERC20_1 is IERC20, IERC20Metadata, AccessControl{... */\n  mstore(0x40, 0x80)\n    /* \"Practica1/TokenERC20_1.sol\":7974:7984  mydecimals */\n  0x06\n  0x00\n  swap1\n  sload\n  swap1\n  0x0100\n  exp\n  swap1\n  div\n  0xff\n  and\n    /* \"Practica1/TokenERC20_1.sol\":7970:7972  10 */\n  0x0a\n    /* \"Practica1/TokenERC20_1.sol\":7970:7984  10**mydecimals */\n  tag_1\n  swap2\n  swap1\n  tag_2\n  jump\t// in\ntag_1:\n    /* \"Practica1/TokenERC20_1.sol\":7962:7967  10**6 */\n  0x0f4240\n    /* \"Practica1/TokenERC20_1.sol\":7962:7984  10**6 * 10**mydecimals */\n  tag_3\n  swap2\n  swap1\n  tag_4\n  jump\t// in\ntag_3:\n    /* \"Practica1/TokenERC20_1.sol\":7935:7984  uint256 MAX_TOTAL_SUPPLY = 10**6 * 10**mydecimals */\n  0x08\n  sstore\n    /* \"Practica1/TokenERC20_1.sol\":6884:7086  constructor(... */\n  callvalue\n  dup1\n  iszero\n  tag_5\n  jumpi\n  0x00\n  dup1\n  revert\ntag_5:\n  pop\n  mload(0x40)\n  sub(codesize, bytecodeSize)\n  dup1\n  bytecodeSize\n  dup4\n  codecopy\n  dup2\n  dup2\n  add\n  0x40\n  mstore\n  dup2\n  add\n  swap1\n  tag_6\n  swap2\n  swap1\n  tag_7\n  jump\t// in\ntag_6:\n    /* \"Practica1/TokenERC20_1.sol\":7011:7016  _name */\n  dup3\n    /* \"Practica1/TokenERC20_1.sol\":7002:7008  myname */\n  0x04\n    /* \"Practica1/TokenERC20_1.sol\":7002:7016  myname = _name */\n  swap1\n  dup2\n  tag_10\n  swap2\n  swap1\n  tag_11\n  jump\t// in\ntag_10:\n  pop\n    /* \"Practica1/TokenERC20_1.sol\":7038:7045  _symbol */\n  dup2\n    /* \"Practica1/TokenERC20_1.sol\":7027:7035  mysymbol */\n  0x05\n    /* \"Practica1/TokenERC20_1.sol\":7027:7045  mysymbol = _symbol */\n  swap1\n  dup2\n  tag_12\n  swap2\n  swap1\n  tag_11\n  jump\t// in\ntag_12:\n  pop\n    /* \"Practica1/TokenERC20_1.sol\":7069:7078  _decimals */\n  dup1\n    /* \"Practica1/TokenERC20_1.sol\":7056:7066  mydecimals */\n  0x06\n  0x00\n    /* \"Practica1/TokenERC20_1.sol\":7056:7078  mydecimals = _decimals */\n  0x0100\n  exp\n  dup2\n  sload\n  dup2\n  0xff\n  mul\n  not\n  and\n  swap1\n  dup4\n  0xff\n  and\n  mul\n  or\n  swap1\n  sstore\n  pop\n    /* \"Practica1/TokenERC20_1.sol\":6884:7086  constructor(... */\n  pop\n  pop\n  pop\n    /* \"Practica1/TokenERC20_1.sol\":5865:12805  contract TokenERC20_1 is IERC20, IERC20Metadata, AccessControl{... */\n  jump(tag_13)\n    /* \"#utility.yul\":7:187   */\ntag_14:\n    /* \"#utility.yul\":55:132   */\n  0x4e487b7100000000000000000000000000000000000000000000000000000000\n    /* \"#utility.yul\":52:53   */\n  0x00\n    /* \"#utility.yul\":45:133   */\n  mstore\n    /* \"#utility.yul\":152:156   */\n  0x11\n    /* \"#utility.yul\":149:150   */\n  0x04\n    /* \"#utility.yul\":142:157   */\n  mstore\n    /* \"#utility.yul\":176:180   */\n  0x24\n    /* \"#utility.yul\":173:174   */\n  0x00\n    /* \"#utility.yul\":166:181   */\n  revert\n    /* \"#utility.yul\":193:295   */\ntag_15:\n    /* \"#utility.yul\":235:243   */\n  0x00\n    /* \"#utility.yul\":282:287   */\n  dup2\n    /* \"#utility.yul\":279:280   */\n  0x01\n    /* \"#utility.yul\":275:288   */\n  shr\n    /* \"#utility.yul\":254:288   */\n  swap1\n  pop\n    /* \"#utility.yul\":193:295   */\n  swap2\n  swap1\n  pop\n  jump\t// out\n    /* \"#utility.yul\":301:1149   */\ntag_16:\n    /* \"#utility.yul\":362:367   */\n  0x00\n    /* \"#utility.yul\":369:373   */\n  dup1\n    /* \"#utility.yul\":393:399   */\n  dup3\n    /* \"#utility.yul\":384:399   */\n  swap2\n  pop\n    /* \"#utility.yul\":417:422   */\n  dup4\n    /* \"#utility.yul\":408:422   */\n  swap1\n  pop\n    /* \"#utility.yul\":431:1143   */\ntag_57:\n    /* \"#utility.yul\":452:453   */\n  0x01\n    /* \"#utility.yul\":442:450   */\n  dup6\n    /* \"#utility.yul\":439:454   */\n  gt\n    /* \"#utility.yul\":431:1143   */\n  iszero\n  tag_59\n  jumpi\n    /* \"#utility.yul\":547:551   */\n  dup1\n    /* \"#utility.yul\":542:545   */\n  dup7\n    /* \"#utility.yul\":538:552   */\n  div\n    /* \"#utility.yul\":532:536   */\n  dup2\n    /* \"#utility.yul\":529:553   */\n  gt\n    /* \"#utility.yul\":526:576   */\n  iszero\n  tag_60\n  jumpi\n    /* \"#utility.yul\":556:574   */\n  tag_61\n  tag_14\n  jump\t// in\ntag_61:\n    /* \"#utility.yul\":526:576   */\ntag_60:\n    /* \"#utility.yul\":606:607   */\n  0x01\n    /* \"#utility.yul\":596:604   */\n  dup6\n    /* \"#utility.yul\":592:608   */\n  and\n    /* \"#utility.yul\":589:1040   */\n  iszero\n  tag_62\n  jumpi\n    /* \"#utility.yul\":1021:1025   */\n  dup1\n    /* \"#utility.yul\":1014:1019   */\n  dup3\n    /* \"#utility.yul\":1010:1026   */\n  mul\n    /* \"#utility.yul\":1001:1026   */\n  swap2\n  pop\n    /* \"#utility.yul\":589:1040   */\ntag_62:\n    /* \"#utility.yul\":1071:1075   */\n  dup1\n    /* \"#utility.yul\":1065:1069   */\n  dup2\n    /* \"#utility.yul\":1061:1076   */\n  mul\n    /* \"#utility.yul\":1053:1076   */\n  swap1\n  pop\n    /* \"#utility.yul\":1101:1133   */\n  tag_63\n    /* \"#utility.yul\":1124:1132   */\n  dup6\n    /* \"#utility.yul\":1101:1133   */\n  tag_15\n  jump\t// in\ntag_63:\n    /* \"#utility.yul\":1089:1133   */\n  swap5\n  pop\n    /* \"#utility.yul\":431:1143   */\n  jump(tag_57)\ntag_59:\n    /* \"#utility.yul\":301:1149   */\n  swap5\n  pop\n  swap5\n  swap3\n  pop\n  pop\n  pop\n  jump\t// out\n    /* \"#utility.yul\":1155:2228   */\ntag_17:\n    /* \"#utility.yul\":1209:1214   */\n  0x00\n    /* \"#utility.yul\":1400:1408   */\n  dup3\n    /* \"#utility.yul\":1390:1430   */\n  tag_65\n  jumpi\n    /* \"#utility.yul\":1421:1422   */\n  0x01\n    /* \"#utility.yul\":1412:1422   */\n  swap1\n  pop\n    /* \"#utility.yul\":1423:1428   */\n  jump(tag_64)\n    /* \"#utility.yul\":1390:1430   */\ntag_65:\n    /* \"#utility.yul\":1449:1453   */\n  dup2\n    /* \"#utility.yul\":1439:1475   */\n  tag_66\n  jumpi\n    /* \"#utility.yul\":1466:1467   */\n  0x00\n    /* \"#utility.yul\":1457:1467   */\n  swap1\n  pop\n    /* \"#utility.yul\":1468:1473   */\n  jump(tag_64)\n    /* \"#utility.yul\":1439:1475   */\ntag_66:\n    /* \"#utility.yul\":1535:1539   */\n  dup2\n    /* \"#utility.yul\":1583:1584   */\n  0x01\n    /* \"#utility.yul\":1578:1605   */\n  dup2\n  eq\n  tag_68\n  jumpi\n    /* \"#utility.yul\":1619:1620   */\n  0x02\n    /* \"#utility.yul\":1614:1805   */\n  dup2\n  eq\n  tag_69\n  jumpi\n    /* \"#utility.yul\":1528:1805   */\n  jump(tag_67)\n    /* \"#utility.yul\":1578:1605   */\ntag_68:\n    /* \"#utility.yul\":1596:1597   */\n  0x01\n    /* \"#utility.yul\":1587:1597   */\n  swap2\n  pop\n    /* \"#utility.yul\":1598:1603   */\n  pop\n  jump(tag_64)\n    /* \"#utility.yul\":1614:1805   */\ntag_69:\n    /* \"#utility.yul\":1659:1662   */\n  0xff\n    /* \"#utility.yul\":1649:1657   */\n  dup5\n    /* \"#utility.yul\":1646:1663   */\n  gt\n    /* \"#utility.yul\":1643:1686   */\n  iszero\n  tag_70\n  jumpi\n    /* \"#utility.yul\":1666:1684   */\n  tag_71\n  tag_14\n  jump\t// in\ntag_71:\n    /* \"#utility.yul\":1643:1686   */\ntag_70:\n    /* \"#utility.yul\":1715:1723   */\n  dup4\n    /* \"#utility.yul\":1712:1713   */\n  0x02\n    /* \"#utility.yul\":1708:1724   */\n  exp\n    /* \"#utility.yul\":1699:1724   */\n  swap2\n  pop\n    /* \"#utility.yul\":1750:1753   */\n  dup5\n    /* \"#utility.yul\":1743:1748   */\n  dup3\n    /* \"#utility.yul\":1740:1754   */\n  gt\n    /* \"#utility.yul\":1737:1777   */\n  iszero\n  tag_72\n  jumpi\n    /* \"#utility.yul\":1757:1775   */\n  tag_73\n  tag_14\n  jump\t// in\ntag_73:\n    /* \"#utility.yul\":1737:1777   */\ntag_72:\n    /* \"#utility.yul\":1790:1795   */\n  pop\n  jump(tag_64)\n    /* \"#utility.yul\":1528:1805   */\ntag_67:\n  pop\n    /* \"#utility.yul\":1914:1916   */\n  0x20\n    /* \"#utility.yul\":1904:1912   */\n  dup4\n    /* \"#utility.yul\":1901:1917   */\n  lt\n    /* \"#utility.yul\":1895:1898   */\n  0x0133\n    /* \"#utility.yul\":1889:1893   */\n  dup4\n    /* \"#utility.yul\":1886:1899   */\n  lt\n    /* \"#utility.yul\":1882:1918   */\n  and\n    /* \"#utility.yul\":1864:1866   */\n  0x4e\n    /* \"#utility.yul\":1854:1862   */\n  dup5\n    /* \"#utility.yul\":1851:1867   */\n  lt\n    /* \"#utility.yul\":1846:1848   */\n  0x0b\n    /* \"#utility.yul\":1840:1844   */\n  dup5\n    /* \"#utility.yul\":1837:1849   */\n  lt\n    /* \"#utility.yul\":1833:1868   */\n  and\n    /* \"#utility.yul\":1817:1928   */\n  or\n    /* \"#utility.yul\":1814:2060   */\n  iszero\n  tag_74\n  jumpi\n    /* \"#utility.yul\":1970:1978   */\n  dup3\n    /* \"#utility.yul\":1964:1968   */\n  dup3\n    /* \"#utility.yul\":1960:1979   */\n  exp\n    /* \"#utility.yul\":1951:1979   */\n  swap1\n  pop\n    /* \"#utility.yul\":2005:2008   */\n  dup4\n    /* \"#utility.yul\":1998:2003   */\n  dup2\n    /* \"#utility.yul\":1995:2009   */\n  gt\n    /* \"#utility.yul\":1992:2032   */\n  iszero\n  tag_75\n  jumpi\n    /* \"#utility.yul\":2012:2030   */\n  tag_76\n  tag_14\n  jump\t// in\ntag_76:\n    /* \"#utility.yul\":1992:2032   */\ntag_75:\n    /* \"#utility.yul\":2045:2050   */\n  jump(tag_64)\n    /* \"#utility.yul\":1814:2060   */\ntag_74:\n    /* \"#utility.yul\":2085:2127   */\n  tag_77\n    /* \"#utility.yul\":2123:2126   */\n  dup5\n    /* \"#utility.yul\":2113:2121   */\n  dup5\n    /* \"#utility.yul\":2107:2111   */\n  dup5\n    /* \"#utility.yul\":2104:2105   */\n  0x01\n    /* \"#utility.yul\":2085:2127   */\n  tag_16\n  jump\t// in\ntag_77:\n    /* \"#utility.yul\":2070:2127   */\n  swap3\n  pop\n  swap1\n  pop\n    /* \"#utility.yul\":2159:2163   */\n  dup2\n    /* \"#utility.yul\":2154:2157   */\n  dup5\n    /* \"#utility.yul\":2150:2164   */\n  div\n    /* \"#utility.yul\":2143:2148   */\n  dup2\n    /* \"#utility.yul\":2140:2165   */\n  gt\n    /* \"#utility.yul\":2137:2188   */\n  iszero\n  tag_78\n  jumpi\n    /* \"#utility.yul\":2168:2186   */\n  tag_79\n  tag_14\n  jump\t// in\ntag_79:\n    /* \"#utility.yul\":2137:2188   */\ntag_78:\n    /* \"#utility.yul\":2217:2221   */\n  dup2\n    /* \"#utility.yul\":2210:2215   */\n  dup2\n    /* \"#utility.yul\":2206:2222   */\n  mul\n    /* \"#utility.yul\":2197:2222   */\n  swap1\n  pop\n    /* \"#utility.yul\":1155:2228   */\ntag_64:\n  swap4\n  swap3\n  pop\n  pop\n  pop\n  jump\t// out\n    /* \"#utility.yul\":2234:2311   */\ntag_18:\n    /* \"#utility.yul\":2271:2278   */\n  0x00\n    /* \"#utility.yul\":2300:2305   */\n  dup2\n    /* \"#utility.yul\":2289:2305   */\n  swap1\n  pop\n    /* \"#utility.yul\":2234:2311   */\n  swap2\n  swap1\n  pop\n  jump\t// out\n    /* \"#utility.yul\":2317:2403   */\ntag_19:\n    /* \"#utility.yul\":2352:2359   */\n  0x00\n    /* \"#utility.yul\":2392:2396   */\n  0xff\n    /* \"#utility.yul\":2385:2390   */\n  dup3\n    /* \"#utility.yul\":2381:2397   */\n  and\n    /* \"#utility.yul\":2370:2397   */\n  swap1\n  pop\n    /* \"#utility.yul\":2317:2403   */\n  swap2\n  swap1\n  pop\n  jump\t// out\n    /* \"#utility.yul\":2409:2690   */\ntag_2:\n    /* \"#utility.yul\":2467:2472   */\n  0x00\n    /* \"#utility.yul\":2491:2514   */\n  tag_83\n    /* \"#utility.yul\":2509:2513   */\n  dup3\n    /* \"#utility.yul\":2491:2514   */\n  tag_18\n  jump\t// in\ntag_83:\n    /* \"#utility.yul\":2483:2514   */\n  swap2\n  pop\n    /* \"#utility.yul\":2535:2560   */\n  tag_84\n    /* \"#utility.yul\":2551:2559   */\n  dup4\n    /* \"#utility.yul\":2535:2560   */\n  tag_19\n  jump\t// in\ntag_84:\n    /* \"#utility.yul\":2523:2560   */\n  swap3\n  pop\n    /* \"#utility.yul\":2579:2683   */\n  tag_85\n    /* \"#utility.yul\":2616:2682   */\n  0xffffffffffffffffffffffffffffffffffffffffffffffffffffffffffffffff\n    /* \"#utility.yul\":2606:2614   */\n  dup5\n    /* \"#utility.yul\":2600:2604   */\n  dup5\n    /* \"#utility.yul\":2579:2683   */\n  tag_17\n  jump\t// in\ntag_85:\n    /* \"#utility.yul\":2570:2683   */\n  swap1\n  pop\n    /* \"#utility.yul\":2409:2690   */\n  swap3\n  swap2\n  pop\n  pop\n  jump\t// out\n    /* \"#utility.yul\":2696:3106   */\ntag_4:\n    /* \"#utility.yul\":2736:2743   */\n  0x00\n    /* \"#utility.yul\":2759:2779   */\n  tag_87\n    /* \"#utility.yul\":2777:2778   */\n  dup3\n    /* \"#utility.yul\":2759:2779   */\n  tag_18\n  jump\t// in\ntag_87:\n    /* \"#utility.yul\":2754:2779   */\n  swap2\n  pop\n    /* \"#utility.yul\":2793:2813   */\n  tag_88\n    /* \"#utility.yul\":2811:2812   */\n  dup4\n    /* \"#utility.yul\":2793:2813   */\n  tag_18\n  jump\t// in\ntag_88:\n    /* \"#utility.yul\":2788:2813   */\n  swap3\n  pop\n    /* \"#utility.yul\":2848:2849   */\n  dup3\n    /* \"#utility.yul\":2845:2846   */\n  dup3\n    /* \"#utility.yul\":2841:2850   */\n  mul\n    /* \"#utility.yul\":2870:2900   */\n  tag_89\n    /* \"#utility.yul\":2888:2899   */\n  dup2\n    /* \"#utility.yul\":2870:2900   */\n  tag_18\n  jump\t// in\ntag_89:\n    /* \"#utility.yul\":2859:2900   */\n  swap2\n  pop\n    /* \"#utility.yul\":3049:3050   */\n  dup3\n    /* \"#utility.yul\":3040:3047   */\n  dup3\n    /* \"#utility.yul\":3036:3051   */\n  div\n    /* \"#utility.yul\":3033:3034   */\n  dup5\n    /* \"#utility.yul\":3030:3052   */\n  eq\n    /* \"#utility.yul\":3010:3011   */\n  dup4\n    /* \"#utility.yul\":3003:3012   */\n  iszero\n    /* \"#utility.yul\":2983:3066   */\n  or\n    /* \"#utility.yul\":2960:3099   */\n  tag_90\n  jumpi\n    /* \"#utility.yul\":3079:3097   */\n  tag_91\n  tag_14\n  jump\t// in\ntag_91:\n    /* \"#utility.yul\":2960:3099   */\ntag_90:\n    /* \"#utility.yul\":2744:3106   */\n  pop\n    /* \"#utility.yul\":2696:3106   */\n  swap3\n  swap2\n  pop\n  pop\n  jump\t// out\n    /* \"#utility.yul\":3112:3187   */\ntag_20:\n    /* \"#utility.yul\":3145:3151   */\n  0x00\n    /* \"#utility.yul\":3178:3180   */\n  0x40\n    /* \"#utility.yul\":3172:3181   */\n  mload\n    /* \"#utility.yul\":3162:3181   */\n  swap1\n  pop\n    /* \"#utility.yul\":3112:3187   */\n  swap1\n  jump\t// out\n    /* \"#utility.yul\":3193:3310   */\ntag_21:\n    /* \"#utility.yul\":3302:3303   */\n  0x00\n    /* \"#utility.yul\":3299:3300   */\n  dup1\n    /* \"#utility.yul\":3292:3304   */\n  revert\n    /* \"#utility.yul\":3316:3433   */\ntag_22:\n    /* \"#utility.yul\":3425:3426   */\n  0x00\n    /* \"#utility.yul\":3422:3423   */\n  dup1\n    /* \"#utility.yul\":3415:3427   */\n  revert\n    /* \"#utility.yul\":3439:3556   */\ntag_23:\n    /* \"#utility.yul\":3548:3549   */\n  0x00\n    /* \"#utility.yul\":3545:3546   */\n  dup1\n    /* \"#utility.yul\":3538:3550   */\n  revert\n    /* \"#utility.yul\":3562:3679   */\ntag_24:\n    /* \"#utility.yul\":3671:3672   */\n  0x00\n    /* \"#utility.yul\":3668:3669   */\n  dup1\n    /* \"#utility.yul\":3661:3673   */\n  revert\n    /* \"#utility.yul\":3685:3787   */\ntag_25:\n    /* \"#utility.yul\":3726:3732   */\n  0x00\n    /* \"#utility.yul\":3777:3779   */\n  0x1f\n    /* \"#utility.yul\":3773:3780   */\n  not\n    /* \"#utility.yul\":3768:3770   */\n  0x1f\n    /* \"#utility.yul\":3761:3766   */\n  dup4\n    /* \"#utility.yul\":3757:3771   */\n  add\n    /* \"#utility.yul\":3753:3781   */\n  and\n    /* \"#utility.yul\":3743:3781   */\n  swap1\n  pop\n    /* \"#utility.yul\":3685:3787   */\n  swap2\n  swap1\n  pop\n  jump\t// out\n    /* \"#utility.yul\":3793:3973   */\ntag_26:\n    /* \"#utility.yul\":3841:3918   */\n  0x4e487b7100000000000000000000000000000000000000000000000000000000\n    /* \"#utility.yul\":3838:3839   */\n  0x00\n    /* \"#utility.yul\":3831:3919   */\n  mstore\n    /* \"#utility.yul\":3938:3942   */\n  0x41\n    /* \"#utility.yul\":3935:3936   */\n  0x04\n    /* \"#utility.yul\":3928:3943   */\n  mstore\n    /* \"#utility.yul\":3962:3966   */\n  0x24\n    /* \"#utility.yul\":3959:3960   */\n  0x00\n    /* \"#utility.yul\":3952:3967   */\n  revert\n    /* \"#utility.yul\":3979:4260   */\ntag_27:\n    /* \"#utility.yul\":4062:4089   */\n  tag_100\n    /* \"#utility.yul\":4084:4088   */\n  dup3\n    /* \"#utility.yul\":4062:4089   */\n  tag_25\n  jump\t// in\ntag_100:\n    /* \"#utility.yul\":4054:4060   */\n  dup2\n    /* \"#utility.yul\":4050:4090   */\n  add\n    /* \"#utility.yul\":4192:4198   */\n  dup2\n    /* \"#utility.yul\":4180:4190   */\n  dup2\n    /* \"#utility.yul\":4177:4199   */\n  lt\n    /* \"#utility.yul\":4156:4174   */\n  0xffffffffffffffff\n    /* \"#utility.yul\":4144:4154   */\n  dup3\n    /* \"#utility.yul\":4141:4175   */\n  gt\n    /* \"#utility.yul\":4138:4200   */\n  or\n    /* \"#utility.yul\":4135:4223   */\n  iszero\n  tag_101\n  jumpi\n    /* \"#utility.yul\":4203:4221   */\n  tag_102\n  tag_26\n  jump\t// in\ntag_102:\n    /* \"#utility.yul\":4135:4223   */\ntag_101:\n    /* \"#utility.yul\":4243:4253   */\n  dup1\n    /* \"#utility.yul\":4239:4241   */\n  0x40\n    /* \"#utility.yul\":4232:4254   */\n  mstore\n    /* \"#utility.yul\":4022:4260   */\n  pop\n    /* \"#utility.yul\":3979:4260   */\n  pop\n  pop\n  jump\t// out\n    /* \"#utility.yul\":4266:4395   */\ntag_28:\n    /* \"#utility.yul\":4300:4306   */\n  0x00\n    /* \"#utility.yul\":4327:4347   */\n  tag_104\n  tag_20\n  jump\t// in\ntag_104:\n    /* \"#utility.yul\":4317:4347   */\n  swap1\n  pop\n    /* \"#utility.yul\":4356:4389   */\n  tag_105\n    /* \"#utility.yul\":4384:4388   */\n  dup3\n    /* \"#utility.yul\":4376:4382   */\n  dup3\n    /* \"#utility.yul\":4356:4389   */\n  tag_27\n  jump\t// in\ntag_105:\n    /* \"#utility.yul\":4266:4395   */\n  swap2\n  swap1\n  pop\n  jump\t// out\n    /* \"#utility.yul\":4401:4709   */\ntag_29:\n    /* \"#utility.yul\":4463:4467   */\n  0x00\n    /* \"#utility.yul\":4553:4571   */\n  0xffffffffffffffff\n    /* \"#utility.yul\":4545:4551   */\n  dup3\n    /* \"#utility.yul\":4542:4572   */\n  gt\n    /* \"#utility.yul\":4539:4595   */\n  iszero\n  tag_107\n  jumpi\n    /* \"#utility.yul\":4575:4593   */\n  tag_108\n  tag_26\n  jump\t// in\ntag_108:\n    /* \"#utility.yul\":4539:4595   */\ntag_107:\n    /* \"#utility.yul\":4613:4642   */\n  tag_109\n    /* \"#utility.yul\":4635:4641   */\n  dup3\n    /* \"#utility.yul\":4613:4642   */\n  tag_25\n  jump\t// in\ntag_109:\n    /* \"#utility.yul\":4605:4642   */\n  swap1\n  pop\n    /* \"#utility.yul\":4697:4701   */\n  0x20\n    /* \"#utility.yul\":4691:4695   */\n  dup2\n    /* \"#utility.yul\":4687:4702   */\n  add\n    /* \"#utility.yul\":4679:4702   */\n  swap1\n  pop\n    /* \"#utility.yul\":4401:4709   */\n  swap2\n  swap1\n  pop\n  jump\t// out\n    /* \"#utility.yul\":4715:4961   */\ntag_30:\n    /* \"#utility.yul\":4796:4797   */\n  0x00\n    /* \"#utility.yul\":4806:4919   */\ntag_111:\n    /* \"#utility.yul\":4820:4826   */\n  dup4\n    /* \"#utility.yul\":4817:4818   */\n  dup2\n    /* \"#utility.yul\":4814:4827   */\n  lt\n    /* \"#utility.yul\":4806:4919   */\n  iszero\n  tag_113\n  jumpi\n    /* \"#utility.yul\":4905:4906   */\n  dup1\n    /* \"#utility.yul\":4900:4903   */\n  dup3\n    /* \"#utility.yul\":4896:4907   */\n  add\n    /* \"#utility.yul\":4890:4908   */\n  mload\n    /* \"#utility.yul\":4886:4887   */\n  dup2\n    /* \"#utility.yul\":4881:4884   */\n  dup5\n    /* \"#utility.yul\":4877:4888   */\n  add\n    /* \"#utility.yul\":4870:4909   */\n  mstore\n    /* \"#utility.yul\":4842:4844   */\n  0x20\n    /* \"#utility.yul\":4839:4840   */\n  dup2\n    /* \"#utility.yul\":4835:4845   */\n  add\n    /* \"#utility.yul\":4830:4845   */\n  swap1\n  pop\n    /* \"#utility.yul\":4806:4919   */\n  jump(tag_111)\ntag_113:\n    /* \"#utility.yul\":4953:4954   */\n  0x00\n    /* \"#utility.yul\":4944:4950   */\n  dup5\n    /* \"#utility.yul\":4939:4942   */\n  dup5\n    /* \"#utility.yul\":4935:4951   */\n  add\n    /* \"#utility.yul\":4928:4955   */\n  mstore\n    /* \"#utility.yul\":4777:4961   */\n  pop\n    /* \"#utility.yul\":4715:4961   */\n  pop\n  pop\n  pop\n  jump\t// out\n    /* \"#utility.yul\":4967:5401   */\ntag_31:\n    /* \"#utility.yul\":5056:5061   */\n  0x00\n    /* \"#utility.yul\":5081:5147   */\n  tag_115\n    /* \"#utility.yul\":5097:5146   */\n  tag_116\n    /* \"#utility.yul\":5139:5145   */\n  dup5\n    /* \"#utility.yul\":5097:5146   */\n  tag_29\n  jump\t// in\ntag_116:\n    /* \"#utility.yul\":5081:5147   */\n  tag_28\n  jump\t// in\ntag_115:\n    /* \"#utility.yul\":5072:5147   */\n  swap1\n  pop\n    /* \"#utility.yul\":5170:5176   */\n  dup3\n    /* \"#utility.yul\":5163:5168   */\n  dup2\n    /* \"#utility.yul\":5156:5177   */\n  mstore\n    /* \"#utility.yul\":5208:5212   */\n  0x20\n    /* \"#utility.yul\":5201:5206   */\n  dup2\n    /* \"#utility.yul\":5197:5213   */\n  add\n    /* \"#utility.yul\":5246:5249   */\n  dup5\n    /* \"#utility.yul\":5237:5243   */\n  dup5\n    /* \"#utility.yul\":5232:5235   */\n  dup5\n    /* \"#utility.yul\":5228:5244   */\n  add\n    /* \"#utility.yul\":5225:5250   */\n  gt\n    /* \"#utility.yul\":5222:5334   */\n  iszero\n  tag_117\n  jumpi\n    /* \"#utility.yul\":5253:5332   */\n  tag_118\n  tag_24\n  jump\t// in\ntag_118:\n    /* \"#utility.yul\":5222:5334   */\ntag_117:\n    /* \"#utility.yul\":5343:5395   */\n  tag_119\n    /* \"#utility.yul\":5388:5394   */\n  dup5\n    /* \"#utility.yul\":5383:5386   */\n  dup3\n    /* \"#utility.yul\":5378:5381   */\n  dup6\n    /* \"#utility.yul\":5343:5395   */\n  tag_30\n  jump\t// in\ntag_119:\n    /* \"#utility.yul\":5062:5401   */\n  pop\n    /* \"#utility.yul\":4967:5401   */\n  swap4\n  swap3\n  pop\n  pop\n  pop\n  jump\t// out\n    /* \"#utility.yul\":5421:5776   */\ntag_32:\n    /* \"#utility.yul\":5488:5493   */\n  0x00\n    /* \"#utility.yul\":5537:5540   */\n  dup3\n    /* \"#utility.yul\":5530:5534   */\n  0x1f\n    /* \"#utility.yul\":5522:5528   */\n  dup4\n    /* \"#utility.yul\":5518:5535   */\n  add\n    /* \"#utility.yul\":5514:5541   */\n  slt\n    /* \"#utility.yul\":5504:5626   */\n  tag_121\n  jumpi\n    /* \"#utility.yul\":5545:5624   */\n  tag_122\n  tag_23\n  jump\t// in\ntag_122:\n    /* \"#utility.yul\":5504:5626   */\ntag_121:\n    /* \"#utility.yul\":5655:5661   */\n  dup2\n    /* \"#utility.yul\":5649:5662   */\n  mload\n    /* \"#utility.yul\":5680:5770   */\n  tag_123\n    /* \"#utility.yul\":5766:5769   */\n  dup5\n    /* \"#utility.yul\":5758:5764   */\n  dup3\n    /* \"#utility.yul\":5751:5755   */\n  0x20\n    /* \"#utility.yul\":5743:5749   */\n  dup7\n    /* \"#utility.yul\":5739:5756   */\n  add\n    /* \"#utility.yul\":5680:5770   */\n  tag_31\n  jump\t// in\ntag_123:\n    /* \"#utility.yul\":5671:5770   */\n  swap2\n  pop\n    /* \"#utility.yul\":5494:5776   */\n  pop\n    /* \"#utility.yul\":5421:5776   */\n  swap3\n  swap2\n  pop\n  pop\n  jump\t// out\n    /* \"#utility.yul\":5782:5900   */\ntag_33:\n    /* \"#utility.yul\":5853:5875   */\n  tag_125\n    /* \"#utility.yul\":5869:5874   */\n  dup2\n    /* \"#utility.yul\":5853:5875   */\n  tag_19\n  jump\t// in\ntag_125:\n    /* \"#utility.yul\":5846:5851   */\n  dup2\n    /* \"#utility.yul\":5843:5876   */\n  eq\n    /* \"#utility.yul\":5833:5894   */\n  tag_126\n  jumpi\n    /* \"#utility.yul\":5890:5891   */\n  0x00\n    /* \"#utility.yul\":5887:5888   */\n  dup1\n    /* \"#utility.yul\":5880:5892   */\n  revert\n    /* \"#utility.yul\":5833:5894   */\ntag_126:\n    /* \"#utility.yul\":5782:5900   */\n  pop\n  jump\t// out\n    /* \"#utility.yul\":5906:6045   */\ntag_34:\n    /* \"#utility.yul\":5961:5966   */\n  0x00\n    /* \"#utility.yul\":5992:5998   */\n  dup2\n    /* \"#utility.yul\":5986:5999   */\n  mload\n    /* \"#utility.yul\":5977:5999   */\n  swap1\n  pop\n    /* \"#utility.yul\":6008:6039   */\n  tag_128\n    /* \"#utility.yul\":6033:6038   */\n  dup2\n    /* \"#utility.yul\":6008:6039   */\n  tag_33\n  jump\t// in\ntag_128:\n    /* \"#utility.yul\":5906:6045   */\n  swap3\n  swap2\n  pop\n  pop\n  jump\t// out\n    /* \"#utility.yul\":6051:7056   */\ntag_7:\n    /* \"#utility.yul\":6157:6163   */\n  0x00\n    /* \"#utility.yul\":6165:6171   */\n  dup1\n    /* \"#utility.yul\":6173:6179   */\n  0x00\n    /* \"#utility.yul\":6222:6224   */\n  0x60\n    /* \"#utility.yul\":6210:6219   */\n  dup5\n    /* \"#utility.yul\":6201:6208   */\n  dup7\n    /* \"#utility.yul\":6197:6220   */\n  sub\n    /* \"#utility.yul\":6193:6225   */\n  slt\n    /* \"#utility.yul\":6190:6309   */\n  iszero\n  tag_130\n  jumpi\n    /* \"#utility.yul\":6228:6307   */\n  tag_131\n  tag_21\n  jump\t// in\ntag_131:\n    /* \"#utility.yul\":6190:6309   */\ntag_130:\n    /* \"#utility.yul\":6369:6370   */\n  0x00\n    /* \"#utility.yul\":6358:6367   */\n  dup5\n    /* \"#utility.yul\":6354:6371   */\n  add\n    /* \"#utility.yul\":6348:6372   */\n  mload\n    /* \"#utility.yul\":6399:6417   */\n  0xffffffffffffffff\n    /* \"#utility.yul\":6391:6397   */\n  dup2\n    /* \"#utility.yul\":6388:6418   */\n  gt\n    /* \"#utility.yul\":6385:6502   */\n  iszero\n  tag_132\n  jumpi\n    /* \"#utility.yul\":6421:6500   */\n  tag_133\n  tag_22\n  jump\t// in\ntag_133:\n    /* \"#utility.yul\":6385:6502   */\ntag_132:\n    /* \"#utility.yul\":6526:6600   */\n  tag_134\n    /* \"#utility.yul\":6592:6599   */\n  dup7\n    /* \"#utility.yul\":6583:6589   */\n  dup3\n    /* \"#utility.yul\":6572:6581   */\n  dup8\n    /* \"#utility.yul\":6568:6590   */\n  add\n    /* \"#utility.yul\":6526:6600   */\n  tag_32\n  jump\t// in\ntag_134:\n    /* \"#utility.yul\":6516:6600   */\n  swap4\n  pop\n    /* \"#utility.yul\":6319:6610   */\n  pop\n    /* \"#utility.yul\":6670:6672   */\n  0x20\n    /* \"#utility.yul\":6659:6668   */\n  dup5\n    /* \"#utility.yul\":6655:6673   */\n  add\n    /* \"#utility.yul\":6649:6674   */\n  mload\n    /* \"#utility.yul\":6701:6719   */\n  0xffffffffffffffff\n    /* \"#utility.yul\":6693:6699   */\n  dup2\n    /* \"#utility.yul\":6690:6720   */\n  gt\n    /* \"#utility.yul\":6687:6804   */\n  iszero\n  tag_135\n  jumpi\n    /* \"#utility.yul\":6723:6802   */\n  tag_136\n  tag_22\n  jump\t// in\ntag_136:\n    /* \"#utility.yul\":6687:6804   */\ntag_135:\n    /* \"#utility.yul\":6828:6902   */\n  tag_137\n    /* \"#utility.yul\":6894:6901   */\n  dup7\n    /* \"#utility.yul\":6885:6891   */\n  dup3\n    /* \"#utility.yul\":6874:6883   */\n  dup8\n    /* \"#utility.yul\":6870:6892   */\n  add\n    /* \"#utility.yul\":6828:6902   */\n  tag_32\n  jump\t// in\ntag_137:\n    /* \"#utility.yul\":6818:6902   */\n  swap3\n  pop\n    /* \"#utility.yul\":6620:6912   */\n  pop\n    /* \"#utility.yul\":6951:6953   */\n  0x40\n    /* \"#utility.yul\":6977:7039   */\n  tag_138\n    /* \"#utility.yul\":7031:7038   */\n  dup7\n    /* \"#utility.yul\":7022:7028   */\n  dup3\n    /* \"#utility.yul\":7011:7020   */\n  dup8\n    /* \"#utility.yul\":7007:7029   */\n  add\n    /* \"#utility.yul\":6977:7039   */\n  tag_34\n  jump\t// in\ntag_138:\n    /* \"#utility.yul\":6967:7039   */\n  swap2\n  pop\n    /* \"#utility.yul\":6922:7049   */\n  pop\n    /* \"#utility.yul\":6051:7056   */\n  swap3\n  pop\n  swap3\n  pop\n  swap3\n  jump\t// out\n    /* \"#utility.yul\":7062:7161   */\ntag_35:\n    /* \"#utility.yul\":7114:7120   */\n  0x00\n    /* \"#utility.yul\":7148:7153   */\n  dup2\n    /* \"#utility.yul\":7142:7154   */\n  mload\n    /* \"#utility.yul\":7132:7154   */\n  swap1\n  pop\n    /* \"#utility.yul\":7062:7161   */\n  swap2\n  swap1\n  pop\n  jump\t// out\n    /* \"#utility.yul\":7167:7347   */\ntag_36:\n    /* \"#utility.yul\":7215:7292   */\n  0x4e487b7100000000000000000000000000000000000000000000000000000000\n    /* \"#utility.yul\":7212:7213   */\n  0x00\n    /* \"#utility.yul\":7205:7293   */\n  mstore\n    /* \"#utility.yul\":7312:7316   */\n  0x22\n    /* \"#utility.yul\":7309:7310   */\n  0x04\n    /* \"#utility.yul\":7302:7317   */\n  mstore\n    /* \"#utility.yul\":7336:7340   */\n  0x24\n    /* \"#utility.yul\":7333:7334   */\n  0x00\n    /* \"#utility.yul\":7326:7341   */\n  revert\n    /* \"#utility.yul\":7353:7673   */\ntag_37:\n    /* \"#utility.yul\":7397:7403   */\n  0x00\n    /* \"#utility.yul\":7434:7435   */\n  0x02\n    /* \"#utility.yul\":7428:7432   */\n  dup3\n    /* \"#utility.yul\":7424:7436   */\n  div\n    /* \"#utility.yul\":7414:7436   */\n  swap1\n  pop\n    /* \"#utility.yul\":7481:7482   */\n  0x01\n    /* \"#utility.yul\":7475:7479   */\n  dup3\n    /* \"#utility.yul\":7471:7483   */\n  and\n    /* \"#utility.yul\":7502:7520   */\n  dup1\n    /* \"#utility.yul\":7492:7573   */\n  tag_142\n  jumpi\n    /* \"#utility.yul\":7558:7562   */\n  0x7f\n    /* \"#utility.yul\":7550:7556   */\n  dup3\n    /* \"#utility.yul\":7546:7563   */\n  and\n    /* \"#utility.yul\":7536:7563   */\n  swap2\n  pop\n    /* \"#utility.yul\":7492:7573   */\ntag_142:\n    /* \"#utility.yul\":7620:7622   */\n  0x20\n    /* \"#utility.yul\":7612:7618   */\n  dup3\n    /* \"#utility.yul\":7609:7623   */\n  lt\n    /* \"#utility.yul\":7589:7607   */\n  dup2\n    /* \"#utility.yul\":7586:7624   */\n  sub\n    /* \"#utility.yul\":7583:7667   */\n  tag_143\n  jumpi\n    /* \"#utility.yul\":7639:7657   */\n  tag_144\n  tag_36\n  jump\t// in\ntag_144:\n    /* \"#utility.yul\":7583:7667   */\ntag_143:\n    /* \"#utility.yul\":7404:7673   */\n  pop\n    /* \"#utility.yul\":7353:7673   */\n  swap2\n  swap1\n  pop\n  jump\t// out\n    /* \"#utility.yul\":7679:7820   */\ntag_38:\n    /* \"#utility.yul\":7728:7732   */\n  0x00\n    /* \"#utility.yul\":7751:7754   */\n  dup2\n    /* \"#utility.yul\":7743:7754   */\n  swap1\n  pop\n    /* \"#utility.yul\":7774:7777   */\n  dup2\n    /* \"#utility.yul\":7771:7772   */\n  0x00\n    /* \"#utility.yul\":7764:7778   */\n  mstore\n    /* \"#utility.yul\":7808:7812   */\n  0x20\n    /* \"#utility.yul\":7805:7806   */\n  0x00\n    /* \"#utility.yul\":7795:7813   */\n  keccak256\n    /* \"#utility.yul\":7787:7813   */\n  swap1\n  pop\n    /* \"#utility.yul\":7679:7820   */\n  swap2\n  swap1\n  pop\n  jump\t// out\n    /* \"#utility.yul\":7826:7919   */\ntag_39:\n    /* \"#utility.yul\":7863:7869   */\n  0x00\n    /* \"#utility.yul\":7910:7912   */\n  0x20\n    /* \"#utility.yul\":7905:7907   */\n  0x1f\n    /* \"#utility.yul\":7898:7903   */\n  dup4\n    /* \"#utility.yul\":7894:7908   */\n  add\n    /* \"#utility.yul\":7890:7913   */\n  div\n    /* \"#utility.yul\":7880:7913   */\n  swap1\n  pop\n    /* \"#utility.yul\":7826:7919   */\n  swap2\n  swap1\n  pop\n  jump\t// out\n    /* \"#utility.yul\":7925:8032   */\ntag_40:\n    /* \"#utility.yul\":7969:7977   */\n  0x00\n    /* \"#utility.yul\":8019:8024   */\n  dup3\n    /* \"#utility.yul\":8013:8017   */\n  dup3\n    /* \"#utility.yul\":8009:8025   */\n  shl\n    /* \"#utility.yul\":7988:8025   */\n  swap1\n  pop\n    /* \"#utility.yul\":7925:8032   */\n  swap3\n  swap2\n  pop\n  pop\n  jump\t// out\n    /* \"#utility.yul\":8038:8431   */\ntag_41:\n    /* \"#utility.yul\":8107:8113   */\n  0x00\n    /* \"#utility.yul\":8157:8158   */\n  0x08\n    /* \"#utility.yul\":8145:8155   */\n  dup4\n    /* \"#utility.yul\":8141:8159   */\n  mul\n    /* \"#utility.yul\":8180:8277   */\n  tag_149\n    /* \"#utility.yul\":8210:8276   */\n  0xffffffffffffffffffffffffffffffffffffffffffffffffffffffffffffffff\n    /* \"#utility.yul\":8199:8208   */\n  dup3\n    /* \"#utility.yul\":8180:8277   */\n  tag_40\n  jump\t// in\ntag_149:\n    /* \"#utility.yul\":8298:8337   */\n  tag_150\n    /* \"#utility.yul\":8328:8336   */\n  dup7\n    /* \"#utility.yul\":8317:8326   */\n  dup4\n    /* \"#utility.yul\":8298:8337   */\n  tag_40\n  jump\t// in\ntag_150:\n    /* \"#utility.yul\":8286:8337   */\n  swap6\n  pop\n    /* \"#utility.yul\":8370:8374   */\n  dup1\n    /* \"#utility.yul\":8366:8375   */\n  not\n    /* \"#utility.yul\":8359:8364   */\n  dup5\n    /* \"#utility.yul\":8355:8376   */\n  and\n    /* \"#utility.yul\":8346:8376   */\n  swap4\n  pop\n    /* \"#utility.yul\":8419:8423   */\n  dup1\n    /* \"#utility.yul\":8409:8417   */\n  dup7\n    /* \"#utility.yul\":8405:8424   */\n  and\n    /* \"#utility.yul\":8398:8403   */\n  dup5\n    /* \"#utility.yul\":8395:8425   */\n  or\n    /* \"#utility.yul\":8385:8425   */\n  swap3\n  pop\n    /* \"#utility.yul\":8114:8431   */\n  pop\n  pop\n    /* \"#utility.yul\":8038:8431   */\n  swap4\n  swap3\n  pop\n  pop\n  pop\n  jump\t// out\n    /* \"#utility.yul\":8437:8497   */\ntag_42:\n    /* \"#utility.yul\":8465:8468   */\n  0x00\n    /* \"#utility.yul\":8486:8491   */\n  dup2\n    /* \"#utility.yul\":8479:8491   */\n  swap1\n  pop\n    /* \"#utility.yul\":8437:8497   */\n  swap2\n  swap1\n  pop\n  jump\t// out\n    /* \"#utility.yul\":8503:8645   */\ntag_43:\n    /* \"#utility.yul\":8553:8562   */\n  0x00\n    /* \"#utility.yul\":8586:8639   */\n  tag_153\n    /* \"#utility.yul\":8604:8638   */\n  tag_154\n    /* \"#utility.yul\":8613:8637   */\n  tag_155\n    /* \"#utility.yul\":8631:8636   */\n  dup5\n    /* \"#utility.yul\":8613:8637   */\n  tag_18\n  jump\t// in\ntag_155:\n    /* \"#utility.yul\":8604:8638   */\n  tag_42\n  jump\t// in\ntag_154:\n    /* \"#utility.yul\":8586:8639   */\n  tag_18\n  jump\t// in\ntag_153:\n    /* \"#utility.yul\":8573:8639   */\n  swap1\n  pop\n    /* \"#utility.yul\":8503:8645   */\n  swap2\n  swap1\n  pop\n  jump\t// out\n    /* \"#utility.yul\":8651:8726   */\ntag_44:\n    /* \"#utility.yul\":8694:8697   */\n  0x00\n    /* \"#utility.yul\":8715:8720   */\n  dup2\n    /* \"#utility.yul\":8708:8720   */\n  swap1\n  pop\n    /* \"#utility.yul\":8651:8726   */\n  swap2\n  swap1\n  pop\n  jump\t// out\n    /* \"#utility.yul\":8732:9001   */\ntag_45:\n    /* \"#utility.yul\":8842:8881   */\n  tag_158\n    /* \"#utility.yul\":8873:8880   */\n  dup4\n    /* \"#utility.yul\":8842:8881   */\n  tag_43\n  jump\t// in\ntag_158:\n    /* \"#utility.yul\":8903:8994   */\n  tag_159\n    /* \"#utility.yul\":8952:8993   */\n  tag_160\n    /* \"#utility.yul\":8976:8992   */\n  dup3\n    /* \"#utility.yul\":8952:8993   */\n  tag_44\n  jump\t// in\ntag_160:\n    /* \"#utility.yul\":8944:8950   */\n  dup5\n    /* \"#utility.yul\":8937:8941   */\n  dup5\n    /* \"#utility.yul\":8931:8942   */\n  sload\n    /* \"#utility.yul\":8903:8994   */\n  tag_41\n  jump\t// in\ntag_159:\n    /* \"#utility.yul\":8897:8901   */\n  dup3\n    /* \"#utility.yul\":8890:8995   */\n  sstore\n    /* \"#utility.yul\":8808:9001   */\n  pop\n    /* \"#utility.yul\":8732:9001   */\n  pop\n  pop\n  pop\n  jump\t// out\n    /* \"#utility.yul\":9007:9080   */\ntag_46:\n    /* \"#utility.yul\":9052:9055   */\n  0x00\n    /* \"#utility.yul\":9007:9080   */\n  swap1\n  jump\t// out\n    /* \"#utility.yul\":9086:9275   */\ntag_47:\n    /* \"#utility.yul\":9163:9195   */\n  tag_163\n  tag_46\n  jump\t// in\ntag_163:\n    /* \"#utility.yul\":9204:9269   */\n  tag_164\n    /* \"#utility.yul\":9262:9268   */\n  dup2\n    /* \"#utility.yul\":9254:9260   */\n  dup5\n    /* \"#utility.yul\":9248:9252   */\n  dup5\n    /* \"#utility.yul\":9204:9269   */\n  tag_45\n  jump\t// in\ntag_164:\n    /* \"#utility.yul\":9139:9275   */\n  pop\n    /* \"#utility.yul\":9086:9275   */\n  pop\n  pop\n  jump\t// out\n    /* \"#utility.yul\":9281:9467   */\ntag_48:\n    /* \"#utility.yul\":9341:9461   */\ntag_166:\n    /* \"#utility.yul\":9358:9361   */\n  dup2\n    /* \"#utility.yul\":9351:9356   */\n  dup2\n    /* \"#utility.yul\":9348:9362   */\n  lt\n    /* \"#utility.yul\":9341:9461   */\n  iszero\n  tag_168\n  jumpi\n    /* \"#utility.yul\":9412:9451   */\n  tag_169\n    /* \"#utility.yul\":9449:9450   */\n  0x00\n    /* \"#utility.yul\":9442:9447   */\n  dup3\n    /* \"#utility.yul\":9412:9451   */\n  tag_47\n  jump\t// in\ntag_169:\n    /* \"#utility.yul\":9385:9386   */\n  0x01\n    /* \"#utility.yul\":9378:9383   */\n  dup2\n    /* \"#utility.yul\":9374:9387   */\n  add\n    /* \"#utility.yul\":9365:9387   */\n  swap1\n  pop\n    /* \"#utility.yul\":9341:9461   */\n  jump(tag_166)\ntag_168:\n    /* \"#utility.yul\":9281:9467   */\n  pop\n  pop\n  jump\t// out\n    /* \"#utility.yul\":9473:10016   */\ntag_49:\n    /* \"#utility.yul\":9574:9576   */\n  0x1f\n    /* \"#utility.yul\":9569:9572   */\n  dup3\n    /* \"#utility.yul\":9566:9577   */\n  gt\n    /* \"#utility.yul\":9563:10009   */\n  iszero\n  tag_171\n  jumpi\n    /* \"#utility.yul\":9608:9646   */\n  tag_172\n    /* \"#utility.yul\":9640:9645   */\n  dup2\n    /* \"#utility.yul\":9608:9646   */\n  tag_38\n  jump\t// in\ntag_172:\n    /* \"#utility.yul\":9692:9721   */\n  tag_173\n    /* \"#utility.yul\":9710:9720   */\n  dup5\n    /* \"#utility.yul\":9692:9721   */\n  tag_39\n  jump\t// in\ntag_173:\n    /* \"#utility.yul\":9682:9690   */\n  dup2\n    /* \"#utility.yul\":9678:9722   */\n  add\n    /* \"#utility.yul\":9875:9877   */\n  0x20\n    /* \"#utility.yul\":9863:9873   */\n  dup6\n    /* \"#utility.yul\":9860:9878   */\n  lt\n    /* \"#utility.yul\":9857:9906   */\n  iszero\n  tag_174\n  jumpi\n    /* \"#utility.yul\":9896:9904   */\n  dup2\n    /* \"#utility.yul\":9881:9904   */\n  swap1\n  pop\n    /* \"#utility.yul\":9857:9906   */\ntag_174:\n    /* \"#utility.yul\":9919:9999   */\n  tag_175\n    /* \"#utility.yul\":9975:9997   */\n  tag_176\n    /* \"#utility.yul\":9993:9996   */\n  dup6\n    /* \"#utility.yul\":9975:9997   */\n  tag_39\n  jump\t// in\ntag_176:\n    /* \"#utility.yul\":9965:9973   */\n  dup4\n    /* \"#utility.yul\":9961:9998   */\n  add\n    /* \"#utility.yul\":9948:9959   */\n  dup3\n    /* \"#utility.yul\":9919:9999   */\n  tag_48\n  jump\t// in\ntag_175:\n    /* \"#utility.yul\":9578:10009   */\n  pop\n  pop\n    /* \"#utility.yul\":9563:10009   */\ntag_171:\n    /* \"#utility.yul\":9473:10016   */\n  pop\n  pop\n  pop\n  jump\t// out\n    /* \"#utility.yul\":10022:10139   */\ntag_50:\n    /* \"#utility.yul\":10076:10084   */\n  0x00\n    /* \"#utility.yul\":10126:10131   */\n  dup3\n    /* \"#utility.yul\":10120:10124   */\n  dup3\n    /* \"#utility.yul\":10116:10132   */\n  shr\n    /* \"#utility.yul\":10095:10132   */\n  swap1\n  pop\n    /* \"#utility.yul\":10022:10139   */\n  swap3\n  swap2\n  pop\n  pop\n  jump\t// out\n    /* \"#utility.yul\":10145:10314   */\ntag_51:\n    /* \"#utility.yul\":10189:10195   */\n  0x00\n    /* \"#utility.yul\":10222:10273   */\n  tag_179\n    /* \"#utility.yul\":10270:10271   */\n  0x00\n    /* \"#utility.yul\":10266:10272   */\n  not\n    /* \"#utility.yul\":10258:10263   */\n  dup5\n    /* \"#utility.yul\":10255:10256   */\n  0x08\n    /* \"#utility.yul\":10251:10264   */\n  mul\n    /* \"#utility.yul\":10222:10273   */\n  tag_50\n  jump\t// in\ntag_179:\n    /* \"#utility.yul\":10218:10274   */\n  not\n    /* \"#utility.yul\":10303:10307   */\n  dup1\n    /* \"#utility.yul\":10297:10301   */\n  dup4\n    /* \"#utility.yul\":10293:10308   */\n  and\n    /* \"#utility.yul\":10283:10308   */\n  swap2\n  pop\n    /* \"#utility.yul\":10196:10314   */\n  pop\n    /* \"#utility.yul\":10145:10314   */\n  swap3\n  swap2\n  pop\n  pop\n  jump\t// out\n    /* \"#utility.yul\":10319:10614   */\ntag_52:\n    /* \"#utility.yul\":10395:10399   */\n  0x00\n    /* \"#utility.yul\":10541:10570   */\n  tag_181\n    /* \"#utility.yul\":10566:10569   */\n  dup4\n    /* \"#utility.yul\":10560:10564   */\n  dup4\n    /* \"#utility.yul\":10541:10570   */\n  tag_51\n  jump\t// in\ntag_181:\n    /* \"#utility.yul\":10533:10570   */\n  swap2\n  pop\n    /* \"#utility.yul\":10603:10606   */\n  dup3\n    /* \"#utility.yul\":10600:10601   */\n  0x02\n    /* \"#utility.yul\":10596:10607   */\n  mul\n    /* \"#utility.yul\":10590:10594   */\n  dup3\n    /* \"#utility.yul\":10587:10608   */\n  or\n    /* \"#utility.yul\":10579:10608   */\n  swap1\n  pop\n    /* \"#utility.yul\":10319:10614   */\n  swap3\n  swap2\n  pop\n  pop\n  jump\t// out\n    /* \"#utility.yul\":10619:12014   */\ntag_11:\n    /* \"#utility.yul\":10736:10773   */\n  tag_183\n    /* \"#utility.yul\":10769:10772   */\n  dup3\n    /* \"#utility.yul\":10736:10773   */\n  tag_35\n  jump\t// in\ntag_183:\n    /* \"#utility.yul\":10838:10856   */\n  0xffffffffffffffff\n    /* \"#utility.yul\":10830:10836   */\n  dup2\n    /* \"#utility.yul\":10827:10857   */\n  gt\n    /* \"#utility.yul\":10824:10880   */\n  iszero\n  tag_184\n  jumpi\n    /* \"#utility.yul\":10860:10878   */\n  tag_185\n  tag_26\n  jump\t// in\ntag_185:\n    /* \"#utility.yul\":10824:10880   */\ntag_184:\n    /* \"#utility.yul\":10904:10942   */\n  tag_186\n    /* \"#utility.yul\":10936:10940   */\n  dup3\n    /* \"#utility.yul\":10930:10941   */\n  sload\n    /* \"#utility.yul\":10904:10942   */\n  tag_37\n  jump\t// in\ntag_186:\n    /* \"#utility.yul\":10989:11056   */\n  tag_187\n    /* \"#utility.yul\":11049:11055   */\n  dup3\n    /* \"#utility.yul\":11041:11047   */\n  dup3\n    /* \"#utility.yul\":11035:11039   */\n  dup6\n    /* \"#utility.yul\":10989:11056   */\n  tag_49\n  jump\t// in\ntag_187:\n    /* \"#utility.yul\":11083:11084   */\n  0x00\n    /* \"#utility.yul\":11107:11111   */\n  0x20\n    /* \"#utility.yul\":11094:11111   */\n  swap1\n  pop\n    /* \"#utility.yul\":11139:11141   */\n  0x1f\n    /* \"#utility.yul\":11131:11137   */\n  dup4\n    /* \"#utility.yul\":11128:11142   */\n  gt\n    /* \"#utility.yul\":11156:11157   */\n  0x01\n    /* \"#utility.yul\":11151:11769   */\n  dup2\n  eq\n  tag_189\n  jumpi\n    /* \"#utility.yul\":11813:11814   */\n  0x00\n    /* \"#utility.yul\":11830:11836   */\n  dup5\n    /* \"#utility.yul\":11827:11904   */\n  iszero\n  tag_190\n  jumpi\n    /* \"#utility.yul\":11879:11888   */\n  dup3\n    /* \"#utility.yul\":11874:11877   */\n  dup8\n    /* \"#utility.yul\":11870:11889   */\n  add\n    /* \"#utility.yul\":11864:11890   */\n  mload\n    /* \"#utility.yul\":11855:11890   */\n  swap1\n  pop\n    /* \"#utility.yul\":11827:11904   */\ntag_190:\n    /* \"#utility.yul\":11930:11997   */\n  tag_191\n    /* \"#utility.yul\":11990:11996   */\n  dup6\n    /* \"#utility.yul\":11983:11988   */\n  dup3\n    /* \"#utility.yul\":11930:11997   */\n  tag_52\n  jump\t// in\ntag_191:\n    /* \"#utility.yul\":11924:11928   */\n  dup7\n    /* \"#utility.yul\":11917:11998   */\n  sstore\n    /* \"#utility.yul\":11786:12008   */\n  pop\n    /* \"#utility.yul\":11121:12008   */\n  jump(tag_188)\n    /* \"#utility.yul\":11151:11769   */\ntag_189:\n    /* \"#utility.yul\":11203:11207   */\n  0x1f\n    /* \"#utility.yul\":11199:11208   */\n  not\n    /* \"#utility.yul\":11191:11197   */\n  dup5\n    /* \"#utility.yul\":11187:11209   */\n  and\n    /* \"#utility.yul\":11237:11274   */\n  tag_192\n    /* \"#utility.yul\":11269:11273   */\n  dup7\n    /* \"#utility.yul\":11237:11274   */\n  tag_38\n  jump\t// in\ntag_192:\n    /* \"#utility.yul\":11296:11297   */\n  0x00\n    /* \"#utility.yul\":11310:11518   */\ntag_193:\n    /* \"#utility.yul\":11324:11331   */\n  dup3\n    /* \"#utility.yul\":11321:11322   */\n  dup2\n    /* \"#utility.yul\":11318:11332   */\n  lt\n    /* \"#utility.yul\":11310:11518   */\n  iszero\n  tag_195\n  jumpi\n    /* \"#utility.yul\":11403:11412   */\n  dup5\n    /* \"#utility.yul\":11398:11401   */\n  dup10\n    /* \"#utility.yul\":11394:11413   */\n  add\n    /* \"#utility.yul\":11388:11414   */\n  mload\n    /* \"#utility.yul\":11380:11386   */\n  dup3\n    /* \"#utility.yul\":11373:11415   */\n  sstore\n    /* \"#utility.yul\":11454:11455   */\n  0x01\n    /* \"#utility.yul\":11446:11452   */\n  dup3\n    /* \"#utility.yul\":11442:11456   */\n  add\n    /* \"#utility.yul\":11432:11456   */\n  swap2\n  pop\n    /* \"#utility.yul\":11501:11503   */\n  0x20\n    /* \"#utility.yul\":11490:11499   */\n  dup6\n    /* \"#utility.yul\":11486:11504   */\n  add\n    /* \"#utility.yul\":11473:11504   */\n  swap5\n  pop\n    /* \"#utility.yul\":11347:11351   */\n  0x20\n    /* \"#utility.yul\":11344:11345   */\n  dup2\n    /* \"#utility.yul\":11340:11352   */\n  add\n    /* \"#utility.yul\":11335:11352   */\n  swap1\n  pop\n    /* \"#utility.yul\":11310:11518   */\n  jump(tag_193)\ntag_195:\n    /* \"#utility.yul\":11546:11552   */\n  dup7\n    /* \"#utility.yul\":11537:11544   */\n  dup4\n    /* \"#utility.yul\":11534:11553   */\n  lt\n    /* \"#utility.yul\":11531:11710   */\n  iszero\n  tag_196\n  jumpi\n    /* \"#utility.yul\":11604:11613   */\n  dup5\n    /* \"#utility.yul\":11599:11602   */\n  dup10\n    /* \"#utility.yul\":11595:11614   */\n  add\n    /* \"#utility.yul\":11589:11615   */\n  mload\n    /* \"#utility.yul\":11647:11695   */\n  tag_197\n    /* \"#utility.yul\":11689:11693   */\n  0x1f\n    /* \"#utility.yul\":11681:11687   */\n  dup10\n    /* \"#utility.yul\":11677:11694   */\n  and\n    /* \"#utility.yul\":11666:11675   */\n  dup3\n    /* \"#utility.yul\":11647:11695   */\n  tag_51\n  jump\t// in\ntag_197:\n    /* \"#utility.yul\":11639:11645   */\n  dup4\n    /* \"#utility.yul\":11632:11696   */\n  sstore\n    /* \"#utility.yul\":11554:11710   */\n  pop\n    /* \"#utility.yul\":11531:11710   */\ntag_196:\n    /* \"#utility.yul\":11756:11757   */\n  0x01\n    /* \"#utility.yul\":11752:11753   */\n  0x02\n    /* \"#utility.yul\":11744:11750   */\n  dup9\n    /* \"#utility.yul\":11740:11754   */\n  mul\n    /* \"#utility.yul\":11736:11758   */\n  add\n    /* \"#utility.yul\":11730:11734   */\n  dup9\n    /* \"#utility.yul\":11723:11759   */\n  sstore\n    /* \"#utility.yul\":11158:11769   */\n  pop\n  pop\n  pop\n    /* \"#utility.yul\":11121:12008   */\ntag_188:\n  pop\n    /* \"#utility.yul\":10711:12014   */\n  pop\n  pop\n  pop\n    /* \"#utility.yul\":10619:12014   */\n  pop\n  pop\n  jump\t// out\n    /* \"Practica1/TokenERC20_1.sol\":5865:12805  contract TokenERC20_1 is IERC20, IERC20Metadata, AccessControl{... */\ntag_13:\n  dataSize(sub_0)\n  dup1\n  dataOffset(sub_0)\n  0x00\n  codecopy\n  0x00\n  return\nstop\n\nsub_0: assembly {\n        /* \"Practica1/TokenERC20_1.sol\":5865:12805  contract TokenERC20_1 is IERC20, IERC20Metadata, AccessControl{... */\n      mstore(0x40, 0x80)\n      callvalue\n      dup1\n      iszero\n      tag_1\n      jumpi\n      0x00\n      dup1\n      revert\n    tag_1:\n      pop\n      jumpi(tag_2, lt(calldatasize, 0x04))\n      shr(0xe0, calldataload(0x00))\n      dup1\n      0x42966c68\n      gt\n      tag_25\n      jumpi\n      dup1\n      0xa217fddf\n      gt\n      tag_26\n      jumpi\n      dup1\n      0xa217fddf\n      eq\n      tag_19\n      jumpi\n      dup1\n      0xa457c2d7\n      eq\n      tag_20\n      jumpi\n      dup1\n      0xa9059cbb\n      eq\n      tag_21\n      jumpi\n      dup1\n      0xd5391393\n      eq\n      tag_22\n      jumpi\n      dup1\n      0xd547741f\n      eq\n      tag_23\n      jumpi\n      dup1\n      0xdd62ed3e\n      eq\n      tag_24\n      jumpi\n      jump(tag_2)\n    tag_26:\n      dup1\n      0x42966c68\n      eq\n      tag_14\n      jumpi\n      dup1\n      0x70a08231\n      eq\n      tag_15\n      jumpi\n      dup1\n      0x91d14854\n      eq\n      tag_16\n      jumpi\n      dup1\n      0x95d89b41\n      eq\n      tag_17\n      jumpi\n      dup1\n      0x96b5e388\n      eq\n      tag_18\n      jumpi\n      jump(tag_2)\n    tag_25:\n      dup1\n      0x248a9ca3\n      gt\n      tag_27\n      jumpi\n      dup1\n      0x248a9ca3\n      eq\n      tag_8\n      jumpi\n      dup1\n      0x2f2ff15d\n      eq\n      tag_9\n      jumpi\n      dup1\n      0x313ce567\n      eq\n      tag_10\n      jumpi\n      dup1\n      0x36568abe\n      eq\n      tag_11\n      jumpi\n      dup1\n      0x39509351\n      eq\n      tag_12\n      jumpi\n      dup1\n      0x40c10f19\n      eq\n      tag_13\n      jumpi\n      jump(tag_2)\n    tag_27:\n      dup1\n      0x01ffc9a7\n      eq\n      tag_3\n      jumpi\n      dup1\n      0x06fdde03\n      eq\n      tag_4\n      jumpi\n      dup1\n      0x095ea7b3\n      eq\n      tag_5\n      jumpi\n      dup1\n      0x18160ddd\n      eq\n      tag_6\n      jumpi\n      dup1\n      0x23b872dd\n      eq\n      tag_7\n      jumpi\n    tag_2:\n      0x00\n      dup1\n      revert\n        /* \"@openzeppelin/contracts/access/AccessControl.sol\":2606:2808  function supportsInterface(bytes4 interfaceId) public view virtual override returns (bool) {... */\n    tag_3:\n      tag_28\n      0x04\n      dup1\n      calldatasize\n      sub\n      dup2\n      add\n      swap1\n      tag_29\n      swap2\n      swap1\n      tag_30\n      jump\t// in\n    tag_29:\n      tag_31\n      jump\t// in\n    tag_28:\n      mload(0x40)\n      tag_32\n      swap2\n      swap1\n      tag_33\n      jump\t// in\n    tag_32:\n      mload(0x40)\n      dup1\n      swap2\n      sub\n      swap1\n      return\n        /* \"Practica1/TokenERC20_1.sol\":7343:7427  function name() public view returns (string memory) {... */\n    tag_4:\n      tag_34\n      tag_35\n      jump\t// in\n    tag_34:\n      mload(0x40)\n      tag_36\n      swap2\n      swap1\n      tag_37\n      jump\t// in\n    tag_36:\n      mload(0x40)\n      dup1\n      swap2\n      sub\n      swap1\n      return\n        /* \"Practica1/TokenERC20_1.sol\":8632:8853  function approve(address spender, uint256 amount) public returns (bool) {... */\n    tag_5:\n      tag_38\n      0x04\n      dup1\n      calldatasize\n      sub\n      dup2\n      add\n      swap1\n      tag_39\n      swap2\n      swap1\n      tag_40\n      jump\t// in\n    tag_39:\n      tag_41\n      jump\t// in\n    tag_38:\n      mload(0x40)\n      tag_42\n      swap2\n      swap1\n      tag_33\n      jump\t// in\n    tag_42:\n      mload(0x40)\n      dup1\n      swap2\n      sub\n      swap1\n      return\n        /* \"Practica1/TokenERC20_1.sol\":8047:8142  function totalSupply() public view returns (uint256) {... */\n    tag_6:\n      tag_43\n      tag_44\n      jump\t// in\n    tag_43:\n      mload(0x40)\n      tag_45\n      swap2\n      swap1\n      tag_46\n      jump\t// in\n    tag_45:\n      mload(0x40)\n      dup1\n      swap2\n      sub\n      swap1\n      return\n        /* \"Practica1/TokenERC20_1.sol\":8878:9693  function transferFrom(... */\n    tag_7:\n      tag_47\n      0x04\n      dup1\n      calldatasize\n      sub\n      dup2\n      add\n      swap1\n      tag_48\n      swap2\n      swap1\n      tag_49\n      jump\t// in\n    tag_48:\n      tag_50\n      jump\t// in\n    tag_47:\n      mload(0x40)\n      tag_51\n      swap2\n      swap1\n      tag_33\n      jump\t// in\n    tag_51:\n      mload(0x40)\n      dup1\n      swap2\n      sub\n      swap1\n      return\n        /* \"@openzeppelin/contracts/access/AccessControl.sol\":4391:4520  function getRoleAdmin(bytes32 role) public view virtual override returns (bytes32) {... */\n    tag_8:\n      tag_52\n      0x04\n      dup1\n      calldatasize\n      sub\n      dup2\n      add\n      swap1\n      tag_53\n      swap2\n      swap1\n      tag_54\n      jump\t// in\n    tag_53:\n      tag_55\n      jump\t// in\n    tag_52:\n      mload(0x40)\n      tag_56\n      swap2\n      swap1\n      tag_57\n      jump\t// in\n    tag_56:\n      mload(0x40)\n      dup1\n      swap2\n      sub\n      swap1\n      return\n        /* \"@openzeppelin/contracts/access/AccessControl.sol\":4816:4961  function grantRole(bytes32 role, address account) public virtual override onlyRole(getRoleAdmin(role)) {... */\n    tag_9:\n      tag_58\n      0x04\n      dup1\n      calldatasize\n      sub\n      dup2\n      add\n      swap1\n      tag_59\n      swap2\n      swap1\n      tag_60\n      jump\t// in\n    tag_59:\n      tag_61\n      jump\t// in\n    tag_58:\n      stop\n        /* \"Practica1/TokenERC20_1.sol\":7562:7645  function decimals() public view returns (uint8){... */\n    tag_10:\n      tag_62\n      tag_63\n      jump\t// in\n    tag_62:\n      mload(0x40)\n      tag_64\n      swap2\n      swap1\n      tag_65\n      jump\t// in\n    tag_64:\n      mload(0x40)\n      dup1\n      swap2\n      sub\n      swap1\n      return\n        /* \"@openzeppelin/contracts/access/AccessControl.sol\":5925:6139  function renounceRole(bytes32 role, address account) public virtual override {... */\n    tag_11:\n      tag_66\n      0x04\n      dup1\n      calldatasize\n      sub\n      dup2\n      add\n      swap1\n      tag_67\n      swap2\n      swap1\n      tag_60\n      jump\t// in\n    tag_67:\n      tag_68\n      jump\t// in\n    tag_66:\n      stop\n        /* \"Practica1/TokenERC20_1.sol\":11163:11459  function increaseAllowance(address spender, uint256 addedValue) public returns (bool){... */\n    tag_12:\n      tag_69\n      0x04\n      dup1\n      calldatasize\n      sub\n      dup2\n      add\n      swap1\n      tag_70\n      swap2\n      swap1\n      tag_40\n      jump\t// in\n    tag_70:\n      tag_71\n      jump\t// in\n    tag_69:\n      mload(0x40)\n      tag_72\n      swap2\n      swap1\n      tag_33\n      jump\t// in\n    tag_72:\n      mload(0x40)\n      dup1\n      swap2\n      sub\n      swap1\n      return\n        /* \"Practica1/TokenERC20_1.sol\":9970:10312  function mint(address to, uint256 amount) public {... */\n    tag_13:\n      tag_73\n      0x04\n      dup1\n      calldatasize\n      sub\n      dup2\n      add\n      swap1\n      tag_74\n      swap2\n      swap1\n      tag_40\n      jump\t// in\n    tag_74:\n      tag_75\n      jump\t// in\n    tag_73:\n      stop\n        /* \"Practica1/TokenERC20_1.sol\":10336:10748  function burn(uint256 amount) public {... */\n    tag_14:\n      tag_76\n      0x04\n      dup1\n      calldatasize\n      sub\n      dup2\n      add\n      swap1\n      tag_77\n      swap2\n      swap1\n      tag_78\n      jump\t// in\n    tag_77:\n      tag_79\n      jump\t// in\n    tag_76:\n      stop\n        /* \"Practica1/TokenERC20_1.sol\":8167:8277  function balanceOf(address account) public view returns (uint256) {... */\n    tag_15:\n      tag_80\n      0x04\n      dup1\n      calldatasize\n      sub\n      dup2\n      add\n      swap1\n      tag_81\n      swap2\n      swap1\n      tag_82\n      jump\t// in\n    tag_81:\n      tag_83\n      jump\t// in\n    tag_80:\n      mload(0x40)\n      tag_84\n      swap2\n      swap1\n      tag_46\n      jump\t// in\n    tag_84:\n      mload(0x40)\n      dup1\n      swap2\n      sub\n      swap1\n      return\n        /* \"@openzeppelin/contracts/access/AccessControl.sol\":2895:3040  function hasRole(bytes32 role, address account) public view virtual override returns (bool) {... */\n    tag_16:\n      tag_85\n      0x04\n      dup1\n      calldatasize\n      sub\n      dup2\n      add\n      swap1\n      tag_86\n      swap2\n      swap1\n      tag_60\n      jump\t// in\n    tag_86:\n      tag_87\n      jump\t// in\n    tag_85:\n      mload(0x40)\n      tag_88\n      swap2\n      swap1\n      tag_33\n      jump\t// in\n    tag_88:\n      mload(0x40)\n      dup1\n      swap2\n      sub\n      swap1\n      return\n        /* \"Practica1/TokenERC20_1.sol\":7450:7537  function symbol() public view returns (string memory){... */\n    tag_17:\n      tag_89\n      tag_90\n      jump\t// in\n    tag_89:\n      mload(0x40)\n      tag_91\n      swap2\n      swap1\n      tag_37\n      jump\t// in\n    tag_91:\n      mload(0x40)\n      dup1\n      swap2\n      sub\n      swap1\n      return\n        /* \"Practica1/TokenERC20_1.sol\":12688:12802  function mintProtected(address to, uint256 amount) public onlyRole(MINTER_ROLE) {... */\n    tag_18:\n      tag_92\n      0x04\n      dup1\n      calldatasize\n      sub\n      dup2\n      add\n      swap1\n      tag_93\n      swap2\n      swap1\n      tag_40\n      jump\t// in\n    tag_93:\n      tag_94\n      jump\t// in\n    tag_92:\n      stop\n        /* \"@openzeppelin/contracts/access/AccessControl.sol\":2027:2076  bytes32 public constant DEFAULT_ADMIN_ROLE = 0x00 */\n    tag_19:\n      tag_95\n      tag_96\n      jump\t// in\n    tag_95:\n      mload(0x40)\n      tag_97\n      swap2\n      swap1\n      tag_57\n      jump\t// in\n    tag_97:\n      mload(0x40)\n      dup1\n      swap2\n      sub\n      swap1\n      return\n        /* \"Practica1/TokenERC20_1.sol\":11799:12175  function decreaseAllowance(address spender, uint256 subtractedValue) public returns (bool){... */\n    tag_20:\n      tag_98\n      0x04\n      dup1\n      calldatasize\n      sub\n      dup2\n      add\n      swap1\n      tag_99\n      swap2\n      swap1\n      tag_40\n      jump\t// in\n    tag_99:\n      tag_100\n      jump\t// in\n    tag_98:\n      mload(0x40)\n      tag_101\n      swap2\n      swap1\n      tag_33\n      jump\t// in\n    tag_101:\n      mload(0x40)\n      dup1\n      swap2\n      sub\n      swap1\n      return\n        /* \"Practica1/TokenERC20_1.sol\":8302:8435  function transfer(address to, uint256 amount) public returns (bool) {     ... */\n    tag_21:\n      tag_102\n      0x04\n      dup1\n      calldatasize\n      sub\n      dup2\n      add\n      swap1\n      tag_103\n      swap2\n      swap1\n      tag_40\n      jump\t// in\n    tag_103:\n      tag_104\n      jump\t// in\n    tag_102:\n      mload(0x40)\n      tag_105\n      swap2\n      swap1\n      tag_33\n      jump\t// in\n    tag_105:\n      mload(0x40)\n      dup1\n      swap2\n      sub\n      swap1\n      return\n        /* \"Practica1/TokenERC20_1.sol\":6413:6475  bytes32 public constant MINTER_ROLE = keccak256(\"MINTER_ROLE\") */\n    tag_22:\n      tag_106\n      tag_107\n      jump\t// in\n    tag_106:\n      mload(0x40)\n      tag_108\n      swap2\n      swap1\n      tag_57\n      jump\t// in\n    tag_108:\n      mload(0x40)\n      dup1\n      swap2\n      sub\n      swap1\n      return\n        /* \"@openzeppelin/contracts/access/AccessControl.sol\":5241:5388  function revokeRole(bytes32 role, address account) public virtual override onlyRole(getRoleAdmin(role)) {... */\n    tag_23:\n      tag_109\n      0x04\n      dup1\n      calldatasize\n      sub\n      dup2\n      add\n      swap1\n      tag_110\n      swap2\n      swap1\n      tag_60\n      jump\t// in\n    tag_110:\n      tag_111\n      jump\t// in\n    tag_109:\n      stop\n        /* \"Practica1/TokenERC20_1.sol\":8460:8624  function allowance(address owner, address spender)... */\n    tag_24:\n      tag_112\n      0x04\n      dup1\n      calldatasize\n      sub\n      dup2\n      add\n      swap1\n      tag_113\n      swap2\n      swap1\n      tag_114\n      jump\t// in\n    tag_113:\n      tag_115\n      jump\t// in\n    tag_112:\n      mload(0x40)\n      tag_116\n      swap2\n      swap1\n      tag_46\n      jump\t// in\n    tag_116:\n      mload(0x40)\n      dup1\n      swap2\n      sub\n      swap1\n      return\n        /* \"@openzeppelin/contracts/access/AccessControl.sol\":2606:2808  function supportsInterface(bytes4 interfaceId) public view virtual override returns (bool) {... */\n    tag_31:\n        /* \"@openzeppelin/contracts/access/AccessControl.sol\":2691:2695  bool */\n      0x00\n        /* \"@openzeppelin/contracts/access/AccessControl.sol\":2729:2761  type(IAccessControl).interfaceId */\n      0x7965db0b00000000000000000000000000000000000000000000000000000000\n        /* \"@openzeppelin/contracts/access/AccessControl.sol\":2714:2761  interfaceId == type(IAccessControl).interfaceId */\n      not(0xffffffffffffffffffffffffffffffffffffffffffffffffffffffff)\n      and\n        /* \"@openzeppelin/contracts/access/AccessControl.sol\":2714:2725  interfaceId */\n      dup3\n        /* \"@openzeppelin/contracts/access/AccessControl.sol\":2714:2761  interfaceId == type(IAccessControl).interfaceId */\n      not(0xffffffffffffffffffffffffffffffffffffffffffffffffffffffff)\n      and\n      eq\n        /* \"@openzeppelin/contracts/access/AccessControl.sol\":2714:2801  interfaceId == type(IAccessControl).interfaceId || super.supportsInterface(interfaceId) */\n      dup1\n      tag_118\n      jumpi\n      pop\n        /* \"@openzeppelin/contracts/access/AccessControl.sol\":2765:2801  super.supportsInterface(interfaceId) */\n      tag_119\n        /* \"@openzeppelin/contracts/access/AccessControl.sol\":2789:2800  interfaceId */\n      dup3\n        /* \"@openzeppelin/contracts/access/AccessControl.sol\":2765:2788  super.supportsInterface */\n      tag_120\n        /* \"@openzeppelin/contracts/access/AccessControl.sol\":2765:2801  super.supportsInterface(interfaceId) */\n      jump\t// in\n    tag_119:\n        /* \"@openzeppelin/contracts/access/AccessControl.sol\":2714:2801  interfaceId == type(IAccessControl).interfaceId || super.supportsInterface(interfaceId) */\n    tag_118:\n        /* \"@openzeppelin/contracts/access/AccessControl.sol\":2707:2801  return interfaceId == type(IAccessControl).interfaceId || super.supportsInterface(interfaceId) */\n      swap1\n      pop\n        /* \"@openzeppelin/contracts/access/AccessControl.sol\":2606:2808  function supportsInterface(bytes4 interfaceId) public view virtual override returns (bool) {... */\n      swap2\n      swap1\n      pop\n      jump\t// out\n        /* \"Practica1/TokenERC20_1.sol\":7343:7427  function name() public view returns (string memory) {... */\n    tag_35:\n        /* \"Practica1/TokenERC20_1.sol\":7380:7393  string memory */\n      0x60\n        /* \"Practica1/TokenERC20_1.sol\":7413:7419  myname */\n      0x04\n        /* \"Practica1/TokenERC20_1.sol\":7406:7419  return myname */\n      dup1\n      sload\n      tag_122\n      swap1\n      tag_123\n      jump\t// in\n    tag_122:\n      dup1\n      0x1f\n      add\n      0x20\n      dup1\n      swap2\n      div\n      mul\n      0x20\n      add\n      mload(0x40)\n      swap1\n      dup2\n      add\n      0x40\n      mstore\n      dup1\n      swap3\n      swap2\n      swap1\n      dup2\n      dup2\n      mstore\n      0x20\n      add\n      dup3\n      dup1\n      sload\n      tag_124\n      swap1\n      tag_123\n      jump\t// in\n    tag_124:\n      dup1\n      iszero\n      tag_125\n      jumpi\n      dup1\n      0x1f\n      lt\n      tag_126\n      jumpi\n      0x0100\n      dup1\n      dup4\n      sload\n      div\n      mul\n      dup4\n      mstore\n      swap2\n      0x20\n      add\n      swap2\n      jump(tag_125)\n    tag_126:\n      dup3\n      add\n      swap2\n      swap1\n      0x00\n      mstore\n      keccak256(0x00, 0x20)\n      swap1\n    tag_127:\n      dup2\n      sload\n      dup2\n      mstore\n      swap1\n      0x01\n      add\n      swap1\n      0x20\n      add\n      dup1\n      dup4\n      gt\n      tag_127\n      jumpi\n      dup3\n      swap1\n      sub\n      0x1f\n      and\n      dup3\n      add\n      swap2\n    tag_125:\n      pop\n      pop\n      pop\n      pop\n      pop\n      swap1\n      pop\n        /* \"Practica1/TokenERC20_1.sol\":7343:7427  function name() public view returns (string memory) {... */\n      swap1\n      jump\t// out\n        /* \"Practica1/TokenERC20_1.sol\":8632:8853  function approve(address spender, uint256 amount) public returns (bool) {... */\n    tag_41:\n        /* \"Practica1/TokenERC20_1.sol\":8698:8702  bool */\n      0x00\n        /* \"Practica1/TokenERC20_1.sol\":8742:8743  0 */\n      dup1\n        /* \"Practica1/TokenERC20_1.sol\":8723:8744  spender != address(0) */\n      0xffffffffffffffffffffffffffffffffffffffff\n      and\n        /* \"Practica1/TokenERC20_1.sol\":8723:8730  spender */\n      dup4\n        /* \"Practica1/TokenERC20_1.sol\":8723:8744  spender != address(0) */\n      0xffffffffffffffffffffffffffffffffffffffff\n      and\n      sub\n        /* \"Practica1/TokenERC20_1.sol\":8715:8773  require(spender != address(0),\"Spender es direccion zero\") */\n      tag_129\n      jumpi\n      mload(0x40)\n      0x08c379a000000000000000000000000000000000000000000000000000000000\n      dup2\n      mstore\n      0x04\n      add\n      tag_130\n      swap1\n      tag_131\n      jump\t// in\n    tag_130:\n      mload(0x40)\n      dup1\n      swap2\n      sub\n      swap1\n      revert\n    tag_129:\n        /* \"Practica1/TokenERC20_1.sol\":8817:8823  amount */\n      dup2\n        /* \"Practica1/TokenERC20_1.sol\":8784:8793  _permisos */\n      0x03\n        /* \"Practica1/TokenERC20_1.sol\":8784:8805  _permisos[msg.sender] */\n      0x00\n        /* \"Practica1/TokenERC20_1.sol\":8794:8804  msg.sender */\n      caller\n        /* \"Practica1/TokenERC20_1.sol\":8784:8805  _permisos[msg.sender] */\n      0xffffffffffffffffffffffffffffffffffffffff\n      and\n      0xffffffffffffffffffffffffffffffffffffffff\n      and\n      dup2\n      mstore\n      0x20\n      add\n      swap1\n      dup2\n      mstore\n      0x20\n      add\n      0x00\n      keccak256\n        /* \"Practica1/TokenERC20_1.sol\":8784:8814  _permisos[msg.sender][spender] */\n      0x00\n        /* \"Practica1/TokenERC20_1.sol\":8806:8813  spender */\n      dup6\n        /* \"Practica1/TokenERC20_1.sol\":8784:8814  _permisos[msg.sender][spender] */\n      0xffffffffffffffffffffffffffffffffffffffff\n      and\n      0xffffffffffffffffffffffffffffffffffffffff\n      and\n      dup2\n      mstore\n      0x20\n      add\n      swap1\n      dup2\n      mstore\n      0x20\n      add\n      0x00\n      keccak256\n        /* \"Practica1/TokenERC20_1.sol\":8784:8823  _permisos[msg.sender][spender] = amount */\n      dup2\n      swap1\n      sstore\n      pop\n        /* \"Practica1/TokenERC20_1.sol\":8841:8845  true */\n      0x01\n        /* \"Practica1/TokenERC20_1.sol\":8834:8845  return true */\n      swap1\n      pop\n        /* \"Practica1/TokenERC20_1.sol\":8632:8853  function approve(address spender, uint256 amount) public returns (bool) {... */\n      swap3\n      swap2\n      pop\n      pop\n      jump\t// out\n        /* \"Practica1/TokenERC20_1.sol\":8047:8142  function totalSupply() public view returns (uint256) {... */\n    tag_44:\n        /* \"Practica1/TokenERC20_1.sol\":8091:8098  uint256 */\n      0x00\n        /* \"Practica1/TokenERC20_1.sol\":8118:8134  TokenTotalSupply */\n      sload(0x07)\n        /* \"Practica1/TokenERC20_1.sol\":8111:8134  return TokenTotalSupply */\n      swap1\n      pop\n        /* \"Practica1/TokenERC20_1.sol\":8047:8142  function totalSupply() public view returns (uint256) {... */\n      swap1\n      jump\t// out\n        /* \"Practica1/TokenERC20_1.sol\":8878:9693  function transferFrom(... */\n    tag_50:\n        /* \"Practica1/TokenERC20_1.sol\":8992:8996  bool */\n      0x00\n        /* \"Practica1/TokenERC20_1.sol\":9021:9031  msg.sender */\n      caller\n        /* \"Practica1/TokenERC20_1.sol\":9013:9031  from == msg.sender */\n      0xffffffffffffffffffffffffffffffffffffffff\n      and\n        /* \"Practica1/TokenERC20_1.sol\":9013:9017  from */\n      dup5\n        /* \"Practica1/TokenERC20_1.sol\":9013:9031  from == msg.sender */\n      0xffffffffffffffffffffffffffffffffffffffff\n      and\n      sub\n        /* \"Practica1/TokenERC20_1.sol\":9009:9432  if (from == msg.sender){... */\n      tag_134\n      jumpi\n        /* \"Practica1/TokenERC20_1.sol\":9071:9072  0 */\n      0x00\n        /* \"Practica1/TokenERC20_1.sol\":9055:9073  from != address(0) */\n      0xffffffffffffffffffffffffffffffffffffffff\n      and\n        /* \"Practica1/TokenERC20_1.sol\":9055:9059  from */\n      dup5\n        /* \"Practica1/TokenERC20_1.sol\":9055:9073  from != address(0) */\n      0xffffffffffffffffffffffffffffffffffffffff\n      and\n      sub\n        /* \"Practica1/TokenERC20_1.sol\":9047:9104  require(from != address(0), \"Enviado desde address zero\") */\n      tag_135\n      jumpi\n      mload(0x40)\n      0x08c379a000000000000000000000000000000000000000000000000000000000\n      dup2\n      mstore\n      0x04\n      add\n      tag_136\n      swap1\n      tag_137\n      jump\t// in\n    tag_136:\n      mload(0x40)\n      dup1\n      swap2\n      sub\n      swap1\n      revert\n    tag_135:\n        /* \"Practica1/TokenERC20_1.sol\":9141:9142  0 */\n      0x00\n        /* \"Practica1/TokenERC20_1.sol\":9127:9143  to != address(0) */\n      0xffffffffffffffffffffffffffffffffffffffff\n      and\n        /* \"Practica1/TokenERC20_1.sol\":9127:9129  to */\n      dup4\n        /* \"Practica1/TokenERC20_1.sol\":9127:9143  to != address(0) */\n      0xffffffffffffffffffffffffffffffffffffffff\n      and\n      sub\n        /* \"Practica1/TokenERC20_1.sol\":9119:9170  require(to != address(0), \"Enviado a address zero\") */\n      tag_138\n      jumpi\n      mload(0x40)\n      0x08c379a000000000000000000000000000000000000000000000000000000000\n      dup2\n      mstore\n      0x04\n      add\n      tag_139\n      swap1\n      tag_140\n      jump\t// in\n    tag_139:\n      mload(0x40)\n      dup1\n      swap2\n      sub\n      swap1\n      revert\n    tag_138:\n        /* \"Practica1/TokenERC20_1.sol\":9009:9432  if (from == msg.sender){... */\n      jump(tag_141)\n    tag_134:\n        /* \"Practica1/TokenERC20_1.sol\":9212:9237  uint256 permisoParaGastar */\n      0x00\n        /* \"Practica1/TokenERC20_1.sol\":9240:9249  _permisos */\n      0x03\n        /* \"Practica1/TokenERC20_1.sol\":9240:9255  _permisos[from] */\n      0x00\n        /* \"Practica1/TokenERC20_1.sol\":9250:9254  from */\n      dup7\n        /* \"Practica1/TokenERC20_1.sol\":9240:9255  _permisos[from] */\n      0xffffffffffffffffffffffffffffffffffffffff\n      and\n      0xffffffffffffffffffffffffffffffffffffffff\n      and\n      dup2\n      mstore\n      0x20\n      add\n      swap1\n      dup2\n      mstore\n      0x20\n      add\n      0x00\n      keccak256\n        /* \"Practica1/TokenERC20_1.sol\":9240:9267  _permisos[from][msg.sender] */\n      0x00\n        /* \"Practica1/TokenERC20_1.sol\":9256:9266  msg.sender */\n      caller\n        /* \"Practica1/TokenERC20_1.sol\":9240:9267  _permisos[from][msg.sender] */\n      0xffffffffffffffffffffffffffffffffffffffff\n      and\n      0xffffffffffffffffffffffffffffffffffffffff\n      and\n      dup2\n      mstore\n      0x20\n      add\n      swap1\n      dup2\n      mstore\n      0x20\n      add\n      0x00\n      keccak256\n      sload\n        /* \"Practica1/TokenERC20_1.sol\":9212:9267  uint256 permisoParaGastar = _permisos[from][msg.sender] */\n      swap1\n      pop\n        /* \"Practica1/TokenERC20_1.sol\":9311:9317  amount */\n      dup3\n        /* \"Practica1/TokenERC20_1.sol\":9290:9307  permisoParaGastar */\n      dup2\n        /* \"Practica1/TokenERC20_1.sol\":9290:9317  permisoParaGastar >= amount */\n      lt\n      iszero\n        /* \"Practica1/TokenERC20_1.sol\":9282:9349  require(permisoParaGastar >= amount, \"No tengo suficiente permiso\") */\n      tag_142\n      jumpi\n      mload(0x40)\n      0x08c379a000000000000000000000000000000000000000000000000000000000\n      dup2\n      mstore\n      0x04\n      add\n      tag_143\n      swap1\n      tag_144\n      jump\t// in\n    tag_143:\n      mload(0x40)\n      dup1\n      swap2\n      sub\n      swap1\n      revert\n    tag_142:\n        /* \"Practica1/TokenERC20_1.sol\":9414:9420  amount */\n      dup3\n        /* \"Practica1/TokenERC20_1.sol\":9394:9411  permisoParaGastar */\n      dup2\n        /* \"Practica1/TokenERC20_1.sol\":9394:9420  permisoParaGastar - amount */\n      tag_145\n      swap2\n      swap1\n      tag_146\n      jump\t// in\n    tag_145:\n        /* \"Practica1/TokenERC20_1.sol\":9364:9373  _permisos */\n      0x03\n        /* \"Practica1/TokenERC20_1.sol\":9364:9379  _permisos[from] */\n      0x00\n        /* \"Practica1/TokenERC20_1.sol\":9374:9378  from */\n      dup8\n        /* \"Practica1/TokenERC20_1.sol\":9364:9379  _permisos[from] */\n      0xffffffffffffffffffffffffffffffffffffffff\n      and\n      0xffffffffffffffffffffffffffffffffffffffff\n      and\n      dup2\n      mstore\n      0x20\n      add\n      swap1\n      dup2\n      mstore\n      0x20\n      add\n      0x00\n      keccak256\n        /* \"Practica1/TokenERC20_1.sol\":9364:9391  _permisos[from][msg.sender] */\n      0x00\n        /* \"Practica1/TokenERC20_1.sol\":9380:9390  msg.sender */\n      caller\n        /* \"Practica1/TokenERC20_1.sol\":9364:9391  _permisos[from][msg.sender] */\n      0xffffffffffffffffffffffffffffffffffffffff\n      and\n      0xffffffffffffffffffffffffffffffffffffffff\n      and\n      dup2\n      mstore\n      0x20\n      add\n      swap1\n      dup2\n      mstore\n      0x20\n      add\n      0x00\n      keccak256\n        /* \"Practica1/TokenERC20_1.sol\":9364:9420  _permisos[from][msg.sender] = permisoParaGastar - amount */\n      dup2\n      swap1\n      sstore\n      pop\n        /* \"Practica1/TokenERC20_1.sol\":9197:9432  {... */\n      pop\n        /* \"Practica1/TokenERC20_1.sol\":9009:9432  if (from == msg.sender){... */\n    tag_141:\n        /* \"Practica1/TokenERC20_1.sol\":9442:9461  uint256 balanceFrom */\n      0x00\n        /* \"Practica1/TokenERC20_1.sol\":9464:9479  balanceOf(from) */\n      tag_147\n        /* \"Practica1/TokenERC20_1.sol\":9474:9478  from */\n      dup6\n        /* \"Practica1/TokenERC20_1.sol\":9464:9473  balanceOf */\n      tag_83\n        /* \"Practica1/TokenERC20_1.sol\":9464:9479  balanceOf(from) */\n      jump\t// in\n    tag_147:\n        /* \"Practica1/TokenERC20_1.sol\":9442:9479  uint256 balanceFrom = balanceOf(from) */\n      swap1\n      pop\n        /* \"Practica1/TokenERC20_1.sol\":9513:9519  amount */\n      dup3\n        /* \"Practica1/TokenERC20_1.sol\":9498:9509  balanceFrom */\n      dup2\n        /* \"Practica1/TokenERC20_1.sol\":9498:9519  balanceFrom >= amount */\n      lt\n      iszero\n        /* \"Practica1/TokenERC20_1.sol\":9490:9544  require(balanceFrom >= amount, \"Insuficientes tokens\") */\n      tag_148\n      jumpi\n      mload(0x40)\n      0x08c379a000000000000000000000000000000000000000000000000000000000\n      dup2\n      mstore\n      0x04\n      add\n      tag_149\n      swap1\n      tag_150\n      jump\t// in\n    tag_149:\n      mload(0x40)\n      dup1\n      swap2\n      sub\n      swap1\n      revert\n    tag_148:\n        /* \"Practica1/TokenERC20_1.sol\":9576:9582  amount */\n      dup3\n        /* \"Practica1/TokenERC20_1.sol\":9557:9566  _balances */\n      0x02\n        /* \"Practica1/TokenERC20_1.sol\":9557:9572  _balances[from] */\n      0x00\n        /* \"Practica1/TokenERC20_1.sol\":9567:9571  from */\n      dup8\n        /* \"Practica1/TokenERC20_1.sol\":9557:9572  _balances[from] */\n      0xffffffffffffffffffffffffffffffffffffffff\n      and\n      0xffffffffffffffffffffffffffffffffffffffff\n      and\n      dup2\n      mstore\n      0x20\n      add\n      swap1\n      dup2\n      mstore\n      0x20\n      add\n      0x00\n      keccak256\n      0x00\n        /* \"Practica1/TokenERC20_1.sol\":9557:9582  _balances[from] -= amount */\n      dup3\n      dup3\n      sload\n      tag_151\n      swap2\n      swap1\n      tag_146\n      jump\t// in\n    tag_151:\n      swap3\n      pop\n      pop\n      dup2\n      swap1\n      sstore\n      pop\n        /* \"Practica1/TokenERC20_1.sol\":9610:9616  amount */\n      dup3\n        /* \"Practica1/TokenERC20_1.sol\":9593:9602  _balances */\n      0x02\n        /* \"Practica1/TokenERC20_1.sol\":9593:9606  _balances[to] */\n      0x00\n        /* \"Practica1/TokenERC20_1.sol\":9603:9605  to */\n      dup7\n        /* \"Practica1/TokenERC20_1.sol\":9593:9606  _balances[to] */\n      0xffffffffffffffffffffffffffffffffffffffff\n      and\n      0xffffffffffffffffffffffffffffffffffffffff\n      and\n      dup2\n      mstore\n      0x20\n      add\n      swap1\n      dup2\n      mstore\n      0x20\n      add\n      0x00\n      keccak256\n      0x00\n        /* \"Practica1/TokenERC20_1.sol\":9593:9616  _balances[to] += amount */\n      dup3\n      dup3\n      sload\n      tag_152\n      swap2\n      swap1\n      tag_153\n      jump\t// in\n    tag_152:\n      swap3\n      pop\n      pop\n      dup2\n      swap1\n      sstore\n      pop\n        /* \"Practica1/TokenERC20_1.sol\":9649:9651  to */\n      dup4\n        /* \"Practica1/TokenERC20_1.sol\":9634:9660  Transfer(from, to, amount) */\n      0xffffffffffffffffffffffffffffffffffffffff\n      and\n        /* \"Practica1/TokenERC20_1.sol\":9643:9647  from */\n      dup6\n        /* \"Practica1/TokenERC20_1.sol\":9634:9660  Transfer(from, to, amount) */\n      0xffffffffffffffffffffffffffffffffffffffff\n      and\n      0xddf252ad1be2c89b69c2b068fc378daa952ba7f163c4a11628f55a4df523b3ef\n        /* \"Practica1/TokenERC20_1.sol\":9653:9659  amount */\n      dup6\n        /* \"Practica1/TokenERC20_1.sol\":9634:9660  Transfer(from, to, amount) */\n      mload(0x40)\n      tag_154\n      swap2\n      swap1\n      tag_46\n      jump\t// in\n    tag_154:\n      mload(0x40)\n      dup1\n      swap2\n      sub\n      swap1\n      log3\n        /* \"Practica1/TokenERC20_1.sol\":9681:9685  true */\n      0x01\n        /* \"Practica1/TokenERC20_1.sol\":9674:9685  return true */\n      swap2\n      pop\n      pop\n        /* \"Practica1/TokenERC20_1.sol\":8878:9693  function transferFrom(... */\n      swap4\n      swap3\n      pop\n      pop\n      pop\n      jump\t// out\n        /* \"@openzeppelin/contracts/access/AccessControl.sol\":4391:4520  function getRoleAdmin(bytes32 role) public view virtual override returns (bytes32) {... */\n    tag_55:\n        /* \"@openzeppelin/contracts/access/AccessControl.sol\":4465:4472  bytes32 */\n      0x00\n        /* \"@openzeppelin/contracts/access/AccessControl.sol\":4491:4497  _roles */\n      dup1\n        /* \"@openzeppelin/contracts/access/AccessControl.sol\":4491:4503  _roles[role] */\n      0x00\n        /* \"@openzeppelin/contracts/access/AccessControl.sol\":4498:4502  role */\n      dup4\n        /* \"@openzeppelin/contracts/access/AccessControl.sol\":4491:4503  _roles[role] */\n      dup2\n      mstore\n      0x20\n      add\n      swap1\n      dup2\n      mstore\n      0x20\n      add\n      0x00\n      keccak256\n        /* \"@openzeppelin/contracts/access/AccessControl.sol\":4491:4513  _roles[role].adminRole */\n      0x01\n      add\n      sload\n        /* \"@openzeppelin/contracts/access/AccessControl.sol\":4484:4513  return _roles[role].adminRole */\n      swap1\n      pop\n        /* \"@openzeppelin/contracts/access/AccessControl.sol\":4391:4520  function getRoleAdmin(bytes32 role) public view virtual override returns (bytes32) {... */\n      swap2\n      swap1\n      pop\n      jump\t// out\n        /* \"@openzeppelin/contracts/access/AccessControl.sol\":4816:4961  function grantRole(bytes32 role, address account) public virtual override onlyRole(getRoleAdmin(role)) {... */\n    tag_61:\n        /* \"@openzeppelin/contracts/access/AccessControl.sol\":4899:4917  getRoleAdmin(role) */\n      tag_156\n        /* \"@openzeppelin/contracts/access/AccessControl.sol\":4912:4916  role */\n      dup3\n        /* \"@openzeppelin/contracts/access/AccessControl.sol\":4899:4911  getRoleAdmin */\n      tag_55\n        /* \"@openzeppelin/contracts/access/AccessControl.sol\":4899:4917  getRoleAdmin(role) */\n      jump\t// in\n    tag_156:\n        /* \"@openzeppelin/contracts/access/AccessControl.sol\":2505:2521  _checkRole(role) */\n      tag_158\n        /* \"@openzeppelin/contracts/access/AccessControl.sol\":2516:2520  role */\n      dup2\n        /* \"@openzeppelin/contracts/access/AccessControl.sol\":2505:2515  _checkRole */\n      tag_159\n        /* \"@openzeppelin/contracts/access/AccessControl.sol\":2505:2521  _checkRole(role) */\n      jump\t// in\n    tag_158:\n        /* \"@openzeppelin/contracts/access/AccessControl.sol\":4929:4954  _grantRole(role, account) */\n      tag_161\n        /* \"@openzeppelin/contracts/access/AccessControl.sol\":4940:4944  role */\n      dup4\n        /* \"@openzeppelin/contracts/access/AccessControl.sol\":4946:4953  account */\n      dup4\n        /* \"@openzeppelin/contracts/access/AccessControl.sol\":4929:4939  _grantRole */\n      tag_162\n        /* \"@openzeppelin/contracts/access/AccessControl.sol\":4929:4954  _grantRole(role, account) */\n      jump\t// in\n    tag_161:\n        /* \"@openzeppelin/contracts/access/AccessControl.sol\":4816:4961  function grantRole(bytes32 role, address account) public virtual override onlyRole(getRoleAdmin(role)) {... */\n      pop\n      pop\n      pop\n      jump\t// out\n        /* \"Practica1/TokenERC20_1.sol\":7562:7645  function decimals() public view returns (uint8){... */\n    tag_63:\n        /* \"Practica1/TokenERC20_1.sol\":7603:7608  uint8 */\n      0x00\n        /* \"Practica1/TokenERC20_1.sol\":7627:7637  mydecimals */\n      0x06\n      0x00\n      swap1\n      sload\n      swap1\n      0x0100\n      exp\n      swap1\n      div\n      0xff\n      and\n        /* \"Practica1/TokenERC20_1.sol\":7620:7637  return mydecimals */\n      swap1\n      pop\n        /* \"Practica1/TokenERC20_1.sol\":7562:7645  function decimals() public view returns (uint8){... */\n      swap1\n      jump\t// out\n        /* \"@openzeppelin/contracts/access/AccessControl.sol\":5925:6139  function renounceRole(bytes32 role, address account) public virtual override {... */\n    tag_68:\n        /* \"@openzeppelin/contracts/access/AccessControl.sol\":6031:6043  _msgSender() */\n      tag_165\n        /* \"@openzeppelin/contracts/access/AccessControl.sol\":6031:6041  _msgSender */\n      tag_166\n        /* \"@openzeppelin/contracts/access/AccessControl.sol\":6031:6043  _msgSender() */\n      jump\t// in\n    tag_165:\n        /* \"@openzeppelin/contracts/access/AccessControl.sol\":6020:6043  account == _msgSender() */\n      0xffffffffffffffffffffffffffffffffffffffff\n      and\n        /* \"@openzeppelin/contracts/access/AccessControl.sol\":6020:6027  account */\n      dup2\n        /* \"@openzeppelin/contracts/access/AccessControl.sol\":6020:6043  account == _msgSender() */\n      0xffffffffffffffffffffffffffffffffffffffff\n      and\n      eq\n        /* \"@openzeppelin/contracts/access/AccessControl.sol\":6012:6095  require(account == _msgSender(), \"AccessControl: can only renounce roles for self\") */\n      tag_167\n      jumpi\n      mload(0x40)\n      0x08c379a000000000000000000000000000000000000000000000000000000000\n      dup2\n      mstore\n      0x04\n      add\n      tag_168\n      swap1\n      tag_169\n      jump\t// in\n    tag_168:\n      mload(0x40)\n      dup1\n      swap2\n      sub\n      swap1\n      revert\n    tag_167:\n        /* \"@openzeppelin/contracts/access/AccessControl.sol\":6106:6132  _revokeRole(role, account) */\n      tag_170\n        /* \"@openzeppelin/contracts/access/AccessControl.sol\":6118:6122  role */\n      dup3\n        /* \"@openzeppelin/contracts/access/AccessControl.sol\":6124:6131  account */\n      dup3\n        /* \"@openzeppelin/contracts/access/AccessControl.sol\":6106:6117  _revokeRole */\n      tag_171\n        /* \"@openzeppelin/contracts/access/AccessControl.sol\":6106:6132  _revokeRole(role, account) */\n      jump\t// in\n    tag_170:\n        /* \"@openzeppelin/contracts/access/AccessControl.sol\":5925:6139  function renounceRole(bytes32 role, address account) public virtual override {... */\n      pop\n      pop\n      jump\t// out\n        /* \"Practica1/TokenERC20_1.sol\":11163:11459  function increaseAllowance(address spender, uint256 addedValue) public returns (bool){... */\n    tag_71:\n        /* \"Practica1/TokenERC20_1.sol\":11243:11247  bool */\n      0x00\n        /* \"Practica1/TokenERC20_1.sol\":11286:11287  0 */\n      dup1\n        /* \"Practica1/TokenERC20_1.sol\":11267:11288  spender != address(0) */\n      0xffffffffffffffffffffffffffffffffffffffff\n      and\n        /* \"Practica1/TokenERC20_1.sol\":11267:11274  spender */\n      dup4\n        /* \"Practica1/TokenERC20_1.sol\":11267:11288  spender != address(0) */\n      0xffffffffffffffffffffffffffffffffffffffff\n      and\n      sub\n        /* \"Practica1/TokenERC20_1.sol\":11259:11317  require(spender != address(0),\"Spender es direccion zero\") */\n      tag_173\n      jumpi\n      mload(0x40)\n      0x08c379a000000000000000000000000000000000000000000000000000000000\n      dup2\n      mstore\n      0x04\n      add\n      tag_174\n      swap1\n      tag_131\n      jump\t// in\n    tag_174:\n      mload(0x40)\n      dup1\n      swap2\n      sub\n      swap1\n      revert\n    tag_173:\n        /* \"Practica1/TokenERC20_1.sol\":11362:11372  addedValue */\n      dup2\n        /* \"Practica1/TokenERC20_1.sol\":11328:11337  _permisos */\n      0x03\n        /* \"Practica1/TokenERC20_1.sol\":11328:11349  _permisos[msg.sender] */\n      0x00\n        /* \"Practica1/TokenERC20_1.sol\":11338:11348  msg.sender */\n      caller\n        /* \"Practica1/TokenERC20_1.sol\":11328:11349  _permisos[msg.sender] */\n      0xffffffffffffffffffffffffffffffffffffffff\n      and\n      0xffffffffffffffffffffffffffffffffffffffff\n      and\n      dup2\n      mstore\n      0x20\n      add\n      swap1\n      dup2\n      mstore\n      0x20\n      add\n      0x00\n      keccak256\n        /* \"Practica1/TokenERC20_1.sol\":11328:11358  _permisos[msg.sender][spender] */\n      0x00\n        /* \"Practica1/TokenERC20_1.sol\":11350:11357  spender */\n      dup6\n        /* \"Practica1/TokenERC20_1.sol\":11328:11358  _permisos[msg.sender][spender] */\n      0xffffffffffffffffffffffffffffffffffffffff\n      and\n      0xffffffffffffffffffffffffffffffffffffffff\n      and\n      dup2\n      mstore\n      0x20\n      add\n      swap1\n      dup2\n      mstore\n      0x20\n      add\n      0x00\n      keccak256\n      0x00\n        /* \"Practica1/TokenERC20_1.sol\":11328:11372  _permisos[msg.sender][spender] += addedValue */\n      dup3\n      dup3\n      sload\n      tag_175\n      swap2\n      swap1\n      tag_153\n      jump\t// in\n    tag_175:\n      swap3\n      pop\n      pop\n      dup2\n      swap1\n      sstore\n      pop\n        /* \"Practica1/TokenERC20_1.sol\":11409:11416  spender */\n      dup3\n        /* \"Practica1/TokenERC20_1.sol\":11388:11429  Approval(msg.sender, spender, addedValue) */\n      0xffffffffffffffffffffffffffffffffffffffff\n      and\n        /* \"Practica1/TokenERC20_1.sol\":11397:11407  msg.sender */\n      caller\n        /* \"Practica1/TokenERC20_1.sol\":11388:11429  Approval(msg.sender, spender, addedValue) */\n      0xffffffffffffffffffffffffffffffffffffffff\n      and\n      0x8c5be1e5ebec7d5bd14f71427d1e84f3dd0314c0f7b2291e5b200ac8c7c3b925\n        /* \"Practica1/TokenERC20_1.sol\":11418:11428  addedValue */\n      dup5\n        /* \"Practica1/TokenERC20_1.sol\":11388:11429  Approval(msg.sender, spender, addedValue) */\n      mload(0x40)\n      tag_176\n      swap2\n      swap1\n      tag_46\n      jump\t// in\n    tag_176:\n      mload(0x40)\n      dup1\n      swap2\n      sub\n      swap1\n      log3\n        /* \"Practica1/TokenERC20_1.sol\":11447:11451  true */\n      0x01\n        /* \"Practica1/TokenERC20_1.sol\":11440:11451  return true */\n      swap1\n      pop\n        /* \"Practica1/TokenERC20_1.sol\":11163:11459  function increaseAllowance(address spender, uint256 addedValue) public returns (bool){... */\n      swap3\n      swap2\n      pop\n      pop\n      jump\t// out\n        /* \"Practica1/TokenERC20_1.sol\":9970:10312  function mint(address to, uint256 amount) public {... */\n    tag_75:\n        /* \"Practica1/TokenERC20_1.sol\":10052:10053  0 */\n      0x00\n        /* \"Practica1/TokenERC20_1.sol\":10038:10054  to != address(0) */\n      0xffffffffffffffffffffffffffffffffffffffff\n      and\n        /* \"Practica1/TokenERC20_1.sol\":10038:10040  to */\n      dup3\n        /* \"Practica1/TokenERC20_1.sol\":10038:10054  to != address(0) */\n      0xffffffffffffffffffffffffffffffffffffffff\n      and\n      sub\n        /* \"Practica1/TokenERC20_1.sol\":10030:10088  require(to != address(0), \"Mint a favor del address zero\") */\n      tag_178\n      jumpi\n      mload(0x40)\n      0x08c379a000000000000000000000000000000000000000000000000000000000\n      dup2\n      mstore\n      0x04\n      add\n      tag_179\n      swap1\n      tag_180\n      jump\t// in\n    tag_179:\n      mload(0x40)\n      dup1\n      swap2\n      sub\n      swap1\n      revert\n    tag_178:\n        /* \"Practica1/TokenERC20_1.sol\":10118:10124  amount */\n      dup1\n        /* \"Practica1/TokenERC20_1.sol\":10101:10110  _balances */\n      0x02\n        /* \"Practica1/TokenERC20_1.sol\":10101:10114  _balances[to] */\n      0x00\n        /* \"Practica1/TokenERC20_1.sol\":10111:10113  to */\n      dup5\n        /* \"Practica1/TokenERC20_1.sol\":10101:10114  _balances[to] */\n      0xffffffffffffffffffffffffffffffffffffffff\n      and\n      0xffffffffffffffffffffffffffffffffffffffff\n      and\n      dup2\n      mstore\n      0x20\n      add\n      swap1\n      dup2\n      mstore\n      0x20\n      add\n      0x00\n      keccak256\n      0x00\n        /* \"Practica1/TokenERC20_1.sol\":10101:10124  _balances[to] += amount */\n      dup3\n      dup3\n      sload\n      tag_181\n      swap2\n      swap1\n      tag_153\n      jump\t// in\n    tag_181:\n      swap3\n      pop\n      pop\n      dup2\n      swap1\n      sstore\n      pop\n        /* \"Practica1/TokenERC20_1.sol\":10155:10161  amount */\n      dup1\n        /* \"Practica1/TokenERC20_1.sol\":10135:10151  TokenTotalSupply */\n      0x07\n      0x00\n        /* \"Practica1/TokenERC20_1.sol\":10135:10161  TokenTotalSupply += amount */\n      dup3\n      dup3\n      sload\n      tag_182\n      swap2\n      swap1\n      tag_153\n      jump\t// in\n    tag_182:\n      swap3\n      pop\n      pop\n      dup2\n      swap1\n      sstore\n      pop\n        /* \"Practica1/TokenERC20_1.sol\":10200:10216  MAX_TOTAL_SUPPLY */\n      sload(0x08)\n        /* \"Practica1/TokenERC20_1.sol\":10180:10196  TokenTotalSupply */\n      sload(0x07)\n        /* \"Practica1/TokenERC20_1.sol\":10180:10216  TokenTotalSupply <= MAX_TOTAL_SUPPLY */\n      gt\n      iszero\n        /* \"Practica1/TokenERC20_1.sol\":10172:10247  require(TokenTotalSupply <= MAX_TOTAL_SUPPLY, \"Supera el MAX TOTAL SUPPLY\") */\n      tag_183\n      jumpi\n      mload(0x40)\n      0x08c379a000000000000000000000000000000000000000000000000000000000\n      dup2\n      mstore\n      0x04\n      add\n      tag_184\n      swap1\n      tag_185\n      jump\t// in\n    tag_184:\n      mload(0x40)\n      dup1\n      swap2\n      sub\n      swap1\n      revert\n    tag_183:\n        /* \"Practica1/TokenERC20_1.sol\":10286:10288  to */\n      dup2\n        /* \"Practica1/TokenERC20_1.sol\":10265:10297  Transfer(address(0), to, amount) */\n      0xffffffffffffffffffffffffffffffffffffffff\n      and\n        /* \"Practica1/TokenERC20_1.sol\":10282:10283  0 */\n      0x00\n        /* \"Practica1/TokenERC20_1.sol\":10265:10297  Transfer(address(0), to, amount) */\n      0xffffffffffffffffffffffffffffffffffffffff\n      and\n      0xddf252ad1be2c89b69c2b068fc378daa952ba7f163c4a11628f55a4df523b3ef\n        /* \"Practica1/TokenERC20_1.sol\":10290:10296  amount */\n      dup4\n        /* \"Practica1/TokenERC20_1.sol\":10265:10297  Transfer(address(0), to, amount) */\n      mload(0x40)\n      tag_186\n      swap2\n      swap1\n      tag_46\n      jump\t// in\n    tag_186:\n      mload(0x40)\n      dup1\n      swap2\n      sub\n      swap1\n      log3\n        /* \"Practica1/TokenERC20_1.sol\":9970:10312  function mint(address to, uint256 amount) public {... */\n      pop\n      pop\n      jump\t// out\n        /* \"Practica1/TokenERC20_1.sol\":10336:10748  function burn(uint256 amount) public {... */\n    tag_79:\n        /* \"Practica1/TokenERC20_1.sol\":10384:10400  address _account */\n      0x00\n        /* \"Practica1/TokenERC20_1.sol\":10401:10411  msg.sender */\n      caller\n        /* \"Practica1/TokenERC20_1.sol\":10384:10411  address _account=msg.sender */\n      swap1\n      pop\n        /* \"Practica1/TokenERC20_1.sol\":10450:10451  0 */\n      0x00\n        /* \"Practica1/TokenERC20_1.sol\":10430:10452  _account != address(0) */\n      0xffffffffffffffffffffffffffffffffffffffff\n      and\n        /* \"Practica1/TokenERC20_1.sol\":10430:10438  _account */\n      dup2\n        /* \"Practica1/TokenERC20_1.sol\":10430:10452  _account != address(0) */\n      0xffffffffffffffffffffffffffffffffffffffff\n      and\n      sub\n        /* \"Practica1/TokenERC20_1.sol\":10422:10478  require(_account != address(0), \"Quemando de address 0\") */\n      tag_188\n      jumpi\n      mload(0x40)\n      0x08c379a000000000000000000000000000000000000000000000000000000000\n      dup2\n      mstore\n      0x04\n      add\n      tag_189\n      swap1\n      tag_190\n      jump\t// in\n    tag_189:\n      mload(0x40)\n      dup1\n      swap2\n      sub\n      swap1\n      revert\n    tag_188:\n        /* \"Practica1/TokenERC20_1.sol\":10491:10508  uint256 miBalance */\n      0x00\n        /* \"Practica1/TokenERC20_1.sol\":10511:10530  balanceOf(_account) */\n      tag_191\n        /* \"Practica1/TokenERC20_1.sol\":10521:10529  _account */\n      dup3\n        /* \"Practica1/TokenERC20_1.sol\":10511:10520  balanceOf */\n      tag_83\n        /* \"Practica1/TokenERC20_1.sol\":10511:10530  balanceOf(_account) */\n      jump\t// in\n    tag_191:\n        /* \"Practica1/TokenERC20_1.sol\":10491:10530  uint256 miBalance = balanceOf(_account) */\n      swap1\n      pop\n        /* \"Practica1/TokenERC20_1.sol\":10562:10568  amount */\n      dup3\n        /* \"Practica1/TokenERC20_1.sol\":10549:10558  miBalance */\n      dup2\n        /* \"Practica1/TokenERC20_1.sol\":10549:10568  miBalance >= amount */\n      lt\n      iszero\n        /* \"Practica1/TokenERC20_1.sol\":10541:10605  require(miBalance >= amount, \"Insuficientes tokens para quemar\") */\n      tag_192\n      jumpi\n      mload(0x40)\n      0x08c379a000000000000000000000000000000000000000000000000000000000\n      dup2\n      mstore\n      0x04\n      add\n      tag_193\n      swap1\n      tag_194\n      jump\t// in\n    tag_193:\n      mload(0x40)\n      dup1\n      swap2\n      sub\n      swap1\n      revert\n    tag_192:\n        /* \"Practica1/TokenERC20_1.sol\":10641:10647  amount */\n      dup3\n        /* \"Practica1/TokenERC20_1.sol\":10618:10627  _balances */\n      0x02\n        /* \"Practica1/TokenERC20_1.sol\":10618:10637  _balances[_account] */\n      0x00\n        /* \"Practica1/TokenERC20_1.sol\":10628:10636  _account */\n      dup5\n        /* \"Practica1/TokenERC20_1.sol\":10618:10637  _balances[_account] */\n      0xffffffffffffffffffffffffffffffffffffffff\n      and\n      0xffffffffffffffffffffffffffffffffffffffff\n      and\n      dup2\n      mstore\n      0x20\n      add\n      swap1\n      dup2\n      mstore\n      0x20\n      add\n      0x00\n      keccak256\n      0x00\n        /* \"Practica1/TokenERC20_1.sol\":10618:10647  _balances[_account] -= amount */\n      dup3\n      dup3\n      sload\n      tag_195\n      swap2\n      swap1\n      tag_146\n      jump\t// in\n    tag_195:\n      swap3\n      pop\n      pop\n      dup2\n      swap1\n      sstore\n      pop\n        /* \"Practica1/TokenERC20_1.sol\":10678:10684  amount */\n      dup3\n        /* \"Practica1/TokenERC20_1.sol\":10658:10674  TokenTotalSupply */\n      0x07\n      0x00\n        /* \"Practica1/TokenERC20_1.sol\":10658:10684  TokenTotalSupply -= amount */\n      dup3\n      dup3\n      sload\n      tag_196\n      swap2\n      swap1\n      tag_146\n      jump\t// in\n    tag_196:\n      swap3\n      pop\n      pop\n      dup2\n      swap1\n      sstore\n      pop\n        /* \"Practica1/TokenERC20_1.sol\":10729:10730  0 */\n      0x00\n        /* \"Practica1/TokenERC20_1.sol\":10702:10740  Transfer(_account, address(0), amount) */\n      0xffffffffffffffffffffffffffffffffffffffff\n      and\n        /* \"Practica1/TokenERC20_1.sol\":10711:10719  _account */\n      dup3\n        /* \"Practica1/TokenERC20_1.sol\":10702:10740  Transfer(_account, address(0), amount) */\n      0xffffffffffffffffffffffffffffffffffffffff\n      and\n      0xddf252ad1be2c89b69c2b068fc378daa952ba7f163c4a11628f55a4df523b3ef\n        /* \"Practica1/TokenERC20_1.sol\":10733:10739  amount */\n      dup6\n        /* \"Practica1/TokenERC20_1.sol\":10702:10740  Transfer(_account, address(0), amount) */\n      mload(0x40)\n      tag_197\n      swap2\n      swap1\n      tag_46\n      jump\t// in\n    tag_197:\n      mload(0x40)\n      dup1\n      swap2\n      sub\n      swap1\n      log3\n        /* \"Practica1/TokenERC20_1.sol\":10373:10748  {... */\n      pop\n      pop\n        /* \"Practica1/TokenERC20_1.sol\":10336:10748  function burn(uint256 amount) public {... */\n      pop\n      jump\t// out\n        /* \"Practica1/TokenERC20_1.sol\":8167:8277  function balanceOf(address account) public view returns (uint256) {... */\n    tag_83:\n        /* \"Practica1/TokenERC20_1.sol\":8224:8231  uint256 */\n      0x00\n        /* \"Practica1/TokenERC20_1.sol\":8251:8260  _balances */\n      0x02\n        /* \"Practica1/TokenERC20_1.sol\":8251:8269  _balances[account] */\n      0x00\n        /* \"Practica1/TokenERC20_1.sol\":8261:8268  account */\n      dup4\n        /* \"Practica1/TokenERC20_1.sol\":8251:8269  _balances[account] */\n      0xffffffffffffffffffffffffffffffffffffffff\n      and\n      0xffffffffffffffffffffffffffffffffffffffff\n      and\n      dup2\n      mstore\n      0x20\n      add\n      swap1\n      dup2\n      mstore\n      0x20\n      add\n      0x00\n      keccak256\n      sload\n        /* \"Practica1/TokenERC20_1.sol\":8244:8269  return _balances[account] */\n      swap1\n      pop\n        /* \"Practica1/TokenERC20_1.sol\":8167:8277  function balanceOf(address account) public view returns (uint256) {... */\n      swap2\n      swap1\n      pop\n      jump\t// out\n        /* \"@openzeppelin/contracts/access/AccessControl.sol\":2895:3040  function hasRole(bytes32 role, address account) public view virtual override returns (bool) {... */\n    tag_87:\n        /* \"@openzeppelin/contracts/access/AccessControl.sol\":2981:2985  bool */\n      0x00\n        /* \"@openzeppelin/contracts/access/AccessControl.sol\":3004:3010  _roles */\n      dup1\n        /* \"@openzeppelin/contracts/access/AccessControl.sol\":3004:3016  _roles[role] */\n      0x00\n        /* \"@openzeppelin/contracts/access/AccessControl.sol\":3011:3015  role */\n      dup5\n        /* \"@openzeppelin/contracts/access/AccessControl.sol\":3004:3016  _roles[role] */\n      dup2\n      mstore\n      0x20\n      add\n      swap1\n      dup2\n      mstore\n      0x20\n      add\n      0x00\n      keccak256\n        /* \"@openzeppelin/contracts/access/AccessControl.sol\":3004:3024  _roles[role].members */\n      0x00\n      add\n        /* \"@openzeppelin/contracts/access/AccessControl.sol\":3004:3033  _roles[role].members[account] */\n      0x00\n        /* \"@openzeppelin/contracts/access/AccessControl.sol\":3025:3032  account */\n      dup4\n        /* \"@openzeppelin/contracts/access/AccessControl.sol\":3004:3033  _roles[role].members[account] */\n      0xffffffffffffffffffffffffffffffffffffffff\n      and\n      0xffffffffffffffffffffffffffffffffffffffff\n      and\n      dup2\n      mstore\n      0x20\n      add\n      swap1\n      dup2\n      mstore\n      0x20\n      add\n      0x00\n      keccak256\n      0x00\n      swap1\n      sload\n      swap1\n      0x0100\n      exp\n      swap1\n      div\n      0xff\n      and\n        /* \"@openzeppelin/contracts/access/AccessControl.sol\":2997:3033  return _roles[role].members[account] */\n      swap1\n      pop\n        /* \"@openzeppelin/contracts/access/AccessControl.sol\":2895:3040  function hasRole(bytes32 role, address account) public view virtual override returns (bool) {... */\n      swap3\n      swap2\n      pop\n      pop\n      jump\t// out\n        /* \"Practica1/TokenERC20_1.sol\":7450:7537  function symbol() public view returns (string memory){... */\n    tag_90:\n        /* \"Practica1/TokenERC20_1.sol\":7489:7502  string memory */\n      0x60\n        /* \"Practica1/TokenERC20_1.sol\":7521:7529  mysymbol */\n      0x05\n        /* \"Practica1/TokenERC20_1.sol\":7514:7529  return mysymbol */\n      dup1\n      sload\n      tag_201\n      swap1\n      tag_123\n      jump\t// in\n    tag_201:\n      dup1\n      0x1f\n      add\n      0x20\n      dup1\n      swap2\n      div\n      mul\n      0x20\n      add\n      mload(0x40)\n      swap1\n      dup2\n      add\n      0x40\n      mstore\n      dup1\n      swap3\n      swap2\n      swap1\n      dup2\n      dup2\n      mstore\n      0x20\n      add\n      dup3\n      dup1\n      sload\n      tag_202\n      swap1\n      tag_123\n      jump\t// in\n    tag_202:\n      dup1\n      iszero\n      tag_203\n      jumpi\n      dup1\n      0x1f\n      lt\n      tag_204\n      jumpi\n      0x0100\n      dup1\n      dup4\n      sload\n      div\n      mul\n      dup4\n      mstore\n      swap2\n      0x20\n      add\n      swap2\n      jump(tag_203)\n    tag_204:\n      dup3\n      add\n      swap2\n      swap1\n      0x00\n      mstore\n      keccak256(0x00, 0x20)\n      swap1\n    tag_205:\n      dup2\n      sload\n      dup2\n      mstore\n      swap1\n      0x01\n      add\n      swap1\n      0x20\n      add\n      dup1\n      dup4\n      gt\n      tag_205\n      jumpi\n      dup3\n      swap1\n      sub\n      0x1f\n      and\n      dup3\n      add\n      swap2\n    tag_203:\n      pop\n      pop\n      pop\n      pop\n      pop\n      swap1\n      pop\n        /* \"Practica1/TokenERC20_1.sol\":7450:7537  function symbol() public view returns (string memory){... */\n      swap1\n      jump\t// out\n        /* \"Practica1/TokenERC20_1.sol\":12688:12802  function mintProtected(address to, uint256 amount) public onlyRole(MINTER_ROLE) {... */\n    tag_94:\n        /* \"Practica1/TokenERC20_1.sol\":6451:6475  keccak256(\"MINTER_ROLE\") */\n      0x9f2df0fed2c77648de5860a4cc508cd0818c85b8b8a1ab4ceeef8d981c8956a6\n        /* \"@openzeppelin/contracts/access/AccessControl.sol\":2505:2521  _checkRole(role) */\n      tag_207\n        /* \"@openzeppelin/contracts/access/AccessControl.sol\":2516:2520  role */\n      dup2\n        /* \"@openzeppelin/contracts/access/AccessControl.sol\":2505:2515  _checkRole */\n      tag_159\n        /* \"@openzeppelin/contracts/access/AccessControl.sol\":2505:2521  _checkRole(role) */\n      jump\t// in\n    tag_207:\n        /* \"Practica1/TokenERC20_1.sol\":12779:12794  mint(to,amount) */\n      tag_209\n        /* \"Practica1/TokenERC20_1.sol\":12784:12786  to */\n      dup4\n        /* \"Practica1/TokenERC20_1.sol\":12787:12793  amount */\n      dup4\n        /* \"Practica1/TokenERC20_1.sol\":12779:12783  mint */\n      tag_75\n        /* \"Practica1/TokenERC20_1.sol\":12779:12794  mint(to,amount) */\n      jump\t// in\n    tag_209:\n        /* \"Practica1/TokenERC20_1.sol\":12688:12802  function mintProtected(address to, uint256 amount) public onlyRole(MINTER_ROLE) {... */\n      pop\n      pop\n      pop\n      jump\t// out\n        /* \"@openzeppelin/contracts/access/AccessControl.sol\":2027:2076  bytes32 public constant DEFAULT_ADMIN_ROLE = 0x00 */\n    tag_96:\n        /* \"@openzeppelin/contracts/access/AccessControl.sol\":2072:2076  0x00 */\n      0x00\n        /* \"@openzeppelin/contracts/access/AccessControl.sol\":2027:2076  bytes32 public constant DEFAULT_ADMIN_ROLE = 0x00 */\n      dup1\n      shl\n      dup2\n      jump\t// out\n        /* \"Practica1/TokenERC20_1.sol\":11799:12175  function decreaseAllowance(address spender, uint256 subtractedValue) public returns (bool){... */\n    tag_100:\n        /* \"Practica1/TokenERC20_1.sol\":11884:11888  bool */\n      0x00\n        /* \"Practica1/TokenERC20_1.sol\":11927:11928  0 */\n      dup1\n        /* \"Practica1/TokenERC20_1.sol\":11908:11929  spender != address(0) */\n      0xffffffffffffffffffffffffffffffffffffffff\n      and\n        /* \"Practica1/TokenERC20_1.sol\":11908:11915  spender */\n      dup4\n        /* \"Practica1/TokenERC20_1.sol\":11908:11929  spender != address(0) */\n      0xffffffffffffffffffffffffffffffffffffffff\n      and\n      sub\n        /* \"Practica1/TokenERC20_1.sol\":11900:11958  require(spender != address(0),\"Spender es direccion zero\") */\n      tag_211\n      jumpi\n      mload(0x40)\n      0x08c379a000000000000000000000000000000000000000000000000000000000\n      dup2\n      mstore\n      0x04\n      add\n      tag_212\n      swap1\n      tag_131\n      jump\t// in\n    tag_212:\n      mload(0x40)\n      dup1\n      swap2\n      sub\n      swap1\n      revert\n    tag_211:\n        /* \"Practica1/TokenERC20_1.sol\":12068:12083  subtractedValue */\n      dup2\n        /* \"Practica1/TokenERC20_1.sol\":12034:12043  _permisos */\n      0x03\n        /* \"Practica1/TokenERC20_1.sol\":12034:12055  _permisos[msg.sender] */\n      0x00\n        /* \"Practica1/TokenERC20_1.sol\":12044:12054  msg.sender */\n      caller\n        /* \"Practica1/TokenERC20_1.sol\":12034:12055  _permisos[msg.sender] */\n      0xffffffffffffffffffffffffffffffffffffffff\n      and\n      0xffffffffffffffffffffffffffffffffffffffff\n      and\n      dup2\n      mstore\n      0x20\n      add\n      swap1\n      dup2\n      mstore\n      0x20\n      add\n      0x00\n      keccak256\n        /* \"Practica1/TokenERC20_1.sol\":12034:12064  _permisos[msg.sender][spender] */\n      0x00\n        /* \"Practica1/TokenERC20_1.sol\":12056:12063  spender */\n      dup6\n        /* \"Practica1/TokenERC20_1.sol\":12034:12064  _permisos[msg.sender][spender] */\n      0xffffffffffffffffffffffffffffffffffffffff\n      and\n      0xffffffffffffffffffffffffffffffffffffffff\n      and\n      dup2\n      mstore\n      0x20\n      add\n      swap1\n      dup2\n      mstore\n      0x20\n      add\n      0x00\n      keccak256\n      0x00\n        /* \"Practica1/TokenERC20_1.sol\":12034:12083  _permisos[msg.sender][spender] -= subtractedValue */\n      dup3\n      dup3\n      sload\n      tag_213\n      swap2\n      swap1\n      tag_146\n      jump\t// in\n    tag_213:\n      swap3\n      pop\n      pop\n      dup2\n      swap1\n      sstore\n      pop\n        /* \"Practica1/TokenERC20_1.sol\":12120:12127  spender */\n      dup3\n        /* \"Practica1/TokenERC20_1.sol\":12099:12145  Approval(msg.sender, spender, subtractedValue) */\n      0xffffffffffffffffffffffffffffffffffffffff\n      and\n        /* \"Practica1/TokenERC20_1.sol\":12108:12118  msg.sender */\n      caller\n        /* \"Practica1/TokenERC20_1.sol\":12099:12145  Approval(msg.sender, spender, subtractedValue) */\n      0xffffffffffffffffffffffffffffffffffffffff\n      and\n      0x8c5be1e5ebec7d5bd14f71427d1e84f3dd0314c0f7b2291e5b200ac8c7c3b925\n        /* \"Practica1/TokenERC20_1.sol\":12129:12144  subtractedValue */\n      dup5\n        /* \"Practica1/TokenERC20_1.sol\":12099:12145  Approval(msg.sender, spender, subtractedValue) */\n      mload(0x40)\n      tag_214\n      swap2\n      swap1\n      tag_46\n      jump\t// in\n    tag_214:\n      mload(0x40)\n      dup1\n      swap2\n      sub\n      swap1\n      log3\n        /* \"Practica1/TokenERC20_1.sol\":12163:12167  true */\n      0x01\n        /* \"Practica1/TokenERC20_1.sol\":12156:12167  return true */\n      swap1\n      pop\n        /* \"Practica1/TokenERC20_1.sol\":11799:12175  function decreaseAllowance(address spender, uint256 subtractedValue) public returns (bool){... */\n      swap3\n      swap2\n      pop\n      pop\n      jump\t// out\n        /* \"Practica1/TokenERC20_1.sol\":8302:8435  function transfer(address to, uint256 amount) public returns (bool) {     ... */\n    tag_104:\n        /* \"Practica1/TokenERC20_1.sol\":8364:8368  bool */\n      0x00\n        /* \"Practica1/TokenERC20_1.sol\":8393:8427  transferFrom(msg.sender,to,amount) */\n      tag_216\n        /* \"Practica1/TokenERC20_1.sol\":8406:8416  msg.sender */\n      caller\n        /* \"Practica1/TokenERC20_1.sol\":8417:8419  to */\n      dup5\n        /* \"Practica1/TokenERC20_1.sol\":8420:8426  amount */\n      dup5\n        /* \"Practica1/TokenERC20_1.sol\":8393:8405  transferFrom */\n      tag_50\n        /* \"Practica1/TokenERC20_1.sol\":8393:8427  transferFrom(msg.sender,to,amount) */\n      jump\t// in\n    tag_216:\n        /* \"Practica1/TokenERC20_1.sol\":8386:8427  return transferFrom(msg.sender,to,amount) */\n      swap1\n      pop\n        /* \"Practica1/TokenERC20_1.sol\":8302:8435  function transfer(address to, uint256 amount) public returns (bool) {     ... */\n      swap3\n      swap2\n      pop\n      pop\n      jump\t// out\n        /* \"Practica1/TokenERC20_1.sol\":6413:6475  bytes32 public constant MINTER_ROLE = keccak256(\"MINTER_ROLE\") */\n    tag_107:\n        /* \"Practica1/TokenERC20_1.sol\":6451:6475  keccak256(\"MINTER_ROLE\") */\n      0x9f2df0fed2c77648de5860a4cc508cd0818c85b8b8a1ab4ceeef8d981c8956a6\n        /* \"Practica1/TokenERC20_1.sol\":6413:6475  bytes32 public constant MINTER_ROLE = keccak256(\"MINTER_ROLE\") */\n      dup2\n      jump\t// out\n        /* \"@openzeppelin/contracts/access/AccessControl.sol\":5241:5388  function revokeRole(bytes32 role, address account) public virtual override onlyRole(getRoleAdmin(role)) {... */\n    tag_111:\n        /* \"@openzeppelin/contracts/access/AccessControl.sol\":5325:5343  getRoleAdmin(role) */\n      tag_217\n        /* \"@openzeppelin/contracts/access/AccessControl.sol\":5338:5342  role */\n      dup3\n        /* \"@openzeppelin/contracts/access/AccessControl.sol\":5325:5337  getRoleAdmin */\n      tag_55\n        /* \"@openzeppelin/contracts/access/AccessControl.sol\":5325:5343  getRoleAdmin(role) */\n      jump\t// in\n    tag_217:\n        /* \"@openzeppelin/contracts/access/AccessControl.sol\":2505:2521  _checkRole(role) */\n      tag_219\n        /* \"@openzeppelin/contracts/access/AccessControl.sol\":2516:2520  role */\n      dup2\n        /* \"@openzeppelin/contracts/access/AccessControl.sol\":2505:2515  _checkRole */\n      tag_159\n        /* \"@openzeppelin/contracts/access/AccessControl.sol\":2505:2521  _checkRole(role) */\n      jump\t// in\n    tag_219:\n        /* \"@openzeppelin/contracts/access/AccessControl.sol\":5355:5381  _revokeRole(role, account) */\n      tag_221\n        /* \"@openzeppelin/contracts/access/AccessControl.sol\":5367:5371  role */\n      dup4\n        /* \"@openzeppelin/contracts/access/AccessControl.sol\":5373:5380  account */\n      dup4\n        /* \"@openzeppelin/contracts/access/AccessControl.sol\":5355:5366  _revokeRole */\n      tag_171\n        /* \"@openzeppelin/contracts/access/AccessControl.sol\":5355:5381  _revokeRole(role, account) */\n      jump\t// in\n    tag_221:\n        /* \"@openzeppelin/contracts/access/AccessControl.sol\":5241:5388  function revokeRole(bytes32 role, address account) public virtual override onlyRole(getRoleAdmin(role)) {... */\n      pop\n      pop\n      pop\n      jump\t// out\n        /* \"Practica1/TokenERC20_1.sol\":8460:8624  function allowance(address owner, address spender)... */\n    tag_115:\n        /* \"Practica1/TokenERC20_1.sol\":8559:8566  uint256 */\n      0x00\n        /* \"Practica1/TokenERC20_1.sol\":8591:8600  _permisos */\n      0x03\n        /* \"Practica1/TokenERC20_1.sol\":8591:8607  _permisos[owner] */\n      0x00\n        /* \"Practica1/TokenERC20_1.sol\":8601:8606  owner */\n      dup5\n        /* \"Practica1/TokenERC20_1.sol\":8591:8607  _permisos[owner] */\n      0xffffffffffffffffffffffffffffffffffffffff\n      and\n      0xffffffffffffffffffffffffffffffffffffffff\n      and\n      dup2\n      mstore\n      0x20\n      add\n      swap1\n      dup2\n      mstore\n      0x20\n      add\n      0x00\n      keccak256\n        /* \"Practica1/TokenERC20_1.sol\":8591:8616  _permisos[owner][spender] */\n      0x00\n        /* \"Practica1/TokenERC20_1.sol\":8608:8615  spender */\n      dup4\n        /* \"Practica1/TokenERC20_1.sol\":8591:8616  _permisos[owner][spender] */\n      0xffffffffffffffffffffffffffffffffffffffff\n      and\n      0xffffffffffffffffffffffffffffffffffffffff\n      and\n      dup2\n      mstore\n      0x20\n      add\n      swap1\n      dup2\n      mstore\n      0x20\n      add\n      0x00\n      keccak256\n      sload\n        /* \"Practica1/TokenERC20_1.sol\":8584:8616  return _permisos[owner][spender] */\n      swap1\n      pop\n        /* \"Practica1/TokenERC20_1.sol\":8460:8624  function allowance(address owner, address spender)... */\n      swap3\n      swap2\n      pop\n      pop\n      jump\t// out\n        /* \"@openzeppelin/contracts/utils/introspection/ERC165.sol\":829:984  function supportsInterface(bytes4 interfaceId) public view virtual override returns (bool) {... */\n    tag_120:\n        /* \"@openzeppelin/contracts/utils/introspection/ERC165.sol\":914:918  bool */\n      0x00\n        /* \"@openzeppelin/contracts/utils/introspection/ERC165.sol\":952:977  type(IERC165).interfaceId */\n      0x01ffc9a700000000000000000000000000000000000000000000000000000000\n        /* \"@openzeppelin/contracts/utils/introspection/ERC165.sol\":937:977  interfaceId == type(IERC165).interfaceId */\n      not(0xffffffffffffffffffffffffffffffffffffffffffffffffffffffff)\n      and\n        /* \"@openzeppelin/contracts/utils/introspection/ERC165.sol\":937:948  interfaceId */\n      dup3\n        /* \"@openzeppelin/contracts/utils/introspection/ERC165.sol\":937:977  interfaceId == type(IERC165).interfaceId */\n      not(0xffffffffffffffffffffffffffffffffffffffffffffffffffffffff)\n      and\n      eq\n        /* \"@openzeppelin/contracts/utils/introspection/ERC165.sol\":930:977  return interfaceId == type(IERC165).interfaceId */\n      swap1\n      pop\n        /* \"@openzeppelin/contracts/utils/introspection/ERC165.sol\":829:984  function supportsInterface(bytes4 interfaceId) public view virtual override returns (bool) {... */\n      swap2\n      swap1\n      pop\n      jump\t// out\n        /* \"@openzeppelin/contracts/access/AccessControl.sol\":3334:3437  function _checkRole(bytes32 role) internal view virtual {... */\n    tag_159:\n        /* \"@openzeppelin/contracts/access/AccessControl.sol\":3400:3430  _checkRole(role, _msgSender()) */\n      tag_225\n        /* \"@openzeppelin/contracts/access/AccessControl.sol\":3411:3415  role */\n      dup2\n        /* \"@openzeppelin/contracts/access/AccessControl.sol\":3417:3429  _msgSender() */\n      tag_226\n        /* \"@openzeppelin/contracts/access/AccessControl.sol\":3417:3427  _msgSender */\n      tag_166\n        /* \"@openzeppelin/contracts/access/AccessControl.sol\":3417:3429  _msgSender() */\n      jump\t// in\n    tag_226:\n        /* \"@openzeppelin/contracts/access/AccessControl.sol\":3400:3410  _checkRole */\n      tag_227\n        /* \"@openzeppelin/contracts/access/AccessControl.sol\":3400:3430  _checkRole(role, _msgSender()) */\n      jump\t// in\n    tag_225:\n        /* \"@openzeppelin/contracts/access/AccessControl.sol\":3334:3437  function _checkRole(bytes32 role) internal view virtual {... */\n      pop\n      jump\t// out\n        /* \"@openzeppelin/contracts/access/AccessControl.sol\":7474:7707  function _grantRole(bytes32 role, address account) internal virtual {... */\n    tag_162:\n        /* \"@openzeppelin/contracts/access/AccessControl.sol\":7557:7579  hasRole(role, account) */\n      tag_229\n        /* \"@openzeppelin/contracts/access/AccessControl.sol\":7565:7569  role */\n      dup3\n        /* \"@openzeppelin/contracts/access/AccessControl.sol\":7571:7578  account */\n      dup3\n        /* \"@openzeppelin/contracts/access/AccessControl.sol\":7557:7564  hasRole */\n      tag_87\n        /* \"@openzeppelin/contracts/access/AccessControl.sol\":7557:7579  hasRole(role, account) */\n      jump\t// in\n    tag_229:\n        /* \"@openzeppelin/contracts/access/AccessControl.sol\":7552:7701  if (!hasRole(role, account)) {... */\n      tag_230\n      jumpi\n        /* \"@openzeppelin/contracts/access/AccessControl.sol\":7627:7631  true */\n      0x01\n        /* \"@openzeppelin/contracts/access/AccessControl.sol\":7595:7601  _roles */\n      0x00\n        /* \"@openzeppelin/contracts/access/AccessControl.sol\":7595:7607  _roles[role] */\n      dup1\n        /* \"@openzeppelin/contracts/access/AccessControl.sol\":7602:7606  role */\n      dup5\n        /* \"@openzeppelin/contracts/access/AccessControl.sol\":7595:7607  _roles[role] */\n      dup2\n      mstore\n      0x20\n      add\n      swap1\n      dup2\n      mstore\n      0x20\n      add\n      0x00\n      keccak256\n        /* \"@openzeppelin/contracts/access/AccessControl.sol\":7595:7615  _roles[role].members */\n      0x00\n      add\n        /* \"@openzeppelin/contracts/access/AccessControl.sol\":7595:7624  _roles[role].members[account] */\n      0x00\n        /* \"@openzeppelin/contracts/access/AccessControl.sol\":7616:7623  account */\n      dup4\n        /* \"@openzeppelin/contracts/access/AccessControl.sol\":7595:7624  _roles[role].members[account] */\n      0xffffffffffffffffffffffffffffffffffffffff\n      and\n      0xffffffffffffffffffffffffffffffffffffffff\n      and\n      dup2\n      mstore\n      0x20\n      add\n      swap1\n      dup2\n      mstore\n      0x20\n      add\n      0x00\n      keccak256\n      0x00\n        /* \"@openzeppelin/contracts/access/AccessControl.sol\":7595:7631  _roles[role].members[account] = true */\n      0x0100\n      exp\n      dup2\n      sload\n      dup2\n      0xff\n      mul\n      not\n      and\n      swap1\n      dup4\n      iszero\n      iszero\n      mul\n      or\n      swap1\n      sstore\n      pop\n        /* \"@openzeppelin/contracts/access/AccessControl.sol\":7677:7689  _msgSender() */\n      tag_231\n        /* \"@openzeppelin/contracts/access/AccessControl.sol\":7677:7687  _msgSender */\n      tag_166\n        /* \"@openzeppelin/contracts/access/AccessControl.sol\":7677:7689  _msgSender() */\n      jump\t// in\n    tag_231:\n        /* \"@openzeppelin/contracts/access/AccessControl.sol\":7650:7690  RoleGranted(role, account, _msgSender()) */\n      0xffffffffffffffffffffffffffffffffffffffff\n      and\n        /* \"@openzeppelin/contracts/access/AccessControl.sol\":7668:7675  account */\n      dup2\n        /* \"@openzeppelin/contracts/access/AccessControl.sol\":7650:7690  RoleGranted(role, account, _msgSender()) */\n      0xffffffffffffffffffffffffffffffffffffffff\n      and\n        /* \"@openzeppelin/contracts/access/AccessControl.sol\":7662:7666  role */\n      dup4\n        /* \"@openzeppelin/contracts/access/AccessControl.sol\":7650:7690  RoleGranted(role, account, _msgSender()) */\n      0x2f8788117e7eff1d82e926ec794901d17c78024a50270940304540a733656f0d\n      mload(0x40)\n      mload(0x40)\n      dup1\n      swap2\n      sub\n      swap1\n      log4\n        /* \"@openzeppelin/contracts/access/AccessControl.sol\":7552:7701  if (!hasRole(role, account)) {... */\n    tag_230:\n        /* \"@openzeppelin/contracts/access/AccessControl.sol\":7474:7707  function _grantRole(bytes32 role, address account) internal virtual {... */\n      pop\n      pop\n      jump\t// out\n        /* \"@openzeppelin/contracts/utils/Context.sol\":640:736  function _msgSender() internal view virtual returns (address) {... */\n    tag_166:\n        /* \"@openzeppelin/contracts/utils/Context.sol\":693:700  address */\n      0x00\n        /* \"@openzeppelin/contracts/utils/Context.sol\":719:729  msg.sender */\n      caller\n        /* \"@openzeppelin/contracts/utils/Context.sol\":712:729  return msg.sender */\n      swap1\n      pop\n        /* \"@openzeppelin/contracts/utils/Context.sol\":640:736  function _msgSender() internal view virtual returns (address) {... */\n      swap1\n      jump\t// out\n        /* \"@openzeppelin/contracts/access/AccessControl.sol\":7878:8112  function _revokeRole(bytes32 role, address account) internal virtual {... */\n    tag_171:\n        /* \"@openzeppelin/contracts/access/AccessControl.sol\":7961:7983  hasRole(role, account) */\n      tag_234\n        /* \"@openzeppelin/contracts/access/AccessControl.sol\":7969:7973  role */\n      dup3\n        /* \"@openzeppelin/contracts/access/AccessControl.sol\":7975:7982  account */\n      dup3\n        /* \"@openzeppelin/contracts/access/AccessControl.sol\":7961:7968  hasRole */\n      tag_87\n        /* \"@openzeppelin/contracts/access/AccessControl.sol\":7961:7983  hasRole(role, account) */\n      jump\t// in\n    tag_234:\n        /* \"@openzeppelin/contracts/access/AccessControl.sol\":7957:8106  if (hasRole(role, account)) {... */\n      iszero\n      tag_235\n      jumpi\n        /* \"@openzeppelin/contracts/access/AccessControl.sol\":8031:8036  false */\n      0x00\n        /* \"@openzeppelin/contracts/access/AccessControl.sol\":7999:8005  _roles */\n      dup1\n        /* \"@openzeppelin/contracts/access/AccessControl.sol\":7999:8011  _roles[role] */\n      0x00\n        /* \"@openzeppelin/contracts/access/AccessControl.sol\":8006:8010  role */\n      dup5\n        /* \"@openzeppelin/contracts/access/AccessControl.sol\":7999:8011  _roles[role] */\n      dup2\n      mstore\n      0x20\n      add\n      swap1\n      dup2\n      mstore\n      0x20\n      add\n      0x00\n      keccak256\n        /* \"@openzeppelin/contracts/access/AccessControl.sol\":7999:8019  _roles[role].members */\n      0x00\n      add\n        /* \"@openzeppelin/contracts/access/AccessControl.sol\":7999:8028  _roles[role].members[account] */\n      0x00\n        /* \"@openzeppelin/contracts/access/AccessControl.sol\":8020:8027  account */\n      dup4\n        /* \"@openzeppelin/contracts/access/AccessControl.sol\":7999:8028  _roles[role].members[account] */\n      0xffffffffffffffffffffffffffffffffffffffff\n      and\n      0xffffffffffffffffffffffffffffffffffffffff\n      and\n      dup2\n      mstore\n      0x20\n      add\n      swap1\n      dup2\n      mstore\n      0x20\n      add\n      0x00\n      keccak256\n      0x00\n        /* \"@openzeppelin/contracts/access/AccessControl.sol\":7999:8036  _roles[role].members[account] = false */\n      0x0100\n      exp\n      dup2\n      sload\n      dup2\n      0xff\n      mul\n      not\n      and\n      swap1\n      dup4\n      iszero\n      iszero\n      mul\n      or\n      swap1\n      sstore\n      pop\n        /* \"@openzeppelin/contracts/access/AccessControl.sol\":8082:8094  _msgSender() */\n      tag_236\n        /* \"@openzeppelin/contracts/access/AccessControl.sol\":8082:8092  _msgSender */\n      tag_166\n        /* \"@openzeppelin/contracts/access/AccessControl.sol\":8082:8094  _msgSender() */\n      jump\t// in\n    tag_236:\n        /* \"@openzeppelin/contracts/access/AccessControl.sol\":8055:8095  RoleRevoked(role, account, _msgSender()) */\n      0xffffffffffffffffffffffffffffffffffffffff\n      and\n        /* \"@openzeppelin/contracts/access/AccessControl.sol\":8073:8080  account */\n      dup2\n        /* \"@openzeppelin/contracts/access/AccessControl.sol\":8055:8095  RoleRevoked(role, account, _msgSender()) */\n      0xffffffffffffffffffffffffffffffffffffffff\n      and\n        /* \"@openzeppelin/contracts/access/AccessControl.sol\":8067:8071  role */\n      dup4\n        /* \"@openzeppelin/contracts/access/AccessControl.sol\":8055:8095  RoleRevoked(role, account, _msgSender()) */\n      0xf6391f5c32d9c69d2a47ea670b442974b53935d1edc7fd64eb21e047a839171b\n      mload(0x40)\n      mload(0x40)\n      dup1\n      swap2\n      sub\n      swap1\n      log4\n        /* \"@openzeppelin/contracts/access/AccessControl.sol\":7957:8106  if (hasRole(role, account)) {... */\n    tag_235:\n        /* \"@openzeppelin/contracts/access/AccessControl.sol\":7878:8112  function _revokeRole(bytes32 role, address account) internal virtual {... */\n      pop\n      pop\n      jump\t// out\n        /* \"@openzeppelin/contracts/access/AccessControl.sol\":3718:4210  function _checkRole(bytes32 role, address account) internal view virtual {... */\n    tag_227:\n        /* \"@openzeppelin/contracts/access/AccessControl.sol\":3806:3828  hasRole(role, account) */\n      tag_238\n        /* \"@openzeppelin/contracts/access/AccessControl.sol\":3814:3818  role */\n      dup3\n        /* \"@openzeppelin/contracts/access/AccessControl.sol\":3820:3827  account */\n      dup3\n        /* \"@openzeppelin/contracts/access/AccessControl.sol\":3806:3813  hasRole */\n      tag_87\n        /* \"@openzeppelin/contracts/access/AccessControl.sol\":3806:3828  hasRole(role, account) */\n      jump\t// in\n    tag_238:\n        /* \"@openzeppelin/contracts/access/AccessControl.sol\":3801:4204  if (!hasRole(role, account)) {... */\n      tag_239\n      jumpi\n        /* \"@openzeppelin/contracts/access/AccessControl.sol\":3989:4030  Strings.toHexString(uint160(account), 20) */\n      tag_240\n        /* \"@openzeppelin/contracts/access/AccessControl.sol\":4017:4024  account */\n      dup2\n        /* \"@openzeppelin/contracts/access/AccessControl.sol\":3989:4030  Strings.toHexString(uint160(account), 20) */\n      0xffffffffffffffffffffffffffffffffffffffff\n      and\n        /* \"@openzeppelin/contracts/access/AccessControl.sol\":4027:4029  20 */\n      0x14\n        /* \"@openzeppelin/contracts/access/AccessControl.sol\":3989:4008  Strings.toHexString */\n      tag_241\n        /* \"@openzeppelin/contracts/access/AccessControl.sol\":3989:4030  Strings.toHexString(uint160(account), 20) */\n      jump\t// in\n    tag_240:\n        /* \"@openzeppelin/contracts/access/AccessControl.sol\":4101:4139  Strings.toHexString(uint256(role), 32) */\n      tag_242\n        /* \"@openzeppelin/contracts/access/AccessControl.sol\":4129:4133  role */\n      dup4\n        /* \"@openzeppelin/contracts/access/AccessControl.sol\":4121:4134  uint256(role) */\n      0x00\n      shr\n        /* \"@openzeppelin/contracts/access/AccessControl.sol\":4136:4138  32 */\n      0x20\n        /* \"@openzeppelin/contracts/access/AccessControl.sol\":4101:4120  Strings.toHexString */\n      tag_241\n        /* \"@openzeppelin/contracts/access/AccessControl.sol\":4101:4139  Strings.toHexString(uint256(role), 32) */\n      jump\t// in\n    tag_242:\n        /* \"@openzeppelin/contracts/access/AccessControl.sol\":3896:4161  abi.encodePacked(... */\n      add(0x20, mload(0x40))\n      tag_243\n      swap3\n      swap2\n      swap1\n      tag_244\n      jump\t// in\n    tag_243:\n      mload(0x40)\n      0x20\n      dup2\n      dup4\n      sub\n      sub\n      dup2\n      mstore\n      swap1\n      0x40\n      mstore\n        /* \"@openzeppelin/contracts/access/AccessControl.sol\":3844:4193  revert(... */\n      mload(0x40)\n      0x08c379a000000000000000000000000000000000000000000000000000000000\n      dup2\n      mstore\n      0x04\n      add\n      tag_245\n      swap2\n      swap1\n      tag_37\n      jump\t// in\n    tag_245:\n      mload(0x40)\n      dup1\n      swap2\n      sub\n      swap1\n      revert\n        /* \"@openzeppelin/contracts/access/AccessControl.sol\":3801:4204  if (!hasRole(role, account)) {... */\n    tag_239:\n        /* \"@openzeppelin/contracts/access/AccessControl.sol\":3718:4210  function _checkRole(bytes32 role, address account) internal view virtual {... */\n      pop\n      pop\n      jump\t// out\n        /* \"@openzeppelin/contracts/utils/Strings.sol\":1652:2093  function toHexString(uint256 value, uint256 length) internal pure returns (string memory) {... */\n    tag_241:\n        /* \"@openzeppelin/contracts/utils/Strings.sol\":1727:1740  string memory */\n      0x60\n        /* \"@openzeppelin/contracts/utils/Strings.sol\":1752:1771  bytes memory buffer */\n      0x00\n        /* \"@openzeppelin/contracts/utils/Strings.sol\":1797:1798  2 */\n      0x02\n        /* \"@openzeppelin/contracts/utils/Strings.sol\":1788:1794  length */\n      dup4\n        /* \"@openzeppelin/contracts/utils/Strings.sol\":1784:1785  2 */\n      0x02\n        /* \"@openzeppelin/contracts/utils/Strings.sol\":1784:1794  2 * length */\n      tag_247\n      swap2\n      swap1\n      tag_248\n      jump\t// in\n    tag_247:\n        /* \"@openzeppelin/contracts/utils/Strings.sol\":1784:1798  2 * length + 2 */\n      tag_249\n      swap2\n      swap1\n      tag_153\n      jump\t// in\n    tag_249:\n        /* \"@openzeppelin/contracts/utils/Strings.sol\":1774:1799  new bytes(2 * length + 2) */\n      0xffffffffffffffff\n      dup2\n      gt\n      iszero\n      tag_250\n      jumpi\n      tag_251\n      tag_252\n      jump\t// in\n    tag_251:\n    tag_250:\n      mload(0x40)\n      swap1\n      dup1\n      dup3\n      mstore\n      dup1\n      0x1f\n      add\n      not(0x1f)\n      and\n      0x20\n      add\n      dup3\n      add\n      0x40\n      mstore\n      dup1\n      iszero\n      tag_253\n      jumpi\n      dup2\n      0x20\n      add\n      0x01\n      dup3\n      mul\n      dup1\n      calldatasize\n      dup4\n      calldatacopy\n      dup1\n      dup3\n      add\n      swap2\n      pop\n      pop\n      swap1\n      pop\n    tag_253:\n      pop\n        /* \"@openzeppelin/contracts/utils/Strings.sol\":1752:1799  bytes memory buffer = new bytes(2 * length + 2) */\n      swap1\n      pop\n        /* \"@openzeppelin/contracts/utils/Strings.sol\":1809:1824  buffer[0] = \"0\" */\n      0x3000000000000000000000000000000000000000000000000000000000000000\n        /* \"@openzeppelin/contracts/utils/Strings.sol\":1809:1815  buffer */\n      dup2\n        /* \"@openzeppelin/contracts/utils/Strings.sol\":1816:1817  0 */\n      0x00\n        /* \"@openzeppelin/contracts/utils/Strings.sol\":1809:1818  buffer[0] */\n      dup2\n      mload\n      dup2\n      lt\n      tag_254\n      jumpi\n      tag_255\n      tag_256\n      jump\t// in\n    tag_255:\n    tag_254:\n      0x20\n      add\n      add\n        /* \"@openzeppelin/contracts/utils/Strings.sol\":1809:1824  buffer[0] = \"0\" */\n      swap1\n      not(0xffffffffffffffffffffffffffffffffffffffffffffffffffffffffffffff)\n      and\n      swap1\n      dup2\n      0x00\n      byte\n      swap1\n      mstore8\n      pop\n        /* \"@openzeppelin/contracts/utils/Strings.sol\":1834:1849  buffer[1] = \"x\" */\n      0x7800000000000000000000000000000000000000000000000000000000000000\n        /* \"@openzeppelin/contracts/utils/Strings.sol\":1834:1840  buffer */\n      dup2\n        /* \"@openzeppelin/contracts/utils/Strings.sol\":1841:1842  1 */\n      0x01\n        /* \"@openzeppelin/contracts/utils/Strings.sol\":1834:1843  buffer[1] */\n      dup2\n      mload\n      dup2\n      lt\n      tag_257\n      jumpi\n      tag_258\n      tag_256\n      jump\t// in\n    tag_258:\n    tag_257:\n      0x20\n      add\n      add\n        /* \"@openzeppelin/contracts/utils/Strings.sol\":1834:1849  buffer[1] = \"x\" */\n      swap1\n      not(0xffffffffffffffffffffffffffffffffffffffffffffffffffffffffffffff)\n      and\n      swap1\n      dup2\n      0x00\n      byte\n      swap1\n      mstore8\n      pop\n        /* \"@openzeppelin/contracts/utils/Strings.sol\":1864:1873  uint256 i */\n      0x00\n        /* \"@openzeppelin/contracts/utils/Strings.sol\":1889:1890  1 */\n      0x01\n        /* \"@openzeppelin/contracts/utils/Strings.sol\":1880:1886  length */\n      dup5\n        /* \"@openzeppelin/contracts/utils/Strings.sol\":1876:1877  2 */\n      0x02\n        /* \"@openzeppelin/contracts/utils/Strings.sol\":1876:1886  2 * length */\n      tag_262\n      swap2\n      swap1\n      tag_248\n      jump\t// in\n    tag_262:\n        /* \"@openzeppelin/contracts/utils/Strings.sol\":1876:1890  2 * length + 1 */\n      tag_263\n      swap2\n      swap1\n      tag_153\n      jump\t// in\n    tag_263:\n        /* \"@openzeppelin/contracts/utils/Strings.sol\":1864:1890  uint256 i = 2 * length + 1 */\n      swap1\n      pop\n        /* \"@openzeppelin/contracts/utils/Strings.sol\":1859:1991  for (uint256 i = 2 * length + 1; i > 1; --i) {... */\n    tag_259:\n        /* \"@openzeppelin/contracts/utils/Strings.sol\":1896:1897  1 */\n      0x01\n        /* \"@openzeppelin/contracts/utils/Strings.sol\":1892:1893  i */\n      dup2\n        /* \"@openzeppelin/contracts/utils/Strings.sol\":1892:1897  i > 1 */\n      gt\n        /* \"@openzeppelin/contracts/utils/Strings.sol\":1859:1991  for (uint256 i = 2 * length + 1; i > 1; --i) {... */\n      iszero\n      tag_260\n      jumpi\n        /* \"@openzeppelin/contracts/utils/Strings.sol\":1930:1942  _HEX_SYMBOLS */\n      0x3031323334353637383961626364656600000000000000000000000000000000\n        /* \"@openzeppelin/contracts/utils/Strings.sol\":1951:1954  0xf */\n      0x0f\n        /* \"@openzeppelin/contracts/utils/Strings.sol\":1943:1948  value */\n      dup7\n        /* \"@openzeppelin/contracts/utils/Strings.sol\":1943:1954  value & 0xf */\n      and\n        /* \"@openzeppelin/contracts/utils/Strings.sol\":1930:1955  _HEX_SYMBOLS[value & 0xf] */\n      0x10\n      dup2\n      lt\n      tag_264\n      jumpi\n      tag_265\n      tag_256\n      jump\t// in\n    tag_265:\n    tag_264:\n      byte\n      0xf8\n      shl\n        /* \"@openzeppelin/contracts/utils/Strings.sol\":1918:1924  buffer */\n      dup3\n        /* \"@openzeppelin/contracts/utils/Strings.sol\":1925:1926  i */\n      dup3\n        /* \"@openzeppelin/contracts/utils/Strings.sol\":1918:1927  buffer[i] */\n      dup2\n      mload\n      dup2\n      lt\n      tag_266\n      jumpi\n      tag_267\n      tag_256\n      jump\t// in\n    tag_267:\n    tag_266:\n      0x20\n      add\n      add\n        /* \"@openzeppelin/contracts/utils/Strings.sol\":1918:1955  buffer[i] = _HEX_SYMBOLS[value & 0xf] */\n      swap1\n      not(0xffffffffffffffffffffffffffffffffffffffffffffffffffffffffffffff)\n      and\n      swap1\n      dup2\n      0x00\n      byte\n      swap1\n      mstore8\n      pop\n        /* \"@openzeppelin/contracts/utils/Strings.sol\":1979:1980  4 */\n      0x04\n        /* \"@openzeppelin/contracts/utils/Strings.sol\":1969:1980  value >>= 4 */\n      dup6\n      swap1\n      shr\n      swap5\n      pop\n        /* \"@openzeppelin/contracts/utils/Strings.sol\":1899:1902  --i */\n      dup1\n      tag_268\n      swap1\n      tag_269\n      jump\t// in\n    tag_268:\n      swap1\n      pop\n        /* \"@openzeppelin/contracts/utils/Strings.sol\":1859:1991  for (uint256 i = 2 * length + 1; i > 1; --i) {... */\n      jump(tag_259)\n    tag_260:\n      pop\n        /* \"@openzeppelin/contracts/utils/Strings.sol\":2017:2018  0 */\n      0x00\n        /* \"@openzeppelin/contracts/utils/Strings.sol\":2008:2013  value */\n      dup5\n        /* \"@openzeppelin/contracts/utils/Strings.sol\":2008:2018  value == 0 */\n      eq\n        /* \"@openzeppelin/contracts/utils/Strings.sol\":2000:2055  require(value == 0, \"Strings: hex length insufficient\") */\n      tag_270\n      jumpi\n      mload(0x40)\n      0x08c379a000000000000000000000000000000000000000000000000000000000\n      dup2\n      mstore\n      0x04\n      add\n      tag_271\n      swap1\n      tag_272\n      jump\t// in\n    tag_271:\n      mload(0x40)\n      dup1\n      swap2\n      sub\n      swap1\n      revert\n    tag_270:\n        /* \"@openzeppelin/contracts/utils/Strings.sol\":2079:2085  buffer */\n      dup1\n        /* \"@openzeppelin/contracts/utils/Strings.sol\":2065:2086  return string(buffer) */\n      swap2\n      pop\n      pop\n        /* \"@openzeppelin/contracts/utils/Strings.sol\":1652:2093  function toHexString(uint256 value, uint256 length) internal pure returns (string memory) {... */\n      swap3\n      swap2\n      pop\n      pop\n      jump\t// out\n        /* \"#utility.yul\":88:205   */\n    tag_274:\n        /* \"#utility.yul\":197:198   */\n      0x00\n        /* \"#utility.yul\":194:195   */\n      dup1\n        /* \"#utility.yul\":187:199   */\n      revert\n        /* \"#utility.yul\":334:483   */\n    tag_276:\n        /* \"#utility.yul\":370:377   */\n      0x00\n        /* \"#utility.yul\":410:476   */\n      0xffffffff00000000000000000000000000000000000000000000000000000000\n        /* \"#utility.yul\":403:408   */\n      dup3\n        /* \"#utility.yul\":399:477   */\n      and\n        /* \"#utility.yul\":388:477   */\n      swap1\n      pop\n        /* \"#utility.yul\":334:483   */\n      swap2\n      swap1\n      pop\n      jump\t// out\n        /* \"#utility.yul\":489:609   */\n    tag_277:\n        /* \"#utility.yul\":561:584   */\n      tag_336\n        /* \"#utility.yul\":578:583   */\n      dup2\n        /* \"#utility.yul\":561:584   */\n      tag_276\n      jump\t// in\n    tag_336:\n        /* \"#utility.yul\":554:559   */\n      dup2\n        /* \"#utility.yul\":551:585   */\n      eq\n        /* \"#utility.yul\":541:603   */\n      tag_337\n      jumpi\n        /* \"#utility.yul\":599:600   */\n      0x00\n        /* \"#utility.yul\":596:597   */\n      dup1\n        /* \"#utility.yul\":589:601   */\n      revert\n        /* \"#utility.yul\":541:603   */\n    tag_337:\n        /* \"#utility.yul\":489:609   */\n      pop\n      jump\t// out\n        /* \"#utility.yul\":615:752   */\n    tag_278:\n        /* \"#utility.yul\":660:665   */\n      0x00\n        /* \"#utility.yul\":698:704   */\n      dup2\n        /* \"#utility.yul\":685:705   */\n      calldataload\n        /* \"#utility.yul\":676:705   */\n      swap1\n      pop\n        /* \"#utility.yul\":714:746   */\n      tag_339\n        /* \"#utility.yul\":740:745   */\n      dup2\n        /* \"#utility.yul\":714:746   */\n      tag_277\n      jump\t// in\n    tag_339:\n        /* \"#utility.yul\":615:752   */\n      swap3\n      swap2\n      pop\n      pop\n      jump\t// out\n        /* \"#utility.yul\":758:1085   */\n    tag_30:\n        /* \"#utility.yul\":816:822   */\n      0x00\n        /* \"#utility.yul\":865:867   */\n      0x20\n        /* \"#utility.yul\":853:862   */\n      dup3\n        /* \"#utility.yul\":844:851   */\n      dup5\n        /* \"#utility.yul\":840:863   */\n      sub\n        /* \"#utility.yul\":836:868   */\n      slt\n        /* \"#utility.yul\":833:952   */\n      iszero\n      tag_341\n      jumpi\n        /* \"#utility.yul\":871:950   */\n      tag_342\n      tag_274\n      jump\t// in\n    tag_342:\n        /* \"#utility.yul\":833:952   */\n    tag_341:\n        /* \"#utility.yul\":991:992   */\n      0x00\n        /* \"#utility.yul\":1016:1068   */\n      tag_343\n        /* \"#utility.yul\":1060:1067   */\n      dup5\n        /* \"#utility.yul\":1051:1057   */\n      dup3\n        /* \"#utility.yul\":1040:1049   */\n      dup6\n        /* \"#utility.yul\":1036:1058   */\n      add\n        /* \"#utility.yul\":1016:1068   */\n      tag_278\n      jump\t// in\n    tag_343:\n        /* \"#utility.yul\":1006:1068   */\n      swap2\n      pop\n        /* \"#utility.yul\":962:1078   */\n      pop\n        /* \"#utility.yul\":758:1085   */\n      swap3\n      swap2\n      pop\n      pop\n      jump\t// out\n        /* \"#utility.yul\":1091:1181   */\n    tag_279:\n        /* \"#utility.yul\":1125:1132   */\n      0x00\n        /* \"#utility.yul\":1168:1173   */\n      dup2\n        /* \"#utility.yul\":1161:1174   */\n      iszero\n        /* \"#utility.yul\":1154:1175   */\n      iszero\n        /* \"#utility.yul\":1143:1175   */\n      swap1\n      pop\n        /* \"#utility.yul\":1091:1181   */\n      swap2\n      swap1\n      pop\n      jump\t// out\n        /* \"#utility.yul\":1187:1296   */\n    tag_280:\n        /* \"#utility.yul\":1268:1289   */\n      tag_346\n        /* \"#utility.yul\":1283:1288   */\n      dup2\n        /* \"#utility.yul\":1268:1289   */\n      tag_279\n      jump\t// in\n    tag_346:\n        /* \"#utility.yul\":1263:1266   */\n      dup3\n        /* \"#utility.yul\":1256:1290   */\n      mstore\n        /* \"#utility.yul\":1187:1296   */\n      pop\n      pop\n      jump\t// out\n        /* \"#utility.yul\":1302:1512   */\n    tag_33:\n        /* \"#utility.yul\":1389:1393   */\n      0x00\n        /* \"#utility.yul\":1427:1429   */\n      0x20\n        /* \"#utility.yul\":1416:1425   */\n      dup3\n        /* \"#utility.yul\":1412:1430   */\n      add\n        /* \"#utility.yul\":1404:1430   */\n      swap1\n      pop\n        /* \"#utility.yul\":1440:1505   */\n      tag_348\n        /* \"#utility.yul\":1502:1503   */\n      0x00\n        /* \"#utility.yul\":1491:1500   */\n      dup4\n        /* \"#utility.yul\":1487:1504   */\n      add\n        /* \"#utility.yul\":1478:1484   */\n      dup5\n        /* \"#utility.yul\":1440:1505   */\n      tag_280\n      jump\t// in\n    tag_348:\n        /* \"#utility.yul\":1302:1512   */\n      swap3\n      swap2\n      pop\n      pop\n      jump\t// out\n        /* \"#utility.yul\":1518:1617   */\n    tag_281:\n        /* \"#utility.yul\":1570:1576   */\n      0x00\n        /* \"#utility.yul\":1604:1609   */\n      dup2\n        /* \"#utility.yul\":1598:1610   */\n      mload\n        /* \"#utility.yul\":1588:1610   */\n      swap1\n      pop\n        /* \"#utility.yul\":1518:1617   */\n      swap2\n      swap1\n      pop\n      jump\t// out\n        /* \"#utility.yul\":1623:1792   */\n    tag_282:\n        /* \"#utility.yul\":1707:1718   */\n      0x00\n        /* \"#utility.yul\":1741:1747   */\n      dup3\n        /* \"#utility.yul\":1736:1739   */\n      dup3\n        /* \"#utility.yul\":1729:1748   */\n      mstore\n        /* \"#utility.yul\":1781:1785   */\n      0x20\n        /* \"#utility.yul\":1776:1779   */\n      dup3\n        /* \"#utility.yul\":1772:1786   */\n      add\n        /* \"#utility.yul\":1757:1786   */\n      swap1\n      pop\n        /* \"#utility.yul\":1623:1792   */\n      swap3\n      swap2\n      pop\n      pop\n      jump\t// out\n        /* \"#utility.yul\":1798:2044   */\n    tag_283:\n        /* \"#utility.yul\":1879:1880   */\n      0x00\n        /* \"#utility.yul\":1889:2002   */\n    tag_352:\n        /* \"#utility.yul\":1903:1909   */\n      dup4\n        /* \"#utility.yul\":1900:1901   */\n      dup2\n        /* \"#utility.yul\":1897:1910   */\n      lt\n        /* \"#utility.yul\":1889:2002   */\n      iszero\n      tag_354\n      jumpi\n        /* \"#utility.yul\":1988:1989   */\n      dup1\n        /* \"#utility.yul\":1983:1986   */\n      dup3\n        /* \"#utility.yul\":1979:1990   */\n      add\n        /* \"#utility.yul\":1973:1991   */\n      mload\n        /* \"#utility.yul\":1969:1970   */\n      dup2\n        /* \"#utility.yul\":1964:1967   */\n      dup5\n        /* \"#utility.yul\":1960:1971   */\n      add\n        /* \"#utility.yul\":1953:1992   */\n      mstore\n        /* \"#utility.yul\":1925:1927   */\n      0x20\n        /* \"#utility.yul\":1922:1923   */\n      dup2\n        /* \"#utility.yul\":1918:1928   */\n      add\n        /* \"#utility.yul\":1913:1928   */\n      swap1\n      pop\n        /* \"#utility.yul\":1889:2002   */\n      jump(tag_352)\n    tag_354:\n        /* \"#utility.yul\":2036:2037   */\n      0x00\n        /* \"#utility.yul\":2027:2033   */\n      dup5\n        /* \"#utility.yul\":2022:2025   */\n      dup5\n        /* \"#utility.yul\":2018:2034   */\n      add\n        /* \"#utility.yul\":2011:2038   */\n      mstore\n        /* \"#utility.yul\":1860:2044   */\n      pop\n        /* \"#utility.yul\":1798:2044   */\n      pop\n      pop\n      pop\n      jump\t// out\n        /* \"#utility.yul\":2050:2152   */\n    tag_284:\n        /* \"#utility.yul\":2091:2097   */\n      0x00\n        /* \"#utility.yul\":2142:2144   */\n      0x1f\n        /* \"#utility.yul\":2138:2145   */\n      not\n        /* \"#utility.yul\":2133:2135   */\n      0x1f\n        /* \"#utility.yul\":2126:2131   */\n      dup4\n        /* \"#utility.yul\":2122:2136   */\n      add\n        /* \"#utility.yul\":2118:2146   */\n      and\n        /* \"#utility.yul\":2108:2146   */\n      swap1\n      pop\n        /* \"#utility.yul\":2050:2152   */\n      swap2\n      swap1\n      pop\n      jump\t// out\n        /* \"#utility.yul\":2158:2535   */\n    tag_285:\n        /* \"#utility.yul\":2246:2249   */\n      0x00\n        /* \"#utility.yul\":2274:2313   */\n      tag_357\n        /* \"#utility.yul\":2307:2312   */\n      dup3\n        /* \"#utility.yul\":2274:2313   */\n      tag_281\n      jump\t// in\n    tag_357:\n        /* \"#utility.yul\":2329:2400   */\n      tag_358\n        /* \"#utility.yul\":2393:2399   */\n      dup2\n        /* \"#utility.yul\":2388:2391   */\n      dup6\n        /* \"#utility.yul\":2329:2400   */\n      tag_282\n      jump\t// in\n    tag_358:\n        /* \"#utility.yul\":2322:2400   */\n      swap4\n      pop\n        /* \"#utility.yul\":2409:2474   */\n      tag_359\n        /* \"#utility.yul\":2467:2473   */\n      dup2\n        /* \"#utility.yul\":2462:2465   */\n      dup6\n        /* \"#utility.yul\":2455:2459   */\n      0x20\n        /* \"#utility.yul\":2448:2453   */\n      dup7\n        /* \"#utility.yul\":2444:2460   */\n      add\n        /* \"#utility.yul\":2409:2474   */\n      tag_283\n      jump\t// in\n    tag_359:\n        /* \"#utility.yul\":2499:2528   */\n      tag_360\n        /* \"#utility.yul\":2521:2527   */\n      dup2\n        /* \"#utility.yul\":2499:2528   */\n      tag_284\n      jump\t// in\n    tag_360:\n        /* \"#utility.yul\":2494:2497   */\n      dup5\n        /* \"#utility.yul\":2490:2529   */\n      add\n        /* \"#utility.yul\":2483:2529   */\n      swap2\n      pop\n        /* \"#utility.yul\":2250:2535   */\n      pop\n        /* \"#utility.yul\":2158:2535   */\n      swap3\n      swap2\n      pop\n      pop\n      jump\t// out\n        /* \"#utility.yul\":2541:2854   */\n    tag_37:\n        /* \"#utility.yul\":2654:2658   */\n      0x00\n        /* \"#utility.yul\":2692:2694   */\n      0x20\n        /* \"#utility.yul\":2681:2690   */\n      dup3\n        /* \"#utility.yul\":2677:2695   */\n      add\n        /* \"#utility.yul\":2669:2695   */\n      swap1\n      pop\n        /* \"#utility.yul\":2741:2750   */\n      dup2\n        /* \"#utility.yul\":2735:2739   */\n      dup2\n        /* \"#utility.yul\":2731:2751   */\n      sub\n        /* \"#utility.yul\":2727:2728   */\n      0x00\n        /* \"#utility.yul\":2716:2725   */\n      dup4\n        /* \"#utility.yul\":2712:2729   */\n      add\n        /* \"#utility.yul\":2705:2752   */\n      mstore\n        /* \"#utility.yul\":2769:2847   */\n      tag_362\n        /* \"#utility.yul\":2842:2846   */\n      dup2\n        /* \"#utility.yul\":2833:2839   */\n      dup5\n        /* \"#utility.yul\":2769:2847   */\n      tag_285\n      jump\t// in\n    tag_362:\n        /* \"#utility.yul\":2761:2847   */\n      swap1\n      pop\n        /* \"#utility.yul\":2541:2854   */\n      swap3\n      swap2\n      pop\n      pop\n      jump\t// out\n        /* \"#utility.yul\":2860:2986   */\n    tag_286:\n        /* \"#utility.yul\":2897:2904   */\n      0x00\n        /* \"#utility.yul\":2937:2979   */\n      0xffffffffffffffffffffffffffffffffffffffff\n        /* \"#utility.yul\":2930:2935   */\n      dup3\n        /* \"#utility.yul\":2926:2980   */\n      and\n        /* \"#utility.yul\":2915:2980   */\n      swap1\n      pop\n        /* \"#utility.yul\":2860:2986   */\n      swap2\n      swap1\n      pop\n      jump\t// out\n        /* \"#utility.yul\":2992:3088   */\n    tag_287:\n        /* \"#utility.yul\":3029:3036   */\n      0x00\n        /* \"#utility.yul\":3058:3082   */\n      tag_365\n        /* \"#utility.yul\":3076:3081   */\n      dup3\n        /* \"#utility.yul\":3058:3082   */\n      tag_286\n      jump\t// in\n    tag_365:\n        /* \"#utility.yul\":3047:3082   */\n      swap1\n      pop\n        /* \"#utility.yul\":2992:3088   */\n      swap2\n      swap1\n      pop\n      jump\t// out\n        /* \"#utility.yul\":3094:3216   */\n    tag_288:\n        /* \"#utility.yul\":3167:3191   */\n      tag_367\n        /* \"#utility.yul\":3185:3190   */\n      dup2\n        /* \"#utility.yul\":3167:3191   */\n      tag_287\n      jump\t// in\n    tag_367:\n        /* \"#utility.yul\":3160:3165   */\n      dup2\n        /* \"#utility.yul\":3157:3192   */\n      eq\n        /* \"#utility.yul\":3147:3210   */\n      tag_368\n      jumpi\n        /* \"#utility.yul\":3206:3207   */\n      0x00\n        /* \"#utility.yul\":3203:3204   */\n      dup1\n        /* \"#utility.yul\":3196:3208   */\n      revert\n        /* \"#utility.yul\":3147:3210   */\n    tag_368:\n        /* \"#utility.yul\":3094:3216   */\n      pop\n      jump\t// out\n        /* \"#utility.yul\":3222:3361   */\n    tag_289:\n        /* \"#utility.yul\":3268:3273   */\n      0x00\n        /* \"#utility.yul\":3306:3312   */\n      dup2\n        /* \"#utility.yul\":3293:3313   */\n      calldataload\n        /* \"#utility.yul\":3284:3313   */\n      swap1\n      pop\n        /* \"#utility.yul\":3322:3355   */\n      tag_370\n        /* \"#utility.yul\":3349:3354   */\n      dup2\n        /* \"#utility.yul\":3322:3355   */\n      tag_288\n      jump\t// in\n    tag_370:\n        /* \"#utility.yul\":3222:3361   */\n      swap3\n      swap2\n      pop\n      pop\n      jump\t// out\n        /* \"#utility.yul\":3367:3444   */\n    tag_290:\n        /* \"#utility.yul\":3404:3411   */\n      0x00\n        /* \"#utility.yul\":3433:3438   */\n      dup2\n        /* \"#utility.yul\":3422:3438   */\n      swap1\n      pop\n        /* \"#utility.yul\":3367:3444   */\n      swap2\n      swap1\n      pop\n      jump\t// out\n        /* \"#utility.yul\":3450:3572   */\n    tag_291:\n        /* \"#utility.yul\":3523:3547   */\n      tag_373\n        /* \"#utility.yul\":3541:3546   */\n      dup2\n        /* \"#utility.yul\":3523:3547   */\n      tag_290\n      jump\t// in\n    tag_373:\n        /* \"#utility.yul\":3516:3521   */\n      dup2\n        /* \"#utility.yul\":3513:3548   */\n      eq\n        /* \"#utility.yul\":3503:3566   */\n      tag_374\n      jumpi\n        /* \"#utility.yul\":3562:3563   */\n      0x00\n        /* \"#utility.yul\":3559:3560   */\n      dup1\n        /* \"#utility.yul\":3552:3564   */\n      revert\n        /* \"#utility.yul\":3503:3566   */\n    tag_374:\n        /* \"#utility.yul\":3450:3572   */\n      pop\n      jump\t// out\n        /* \"#utility.yul\":3578:3717   */\n    tag_292:\n        /* \"#utility.yul\":3624:3629   */\n      0x00\n        /* \"#utility.yul\":3662:3668   */\n      dup2\n        /* \"#utility.yul\":3649:3669   */\n      calldataload\n        /* \"#utility.yul\":3640:3669   */\n      swap1\n      pop\n        /* \"#utility.yul\":3678:3711   */\n      tag_376\n        /* \"#utility.yul\":3705:3710   */\n      dup2\n        /* \"#utility.yul\":3678:3711   */\n      tag_291\n      jump\t// in\n    tag_376:\n        /* \"#utility.yul\":3578:3717   */\n      swap3\n      swap2\n      pop\n      pop\n      jump\t// out\n        /* \"#utility.yul\":3723:4197   */\n    tag_40:\n        /* \"#utility.yul\":3791:3797   */\n      0x00\n        /* \"#utility.yul\":3799:3805   */\n      dup1\n        /* \"#utility.yul\":3848:3850   */\n      0x40\n        /* \"#utility.yul\":3836:3845   */\n      dup4\n        /* \"#utility.yul\":3827:3834   */\n      dup6\n        /* \"#utility.yul\":3823:3846   */\n      sub\n        /* \"#utility.yul\":3819:3851   */\n      slt\n        /* \"#utility.yul\":3816:3935   */\n      iszero\n      tag_378\n      jumpi\n        /* \"#utility.yul\":3854:3933   */\n      tag_379\n      tag_274\n      jump\t// in\n    tag_379:\n        /* \"#utility.yul\":3816:3935   */\n    tag_378:\n        /* \"#utility.yul\":3974:3975   */\n      0x00\n        /* \"#utility.yul\":3999:4052   */\n      tag_380\n        /* \"#utility.yul\":4044:4051   */\n      dup6\n        /* \"#utility.yul\":4035:4041   */\n      dup3\n        /* \"#utility.yul\":4024:4033   */\n      dup7\n        /* \"#utility.yul\":4020:4042   */\n      add\n        /* \"#utility.yul\":3999:4052   */\n      tag_289\n      jump\t// in\n    tag_380:\n        /* \"#utility.yul\":3989:4052   */\n      swap3\n      pop\n        /* \"#utility.yul\":3945:4062   */\n      pop\n        /* \"#utility.yul\":4101:4103   */\n      0x20\n        /* \"#utility.yul\":4127:4180   */\n      tag_381\n        /* \"#utility.yul\":4172:4179   */\n      dup6\n        /* \"#utility.yul\":4163:4169   */\n      dup3\n        /* \"#utility.yul\":4152:4161   */\n      dup7\n        /* \"#utility.yul\":4148:4170   */\n      add\n        /* \"#utility.yul\":4127:4180   */\n      tag_292\n      jump\t// in\n    tag_381:\n        /* \"#utility.yul\":4117:4180   */\n      swap2\n      pop\n        /* \"#utility.yul\":4072:4190   */\n      pop\n        /* \"#utility.yul\":3723:4197   */\n      swap3\n      pop\n      swap3\n      swap1\n      pop\n      jump\t// out\n        /* \"#utility.yul\":4203:4321   */\n    tag_293:\n        /* \"#utility.yul\":4290:4314   */\n      tag_383\n        /* \"#utility.yul\":4308:4313   */\n      dup2\n        /* \"#utility.yul\":4290:4314   */\n      tag_290\n      jump\t// in\n    tag_383:\n        /* \"#utility.yul\":4285:4288   */\n      dup3\n        /* \"#utility.yul\":4278:4315   */\n      mstore\n        /* \"#utility.yul\":4203:4321   */\n      pop\n      pop\n      jump\t// out\n        /* \"#utility.yul\":4327:4549   */\n    tag_46:\n        /* \"#utility.yul\":4420:4424   */\n      0x00\n        /* \"#utility.yul\":4458:4460   */\n      0x20\n        /* \"#utility.yul\":4447:4456   */\n      dup3\n        /* \"#utility.yul\":4443:4461   */\n      add\n        /* \"#utility.yul\":4435:4461   */\n      swap1\n      pop\n        /* \"#utility.yul\":4471:4542   */\n      tag_385\n        /* \"#utility.yul\":4539:4540   */\n      0x00\n        /* \"#utility.yul\":4528:4537   */\n      dup4\n        /* \"#utility.yul\":4524:4541   */\n      add\n        /* \"#utility.yul\":4515:4521   */\n      dup5\n        /* \"#utility.yul\":4471:4542   */\n      tag_293\n      jump\t// in\n    tag_385:\n        /* \"#utility.yul\":4327:4549   */\n      swap3\n      swap2\n      pop\n      pop\n      jump\t// out\n        /* \"#utility.yul\":4555:5174   */\n    tag_49:\n        /* \"#utility.yul\":4632:4638   */\n      0x00\n        /* \"#utility.yul\":4640:4646   */\n      dup1\n        /* \"#utility.yul\":4648:4654   */\n      0x00\n        /* \"#utility.yul\":4697:4699   */\n      0x60\n        /* \"#utility.yul\":4685:4694   */\n      dup5\n        /* \"#utility.yul\":4676:4683   */\n      dup7\n        /* \"#utility.yul\":4672:4695   */\n      sub\n        /* \"#utility.yul\":4668:4700   */\n      slt\n        /* \"#utility.yul\":4665:4784   */\n      iszero\n      tag_387\n      jumpi\n        /* \"#utility.yul\":4703:4782   */\n      tag_388\n      tag_274\n      jump\t// in\n    tag_388:\n        /* \"#utility.yul\":4665:4784   */\n    tag_387:\n        /* \"#utility.yul\":4823:4824   */\n      0x00\n        /* \"#utility.yul\":4848:4901   */\n      tag_389\n        /* \"#utility.yul\":4893:4900   */\n      dup7\n        /* \"#utility.yul\":4884:4890   */\n      dup3\n        /* \"#utility.yul\":4873:4882   */\n      dup8\n        /* \"#utility.yul\":4869:4891   */\n      add\n        /* \"#utility.yul\":4848:4901   */\n      tag_289\n      jump\t// in\n    tag_389:\n        /* \"#utility.yul\":4838:4901   */\n      swap4\n      pop\n        /* \"#utility.yul\":4794:4911   */\n      pop\n        /* \"#utility.yul\":4950:4952   */\n      0x20\n        /* \"#utility.yul\":4976:5029   */\n      tag_390\n        /* \"#utility.yul\":5021:5028   */\n      dup7\n        /* \"#utility.yul\":5012:5018   */\n      dup3\n        /* \"#utility.yul\":5001:5010   */\n      dup8\n        /* \"#utility.yul\":4997:5019   */\n      add\n        /* \"#utility.yul\":4976:5029   */\n      tag_289\n      jump\t// in\n    tag_390:\n        /* \"#utility.yul\":4966:5029   */\n      swap3\n      pop\n        /* \"#utility.yul\":4921:5039   */\n      pop\n        /* \"#utility.yul\":5078:5080   */\n      0x40\n        /* \"#utility.yul\":5104:5157   */\n      tag_391\n        /* \"#utility.yul\":5149:5156   */\n      dup7\n        /* \"#utility.yul\":5140:5146   */\n      dup3\n        /* \"#utility.yul\":5129:5138   */\n      dup8\n        /* \"#utility.yul\":5125:5147   */\n      add\n        /* \"#utility.yul\":5104:5157   */\n      tag_292\n      jump\t// in\n    tag_391:\n        /* \"#utility.yul\":5094:5157   */\n      swap2\n      pop\n        /* \"#utility.yul\":5049:5167   */\n      pop\n        /* \"#utility.yul\":4555:5174   */\n      swap3\n      pop\n      swap3\n      pop\n      swap3\n      jump\t// out\n        /* \"#utility.yul\":5180:5257   */\n    tag_294:\n        /* \"#utility.yul\":5217:5224   */\n      0x00\n        /* \"#utility.yul\":5246:5251   */\n      dup2\n        /* \"#utility.yul\":5235:5251   */\n      swap1\n      pop\n        /* \"#utility.yul\":5180:5257   */\n      swap2\n      swap1\n      pop\n      jump\t// out\n        /* \"#utility.yul\":5263:5385   */\n    tag_295:\n        /* \"#utility.yul\":5336:5360   */\n      tag_394\n        /* \"#utility.yul\":5354:5359   */\n      dup2\n        /* \"#utility.yul\":5336:5360   */\n      tag_294\n      jump\t// in\n    tag_394:\n        /* \"#utility.yul\":5329:5334   */\n      dup2\n        /* \"#utility.yul\":5326:5361   */\n      eq\n        /* \"#utility.yul\":5316:5379   */\n      tag_395\n      jumpi\n        /* \"#utility.yul\":5375:5376   */\n      0x00\n        /* \"#utility.yul\":5372:5373   */\n      dup1\n        /* \"#utility.yul\":5365:5377   */\n      revert\n        /* \"#utility.yul\":5316:5379   */\n    tag_395:\n        /* \"#utility.yul\":5263:5385   */\n      pop\n      jump\t// out\n        /* \"#utility.yul\":5391:5530   */\n    tag_296:\n        /* \"#utility.yul\":5437:5442   */\n      0x00\n        /* \"#utility.yul\":5475:5481   */\n      dup2\n        /* \"#utility.yul\":5462:5482   */\n      calldataload\n        /* \"#utility.yul\":5453:5482   */\n      swap1\n      pop\n        /* \"#utility.yul\":5491:5524   */\n      tag_397\n        /* \"#utility.yul\":5518:5523   */\n      dup2\n        /* \"#utility.yul\":5491:5524   */\n      tag_295\n      jump\t// in\n    tag_397:\n        /* \"#utility.yul\":5391:5530   */\n      swap3\n      swap2\n      pop\n      pop\n      jump\t// out\n        /* \"#utility.yul\":5536:5865   */\n    tag_54:\n        /* \"#utility.yul\":5595:5601   */\n      0x00\n        /* \"#utility.yul\":5644:5646   */\n      0x20\n        /* \"#utility.yul\":5632:5641   */\n      dup3\n        /* \"#utility.yul\":5623:5630   */\n      dup5\n        /* \"#utility.yul\":5619:5642   */\n      sub\n        /* \"#utility.yul\":5615:5647   */\n      slt\n        /* \"#utility.yul\":5612:5731   */\n      iszero\n      tag_399\n      jumpi\n        /* \"#utility.yul\":5650:5729   */\n      tag_400\n      tag_274\n      jump\t// in\n    tag_400:\n        /* \"#utility.yul\":5612:5731   */\n    tag_399:\n        /* \"#utility.yul\":5770:5771   */\n      0x00\n        /* \"#utility.yul\":5795:5848   */\n      tag_401\n        /* \"#utility.yul\":5840:5847   */\n      dup5\n        /* \"#utility.yul\":5831:5837   */\n      dup3\n        /* \"#utility.yul\":5820:5829   */\n      dup6\n        /* \"#utility.yul\":5816:5838   */\n      add\n        /* \"#utility.yul\":5795:5848   */\n      tag_296\n      jump\t// in\n    tag_401:\n        /* \"#utility.yul\":5785:5848   */\n      swap2\n      pop\n        /* \"#utility.yul\":5741:5858   */\n      pop\n        /* \"#utility.yul\":5536:5865   */\n      swap3\n      swap2\n      pop\n      pop\n      jump\t// out\n        /* \"#utility.yul\":5871:5989   */\n    tag_297:\n        /* \"#utility.yul\":5958:5982   */\n      tag_403\n        /* \"#utility.yul\":5976:5981   */\n      dup2\n        /* \"#utility.yul\":5958:5982   */\n      tag_294\n      jump\t// in\n    tag_403:\n        /* \"#utility.yul\":5953:5956   */\n      dup3\n        /* \"#utility.yul\":5946:5983   */\n      mstore\n        /* \"#utility.yul\":5871:5989   */\n      pop\n      pop\n      jump\t// out\n        /* \"#utility.yul\":5995:6217   */\n    tag_57:\n        /* \"#utility.yul\":6088:6092   */\n      0x00\n        /* \"#utility.yul\":6126:6128   */\n      0x20\n        /* \"#utility.yul\":6115:6124   */\n      dup3\n        /* \"#utility.yul\":6111:6129   */\n      add\n        /* \"#utility.yul\":6103:6129   */\n      swap1\n      pop\n        /* \"#utility.yul\":6139:6210   */\n      tag_405\n        /* \"#utility.yul\":6207:6208   */\n      0x00\n        /* \"#utility.yul\":6196:6205   */\n      dup4\n        /* \"#utility.yul\":6192:6209   */\n      add\n        /* \"#utility.yul\":6183:6189   */\n      dup5\n        /* \"#utility.yul\":6139:6210   */\n      tag_297\n      jump\t// in\n    tag_405:\n        /* \"#utility.yul\":5995:6217   */\n      swap3\n      swap2\n      pop\n      pop\n      jump\t// out\n        /* \"#utility.yul\":6223:6697   */\n    tag_60:\n        /* \"#utility.yul\":6291:6297   */\n      0x00\n        /* \"#utility.yul\":6299:6305   */\n      dup1\n        /* \"#utility.yul\":6348:6350   */\n      0x40\n        /* \"#utility.yul\":6336:6345   */\n      dup4\n        /* \"#utility.yul\":6327:6334   */\n      dup6\n        /* \"#utility.yul\":6323:6346   */\n      sub\n        /* \"#utility.yul\":6319:6351   */\n      slt\n        /* \"#utility.yul\":6316:6435   */\n      iszero\n      tag_407\n      jumpi\n        /* \"#utility.yul\":6354:6433   */\n      tag_408\n      tag_274\n      jump\t// in\n    tag_408:\n        /* \"#utility.yul\":6316:6435   */\n    tag_407:\n        /* \"#utility.yul\":6474:6475   */\n      0x00\n        /* \"#utility.yul\":6499:6552   */\n      tag_409\n        /* \"#utility.yul\":6544:6551   */\n      dup6\n        /* \"#utility.yul\":6535:6541   */\n      dup3\n        /* \"#utility.yul\":6524:6533   */\n      dup7\n        /* \"#utility.yul\":6520:6542   */\n      add\n        /* \"#utility.yul\":6499:6552   */\n      tag_296\n      jump\t// in\n    tag_409:\n        /* \"#utility.yul\":6489:6552   */\n      swap3\n      pop\n        /* \"#utility.yul\":6445:6562   */\n      pop\n        /* \"#utility.yul\":6601:6603   */\n      0x20\n        /* \"#utility.yul\":6627:6680   */\n      tag_410\n        /* \"#utility.yul\":6672:6679   */\n      dup6\n        /* \"#utility.yul\":6663:6669   */\n      dup3\n        /* \"#utility.yul\":6652:6661   */\n      dup7\n        /* \"#utility.yul\":6648:6670   */\n      add\n        /* \"#utility.yul\":6627:6680   */\n      tag_289\n      jump\t// in\n    tag_410:\n        /* \"#utility.yul\":6617:6680   */\n      swap2\n      pop\n        /* \"#utility.yul\":6572:6690   */\n      pop\n        /* \"#utility.yul\":6223:6697   */\n      swap3\n      pop\n      swap3\n      swap1\n      pop\n      jump\t// out\n        /* \"#utility.yul\":6703:6789   */\n    tag_298:\n        /* \"#utility.yul\":6738:6745   */\n      0x00\n        /* \"#utility.yul\":6778:6782   */\n      0xff\n        /* \"#utility.yul\":6771:6776   */\n      dup3\n        /* \"#utility.yul\":6767:6783   */\n      and\n        /* \"#utility.yul\":6756:6783   */\n      swap1\n      pop\n        /* \"#utility.yul\":6703:6789   */\n      swap2\n      swap1\n      pop\n      jump\t// out\n        /* \"#utility.yul\":6795:6907   */\n    tag_299:\n        /* \"#utility.yul\":6878:6900   */\n      tag_413\n        /* \"#utility.yul\":6894:6899   */\n      dup2\n        /* \"#utility.yul\":6878:6900   */\n      tag_298\n      jump\t// in\n    tag_413:\n        /* \"#utility.yul\":6873:6876   */\n      dup3\n        /* \"#utility.yul\":6866:6901   */\n      mstore\n        /* \"#utility.yul\":6795:6907   */\n      pop\n      pop\n      jump\t// out\n        /* \"#utility.yul\":6913:7127   */\n    tag_65:\n        /* \"#utility.yul\":7002:7006   */\n      0x00\n        /* \"#utility.yul\":7040:7042   */\n      0x20\n        /* \"#utility.yul\":7029:7038   */\n      dup3\n        /* \"#utility.yul\":7025:7043   */\n      add\n        /* \"#utility.yul\":7017:7043   */\n      swap1\n      pop\n        /* \"#utility.yul\":7053:7120   */\n      tag_415\n        /* \"#utility.yul\":7117:7118   */\n      0x00\n        /* \"#utility.yul\":7106:7115   */\n      dup4\n        /* \"#utility.yul\":7102:7119   */\n      add\n        /* \"#utility.yul\":7093:7099   */\n      dup5\n        /* \"#utility.yul\":7053:7120   */\n      tag_299\n      jump\t// in\n    tag_415:\n        /* \"#utility.yul\":6913:7127   */\n      swap3\n      swap2\n      pop\n      pop\n      jump\t// out\n        /* \"#utility.yul\":7133:7462   */\n    tag_78:\n        /* \"#utility.yul\":7192:7198   */\n      0x00\n        /* \"#utility.yul\":7241:7243   */\n      0x20\n        /* \"#utility.yul\":7229:7238   */\n      dup3\n        /* \"#utility.yul\":7220:7227   */\n      dup5\n        /* \"#utility.yul\":7216:7239   */\n      sub\n        /* \"#utility.yul\":7212:7244   */\n      slt\n        /* \"#utility.yul\":7209:7328   */\n      iszero\n      tag_417\n      jumpi\n        /* \"#utility.yul\":7247:7326   */\n      tag_418\n      tag_274\n      jump\t// in\n    tag_418:\n        /* \"#utility.yul\":7209:7328   */\n    tag_417:\n        /* \"#utility.yul\":7367:7368   */\n      0x00\n        /* \"#utility.yul\":7392:7445   */\n      tag_419\n        /* \"#utility.yul\":7437:7444   */\n      dup5\n        /* \"#utility.yul\":7428:7434   */\n      dup3\n        /* \"#utility.yul\":7417:7426   */\n      dup6\n        /* \"#utility.yul\":7413:7435   */\n      add\n        /* \"#utility.yul\":7392:7445   */\n      tag_292\n      jump\t// in\n    tag_419:\n        /* \"#utility.yul\":7382:7445   */\n      swap2\n      pop\n        /* \"#utility.yul\":7338:7455   */\n      pop\n        /* \"#utility.yul\":7133:7462   */\n      swap3\n      swap2\n      pop\n      pop\n      jump\t// out\n        /* \"#utility.yul\":7468:7797   */\n    tag_82:\n        /* \"#utility.yul\":7527:7533   */\n      0x00\n        /* \"#utility.yul\":7576:7578   */\n      0x20\n        /* \"#utility.yul\":7564:7573   */\n      dup3\n        /* \"#utility.yul\":7555:7562   */\n      dup5\n        /* \"#utility.yul\":7551:7574   */\n      sub\n        /* \"#utility.yul\":7547:7579   */\n      slt\n        /* \"#utility.yul\":7544:7663   */\n      iszero\n      tag_421\n      jumpi\n        /* \"#utility.yul\":7582:7661   */\n      tag_422\n      tag_274\n      jump\t// in\n    tag_422:\n        /* \"#utility.yul\":7544:7663   */\n    tag_421:\n        /* \"#utility.yul\":7702:7703   */\n      0x00\n        /* \"#utility.yul\":7727:7780   */\n      tag_423\n        /* \"#utility.yul\":7772:7779   */\n      dup5\n        /* \"#utility.yul\":7763:7769   */\n      dup3\n        /* \"#utility.yul\":7752:7761   */\n      dup6\n        /* \"#utility.yul\":7748:7770   */\n      add\n        /* \"#utility.yul\":7727:7780   */\n      tag_289\n      jump\t// in\n    tag_423:\n        /* \"#utility.yul\":7717:7780   */\n      swap2\n      pop\n        /* \"#utility.yul\":7673:7790   */\n      pop\n        /* \"#utility.yul\":7468:7797   */\n      swap3\n      swap2\n      pop\n      pop\n      jump\t// out\n        /* \"#utility.yul\":7803:8277   */\n    tag_114:\n        /* \"#utility.yul\":7871:7877   */\n      0x00\n        /* \"#utility.yul\":7879:7885   */\n      dup1\n        /* \"#utility.yul\":7928:7930   */\n      0x40\n        /* \"#utility.yul\":7916:7925   */\n      dup4\n        /* \"#utility.yul\":7907:7914   */\n      dup6\n        /* \"#utility.yul\":7903:7926   */\n      sub\n        /* \"#utility.yul\":7899:7931   */\n      slt\n        /* \"#utility.yul\":7896:8015   */\n      iszero\n      tag_425\n      jumpi\n        /* \"#utility.yul\":7934:8013   */\n      tag_426\n      tag_274\n      jump\t// in\n    tag_426:\n        /* \"#utility.yul\":7896:8015   */\n    tag_425:\n        /* \"#utility.yul\":8054:8055   */\n      0x00\n        /* \"#utility.yul\":8079:8132   */\n      tag_427\n        /* \"#utility.yul\":8124:8131   */\n      dup6\n        /* \"#utility.yul\":8115:8121   */\n      dup3\n        /* \"#utility.yul\":8104:8113   */\n      dup7\n        /* \"#utility.yul\":8100:8122   */\n      add\n        /* \"#utility.yul\":8079:8132   */\n      tag_289\n      jump\t// in\n    tag_427:\n        /* \"#utility.yul\":8069:8132   */\n      swap3\n      pop\n        /* \"#utility.yul\":8025:8142   */\n      pop\n        /* \"#utility.yul\":8181:8183   */\n      0x20\n        /* \"#utility.yul\":8207:8260   */\n      tag_428\n        /* \"#utility.yul\":8252:8259   */\n      dup6\n        /* \"#utility.yul\":8243:8249   */\n      dup3\n        /* \"#utility.yul\":8232:8241   */\n      dup7\n        /* \"#utility.yul\":8228:8250   */\n      add\n        /* \"#utility.yul\":8207:8260   */\n      tag_289\n      jump\t// in\n    tag_428:\n        /* \"#utility.yul\":8197:8260   */\n      swap2\n      pop\n        /* \"#utility.yul\":8152:8270   */\n      pop\n        /* \"#utility.yul\":7803:8277   */\n      swap3\n      pop\n      swap3\n      swap1\n      pop\n      jump\t// out\n        /* \"#utility.yul\":8283:8463   */\n    tag_300:\n        /* \"#utility.yul\":8331:8408   */\n      0x4e487b7100000000000000000000000000000000000000000000000000000000\n        /* \"#utility.yul\":8328:8329   */\n      0x00\n        /* \"#utility.yul\":8321:8409   */\n      mstore\n        /* \"#utility.yul\":8428:8432   */\n      0x22\n        /* \"#utility.yul\":8425:8426   */\n      0x04\n        /* \"#utility.yul\":8418:8433   */\n      mstore\n        /* \"#utility.yul\":8452:8456   */\n      0x24\n        /* \"#utility.yul\":8449:8450   */\n      0x00\n        /* \"#utility.yul\":8442:8457   */\n      revert\n        /* \"#utility.yul\":8469:8789   */\n    tag_123:\n        /* \"#utility.yul\":8513:8519   */\n      0x00\n        /* \"#utility.yul\":8550:8551   */\n      0x02\n        /* \"#utility.yul\":8544:8548   */\n      dup3\n        /* \"#utility.yul\":8540:8552   */\n      div\n        /* \"#utility.yul\":8530:8552   */\n      swap1\n      pop\n        /* \"#utility.yul\":8597:8598   */\n      0x01\n        /* \"#utility.yul\":8591:8595   */\n      dup3\n        /* \"#utility.yul\":8587:8599   */\n      and\n        /* \"#utility.yul\":8618:8636   */\n      dup1\n        /* \"#utility.yul\":8608:8689   */\n      tag_431\n      jumpi\n        /* \"#utility.yul\":8674:8678   */\n      0x7f\n        /* \"#utility.yul\":8666:8672   */\n      dup3\n        /* \"#utility.yul\":8662:8679   */\n      and\n        /* \"#utility.yul\":8652:8679   */\n      swap2\n      pop\n        /* \"#utility.yul\":8608:8689   */\n    tag_431:\n        /* \"#utility.yul\":8736:8738   */\n      0x20\n        /* \"#utility.yul\":8728:8734   */\n      dup3\n        /* \"#utility.yul\":8725:8739   */\n      lt\n        /* \"#utility.yul\":8705:8723   */\n      dup2\n        /* \"#utility.yul\":8702:8740   */\n      sub\n        /* \"#utility.yul\":8699:8783   */\n      tag_432\n      jumpi\n        /* \"#utility.yul\":8755:8773   */\n      tag_433\n      tag_300\n      jump\t// in\n    tag_433:\n        /* \"#utility.yul\":8699:8783   */\n    tag_432:\n        /* \"#utility.yul\":8520:8789   */\n      pop\n        /* \"#utility.yul\":8469:8789   */\n      swap2\n      swap1\n      pop\n      jump\t// out\n        /* \"#utility.yul\":8795:8970   */\n    tag_301:\n        /* \"#utility.yul\":8935:8962   */\n      0x5370656e64657220657320646972656363696f6e207a65726f00000000000000\n        /* \"#utility.yul\":8931:8932   */\n      0x00\n        /* \"#utility.yul\":8923:8929   */\n      dup3\n        /* \"#utility.yul\":8919:8933   */\n      add\n        /* \"#utility.yul\":8912:8963   */\n      mstore\n        /* \"#utility.yul\":8795:8970   */\n      pop\n      jump\t// out\n        /* \"#utility.yul\":8976:9342   */\n    tag_302:\n        /* \"#utility.yul\":9118:9121   */\n      0x00\n        /* \"#utility.yul\":9139:9206   */\n      tag_436\n        /* \"#utility.yul\":9203:9205   */\n      0x19\n        /* \"#utility.yul\":9198:9201   */\n      dup4\n        /* \"#utility.yul\":9139:9206   */\n      tag_282\n      jump\t// in\n    tag_436:\n        /* \"#utility.yul\":9132:9206   */\n      swap2\n      pop\n        /* \"#utility.yul\":9215:9308   */\n      tag_437\n        /* \"#utility.yul\":9304:9307   */\n      dup3\n        /* \"#utility.yul\":9215:9308   */\n      tag_301\n      jump\t// in\n    tag_437:\n        /* \"#utility.yul\":9333:9335   */\n      0x20\n        /* \"#utility.yul\":9328:9331   */\n      dup3\n        /* \"#utility.yul\":9324:9336   */\n      add\n        /* \"#utility.yul\":9317:9336   */\n      swap1\n      pop\n        /* \"#utility.yul\":8976:9342   */\n      swap2\n      swap1\n      pop\n      jump\t// out\n        /* \"#utility.yul\":9348:9767   */\n    tag_131:\n        /* \"#utility.yul\":9514:9518   */\n      0x00\n        /* \"#utility.yul\":9552:9554   */\n      0x20\n        /* \"#utility.yul\":9541:9550   */\n      dup3\n        /* \"#utility.yul\":9537:9555   */\n      add\n        /* \"#utility.yul\":9529:9555   */\n      swap1\n      pop\n        /* \"#utility.yul\":9601:9610   */\n      dup2\n        /* \"#utility.yul\":9595:9599   */\n      dup2\n        /* \"#utility.yul\":9591:9611   */\n      sub\n        /* \"#utility.yul\":9587:9588   */\n      0x00\n        /* \"#utility.yul\":9576:9585   */\n      dup4\n        /* \"#utility.yul\":9572:9589   */\n      add\n        /* \"#utility.yul\":9565:9612   */\n      mstore\n        /* \"#utility.yul\":9629:9760   */\n      tag_439\n        /* \"#utility.yul\":9755:9759   */\n      dup2\n        /* \"#utility.yul\":9629:9760   */\n      tag_302\n      jump\t// in\n    tag_439:\n        /* \"#utility.yul\":9621:9760   */\n      swap1\n      pop\n        /* \"#utility.yul\":9348:9767   */\n      swap2\n      swap1\n      pop\n      jump\t// out\n        /* \"#utility.yul\":9773:9949   */\n    tag_303:\n        /* \"#utility.yul\":9913:9941   */\n      0x456e766961646f2064657364652061646472657373207a65726f000000000000\n        /* \"#utility.yul\":9909:9910   */\n      0x00\n        /* \"#utility.yul\":9901:9907   */\n      dup3\n        /* \"#utility.yul\":9897:9911   */\n      add\n        /* \"#utility.yul\":9890:9942   */\n      mstore\n        /* \"#utility.yul\":9773:9949   */\n      pop\n      jump\t// out\n        /* \"#utility.yul\":9955:10321   */\n    tag_304:\n        /* \"#utility.yul\":10097:10100   */\n      0x00\n        /* \"#utility.yul\":10118:10185   */\n      tag_442\n        /* \"#utility.yul\":10182:10184   */\n      0x1a\n        /* \"#utility.yul\":10177:10180   */\n      dup4\n        /* \"#utility.yul\":10118:10185   */\n      tag_282\n      jump\t// in\n    tag_442:\n        /* \"#utility.yul\":10111:10185   */\n      swap2\n      pop\n        /* \"#utility.yul\":10194:10287   */\n      tag_443\n        /* \"#utility.yul\":10283:10286   */\n      dup3\n        /* \"#utility.yul\":10194:10287   */\n      tag_303\n      jump\t// in\n    tag_443:\n        /* \"#utility.yul\":10312:10314   */\n      0x20\n        /* \"#utility.yul\":10307:10310   */\n      dup3\n        /* \"#utility.yul\":10303:10315   */\n      add\n        /* \"#utility.yul\":10296:10315   */\n      swap1\n      pop\n        /* \"#utility.yul\":9955:10321   */\n      swap2\n      swap1\n      pop\n      jump\t// out\n        /* \"#utility.yul\":10327:10746   */\n    tag_137:\n        /* \"#utility.yul\":10493:10497   */\n      0x00\n        /* \"#utility.yul\":10531:10533   */\n      0x20\n        /* \"#utility.yul\":10520:10529   */\n      dup3\n        /* \"#utility.yul\":10516:10534   */\n      add\n        /* \"#utility.yul\":10508:10534   */\n      swap1\n      pop\n        /* \"#utility.yul\":10580:10589   */\n      dup2\n        /* \"#utility.yul\":10574:10578   */\n      dup2\n        /* \"#utility.yul\":10570:10590   */\n      sub\n        /* \"#utility.yul\":10566:10567   */\n      0x00\n        /* \"#utility.yul\":10555:10564   */\n      dup4\n        /* \"#utility.yul\":10551:10568   */\n      add\n        /* \"#utility.yul\":10544:10591   */\n      mstore\n        /* \"#utility.yul\":10608:10739   */\n      tag_445\n        /* \"#utility.yul\":10734:10738   */\n      dup2\n        /* \"#utility.yul\":10608:10739   */\n      tag_304\n      jump\t// in\n    tag_445:\n        /* \"#utility.yul\":10600:10739   */\n      swap1\n      pop\n        /* \"#utility.yul\":10327:10746   */\n      swap2\n      swap1\n      pop\n      jump\t// out\n        /* \"#utility.yul\":10752:10924   */\n    tag_305:\n        /* \"#utility.yul\":10892:10916   */\n      0x456e766961646f20612061646472657373207a65726f00000000000000000000\n        /* \"#utility.yul\":10888:10889   */\n      0x00\n        /* \"#utility.yul\":10880:10886   */\n      dup3\n        /* \"#utility.yul\":10876:10890   */\n      add\n        /* \"#utility.yul\":10869:10917   */\n      mstore\n        /* \"#utility.yul\":10752:10924   */\n      pop\n      jump\t// out\n        /* \"#utility.yul\":10930:11296   */\n    tag_306:\n        /* \"#utility.yul\":11072:11075   */\n      0x00\n        /* \"#utility.yul\":11093:11160   */\n      tag_448\n        /* \"#utility.yul\":11157:11159   */\n      0x16\n        /* \"#utility.yul\":11152:11155   */\n      dup4\n        /* \"#utility.yul\":11093:11160   */\n      tag_282\n      jump\t// in\n    tag_448:\n        /* \"#utility.yul\":11086:11160   */\n      swap2\n      pop\n        /* \"#utility.yul\":11169:11262   */\n      tag_449\n        /* \"#utility.yul\":11258:11261   */\n      dup3\n        /* \"#utility.yul\":11169:11262   */\n      tag_305\n      jump\t// in\n    tag_449:\n        /* \"#utility.yul\":11287:11289   */\n      0x20\n        /* \"#utility.yul\":11282:11285   */\n      dup3\n        /* \"#utility.yul\":11278:11290   */\n      add\n        /* \"#utility.yul\":11271:11290   */\n      swap1\n      pop\n        /* \"#utility.yul\":10930:11296   */\n      swap2\n      swap1\n      pop\n      jump\t// out\n        /* \"#utility.yul\":11302:11721   */\n    tag_140:\n        /* \"#utility.yul\":11468:11472   */\n      0x00\n        /* \"#utility.yul\":11506:11508   */\n      0x20\n        /* \"#utility.yul\":11495:11504   */\n      dup3\n        /* \"#utility.yul\":11491:11509   */\n      add\n        /* \"#utility.yul\":11483:11509   */\n      swap1\n      pop\n        /* \"#utility.yul\":11555:11564   */\n      dup2\n        /* \"#utility.yul\":11549:11553   */\n      dup2\n        /* \"#utility.yul\":11545:11565   */\n      sub\n        /* \"#utility.yul\":11541:11542   */\n      0x00\n        /* \"#utility.yul\":11530:11539   */\n      dup4\n        /* \"#utility.yul\":11526:11543   */\n      add\n        /* \"#utility.yul\":11519:11566   */\n      mstore\n        /* \"#utility.yul\":11583:11714   */\n      tag_451\n        /* \"#utility.yul\":11709:11713   */\n      dup2\n        /* \"#utility.yul\":11583:11714   */\n      tag_306\n      jump\t// in\n    tag_451:\n        /* \"#utility.yul\":11575:11714   */\n      swap1\n      pop\n        /* \"#utility.yul\":11302:11721   */\n      swap2\n      swap1\n      pop\n      jump\t// out\n        /* \"#utility.yul\":11727:11904   */\n    tag_307:\n        /* \"#utility.yul\":11867:11896   */\n      0x4e6f2074656e676f20737566696369656e7465207065726d69736f0000000000\n        /* \"#utility.yul\":11863:11864   */\n      0x00\n        /* \"#utility.yul\":11855:11861   */\n      dup3\n        /* \"#utility.yul\":11851:11865   */\n      add\n        /* \"#utility.yul\":11844:11897   */\n      mstore\n        /* \"#utility.yul\":11727:11904   */\n      pop\n      jump\t// out\n        /* \"#utility.yul\":11910:12276   */\n    tag_308:\n        /* \"#utility.yul\":12052:12055   */\n      0x00\n        /* \"#utility.yul\":12073:12140   */\n      tag_454\n        /* \"#utility.yul\":12137:12139   */\n      0x1b\n        /* \"#utility.yul\":12132:12135   */\n      dup4\n        /* \"#utility.yul\":12073:12140   */\n      tag_282\n      jump\t// in\n    tag_454:\n        /* \"#utility.yul\":12066:12140   */\n      swap2\n      pop\n        /* \"#utility.yul\":12149:12242   */\n      tag_455\n        /* \"#utility.yul\":12238:12241   */\n      dup3\n        /* \"#utility.yul\":12149:12242   */\n      tag_307\n      jump\t// in\n    tag_455:\n        /* \"#utility.yul\":12267:12269   */\n      0x20\n        /* \"#utility.yul\":12262:12265   */\n      dup3\n        /* \"#utility.yul\":12258:12270   */\n      add\n        /* \"#utility.yul\":12251:12270   */\n      swap1\n      pop\n        /* \"#utility.yul\":11910:12276   */\n      swap2\n      swap1\n      pop\n      jump\t// out\n        /* \"#utility.yul\":12282:12701   */\n    tag_144:\n        /* \"#utility.yul\":12448:12452   */\n      0x00\n        /* \"#utility.yul\":12486:12488   */\n      0x20\n        /* \"#utility.yul\":12475:12484   */\n      dup3\n        /* \"#utility.yul\":12471:12489   */\n      add\n        /* \"#utility.yul\":12463:12489   */\n      swap1\n      pop\n        /* \"#utility.yul\":12535:12544   */\n      dup2\n        /* \"#utility.yul\":12529:12533   */\n      dup2\n        /* \"#utility.yul\":12525:12545   */\n      sub\n        /* \"#utility.yul\":12521:12522   */\n      0x00\n        /* \"#utility.yul\":12510:12519   */\n      dup4\n        /* \"#utility.yul\":12506:12523   */\n      add\n        /* \"#utility.yul\":12499:12546   */\n      mstore\n        /* \"#utility.yul\":12563:12694   */\n      tag_457\n        /* \"#utility.yul\":12689:12693   */\n      dup2\n        /* \"#utility.yul\":12563:12694   */\n      tag_308\n      jump\t// in\n    tag_457:\n        /* \"#utility.yul\":12555:12694   */\n      swap1\n      pop\n        /* \"#utility.yul\":12282:12701   */\n      swap2\n      swap1\n      pop\n      jump\t// out\n        /* \"#utility.yul\":12707:12887   */\n    tag_309:\n        /* \"#utility.yul\":12755:12832   */\n      0x4e487b7100000000000000000000000000000000000000000000000000000000\n        /* \"#utility.yul\":12752:12753   */\n      0x00\n        /* \"#utility.yul\":12745:12833   */\n      mstore\n        /* \"#utility.yul\":12852:12856   */\n      0x11\n        /* \"#utility.yul\":12849:12850   */\n      0x04\n        /* \"#utility.yul\":12842:12857   */\n      mstore\n        /* \"#utility.yul\":12876:12880   */\n      0x24\n        /* \"#utility.yul\":12873:12874   */\n      0x00\n        /* \"#utility.yul\":12866:12881   */\n      revert\n        /* \"#utility.yul\":12893:13087   */\n    tag_146:\n        /* \"#utility.yul\":12933:12937   */\n      0x00\n        /* \"#utility.yul\":12953:12973   */\n      tag_460\n        /* \"#utility.yul\":12971:12972   */\n      dup3\n        /* \"#utility.yul\":12953:12973   */\n      tag_290\n      jump\t// in\n    tag_460:\n        /* \"#utility.yul\":12948:12973   */\n      swap2\n      pop\n        /* \"#utility.yul\":12987:13007   */\n      tag_461\n        /* \"#utility.yul\":13005:13006   */\n      dup4\n        /* \"#utility.yul\":12987:13007   */\n      tag_290\n      jump\t// in\n    tag_461:\n        /* \"#utility.yul\":12982:13007   */\n      swap3\n      pop\n        /* \"#utility.yul\":13031:13032   */\n      dup3\n        /* \"#utility.yul\":13028:13029   */\n      dup3\n        /* \"#utility.yul\":13024:13033   */\n      sub\n        /* \"#utility.yul\":13016:13033   */\n      swap1\n      pop\n        /* \"#utility.yul\":13055:13056   */\n      dup2\n        /* \"#utility.yul\":13049:13053   */\n      dup2\n        /* \"#utility.yul\":13046:13057   */\n      gt\n        /* \"#utility.yul\":13043:13080   */\n      iszero\n      tag_462\n      jumpi\n        /* \"#utility.yul\":13060:13078   */\n      tag_463\n      tag_309\n      jump\t// in\n    tag_463:\n        /* \"#utility.yul\":13043:13080   */\n    tag_462:\n        /* \"#utility.yul\":12893:13087   */\n      swap3\n      swap2\n      pop\n      pop\n      jump\t// out\n        /* \"#utility.yul\":13093:13263   */\n    tag_310:\n        /* \"#utility.yul\":13233:13255   */\n      0x496e737566696369656e74657320746f6b656e73000000000000000000000000\n        /* \"#utility.yul\":13229:13230   */\n      0x00\n        /* \"#utility.yul\":13221:13227   */\n      dup3\n        /* \"#utility.yul\":13217:13231   */\n      add\n        /* \"#utility.yul\":13210:13256   */\n      mstore\n        /* \"#utility.yul\":13093:13263   */\n      pop\n      jump\t// out\n        /* \"#utility.yul\":13269:13635   */\n    tag_311:\n        /* \"#utility.yul\":13411:13414   */\n      0x00\n        /* \"#utility.yul\":13432:13499   */\n      tag_466\n        /* \"#utility.yul\":13496:13498   */\n      0x14\n        /* \"#utility.yul\":13491:13494   */\n      dup4\n        /* \"#utility.yul\":13432:13499   */\n      tag_282\n      jump\t// in\n    tag_466:\n        /* \"#utility.yul\":13425:13499   */\n      swap2\n      pop\n        /* \"#utility.yul\":13508:13601   */\n      tag_467\n        /* \"#utility.yul\":13597:13600   */\n      dup3\n        /* \"#utility.yul\":13508:13601   */\n      tag_310\n      jump\t// in\n    tag_467:\n        /* \"#utility.yul\":13626:13628   */\n      0x20\n        /* \"#utility.yul\":13621:13624   */\n      dup3\n        /* \"#utility.yul\":13617:13629   */\n      add\n        /* \"#utility.yul\":13610:13629   */\n      swap1\n      pop\n        /* \"#utility.yul\":13269:13635   */\n      swap2\n      swap1\n      pop\n      jump\t// out\n        /* \"#utility.yul\":13641:14060   */\n    tag_150:\n        /* \"#utility.yul\":13807:13811   */\n      0x00\n        /* \"#utility.yul\":13845:13847   */\n      0x20\n        /* \"#utility.yul\":13834:13843   */\n      dup3\n        /* \"#utility.yul\":13830:13848   */\n      add\n        /* \"#utility.yul\":13822:13848   */\n      swap1\n      pop\n        /* \"#utility.yul\":13894:13903   */\n      dup2\n        /* \"#utility.yul\":13888:13892   */\n      dup2\n        /* \"#utility.yul\":13884:13904   */\n      sub\n        /* \"#utility.yul\":13880:13881   */\n      0x00\n        /* \"#utility.yul\":13869:13878   */\n      dup4\n        /* \"#utility.yul\":13865:13882   */\n      add\n        /* \"#utility.yul\":13858:13905   */\n      mstore\n        /* \"#utility.yul\":13922:14053   */\n      tag_469\n        /* \"#utility.yul\":14048:14052   */\n      dup2\n        /* \"#utility.yul\":13922:14053   */\n      tag_311\n      jump\t// in\n    tag_469:\n        /* \"#utility.yul\":13914:14053   */\n      swap1\n      pop\n        /* \"#utility.yul\":13641:14060   */\n      swap2\n      swap1\n      pop\n      jump\t// out\n        /* \"#utility.yul\":14066:14257   */\n    tag_153:\n        /* \"#utility.yul\":14106:14109   */\n      0x00\n        /* \"#utility.yul\":14125:14145   */\n      tag_471\n        /* \"#utility.yul\":14143:14144   */\n      dup3\n        /* \"#utility.yul\":14125:14145   */\n      tag_290\n      jump\t// in\n    tag_471:\n        /* \"#utility.yul\":14120:14145   */\n      swap2\n      pop\n        /* \"#utility.yul\":14159:14179   */\n      tag_472\n        /* \"#utility.yul\":14177:14178   */\n      dup4\n        /* \"#utility.yul\":14159:14179   */\n      tag_290\n      jump\t// in\n    tag_472:\n        /* \"#utility.yul\":14154:14179   */\n      swap3\n      pop\n        /* \"#utility.yul\":14202:14203   */\n      dup3\n        /* \"#utility.yul\":14199:14200   */\n      dup3\n        /* \"#utility.yul\":14195:14204   */\n      add\n        /* \"#utility.yul\":14188:14204   */\n      swap1\n      pop\n        /* \"#utility.yul\":14223:14226   */\n      dup1\n        /* \"#utility.yul\":14220:14221   */\n      dup3\n        /* \"#utility.yul\":14217:14227   */\n      gt\n        /* \"#utility.yul\":14214:14250   */\n      iszero\n      tag_473\n      jumpi\n        /* \"#utility.yul\":14230:14248   */\n      tag_474\n      tag_309\n      jump\t// in\n    tag_474:\n        /* \"#utility.yul\":14214:14250   */\n    tag_473:\n        /* \"#utility.yul\":14066:14257   */\n      swap3\n      swap2\n      pop\n      pop\n      jump\t// out\n        /* \"#utility.yul\":14263:14497   */\n    tag_312:\n        /* \"#utility.yul\":14403:14437   */\n      0x416363657373436f6e74726f6c3a2063616e206f6e6c792072656e6f756e6365\n        /* \"#utility.yul\":14399:14400   */\n      0x00\n        /* \"#utility.yul\":14391:14397   */\n      dup3\n        /* \"#utility.yul\":14387:14401   */\n      add\n        /* \"#utility.yul\":14380:14438   */\n      mstore\n        /* \"#utility.yul\":14472:14489   */\n      0x20726f6c657320666f722073656c660000000000000000000000000000000000\n        /* \"#utility.yul\":14467:14469   */\n      0x20\n        /* \"#utility.yul\":14459:14465   */\n      dup3\n        /* \"#utility.yul\":14455:14470   */\n      add\n        /* \"#utility.yul\":14448:14490   */\n      mstore\n        /* \"#utility.yul\":14263:14497   */\n      pop\n      jump\t// out\n        /* \"#utility.yul\":14503:14869   */\n    tag_313:\n        /* \"#utility.yul\":14645:14648   */\n      0x00\n        /* \"#utility.yul\":14666:14733   */\n      tag_477\n        /* \"#utility.yul\":14730:14732   */\n      0x2f\n        /* \"#utility.yul\":14725:14728   */\n      dup4\n        /* \"#utility.yul\":14666:14733   */\n      tag_282\n      jump\t// in\n    tag_477:\n        /* \"#utility.yul\":14659:14733   */\n      swap2\n      pop\n        /* \"#utility.yul\":14742:14835   */\n      tag_478\n        /* \"#utility.yul\":14831:14834   */\n      dup3\n        /* \"#utility.yul\":14742:14835   */\n      tag_312\n      jump\t// in\n    tag_478:\n        /* \"#utility.yul\":14860:14862   */\n      0x40\n        /* \"#utility.yul\":14855:14858   */\n      dup3\n        /* \"#utility.yul\":14851:14863   */\n      add\n        /* \"#utility.yul\":14844:14863   */\n      swap1\n      pop\n        /* \"#utility.yul\":14503:14869   */\n      swap2\n      swap1\n      pop\n      jump\t// out\n        /* \"#utility.yul\":14875:15294   */\n    tag_169:\n        /* \"#utility.yul\":15041:15045   */\n      0x00\n        /* \"#utility.yul\":15079:15081   */\n      0x20\n        /* \"#utility.yul\":15068:15077   */\n      dup3\n        /* \"#utility.yul\":15064:15082   */\n      add\n        /* \"#utility.yul\":15056:15082   */\n      swap1\n      pop\n        /* \"#utility.yul\":15128:15137   */\n      dup2\n        /* \"#utility.yul\":15122:15126   */\n      dup2\n        /* \"#utility.yul\":15118:15138   */\n      sub\n        /* \"#utility.yul\":15114:15115   */\n      0x00\n        /* \"#utility.yul\":15103:15112   */\n      dup4\n        /* \"#utility.yul\":15099:15116   */\n      add\n        /* \"#utility.yul\":15092:15139   */\n      mstore\n        /* \"#utility.yul\":15156:15287   */\n      tag_480\n        /* \"#utility.yul\":15282:15286   */\n      dup2\n        /* \"#utility.yul\":15156:15287   */\n      tag_313\n      jump\t// in\n    tag_480:\n        /* \"#utility.yul\":15148:15287   */\n      swap1\n      pop\n        /* \"#utility.yul\":14875:15294   */\n      swap2\n      swap1\n      pop\n      jump\t// out\n        /* \"#utility.yul\":15300:15479   */\n    tag_314:\n        /* \"#utility.yul\":15440:15471   */\n      0x4d696e742061206661766f722064656c2061646472657373207a65726f000000\n        /* \"#utility.yul\":15436:15437   */\n      0x00\n        /* \"#utility.yul\":15428:15434   */\n      dup3\n        /* \"#utility.yul\":15424:15438   */\n      add\n        /* \"#utility.yul\":15417:15472   */\n      mstore\n        /* \"#utility.yul\":15300:15479   */\n      pop\n      jump\t// out\n        /* \"#utility.yul\":15485:15851   */\n    tag_315:\n        /* \"#utility.yul\":15627:15630   */\n      0x00\n        /* \"#utility.yul\":15648:15715   */\n      tag_483\n        /* \"#utility.yul\":15712:15714   */\n      0x1d\n        /* \"#utility.yul\":15707:15710   */\n      dup4\n        /* \"#utility.yul\":15648:15715   */\n      tag_282\n      jump\t// in\n    tag_483:\n        /* \"#utility.yul\":15641:15715   */\n      swap2\n      pop\n        /* \"#utility.yul\":15724:15817   */\n      tag_484\n        /* \"#utility.yul\":15813:15816   */\n      dup3\n        /* \"#utility.yul\":15724:15817   */\n      tag_314\n      jump\t// in\n    tag_484:\n        /* \"#utility.yul\":15842:15844   */\n      0x20\n        /* \"#utility.yul\":15837:15840   */\n      dup3\n        /* \"#utility.yul\":15833:15845   */\n      add\n        /* \"#utility.yul\":15826:15845   */\n      swap1\n      pop\n        /* \"#utility.yul\":15485:15851   */\n      swap2\n      swap1\n      pop\n      jump\t// out\n        /* \"#utility.yul\":15857:16276   */\n    tag_180:\n        /* \"#utility.yul\":16023:16027   */\n      0x00\n        /* \"#utility.yul\":16061:16063   */\n      0x20\n        /* \"#utility.yul\":16050:16059   */\n      dup3\n        /* \"#utility.yul\":16046:16064   */\n      add\n        /* \"#utility.yul\":16038:16064   */\n      swap1\n      pop\n        /* \"#utility.yul\":16110:16119   */\n      dup2\n        /* \"#utility.yul\":16104:16108   */\n      dup2\n        /* \"#utility.yul\":16100:16120   */\n      sub\n        /* \"#utility.yul\":16096:16097   */\n      0x00\n        /* \"#utility.yul\":16085:16094   */\n      dup4\n        /* \"#utility.yul\":16081:16098   */\n      add\n        /* \"#utility.yul\":16074:16121   */\n      mstore\n        /* \"#utility.yul\":16138:16269   */\n      tag_486\n        /* \"#utility.yul\":16264:16268   */\n      dup2\n        /* \"#utility.yul\":16138:16269   */\n      tag_315\n      jump\t// in\n    tag_486:\n        /* \"#utility.yul\":16130:16269   */\n      swap1\n      pop\n        /* \"#utility.yul\":15857:16276   */\n      swap2\n      swap1\n      pop\n      jump\t// out\n        /* \"#utility.yul\":16282:16458   */\n    tag_316:\n        /* \"#utility.yul\":16422:16450   */\n      0x53757065726120656c204d415820544f54414c20535550504c59000000000000\n        /* \"#utility.yul\":16418:16419   */\n      0x00\n        /* \"#utility.yul\":16410:16416   */\n      dup3\n        /* \"#utility.yul\":16406:16420   */\n      add\n        /* \"#utility.yul\":16399:16451   */\n      mstore\n        /* \"#utility.yul\":16282:16458   */\n      pop\n      jump\t// out\n        /* \"#utility.yul\":16464:16830   */\n    tag_317:\n        /* \"#utility.yul\":16606:16609   */\n      0x00\n        /* \"#utility.yul\":16627:16694   */\n      tag_489\n        /* \"#utility.yul\":16691:16693   */\n      0x1a\n        /* \"#utility.yul\":16686:16689   */\n      dup4\n        /* \"#utility.yul\":16627:16694   */\n      tag_282\n      jump\t// in\n    tag_489:\n        /* \"#utility.yul\":16620:16694   */\n      swap2\n      pop\n        /* \"#utility.yul\":16703:16796   */\n      tag_490\n        /* \"#utility.yul\":16792:16795   */\n      dup3\n        /* \"#utility.yul\":16703:16796   */\n      tag_316\n      jump\t// in\n    tag_490:\n        /* \"#utility.yul\":16821:16823   */\n      0x20\n        /* \"#utility.yul\":16816:16819   */\n      dup3\n        /* \"#utility.yul\":16812:16824   */\n      add\n        /* \"#utility.yul\":16805:16824   */\n      swap1\n      pop\n        /* \"#utility.yul\":16464:16830   */\n      swap2\n      swap1\n      pop\n      jump\t// out\n        /* \"#utility.yul\":16836:17255   */\n    tag_185:\n        /* \"#utility.yul\":17002:17006   */\n      0x00\n        /* \"#utility.yul\":17040:17042   */\n      0x20\n        /* \"#utility.yul\":17029:17038   */\n      dup3\n        /* \"#utility.yul\":17025:17043   */\n      add\n        /* \"#utility.yul\":17017:17043   */\n      swap1\n      pop\n        /* \"#utility.yul\":17089:17098   */\n      dup2\n        /* \"#utility.yul\":17083:17087   */\n      dup2\n        /* \"#utility.yul\":17079:17099   */\n      sub\n        /* \"#utility.yul\":17075:17076   */\n      0x00\n        /* \"#utility.yul\":17064:17073   */\n      dup4\n        /* \"#utility.yul\":17060:17077   */\n      add\n        /* \"#utility.yul\":17053:17100   */\n      mstore\n        /* \"#utility.yul\":17117:17248   */\n      tag_492\n        /* \"#utility.yul\":17243:17247   */\n      dup2\n        /* \"#utility.yul\":17117:17248   */\n      tag_317\n      jump\t// in\n    tag_492:\n        /* \"#utility.yul\":17109:17248   */\n      swap1\n      pop\n        /* \"#utility.yul\":16836:17255   */\n      swap2\n      swap1\n      pop\n      jump\t// out\n        /* \"#utility.yul\":17261:17432   */\n    tag_318:\n        /* \"#utility.yul\":17401:17424   */\n      0x5175656d616e646f206465206164647265737320300000000000000000000000\n        /* \"#utility.yul\":17397:17398   */\n      0x00\n        /* \"#utility.yul\":17389:17395   */\n      dup3\n        /* \"#utility.yul\":17385:17399   */\n      add\n        /* \"#utility.yul\":17378:17425   */\n      mstore\n        /* \"#utility.yul\":17261:17432   */\n      pop\n      jump\t// out\n        /* \"#utility.yul\":17438:17804   */\n    tag_319:\n        /* \"#utility.yul\":17580:17583   */\n      0x00\n        /* \"#utility.yul\":17601:17668   */\n      tag_495\n        /* \"#utility.yul\":17665:17667   */\n      0x15\n        /* \"#utility.yul\":17660:17663   */\n      dup4\n        /* \"#utility.yul\":17601:17668   */\n      tag_282\n      jump\t// in\n    tag_495:\n        /* \"#utility.yul\":17594:17668   */\n      swap2\n      pop\n        /* \"#utility.yul\":17677:17770   */\n      tag_496\n        /* \"#utility.yul\":17766:17769   */\n      dup3\n        /* \"#utility.yul\":17677:17770   */\n      tag_318\n      jump\t// in\n    tag_496:\n        /* \"#utility.yul\":17795:17797   */\n      0x20\n        /* \"#utility.yul\":17790:17793   */\n      dup3\n        /* \"#utility.yul\":17786:17798   */\n      add\n        /* \"#utility.yul\":17779:17798   */\n      swap1\n      pop\n        /* \"#utility.yul\":17438:17804   */\n      swap2\n      swap1\n      pop\n      jump\t// out\n        /* \"#utility.yul\":17810:18229   */\n    tag_190:\n        /* \"#utility.yul\":17976:17980   */\n      0x00\n        /* \"#utility.yul\":18014:18016   */\n      0x20\n        /* \"#utility.yul\":18003:18012   */\n      dup3\n        /* \"#utility.yul\":17999:18017   */\n      add\n        /* \"#utility.yul\":17991:18017   */\n      swap1\n      pop\n        /* \"#utility.yul\":18063:18072   */\n      dup2\n        /* \"#utility.yul\":18057:18061   */\n      dup2\n        /* \"#utility.yul\":18053:18073   */\n      sub\n        /* \"#utility.yul\":18049:18050   */\n      0x00\n        /* \"#utility.yul\":18038:18047   */\n      dup4\n        /* \"#utility.yul\":18034:18051   */\n      add\n        /* \"#utility.yul\":18027:18074   */\n      mstore\n        /* \"#utility.yul\":18091:18222   */\n      tag_498\n        /* \"#utility.yul\":18217:18221   */\n      dup2\n        /* \"#utility.yul\":18091:18222   */\n      tag_319\n      jump\t// in\n    tag_498:\n        /* \"#utility.yul\":18083:18222   */\n      swap1\n      pop\n        /* \"#utility.yul\":17810:18229   */\n      swap2\n      swap1\n      pop\n      jump\t// out\n        /* \"#utility.yul\":18235:18417   */\n    tag_320:\n        /* \"#utility.yul\":18375:18409   */\n      0x496e737566696369656e74657320746f6b656e732070617261207175656d6172\n        /* \"#utility.yul\":18371:18372   */\n      0x00\n        /* \"#utility.yul\":18363:18369   */\n      dup3\n        /* \"#utility.yul\":18359:18373   */\n      add\n        /* \"#utility.yul\":18352:18410   */\n      mstore\n        /* \"#utility.yul\":18235:18417   */\n      pop\n      jump\t// out\n        /* \"#utility.yul\":18423:18789   */\n    tag_321:\n        /* \"#utility.yul\":18565:18568   */\n      0x00\n        /* \"#utility.yul\":18586:18653   */\n      tag_501\n        /* \"#utility.yul\":18650:18652   */\n      0x20\n        /* \"#utility.yul\":18645:18648   */\n      dup4\n        /* \"#utility.yul\":18586:18653   */\n      tag_282\n      jump\t// in\n    tag_501:\n        /* \"#utility.yul\":18579:18653   */\n      swap2\n      pop\n        /* \"#utility.yul\":18662:18755   */\n      tag_502\n        /* \"#utility.yul\":18751:18754   */\n      dup3\n        /* \"#utility.yul\":18662:18755   */\n      tag_320\n      jump\t// in\n    tag_502:\n        /* \"#utility.yul\":18780:18782   */\n      0x20\n        /* \"#utility.yul\":18775:18778   */\n      dup3\n        /* \"#utility.yul\":18771:18783   */\n      add\n        /* \"#utility.yul\":18764:18783   */\n      swap1\n      pop\n        /* \"#utility.yul\":18423:18789   */\n      swap2\n      swap1\n      pop\n      jump\t// out\n        /* \"#utility.yul\":18795:19214   */\n    tag_194:\n        /* \"#utility.yul\":18961:18965   */\n      0x00\n        /* \"#utility.yul\":18999:19001   */\n      0x20\n        /* \"#utility.yul\":18988:18997   */\n      dup3\n        /* \"#utility.yul\":18984:19002   */\n      add\n        /* \"#utility.yul\":18976:19002   */\n      swap1\n      pop\n        /* \"#utility.yul\":19048:19057   */\n      dup2\n        /* \"#utility.yul\":19042:19046   */\n      dup2\n        /* \"#utility.yul\":19038:19058   */\n      sub\n        /* \"#utility.yul\":19034:19035   */\n      0x00\n        /* \"#utility.yul\":19023:19032   */\n      dup4\n        /* \"#utility.yul\":19019:19036   */\n      add\n        /* \"#utility.yul\":19012:19059   */\n      mstore\n        /* \"#utility.yul\":19076:19207   */\n      tag_504\n        /* \"#utility.yul\":19202:19206   */\n      dup2\n        /* \"#utility.yul\":19076:19207   */\n      tag_321\n      jump\t// in\n    tag_504:\n        /* \"#utility.yul\":19068:19207   */\n      swap1\n      pop\n        /* \"#utility.yul\":18795:19214   */\n      swap2\n      swap1\n      pop\n      jump\t// out\n        /* \"#utility.yul\":19220:19368   */\n    tag_322:\n        /* \"#utility.yul\":19322:19333   */\n      0x00\n        /* \"#utility.yul\":19359:19362   */\n      dup2\n        /* \"#utility.yul\":19344:19362   */\n      swap1\n      pop\n        /* \"#utility.yul\":19220:19368   */\n      swap3\n      swap2\n      pop\n      pop\n      jump\t// out\n        /* \"#utility.yul\":19374:19547   */\n    tag_323:\n        /* \"#utility.yul\":19514:19539   */\n      0x416363657373436f6e74726f6c3a206163636f756e7420000000000000000000\n        /* \"#utility.yul\":19510:19511   */\n      0x00\n        /* \"#utility.yul\":19502:19508   */\n      dup3\n        /* \"#utility.yul\":19498:19512   */\n      add\n        /* \"#utility.yul\":19491:19540   */\n      mstore\n        /* \"#utility.yul\":19374:19547   */\n      pop\n      jump\t// out\n        /* \"#utility.yul\":19553:19955   */\n    tag_324:\n        /* \"#utility.yul\":19713:19716   */\n      0x00\n        /* \"#utility.yul\":19734:19819   */\n      tag_508\n        /* \"#utility.yul\":19816:19818   */\n      0x17\n        /* \"#utility.yul\":19811:19814   */\n      dup4\n        /* \"#utility.yul\":19734:19819   */\n      tag_322\n      jump\t// in\n    tag_508:\n        /* \"#utility.yul\":19727:19819   */\n      swap2\n      pop\n        /* \"#utility.yul\":19828:19921   */\n      tag_509\n        /* \"#utility.yul\":19917:19920   */\n      dup3\n        /* \"#utility.yul\":19828:19921   */\n      tag_323\n      jump\t// in\n    tag_509:\n        /* \"#utility.yul\":19946:19948   */\n      0x17\n        /* \"#utility.yul\":19941:19944   */\n      dup3\n        /* \"#utility.yul\":19937:19949   */\n      add\n        /* \"#utility.yul\":19930:19949   */\n      swap1\n      pop\n        /* \"#utility.yul\":19553:19955   */\n      swap2\n      swap1\n      pop\n      jump\t// out\n        /* \"#utility.yul\":19961:20351   */\n    tag_325:\n        /* \"#utility.yul\":20067:20070   */\n      0x00\n        /* \"#utility.yul\":20095:20134   */\n      tag_511\n        /* \"#utility.yul\":20128:20133   */\n      dup3\n        /* \"#utility.yul\":20095:20134   */\n      tag_281\n      jump\t// in\n    tag_511:\n        /* \"#utility.yul\":20150:20239   */\n      tag_512\n        /* \"#utility.yul\":20232:20238   */\n      dup2\n        /* \"#utility.yul\":20227:20230   */\n      dup6\n        /* \"#utility.yul\":20150:20239   */\n      tag_322\n      jump\t// in\n    tag_512:\n        /* \"#utility.yul\":20143:20239   */\n      swap4\n      pop\n        /* \"#utility.yul\":20248:20313   */\n      tag_513\n        /* \"#utility.yul\":20306:20312   */\n      dup2\n        /* \"#utility.yul\":20301:20304   */\n      dup6\n        /* \"#utility.yul\":20294:20298   */\n      0x20\n        /* \"#utility.yul\":20287:20292   */\n      dup7\n        /* \"#utility.yul\":20283:20299   */\n      add\n        /* \"#utility.yul\":20248:20313   */\n      tag_283\n      jump\t// in\n    tag_513:\n        /* \"#utility.yul\":20338:20344   */\n      dup1\n        /* \"#utility.yul\":20333:20336   */\n      dup5\n        /* \"#utility.yul\":20329:20345   */\n      add\n        /* \"#utility.yul\":20322:20345   */\n      swap2\n      pop\n        /* \"#utility.yul\":20071:20351   */\n      pop\n        /* \"#utility.yul\":19961:20351   */\n      swap3\n      swap2\n      pop\n      pop\n      jump\t// out\n        /* \"#utility.yul\":20357:20524   */\n    tag_326:\n        /* \"#utility.yul\":20497:20516   */\n      0x206973206d697373696e6720726f6c6520000000000000000000000000000000\n        /* \"#utility.yul\":20493:20494   */\n      0x00\n        /* \"#utility.yul\":20485:20491   */\n      dup3\n        /* \"#utility.yul\":20481:20495   */\n      add\n        /* \"#utility.yul\":20474:20517   */\n      mstore\n        /* \"#utility.yul\":20357:20524   */\n      pop\n      jump\t// out\n        /* \"#utility.yul\":20530:20932   */\n    tag_327:\n        /* \"#utility.yul\":20690:20693   */\n      0x00\n        /* \"#utility.yul\":20711:20796   */\n      tag_516\n        /* \"#utility.yul\":20793:20795   */\n      0x11\n        /* \"#utility.yul\":20788:20791   */\n      dup4\n        /* \"#utility.yul\":20711:20796   */\n      tag_322\n      jump\t// in\n    tag_516:\n        /* \"#utility.yul\":20704:20796   */\n      swap2\n      pop\n        /* \"#utility.yul\":20805:20898   */\n      tag_517\n        /* \"#utility.yul\":20894:20897   */\n      dup3\n        /* \"#utility.yul\":20805:20898   */\n      tag_326\n      jump\t// in\n    tag_517:\n        /* \"#utility.yul\":20923:20925   */\n      0x11\n        /* \"#utility.yul\":20918:20921   */\n      dup3\n        /* \"#utility.yul\":20914:20926   */\n      add\n        /* \"#utility.yul\":20907:20926   */\n      swap1\n      pop\n        /* \"#utility.yul\":20530:20932   */\n      swap2\n      swap1\n      pop\n      jump\t// out\n        /* \"#utility.yul\":20938:21905   */\n    tag_244:\n        /* \"#utility.yul\":21320:21323   */\n      0x00\n        /* \"#utility.yul\":21342:21490   */\n      tag_519\n        /* \"#utility.yul\":21486:21489   */\n      dup3\n        /* \"#utility.yul\":21342:21490   */\n      tag_324\n      jump\t// in\n    tag_519:\n        /* \"#utility.yul\":21335:21490   */\n      swap2\n      pop\n        /* \"#utility.yul\":21507:21602   */\n      tag_520\n        /* \"#utility.yul\":21598:21601   */\n      dup3\n        /* \"#utility.yul\":21589:21595   */\n      dup6\n        /* \"#utility.yul\":21507:21602   */\n      tag_325\n      jump\t// in\n    tag_520:\n        /* \"#utility.yul\":21500:21602   */\n      swap2\n      pop\n        /* \"#utility.yul\":21619:21767   */\n      tag_521\n        /* \"#utility.yul\":21763:21766   */\n      dup3\n        /* \"#utility.yul\":21619:21767   */\n      tag_327\n      jump\t// in\n    tag_521:\n        /* \"#utility.yul\":21612:21767   */\n      swap2\n      pop\n        /* \"#utility.yul\":21784:21879   */\n      tag_522\n        /* \"#utility.yul\":21875:21878   */\n      dup3\n        /* \"#utility.yul\":21866:21872   */\n      dup5\n        /* \"#utility.yul\":21784:21879   */\n      tag_325\n      jump\t// in\n    tag_522:\n        /* \"#utility.yul\":21777:21879   */\n      swap2\n      pop\n        /* \"#utility.yul\":21896:21899   */\n      dup2\n        /* \"#utility.yul\":21889:21899   */\n      swap1\n      pop\n        /* \"#utility.yul\":20938:21905   */\n      swap4\n      swap3\n      pop\n      pop\n      pop\n      jump\t// out\n        /* \"#utility.yul\":21911:22321   */\n    tag_248:\n        /* \"#utility.yul\":21951:21958   */\n      0x00\n        /* \"#utility.yul\":21974:21994   */\n      tag_524\n        /* \"#utility.yul\":21992:21993   */\n      dup3\n        /* \"#utility.yul\":21974:21994   */\n      tag_290\n      jump\t// in\n    tag_524:\n        /* \"#utility.yul\":21969:21994   */\n      swap2\n      pop\n        /* \"#utility.yul\":22008:22028   */\n      tag_525\n        /* \"#utility.yul\":22026:22027   */\n      dup4\n        /* \"#utility.yul\":22008:22028   */\n      tag_290\n      jump\t// in\n    tag_525:\n        /* \"#utility.yul\":22003:22028   */\n      swap3\n      pop\n        /* \"#utility.yul\":22063:22064   */\n      dup3\n        /* \"#utility.yul\":22060:22061   */\n      dup3\n        /* \"#utility.yul\":22056:22065   */\n      mul\n        /* \"#utility.yul\":22085:22115   */\n      tag_526\n        /* \"#utility.yul\":22103:22114   */\n      dup2\n        /* \"#utility.yul\":22085:22115   */\n      tag_290\n      jump\t// in\n    tag_526:\n        /* \"#utility.yul\":22074:22115   */\n      swap2\n      pop\n        /* \"#utility.yul\":22264:22265   */\n      dup3\n        /* \"#utility.yul\":22255:22262   */\n      dup3\n        /* \"#utility.yul\":22251:22266   */\n      div\n        /* \"#utility.yul\":22248:22249   */\n      dup5\n        /* \"#utility.yul\":22245:22267   */\n      eq\n        /* \"#utility.yul\":22225:22226   */\n      dup4\n        /* \"#utility.yul\":22218:22227   */\n      iszero\n        /* \"#utility.yul\":22198:22281   */\n      or\n        /* \"#utility.yul\":22175:22314   */\n      tag_527\n      jumpi\n        /* \"#utility.yul\":22294:22312   */\n      tag_528\n      tag_309\n      jump\t// in\n    tag_528:\n        /* \"#utility.yul\":22175:22314   */\n    tag_527:\n        /* \"#utility.yul\":21959:22321   */\n      pop\n        /* \"#utility.yul\":21911:22321   */\n      swap3\n      swap2\n      pop\n      pop\n      jump\t// out\n        /* \"#utility.yul\":22327:22507   */\n    tag_252:\n        /* \"#utility.yul\":22375:22452   */\n      0x4e487b7100000000000000000000000000000000000000000000000000000000\n        /* \"#utility.yul\":22372:22373   */\n      0x00\n        /* \"#utility.yul\":22365:22453   */\n      mstore\n        /* \"#utility.yul\":22472:22476   */\n      0x41\n        /* \"#utility.yul\":22469:22470   */\n      0x04\n        /* \"#utility.yul\":22462:22477   */\n      mstore\n        /* \"#utility.yul\":22496:22500   */\n      0x24\n        /* \"#utility.yul\":22493:22494   */\n      0x00\n        /* \"#utility.yul\":22486:22501   */\n      revert\n        /* \"#utility.yul\":22513:22693   */\n    tag_256:\n        /* \"#utility.yul\":22561:22638   */\n      0x4e487b7100000000000000000000000000000000000000000000000000000000\n        /* \"#utility.yul\":22558:22559   */\n      0x00\n        /* \"#utility.yul\":22551:22639   */\n      mstore\n        /* \"#utility.yul\":22658:22662   */\n      0x32\n        /* \"#utility.yul\":22655:22656   */\n      0x04\n        /* \"#utility.yul\":22648:22663   */\n      mstore\n        /* \"#utility.yul\":22682:22686   */\n      0x24\n        /* \"#utility.yul\":22679:22680   */\n      0x00\n        /* \"#utility.yul\":22672:22687   */\n      revert\n        /* \"#utility.yul\":22699:22870   */\n    tag_269:\n        /* \"#utility.yul\":22738:22741   */\n      0x00\n        /* \"#utility.yul\":22761:22785   */\n      tag_532\n        /* \"#utility.yul\":22779:22784   */\n      dup3\n        /* \"#utility.yul\":22761:22785   */\n      tag_290\n      jump\t// in\n    tag_532:\n        /* \"#utility.yul\":22752:22785   */\n      swap2\n      pop\n        /* \"#utility.yul\":22807:22811   */\n      0x00\n        /* \"#utility.yul\":22800:22805   */\n      dup3\n        /* \"#utility.yul\":22797:22812   */\n      sub\n        /* \"#utility.yul\":22794:22835   */\n      tag_533\n      jumpi\n        /* \"#utility.yul\":22815:22833   */\n      tag_534\n      tag_309\n      jump\t// in\n    tag_534:\n        /* \"#utility.yul\":22794:22835   */\n    tag_533:\n        /* \"#utility.yul\":22862:22863   */\n      0x01\n        /* \"#utility.yul\":22855:22860   */\n      dup3\n        /* \"#utility.yul\":22851:22864   */\n      sub\n        /* \"#utility.yul\":22844:22864   */\n      swap1\n      pop\n        /* \"#utility.yul\":22699:22870   */\n      swap2\n      swap1\n      pop\n      jump\t// out\n        /* \"#utility.yul\":22876:23058   */\n    tag_328:\n        /* \"#utility.yul\":23016:23050   */\n      0x537472696e67733a20686578206c656e67746820696e73756666696369656e74\n        /* \"#utility.yul\":23012:23013   */\n      0x00\n        /* \"#utility.yul\":23004:23010   */\n      dup3\n        /* \"#utility.yul\":23000:23014   */\n      add\n        /* \"#utility.yul\":22993:23051   */\n      mstore\n        /* \"#utility.yul\":22876:23058   */\n      pop\n      jump\t// out\n        /* \"#utility.yul\":23064:23430   */\n    tag_329:\n        /* \"#utility.yul\":23206:23209   */\n      0x00\n        /* \"#utility.yul\":23227:23294   */\n      tag_537\n        /* \"#utility.yul\":23291:23293   */\n      0x20\n        /* \"#utility.yul\":23286:23289   */\n      dup4\n        /* \"#utility.yul\":23227:23294   */\n      tag_282\n      jump\t// in\n    tag_537:\n        /* \"#utility.yul\":23220:23294   */\n      swap2\n      pop\n        /* \"#utility.yul\":23303:23396   */\n      tag_538\n        /* \"#utility.yul\":23392:23395   */\n      dup3\n        /* \"#utility.yul\":23303:23396   */\n      tag_328\n      jump\t// in\n    tag_538:\n        /* \"#utility.yul\":23421:23423   */\n      0x20\n        /* \"#utility.yul\":23416:23419   */\n      dup3\n        /* \"#utility.yul\":23412:23424   */\n      add\n        /* \"#utility.yul\":23405:23424   */\n      swap1\n      pop\n        /* \"#utility.yul\":23064:23430   */\n      swap2\n      swap1\n      pop\n      jump\t// out\n        /* \"#utility.yul\":23436:23855   */\n    tag_272:\n        /* \"#utility.yul\":23602:23606   */\n      0x00\n        /* \"#utility.yul\":23640:23642   */\n      0x20\n        /* \"#utility.yul\":23629:23638   */\n      dup3\n        /* \"#utility.yul\":23625:23643   */\n      add\n        /* \"#utility.yul\":23617:23643   */\n      swap1\n      pop\n        /* \"#utility.yul\":23689:23698   */\n      dup2\n        /* \"#utility.yul\":23683:23687   */\n      dup2\n        /* \"#utility.yul\":23679:23699   */\n      sub\n        /* \"#utility.yul\":23675:23676   */\n      0x00\n        /* \"#utility.yul\":23664:23673   */\n      dup4\n        /* \"#utility.yul\":23660:23677   */\n      add\n        /* \"#utility.yul\":23653:23700   */\n      mstore\n        /* \"#utility.yul\":23717:23848   */\n      tag_540\n        /* \"#utility.yul\":23843:23847   */\n      dup2\n        /* \"#utility.yul\":23717:23848   */\n      tag_329\n      jump\t// in\n    tag_540:\n        /* \"#utility.yul\":23709:23848   */\n      swap1\n      pop\n        /* \"#utility.yul\":23436:23855   */\n      swap2\n      swap1\n      pop\n      jump\t// out\n\n    auxdata: 0xa2646970667358221220db6bd3ad3ef1a67758d80f9e2b963c84b23439dce347b70260e1bfdcbcd1696164736f6c63430008110033\n}\n",
				"bytecode": {
					"linkReferences": {},
					"object": "6080604052600660009054906101000a900460ff16600a6200002291906200024a565b620f42406200003291906200029b565b6008553480156200004257600080fd5b5060405162002d8738038062002d878339818101604052810190620000689190620004aa565b826004908162000079919062000785565b5081600590816200008b919062000785565b5080600660006101000a81548160ff021916908360ff1602179055505050506200086c565b7f4e487b7100000000000000000000000000000000000000000000000000000000600052601160045260246000fd5b60008160011c9050919050565b6000808291508390505b60018511156200013e57808604811115620001165762000115620000b0565b5b6001851615620001265780820291505b80810290506200013685620000df565b9450620000f6565b94509492505050565b6000826200015957600190506200022c565b816200016957600090506200022c565b81600181146200018257600281146200018d57620001c3565b60019150506200022c565b60ff841115620001a257620001a1620000b0565b5b8360020a915084821115620001bc57620001bb620000b0565b5b506200022c565b5060208310610133831016604e8410600b8410161715620001fd5782820a905083811115620001f757620001f6620000b0565b5b6200022c565b6200020c8484846001620000ec565b92509050818404811115620002265762000225620000b0565b5b81810290505b9392505050565b6000819050919050565b600060ff82169050919050565b6000620002578262000233565b915062000264836200023d565b9250620002937fffffffffffffffffffffffffffffffffffffffffffffffffffffffffffffffff848462000147565b905092915050565b6000620002a88262000233565b9150620002b58362000233565b9250828202620002c58162000233565b91508282048414831517620002df57620002de620000b0565b5b5092915050565b6000604051905090565b600080fd5b600080fd5b600080fd5b600080fd5b6000601f19601f8301169050919050565b7f4e487b7100000000000000000000000000000000000000000000000000000000600052604160045260246000fd5b6200034f8262000304565b810181811067ffffffffffffffff8211171562000371576200037062000315565b5b80604052505050565b600062000386620002e6565b905062000394828262000344565b919050565b600067ffffffffffffffff821115620003b757620003b662000315565b5b620003c28262000304565b9050602081019050919050565b60005b83811015620003ef578082015181840152602081019050620003d2565b60008484015250505050565b6000620004126200040c8462000399565b6200037a565b905082815260208101848484011115620004315762000430620002ff565b5b6200043e848285620003cf565b509392505050565b600082601f8301126200045e576200045d620002fa565b5b815162000470848260208601620003fb565b91505092915050565b62000484816200023d565b81146200049057600080fd5b50565b600081519050620004a48162000479565b92915050565b600080600060608486031215620004c657620004c5620002f0565b5b600084015167ffffffffffffffff811115620004e757620004e6620002f5565b5b620004f58682870162000446565b935050602084015167ffffffffffffffff811115620005195762000518620002f5565b5b620005278682870162000446565b92505060406200053a8682870162000493565b9150509250925092565b600081519050919050565b7f4e487b7100000000000000000000000000000000000000000000000000000000600052602260045260246000fd5b600060028204905060018216806200059757607f821691505b602082108103620005ad57620005ac6200054f565b5b50919050565b60008190508160005260206000209050919050565b60006020601f8301049050919050565b600082821b905092915050565b600060088302620006177fffffffffffffffffffffffffffffffffffffffffffffffffffffffffffffffff82620005d8565b620006238683620005d8565b95508019841693508086168417925050509392505050565b6000819050919050565b600062000666620006606200065a8462000233565b6200063b565b62000233565b9050919050565b6000819050919050565b620006828362000645565b6200069a62000691826200066d565b848454620005e5565b825550505050565b600090565b620006b1620006a2565b620006be81848462000677565b505050565b5b81811015620006e657620006da600082620006a7565b600181019050620006c4565b5050565b601f8211156200073557620006ff81620005b3565b6200070a84620005c8565b810160208510156200071a578190505b620007326200072985620005c8565b830182620006c3565b50505b505050565b600082821c905092915050565b60006200075a600019846008026200073a565b1980831691505092915050565b600062000775838362000747565b9150826002028217905092915050565b620007908262000544565b67ffffffffffffffff811115620007ac57620007ab62000315565b5b620007b882546200057e565b620007c5828285620006ea565b600060209050601f831160018114620007fd5760008415620007e8578287015190505b620007f4858262000767565b86555062000864565b601f1984166200080d86620005b3565b60005b82811015620008375784890151825560018201915060208501945060208101905062000810565b8683101562000857578489015162000853601f89168262000747565b8355505b6001600288020188555050505b505050505050565b61250b806200087c6000396000f3fe608060405234801561001057600080fd5b50600436106101425760003560e01c806342966c68116100b8578063a217fddf1161007c578063a217fddf1461039b578063a457c2d7146103b9578063a9059cbb146103e9578063d539139314610419578063d547741f14610437578063dd62ed3e1461045357610142565b806342966c68146102e557806370a082311461030157806391d148541461033157806395d89b411461036157806396b5e3881461037f57610142565b8063248a9ca31161010a578063248a9ca3146102135780632f2ff15d14610243578063313ce5671461025f57806336568abe1461027d578063395093511461029957806340c10f19146102c957610142565b806301ffc9a71461014757806306fdde0314610177578063095ea7b31461019557806318160ddd146101c557806323b872dd146101e3575b600080fd5b610161600480360381019061015c9190611939565b610483565b60405161016e9190611981565b60405180910390f35b61017f6104fd565b60405161018c9190611a2c565b60405180910390f35b6101af60048036038101906101aa9190611ae2565b61058f565b6040516101bc9190611981565b60405180910390f35b6101cd61068a565b6040516101da9190611b31565b60405180910390f35b6101fd60048036038101906101f89190611b4c565b610694565b60405161020a9190611981565b60405180910390f35b61022d60048036038101906102289190611bd5565b610a6b565b60405161023a9190611c11565b60405180910390f35b61025d60048036038101906102589190611c2c565b610a8a565b005b610267610aab565b6040516102749190611c88565b60405180910390f35b61029760048036038101906102929190611c2c565b610ac2565b005b6102b360048036038101906102ae9190611ae2565b610b45565b6040516102c09190611981565b60405180910390f35b6102e360048036038101906102de9190611ae2565b610cb7565b005b6102ff60048036038101906102fa9190611ca3565b610e46565b005b61031b60048036038101906103169190611cd0565b610fe4565b6040516103289190611b31565b60405180910390f35b61034b60048036038101906103469190611c2c565b61102d565b6040516103589190611981565b60405180910390f35b610369611097565b6040516103769190611a2c565b60405180910390f35b61039960048036038101906103949190611ae2565b611129565b005b6103a3611162565b6040516103b09190611c11565b60405180910390f35b6103d360048036038101906103ce9190611ae2565b611169565b6040516103e09190611981565b60405180910390f35b61040360048036038101906103fe9190611ae2565b6112db565b6040516104109190611981565b60405180910390f35b6104216112f0565b60405161042e9190611c11565b60405180910390f35b610451600480360381019061044c9190611c2c565b611314565b005b61046d60048036038101906104689190611cfd565b611335565b60405161047a9190611b31565b60405180910390f35b60007f7965db0b000000000000000000000000000000000000000000000000000000007bffffffffffffffffffffffffffffffffffffffffffffffffffffffff1916827bffffffffffffffffffffffffffffffffffffffffffffffffffffffff191614806104f657506104f5826113bc565b5b9050919050565b60606004805461050c90611d6c565b80601f016020809104026020016040519081016040528092919081815260200182805461053890611d6c565b80156105855780601f1061055a57610100808354040283529160200191610585565b820191906000526020600020905b81548152906001019060200180831161056857829003601f168201915b5050505050905090565b60008073ffffffffffffffffffffffffffffffffffffffff168373ffffffffffffffffffffffffffffffffffffffff16036105ff576040517f08c379a00000000000000000000000000000000000000000000000000000000081526004016105f690611de9565b60405180910390fd5b81600360003373ffffffffffffffffffffffffffffffffffffffff1673ffffffffffffffffffffffffffffffffffffffff16815260200190815260200160002060008573ffffffffffffffffffffffffffffffffffffffff1673ffffffffffffffffffffffffffffffffffffffff168152602001908152602001600020819055506001905092915050565b6000600754905090565b60003373ffffffffffffffffffffffffffffffffffffffff168473ffffffffffffffffffffffffffffffffffffffff16036107ac57600073ffffffffffffffffffffffffffffffffffffffff168473ffffffffffffffffffffffffffffffffffffffff1603610738576040517f08c379a000000000000000000000000000000000000000000000000000000000815260040161072f90611e55565b60405180910390fd5b600073ffffffffffffffffffffffffffffffffffffffff168373ffffffffffffffffffffffffffffffffffffffff16036107a7576040517f08c379a000000000000000000000000000000000000000000000000000000000815260040161079e90611ec1565b60405180910390fd5b6108fe565b6000600360008673ffffffffffffffffffffffffffffffffffffffff1673ffffffffffffffffffffffffffffffffffffffff16815260200190815260200160002060003373ffffffffffffffffffffffffffffffffffffffff1673ffffffffffffffffffffffffffffffffffffffff16815260200190815260200160002054905082811015610870576040517f08c379a000000000000000000000000000000000000000000000000000000000815260040161086790611f2d565b60405180910390fd5b828161087c9190611f7c565b600360008773ffffffffffffffffffffffffffffffffffffffff1673ffffffffffffffffffffffffffffffffffffffff16815260200190815260200160002060003373ffffffffffffffffffffffffffffffffffffffff1673ffffffffffffffffffffffffffffffffffffffff16815260200190815260200160002081905550505b600061090985610fe4565b90508281101561094e576040517f08c379a000000000000000000000000000000000000000000000000000000000815260040161094590611ffc565b60405180910390fd5b82600260008773ffffffffffffffffffffffffffffffffffffffff1673ffffffffffffffffffffffffffffffffffffffff168152602001908152602001600020600082825461099d9190611f7c565b9250508190555082600260008673ffffffffffffffffffffffffffffffffffffffff1673ffffffffffffffffffffffffffffffffffffffff16815260200190815260200160002060008282546109f3919061201c565b925050819055508373ffffffffffffffffffffffffffffffffffffffff168573ffffffffffffffffffffffffffffffffffffffff167fddf252ad1be2c89b69c2b068fc378daa952ba7f163c4a11628f55a4df523b3ef85604051610a579190611b31565b60405180910390a360019150509392505050565b6000806000838152602001908152602001600020600101549050919050565b610a9382610a6b565b610a9c81611426565b610aa6838361143a565b505050565b6000600660009054906101000a900460ff16905090565b610aca61151a565b73ffffffffffffffffffffffffffffffffffffffff168173ffffffffffffffffffffffffffffffffffffffff1614610b37576040517f08c379a0000000000000000000000000000000000000000000000000000000008152600401610b2e906120c2565b60405180910390fd5b610b418282611522565b5050565b60008073ffffffffffffffffffffffffffffffffffffffff168373ffffffffffffffffffffffffffffffffffffffff1603610bb5576040517f08c379a0000000000000000000000000000000000000000000000000000000008152600401610bac90611de9565b60405180910390fd5b81600360003373ffffffffffffffffffffffffffffffffffffffff1673ffffffffffffffffffffffffffffffffffffffff16815260200190815260200160002060008573ffffffffffffffffffffffffffffffffffffffff1673ffffffffffffffffffffffffffffffffffffffff1681526020019081526020016000206000828254610c41919061201c565b925050819055508273ffffffffffffffffffffffffffffffffffffffff163373ffffffffffffffffffffffffffffffffffffffff167f8c5be1e5ebec7d5bd14f71427d1e84f3dd0314c0f7b2291e5b200ac8c7c3b92584604051610ca59190611b31565b60405180910390a36001905092915050565b600073ffffffffffffffffffffffffffffffffffffffff168273ffffffffffffffffffffffffffffffffffffffff1603610d26576040517f08c379a0000000000000000000000000000000000000000000000000000000008152600401610d1d9061212e565b60405180910390fd5b80600260008473ffffffffffffffffffffffffffffffffffffffff1673ffffffffffffffffffffffffffffffffffffffff1681526020019081526020016000206000828254610d75919061201c565b925050819055508060076000828254610d8e919061201c565b925050819055506008546007541115610ddc576040517f08c379a0000000000000000000000000000000000000000000000000000000008152600401610dd39061219a565b60405180910390fd5b8173ffffffffffffffffffffffffffffffffffffffff16600073ffffffffffffffffffffffffffffffffffffffff167fddf252ad1be2c89b69c2b068fc378daa952ba7f163c4a11628f55a4df523b3ef83604051610e3a9190611b31565b60405180910390a35050565b6000339050600073ffffffffffffffffffffffffffffffffffffffff168173ffffffffffffffffffffffffffffffffffffffff1603610eba576040517f08c379a0000000000000000000000000000000000000000000000000000000008152600401610eb190612206565b60405180910390fd5b6000610ec582610fe4565b905082811015610f0a576040517f08c379a0000000000000000000000000000000000000000000000000000000008152600401610f0190612272565b60405180910390fd5b82600260008473ffffffffffffffffffffffffffffffffffffffff1673ffffffffffffffffffffffffffffffffffffffff1681526020019081526020016000206000828254610f599190611f7c565b925050819055508260076000828254610f729190611f7c565b92505081905550600073ffffffffffffffffffffffffffffffffffffffff168273ffffffffffffffffffffffffffffffffffffffff167fddf252ad1be2c89b69c2b068fc378daa952ba7f163c4a11628f55a4df523b3ef85604051610fd79190611b31565b60405180910390a3505050565b6000600260008373ffffffffffffffffffffffffffffffffffffffff1673ffffffffffffffffffffffffffffffffffffffff168152602001908152602001600020549050919050565b600080600084815260200190815260200160002060000160008373ffffffffffffffffffffffffffffffffffffffff1673ffffffffffffffffffffffffffffffffffffffff16815260200190815260200160002060009054906101000a900460ff16905092915050565b6060600580546110a690611d6c565b80601f01602080910402602001604051908101604052809291908181526020018280546110d290611d6c565b801561111f5780601f106110f45761010080835404028352916020019161111f565b820191906000526020600020905b81548152906001019060200180831161110257829003601f168201915b5050505050905090565b7f9f2df0fed2c77648de5860a4cc508cd0818c85b8b8a1ab4ceeef8d981c8956a661115381611426565b61115d8383610cb7565b505050565b6000801b81565b60008073ffffffffffffffffffffffffffffffffffffffff168373ffffffffffffffffffffffffffffffffffffffff16036111d9576040517f08c379a00000000000000000000000000000000000000000000000000000000081526004016111d090611de9565b60405180910390fd5b81600360003373ffffffffffffffffffffffffffffffffffffffff1673ffffffffffffffffffffffffffffffffffffffff16815260200190815260200160002060008573ffffffffffffffffffffffffffffffffffffffff1673ffffffffffffffffffffffffffffffffffffffff16815260200190815260200160002060008282546112659190611f7c565b925050819055508273ffffffffffffffffffffffffffffffffffffffff163373ffffffffffffffffffffffffffffffffffffffff167f8c5be1e5ebec7d5bd14f71427d1e84f3dd0314c0f7b2291e5b200ac8c7c3b925846040516112c99190611b31565b60405180910390a36001905092915050565b60006112e8338484610694565b905092915050565b7f9f2df0fed2c77648de5860a4cc508cd0818c85b8b8a1ab4ceeef8d981c8956a681565b61131d82610a6b565b61132681611426565b6113308383611522565b505050565b6000600360008473ffffffffffffffffffffffffffffffffffffffff1673ffffffffffffffffffffffffffffffffffffffff16815260200190815260200160002060008373ffffffffffffffffffffffffffffffffffffffff1673ffffffffffffffffffffffffffffffffffffffff16815260200190815260200160002054905092915050565b60007f01ffc9a7000000000000000000000000000000000000000000000000000000007bffffffffffffffffffffffffffffffffffffffffffffffffffffffff1916827bffffffffffffffffffffffffffffffffffffffffffffffffffffffff1916149050919050565b6114378161143261151a565b611603565b50565b611444828261102d565b61151657600160008084815260200190815260200160002060000160008373ffffffffffffffffffffffffffffffffffffffff1673ffffffffffffffffffffffffffffffffffffffff16815260200190815260200160002060006101000a81548160ff0219169083151502179055506114bb61151a565b73ffffffffffffffffffffffffffffffffffffffff168173ffffffffffffffffffffffffffffffffffffffff16837f2f8788117e7eff1d82e926ec794901d17c78024a50270940304540a733656f0d60405160405180910390a45b5050565b600033905090565b61152c828261102d565b156115ff57600080600084815260200190815260200160002060000160008373ffffffffffffffffffffffffffffffffffffffff1673ffffffffffffffffffffffffffffffffffffffff16815260200190815260200160002060006101000a81548160ff0219169083151502179055506115a461151a565b73ffffffffffffffffffffffffffffffffffffffff168173ffffffffffffffffffffffffffffffffffffffff16837ff6391f5c32d9c69d2a47ea670b442974b53935d1edc7fd64eb21e047a839171b60405160405180910390a45b5050565b61160d828261102d565b61169c576116328173ffffffffffffffffffffffffffffffffffffffff1660146116a0565b6116408360001c60206116a0565b604051602001611651929190612366565b6040516020818303038152906040526040517f08c379a00000000000000000000000000000000000000000000000000000000081526004016116939190611a2c565b60405180910390fd5b5050565b6060600060028360026116b391906123a0565b6116bd919061201c565b67ffffffffffffffff8111156116d6576116d56123e2565b5b6040519080825280601f01601f1916602001820160405280156117085781602001600182028036833780820191505090505b5090507f3000000000000000000000000000000000000000000000000000000000000000816000815181106117405761173f612411565b5b60200101907effffffffffffffffffffffffffffffffffffffffffffffffffffffffffffff1916908160001a9053507f7800000000000000000000000000000000000000000000000000000000000000816001815181106117a4576117a3612411565b5b60200101907effffffffffffffffffffffffffffffffffffffffffffffffffffffffffffff1916908160001a905350600060018460026117e491906123a0565b6117ee919061201c565b90505b600181111561188e577f3031323334353637383961626364656600000000000000000000000000000000600f8616601081106118305761182f612411565b5b1a60f81b82828151811061184757611846612411565b5b60200101907effffffffffffffffffffffffffffffffffffffffffffffffffffffffffffff1916908160001a905350600485901c94508061188790612440565b90506117f1565b50600084146118d2576040517f08c379a00000000000000000000000000000000000000000000000000000000081526004016118c9906124b5565b60405180910390fd5b8091505092915050565b600080fd5b60007fffffffff0000000000000000000000000000000000000000000000000000000082169050919050565b611916816118e1565b811461192157600080fd5b50565b6000813590506119338161190d565b92915050565b60006020828403121561194f5761194e6118dc565b5b600061195d84828501611924565b91505092915050565b60008115159050919050565b61197b81611966565b82525050565b60006020820190506119966000830184611972565b92915050565b600081519050919050565b600082825260208201905092915050565b60005b838110156119d65780820151818401526020810190506119bb565b60008484015250505050565b6000601f19601f8301169050919050565b60006119fe8261199c565b611a0881856119a7565b9350611a188185602086016119b8565b611a21816119e2565b840191505092915050565b60006020820190508181036000830152611a4681846119f3565b905092915050565b600073ffffffffffffffffffffffffffffffffffffffff82169050919050565b6000611a7982611a4e565b9050919050565b611a8981611a6e565b8114611a9457600080fd5b50565b600081359050611aa681611a80565b92915050565b6000819050919050565b611abf81611aac565b8114611aca57600080fd5b50565b600081359050611adc81611ab6565b92915050565b60008060408385031215611af957611af86118dc565b5b6000611b0785828601611a97565b9250506020611b1885828601611acd565b9150509250929050565b611b2b81611aac565b82525050565b6000602082019050611b466000830184611b22565b92915050565b600080600060608486031215611b6557611b646118dc565b5b6000611b7386828701611a97565b9350506020611b8486828701611a97565b9250506040611b9586828701611acd565b9150509250925092565b6000819050919050565b611bb281611b9f565b8114611bbd57600080fd5b50565b600081359050611bcf81611ba9565b92915050565b600060208284031215611beb57611bea6118dc565b5b6000611bf984828501611bc0565b91505092915050565b611c0b81611b9f565b82525050565b6000602082019050611c266000830184611c02565b92915050565b60008060408385031215611c4357611c426118dc565b5b6000611c5185828601611bc0565b9250506020611c6285828601611a97565b9150509250929050565b600060ff82169050919050565b611c8281611c6c565b82525050565b6000602082019050611c9d6000830184611c79565b92915050565b600060208284031215611cb957611cb86118dc565b5b6000611cc784828501611acd565b91505092915050565b600060208284031215611ce657611ce56118dc565b5b6000611cf484828501611a97565b91505092915050565b60008060408385031215611d1457611d136118dc565b5b6000611d2285828601611a97565b9250506020611d3385828601611a97565b9150509250929050565b7f4e487b7100000000000000000000000000000000000000000000000000000000600052602260045260246000fd5b60006002820490506001821680611d8457607f821691505b602082108103611d9757611d96611d3d565b5b50919050565b7f5370656e64657220657320646972656363696f6e207a65726f00000000000000600082015250565b6000611dd36019836119a7565b9150611dde82611d9d565b602082019050919050565b60006020820190508181036000830152611e0281611dc6565b9050919050565b7f456e766961646f2064657364652061646472657373207a65726f000000000000600082015250565b6000611e3f601a836119a7565b9150611e4a82611e09565b602082019050919050565b60006020820190508181036000830152611e6e81611e32565b9050919050565b7f456e766961646f20612061646472657373207a65726f00000000000000000000600082015250565b6000611eab6016836119a7565b9150611eb682611e75565b602082019050919050565b60006020820190508181036000830152611eda81611e9e565b9050919050565b7f4e6f2074656e676f20737566696369656e7465207065726d69736f0000000000600082015250565b6000611f17601b836119a7565b9150611f2282611ee1565b602082019050919050565b60006020820190508181036000830152611f4681611f0a565b9050919050565b7f4e487b7100000000000000000000000000000000000000000000000000000000600052601160045260246000fd5b6000611f8782611aac565b9150611f9283611aac565b9250828203905081811115611faa57611fa9611f4d565b5b92915050565b7f496e737566696369656e74657320746f6b656e73000000000000000000000000600082015250565b6000611fe66014836119a7565b9150611ff182611fb0565b602082019050919050565b6000602082019050818103600083015261201581611fd9565b9050919050565b600061202782611aac565b915061203283611aac565b925082820190508082111561204a57612049611f4d565b5b92915050565b7f416363657373436f6e74726f6c3a2063616e206f6e6c792072656e6f756e636560008201527f20726f6c657320666f722073656c660000000000000000000000000000000000602082015250565b60006120ac602f836119a7565b91506120b782612050565b604082019050919050565b600060208201905081810360008301526120db8161209f565b9050919050565b7f4d696e742061206661766f722064656c2061646472657373207a65726f000000600082015250565b6000612118601d836119a7565b9150612123826120e2565b602082019050919050565b600060208201905081810360008301526121478161210b565b9050919050565b7f53757065726120656c204d415820544f54414c20535550504c59000000000000600082015250565b6000612184601a836119a7565b915061218f8261214e565b602082019050919050565b600060208201905081810360008301526121b381612177565b9050919050565b7f5175656d616e646f206465206164647265737320300000000000000000000000600082015250565b60006121f06015836119a7565b91506121fb826121ba565b602082019050919050565b6000602082019050818103600083015261221f816121e3565b9050919050565b7f496e737566696369656e74657320746f6b656e732070617261207175656d6172600082015250565b600061225c6020836119a7565b915061226782612226565b602082019050919050565b6000602082019050818103600083015261228b8161224f565b9050919050565b600081905092915050565b7f416363657373436f6e74726f6c3a206163636f756e7420000000000000000000600082015250565b60006122d3601783612292565b91506122de8261229d565b601782019050919050565b60006122f48261199c565b6122fe8185612292565b935061230e8185602086016119b8565b80840191505092915050565b7f206973206d697373696e6720726f6c6520000000000000000000000000000000600082015250565b6000612350601183612292565b915061235b8261231a565b601182019050919050565b6000612371826122c6565b915061237d82856122e9565b915061238882612343565b915061239482846122e9565b91508190509392505050565b60006123ab82611aac565b91506123b683611aac565b92508282026123c481611aac565b915082820484148315176123db576123da611f4d565b5b5092915050565b7f4e487b7100000000000000000000000000000000000000000000000000000000600052604160045260246000fd5b7f4e487b7100000000000000000000000000000000000000000000000000000000600052603260045260246000fd5b600061244b82611aac565b91506000820361245e5761245d611f4d565b5b600182039050919050565b7f537472696e67733a20686578206c656e67746820696e73756666696369656e74600082015250565b600061249f6020836119a7565b91506124aa82612469565b602082019050919050565b600060208201905081810360008301526124ce81612492565b905091905056fea2646970667358221220db6bd3ad3ef1a67758d80f9e2b963c84b23439dce347b70260e1bfdcbcd1696164736f6c63430008110033",
					"opcodes": "PUSH1 0x80 PUSH1 0x40 MSTORE PUSH1 0x6 PUSH1 0x0 SWAP1 SLOAD SWAP1 PUSH2 0x100 EXP SWAP1 DIV PUSH1 0xFF AND PUSH1 0xA PUSH3 0x22 SWAP2 SWAP1 PUSH3 0x24A JUMP JUMPDEST PUSH3 0xF4240 PUSH3 0x32 SWAP2 SWAP1 PUSH3 0x29B JUMP JUMPDEST PUSH1 0x8 SSTORE CALLVALUE DUP1 ISZERO PUSH3 0x42 JUMPI PUSH1 0x0 DUP1 REVERT JUMPDEST POP PUSH1 0x40 MLOAD PUSH3 0x2D87 CODESIZE SUB DUP1 PUSH3 0x2D87 DUP4 CODECOPY DUP2 DUP2 ADD PUSH1 0x40 MSTORE DUP2 ADD SWAP1 PUSH3 0x68 SWAP2 SWAP1 PUSH3 0x4AA JUMP JUMPDEST DUP3 PUSH1 0x4 SWAP1 DUP2 PUSH3 0x79 SWAP2 SWAP1 PUSH3 0x785 JUMP JUMPDEST POP DUP2 PUSH1 0x5 SWAP1 DUP2 PUSH3 0x8B SWAP2 SWAP1 PUSH3 0x785 JUMP JUMPDEST POP DUP1 PUSH1 0x6 PUSH1 0x0 PUSH2 0x100 EXP DUP2 SLOAD DUP2 PUSH1 0xFF MUL NOT AND SWAP1 DUP4 PUSH1 0xFF AND MUL OR SWAP1 SSTORE POP POP POP POP PUSH3 0x86C JUMP JUMPDEST PUSH32 0x4E487B7100000000000000000000000000000000000000000000000000000000 PUSH1 0x0 MSTORE PUSH1 0x11 PUSH1 0x4 MSTORE PUSH1 0x24 PUSH1 0x0 REVERT JUMPDEST PUSH1 0x0 DUP2 PUSH1 0x1 SHR SWAP1 POP SWAP2 SWAP1 POP JUMP JUMPDEST PUSH1 0x0 DUP1 DUP3 SWAP2 POP DUP4 SWAP1 POP JUMPDEST PUSH1 0x1 DUP6 GT ISZERO PUSH3 0x13E JUMPI DUP1 DUP7 DIV DUP2 GT ISZERO PUSH3 0x116 JUMPI PUSH3 0x115 PUSH3 0xB0 JUMP JUMPDEST JUMPDEST PUSH1 0x1 DUP6 AND ISZERO PUSH3 0x126 JUMPI DUP1 DUP3 MUL SWAP2 POP JUMPDEST DUP1 DUP2 MUL SWAP1 POP PUSH3 0x136 DUP6 PUSH3 0xDF JUMP JUMPDEST SWAP5 POP PUSH3 0xF6 JUMP JUMPDEST SWAP5 POP SWAP5 SWAP3 POP POP POP JUMP JUMPDEST PUSH1 0x0 DUP3 PUSH3 0x159 JUMPI PUSH1 0x1 SWAP1 POP PUSH3 0x22C JUMP JUMPDEST DUP2 PUSH3 0x169 JUMPI PUSH1 0x0 SWAP1 POP PUSH3 0x22C JUMP JUMPDEST DUP2 PUSH1 0x1 DUP2 EQ PUSH3 0x182 JUMPI PUSH1 0x2 DUP2 EQ PUSH3 0x18D JUMPI PUSH3 0x1C3 JUMP JUMPDEST PUSH1 0x1 SWAP2 POP POP PUSH3 0x22C JUMP JUMPDEST PUSH1 0xFF DUP5 GT ISZERO PUSH3 0x1A2 JUMPI PUSH3 0x1A1 PUSH3 0xB0 JUMP JUMPDEST JUMPDEST DUP4 PUSH1 0x2 EXP SWAP2 POP DUP5 DUP3 GT ISZERO PUSH3 0x1BC JUMPI PUSH3 0x1BB PUSH3 0xB0 JUMP JUMPDEST JUMPDEST POP PUSH3 0x22C JUMP JUMPDEST POP PUSH1 0x20 DUP4 LT PUSH2 0x133 DUP4 LT AND PUSH1 0x4E DUP5 LT PUSH1 0xB DUP5 LT AND OR ISZERO PUSH3 0x1FD JUMPI DUP3 DUP3 EXP SWAP1 POP DUP4 DUP2 GT ISZERO PUSH3 0x1F7 JUMPI PUSH3 0x1F6 PUSH3 0xB0 JUMP JUMPDEST JUMPDEST PUSH3 0x22C JUMP JUMPDEST PUSH3 0x20C DUP5 DUP5 DUP5 PUSH1 0x1 PUSH3 0xEC JUMP JUMPDEST SWAP3 POP SWAP1 POP DUP2 DUP5 DIV DUP2 GT ISZERO PUSH3 0x226 JUMPI PUSH3 0x225 PUSH3 0xB0 JUMP JUMPDEST JUMPDEST DUP2 DUP2 MUL SWAP1 POP JUMPDEST SWAP4 SWAP3 POP POP POP JUMP JUMPDEST PUSH1 0x0 DUP2 SWAP1 POP SWAP2 SWAP1 POP JUMP JUMPDEST PUSH1 0x0 PUSH1 0xFF DUP3 AND SWAP1 POP SWAP2 SWAP1 POP JUMP JUMPDEST PUSH1 0x0 PUSH3 0x257 DUP3 PUSH3 0x233 JUMP JUMPDEST SWAP2 POP PUSH3 0x264 DUP4 PUSH3 0x23D JUMP JUMPDEST SWAP3 POP PUSH3 0x293 PUSH32 0xFFFFFFFFFFFFFFFFFFFFFFFFFFFFFFFFFFFFFFFFFFFFFFFFFFFFFFFFFFFFFFFF DUP5 DUP5 PUSH3 0x147 JUMP JUMPDEST SWAP1 POP SWAP3 SWAP2 POP POP JUMP JUMPDEST PUSH1 0x0 PUSH3 0x2A8 DUP3 PUSH3 0x233 JUMP JUMPDEST SWAP2 POP PUSH3 0x2B5 DUP4 PUSH3 0x233 JUMP JUMPDEST SWAP3 POP DUP3 DUP3 MUL PUSH3 0x2C5 DUP2 PUSH3 0x233 JUMP JUMPDEST SWAP2 POP DUP3 DUP3 DIV DUP5 EQ DUP4 ISZERO OR PUSH3 0x2DF JUMPI PUSH3 0x2DE PUSH3 0xB0 JUMP JUMPDEST JUMPDEST POP SWAP3 SWAP2 POP POP JUMP JUMPDEST PUSH1 0x0 PUSH1 0x40 MLOAD SWAP1 POP SWAP1 JUMP JUMPDEST PUSH1 0x0 DUP1 REVERT JUMPDEST PUSH1 0x0 DUP1 REVERT JUMPDEST PUSH1 0x0 DUP1 REVERT JUMPDEST PUSH1 0x0 DUP1 REVERT JUMPDEST PUSH1 0x0 PUSH1 0x1F NOT PUSH1 0x1F DUP4 ADD AND SWAP1 POP SWAP2 SWAP1 POP JUMP JUMPDEST PUSH32 0x4E487B7100000000000000000000000000000000000000000000000000000000 PUSH1 0x0 MSTORE PUSH1 0x41 PUSH1 0x4 MSTORE PUSH1 0x24 PUSH1 0x0 REVERT JUMPDEST PUSH3 0x34F DUP3 PUSH3 0x304 JUMP JUMPDEST DUP2 ADD DUP2 DUP2 LT PUSH8 0xFFFFFFFFFFFFFFFF DUP3 GT OR ISZERO PUSH3 0x371 JUMPI PUSH3 0x370 PUSH3 0x315 JUMP JUMPDEST JUMPDEST DUP1 PUSH1 0x40 MSTORE POP POP POP JUMP JUMPDEST PUSH1 0x0 PUSH3 0x386 PUSH3 0x2E6 JUMP JUMPDEST SWAP1 POP PUSH3 0x394 DUP3 DUP3 PUSH3 0x344 JUMP JUMPDEST SWAP2 SWAP1 POP JUMP JUMPDEST PUSH1 0x0 PUSH8 0xFFFFFFFFFFFFFFFF DUP3 GT ISZERO PUSH3 0x3B7 JUMPI PUSH3 0x3B6 PUSH3 0x315 JUMP JUMPDEST JUMPDEST PUSH3 0x3C2 DUP3 PUSH3 0x304 JUMP JUMPDEST SWAP1 POP PUSH1 0x20 DUP2 ADD SWAP1 POP SWAP2 SWAP1 POP JUMP JUMPDEST PUSH1 0x0 JUMPDEST DUP4 DUP2 LT ISZERO PUSH3 0x3EF JUMPI DUP1 DUP3 ADD MLOAD DUP2 DUP5 ADD MSTORE PUSH1 0x20 DUP2 ADD SWAP1 POP PUSH3 0x3D2 JUMP JUMPDEST PUSH1 0x0 DUP5 DUP5 ADD MSTORE POP POP POP POP JUMP JUMPDEST PUSH1 0x0 PUSH3 0x412 PUSH3 0x40C DUP5 PUSH3 0x399 JUMP JUMPDEST PUSH3 0x37A JUMP JUMPDEST SWAP1 POP DUP3 DUP2 MSTORE PUSH1 0x20 DUP2 ADD DUP5 DUP5 DUP5 ADD GT ISZERO PUSH3 0x431 JUMPI PUSH3 0x430 PUSH3 0x2FF JUMP JUMPDEST JUMPDEST PUSH3 0x43E DUP5 DUP3 DUP6 PUSH3 0x3CF JUMP JUMPDEST POP SWAP4 SWAP3 POP POP POP JUMP JUMPDEST PUSH1 0x0 DUP3 PUSH1 0x1F DUP4 ADD SLT PUSH3 0x45E JUMPI PUSH3 0x45D PUSH3 0x2FA JUMP JUMPDEST JUMPDEST DUP2 MLOAD PUSH3 0x470 DUP5 DUP3 PUSH1 0x20 DUP7 ADD PUSH3 0x3FB JUMP JUMPDEST SWAP2 POP POP SWAP3 SWAP2 POP POP JUMP JUMPDEST PUSH3 0x484 DUP2 PUSH3 0x23D JUMP JUMPDEST DUP2 EQ PUSH3 0x490 JUMPI PUSH1 0x0 DUP1 REVERT JUMPDEST POP JUMP JUMPDEST PUSH1 0x0 DUP2 MLOAD SWAP1 POP PUSH3 0x4A4 DUP2 PUSH3 0x479 JUMP JUMPDEST SWAP3 SWAP2 POP POP JUMP JUMPDEST PUSH1 0x0 DUP1 PUSH1 0x0 PUSH1 0x60 DUP5 DUP7 SUB SLT ISZERO PUSH3 0x4C6 JUMPI PUSH3 0x4C5 PUSH3 0x2F0 JUMP JUMPDEST JUMPDEST PUSH1 0x0 DUP5 ADD MLOAD PUSH8 0xFFFFFFFFFFFFFFFF DUP2 GT ISZERO PUSH3 0x4E7 JUMPI PUSH3 0x4E6 PUSH3 0x2F5 JUMP JUMPDEST JUMPDEST PUSH3 0x4F5 DUP7 DUP3 DUP8 ADD PUSH3 0x446 JUMP JUMPDEST SWAP4 POP POP PUSH1 0x20 DUP5 ADD MLOAD PUSH8 0xFFFFFFFFFFFFFFFF DUP2 GT ISZERO PUSH3 0x519 JUMPI PUSH3 0x518 PUSH3 0x2F5 JUMP JUMPDEST JUMPDEST PUSH3 0x527 DUP7 DUP3 DUP8 ADD PUSH3 0x446 JUMP JUMPDEST SWAP3 POP POP PUSH1 0x40 PUSH3 0x53A DUP7 DUP3 DUP8 ADD PUSH3 0x493 JUMP JUMPDEST SWAP2 POP POP SWAP3 POP SWAP3 POP SWAP3 JUMP JUMPDEST PUSH1 0x0 DUP2 MLOAD SWAP1 POP SWAP2 SWAP1 POP JUMP JUMPDEST PUSH32 0x4E487B7100000000000000000000000000000000000000000000000000000000 PUSH1 0x0 MSTORE PUSH1 0x22 PUSH1 0x4 MSTORE PUSH1 0x24 PUSH1 0x0 REVERT JUMPDEST PUSH1 0x0 PUSH1 0x2 DUP3 DIV SWAP1 POP PUSH1 0x1 DUP3 AND DUP1 PUSH3 0x597 JUMPI PUSH1 0x7F DUP3 AND SWAP2 POP JUMPDEST PUSH1 0x20 DUP3 LT DUP2 SUB PUSH3 0x5AD JUMPI PUSH3 0x5AC PUSH3 0x54F JUMP JUMPDEST JUMPDEST POP SWAP2 SWAP1 POP JUMP JUMPDEST PUSH1 0x0 DUP2 SWAP1 POP DUP2 PUSH1 0x0 MSTORE PUSH1 0x20 PUSH1 0x0 KECCAK256 SWAP1 POP SWAP2 SWAP1 POP JUMP JUMPDEST PUSH1 0x0 PUSH1 0x20 PUSH1 0x1F DUP4 ADD DIV SWAP1 POP SWAP2 SWAP1 POP JUMP JUMPDEST PUSH1 0x0 DUP3 DUP3 SHL SWAP1 POP SWAP3 SWAP2 POP POP JUMP JUMPDEST PUSH1 0x0 PUSH1 0x8 DUP4 MUL PUSH3 0x617 PUSH32 0xFFFFFFFFFFFFFFFFFFFFFFFFFFFFFFFFFFFFFFFFFFFFFFFFFFFFFFFFFFFFFFFF DUP3 PUSH3 0x5D8 JUMP JUMPDEST PUSH3 0x623 DUP7 DUP4 PUSH3 0x5D8 JUMP JUMPDEST SWAP6 POP DUP1 NOT DUP5 AND SWAP4 POP DUP1 DUP7 AND DUP5 OR SWAP3 POP POP POP SWAP4 SWAP3 POP POP POP JUMP JUMPDEST PUSH1 0x0 DUP2 SWAP1 POP SWAP2 SWAP1 POP JUMP JUMPDEST PUSH1 0x0 PUSH3 0x666 PUSH3 0x660 PUSH3 0x65A DUP5 PUSH3 0x233 JUMP JUMPDEST PUSH3 0x63B JUMP JUMPDEST PUSH3 0x233 JUMP JUMPDEST SWAP1 POP SWAP2 SWAP1 POP JUMP JUMPDEST PUSH1 0x0 DUP2 SWAP1 POP SWAP2 SWAP1 POP JUMP JUMPDEST PUSH3 0x682 DUP4 PUSH3 0x645 JUMP JUMPDEST PUSH3 0x69A PUSH3 0x691 DUP3 PUSH3 0x66D JUMP JUMPDEST DUP5 DUP5 SLOAD PUSH3 0x5E5 JUMP JUMPDEST DUP3 SSTORE POP POP POP POP JUMP JUMPDEST PUSH1 0x0 SWAP1 JUMP JUMPDEST PUSH3 0x6B1 PUSH3 0x6A2 JUMP JUMPDEST PUSH3 0x6BE DUP2 DUP5 DUP5 PUSH3 0x677 JUMP JUMPDEST POP POP POP JUMP JUMPDEST JUMPDEST DUP2 DUP2 LT ISZERO PUSH3 0x6E6 JUMPI PUSH3 0x6DA PUSH1 0x0 DUP3 PUSH3 0x6A7 JUMP JUMPDEST PUSH1 0x1 DUP2 ADD SWAP1 POP PUSH3 0x6C4 JUMP JUMPDEST POP POP JUMP JUMPDEST PUSH1 0x1F DUP3 GT ISZERO PUSH3 0x735 JUMPI PUSH3 0x6FF DUP2 PUSH3 0x5B3 JUMP JUMPDEST PUSH3 0x70A DUP5 PUSH3 0x5C8 JUMP JUMPDEST DUP2 ADD PUSH1 0x20 DUP6 LT ISZERO PUSH3 0x71A JUMPI DUP2 SWAP1 POP JUMPDEST PUSH3 0x732 PUSH3 0x729 DUP6 PUSH3 0x5C8 JUMP JUMPDEST DUP4 ADD DUP3 PUSH3 0x6C3 JUMP JUMPDEST POP POP JUMPDEST POP POP POP JUMP JUMPDEST PUSH1 0x0 DUP3 DUP3 SHR SWAP1 POP SWAP3 SWAP2 POP POP JUMP JUMPDEST PUSH1 0x0 PUSH3 0x75A PUSH1 0x0 NOT DUP5 PUSH1 0x8 MUL PUSH3 0x73A JUMP JUMPDEST NOT DUP1 DUP4 AND SWAP2 POP POP SWAP3 SWAP2 POP POP JUMP JUMPDEST PUSH1 0x0 PUSH3 0x775 DUP4 DUP4 PUSH3 0x747 JUMP JUMPDEST SWAP2 POP DUP3 PUSH1 0x2 MUL DUP3 OR SWAP1 POP SWAP3 SWAP2 POP POP JUMP JUMPDEST PUSH3 0x790 DUP3 PUSH3 0x544 JUMP JUMPDEST PUSH8 0xFFFFFFFFFFFFFFFF DUP2 GT ISZERO PUSH3 0x7AC JUMPI PUSH3 0x7AB PUSH3 0x315 JUMP JUMPDEST JUMPDEST PUSH3 0x7B8 DUP3 SLOAD PUSH3 0x57E JUMP JUMPDEST PUSH3 0x7C5 DUP3 DUP3 DUP6 PUSH3 0x6EA JUMP JUMPDEST PUSH1 0x0 PUSH1 0x20 SWAP1 POP PUSH1 0x1F DUP4 GT PUSH1 0x1 DUP2 EQ PUSH3 0x7FD JUMPI PUSH1 0x0 DUP5 ISZERO PUSH3 0x7E8 JUMPI DUP3 DUP8 ADD MLOAD SWAP1 POP JUMPDEST PUSH3 0x7F4 DUP6 DUP3 PUSH3 0x767 JUMP JUMPDEST DUP7 SSTORE POP PUSH3 0x864 JUMP JUMPDEST PUSH1 0x1F NOT DUP5 AND PUSH3 0x80D DUP7 PUSH3 0x5B3 JUMP JUMPDEST PUSH1 0x0 JUMPDEST DUP3 DUP2 LT ISZERO PUSH3 0x837 JUMPI DUP5 DUP10 ADD MLOAD DUP3 SSTORE PUSH1 0x1 DUP3 ADD SWAP2 POP PUSH1 0x20 DUP6 ADD SWAP5 POP PUSH1 0x20 DUP2 ADD SWAP1 POP PUSH3 0x810 JUMP JUMPDEST DUP7 DUP4 LT ISZERO PUSH3 0x857 JUMPI DUP5 DUP10 ADD MLOAD PUSH3 0x853 PUSH1 0x1F DUP10 AND DUP3 PUSH3 0x747 JUMP JUMPDEST DUP4 SSTORE POP JUMPDEST PUSH1 0x1 PUSH1 0x2 DUP9 MUL ADD DUP9 SSTORE POP POP POP JUMPDEST POP POP POP POP POP POP JUMP JUMPDEST PUSH2 0x250B DUP1 PUSH3 0x87C PUSH1 0x0 CODECOPY PUSH1 0x0 RETURN INVALID PUSH1 0x80 PUSH1 0x40 MSTORE CALLVALUE DUP1 ISZERO PUSH2 0x10 JUMPI PUSH1 0x0 DUP1 REVERT JUMPDEST POP PUSH1 0x4 CALLDATASIZE LT PUSH2 0x142 JUMPI PUSH1 0x0 CALLDATALOAD PUSH1 0xE0 SHR DUP1 PUSH4 0x42966C68 GT PUSH2 0xB8 JUMPI DUP1 PUSH4 0xA217FDDF GT PUSH2 0x7C JUMPI DUP1 PUSH4 0xA217FDDF EQ PUSH2 0x39B JUMPI DUP1 PUSH4 0xA457C2D7 EQ PUSH2 0x3B9 JUMPI DUP1 PUSH4 0xA9059CBB EQ PUSH2 0x3E9 JUMPI DUP1 PUSH4 0xD5391393 EQ PUSH2 0x419 JUMPI DUP1 PUSH4 0xD547741F EQ PUSH2 0x437 JUMPI DUP1 PUSH4 0xDD62ED3E EQ PUSH2 0x453 JUMPI PUSH2 0x142 JUMP JUMPDEST DUP1 PUSH4 0x42966C68 EQ PUSH2 0x2E5 JUMPI DUP1 PUSH4 0x70A08231 EQ PUSH2 0x301 JUMPI DUP1 PUSH4 0x91D14854 EQ PUSH2 0x331 JUMPI DUP1 PUSH4 0x95D89B41 EQ PUSH2 0x361 JUMPI DUP1 PUSH4 0x96B5E388 EQ PUSH2 0x37F JUMPI PUSH2 0x142 JUMP JUMPDEST DUP1 PUSH4 0x248A9CA3 GT PUSH2 0x10A JUMPI DUP1 PUSH4 0x248A9CA3 EQ PUSH2 0x213 JUMPI DUP1 PUSH4 0x2F2FF15D EQ PUSH2 0x243 JUMPI DUP1 PUSH4 0x313CE567 EQ PUSH2 0x25F JUMPI DUP1 PUSH4 0x36568ABE EQ PUSH2 0x27D JUMPI DUP1 PUSH4 0x39509351 EQ PUSH2 0x299 JUMPI DUP1 PUSH4 0x40C10F19 EQ PUSH2 0x2C9 JUMPI PUSH2 0x142 JUMP JUMPDEST DUP1 PUSH4 0x1FFC9A7 EQ PUSH2 0x147 JUMPI DUP1 PUSH4 0x6FDDE03 EQ PUSH2 0x177 JUMPI DUP1 PUSH4 0x95EA7B3 EQ PUSH2 0x195 JUMPI DUP1 PUSH4 0x18160DDD EQ PUSH2 0x1C5 JUMPI DUP1 PUSH4 0x23B872DD EQ PUSH2 0x1E3 JUMPI JUMPDEST PUSH1 0x0 DUP1 REVERT JUMPDEST PUSH2 0x161 PUSH1 0x4 DUP1 CALLDATASIZE SUB DUP2 ADD SWAP1 PUSH2 0x15C SWAP2 SWAP1 PUSH2 0x1939 JUMP JUMPDEST PUSH2 0x483 JUMP JUMPDEST PUSH1 0x40 MLOAD PUSH2 0x16E SWAP2 SWAP1 PUSH2 0x1981 JUMP JUMPDEST PUSH1 0x40 MLOAD DUP1 SWAP2 SUB SWAP1 RETURN JUMPDEST PUSH2 0x17F PUSH2 0x4FD JUMP JUMPDEST PUSH1 0x40 MLOAD PUSH2 0x18C SWAP2 SWAP1 PUSH2 0x1A2C JUMP JUMPDEST PUSH1 0x40 MLOAD DUP1 SWAP2 SUB SWAP1 RETURN JUMPDEST PUSH2 0x1AF PUSH1 0x4 DUP1 CALLDATASIZE SUB DUP2 ADD SWAP1 PUSH2 0x1AA SWAP2 SWAP1 PUSH2 0x1AE2 JUMP JUMPDEST PUSH2 0x58F JUMP JUMPDEST PUSH1 0x40 MLOAD PUSH2 0x1BC SWAP2 SWAP1 PUSH2 0x1981 JUMP JUMPDEST PUSH1 0x40 MLOAD DUP1 SWAP2 SUB SWAP1 RETURN JUMPDEST PUSH2 0x1CD PUSH2 0x68A JUMP JUMPDEST PUSH1 0x40 MLOAD PUSH2 0x1DA SWAP2 SWAP1 PUSH2 0x1B31 JUMP JUMPDEST PUSH1 0x40 MLOAD DUP1 SWAP2 SUB SWAP1 RETURN JUMPDEST PUSH2 0x1FD PUSH1 0x4 DUP1 CALLDATASIZE SUB DUP2 ADD SWAP1 PUSH2 0x1F8 SWAP2 SWAP1 PUSH2 0x1B4C JUMP JUMPDEST PUSH2 0x694 JUMP JUMPDEST PUSH1 0x40 MLOAD PUSH2 0x20A SWAP2 SWAP1 PUSH2 0x1981 JUMP JUMPDEST PUSH1 0x40 MLOAD DUP1 SWAP2 SUB SWAP1 RETURN JUMPDEST PUSH2 0x22D PUSH1 0x4 DUP1 CALLDATASIZE SUB DUP2 ADD SWAP1 PUSH2 0x228 SWAP2 SWAP1 PUSH2 0x1BD5 JUMP JUMPDEST PUSH2 0xA6B JUMP JUMPDEST PUSH1 0x40 MLOAD PUSH2 0x23A SWAP2 SWAP1 PUSH2 0x1C11 JUMP JUMPDEST PUSH1 0x40 MLOAD DUP1 SWAP2 SUB SWAP1 RETURN JUMPDEST PUSH2 0x25D PUSH1 0x4 DUP1 CALLDATASIZE SUB DUP2 ADD SWAP1 PUSH2 0x258 SWAP2 SWAP1 PUSH2 0x1C2C JUMP JUMPDEST PUSH2 0xA8A JUMP JUMPDEST STOP JUMPDEST PUSH2 0x267 PUSH2 0xAAB JUMP JUMPDEST PUSH1 0x40 MLOAD PUSH2 0x274 SWAP2 SWAP1 PUSH2 0x1C88 JUMP JUMPDEST PUSH1 0x40 MLOAD DUP1 SWAP2 SUB SWAP1 RETURN JUMPDEST PUSH2 0x297 PUSH1 0x4 DUP1 CALLDATASIZE SUB DUP2 ADD SWAP1 PUSH2 0x292 SWAP2 SWAP1 PUSH2 0x1C2C JUMP JUMPDEST PUSH2 0xAC2 JUMP JUMPDEST STOP JUMPDEST PUSH2 0x2B3 PUSH1 0x4 DUP1 CALLDATASIZE SUB DUP2 ADD SWAP1 PUSH2 0x2AE SWAP2 SWAP1 PUSH2 0x1AE2 JUMP JUMPDEST PUSH2 0xB45 JUMP JUMPDEST PUSH1 0x40 MLOAD PUSH2 0x2C0 SWAP2 SWAP1 PUSH2 0x1981 JUMP JUMPDEST PUSH1 0x40 MLOAD DUP1 SWAP2 SUB SWAP1 RETURN JUMPDEST PUSH2 0x2E3 PUSH1 0x4 DUP1 CALLDATASIZE SUB DUP2 ADD SWAP1 PUSH2 0x2DE SWAP2 SWAP1 PUSH2 0x1AE2 JUMP JUMPDEST PUSH2 0xCB7 JUMP JUMPDEST STOP JUMPDEST PUSH2 0x2FF PUSH1 0x4 DUP1 CALLDATASIZE SUB DUP2 ADD SWAP1 PUSH2 0x2FA SWAP2 SWAP1 PUSH2 0x1CA3 JUMP JUMPDEST PUSH2 0xE46 JUMP JUMPDEST STOP JUMPDEST PUSH2 0x31B PUSH1 0x4 DUP1 CALLDATASIZE SUB DUP2 ADD SWAP1 PUSH2 0x316 SWAP2 SWAP1 PUSH2 0x1CD0 JUMP JUMPDEST PUSH2 0xFE4 JUMP JUMPDEST PUSH1 0x40 MLOAD PUSH2 0x328 SWAP2 SWAP1 PUSH2 0x1B31 JUMP JUMPDEST PUSH1 0x40 MLOAD DUP1 SWAP2 SUB SWAP1 RETURN JUMPDEST PUSH2 0x34B PUSH1 0x4 DUP1 CALLDATASIZE SUB DUP2 ADD SWAP1 PUSH2 0x346 SWAP2 SWAP1 PUSH2 0x1C2C JUMP JUMPDEST PUSH2 0x102D JUMP JUMPDEST PUSH1 0x40 MLOAD PUSH2 0x358 SWAP2 SWAP1 PUSH2 0x1981 JUMP JUMPDEST PUSH1 0x40 MLOAD DUP1 SWAP2 SUB SWAP1 RETURN JUMPDEST PUSH2 0x369 PUSH2 0x1097 JUMP JUMPDEST PUSH1 0x40 MLOAD PUSH2 0x376 SWAP2 SWAP1 PUSH2 0x1A2C JUMP JUMPDEST PUSH1 0x40 MLOAD DUP1 SWAP2 SUB SWAP1 RETURN JUMPDEST PUSH2 0x399 PUSH1 0x4 DUP1 CALLDATASIZE SUB DUP2 ADD SWAP1 PUSH2 0x394 SWAP2 SWAP1 PUSH2 0x1AE2 JUMP JUMPDEST PUSH2 0x1129 JUMP JUMPDEST STOP JUMPDEST PUSH2 0x3A3 PUSH2 0x1162 JUMP JUMPDEST PUSH1 0x40 MLOAD PUSH2 0x3B0 SWAP2 SWAP1 PUSH2 0x1C11 JUMP JUMPDEST PUSH1 0x40 MLOAD DUP1 SWAP2 SUB SWAP1 RETURN JUMPDEST PUSH2 0x3D3 PUSH1 0x4 DUP1 CALLDATASIZE SUB DUP2 ADD SWAP1 PUSH2 0x3CE SWAP2 SWAP1 PUSH2 0x1AE2 JUMP JUMPDEST PUSH2 0x1169 JUMP JUMPDEST PUSH1 0x40 MLOAD PUSH2 0x3E0 SWAP2 SWAP1 PUSH2 0x1981 JUMP JUMPDEST PUSH1 0x40 MLOAD DUP1 SWAP2 SUB SWAP1 RETURN JUMPDEST PUSH2 0x403 PUSH1 0x4 DUP1 CALLDATASIZE SUB DUP2 ADD SWAP1 PUSH2 0x3FE SWAP2 SWAP1 PUSH2 0x1AE2 JUMP JUMPDEST PUSH2 0x12DB JUMP JUMPDEST PUSH1 0x40 MLOAD PUSH2 0x410 SWAP2 SWAP1 PUSH2 0x1981 JUMP JUMPDEST PUSH1 0x40 MLOAD DUP1 SWAP2 SUB SWAP1 RETURN JUMPDEST PUSH2 0x421 PUSH2 0x12F0 JUMP JUMPDEST PUSH1 0x40 MLOAD PUSH2 0x42E SWAP2 SWAP1 PUSH2 0x1C11 JUMP JUMPDEST PUSH1 0x40 MLOAD DUP1 SWAP2 SUB SWAP1 RETURN JUMPDEST PUSH2 0x451 PUSH1 0x4 DUP1 CALLDATASIZE SUB DUP2 ADD SWAP1 PUSH2 0x44C SWAP2 SWAP1 PUSH2 0x1C2C JUMP JUMPDEST PUSH2 0x1314 JUMP JUMPDEST STOP JUMPDEST PUSH2 0x46D PUSH1 0x4 DUP1 CALLDATASIZE SUB DUP2 ADD SWAP1 PUSH2 0x468 SWAP2 SWAP1 PUSH2 0x1CFD JUMP JUMPDEST PUSH2 0x1335 JUMP JUMPDEST PUSH1 0x40 MLOAD PUSH2 0x47A SWAP2 SWAP1 PUSH2 0x1B31 JUMP JUMPDEST PUSH1 0x40 MLOAD DUP1 SWAP2 SUB SWAP1 RETURN JUMPDEST PUSH1 0x0 PUSH32 0x7965DB0B00000000000000000000000000000000000000000000000000000000 PUSH28 0xFFFFFFFFFFFFFFFFFFFFFFFFFFFFFFFFFFFFFFFFFFFFFFFFFFFFFFFF NOT AND DUP3 PUSH28 0xFFFFFFFFFFFFFFFFFFFFFFFFFFFFFFFFFFFFFFFFFFFFFFFFFFFFFFFF NOT AND EQ DUP1 PUSH2 0x4F6 JUMPI POP PUSH2 0x4F5 DUP3 PUSH2 0x13BC JUMP JUMPDEST JUMPDEST SWAP1 POP SWAP2 SWAP1 POP JUMP JUMPDEST PUSH1 0x60 PUSH1 0x4 DUP1 SLOAD PUSH2 0x50C SWAP1 PUSH2 0x1D6C JUMP JUMPDEST DUP1 PUSH1 0x1F ADD PUSH1 0x20 DUP1 SWAP2 DIV MUL PUSH1 0x20 ADD PUSH1 0x40 MLOAD SWAP1 DUP2 ADD PUSH1 0x40 MSTORE DUP1 SWAP3 SWAP2 SWAP1 DUP2 DUP2 MSTORE PUSH1 0x20 ADD DUP3 DUP1 SLOAD PUSH2 0x538 SWAP1 PUSH2 0x1D6C JUMP JUMPDEST DUP1 ISZERO PUSH2 0x585 JUMPI DUP1 PUSH1 0x1F LT PUSH2 0x55A JUMPI PUSH2 0x100 DUP1 DUP4 SLOAD DIV MUL DUP4 MSTORE SWAP2 PUSH1 0x20 ADD SWAP2 PUSH2 0x585 JUMP JUMPDEST DUP3 ADD SWAP2 SWAP1 PUSH1 0x0 MSTORE PUSH1 0x20 PUSH1 0x0 KECCAK256 SWAP1 JUMPDEST DUP2 SLOAD DUP2 MSTORE SWAP1 PUSH1 0x1 ADD SWAP1 PUSH1 0x20 ADD DUP1 DUP4 GT PUSH2 0x568 JUMPI DUP3 SWAP1 SUB PUSH1 0x1F AND DUP3 ADD SWAP2 JUMPDEST POP POP POP POP POP SWAP1 POP SWAP1 JUMP JUMPDEST PUSH1 0x0 DUP1 PUSH20 0xFFFFFFFFFFFFFFFFFFFFFFFFFFFFFFFFFFFFFFFF AND DUP4 PUSH20 0xFFFFFFFFFFFFFFFFFFFFFFFFFFFFFFFFFFFFFFFF AND SUB PUSH2 0x5FF JUMPI PUSH1 0x40 MLOAD PUSH32 0x8C379A000000000000000000000000000000000000000000000000000000000 DUP2 MSTORE PUSH1 0x4 ADD PUSH2 0x5F6 SWAP1 PUSH2 0x1DE9 JUMP JUMPDEST PUSH1 0x40 MLOAD DUP1 SWAP2 SUB SWAP1 REVERT JUMPDEST DUP2 PUSH1 0x3 PUSH1 0x0 CALLER PUSH20 0xFFFFFFFFFFFFFFFFFFFFFFFFFFFFFFFFFFFFFFFF AND PUSH20 0xFFFFFFFFFFFFFFFFFFFFFFFFFFFFFFFFFFFFFFFF AND DUP2 MSTORE PUSH1 0x20 ADD SWAP1 DUP2 MSTORE PUSH1 0x20 ADD PUSH1 0x0 KECCAK256 PUSH1 0x0 DUP6 PUSH20 0xFFFFFFFFFFFFFFFFFFFFFFFFFFFFFFFFFFFFFFFF AND PUSH20 0xFFFFFFFFFFFFFFFFFFFFFFFFFFFFFFFFFFFFFFFF AND DUP2 MSTORE PUSH1 0x20 ADD SWAP1 DUP2 MSTORE PUSH1 0x20 ADD PUSH1 0x0 KECCAK256 DUP2 SWAP1 SSTORE POP PUSH1 0x1 SWAP1 POP SWAP3 SWAP2 POP POP JUMP JUMPDEST PUSH1 0x0 PUSH1 0x7 SLOAD SWAP1 POP SWAP1 JUMP JUMPDEST PUSH1 0x0 CALLER PUSH20 0xFFFFFFFFFFFFFFFFFFFFFFFFFFFFFFFFFFFFFFFF AND DUP5 PUSH20 0xFFFFFFFFFFFFFFFFFFFFFFFFFFFFFFFFFFFFFFFF AND SUB PUSH2 0x7AC JUMPI PUSH1 0x0 PUSH20 0xFFFFFFFFFFFFFFFFFFFFFFFFFFFFFFFFFFFFFFFF AND DUP5 PUSH20 0xFFFFFFFFFFFFFFFFFFFFFFFFFFFFFFFFFFFFFFFF AND SUB PUSH2 0x738 JUMPI PUSH1 0x40 MLOAD PUSH32 0x8C379A000000000000000000000000000000000000000000000000000000000 DUP2 MSTORE PUSH1 0x4 ADD PUSH2 0x72F SWAP1 PUSH2 0x1E55 JUMP JUMPDEST PUSH1 0x40 MLOAD DUP1 SWAP2 SUB SWAP1 REVERT JUMPDEST PUSH1 0x0 PUSH20 0xFFFFFFFFFFFFFFFFFFFFFFFFFFFFFFFFFFFFFFFF AND DUP4 PUSH20 0xFFFFFFFFFFFFFFFFFFFFFFFFFFFFFFFFFFFFFFFF AND SUB PUSH2 0x7A7 JUMPI PUSH1 0x40 MLOAD PUSH32 0x8C379A000000000000000000000000000000000000000000000000000000000 DUP2 MSTORE PUSH1 0x4 ADD PUSH2 0x79E SWAP1 PUSH2 0x1EC1 JUMP JUMPDEST PUSH1 0x40 MLOAD DUP1 SWAP2 SUB SWAP1 REVERT JUMPDEST PUSH2 0x8FE JUMP JUMPDEST PUSH1 0x0 PUSH1 0x3 PUSH1 0x0 DUP7 PUSH20 0xFFFFFFFFFFFFFFFFFFFFFFFFFFFFFFFFFFFFFFFF AND PUSH20 0xFFFFFFFFFFFFFFFFFFFFFFFFFFFFFFFFFFFFFFFF AND DUP2 MSTORE PUSH1 0x20 ADD SWAP1 DUP2 MSTORE PUSH1 0x20 ADD PUSH1 0x0 KECCAK256 PUSH1 0x0 CALLER PUSH20 0xFFFFFFFFFFFFFFFFFFFFFFFFFFFFFFFFFFFFFFFF AND PUSH20 0xFFFFFFFFFFFFFFFFFFFFFFFFFFFFFFFFFFFFFFFF AND DUP2 MSTORE PUSH1 0x20 ADD SWAP1 DUP2 MSTORE PUSH1 0x20 ADD PUSH1 0x0 KECCAK256 SLOAD SWAP1 POP DUP3 DUP2 LT ISZERO PUSH2 0x870 JUMPI PUSH1 0x40 MLOAD PUSH32 0x8C379A000000000000000000000000000000000000000000000000000000000 DUP2 MSTORE PUSH1 0x4 ADD PUSH2 0x867 SWAP1 PUSH2 0x1F2D JUMP JUMPDEST PUSH1 0x40 MLOAD DUP1 SWAP2 SUB SWAP1 REVERT JUMPDEST DUP3 DUP2 PUSH2 0x87C SWAP2 SWAP1 PUSH2 0x1F7C JUMP JUMPDEST PUSH1 0x3 PUSH1 0x0 DUP8 PUSH20 0xFFFFFFFFFFFFFFFFFFFFFFFFFFFFFFFFFFFFFFFF AND PUSH20 0xFFFFFFFFFFFFFFFFFFFFFFFFFFFFFFFFFFFFFFFF AND DUP2 MSTORE PUSH1 0x20 ADD SWAP1 DUP2 MSTORE PUSH1 0x20 ADD PUSH1 0x0 KECCAK256 PUSH1 0x0 CALLER PUSH20 0xFFFFFFFFFFFFFFFFFFFFFFFFFFFFFFFFFFFFFFFF AND PUSH20 0xFFFFFFFFFFFFFFFFFFFFFFFFFFFFFFFFFFFFFFFF AND DUP2 MSTORE PUSH1 0x20 ADD SWAP1 DUP2 MSTORE PUSH1 0x20 ADD PUSH1 0x0 KECCAK256 DUP2 SWAP1 SSTORE POP POP JUMPDEST PUSH1 0x0 PUSH2 0x909 DUP6 PUSH2 0xFE4 JUMP JUMPDEST SWAP1 POP DUP3 DUP2 LT ISZERO PUSH2 0x94E JUMPI PUSH1 0x40 MLOAD PUSH32 0x8C379A000000000000000000000000000000000000000000000000000000000 DUP2 MSTORE PUSH1 0x4 ADD PUSH2 0x945 SWAP1 PUSH2 0x1FFC JUMP JUMPDEST PUSH1 0x40 MLOAD DUP1 SWAP2 SUB SWAP1 REVERT JUMPDEST DUP3 PUSH1 0x2 PUSH1 0x0 DUP8 PUSH20 0xFFFFFFFFFFFFFFFFFFFFFFFFFFFFFFFFFFFFFFFF AND PUSH20 0xFFFFFFFFFFFFFFFFFFFFFFFFFFFFFFFFFFFFFFFF AND DUP2 MSTORE PUSH1 0x20 ADD SWAP1 DUP2 MSTORE PUSH1 0x20 ADD PUSH1 0x0 KECCAK256 PUSH1 0x0 DUP3 DUP3 SLOAD PUSH2 0x99D SWAP2 SWAP1 PUSH2 0x1F7C JUMP JUMPDEST SWAP3 POP POP DUP2 SWAP1 SSTORE POP DUP3 PUSH1 0x2 PUSH1 0x0 DUP7 PUSH20 0xFFFFFFFFFFFFFFFFFFFFFFFFFFFFFFFFFFFFFFFF AND PUSH20 0xFFFFFFFFFFFFFFFFFFFFFFFFFFFFFFFFFFFFFFFF AND DUP2 MSTORE PUSH1 0x20 ADD SWAP1 DUP2 MSTORE PUSH1 0x20 ADD PUSH1 0x0 KECCAK256 PUSH1 0x0 DUP3 DUP3 SLOAD PUSH2 0x9F3 SWAP2 SWAP1 PUSH2 0x201C JUMP JUMPDEST SWAP3 POP POP DUP2 SWAP1 SSTORE POP DUP4 PUSH20 0xFFFFFFFFFFFFFFFFFFFFFFFFFFFFFFFFFFFFFFFF AND DUP6 PUSH20 0xFFFFFFFFFFFFFFFFFFFFFFFFFFFFFFFFFFFFFFFF AND PUSH32 0xDDF252AD1BE2C89B69C2B068FC378DAA952BA7F163C4A11628F55A4DF523B3EF DUP6 PUSH1 0x40 MLOAD PUSH2 0xA57 SWAP2 SWAP1 PUSH2 0x1B31 JUMP JUMPDEST PUSH1 0x40 MLOAD DUP1 SWAP2 SUB SWAP1 LOG3 PUSH1 0x1 SWAP2 POP POP SWAP4 SWAP3 POP POP POP JUMP JUMPDEST PUSH1 0x0 DUP1 PUSH1 0x0 DUP4 DUP2 MSTORE PUSH1 0x20 ADD SWAP1 DUP2 MSTORE PUSH1 0x20 ADD PUSH1 0x0 KECCAK256 PUSH1 0x1 ADD SLOAD SWAP1 POP SWAP2 SWAP1 POP JUMP JUMPDEST PUSH2 0xA93 DUP3 PUSH2 0xA6B JUMP JUMPDEST PUSH2 0xA9C DUP2 PUSH2 0x1426 JUMP JUMPDEST PUSH2 0xAA6 DUP4 DUP4 PUSH2 0x143A JUMP JUMPDEST POP POP POP JUMP JUMPDEST PUSH1 0x0 PUSH1 0x6 PUSH1 0x0 SWAP1 SLOAD SWAP1 PUSH2 0x100 EXP SWAP1 DIV PUSH1 0xFF AND SWAP1 POP SWAP1 JUMP JUMPDEST PUSH2 0xACA PUSH2 0x151A JUMP JUMPDEST PUSH20 0xFFFFFFFFFFFFFFFFFFFFFFFFFFFFFFFFFFFFFFFF AND DUP2 PUSH20 0xFFFFFFFFFFFFFFFFFFFFFFFFFFFFFFFFFFFFFFFF AND EQ PUSH2 0xB37 JUMPI PUSH1 0x40 MLOAD PUSH32 0x8C379A000000000000000000000000000000000000000000000000000000000 DUP2 MSTORE PUSH1 0x4 ADD PUSH2 0xB2E SWAP1 PUSH2 0x20C2 JUMP JUMPDEST PUSH1 0x40 MLOAD DUP1 SWAP2 SUB SWAP1 REVERT JUMPDEST PUSH2 0xB41 DUP3 DUP3 PUSH2 0x1522 JUMP JUMPDEST POP POP JUMP JUMPDEST PUSH1 0x0 DUP1 PUSH20 0xFFFFFFFFFFFFFFFFFFFFFFFFFFFFFFFFFFFFFFFF AND DUP4 PUSH20 0xFFFFFFFFFFFFFFFFFFFFFFFFFFFFFFFFFFFFFFFF AND SUB PUSH2 0xBB5 JUMPI PUSH1 0x40 MLOAD PUSH32 0x8C379A000000000000000000000000000000000000000000000000000000000 DUP2 MSTORE PUSH1 0x4 ADD PUSH2 0xBAC SWAP1 PUSH2 0x1DE9 JUMP JUMPDEST PUSH1 0x40 MLOAD DUP1 SWAP2 SUB SWAP1 REVERT JUMPDEST DUP2 PUSH1 0x3 PUSH1 0x0 CALLER PUSH20 0xFFFFFFFFFFFFFFFFFFFFFFFFFFFFFFFFFFFFFFFF AND PUSH20 0xFFFFFFFFFFFFFFFFFFFFFFFFFFFFFFFFFFFFFFFF AND DUP2 MSTORE PUSH1 0x20 ADD SWAP1 DUP2 MSTORE PUSH1 0x20 ADD PUSH1 0x0 KECCAK256 PUSH1 0x0 DUP6 PUSH20 0xFFFFFFFFFFFFFFFFFFFFFFFFFFFFFFFFFFFFFFFF AND PUSH20 0xFFFFFFFFFFFFFFFFFFFFFFFFFFFFFFFFFFFFFFFF AND DUP2 MSTORE PUSH1 0x20 ADD SWAP1 DUP2 MSTORE PUSH1 0x20 ADD PUSH1 0x0 KECCAK256 PUSH1 0x0 DUP3 DUP3 SLOAD PUSH2 0xC41 SWAP2 SWAP1 PUSH2 0x201C JUMP JUMPDEST SWAP3 POP POP DUP2 SWAP1 SSTORE POP DUP3 PUSH20 0xFFFFFFFFFFFFFFFFFFFFFFFFFFFFFFFFFFFFFFFF AND CALLER PUSH20 0xFFFFFFFFFFFFFFFFFFFFFFFFFFFFFFFFFFFFFFFF AND PUSH32 0x8C5BE1E5EBEC7D5BD14F71427D1E84F3DD0314C0F7B2291E5B200AC8C7C3B925 DUP5 PUSH1 0x40 MLOAD PUSH2 0xCA5 SWAP2 SWAP1 PUSH2 0x1B31 JUMP JUMPDEST PUSH1 0x40 MLOAD DUP1 SWAP2 SUB SWAP1 LOG3 PUSH1 0x1 SWAP1 POP SWAP3 SWAP2 POP POP JUMP JUMPDEST PUSH1 0x0 PUSH20 0xFFFFFFFFFFFFFFFFFFFFFFFFFFFFFFFFFFFFFFFF AND DUP3 PUSH20 0xFFFFFFFFFFFFFFFFFFFFFFFFFFFFFFFFFFFFFFFF AND SUB PUSH2 0xD26 JUMPI PUSH1 0x40 MLOAD PUSH32 0x8C379A000000000000000000000000000000000000000000000000000000000 DUP2 MSTORE PUSH1 0x4 ADD PUSH2 0xD1D SWAP1 PUSH2 0x212E JUMP JUMPDEST PUSH1 0x40 MLOAD DUP1 SWAP2 SUB SWAP1 REVERT JUMPDEST DUP1 PUSH1 0x2 PUSH1 0x0 DUP5 PUSH20 0xFFFFFFFFFFFFFFFFFFFFFFFFFFFFFFFFFFFFFFFF AND PUSH20 0xFFFFFFFFFFFFFFFFFFFFFFFFFFFFFFFFFFFFFFFF AND DUP2 MSTORE PUSH1 0x20 ADD SWAP1 DUP2 MSTORE PUSH1 0x20 ADD PUSH1 0x0 KECCAK256 PUSH1 0x0 DUP3 DUP3 SLOAD PUSH2 0xD75 SWAP2 SWAP1 PUSH2 0x201C JUMP JUMPDEST SWAP3 POP POP DUP2 SWAP1 SSTORE POP DUP1 PUSH1 0x7 PUSH1 0x0 DUP3 DUP3 SLOAD PUSH2 0xD8E SWAP2 SWAP1 PUSH2 0x201C JUMP JUMPDEST SWAP3 POP POP DUP2 SWAP1 SSTORE POP PUSH1 0x8 SLOAD PUSH1 0x7 SLOAD GT ISZERO PUSH2 0xDDC JUMPI PUSH1 0x40 MLOAD PUSH32 0x8C379A000000000000000000000000000000000000000000000000000000000 DUP2 MSTORE PUSH1 0x4 ADD PUSH2 0xDD3 SWAP1 PUSH2 0x219A JUMP JUMPDEST PUSH1 0x40 MLOAD DUP1 SWAP2 SUB SWAP1 REVERT JUMPDEST DUP2 PUSH20 0xFFFFFFFFFFFFFFFFFFFFFFFFFFFFFFFFFFFFFFFF AND PUSH1 0x0 PUSH20 0xFFFFFFFFFFFFFFFFFFFFFFFFFFFFFFFFFFFFFFFF AND PUSH32 0xDDF252AD1BE2C89B69C2B068FC378DAA952BA7F163C4A11628F55A4DF523B3EF DUP4 PUSH1 0x40 MLOAD PUSH2 0xE3A SWAP2 SWAP1 PUSH2 0x1B31 JUMP JUMPDEST PUSH1 0x40 MLOAD DUP1 SWAP2 SUB SWAP1 LOG3 POP POP JUMP JUMPDEST PUSH1 0x0 CALLER SWAP1 POP PUSH1 0x0 PUSH20 0xFFFFFFFFFFFFFFFFFFFFFFFFFFFFFFFFFFFFFFFF AND DUP2 PUSH20 0xFFFFFFFFFFFFFFFFFFFFFFFFFFFFFFFFFFFFFFFF AND SUB PUSH2 0xEBA JUMPI PUSH1 0x40 MLOAD PUSH32 0x8C379A000000000000000000000000000000000000000000000000000000000 DUP2 MSTORE PUSH1 0x4 ADD PUSH2 0xEB1 SWAP1 PUSH2 0x2206 JUMP JUMPDEST PUSH1 0x40 MLOAD DUP1 SWAP2 SUB SWAP1 REVERT JUMPDEST PUSH1 0x0 PUSH2 0xEC5 DUP3 PUSH2 0xFE4 JUMP JUMPDEST SWAP1 POP DUP3 DUP2 LT ISZERO PUSH2 0xF0A JUMPI PUSH1 0x40 MLOAD PUSH32 0x8C379A000000000000000000000000000000000000000000000000000000000 DUP2 MSTORE PUSH1 0x4 ADD PUSH2 0xF01 SWAP1 PUSH2 0x2272 JUMP JUMPDEST PUSH1 0x40 MLOAD DUP1 SWAP2 SUB SWAP1 REVERT JUMPDEST DUP3 PUSH1 0x2 PUSH1 0x0 DUP5 PUSH20 0xFFFFFFFFFFFFFFFFFFFFFFFFFFFFFFFFFFFFFFFF AND PUSH20 0xFFFFFFFFFFFFFFFFFFFFFFFFFFFFFFFFFFFFFFFF AND DUP2 MSTORE PUSH1 0x20 ADD SWAP1 DUP2 MSTORE PUSH1 0x20 ADD PUSH1 0x0 KECCAK256 PUSH1 0x0 DUP3 DUP3 SLOAD PUSH2 0xF59 SWAP2 SWAP1 PUSH2 0x1F7C JUMP JUMPDEST SWAP3 POP POP DUP2 SWAP1 SSTORE POP DUP3 PUSH1 0x7 PUSH1 0x0 DUP3 DUP3 SLOAD PUSH2 0xF72 SWAP2 SWAP1 PUSH2 0x1F7C JUMP JUMPDEST SWAP3 POP POP DUP2 SWAP1 SSTORE POP PUSH1 0x0 PUSH20 0xFFFFFFFFFFFFFFFFFFFFFFFFFFFFFFFFFFFFFFFF AND DUP3 PUSH20 0xFFFFFFFFFFFFFFFFFFFFFFFFFFFFFFFFFFFFFFFF AND PUSH32 0xDDF252AD1BE2C89B69C2B068FC378DAA952BA7F163C4A11628F55A4DF523B3EF DUP6 PUSH1 0x40 MLOAD PUSH2 0xFD7 SWAP2 SWAP1 PUSH2 0x1B31 JUMP JUMPDEST PUSH1 0x40 MLOAD DUP1 SWAP2 SUB SWAP1 LOG3 POP POP POP JUMP JUMPDEST PUSH1 0x0 PUSH1 0x2 PUSH1 0x0 DUP4 PUSH20 0xFFFFFFFFFFFFFFFFFFFFFFFFFFFFFFFFFFFFFFFF AND PUSH20 0xFFFFFFFFFFFFFFFFFFFFFFFFFFFFFFFFFFFFFFFF AND DUP2 MSTORE PUSH1 0x20 ADD SWAP1 DUP2 MSTORE PUSH1 0x20 ADD PUSH1 0x0 KECCAK256 SLOAD SWAP1 POP SWAP2 SWAP1 POP JUMP JUMPDEST PUSH1 0x0 DUP1 PUSH1 0x0 DUP5 DUP2 MSTORE PUSH1 0x20 ADD SWAP1 DUP2 MSTORE PUSH1 0x20 ADD PUSH1 0x0 KECCAK256 PUSH1 0x0 ADD PUSH1 0x0 DUP4 PUSH20 0xFFFFFFFFFFFFFFFFFFFFFFFFFFFFFFFFFFFFFFFF AND PUSH20 0xFFFFFFFFFFFFFFFFFFFFFFFFFFFFFFFFFFFFFFFF AND DUP2 MSTORE PUSH1 0x20 ADD SWAP1 DUP2 MSTORE PUSH1 0x20 ADD PUSH1 0x0 KECCAK256 PUSH1 0x0 SWAP1 SLOAD SWAP1 PUSH2 0x100 EXP SWAP1 DIV PUSH1 0xFF AND SWAP1 POP SWAP3 SWAP2 POP POP JUMP JUMPDEST PUSH1 0x60 PUSH1 0x5 DUP1 SLOAD PUSH2 0x10A6 SWAP1 PUSH2 0x1D6C JUMP JUMPDEST DUP1 PUSH1 0x1F ADD PUSH1 0x20 DUP1 SWAP2 DIV MUL PUSH1 0x20 ADD PUSH1 0x40 MLOAD SWAP1 DUP2 ADD PUSH1 0x40 MSTORE DUP1 SWAP3 SWAP2 SWAP1 DUP2 DUP2 MSTORE PUSH1 0x20 ADD DUP3 DUP1 SLOAD PUSH2 0x10D2 SWAP1 PUSH2 0x1D6C JUMP JUMPDEST DUP1 ISZERO PUSH2 0x111F JUMPI DUP1 PUSH1 0x1F LT PUSH2 0x10F4 JUMPI PUSH2 0x100 DUP1 DUP4 SLOAD DIV MUL DUP4 MSTORE SWAP2 PUSH1 0x20 ADD SWAP2 PUSH2 0x111F JUMP JUMPDEST DUP3 ADD SWAP2 SWAP1 PUSH1 0x0 MSTORE PUSH1 0x20 PUSH1 0x0 KECCAK256 SWAP1 JUMPDEST DUP2 SLOAD DUP2 MSTORE SWAP1 PUSH1 0x1 ADD SWAP1 PUSH1 0x20 ADD DUP1 DUP4 GT PUSH2 0x1102 JUMPI DUP3 SWAP1 SUB PUSH1 0x1F AND DUP3 ADD SWAP2 JUMPDEST POP POP POP POP POP SWAP1 POP SWAP1 JUMP JUMPDEST PUSH32 0x9F2DF0FED2C77648DE5860A4CC508CD0818C85B8B8A1AB4CEEEF8D981C8956A6 PUSH2 0x1153 DUP2 PUSH2 0x1426 JUMP JUMPDEST PUSH2 0x115D DUP4 DUP4 PUSH2 0xCB7 JUMP JUMPDEST POP POP POP JUMP JUMPDEST PUSH1 0x0 DUP1 SHL DUP2 JUMP JUMPDEST PUSH1 0x0 DUP1 PUSH20 0xFFFFFFFFFFFFFFFFFFFFFFFFFFFFFFFFFFFFFFFF AND DUP4 PUSH20 0xFFFFFFFFFFFFFFFFFFFFFFFFFFFFFFFFFFFFFFFF AND SUB PUSH2 0x11D9 JUMPI PUSH1 0x40 MLOAD PUSH32 0x8C379A000000000000000000000000000000000000000000000000000000000 DUP2 MSTORE PUSH1 0x4 ADD PUSH2 0x11D0 SWAP1 PUSH2 0x1DE9 JUMP JUMPDEST PUSH1 0x40 MLOAD DUP1 SWAP2 SUB SWAP1 REVERT JUMPDEST DUP2 PUSH1 0x3 PUSH1 0x0 CALLER PUSH20 0xFFFFFFFFFFFFFFFFFFFFFFFFFFFFFFFFFFFFFFFF AND PUSH20 0xFFFFFFFFFFFFFFFFFFFFFFFFFFFFFFFFFFFFFFFF AND DUP2 MSTORE PUSH1 0x20 ADD SWAP1 DUP2 MSTORE PUSH1 0x20 ADD PUSH1 0x0 KECCAK256 PUSH1 0x0 DUP6 PUSH20 0xFFFFFFFFFFFFFFFFFFFFFFFFFFFFFFFFFFFFFFFF AND PUSH20 0xFFFFFFFFFFFFFFFFFFFFFFFFFFFFFFFFFFFFFFFF AND DUP2 MSTORE PUSH1 0x20 ADD SWAP1 DUP2 MSTORE PUSH1 0x20 ADD PUSH1 0x0 KECCAK256 PUSH1 0x0 DUP3 DUP3 SLOAD PUSH2 0x1265 SWAP2 SWAP1 PUSH2 0x1F7C JUMP JUMPDEST SWAP3 POP POP DUP2 SWAP1 SSTORE POP DUP3 PUSH20 0xFFFFFFFFFFFFFFFFFFFFFFFFFFFFFFFFFFFFFFFF AND CALLER PUSH20 0xFFFFFFFFFFFFFFFFFFFFFFFFFFFFFFFFFFFFFFFF AND PUSH32 0x8C5BE1E5EBEC7D5BD14F71427D1E84F3DD0314C0F7B2291E5B200AC8C7C3B925 DUP5 PUSH1 0x40 MLOAD PUSH2 0x12C9 SWAP2 SWAP1 PUSH2 0x1B31 JUMP JUMPDEST PUSH1 0x40 MLOAD DUP1 SWAP2 SUB SWAP1 LOG3 PUSH1 0x1 SWAP1 POP SWAP3 SWAP2 POP POP JUMP JUMPDEST PUSH1 0x0 PUSH2 0x12E8 CALLER DUP5 DUP5 PUSH2 0x694 JUMP JUMPDEST SWAP1 POP SWAP3 SWAP2 POP POP JUMP JUMPDEST PUSH32 0x9F2DF0FED2C77648DE5860A4CC508CD0818C85B8B8A1AB4CEEEF8D981C8956A6 DUP2 JUMP JUMPDEST PUSH2 0x131D DUP3 PUSH2 0xA6B JUMP JUMPDEST PUSH2 0x1326 DUP2 PUSH2 0x1426 JUMP JUMPDEST PUSH2 0x1330 DUP4 DUP4 PUSH2 0x1522 JUMP JUMPDEST POP POP POP JUMP JUMPDEST PUSH1 0x0 PUSH1 0x3 PUSH1 0x0 DUP5 PUSH20 0xFFFFFFFFFFFFFFFFFFFFFFFFFFFFFFFFFFFFFFFF AND PUSH20 0xFFFFFFFFFFFFFFFFFFFFFFFFFFFFFFFFFFFFFFFF AND DUP2 MSTORE PUSH1 0x20 ADD SWAP1 DUP2 MSTORE PUSH1 0x20 ADD PUSH1 0x0 KECCAK256 PUSH1 0x0 DUP4 PUSH20 0xFFFFFFFFFFFFFFFFFFFFFFFFFFFFFFFFFFFFFFFF AND PUSH20 0xFFFFFFFFFFFFFFFFFFFFFFFFFFFFFFFFFFFFFFFF AND DUP2 MSTORE PUSH1 0x20 ADD SWAP1 DUP2 MSTORE PUSH1 0x20 ADD PUSH1 0x0 KECCAK256 SLOAD SWAP1 POP SWAP3 SWAP2 POP POP JUMP JUMPDEST PUSH1 0x0 PUSH32 0x1FFC9A700000000000000000000000000000000000000000000000000000000 PUSH28 0xFFFFFFFFFFFFFFFFFFFFFFFFFFFFFFFFFFFFFFFFFFFFFFFFFFFFFFFF NOT AND DUP3 PUSH28 0xFFFFFFFFFFFFFFFFFFFFFFFFFFFFFFFFFFFFFFFFFFFFFFFFFFFFFFFF NOT AND EQ SWAP1 POP SWAP2 SWAP1 POP JUMP JUMPDEST PUSH2 0x1437 DUP2 PUSH2 0x1432 PUSH2 0x151A JUMP JUMPDEST PUSH2 0x1603 JUMP JUMPDEST POP JUMP JUMPDEST PUSH2 0x1444 DUP3 DUP3 PUSH2 0x102D JUMP JUMPDEST PUSH2 0x1516 JUMPI PUSH1 0x1 PUSH1 0x0 DUP1 DUP5 DUP2 MSTORE PUSH1 0x20 ADD SWAP1 DUP2 MSTORE PUSH1 0x20 ADD PUSH1 0x0 KECCAK256 PUSH1 0x0 ADD PUSH1 0x0 DUP4 PUSH20 0xFFFFFFFFFFFFFFFFFFFFFFFFFFFFFFFFFFFFFFFF AND PUSH20 0xFFFFFFFFFFFFFFFFFFFFFFFFFFFFFFFFFFFFFFFF AND DUP2 MSTORE PUSH1 0x20 ADD SWAP1 DUP2 MSTORE PUSH1 0x20 ADD PUSH1 0x0 KECCAK256 PUSH1 0x0 PUSH2 0x100 EXP DUP2 SLOAD DUP2 PUSH1 0xFF MUL NOT AND SWAP1 DUP4 ISZERO ISZERO MUL OR SWAP1 SSTORE POP PUSH2 0x14BB PUSH2 0x151A JUMP JUMPDEST PUSH20 0xFFFFFFFFFFFFFFFFFFFFFFFFFFFFFFFFFFFFFFFF AND DUP2 PUSH20 0xFFFFFFFFFFFFFFFFFFFFFFFFFFFFFFFFFFFFFFFF AND DUP4 PUSH32 0x2F8788117E7EFF1D82E926EC794901D17C78024A50270940304540A733656F0D PUSH1 0x40 MLOAD PUSH1 0x40 MLOAD DUP1 SWAP2 SUB SWAP1 LOG4 JUMPDEST POP POP JUMP JUMPDEST PUSH1 0x0 CALLER SWAP1 POP SWAP1 JUMP JUMPDEST PUSH2 0x152C DUP3 DUP3 PUSH2 0x102D JUMP JUMPDEST ISZERO PUSH2 0x15FF JUMPI PUSH1 0x0 DUP1 PUSH1 0x0 DUP5 DUP2 MSTORE PUSH1 0x20 ADD SWAP1 DUP2 MSTORE PUSH1 0x20 ADD PUSH1 0x0 KECCAK256 PUSH1 0x0 ADD PUSH1 0x0 DUP4 PUSH20 0xFFFFFFFFFFFFFFFFFFFFFFFFFFFFFFFFFFFFFFFF AND PUSH20 0xFFFFFFFFFFFFFFFFFFFFFFFFFFFFFFFFFFFFFFFF AND DUP2 MSTORE PUSH1 0x20 ADD SWAP1 DUP2 MSTORE PUSH1 0x20 ADD PUSH1 0x0 KECCAK256 PUSH1 0x0 PUSH2 0x100 EXP DUP2 SLOAD DUP2 PUSH1 0xFF MUL NOT AND SWAP1 DUP4 ISZERO ISZERO MUL OR SWAP1 SSTORE POP PUSH2 0x15A4 PUSH2 0x151A JUMP JUMPDEST PUSH20 0xFFFFFFFFFFFFFFFFFFFFFFFFFFFFFFFFFFFFFFFF AND DUP2 PUSH20 0xFFFFFFFFFFFFFFFFFFFFFFFFFFFFFFFFFFFFFFFF AND DUP4 PUSH32 0xF6391F5C32D9C69D2A47EA670B442974B53935D1EDC7FD64EB21E047A839171B PUSH1 0x40 MLOAD PUSH1 0x40 MLOAD DUP1 SWAP2 SUB SWAP1 LOG4 JUMPDEST POP POP JUMP JUMPDEST PUSH2 0x160D DUP3 DUP3 PUSH2 0x102D JUMP JUMPDEST PUSH2 0x169C JUMPI PUSH2 0x1632 DUP2 PUSH20 0xFFFFFFFFFFFFFFFFFFFFFFFFFFFFFFFFFFFFFFFF AND PUSH1 0x14 PUSH2 0x16A0 JUMP JUMPDEST PUSH2 0x1640 DUP4 PUSH1 0x0 SHR PUSH1 0x20 PUSH2 0x16A0 JUMP JUMPDEST PUSH1 0x40 MLOAD PUSH1 0x20 ADD PUSH2 0x1651 SWAP3 SWAP2 SWAP1 PUSH2 0x2366 JUMP JUMPDEST PUSH1 0x40 MLOAD PUSH1 0x20 DUP2 DUP4 SUB SUB DUP2 MSTORE SWAP1 PUSH1 0x40 MSTORE PUSH1 0x40 MLOAD PUSH32 0x8C379A000000000000000000000000000000000000000000000000000000000 DUP2 MSTORE PUSH1 0x4 ADD PUSH2 0x1693 SWAP2 SWAP1 PUSH2 0x1A2C JUMP JUMPDEST PUSH1 0x40 MLOAD DUP1 SWAP2 SUB SWAP1 REVERT JUMPDEST POP POP JUMP JUMPDEST PUSH1 0x60 PUSH1 0x0 PUSH1 0x2 DUP4 PUSH1 0x2 PUSH2 0x16B3 SWAP2 SWAP1 PUSH2 0x23A0 JUMP JUMPDEST PUSH2 0x16BD SWAP2 SWAP1 PUSH2 0x201C JUMP JUMPDEST PUSH8 0xFFFFFFFFFFFFFFFF DUP2 GT ISZERO PUSH2 0x16D6 JUMPI PUSH2 0x16D5 PUSH2 0x23E2 JUMP JUMPDEST JUMPDEST PUSH1 0x40 MLOAD SWAP1 DUP1 DUP3 MSTORE DUP1 PUSH1 0x1F ADD PUSH1 0x1F NOT AND PUSH1 0x20 ADD DUP3 ADD PUSH1 0x40 MSTORE DUP1 ISZERO PUSH2 0x1708 JUMPI DUP2 PUSH1 0x20 ADD PUSH1 0x1 DUP3 MUL DUP1 CALLDATASIZE DUP4 CALLDATACOPY DUP1 DUP3 ADD SWAP2 POP POP SWAP1 POP JUMPDEST POP SWAP1 POP PUSH32 0x3000000000000000000000000000000000000000000000000000000000000000 DUP2 PUSH1 0x0 DUP2 MLOAD DUP2 LT PUSH2 0x1740 JUMPI PUSH2 0x173F PUSH2 0x2411 JUMP JUMPDEST JUMPDEST PUSH1 0x20 ADD ADD SWAP1 PUSH31 0xFFFFFFFFFFFFFFFFFFFFFFFFFFFFFFFFFFFFFFFFFFFFFFFFFFFFFFFFFFFFFF NOT AND SWAP1 DUP2 PUSH1 0x0 BYTE SWAP1 MSTORE8 POP PUSH32 0x7800000000000000000000000000000000000000000000000000000000000000 DUP2 PUSH1 0x1 DUP2 MLOAD DUP2 LT PUSH2 0x17A4 JUMPI PUSH2 0x17A3 PUSH2 0x2411 JUMP JUMPDEST JUMPDEST PUSH1 0x20 ADD ADD SWAP1 PUSH31 0xFFFFFFFFFFFFFFFFFFFFFFFFFFFFFFFFFFFFFFFFFFFFFFFFFFFFFFFFFFFFFF NOT AND SWAP1 DUP2 PUSH1 0x0 BYTE SWAP1 MSTORE8 POP PUSH1 0x0 PUSH1 0x1 DUP5 PUSH1 0x2 PUSH2 0x17E4 SWAP2 SWAP1 PUSH2 0x23A0 JUMP JUMPDEST PUSH2 0x17EE SWAP2 SWAP1 PUSH2 0x201C JUMP JUMPDEST SWAP1 POP JUMPDEST PUSH1 0x1 DUP2 GT ISZERO PUSH2 0x188E JUMPI PUSH32 0x3031323334353637383961626364656600000000000000000000000000000000 PUSH1 0xF DUP7 AND PUSH1 0x10 DUP2 LT PUSH2 0x1830 JUMPI PUSH2 0x182F PUSH2 0x2411 JUMP JUMPDEST JUMPDEST BYTE PUSH1 0xF8 SHL DUP3 DUP3 DUP2 MLOAD DUP2 LT PUSH2 0x1847 JUMPI PUSH2 0x1846 PUSH2 0x2411 JUMP JUMPDEST JUMPDEST PUSH1 0x20 ADD ADD SWAP1 PUSH31 0xFFFFFFFFFFFFFFFFFFFFFFFFFFFFFFFFFFFFFFFFFFFFFFFFFFFFFFFFFFFFFF NOT AND SWAP1 DUP2 PUSH1 0x0 BYTE SWAP1 MSTORE8 POP PUSH1 0x4 DUP6 SWAP1 SHR SWAP5 POP DUP1 PUSH2 0x1887 SWAP1 PUSH2 0x2440 JUMP JUMPDEST SWAP1 POP PUSH2 0x17F1 JUMP JUMPDEST POP PUSH1 0x0 DUP5 EQ PUSH2 0x18D2 JUMPI PUSH1 0x40 MLOAD PUSH32 0x8C379A000000000000000000000000000000000000000000000000000000000 DUP2 MSTORE PUSH1 0x4 ADD PUSH2 0x18C9 SWAP1 PUSH2 0x24B5 JUMP JUMPDEST PUSH1 0x40 MLOAD DUP1 SWAP2 SUB SWAP1 REVERT JUMPDEST DUP1 SWAP2 POP POP SWAP3 SWAP2 POP POP JUMP JUMPDEST PUSH1 0x0 DUP1 REVERT JUMPDEST PUSH1 0x0 PUSH32 0xFFFFFFFF00000000000000000000000000000000000000000000000000000000 DUP3 AND SWAP1 POP SWAP2 SWAP1 POP JUMP JUMPDEST PUSH2 0x1916 DUP2 PUSH2 0x18E1 JUMP JUMPDEST DUP2 EQ PUSH2 0x1921 JUMPI PUSH1 0x0 DUP1 REVERT JUMPDEST POP JUMP JUMPDEST PUSH1 0x0 DUP2 CALLDATALOAD SWAP1 POP PUSH2 0x1933 DUP2 PUSH2 0x190D JUMP JUMPDEST SWAP3 SWAP2 POP POP JUMP JUMPDEST PUSH1 0x0 PUSH1 0x20 DUP3 DUP5 SUB SLT ISZERO PUSH2 0x194F JUMPI PUSH2 0x194E PUSH2 0x18DC JUMP JUMPDEST JUMPDEST PUSH1 0x0 PUSH2 0x195D DUP5 DUP3 DUP6 ADD PUSH2 0x1924 JUMP JUMPDEST SWAP2 POP POP SWAP3 SWAP2 POP POP JUMP JUMPDEST PUSH1 0x0 DUP2 ISZERO ISZERO SWAP1 POP SWAP2 SWAP1 POP JUMP JUMPDEST PUSH2 0x197B DUP2 PUSH2 0x1966 JUMP JUMPDEST DUP3 MSTORE POP POP JUMP JUMPDEST PUSH1 0x0 PUSH1 0x20 DUP3 ADD SWAP1 POP PUSH2 0x1996 PUSH1 0x0 DUP4 ADD DUP5 PUSH2 0x1972 JUMP JUMPDEST SWAP3 SWAP2 POP POP JUMP JUMPDEST PUSH1 0x0 DUP2 MLOAD SWAP1 POP SWAP2 SWAP1 POP JUMP JUMPDEST PUSH1 0x0 DUP3 DUP3 MSTORE PUSH1 0x20 DUP3 ADD SWAP1 POP SWAP3 SWAP2 POP POP JUMP JUMPDEST PUSH1 0x0 JUMPDEST DUP4 DUP2 LT ISZERO PUSH2 0x19D6 JUMPI DUP1 DUP3 ADD MLOAD DUP2 DUP5 ADD MSTORE PUSH1 0x20 DUP2 ADD SWAP1 POP PUSH2 0x19BB JUMP JUMPDEST PUSH1 0x0 DUP5 DUP5 ADD MSTORE POP POP POP POP JUMP JUMPDEST PUSH1 0x0 PUSH1 0x1F NOT PUSH1 0x1F DUP4 ADD AND SWAP1 POP SWAP2 SWAP1 POP JUMP JUMPDEST PUSH1 0x0 PUSH2 0x19FE DUP3 PUSH2 0x199C JUMP JUMPDEST PUSH2 0x1A08 DUP2 DUP6 PUSH2 0x19A7 JUMP JUMPDEST SWAP4 POP PUSH2 0x1A18 DUP2 DUP6 PUSH1 0x20 DUP7 ADD PUSH2 0x19B8 JUMP JUMPDEST PUSH2 0x1A21 DUP2 PUSH2 0x19E2 JUMP JUMPDEST DUP5 ADD SWAP2 POP POP SWAP3 SWAP2 POP POP JUMP JUMPDEST PUSH1 0x0 PUSH1 0x20 DUP3 ADD SWAP1 POP DUP2 DUP2 SUB PUSH1 0x0 DUP4 ADD MSTORE PUSH2 0x1A46 DUP2 DUP5 PUSH2 0x19F3 JUMP JUMPDEST SWAP1 POP SWAP3 SWAP2 POP POP JUMP JUMPDEST PUSH1 0x0 PUSH20 0xFFFFFFFFFFFFFFFFFFFFFFFFFFFFFFFFFFFFFFFF DUP3 AND SWAP1 POP SWAP2 SWAP1 POP JUMP JUMPDEST PUSH1 0x0 PUSH2 0x1A79 DUP3 PUSH2 0x1A4E JUMP JUMPDEST SWAP1 POP SWAP2 SWAP1 POP JUMP JUMPDEST PUSH2 0x1A89 DUP2 PUSH2 0x1A6E JUMP JUMPDEST DUP2 EQ PUSH2 0x1A94 JUMPI PUSH1 0x0 DUP1 REVERT JUMPDEST POP JUMP JUMPDEST PUSH1 0x0 DUP2 CALLDATALOAD SWAP1 POP PUSH2 0x1AA6 DUP2 PUSH2 0x1A80 JUMP JUMPDEST SWAP3 SWAP2 POP POP JUMP JUMPDEST PUSH1 0x0 DUP2 SWAP1 POP SWAP2 SWAP1 POP JUMP JUMPDEST PUSH2 0x1ABF DUP2 PUSH2 0x1AAC JUMP JUMPDEST DUP2 EQ PUSH2 0x1ACA JUMPI PUSH1 0x0 DUP1 REVERT JUMPDEST POP JUMP JUMPDEST PUSH1 0x0 DUP2 CALLDATALOAD SWAP1 POP PUSH2 0x1ADC DUP2 PUSH2 0x1AB6 JUMP JUMPDEST SWAP3 SWAP2 POP POP JUMP JUMPDEST PUSH1 0x0 DUP1 PUSH1 0x40 DUP4 DUP6 SUB SLT ISZERO PUSH2 0x1AF9 JUMPI PUSH2 0x1AF8 PUSH2 0x18DC JUMP JUMPDEST JUMPDEST PUSH1 0x0 PUSH2 0x1B07 DUP6 DUP3 DUP7 ADD PUSH2 0x1A97 JUMP JUMPDEST SWAP3 POP POP PUSH1 0x20 PUSH2 0x1B18 DUP6 DUP3 DUP7 ADD PUSH2 0x1ACD JUMP JUMPDEST SWAP2 POP POP SWAP3 POP SWAP3 SWAP1 POP JUMP JUMPDEST PUSH2 0x1B2B DUP2 PUSH2 0x1AAC JUMP JUMPDEST DUP3 MSTORE POP POP JUMP JUMPDEST PUSH1 0x0 PUSH1 0x20 DUP3 ADD SWAP1 POP PUSH2 0x1B46 PUSH1 0x0 DUP4 ADD DUP5 PUSH2 0x1B22 JUMP JUMPDEST SWAP3 SWAP2 POP POP JUMP JUMPDEST PUSH1 0x0 DUP1 PUSH1 0x0 PUSH1 0x60 DUP5 DUP7 SUB SLT ISZERO PUSH2 0x1B65 JUMPI PUSH2 0x1B64 PUSH2 0x18DC JUMP JUMPDEST JUMPDEST PUSH1 0x0 PUSH2 0x1B73 DUP7 DUP3 DUP8 ADD PUSH2 0x1A97 JUMP JUMPDEST SWAP4 POP POP PUSH1 0x20 PUSH2 0x1B84 DUP7 DUP3 DUP8 ADD PUSH2 0x1A97 JUMP JUMPDEST SWAP3 POP POP PUSH1 0x40 PUSH2 0x1B95 DUP7 DUP3 DUP8 ADD PUSH2 0x1ACD JUMP JUMPDEST SWAP2 POP POP SWAP3 POP SWAP3 POP SWAP3 JUMP JUMPDEST PUSH1 0x0 DUP2 SWAP1 POP SWAP2 SWAP1 POP JUMP JUMPDEST PUSH2 0x1BB2 DUP2 PUSH2 0x1B9F JUMP JUMPDEST DUP2 EQ PUSH2 0x1BBD JUMPI PUSH1 0x0 DUP1 REVERT JUMPDEST POP JUMP JUMPDEST PUSH1 0x0 DUP2 CALLDATALOAD SWAP1 POP PUSH2 0x1BCF DUP2 PUSH2 0x1BA9 JUMP JUMPDEST SWAP3 SWAP2 POP POP JUMP JUMPDEST PUSH1 0x0 PUSH1 0x20 DUP3 DUP5 SUB SLT ISZERO PUSH2 0x1BEB JUMPI PUSH2 0x1BEA PUSH2 0x18DC JUMP JUMPDEST JUMPDEST PUSH1 0x0 PUSH2 0x1BF9 DUP5 DUP3 DUP6 ADD PUSH2 0x1BC0 JUMP JUMPDEST SWAP2 POP POP SWAP3 SWAP2 POP POP JUMP JUMPDEST PUSH2 0x1C0B DUP2 PUSH2 0x1B9F JUMP JUMPDEST DUP3 MSTORE POP POP JUMP JUMPDEST PUSH1 0x0 PUSH1 0x20 DUP3 ADD SWAP1 POP PUSH2 0x1C26 PUSH1 0x0 DUP4 ADD DUP5 PUSH2 0x1C02 JUMP JUMPDEST SWAP3 SWAP2 POP POP JUMP JUMPDEST PUSH1 0x0 DUP1 PUSH1 0x40 DUP4 DUP6 SUB SLT ISZERO PUSH2 0x1C43 JUMPI PUSH2 0x1C42 PUSH2 0x18DC JUMP JUMPDEST JUMPDEST PUSH1 0x0 PUSH2 0x1C51 DUP6 DUP3 DUP7 ADD PUSH2 0x1BC0 JUMP JUMPDEST SWAP3 POP POP PUSH1 0x20 PUSH2 0x1C62 DUP6 DUP3 DUP7 ADD PUSH2 0x1A97 JUMP JUMPDEST SWAP2 POP POP SWAP3 POP SWAP3 SWAP1 POP JUMP JUMPDEST PUSH1 0x0 PUSH1 0xFF DUP3 AND SWAP1 POP SWAP2 SWAP1 POP JUMP JUMPDEST PUSH2 0x1C82 DUP2 PUSH2 0x1C6C JUMP JUMPDEST DUP3 MSTORE POP POP JUMP JUMPDEST PUSH1 0x0 PUSH1 0x20 DUP3 ADD SWAP1 POP PUSH2 0x1C9D PUSH1 0x0 DUP4 ADD DUP5 PUSH2 0x1C79 JUMP JUMPDEST SWAP3 SWAP2 POP POP JUMP JUMPDEST PUSH1 0x0 PUSH1 0x20 DUP3 DUP5 SUB SLT ISZERO PUSH2 0x1CB9 JUMPI PUSH2 0x1CB8 PUSH2 0x18DC JUMP JUMPDEST JUMPDEST PUSH1 0x0 PUSH2 0x1CC7 DUP5 DUP3 DUP6 ADD PUSH2 0x1ACD JUMP JUMPDEST SWAP2 POP POP SWAP3 SWAP2 POP POP JUMP JUMPDEST PUSH1 0x0 PUSH1 0x20 DUP3 DUP5 SUB SLT ISZERO PUSH2 0x1CE6 JUMPI PUSH2 0x1CE5 PUSH2 0x18DC JUMP JUMPDEST JUMPDEST PUSH1 0x0 PUSH2 0x1CF4 DUP5 DUP3 DUP6 ADD PUSH2 0x1A97 JUMP JUMPDEST SWAP2 POP POP SWAP3 SWAP2 POP POP JUMP JUMPDEST PUSH1 0x0 DUP1 PUSH1 0x40 DUP4 DUP6 SUB SLT ISZERO PUSH2 0x1D14 JUMPI PUSH2 0x1D13 PUSH2 0x18DC JUMP JUMPDEST JUMPDEST PUSH1 0x0 PUSH2 0x1D22 DUP6 DUP3 DUP7 ADD PUSH2 0x1A97 JUMP JUMPDEST SWAP3 POP POP PUSH1 0x20 PUSH2 0x1D33 DUP6 DUP3 DUP7 ADD PUSH2 0x1A97 JUMP JUMPDEST SWAP2 POP POP SWAP3 POP SWAP3 SWAP1 POP JUMP JUMPDEST PUSH32 0x4E487B7100000000000000000000000000000000000000000000000000000000 PUSH1 0x0 MSTORE PUSH1 0x22 PUSH1 0x4 MSTORE PUSH1 0x24 PUSH1 0x0 REVERT JUMPDEST PUSH1 0x0 PUSH1 0x2 DUP3 DIV SWAP1 POP PUSH1 0x1 DUP3 AND DUP1 PUSH2 0x1D84 JUMPI PUSH1 0x7F DUP3 AND SWAP2 POP JUMPDEST PUSH1 0x20 DUP3 LT DUP2 SUB PUSH2 0x1D97 JUMPI PUSH2 0x1D96 PUSH2 0x1D3D JUMP JUMPDEST JUMPDEST POP SWAP2 SWAP1 POP JUMP JUMPDEST PUSH32 0x5370656E64657220657320646972656363696F6E207A65726F00000000000000 PUSH1 0x0 DUP3 ADD MSTORE POP JUMP JUMPDEST PUSH1 0x0 PUSH2 0x1DD3 PUSH1 0x19 DUP4 PUSH2 0x19A7 JUMP JUMPDEST SWAP2 POP PUSH2 0x1DDE DUP3 PUSH2 0x1D9D JUMP JUMPDEST PUSH1 0x20 DUP3 ADD SWAP1 POP SWAP2 SWAP1 POP JUMP JUMPDEST PUSH1 0x0 PUSH1 0x20 DUP3 ADD SWAP1 POP DUP2 DUP2 SUB PUSH1 0x0 DUP4 ADD MSTORE PUSH2 0x1E02 DUP2 PUSH2 0x1DC6 JUMP JUMPDEST SWAP1 POP SWAP2 SWAP1 POP JUMP JUMPDEST PUSH32 0x456E766961646F2064657364652061646472657373207A65726F000000000000 PUSH1 0x0 DUP3 ADD MSTORE POP JUMP JUMPDEST PUSH1 0x0 PUSH2 0x1E3F PUSH1 0x1A DUP4 PUSH2 0x19A7 JUMP JUMPDEST SWAP2 POP PUSH2 0x1E4A DUP3 PUSH2 0x1E09 JUMP JUMPDEST PUSH1 0x20 DUP3 ADD SWAP1 POP SWAP2 SWAP1 POP JUMP JUMPDEST PUSH1 0x0 PUSH1 0x20 DUP3 ADD SWAP1 POP DUP2 DUP2 SUB PUSH1 0x0 DUP4 ADD MSTORE PUSH2 0x1E6E DUP2 PUSH2 0x1E32 JUMP JUMPDEST SWAP1 POP SWAP2 SWAP1 POP JUMP JUMPDEST PUSH32 0x456E766961646F20612061646472657373207A65726F00000000000000000000 PUSH1 0x0 DUP3 ADD MSTORE POP JUMP JUMPDEST PUSH1 0x0 PUSH2 0x1EAB PUSH1 0x16 DUP4 PUSH2 0x19A7 JUMP JUMPDEST SWAP2 POP PUSH2 0x1EB6 DUP3 PUSH2 0x1E75 JUMP JUMPDEST PUSH1 0x20 DUP3 ADD SWAP1 POP SWAP2 SWAP1 POP JUMP JUMPDEST PUSH1 0x0 PUSH1 0x20 DUP3 ADD SWAP1 POP DUP2 DUP2 SUB PUSH1 0x0 DUP4 ADD MSTORE PUSH2 0x1EDA DUP2 PUSH2 0x1E9E JUMP JUMPDEST SWAP1 POP SWAP2 SWAP1 POP JUMP JUMPDEST PUSH32 0x4E6F2074656E676F20737566696369656E7465207065726D69736F0000000000 PUSH1 0x0 DUP3 ADD MSTORE POP JUMP JUMPDEST PUSH1 0x0 PUSH2 0x1F17 PUSH1 0x1B DUP4 PUSH2 0x19A7 JUMP JUMPDEST SWAP2 POP PUSH2 0x1F22 DUP3 PUSH2 0x1EE1 JUMP JUMPDEST PUSH1 0x20 DUP3 ADD SWAP1 POP SWAP2 SWAP1 POP JUMP JUMPDEST PUSH1 0x0 PUSH1 0x20 DUP3 ADD SWAP1 POP DUP2 DUP2 SUB PUSH1 0x0 DUP4 ADD MSTORE PUSH2 0x1F46 DUP2 PUSH2 0x1F0A JUMP JUMPDEST SWAP1 POP SWAP2 SWAP1 POP JUMP JUMPDEST PUSH32 0x4E487B7100000000000000000000000000000000000000000000000000000000 PUSH1 0x0 MSTORE PUSH1 0x11 PUSH1 0x4 MSTORE PUSH1 0x24 PUSH1 0x0 REVERT JUMPDEST PUSH1 0x0 PUSH2 0x1F87 DUP3 PUSH2 0x1AAC JUMP JUMPDEST SWAP2 POP PUSH2 0x1F92 DUP4 PUSH2 0x1AAC JUMP JUMPDEST SWAP3 POP DUP3 DUP3 SUB SWAP1 POP DUP2 DUP2 GT ISZERO PUSH2 0x1FAA JUMPI PUSH2 0x1FA9 PUSH2 0x1F4D JUMP JUMPDEST JUMPDEST SWAP3 SWAP2 POP POP JUMP JUMPDEST PUSH32 0x496E737566696369656E74657320746F6B656E73000000000000000000000000 PUSH1 0x0 DUP3 ADD MSTORE POP JUMP JUMPDEST PUSH1 0x0 PUSH2 0x1FE6 PUSH1 0x14 DUP4 PUSH2 0x19A7 JUMP JUMPDEST SWAP2 POP PUSH2 0x1FF1 DUP3 PUSH2 0x1FB0 JUMP JUMPDEST PUSH1 0x20 DUP3 ADD SWAP1 POP SWAP2 SWAP1 POP JUMP JUMPDEST PUSH1 0x0 PUSH1 0x20 DUP3 ADD SWAP1 POP DUP2 DUP2 SUB PUSH1 0x0 DUP4 ADD MSTORE PUSH2 0x2015 DUP2 PUSH2 0x1FD9 JUMP JUMPDEST SWAP1 POP SWAP2 SWAP1 POP JUMP JUMPDEST PUSH1 0x0 PUSH2 0x2027 DUP3 PUSH2 0x1AAC JUMP JUMPDEST SWAP2 POP PUSH2 0x2032 DUP4 PUSH2 0x1AAC JUMP JUMPDEST SWAP3 POP DUP3 DUP3 ADD SWAP1 POP DUP1 DUP3 GT ISZERO PUSH2 0x204A JUMPI PUSH2 0x2049 PUSH2 0x1F4D JUMP JUMPDEST JUMPDEST SWAP3 SWAP2 POP POP JUMP JUMPDEST PUSH32 0x416363657373436F6E74726F6C3A2063616E206F6E6C792072656E6F756E6365 PUSH1 0x0 DUP3 ADD MSTORE PUSH32 0x20726F6C657320666F722073656C660000000000000000000000000000000000 PUSH1 0x20 DUP3 ADD MSTORE POP JUMP JUMPDEST PUSH1 0x0 PUSH2 0x20AC PUSH1 0x2F DUP4 PUSH2 0x19A7 JUMP JUMPDEST SWAP2 POP PUSH2 0x20B7 DUP3 PUSH2 0x2050 JUMP JUMPDEST PUSH1 0x40 DUP3 ADD SWAP1 POP SWAP2 SWAP1 POP JUMP JUMPDEST PUSH1 0x0 PUSH1 0x20 DUP3 ADD SWAP1 POP DUP2 DUP2 SUB PUSH1 0x0 DUP4 ADD MSTORE PUSH2 0x20DB DUP2 PUSH2 0x209F JUMP JUMPDEST SWAP1 POP SWAP2 SWAP1 POP JUMP JUMPDEST PUSH32 0x4D696E742061206661766F722064656C2061646472657373207A65726F000000 PUSH1 0x0 DUP3 ADD MSTORE POP JUMP JUMPDEST PUSH1 0x0 PUSH2 0x2118 PUSH1 0x1D DUP4 PUSH2 0x19A7 JUMP JUMPDEST SWAP2 POP PUSH2 0x2123 DUP3 PUSH2 0x20E2 JUMP JUMPDEST PUSH1 0x20 DUP3 ADD SWAP1 POP SWAP2 SWAP1 POP JUMP JUMPDEST PUSH1 0x0 PUSH1 0x20 DUP3 ADD SWAP1 POP DUP2 DUP2 SUB PUSH1 0x0 DUP4 ADD MSTORE PUSH2 0x2147 DUP2 PUSH2 0x210B JUMP JUMPDEST SWAP1 POP SWAP2 SWAP1 POP JUMP JUMPDEST PUSH32 0x53757065726120656C204D415820544F54414C20535550504C59000000000000 PUSH1 0x0 DUP3 ADD MSTORE POP JUMP JUMPDEST PUSH1 0x0 PUSH2 0x2184 PUSH1 0x1A DUP4 PUSH2 0x19A7 JUMP JUMPDEST SWAP2 POP PUSH2 0x218F DUP3 PUSH2 0x214E JUMP JUMPDEST PUSH1 0x20 DUP3 ADD SWAP1 POP SWAP2 SWAP1 POP JUMP JUMPDEST PUSH1 0x0 PUSH1 0x20 DUP3 ADD SWAP1 POP DUP2 DUP2 SUB PUSH1 0x0 DUP4 ADD MSTORE PUSH2 0x21B3 DUP2 PUSH2 0x2177 JUMP JUMPDEST SWAP1 POP SWAP2 SWAP1 POP JUMP JUMPDEST PUSH32 0x5175656D616E646F206465206164647265737320300000000000000000000000 PUSH1 0x0 DUP3 ADD MSTORE POP JUMP JUMPDEST PUSH1 0x0 PUSH2 0x21F0 PUSH1 0x15 DUP4 PUSH2 0x19A7 JUMP JUMPDEST SWAP2 POP PUSH2 0x21FB DUP3 PUSH2 0x21BA JUMP JUMPDEST PUSH1 0x20 DUP3 ADD SWAP1 POP SWAP2 SWAP1 POP JUMP JUMPDEST PUSH1 0x0 PUSH1 0x20 DUP3 ADD SWAP1 POP DUP2 DUP2 SUB PUSH1 0x0 DUP4 ADD MSTORE PUSH2 0x221F DUP2 PUSH2 0x21E3 JUMP JUMPDEST SWAP1 POP SWAP2 SWAP1 POP JUMP JUMPDEST PUSH32 0x496E737566696369656E74657320746F6B656E732070617261207175656D6172 PUSH1 0x0 DUP3 ADD MSTORE POP JUMP JUMPDEST PUSH1 0x0 PUSH2 0x225C PUSH1 0x20 DUP4 PUSH2 0x19A7 JUMP JUMPDEST SWAP2 POP PUSH2 0x2267 DUP3 PUSH2 0x2226 JUMP JUMPDEST PUSH1 0x20 DUP3 ADD SWAP1 POP SWAP2 SWAP1 POP JUMP JUMPDEST PUSH1 0x0 PUSH1 0x20 DUP3 ADD SWAP1 POP DUP2 DUP2 SUB PUSH1 0x0 DUP4 ADD MSTORE PUSH2 0x228B DUP2 PUSH2 0x224F JUMP JUMPDEST SWAP1 POP SWAP2 SWAP1 POP JUMP JUMPDEST PUSH1 0x0 DUP2 SWAP1 POP SWAP3 SWAP2 POP POP JUMP JUMPDEST PUSH32 0x416363657373436F6E74726F6C3A206163636F756E7420000000000000000000 PUSH1 0x0 DUP3 ADD MSTORE POP JUMP JUMPDEST PUSH1 0x0 PUSH2 0x22D3 PUSH1 0x17 DUP4 PUSH2 0x2292 JUMP JUMPDEST SWAP2 POP PUSH2 0x22DE DUP3 PUSH2 0x229D JUMP JUMPDEST PUSH1 0x17 DUP3 ADD SWAP1 POP SWAP2 SWAP1 POP JUMP JUMPDEST PUSH1 0x0 PUSH2 0x22F4 DUP3 PUSH2 0x199C JUMP JUMPDEST PUSH2 0x22FE DUP2 DUP6 PUSH2 0x2292 JUMP JUMPDEST SWAP4 POP PUSH2 0x230E DUP2 DUP6 PUSH1 0x20 DUP7 ADD PUSH2 0x19B8 JUMP JUMPDEST DUP1 DUP5 ADD SWAP2 POP POP SWAP3 SWAP2 POP POP JUMP JUMPDEST PUSH32 0x206973206D697373696E6720726F6C6520000000000000000000000000000000 PUSH1 0x0 DUP3 ADD MSTORE POP JUMP JUMPDEST PUSH1 0x0 PUSH2 0x2350 PUSH1 0x11 DUP4 PUSH2 0x2292 JUMP JUMPDEST SWAP2 POP PUSH2 0x235B DUP3 PUSH2 0x231A JUMP JUMPDEST PUSH1 0x11 DUP3 ADD SWAP1 POP SWAP2 SWAP1 POP JUMP JUMPDEST PUSH1 0x0 PUSH2 0x2371 DUP3 PUSH2 0x22C6 JUMP JUMPDEST SWAP2 POP PUSH2 0x237D DUP3 DUP6 PUSH2 0x22E9 JUMP JUMPDEST SWAP2 POP PUSH2 0x2388 DUP3 PUSH2 0x2343 JUMP JUMPDEST SWAP2 POP PUSH2 0x2394 DUP3 DUP5 PUSH2 0x22E9 JUMP JUMPDEST SWAP2 POP DUP2 SWAP1 POP SWAP4 SWAP3 POP POP POP JUMP JUMPDEST PUSH1 0x0 PUSH2 0x23AB DUP3 PUSH2 0x1AAC JUMP JUMPDEST SWAP2 POP PUSH2 0x23B6 DUP4 PUSH2 0x1AAC JUMP JUMPDEST SWAP3 POP DUP3 DUP3 MUL PUSH2 0x23C4 DUP2 PUSH2 0x1AAC JUMP JUMPDEST SWAP2 POP DUP3 DUP3 DIV DUP5 EQ DUP4 ISZERO OR PUSH2 0x23DB JUMPI PUSH2 0x23DA PUSH2 0x1F4D JUMP JUMPDEST JUMPDEST POP SWAP3 SWAP2 POP POP JUMP JUMPDEST PUSH32 0x4E487B7100000000000000000000000000000000000000000000000000000000 PUSH1 0x0 MSTORE PUSH1 0x41 PUSH1 0x4 MSTORE PUSH1 0x24 PUSH1 0x0 REVERT JUMPDEST PUSH32 0x4E487B7100000000000000000000000000000000000000000000000000000000 PUSH1 0x0 MSTORE PUSH1 0x32 PUSH1 0x4 MSTORE PUSH1 0x24 PUSH1 0x0 REVERT JUMPDEST PUSH1 0x0 PUSH2 0x244B DUP3 PUSH2 0x1AAC JUMP JUMPDEST SWAP2 POP PUSH1 0x0 DUP3 SUB PUSH2 0x245E JUMPI PUSH2 0x245D PUSH2 0x1F4D JUMP JUMPDEST JUMPDEST PUSH1 0x1 DUP3 SUB SWAP1 POP SWAP2 SWAP1 POP JUMP JUMPDEST PUSH32 0x537472696E67733A20686578206C656E67746820696E73756666696369656E74 PUSH1 0x0 DUP3 ADD MSTORE POP JUMP JUMPDEST PUSH1 0x0 PUSH2 0x249F PUSH1 0x20 DUP4 PUSH2 0x19A7 JUMP JUMPDEST SWAP2 POP PUSH2 0x24AA DUP3 PUSH2 0x2469 JUMP JUMPDEST PUSH1 0x20 DUP3 ADD SWAP1 POP SWAP2 SWAP1 POP JUMP JUMPDEST PUSH1 0x0 PUSH1 0x20 DUP3 ADD SWAP1 POP DUP2 DUP2 SUB PUSH1 0x0 DUP4 ADD MSTORE PUSH2 0x24CE DUP2 PUSH2 0x2492 JUMP JUMPDEST SWAP1 POP SWAP2 SWAP1 POP JUMP INVALID LOG2 PUSH5 0x6970667358 0x22 SLT KECCAK256 0xDB PUSH12 0xD3AD3EF1A67758D80F9E2B96 EXTCODECOPY DUP5 0xB2 CALLVALUE CODECOPY 0xDC 0xE3 SELFBALANCE 0xB7 MUL PUSH1 0xE1 0xBF 0xDC 0xBC 0xD1 PUSH10 0x6164736F6C6343000811 STOP CALLER "
				},
				"gasEstimates": {
					"creation": {
						"codeDepositCost": "1896600",
						"executionCost": "infinite",
						"totalCost": "infinite"
					},
					"external": {
						"DEFAULT_ADMIN_ROLE()": "357",
						"MINTER_ROLE()": "417",
						"allowance(address,address)": "infinite",
						"approve(address,uint256)": "23226",
						"balanceOf(address)": "2886",
						"burn(uint256)": "infinite",
						"decimals()": "2546",
						"decreaseAllowance(address,uint256)": "infinite",
						"getRoleAdmin(bytes32)": "infinite",
						"grantRole(bytes32,address)": "infinite",
						"hasRole(bytes32,address)": "3207",
						"increaseAllowance(address,uint256)": "infinite",
						"mint(address,uint256)": "infinite",
						"mintProtected(address,uint256)": "infinite",
						"name()": "infinite",
						"renounceRole(bytes32,address)": "infinite",
						"revokeRole(bytes32,address)": "infinite",
						"supportsInterface(bytes4)": "751",
						"symbol()": "infinite",
						"totalSupply()": "2527",
						"transfer(address,uint256)": "infinite",
						"transferFrom(address,address,uint256)": "infinite"
					}
				},
				"methodIdentifiers": {
					"DEFAULT_ADMIN_ROLE()": "a217fddf",
					"MINTER_ROLE()": "d5391393",
					"allowance(address,address)": "dd62ed3e",
					"approve(address,uint256)": "095ea7b3",
					"balanceOf(address)": "70a08231",
					"burn(uint256)": "42966c68",
					"decimals()": "313ce567",
					"decreaseAllowance(address,uint256)": "a457c2d7",
					"getRoleAdmin(bytes32)": "248a9ca3",
					"grantRole(bytes32,address)": "2f2ff15d",
					"hasRole(bytes32,address)": "91d14854",
					"increaseAllowance(address,uint256)": "39509351",
					"mint(address,uint256)": "40c10f19",
					"mintProtected(address,uint256)": "96b5e388",
					"name()": "06fdde03",
					"renounceRole(bytes32,address)": "36568abe",
					"revokeRole(bytes32,address)": "d547741f",
					"supportsInterface(bytes4)": "01ffc9a7",
					"symbol()": "95d89b41",
					"totalSupply()": "18160ddd",
					"transfer(address,uint256)": "a9059cbb",
					"transferFrom(address,address,uint256)": "23b872dd"
				}
			},
			"storageLayout": {
				"storage": [
					{
						"astId": 24,
						"contract": "Practica1/TokenERC20_1.sol:TokenERC20_1",
						"label": "_roles",
						"offset": 0,
						"slot": "0",
						"type": "t_mapping(t_bytes32,t_struct(RoleData)19_storage)"
					},
					{
						"astId": 788,
						"contract": "Practica1/TokenERC20_1.sol:TokenERC20_1",
						"label": "totalMinted",
						"offset": 0,
						"slot": "1",
						"type": "t_uint256"
					},
					{
						"astId": 792,
						"contract": "Practica1/TokenERC20_1.sol:TokenERC20_1",
						"label": "_balances",
						"offset": 0,
						"slot": "2",
						"type": "t_mapping(t_address,t_uint256)"
					},
					{
						"astId": 798,
						"contract": "Practica1/TokenERC20_1.sol:TokenERC20_1",
						"label": "_permisos",
						"offset": 0,
						"slot": "3",
						"type": "t_mapping(t_address,t_mapping(t_address,t_uint256))"
					},
					{
						"astId": 800,
						"contract": "Practica1/TokenERC20_1.sol:TokenERC20_1",
						"label": "myname",
						"offset": 0,
						"slot": "4",
						"type": "t_string_storage"
					},
					{
						"astId": 802,
						"contract": "Practica1/TokenERC20_1.sol:TokenERC20_1",
						"label": "mysymbol",
						"offset": 0,
						"slot": "5",
						"type": "t_string_storage"
					},
					{
						"astId": 804,
						"contract": "Practica1/TokenERC20_1.sol:TokenERC20_1",
						"label": "mydecimals",
						"offset": 0,
						"slot": "6",
						"type": "t_uint8"
					},
					{
						"astId": 852,
						"contract": "Practica1/TokenERC20_1.sol:TokenERC20_1",
						"label": "TokenTotalSupply",
						"offset": 0,
						"slot": "7",
						"type": "t_uint256"
					},
					{
						"astId": 861,
						"contract": "Practica1/TokenERC20_1.sol:TokenERC20_1",
						"label": "MAX_TOTAL_SUPPLY",
						"offset": 0,
						"slot": "8",
						"type": "t_uint256"
					}
				],
				"types": {
					"t_address": {
						"encoding": "inplace",
						"label": "address",
						"numberOfBytes": "20"
					},
					"t_bool": {
						"encoding": "inplace",
						"label": "bool",
						"numberOfBytes": "1"
					},
					"t_bytes32": {
						"encoding": "inplace",
						"label": "bytes32",
						"numberOfBytes": "32"
					},
					"t_mapping(t_address,t_bool)": {
						"encoding": "mapping",
						"key": "t_address",
						"label": "mapping(address => bool)",
						"numberOfBytes": "32",
						"value": "t_bool"
					},
					"t_mapping(t_address,t_mapping(t_address,t_uint256))": {
						"encoding": "mapping",
						"key": "t_address",
						"label": "mapping(address => mapping(address => uint256))",
						"numberOfBytes": "32",
						"value": "t_mapping(t_address,t_uint256)"
					},
					"t_mapping(t_address,t_uint256)": {
						"encoding": "mapping",
						"key": "t_address",
						"label": "mapping(address => uint256)",
						"numberOfBytes": "32",
						"value": "t_uint256"
					},
					"t_mapping(t_bytes32,t_struct(RoleData)19_storage)": {
						"encoding": "mapping",
						"key": "t_bytes32",
						"label": "mapping(bytes32 => struct AccessControl.RoleData)",
						"numberOfBytes": "32",
						"value": "t_struct(RoleData)19_storage"
					},
					"t_string_storage": {
						"encoding": "bytes",
						"label": "string",
						"numberOfBytes": "32"
					},
					"t_struct(RoleData)19_storage": {
						"encoding": "inplace",
						"label": "struct AccessControl.RoleData",
						"members": [
							{
								"astId": 16,
								"contract": "Practica1/TokenERC20_1.sol:TokenERC20_1",
								"label": "members",
								"offset": 0,
								"slot": "0",
								"type": "t_mapping(t_address,t_bool)"
							},
							{
								"astId": 18,
								"contract": "Practica1/TokenERC20_1.sol:TokenERC20_1",
								"label": "adminRole",
								"offset": 0,
								"slot": "1",
								"type": "t_bytes32"
							}
						],
						"numberOfBytes": "64"
					},
					"t_uint256": {
						"encoding": "inplace",
						"label": "uint256",
						"numberOfBytes": "32"
					},
					"t_uint8": {
						"encoding": "inplace",
						"label": "uint8",
						"numberOfBytes": "1"
					}
				}
			},
			"userdoc": {
				"kind": "user",
				"methods": {},
				"notice": "is IERC20, IERC20Metadata ",
				"version": 1
			}
		}
	}
}