{
	"Clase_1/3_MappingEdad.sol": {
		"MiPrimerContrato": {
			"abi": [
				{
					"inputs": [
						{
							"internalType": "address",
							"name": "",
							"type": "address"
						}
					],
					"name": "edadPorAddress",
					"outputs": [
						{
							"internalType": "uint256",
							"name": "",
							"type": "uint256"
						}
					],
					"stateMutability": "view",
					"type": "function"
				},
				{
					"inputs": [],
					"name": "get",
					"outputs": [
						{
							"internalType": "string",
							"name": "",
							"type": "string"
						}
					],
					"stateMutability": "view",
					"type": "function"
				},
				{
					"inputs": [
						{
							"internalType": "string",
							"name": "_nuevoSaludo",
							"type": "string"
						}
					],
					"name": "set",
					"outputs": [],
					"stateMutability": "nonpayable",
					"type": "function"
				},
				{
					"inputs": [
						{
							"internalType": "address",
							"name": "_account",
							"type": "address"
						},
						{
							"internalType": "uint256",
							"name": "_edad",
							"type": "uint256"
						}
					],
					"name": "setEdadPorAddress",
					"outputs": [],
					"stateMutability": "nonpayable",
					"type": "function"
				}
			],
			"devdoc": {
				"kind": "dev",
				"methods": {},
				"version": 1
			},
			"evm": {
				"assembly": "    /* \"Clase_1/3_MappingEdad.sol\":69:829  contract MiPrimerContrato {\r... */\n  mstore(0x40, 0x80)\n  callvalue\n  dup1\n  iszero\n  tag_1\n  jumpi\n  0x00\n  dup1\n  revert\ntag_1:\n  pop\n  dataSize(sub_0)\n  dup1\n  dataOffset(sub_0)\n  0x00\n  codecopy\n  0x00\n  return\nstop\n\nsub_0: assembly {\n        /* \"Clase_1/3_MappingEdad.sol\":69:829  contract MiPrimerContrato {\r... */\n      mstore(0x40, 0x80)\n      callvalue\n      dup1\n      iszero\n      tag_1\n      jumpi\n      0x00\n      dup1\n      revert\n    tag_1:\n      pop\n      jumpi(tag_2, lt(calldatasize, 0x04))\n      shr(0xe0, calldataload(0x00))\n      dup1\n      0x1d09ea10\n      eq\n      tag_3\n      jumpi\n      dup1\n      0x4ed3885e\n      eq\n      tag_4\n      jumpi\n      dup1\n      0x69f60a93\n      eq\n      tag_5\n      jumpi\n      dup1\n      0x6d4ce63c\n      eq\n      tag_6\n      jumpi\n    tag_2:\n      0x00\n      dup1\n      revert\n        /* \"Clase_1/3_MappingEdad.sol\":314:363  mapping(address => uint256) public edadPorAddress */\n    tag_3:\n      tag_7\n      0x04\n      dup1\n      calldatasize\n      sub\n      dup2\n      add\n      swap1\n      tag_8\n      swap2\n      swap1\n      tag_9\n      jump\t// in\n    tag_8:\n      tag_10\n      jump\t// in\n    tag_7:\n      mload(0x40)\n      tag_11\n      swap2\n      swap1\n      tag_12\n      jump\t// in\n    tag_11:\n      mload(0x40)\n      dup1\n      swap2\n      sub\n      swap1\n      return\n        /* \"Clase_1/3_MappingEdad.sol\":372:609  function set(string memory _nuevoSaludo) public {\r... */\n    tag_4:\n      tag_13\n      0x04\n      dup1\n      calldatasize\n      sub\n      dup2\n      add\n      swap1\n      tag_14\n      swap2\n      swap1\n      tag_15\n      jump\t// in\n    tag_14:\n      tag_16\n      jump\t// in\n    tag_13:\n      stop\n        /* \"Clase_1/3_MappingEdad.sol\":708:826  function setEdadPorAddress(address _account, uint256 _edad) public {\r... */\n    tag_5:\n      tag_17\n      0x04\n      dup1\n      calldatasize\n      sub\n      dup2\n      add\n      swap1\n      tag_18\n      swap2\n      swap1\n      tag_19\n      jump\t// in\n    tag_18:\n      tag_20\n      jump\t// in\n    tag_17:\n      stop\n        /* \"Clase_1/3_MappingEdad.sol\":617:700  function get() public view returns (string memory) {\r... */\n    tag_6:\n      tag_21\n      tag_22\n      jump\t// in\n    tag_21:\n      mload(0x40)\n      tag_23\n      swap2\n      swap1\n      tag_24\n      jump\t// in\n    tag_23:\n      mload(0x40)\n      dup1\n      swap2\n      sub\n      swap1\n      return\n        /* \"Clase_1/3_MappingEdad.sol\":314:363  mapping(address => uint256) public edadPorAddress */\n    tag_10:\n      mstore(0x20, 0x03)\n      dup1\n      0x00\n      mstore\n      keccak256(0x00, 0x40)\n      0x00\n      swap2\n      pop\n      swap1\n      pop\n      sload\n      dup2\n      jump\t// out\n        /* \"Clase_1/3_MappingEdad.sol\":372:609  function set(string memory _nuevoSaludo) public {\r... */\n    tag_16:\n        /* \"Clase_1/3_MappingEdad.sol\":440:452  _nuevoSaludo */\n      dup1\n        /* \"Clase_1/3_MappingEdad.sol\":431:437  saludo */\n      0x00\n        /* \"Clase_1/3_MappingEdad.sol\":431:452  saludo = _nuevoSaludo */\n      swap1\n      dup1\n      mload\n      swap1\n      0x20\n      add\n      swap1\n      tag_26\n      swap3\n      swap2\n      swap1\n      tag_27\n      jump\t// in\n    tag_26:\n      pop\n        /* \"Clase_1/3_MappingEdad.sol\":526:538  _nuevoSaludo */\n      dup1\n        /* \"Clase_1/3_MappingEdad.sol\":502:514  listaSaludos */\n      0x02\n        /* \"Clase_1/3_MappingEdad.sol\":502:523  listaSaludos[counter] */\n      0x00\n        /* \"Clase_1/3_MappingEdad.sol\":515:522  counter */\n      sload(0x01)\n        /* \"Clase_1/3_MappingEdad.sol\":502:523  listaSaludos[counter] */\n      dup2\n      mstore\n      0x20\n      add\n      swap1\n      dup2\n      mstore\n      0x20\n      add\n      0x00\n      keccak256\n        /* \"Clase_1/3_MappingEdad.sol\":502:538  listaSaludos[counter] = _nuevoSaludo */\n      swap1\n      dup1\n      mload\n      swap1\n      0x20\n      add\n      swap1\n      tag_28\n      swap3\n      swap2\n      swap1\n      tag_27\n      jump\t// in\n    tag_28:\n      pop\n        /* \"Clase_1/3_MappingEdad.sol\":549:556  counter */\n      0x01\n      0x00\n        /* \"Clase_1/3_MappingEdad.sol\":549:558  counter++ */\n      dup2\n      sload\n      dup1\n      swap3\n      swap2\n      swap1\n      tag_29\n      swap1\n      tag_30\n      jump\t// in\n    tag_29:\n      swap2\n      swap1\n      pop\n      sstore\n      pop\n        /* \"Clase_1/3_MappingEdad.sol\":372:609  function set(string memory _nuevoSaludo) public {\r... */\n      pop\n      jump\t// out\n        /* \"Clase_1/3_MappingEdad.sol\":708:826  function setEdadPorAddress(address _account, uint256 _edad) public {\r... */\n    tag_20:\n        /* \"Clase_1/3_MappingEdad.sol\":813:818  _edad */\n      dup1\n        /* \"Clase_1/3_MappingEdad.sol\":786:800  edadPorAddress */\n      0x03\n        /* \"Clase_1/3_MappingEdad.sol\":786:810  edadPorAddress[_account] */\n      0x00\n        /* \"Clase_1/3_MappingEdad.sol\":801:809  _account */\n      dup5\n        /* \"Clase_1/3_MappingEdad.sol\":786:810  edadPorAddress[_account] */\n      0xffffffffffffffffffffffffffffffffffffffff\n      and\n      0xffffffffffffffffffffffffffffffffffffffff\n      and\n      dup2\n      mstore\n      0x20\n      add\n      swap1\n      dup2\n      mstore\n      0x20\n      add\n      0x00\n      keccak256\n        /* \"Clase_1/3_MappingEdad.sol\":786:818  edadPorAddress[_account] = _edad */\n      dup2\n      swap1\n      sstore\n      pop\n        /* \"Clase_1/3_MappingEdad.sol\":708:826  function setEdadPorAddress(address _account, uint256 _edad) public {\r... */\n      pop\n      pop\n      jump\t// out\n        /* \"Clase_1/3_MappingEdad.sol\":617:700  function get() public view returns (string memory) {\r... */\n    tag_22:\n        /* \"Clase_1/3_MappingEdad.sol\":653:666  string memory */\n      0x60\n        /* \"Clase_1/3_MappingEdad.sol\":686:692  saludo */\n      0x00\n        /* \"Clase_1/3_MappingEdad.sol\":679:692  return saludo */\n      dup1\n      sload\n      tag_33\n      swap1\n      tag_34\n      jump\t// in\n    tag_33:\n      dup1\n      0x1f\n      add\n      0x20\n      dup1\n      swap2\n      div\n      mul\n      0x20\n      add\n      mload(0x40)\n      swap1\n      dup2\n      add\n      0x40\n      mstore\n      dup1\n      swap3\n      swap2\n      swap1\n      dup2\n      dup2\n      mstore\n      0x20\n      add\n      dup3\n      dup1\n      sload\n      tag_35\n      swap1\n      tag_34\n      jump\t// in\n    tag_35:\n      dup1\n      iszero\n      tag_36\n      jumpi\n      dup1\n      0x1f\n      lt\n      tag_37\n      jumpi\n      0x0100\n      dup1\n      dup4\n      sload\n      div\n      mul\n      dup4\n      mstore\n      swap2\n      0x20\n      add\n      swap2\n      jump(tag_36)\n    tag_37:\n      dup3\n      add\n      swap2\n      swap1\n      0x00\n      mstore\n      keccak256(0x00, 0x20)\n      swap1\n    tag_38:\n      dup2\n      sload\n      dup2\n      mstore\n      swap1\n      0x01\n      add\n      swap1\n      0x20\n      add\n      dup1\n      dup4\n      gt\n      tag_38\n      jumpi\n      dup3\n      swap1\n      sub\n      0x1f\n      and\n      dup3\n      add\n      swap2\n    tag_36:\n      pop\n      pop\n      pop\n      pop\n      pop\n      swap1\n      pop\n        /* \"Clase_1/3_MappingEdad.sol\":617:700  function get() public view returns (string memory) {\r... */\n      swap1\n      jump\t// out\n    tag_27:\n      dup3\n      dup1\n      sload\n      tag_39\n      swap1\n      tag_34\n      jump\t// in\n    tag_39:\n      swap1\n      0x00\n      mstore\n      keccak256(0x00, 0x20)\n      swap1\n      0x1f\n      add\n      0x20\n      swap1\n      div\n      dup2\n      add\n      swap3\n      dup3\n      tag_41\n      jumpi\n      0x00\n      dup6\n      sstore\n      jump(tag_40)\n    tag_41:\n      dup3\n      0x1f\n      lt\n      tag_42\n      jumpi\n      dup1\n      mload\n      not(0xff)\n      and\n      dup4\n      dup1\n      add\n      or\n      dup6\n      sstore\n      jump(tag_40)\n    tag_42:\n      dup3\n      dup1\n      add\n      0x01\n      add\n      dup6\n      sstore\n      dup3\n      iszero\n      tag_40\n      jumpi\n      swap2\n      dup3\n      add\n    tag_43:\n      dup3\n      dup2\n      gt\n      iszero\n      tag_44\n      jumpi\n      dup3\n      mload\n      dup3\n      sstore\n      swap2\n      0x20\n      add\n      swap2\n      swap1\n      0x01\n      add\n      swap1\n      jump(tag_43)\n    tag_44:\n    tag_40:\n      pop\n      swap1\n      pop\n      tag_45\n      swap2\n      swap1\n      tag_46\n      jump\t// in\n    tag_45:\n      pop\n      swap1\n      jump\t// out\n    tag_46:\n    tag_47:\n      dup1\n      dup3\n      gt\n      iszero\n      tag_48\n      jumpi\n      0x00\n      dup2\n      0x00\n      swap1\n      sstore\n      pop\n      0x01\n      add\n      jump(tag_47)\n    tag_48:\n      pop\n      swap1\n      jump\t// out\n        /* \"#utility.yul\":7:419   */\n    tag_50:\n        /* \"#utility.yul\":85:90   */\n      0x00\n        /* \"#utility.yul\":110:176   */\n      tag_52\n        /* \"#utility.yul\":126:175   */\n      tag_53\n        /* \"#utility.yul\":168:174   */\n      dup5\n        /* \"#utility.yul\":126:175   */\n      tag_54\n      jump\t// in\n    tag_53:\n        /* \"#utility.yul\":110:176   */\n      tag_55\n      jump\t// in\n    tag_52:\n        /* \"#utility.yul\":101:176   */\n      swap1\n      pop\n        /* \"#utility.yul\":199:205   */\n      dup3\n        /* \"#utility.yul\":192:197   */\n      dup2\n        /* \"#utility.yul\":185:206   */\n      mstore\n        /* \"#utility.yul\":237:241   */\n      0x20\n        /* \"#utility.yul\":230:235   */\n      dup2\n        /* \"#utility.yul\":226:242   */\n      add\n        /* \"#utility.yul\":275:278   */\n      dup5\n        /* \"#utility.yul\":266:272   */\n      dup5\n        /* \"#utility.yul\":261:264   */\n      dup5\n        /* \"#utility.yul\":257:273   */\n      add\n        /* \"#utility.yul\":254:279   */\n      gt\n        /* \"#utility.yul\":251:363   */\n      iszero\n      tag_56\n      jumpi\n        /* \"#utility.yul\":282:361   */\n      tag_57\n      tag_58\n      jump\t// in\n    tag_57:\n        /* \"#utility.yul\":251:363   */\n    tag_56:\n        /* \"#utility.yul\":372:413   */\n      tag_59\n        /* \"#utility.yul\":406:412   */\n      dup5\n        /* \"#utility.yul\":401:404   */\n      dup3\n        /* \"#utility.yul\":396:399   */\n      dup6\n        /* \"#utility.yul\":372:413   */\n      tag_60\n      jump\t// in\n    tag_59:\n        /* \"#utility.yul\":91:419   */\n      pop\n        /* \"#utility.yul\":7:419   */\n      swap4\n      swap3\n      pop\n      pop\n      pop\n      jump\t// out\n        /* \"#utility.yul\":425:564   */\n    tag_61:\n        /* \"#utility.yul\":471:476   */\n      0x00\n        /* \"#utility.yul\":509:515   */\n      dup2\n        /* \"#utility.yul\":496:516   */\n      calldataload\n        /* \"#utility.yul\":487:516   */\n      swap1\n      pop\n        /* \"#utility.yul\":525:558   */\n      tag_63\n        /* \"#utility.yul\":552:557   */\n      dup2\n        /* \"#utility.yul\":525:558   */\n      tag_64\n      jump\t// in\n    tag_63:\n        /* \"#utility.yul\":425:564   */\n      swap3\n      swap2\n      pop\n      pop\n      jump\t// out\n        /* \"#utility.yul\":584:924   */\n    tag_65:\n        /* \"#utility.yul\":640:645   */\n      0x00\n        /* \"#utility.yul\":689:692   */\n      dup3\n        /* \"#utility.yul\":682:686   */\n      0x1f\n        /* \"#utility.yul\":674:680   */\n      dup4\n        /* \"#utility.yul\":670:687   */\n      add\n        /* \"#utility.yul\":666:693   */\n      slt\n        /* \"#utility.yul\":656:778   */\n      tag_67\n      jumpi\n        /* \"#utility.yul\":697:776   */\n      tag_68\n      tag_69\n      jump\t// in\n    tag_68:\n        /* \"#utility.yul\":656:778   */\n    tag_67:\n        /* \"#utility.yul\":814:820   */\n      dup2\n        /* \"#utility.yul\":801:821   */\n      calldataload\n        /* \"#utility.yul\":839:918   */\n      tag_70\n        /* \"#utility.yul\":914:917   */\n      dup5\n        /* \"#utility.yul\":906:912   */\n      dup3\n        /* \"#utility.yul\":899:903   */\n      0x20\n        /* \"#utility.yul\":891:897   */\n      dup7\n        /* \"#utility.yul\":887:904   */\n      add\n        /* \"#utility.yul\":839:918   */\n      tag_50\n      jump\t// in\n    tag_70:\n        /* \"#utility.yul\":830:918   */\n      swap2\n      pop\n        /* \"#utility.yul\":646:924   */\n      pop\n        /* \"#utility.yul\":584:924   */\n      swap3\n      swap2\n      pop\n      pop\n      jump\t// out\n        /* \"#utility.yul\":930:1069   */\n    tag_71:\n        /* \"#utility.yul\":976:981   */\n      0x00\n        /* \"#utility.yul\":1014:1020   */\n      dup2\n        /* \"#utility.yul\":1001:1021   */\n      calldataload\n        /* \"#utility.yul\":992:1021   */\n      swap1\n      pop\n        /* \"#utility.yul\":1030:1063   */\n      tag_73\n        /* \"#utility.yul\":1057:1062   */\n      dup2\n        /* \"#utility.yul\":1030:1063   */\n      tag_74\n      jump\t// in\n    tag_73:\n        /* \"#utility.yul\":930:1069   */\n      swap3\n      swap2\n      pop\n      pop\n      jump\t// out\n        /* \"#utility.yul\":1075:1404   */\n    tag_9:\n        /* \"#utility.yul\":1134:1140   */\n      0x00\n        /* \"#utility.yul\":1183:1185   */\n      0x20\n        /* \"#utility.yul\":1171:1180   */\n      dup3\n        /* \"#utility.yul\":1162:1169   */\n      dup5\n        /* \"#utility.yul\":1158:1181   */\n      sub\n        /* \"#utility.yul\":1154:1186   */\n      slt\n        /* \"#utility.yul\":1151:1270   */\n      iszero\n      tag_76\n      jumpi\n        /* \"#utility.yul\":1189:1268   */\n      tag_77\n      tag_78\n      jump\t// in\n    tag_77:\n        /* \"#utility.yul\":1151:1270   */\n    tag_76:\n        /* \"#utility.yul\":1309:1310   */\n      0x00\n        /* \"#utility.yul\":1334:1387   */\n      tag_79\n        /* \"#utility.yul\":1379:1386   */\n      dup5\n        /* \"#utility.yul\":1370:1376   */\n      dup3\n        /* \"#utility.yul\":1359:1368   */\n      dup6\n        /* \"#utility.yul\":1355:1377   */\n      add\n        /* \"#utility.yul\":1334:1387   */\n      tag_61\n      jump\t// in\n    tag_79:\n        /* \"#utility.yul\":1324:1387   */\n      swap2\n      pop\n        /* \"#utility.yul\":1280:1397   */\n      pop\n        /* \"#utility.yul\":1075:1404   */\n      swap3\n      swap2\n      pop\n      pop\n      jump\t// out\n        /* \"#utility.yul\":1410:1884   */\n    tag_19:\n        /* \"#utility.yul\":1478:1484   */\n      0x00\n        /* \"#utility.yul\":1486:1492   */\n      dup1\n        /* \"#utility.yul\":1535:1537   */\n      0x40\n        /* \"#utility.yul\":1523:1532   */\n      dup4\n        /* \"#utility.yul\":1514:1521   */\n      dup6\n        /* \"#utility.yul\":1510:1533   */\n      sub\n        /* \"#utility.yul\":1506:1538   */\n      slt\n        /* \"#utility.yul\":1503:1622   */\n      iszero\n      tag_81\n      jumpi\n        /* \"#utility.yul\":1541:1620   */\n      tag_82\n      tag_78\n      jump\t// in\n    tag_82:\n        /* \"#utility.yul\":1503:1622   */\n    tag_81:\n        /* \"#utility.yul\":1661:1662   */\n      0x00\n        /* \"#utility.yul\":1686:1739   */\n      tag_83\n        /* \"#utility.yul\":1731:1738   */\n      dup6\n        /* \"#utility.yul\":1722:1728   */\n      dup3\n        /* \"#utility.yul\":1711:1720   */\n      dup7\n        /* \"#utility.yul\":1707:1729   */\n      add\n        /* \"#utility.yul\":1686:1739   */\n      tag_61\n      jump\t// in\n    tag_83:\n        /* \"#utility.yul\":1676:1739   */\n      swap3\n      pop\n        /* \"#utility.yul\":1632:1749   */\n      pop\n        /* \"#utility.yul\":1788:1790   */\n      0x20\n        /* \"#utility.yul\":1814:1867   */\n      tag_84\n        /* \"#utility.yul\":1859:1866   */\n      dup6\n        /* \"#utility.yul\":1850:1856   */\n      dup3\n        /* \"#utility.yul\":1839:1848   */\n      dup7\n        /* \"#utility.yul\":1835:1857   */\n      add\n        /* \"#utility.yul\":1814:1867   */\n      tag_71\n      jump\t// in\n    tag_84:\n        /* \"#utility.yul\":1804:1867   */\n      swap2\n      pop\n        /* \"#utility.yul\":1759:1877   */\n      pop\n        /* \"#utility.yul\":1410:1884   */\n      swap3\n      pop\n      swap3\n      swap1\n      pop\n      jump\t// out\n        /* \"#utility.yul\":1890:2399   */\n    tag_15:\n        /* \"#utility.yul\":1959:1965   */\n      0x00\n        /* \"#utility.yul\":2008:2010   */\n      0x20\n        /* \"#utility.yul\":1996:2005   */\n      dup3\n        /* \"#utility.yul\":1987:1994   */\n      dup5\n        /* \"#utility.yul\":1983:2006   */\n      sub\n        /* \"#utility.yul\":1979:2011   */\n      slt\n        /* \"#utility.yul\":1976:2095   */\n      iszero\n      tag_86\n      jumpi\n        /* \"#utility.yul\":2014:2093   */\n      tag_87\n      tag_78\n      jump\t// in\n    tag_87:\n        /* \"#utility.yul\":1976:2095   */\n    tag_86:\n        /* \"#utility.yul\":2162:2163   */\n      0x00\n        /* \"#utility.yul\":2151:2160   */\n      dup3\n        /* \"#utility.yul\":2147:2164   */\n      add\n        /* \"#utility.yul\":2134:2165   */\n      calldataload\n        /* \"#utility.yul\":2192:2210   */\n      0xffffffffffffffff\n        /* \"#utility.yul\":2184:2190   */\n      dup2\n        /* \"#utility.yul\":2181:2211   */\n      gt\n        /* \"#utility.yul\":2178:2295   */\n      iszero\n      tag_88\n      jumpi\n        /* \"#utility.yul\":2214:2293   */\n      tag_89\n      tag_90\n      jump\t// in\n    tag_89:\n        /* \"#utility.yul\":2178:2295   */\n    tag_88:\n        /* \"#utility.yul\":2319:2382   */\n      tag_91\n        /* \"#utility.yul\":2374:2381   */\n      dup5\n        /* \"#utility.yul\":2365:2371   */\n      dup3\n        /* \"#utility.yul\":2354:2363   */\n      dup6\n        /* \"#utility.yul\":2350:2372   */\n      add\n        /* \"#utility.yul\":2319:2382   */\n      tag_65\n      jump\t// in\n    tag_91:\n        /* \"#utility.yul\":2309:2382   */\n      swap2\n      pop\n        /* \"#utility.yul\":2105:2392   */\n      pop\n        /* \"#utility.yul\":1890:2399   */\n      swap3\n      swap2\n      pop\n      pop\n      jump\t// out\n        /* \"#utility.yul\":2405:2769   */\n    tag_92:\n        /* \"#utility.yul\":2493:2496   */\n      0x00\n        /* \"#utility.yul\":2521:2560   */\n      tag_94\n        /* \"#utility.yul\":2554:2559   */\n      dup3\n        /* \"#utility.yul\":2521:2560   */\n      tag_95\n      jump\t// in\n    tag_94:\n        /* \"#utility.yul\":2576:2647   */\n      tag_96\n        /* \"#utility.yul\":2640:2646   */\n      dup2\n        /* \"#utility.yul\":2635:2638   */\n      dup6\n        /* \"#utility.yul\":2576:2647   */\n      tag_97\n      jump\t// in\n    tag_96:\n        /* \"#utility.yul\":2569:2647   */\n      swap4\n      pop\n        /* \"#utility.yul\":2656:2708   */\n      tag_98\n        /* \"#utility.yul\":2701:2707   */\n      dup2\n        /* \"#utility.yul\":2696:2699   */\n      dup6\n        /* \"#utility.yul\":2689:2693   */\n      0x20\n        /* \"#utility.yul\":2682:2687   */\n      dup7\n        /* \"#utility.yul\":2678:2694   */\n      add\n        /* \"#utility.yul\":2656:2708   */\n      tag_99\n      jump\t// in\n    tag_98:\n        /* \"#utility.yul\":2733:2762   */\n      tag_100\n        /* \"#utility.yul\":2755:2761   */\n      dup2\n        /* \"#utility.yul\":2733:2762   */\n      tag_101\n      jump\t// in\n    tag_100:\n        /* \"#utility.yul\":2728:2731   */\n      dup5\n        /* \"#utility.yul\":2724:2763   */\n      add\n        /* \"#utility.yul\":2717:2763   */\n      swap2\n      pop\n        /* \"#utility.yul\":2497:2769   */\n      pop\n        /* \"#utility.yul\":2405:2769   */\n      swap3\n      swap2\n      pop\n      pop\n      jump\t// out\n        /* \"#utility.yul\":2775:2893   */\n    tag_102:\n        /* \"#utility.yul\":2862:2886   */\n      tag_104\n        /* \"#utility.yul\":2880:2885   */\n      dup2\n        /* \"#utility.yul\":2862:2886   */\n      tag_105\n      jump\t// in\n    tag_104:\n        /* \"#utility.yul\":2857:2860   */\n      dup3\n        /* \"#utility.yul\":2850:2887   */\n      mstore\n        /* \"#utility.yul\":2775:2893   */\n      pop\n      pop\n      jump\t// out\n        /* \"#utility.yul\":2899:3212   */\n    tag_24:\n        /* \"#utility.yul\":3012:3016   */\n      0x00\n        /* \"#utility.yul\":3050:3052   */\n      0x20\n        /* \"#utility.yul\":3039:3048   */\n      dup3\n        /* \"#utility.yul\":3035:3053   */\n      add\n        /* \"#utility.yul\":3027:3053   */\n      swap1\n      pop\n        /* \"#utility.yul\":3099:3108   */\n      dup2\n        /* \"#utility.yul\":3093:3097   */\n      dup2\n        /* \"#utility.yul\":3089:3109   */\n      sub\n        /* \"#utility.yul\":3085:3086   */\n      0x00\n        /* \"#utility.yul\":3074:3083   */\n      dup4\n        /* \"#utility.yul\":3070:3087   */\n      add\n        /* \"#utility.yul\":3063:3110   */\n      mstore\n        /* \"#utility.yul\":3127:3205   */\n      tag_107\n        /* \"#utility.yul\":3200:3204   */\n      dup2\n        /* \"#utility.yul\":3191:3197   */\n      dup5\n        /* \"#utility.yul\":3127:3205   */\n      tag_92\n      jump\t// in\n    tag_107:\n        /* \"#utility.yul\":3119:3205   */\n      swap1\n      pop\n        /* \"#utility.yul\":2899:3212   */\n      swap3\n      swap2\n      pop\n      pop\n      jump\t// out\n        /* \"#utility.yul\":3218:3440   */\n    tag_12:\n        /* \"#utility.yul\":3311:3315   */\n      0x00\n        /* \"#utility.yul\":3349:3351   */\n      0x20\n        /* \"#utility.yul\":3338:3347   */\n      dup3\n        /* \"#utility.yul\":3334:3352   */\n      add\n        /* \"#utility.yul\":3326:3352   */\n      swap1\n      pop\n        /* \"#utility.yul\":3362:3433   */\n      tag_109\n        /* \"#utility.yul\":3430:3431   */\n      0x00\n        /* \"#utility.yul\":3419:3428   */\n      dup4\n        /* \"#utility.yul\":3415:3432   */\n      add\n        /* \"#utility.yul\":3406:3412   */\n      dup5\n        /* \"#utility.yul\":3362:3433   */\n      tag_102\n      jump\t// in\n    tag_109:\n        /* \"#utility.yul\":3218:3440   */\n      swap3\n      swap2\n      pop\n      pop\n      jump\t// out\n        /* \"#utility.yul\":3446:3575   */\n    tag_55:\n        /* \"#utility.yul\":3480:3486   */\n      0x00\n        /* \"#utility.yul\":3507:3527   */\n      tag_111\n      tag_112\n      jump\t// in\n    tag_111:\n        /* \"#utility.yul\":3497:3527   */\n      swap1\n      pop\n        /* \"#utility.yul\":3536:3569   */\n      tag_113\n        /* \"#utility.yul\":3564:3568   */\n      dup3\n        /* \"#utility.yul\":3556:3562   */\n      dup3\n        /* \"#utility.yul\":3536:3569   */\n      tag_114\n      jump\t// in\n    tag_113:\n        /* \"#utility.yul\":3446:3575   */\n      swap2\n      swap1\n      pop\n      jump\t// out\n        /* \"#utility.yul\":3581:3656   */\n    tag_112:\n        /* \"#utility.yul\":3614:3620   */\n      0x00\n        /* \"#utility.yul\":3647:3649   */\n      0x40\n        /* \"#utility.yul\":3641:3650   */\n      mload\n        /* \"#utility.yul\":3631:3650   */\n      swap1\n      pop\n        /* \"#utility.yul\":3581:3656   */\n      swap1\n      jump\t// out\n        /* \"#utility.yul\":3662:3970   */\n    tag_54:\n        /* \"#utility.yul\":3724:3728   */\n      0x00\n        /* \"#utility.yul\":3814:3832   */\n      0xffffffffffffffff\n        /* \"#utility.yul\":3806:3812   */\n      dup3\n        /* \"#utility.yul\":3803:3833   */\n      gt\n        /* \"#utility.yul\":3800:3856   */\n      iszero\n      tag_117\n      jumpi\n        /* \"#utility.yul\":3836:3854   */\n      tag_118\n      tag_119\n      jump\t// in\n    tag_118:\n        /* \"#utility.yul\":3800:3856   */\n    tag_117:\n        /* \"#utility.yul\":3874:3903   */\n      tag_120\n        /* \"#utility.yul\":3896:3902   */\n      dup3\n        /* \"#utility.yul\":3874:3903   */\n      tag_101\n      jump\t// in\n    tag_120:\n        /* \"#utility.yul\":3866:3903   */\n      swap1\n      pop\n        /* \"#utility.yul\":3958:3962   */\n      0x20\n        /* \"#utility.yul\":3952:3956   */\n      dup2\n        /* \"#utility.yul\":3948:3963   */\n      add\n        /* \"#utility.yul\":3940:3963   */\n      swap1\n      pop\n        /* \"#utility.yul\":3662:3970   */\n      swap2\n      swap1\n      pop\n      jump\t// out\n        /* \"#utility.yul\":3976:4075   */\n    tag_95:\n        /* \"#utility.yul\":4028:4034   */\n      0x00\n        /* \"#utility.yul\":4062:4067   */\n      dup2\n        /* \"#utility.yul\":4056:4068   */\n      mload\n        /* \"#utility.yul\":4046:4068   */\n      swap1\n      pop\n        /* \"#utility.yul\":3976:4075   */\n      swap2\n      swap1\n      pop\n      jump\t// out\n        /* \"#utility.yul\":4081:4250   */\n    tag_97:\n        /* \"#utility.yul\":4165:4176   */\n      0x00\n        /* \"#utility.yul\":4199:4205   */\n      dup3\n        /* \"#utility.yul\":4194:4197   */\n      dup3\n        /* \"#utility.yul\":4187:4206   */\n      mstore\n        /* \"#utility.yul\":4239:4243   */\n      0x20\n        /* \"#utility.yul\":4234:4237   */\n      dup3\n        /* \"#utility.yul\":4230:4244   */\n      add\n        /* \"#utility.yul\":4215:4244   */\n      swap1\n      pop\n        /* \"#utility.yul\":4081:4250   */\n      swap3\n      swap2\n      pop\n      pop\n      jump\t// out\n        /* \"#utility.yul\":4256:4352   */\n    tag_123:\n        /* \"#utility.yul\":4293:4300   */\n      0x00\n        /* \"#utility.yul\":4322:4346   */\n      tag_125\n        /* \"#utility.yul\":4340:4345   */\n      dup3\n        /* \"#utility.yul\":4322:4346   */\n      tag_126\n      jump\t// in\n    tag_125:\n        /* \"#utility.yul\":4311:4346   */\n      swap1\n      pop\n        /* \"#utility.yul\":4256:4352   */\n      swap2\n      swap1\n      pop\n      jump\t// out\n        /* \"#utility.yul\":4358:4484   */\n    tag_126:\n        /* \"#utility.yul\":4395:4402   */\n      0x00\n        /* \"#utility.yul\":4435:4477   */\n      0xffffffffffffffffffffffffffffffffffffffff\n        /* \"#utility.yul\":4428:4433   */\n      dup3\n        /* \"#utility.yul\":4424:4478   */\n      and\n        /* \"#utility.yul\":4413:4478   */\n      swap1\n      pop\n        /* \"#utility.yul\":4358:4484   */\n      swap2\n      swap1\n      pop\n      jump\t// out\n        /* \"#utility.yul\":4490:4567   */\n    tag_105:\n        /* \"#utility.yul\":4527:4534   */\n      0x00\n        /* \"#utility.yul\":4556:4561   */\n      dup2\n        /* \"#utility.yul\":4545:4561   */\n      swap1\n      pop\n        /* \"#utility.yul\":4490:4567   */\n      swap2\n      swap1\n      pop\n      jump\t// out\n        /* \"#utility.yul\":4573:4727   */\n    tag_60:\n        /* \"#utility.yul\":4657:4663   */\n      dup3\n        /* \"#utility.yul\":4652:4655   */\n      dup2\n        /* \"#utility.yul\":4647:4650   */\n      dup4\n        /* \"#utility.yul\":4634:4664   */\n      calldatacopy\n        /* \"#utility.yul\":4719:4720   */\n      0x00\n        /* \"#utility.yul\":4710:4716   */\n      dup4\n        /* \"#utility.yul\":4705:4708   */\n      dup4\n        /* \"#utility.yul\":4701:4717   */\n      add\n        /* \"#utility.yul\":4694:4721   */\n      mstore\n        /* \"#utility.yul\":4573:4727   */\n      pop\n      pop\n      pop\n      jump\t// out\n        /* \"#utility.yul\":4733:5040   */\n    tag_99:\n        /* \"#utility.yul\":4801:4802   */\n      0x00\n        /* \"#utility.yul\":4811:4924   */\n    tag_131:\n        /* \"#utility.yul\":4825:4831   */\n      dup4\n        /* \"#utility.yul\":4822:4823   */\n      dup2\n        /* \"#utility.yul\":4819:4832   */\n      lt\n        /* \"#utility.yul\":4811:4924   */\n      iszero\n      tag_133\n      jumpi\n        /* \"#utility.yul\":4910:4911   */\n      dup1\n        /* \"#utility.yul\":4905:4908   */\n      dup3\n        /* \"#utility.yul\":4901:4912   */\n      add\n        /* \"#utility.yul\":4895:4913   */\n      mload\n        /* \"#utility.yul\":4891:4892   */\n      dup2\n        /* \"#utility.yul\":4886:4889   */\n      dup5\n        /* \"#utility.yul\":4882:4893   */\n      add\n        /* \"#utility.yul\":4875:4914   */\n      mstore\n        /* \"#utility.yul\":4847:4849   */\n      0x20\n        /* \"#utility.yul\":4844:4845   */\n      dup2\n        /* \"#utility.yul\":4840:4850   */\n      add\n        /* \"#utility.yul\":4835:4850   */\n      swap1\n      pop\n        /* \"#utility.yul\":4811:4924   */\n      jump(tag_131)\n    tag_133:\n        /* \"#utility.yul\":4942:4948   */\n      dup4\n        /* \"#utility.yul\":4939:4940   */\n      dup2\n        /* \"#utility.yul\":4936:4949   */\n      gt\n        /* \"#utility.yul\":4933:5034   */\n      iszero\n      tag_134\n      jumpi\n        /* \"#utility.yul\":5022:5023   */\n      0x00\n        /* \"#utility.yul\":5013:5019   */\n      dup5\n        /* \"#utility.yul\":5008:5011   */\n      dup5\n        /* \"#utility.yul\":5004:5020   */\n      add\n        /* \"#utility.yul\":4997:5024   */\n      mstore\n        /* \"#utility.yul\":4933:5034   */\n    tag_134:\n        /* \"#utility.yul\":4782:5040   */\n      pop\n        /* \"#utility.yul\":4733:5040   */\n      pop\n      pop\n      pop\n      jump\t// out\n        /* \"#utility.yul\":5046:5366   */\n    tag_34:\n        /* \"#utility.yul\":5090:5096   */\n      0x00\n        /* \"#utility.yul\":5127:5128   */\n      0x02\n        /* \"#utility.yul\":5121:5125   */\n      dup3\n        /* \"#utility.yul\":5117:5129   */\n      div\n        /* \"#utility.yul\":5107:5129   */\n      swap1\n      pop\n        /* \"#utility.yul\":5174:5175   */\n      0x01\n        /* \"#utility.yul\":5168:5172   */\n      dup3\n        /* \"#utility.yul\":5164:5176   */\n      and\n        /* \"#utility.yul\":5195:5213   */\n      dup1\n        /* \"#utility.yul\":5185:5266   */\n      tag_136\n      jumpi\n        /* \"#utility.yul\":5251:5255   */\n      0x7f\n        /* \"#utility.yul\":5243:5249   */\n      dup3\n        /* \"#utility.yul\":5239:5256   */\n      and\n        /* \"#utility.yul\":5229:5256   */\n      swap2\n      pop\n        /* \"#utility.yul\":5185:5266   */\n    tag_136:\n        /* \"#utility.yul\":5313:5315   */\n      0x20\n        /* \"#utility.yul\":5305:5311   */\n      dup3\n        /* \"#utility.yul\":5302:5316   */\n      lt\n        /* \"#utility.yul\":5282:5300   */\n      dup2\n        /* \"#utility.yul\":5279:5317   */\n      eq\n        /* \"#utility.yul\":5276:5360   */\n      iszero\n      tag_137\n      jumpi\n        /* \"#utility.yul\":5332:5350   */\n      tag_138\n      tag_139\n      jump\t// in\n    tag_138:\n        /* \"#utility.yul\":5276:5360   */\n    tag_137:\n        /* \"#utility.yul\":5097:5366   */\n      pop\n        /* \"#utility.yul\":5046:5366   */\n      swap2\n      swap1\n      pop\n      jump\t// out\n        /* \"#utility.yul\":5372:5653   */\n    tag_114:\n        /* \"#utility.yul\":5455:5482   */\n      tag_141\n        /* \"#utility.yul\":5477:5481   */\n      dup3\n        /* \"#utility.yul\":5455:5482   */\n      tag_101\n      jump\t// in\n    tag_141:\n        /* \"#utility.yul\":5447:5453   */\n      dup2\n        /* \"#utility.yul\":5443:5483   */\n      add\n        /* \"#utility.yul\":5585:5591   */\n      dup2\n        /* \"#utility.yul\":5573:5583   */\n      dup2\n        /* \"#utility.yul\":5570:5592   */\n      lt\n        /* \"#utility.yul\":5549:5567   */\n      0xffffffffffffffff\n        /* \"#utility.yul\":5537:5547   */\n      dup3\n        /* \"#utility.yul\":5534:5568   */\n      gt\n        /* \"#utility.yul\":5531:5593   */\n      or\n        /* \"#utility.yul\":5528:5616   */\n      iszero\n      tag_142\n      jumpi\n        /* \"#utility.yul\":5596:5614   */\n      tag_143\n      tag_119\n      jump\t// in\n    tag_143:\n        /* \"#utility.yul\":5528:5616   */\n    tag_142:\n        /* \"#utility.yul\":5636:5646   */\n      dup1\n        /* \"#utility.yul\":5632:5634   */\n      0x40\n        /* \"#utility.yul\":5625:5647   */\n      mstore\n        /* \"#utility.yul\":5415:5653   */\n      pop\n        /* \"#utility.yul\":5372:5653   */\n      pop\n      pop\n      jump\t// out\n        /* \"#utility.yul\":5659:5892   */\n    tag_30:\n        /* \"#utility.yul\":5698:5701   */\n      0x00\n        /* \"#utility.yul\":5721:5745   */\n      tag_145\n        /* \"#utility.yul\":5739:5744   */\n      dup3\n        /* \"#utility.yul\":5721:5745   */\n      tag_105\n      jump\t// in\n    tag_145:\n        /* \"#utility.yul\":5712:5745   */\n      swap2\n      pop\n        /* \"#utility.yul\":5767:5833   */\n      0xffffffffffffffffffffffffffffffffffffffffffffffffffffffffffffffff\n        /* \"#utility.yul\":5760:5765   */\n      dup3\n        /* \"#utility.yul\":5757:5834   */\n      eq\n        /* \"#utility.yul\":5754:5857   */\n      iszero\n      tag_146\n      jumpi\n        /* \"#utility.yul\":5837:5855   */\n      tag_147\n      tag_148\n      jump\t// in\n    tag_147:\n        /* \"#utility.yul\":5754:5857   */\n    tag_146:\n        /* \"#utility.yul\":5884:5885   */\n      0x01\n        /* \"#utility.yul\":5877:5882   */\n      dup3\n        /* \"#utility.yul\":5873:5886   */\n      add\n        /* \"#utility.yul\":5866:5886   */\n      swap1\n      pop\n        /* \"#utility.yul\":5659:5892   */\n      swap2\n      swap1\n      pop\n      jump\t// out\n        /* \"#utility.yul\":5898:6078   */\n    tag_148:\n        /* \"#utility.yul\":5946:6023   */\n      0x4e487b7100000000000000000000000000000000000000000000000000000000\n        /* \"#utility.yul\":5943:5944   */\n      0x00\n        /* \"#utility.yul\":5936:6024   */\n      mstore\n        /* \"#utility.yul\":6043:6047   */\n      0x11\n        /* \"#utility.yul\":6040:6041   */\n      0x04\n        /* \"#utility.yul\":6033:6048   */\n      mstore\n        /* \"#utility.yul\":6067:6071   */\n      0x24\n        /* \"#utility.yul\":6064:6065   */\n      0x00\n        /* \"#utility.yul\":6057:6072   */\n      revert\n        /* \"#utility.yul\":6084:6264   */\n    tag_139:\n        /* \"#utility.yul\":6132:6209   */\n      0x4e487b7100000000000000000000000000000000000000000000000000000000\n        /* \"#utility.yul\":6129:6130   */\n      0x00\n        /* \"#utility.yul\":6122:6210   */\n      mstore\n        /* \"#utility.yul\":6229:6233   */\n      0x22\n        /* \"#utility.yul\":6226:6227   */\n      0x04\n        /* \"#utility.yul\":6219:6234   */\n      mstore\n        /* \"#utility.yul\":6253:6257   */\n      0x24\n        /* \"#utility.yul\":6250:6251   */\n      0x00\n        /* \"#utility.yul\":6243:6258   */\n      revert\n        /* \"#utility.yul\":6270:6450   */\n    tag_119:\n        /* \"#utility.yul\":6318:6395   */\n      0x4e487b7100000000000000000000000000000000000000000000000000000000\n        /* \"#utility.yul\":6315:6316   */\n      0x00\n        /* \"#utility.yul\":6308:6396   */\n      mstore\n        /* \"#utility.yul\":6415:6419   */\n      0x41\n        /* \"#utility.yul\":6412:6413   */\n      0x04\n        /* \"#utility.yul\":6405:6420   */\n      mstore\n        /* \"#utility.yul\":6439:6443   */\n      0x24\n        /* \"#utility.yul\":6436:6437   */\n      0x00\n        /* \"#utility.yul\":6429:6444   */\n      revert\n        /* \"#utility.yul\":6456:6573   */\n    tag_69:\n        /* \"#utility.yul\":6565:6566   */\n      0x00\n        /* \"#utility.yul\":6562:6563   */\n      dup1\n        /* \"#utility.yul\":6555:6567   */\n      revert\n        /* \"#utility.yul\":6579:6696   */\n    tag_58:\n        /* \"#utility.yul\":6688:6689   */\n      0x00\n        /* \"#utility.yul\":6685:6686   */\n      dup1\n        /* \"#utility.yul\":6678:6690   */\n      revert\n        /* \"#utility.yul\":6702:6819   */\n    tag_90:\n        /* \"#utility.yul\":6811:6812   */\n      0x00\n        /* \"#utility.yul\":6808:6809   */\n      dup1\n        /* \"#utility.yul\":6801:6813   */\n      revert\n        /* \"#utility.yul\":6825:6942   */\n    tag_78:\n        /* \"#utility.yul\":6934:6935   */\n      0x00\n        /* \"#utility.yul\":6931:6932   */\n      dup1\n        /* \"#utility.yul\":6924:6936   */\n      revert\n        /* \"#utility.yul\":6948:7050   */\n    tag_101:\n        /* \"#utility.yul\":6989:6995   */\n      0x00\n        /* \"#utility.yul\":7040:7042   */\n      0x1f\n        /* \"#utility.yul\":7036:7043   */\n      not\n        /* \"#utility.yul\":7031:7033   */\n      0x1f\n        /* \"#utility.yul\":7024:7029   */\n      dup4\n        /* \"#utility.yul\":7020:7034   */\n      add\n        /* \"#utility.yul\":7016:7044   */\n      and\n        /* \"#utility.yul\":7006:7044   */\n      swap1\n      pop\n        /* \"#utility.yul\":6948:7050   */\n      swap2\n      swap1\n      pop\n      jump\t// out\n        /* \"#utility.yul\":7056:7178   */\n    tag_64:\n        /* \"#utility.yul\":7129:7153   */\n      tag_158\n        /* \"#utility.yul\":7147:7152   */\n      dup2\n        /* \"#utility.yul\":7129:7153   */\n      tag_123\n      jump\t// in\n    tag_158:\n        /* \"#utility.yul\":7122:7127   */\n      dup2\n        /* \"#utility.yul\":7119:7154   */\n      eq\n        /* \"#utility.yul\":7109:7172   */\n      tag_159\n      jumpi\n        /* \"#utility.yul\":7168:7169   */\n      0x00\n        /* \"#utility.yul\":7165:7166   */\n      dup1\n        /* \"#utility.yul\":7158:7170   */\n      revert\n        /* \"#utility.yul\":7109:7172   */\n    tag_159:\n        /* \"#utility.yul\":7056:7178   */\n      pop\n      jump\t// out\n        /* \"#utility.yul\":7184:7306   */\n    tag_74:\n        /* \"#utility.yul\":7257:7281   */\n      tag_161\n        /* \"#utility.yul\":7275:7280   */\n      dup2\n        /* \"#utility.yul\":7257:7281   */\n      tag_105\n      jump\t// in\n    tag_161:\n        /* \"#utility.yul\":7250:7255   */\n      dup2\n        /* \"#utility.yul\":7247:7282   */\n      eq\n        /* \"#utility.yul\":7237:7300   */\n      tag_162\n      jumpi\n        /* \"#utility.yul\":7296:7297   */\n      0x00\n        /* \"#utility.yul\":7293:7294   */\n      dup1\n        /* \"#utility.yul\":7286:7298   */\n      revert\n        /* \"#utility.yul\":7237:7300   */\n    tag_162:\n        /* \"#utility.yul\":7184:7306   */\n      pop\n      jump\t// out\n\n    auxdata: 0xa26469706673582212205108c9aef9fb2951416ddfbe30d683d4aebe4b1c58c9bd944f9cd5185a6f898764736f6c63430008070033\n}\n",
				"bytecode": {
					"linkReferences": {},
					"object": "608060405234801561001057600080fd5b5061074f806100206000396000f3fe608060405234801561001057600080fd5b506004361061004c5760003560e01c80631d09ea10146100515780634ed3885e1461008157806369f60a931461009d5780636d4ce63c146100b9575b600080fd5b61006b60048036038101906100669190610362565b6100d7565b6040516100789190610482565b60405180910390f35b61009b600480360381019061009691906103cf565b6100ef565b005b6100b760048036038101906100b2919061038f565b61014b565b005b6100c1610193565b6040516100ce9190610460565b60405180910390f35b60036020528060005260406000206000915090505481565b8060009080519060200190610105929190610225565b5080600260006001548152602001908152602001600020908051906020019061012f929190610225565b5060016000815480929190610143906105f0565b919050555050565b80600360008473ffffffffffffffffffffffffffffffffffffffff1673ffffffffffffffffffffffffffffffffffffffff168152602001908152602001600020819055505050565b6060600080546101a29061058d565b80601f01602080910402602001604051908101604052809291908181526020018280546101ce9061058d565b801561021b5780601f106101f05761010080835404028352916020019161021b565b820191906000526020600020905b8154815290600101906020018083116101fe57829003601f168201915b5050505050905090565b8280546102319061058d565b90600052602060002090601f016020900481019282610253576000855561029a565b82601f1061026c57805160ff191683800117855561029a565b8280016001018555821561029a579182015b8281111561029957825182559160200191906001019061027e565b5b5090506102a791906102ab565b5090565b5b808211156102c45760008160009055506001016102ac565b5090565b60006102db6102d6846104c2565b61049d565b9050828152602081018484840111156102f7576102f66106cb565b5b61030284828561054b565b509392505050565b600081359050610319816106eb565b92915050565b600082601f830112610334576103336106c6565b5b81356103448482602086016102c8565b91505092915050565b60008135905061035c81610702565b92915050565b600060208284031215610378576103776106d5565b5b60006103868482850161030a565b91505092915050565b600080604083850312156103a6576103a56106d5565b5b60006103b48582860161030a565b92505060206103c58582860161034d565b9150509250929050565b6000602082840312156103e5576103e46106d5565b5b600082013567ffffffffffffffff811115610403576104026106d0565b5b61040f8482850161031f565b91505092915050565b6000610423826104f3565b61042d81856104fe565b935061043d81856020860161055a565b610446816106da565b840191505092915050565b61045a81610541565b82525050565b6000602082019050818103600083015261047a8184610418565b905092915050565b60006020820190506104976000830184610451565b92915050565b60006104a76104b8565b90506104b382826105bf565b919050565b6000604051905090565b600067ffffffffffffffff8211156104dd576104dc610697565b5b6104e6826106da565b9050602081019050919050565b600081519050919050565b600082825260208201905092915050565b600061051a82610521565b9050919050565b600073ffffffffffffffffffffffffffffffffffffffff82169050919050565b6000819050919050565b82818337600083830152505050565b60005b8381101561057857808201518184015260208101905061055d565b83811115610587576000848401525b50505050565b600060028204905060018216806105a557607f821691505b602082108114156105b9576105b8610668565b5b50919050565b6105c8826106da565b810181811067ffffffffffffffff821117156105e7576105e6610697565b5b80604052505050565b60006105fb82610541565b91507fffffffffffffffffffffffffffffffffffffffffffffffffffffffffffffffff82141561062e5761062d610639565b5b600182019050919050565b7f4e487b7100000000000000000000000000000000000000000000000000000000600052601160045260246000fd5b7f4e487b7100000000000000000000000000000000000000000000000000000000600052602260045260246000fd5b7f4e487b7100000000000000000000000000000000000000000000000000000000600052604160045260246000fd5b600080fd5b600080fd5b600080fd5b600080fd5b6000601f19601f8301169050919050565b6106f48161050f565b81146106ff57600080fd5b50565b61070b81610541565b811461071657600080fd5b5056fea26469706673582212205108c9aef9fb2951416ddfbe30d683d4aebe4b1c58c9bd944f9cd5185a6f898764736f6c63430008070033",
					"opcodes": "PUSH1 0x80 PUSH1 0x40 MSTORE CALLVALUE DUP1 ISZERO PUSH2 0x10 JUMPI PUSH1 0x0 DUP1 REVERT JUMPDEST POP PUSH2 0x74F DUP1 PUSH2 0x20 PUSH1 0x0 CODECOPY PUSH1 0x0 RETURN INVALID PUSH1 0x80 PUSH1 0x40 MSTORE CALLVALUE DUP1 ISZERO PUSH2 0x10 JUMPI PUSH1 0x0 DUP1 REVERT JUMPDEST POP PUSH1 0x4 CALLDATASIZE LT PUSH2 0x4C JUMPI PUSH1 0x0 CALLDATALOAD PUSH1 0xE0 SHR DUP1 PUSH4 0x1D09EA10 EQ PUSH2 0x51 JUMPI DUP1 PUSH4 0x4ED3885E EQ PUSH2 0x81 JUMPI DUP1 PUSH4 0x69F60A93 EQ PUSH2 0x9D JUMPI DUP1 PUSH4 0x6D4CE63C EQ PUSH2 0xB9 JUMPI JUMPDEST PUSH1 0x0 DUP1 REVERT JUMPDEST PUSH2 0x6B PUSH1 0x4 DUP1 CALLDATASIZE SUB DUP2 ADD SWAP1 PUSH2 0x66 SWAP2 SWAP1 PUSH2 0x362 JUMP JUMPDEST PUSH2 0xD7 JUMP JUMPDEST PUSH1 0x40 MLOAD PUSH2 0x78 SWAP2 SWAP1 PUSH2 0x482 JUMP JUMPDEST PUSH1 0x40 MLOAD DUP1 SWAP2 SUB SWAP1 RETURN JUMPDEST PUSH2 0x9B PUSH1 0x4 DUP1 CALLDATASIZE SUB DUP2 ADD SWAP1 PUSH2 0x96 SWAP2 SWAP1 PUSH2 0x3CF JUMP JUMPDEST PUSH2 0xEF JUMP JUMPDEST STOP JUMPDEST PUSH2 0xB7 PUSH1 0x4 DUP1 CALLDATASIZE SUB DUP2 ADD SWAP1 PUSH2 0xB2 SWAP2 SWAP1 PUSH2 0x38F JUMP JUMPDEST PUSH2 0x14B JUMP JUMPDEST STOP JUMPDEST PUSH2 0xC1 PUSH2 0x193 JUMP JUMPDEST PUSH1 0x40 MLOAD PUSH2 0xCE SWAP2 SWAP1 PUSH2 0x460 JUMP JUMPDEST PUSH1 0x40 MLOAD DUP1 SWAP2 SUB SWAP1 RETURN JUMPDEST PUSH1 0x3 PUSH1 0x20 MSTORE DUP1 PUSH1 0x0 MSTORE PUSH1 0x40 PUSH1 0x0 KECCAK256 PUSH1 0x0 SWAP2 POP SWAP1 POP SLOAD DUP2 JUMP JUMPDEST DUP1 PUSH1 0x0 SWAP1 DUP1 MLOAD SWAP1 PUSH1 0x20 ADD SWAP1 PUSH2 0x105 SWAP3 SWAP2 SWAP1 PUSH2 0x225 JUMP JUMPDEST POP DUP1 PUSH1 0x2 PUSH1 0x0 PUSH1 0x1 SLOAD DUP2 MSTORE PUSH1 0x20 ADD SWAP1 DUP2 MSTORE PUSH1 0x20 ADD PUSH1 0x0 KECCAK256 SWAP1 DUP1 MLOAD SWAP1 PUSH1 0x20 ADD SWAP1 PUSH2 0x12F SWAP3 SWAP2 SWAP1 PUSH2 0x225 JUMP JUMPDEST POP PUSH1 0x1 PUSH1 0x0 DUP2 SLOAD DUP1 SWAP3 SWAP2 SWAP1 PUSH2 0x143 SWAP1 PUSH2 0x5F0 JUMP JUMPDEST SWAP2 SWAP1 POP SSTORE POP POP JUMP JUMPDEST DUP1 PUSH1 0x3 PUSH1 0x0 DUP5 PUSH20 0xFFFFFFFFFFFFFFFFFFFFFFFFFFFFFFFFFFFFFFFF AND PUSH20 0xFFFFFFFFFFFFFFFFFFFFFFFFFFFFFFFFFFFFFFFF AND DUP2 MSTORE PUSH1 0x20 ADD SWAP1 DUP2 MSTORE PUSH1 0x20 ADD PUSH1 0x0 KECCAK256 DUP2 SWAP1 SSTORE POP POP POP JUMP JUMPDEST PUSH1 0x60 PUSH1 0x0 DUP1 SLOAD PUSH2 0x1A2 SWAP1 PUSH2 0x58D JUMP JUMPDEST DUP1 PUSH1 0x1F ADD PUSH1 0x20 DUP1 SWAP2 DIV MUL PUSH1 0x20 ADD PUSH1 0x40 MLOAD SWAP1 DUP2 ADD PUSH1 0x40 MSTORE DUP1 SWAP3 SWAP2 SWAP1 DUP2 DUP2 MSTORE PUSH1 0x20 ADD DUP3 DUP1 SLOAD PUSH2 0x1CE SWAP1 PUSH2 0x58D JUMP JUMPDEST DUP1 ISZERO PUSH2 0x21B JUMPI DUP1 PUSH1 0x1F LT PUSH2 0x1F0 JUMPI PUSH2 0x100 DUP1 DUP4 SLOAD DIV MUL DUP4 MSTORE SWAP2 PUSH1 0x20 ADD SWAP2 PUSH2 0x21B JUMP JUMPDEST DUP3 ADD SWAP2 SWAP1 PUSH1 0x0 MSTORE PUSH1 0x20 PUSH1 0x0 KECCAK256 SWAP1 JUMPDEST DUP2 SLOAD DUP2 MSTORE SWAP1 PUSH1 0x1 ADD SWAP1 PUSH1 0x20 ADD DUP1 DUP4 GT PUSH2 0x1FE JUMPI DUP3 SWAP1 SUB PUSH1 0x1F AND DUP3 ADD SWAP2 JUMPDEST POP POP POP POP POP SWAP1 POP SWAP1 JUMP JUMPDEST DUP3 DUP1 SLOAD PUSH2 0x231 SWAP1 PUSH2 0x58D JUMP JUMPDEST SWAP1 PUSH1 0x0 MSTORE PUSH1 0x20 PUSH1 0x0 KECCAK256 SWAP1 PUSH1 0x1F ADD PUSH1 0x20 SWAP1 DIV DUP2 ADD SWAP3 DUP3 PUSH2 0x253 JUMPI PUSH1 0x0 DUP6 SSTORE PUSH2 0x29A JUMP JUMPDEST DUP3 PUSH1 0x1F LT PUSH2 0x26C JUMPI DUP1 MLOAD PUSH1 0xFF NOT AND DUP4 DUP1 ADD OR DUP6 SSTORE PUSH2 0x29A JUMP JUMPDEST DUP3 DUP1 ADD PUSH1 0x1 ADD DUP6 SSTORE DUP3 ISZERO PUSH2 0x29A JUMPI SWAP2 DUP3 ADD JUMPDEST DUP3 DUP2 GT ISZERO PUSH2 0x299 JUMPI DUP3 MLOAD DUP3 SSTORE SWAP2 PUSH1 0x20 ADD SWAP2 SWAP1 PUSH1 0x1 ADD SWAP1 PUSH2 0x27E JUMP JUMPDEST JUMPDEST POP SWAP1 POP PUSH2 0x2A7 SWAP2 SWAP1 PUSH2 0x2AB JUMP JUMPDEST POP SWAP1 JUMP JUMPDEST JUMPDEST DUP1 DUP3 GT ISZERO PUSH2 0x2C4 JUMPI PUSH1 0x0 DUP2 PUSH1 0x0 SWAP1 SSTORE POP PUSH1 0x1 ADD PUSH2 0x2AC JUMP JUMPDEST POP SWAP1 JUMP JUMPDEST PUSH1 0x0 PUSH2 0x2DB PUSH2 0x2D6 DUP5 PUSH2 0x4C2 JUMP JUMPDEST PUSH2 0x49D JUMP JUMPDEST SWAP1 POP DUP3 DUP2 MSTORE PUSH1 0x20 DUP2 ADD DUP5 DUP5 DUP5 ADD GT ISZERO PUSH2 0x2F7 JUMPI PUSH2 0x2F6 PUSH2 0x6CB JUMP JUMPDEST JUMPDEST PUSH2 0x302 DUP5 DUP3 DUP6 PUSH2 0x54B JUMP JUMPDEST POP SWAP4 SWAP3 POP POP POP JUMP JUMPDEST PUSH1 0x0 DUP2 CALLDATALOAD SWAP1 POP PUSH2 0x319 DUP2 PUSH2 0x6EB JUMP JUMPDEST SWAP3 SWAP2 POP POP JUMP JUMPDEST PUSH1 0x0 DUP3 PUSH1 0x1F DUP4 ADD SLT PUSH2 0x334 JUMPI PUSH2 0x333 PUSH2 0x6C6 JUMP JUMPDEST JUMPDEST DUP2 CALLDATALOAD PUSH2 0x344 DUP5 DUP3 PUSH1 0x20 DUP7 ADD PUSH2 0x2C8 JUMP JUMPDEST SWAP2 POP POP SWAP3 SWAP2 POP POP JUMP JUMPDEST PUSH1 0x0 DUP2 CALLDATALOAD SWAP1 POP PUSH2 0x35C DUP2 PUSH2 0x702 JUMP JUMPDEST SWAP3 SWAP2 POP POP JUMP JUMPDEST PUSH1 0x0 PUSH1 0x20 DUP3 DUP5 SUB SLT ISZERO PUSH2 0x378 JUMPI PUSH2 0x377 PUSH2 0x6D5 JUMP JUMPDEST JUMPDEST PUSH1 0x0 PUSH2 0x386 DUP5 DUP3 DUP6 ADD PUSH2 0x30A JUMP JUMPDEST SWAP2 POP POP SWAP3 SWAP2 POP POP JUMP JUMPDEST PUSH1 0x0 DUP1 PUSH1 0x40 DUP4 DUP6 SUB SLT ISZERO PUSH2 0x3A6 JUMPI PUSH2 0x3A5 PUSH2 0x6D5 JUMP JUMPDEST JUMPDEST PUSH1 0x0 PUSH2 0x3B4 DUP6 DUP3 DUP7 ADD PUSH2 0x30A JUMP JUMPDEST SWAP3 POP POP PUSH1 0x20 PUSH2 0x3C5 DUP6 DUP3 DUP7 ADD PUSH2 0x34D JUMP JUMPDEST SWAP2 POP POP SWAP3 POP SWAP3 SWAP1 POP JUMP JUMPDEST PUSH1 0x0 PUSH1 0x20 DUP3 DUP5 SUB SLT ISZERO PUSH2 0x3E5 JUMPI PUSH2 0x3E4 PUSH2 0x6D5 JUMP JUMPDEST JUMPDEST PUSH1 0x0 DUP3 ADD CALLDATALOAD PUSH8 0xFFFFFFFFFFFFFFFF DUP2 GT ISZERO PUSH2 0x403 JUMPI PUSH2 0x402 PUSH2 0x6D0 JUMP JUMPDEST JUMPDEST PUSH2 0x40F DUP5 DUP3 DUP6 ADD PUSH2 0x31F JUMP JUMPDEST SWAP2 POP POP SWAP3 SWAP2 POP POP JUMP JUMPDEST PUSH1 0x0 PUSH2 0x423 DUP3 PUSH2 0x4F3 JUMP JUMPDEST PUSH2 0x42D DUP2 DUP6 PUSH2 0x4FE JUMP JUMPDEST SWAP4 POP PUSH2 0x43D DUP2 DUP6 PUSH1 0x20 DUP7 ADD PUSH2 0x55A JUMP JUMPDEST PUSH2 0x446 DUP2 PUSH2 0x6DA JUMP JUMPDEST DUP5 ADD SWAP2 POP POP SWAP3 SWAP2 POP POP JUMP JUMPDEST PUSH2 0x45A DUP2 PUSH2 0x541 JUMP JUMPDEST DUP3 MSTORE POP POP JUMP JUMPDEST PUSH1 0x0 PUSH1 0x20 DUP3 ADD SWAP1 POP DUP2 DUP2 SUB PUSH1 0x0 DUP4 ADD MSTORE PUSH2 0x47A DUP2 DUP5 PUSH2 0x418 JUMP JUMPDEST SWAP1 POP SWAP3 SWAP2 POP POP JUMP JUMPDEST PUSH1 0x0 PUSH1 0x20 DUP3 ADD SWAP1 POP PUSH2 0x497 PUSH1 0x0 DUP4 ADD DUP5 PUSH2 0x451 JUMP JUMPDEST SWAP3 SWAP2 POP POP JUMP JUMPDEST PUSH1 0x0 PUSH2 0x4A7 PUSH2 0x4B8 JUMP JUMPDEST SWAP1 POP PUSH2 0x4B3 DUP3 DUP3 PUSH2 0x5BF JUMP JUMPDEST SWAP2 SWAP1 POP JUMP JUMPDEST PUSH1 0x0 PUSH1 0x40 MLOAD SWAP1 POP SWAP1 JUMP JUMPDEST PUSH1 0x0 PUSH8 0xFFFFFFFFFFFFFFFF DUP3 GT ISZERO PUSH2 0x4DD JUMPI PUSH2 0x4DC PUSH2 0x697 JUMP JUMPDEST JUMPDEST PUSH2 0x4E6 DUP3 PUSH2 0x6DA JUMP JUMPDEST SWAP1 POP PUSH1 0x20 DUP2 ADD SWAP1 POP SWAP2 SWAP1 POP JUMP JUMPDEST PUSH1 0x0 DUP2 MLOAD SWAP1 POP SWAP2 SWAP1 POP JUMP JUMPDEST PUSH1 0x0 DUP3 DUP3 MSTORE PUSH1 0x20 DUP3 ADD SWAP1 POP SWAP3 SWAP2 POP POP JUMP JUMPDEST PUSH1 0x0 PUSH2 0x51A DUP3 PUSH2 0x521 JUMP JUMPDEST SWAP1 POP SWAP2 SWAP1 POP JUMP JUMPDEST PUSH1 0x0 PUSH20 0xFFFFFFFFFFFFFFFFFFFFFFFFFFFFFFFFFFFFFFFF DUP3 AND SWAP1 POP SWAP2 SWAP1 POP JUMP JUMPDEST PUSH1 0x0 DUP2 SWAP1 POP SWAP2 SWAP1 POP JUMP JUMPDEST DUP3 DUP2 DUP4 CALLDATACOPY PUSH1 0x0 DUP4 DUP4 ADD MSTORE POP POP POP JUMP JUMPDEST PUSH1 0x0 JUMPDEST DUP4 DUP2 LT ISZERO PUSH2 0x578 JUMPI DUP1 DUP3 ADD MLOAD DUP2 DUP5 ADD MSTORE PUSH1 0x20 DUP2 ADD SWAP1 POP PUSH2 0x55D JUMP JUMPDEST DUP4 DUP2 GT ISZERO PUSH2 0x587 JUMPI PUSH1 0x0 DUP5 DUP5 ADD MSTORE JUMPDEST POP POP POP POP JUMP JUMPDEST PUSH1 0x0 PUSH1 0x2 DUP3 DIV SWAP1 POP PUSH1 0x1 DUP3 AND DUP1 PUSH2 0x5A5 JUMPI PUSH1 0x7F DUP3 AND SWAP2 POP JUMPDEST PUSH1 0x20 DUP3 LT DUP2 EQ ISZERO PUSH2 0x5B9 JUMPI PUSH2 0x5B8 PUSH2 0x668 JUMP JUMPDEST JUMPDEST POP SWAP2 SWAP1 POP JUMP JUMPDEST PUSH2 0x5C8 DUP3 PUSH2 0x6DA JUMP JUMPDEST DUP2 ADD DUP2 DUP2 LT PUSH8 0xFFFFFFFFFFFFFFFF DUP3 GT OR ISZERO PUSH2 0x5E7 JUMPI PUSH2 0x5E6 PUSH2 0x697 JUMP JUMPDEST JUMPDEST DUP1 PUSH1 0x40 MSTORE POP POP POP JUMP JUMPDEST PUSH1 0x0 PUSH2 0x5FB DUP3 PUSH2 0x541 JUMP JUMPDEST SWAP2 POP PUSH32 0xFFFFFFFFFFFFFFFFFFFFFFFFFFFFFFFFFFFFFFFFFFFFFFFFFFFFFFFFFFFFFFFF DUP3 EQ ISZERO PUSH2 0x62E JUMPI PUSH2 0x62D PUSH2 0x639 JUMP JUMPDEST JUMPDEST PUSH1 0x1 DUP3 ADD SWAP1 POP SWAP2 SWAP1 POP JUMP JUMPDEST PUSH32 0x4E487B7100000000000000000000000000000000000000000000000000000000 PUSH1 0x0 MSTORE PUSH1 0x11 PUSH1 0x4 MSTORE PUSH1 0x24 PUSH1 0x0 REVERT JUMPDEST PUSH32 0x4E487B7100000000000000000000000000000000000000000000000000000000 PUSH1 0x0 MSTORE PUSH1 0x22 PUSH1 0x4 MSTORE PUSH1 0x24 PUSH1 0x0 REVERT JUMPDEST PUSH32 0x4E487B7100000000000000000000000000000000000000000000000000000000 PUSH1 0x0 MSTORE PUSH1 0x41 PUSH1 0x4 MSTORE PUSH1 0x24 PUSH1 0x0 REVERT JUMPDEST PUSH1 0x0 DUP1 REVERT JUMPDEST PUSH1 0x0 DUP1 REVERT JUMPDEST PUSH1 0x0 DUP1 REVERT JUMPDEST PUSH1 0x0 DUP1 REVERT JUMPDEST PUSH1 0x0 PUSH1 0x1F NOT PUSH1 0x1F DUP4 ADD AND SWAP1 POP SWAP2 SWAP1 POP JUMP JUMPDEST PUSH2 0x6F4 DUP2 PUSH2 0x50F JUMP JUMPDEST DUP2 EQ PUSH2 0x6FF JUMPI PUSH1 0x0 DUP1 REVERT JUMPDEST POP JUMP JUMPDEST PUSH2 0x70B DUP2 PUSH2 0x541 JUMP JUMPDEST DUP2 EQ PUSH2 0x716 JUMPI PUSH1 0x0 DUP1 REVERT JUMPDEST POP JUMP INVALID LOG2 PUSH5 0x6970667358 0x22 SLT KECCAK256 MLOAD ADDMOD 0xC9 0xAE 0xF9 0xFB 0x29 MLOAD COINBASE PUSH14 0xDFBE30D683D4AEBE4B1C58C9BD94 0x4F SWAP13 0xD5 XOR GAS PUSH16 0x898764736F6C63430008070033000000 "
				},
				"gasEstimates": {
					"creation": {
						"codeDepositCost": "374200",
						"executionCost": "411",
						"totalCost": "374611"
					},
					"external": {
						"edadPorAddress(address)": "2792",
						"get()": "infinite",
						"set(string)": "infinite",
						"setEdadPorAddress(address,uint256)": "22854"
					}
				},
				"methodIdentifiers": {
					"edadPorAddress(address)": "1d09ea10",
					"get()": "6d4ce63c",
					"set(string)": "4ed3885e",
					"setEdadPorAddress(address,uint256)": "69f60a93"
				}
			},
			"storageLayout": {
				"storage": [
					{
						"astId": 3,
						"contract": "Clase_1/3_MappingEdad.sol:MiPrimerContrato",
						"label": "saludo",
						"offset": 0,
						"slot": "0",
						"type": "t_string_storage"
					},
					{
						"astId": 5,
						"contract": "Clase_1/3_MappingEdad.sol:MiPrimerContrato",
						"label": "counter",
						"offset": 0,
						"slot": "1",
						"type": "t_uint256"
					},
					{
						"astId": 9,
						"contract": "Clase_1/3_MappingEdad.sol:MiPrimerContrato",
						"label": "listaSaludos",
						"offset": 0,
						"slot": "2",
						"type": "t_mapping(t_uint256,t_string_storage)"
					},
					{
						"astId": 13,
						"contract": "Clase_1/3_MappingEdad.sol:MiPrimerContrato",
						"label": "edadPorAddress",
						"offset": 0,
						"slot": "3",
						"type": "t_mapping(t_address,t_uint256)"
					}
				],
				"types": {
					"t_address": {
						"encoding": "inplace",
						"label": "address",
						"numberOfBytes": "20"
					},
					"t_mapping(t_address,t_uint256)": {
						"encoding": "mapping",
						"key": "t_address",
						"label": "mapping(address => uint256)",
						"numberOfBytes": "32",
						"value": "t_uint256"
					},
					"t_mapping(t_uint256,t_string_storage)": {
						"encoding": "mapping",
						"key": "t_uint256",
						"label": "mapping(uint256 => string)",
						"numberOfBytes": "32",
						"value": "t_string_storage"
					},
					"t_string_storage": {
						"encoding": "bytes",
						"label": "string",
						"numberOfBytes": "32"
					},
					"t_uint256": {
						"encoding": "inplace",
						"label": "uint256",
						"numberOfBytes": "32"
					}
				}
			},
			"userdoc": {
				"kind": "user",
				"methods": {},
				"version": 1
			}
		}
	}
}