{
	"Clase Contrato Airdrop/Airdrop.sol": {
		"Airdrop": {
			"abi": [
				{
					"inputs": [],
					"stateMutability": "nonpayable",
					"type": "constructor"
				},
				{
					"anonymous": false,
					"inputs": [
						{
							"indexed": false,
							"internalType": "address",
							"name": "account",
							"type": "address"
						}
					],
					"name": "Paused",
					"type": "event"
				},
				{
					"anonymous": false,
					"inputs": [
						{
							"indexed": true,
							"internalType": "bytes32",
							"name": "role",
							"type": "bytes32"
						},
						{
							"indexed": true,
							"internalType": "bytes32",
							"name": "previousAdminRole",
							"type": "bytes32"
						},
						{
							"indexed": true,
							"internalType": "bytes32",
							"name": "newAdminRole",
							"type": "bytes32"
						}
					],
					"name": "RoleAdminChanged",
					"type": "event"
				},
				{
					"anonymous": false,
					"inputs": [
						{
							"indexed": true,
							"internalType": "bytes32",
							"name": "role",
							"type": "bytes32"
						},
						{
							"indexed": true,
							"internalType": "address",
							"name": "account",
							"type": "address"
						},
						{
							"indexed": true,
							"internalType": "address",
							"name": "sender",
							"type": "address"
						}
					],
					"name": "RoleGranted",
					"type": "event"
				},
				{
					"anonymous": false,
					"inputs": [
						{
							"indexed": true,
							"internalType": "bytes32",
							"name": "role",
							"type": "bytes32"
						},
						{
							"indexed": true,
							"internalType": "address",
							"name": "account",
							"type": "address"
						},
						{
							"indexed": true,
							"internalType": "address",
							"name": "sender",
							"type": "address"
						}
					],
					"name": "RoleRevoked",
					"type": "event"
				},
				{
					"anonymous": false,
					"inputs": [
						{
							"indexed": false,
							"internalType": "address",
							"name": "account",
							"type": "address"
						}
					],
					"name": "Unpaused",
					"type": "event"
				},
				{
					"inputs": [],
					"name": "DEFAULT_ADMIN_ROLE",
					"outputs": [
						{
							"internalType": "bytes32",
							"name": "",
							"type": "bytes32"
						}
					],
					"stateMutability": "view",
					"type": "function"
				},
				{
					"inputs": [],
					"name": "LISTA_BLANCA",
					"outputs": [
						{
							"internalType": "bytes32",
							"name": "",
							"type": "bytes32"
						}
					],
					"stateMutability": "view",
					"type": "function"
				},
				{
					"inputs": [],
					"name": "PAUSER_ROLE",
					"outputs": [
						{
							"internalType": "bytes32",
							"name": "",
							"type": "bytes32"
						}
					],
					"stateMutability": "view",
					"type": "function"
				},
				{
					"inputs": [
						{
							"internalType": "bytes32",
							"name": "role",
							"type": "bytes32"
						}
					],
					"name": "getRoleAdmin",
					"outputs": [
						{
							"internalType": "bytes32",
							"name": "",
							"type": "bytes32"
						}
					],
					"stateMutability": "view",
					"type": "function"
				},
				{
					"inputs": [
						{
							"internalType": "bytes32",
							"name": "role",
							"type": "bytes32"
						},
						{
							"internalType": "address",
							"name": "account",
							"type": "address"
						}
					],
					"name": "grantRole",
					"outputs": [],
					"stateMutability": "nonpayable",
					"type": "function"
				},
				{
					"inputs": [
						{
							"internalType": "bytes32",
							"name": "role",
							"type": "bytes32"
						},
						{
							"internalType": "address",
							"name": "account",
							"type": "address"
						}
					],
					"name": "hasRole",
					"outputs": [
						{
							"internalType": "bool",
							"name": "",
							"type": "bool"
						}
					],
					"stateMutability": "view",
					"type": "function"
				},
				{
					"inputs": [
						{
							"internalType": "bool",
							"name": "quemar",
							"type": "bool"
						}
					],
					"name": "participarAirdrop",
					"outputs": [],
					"stateMutability": "nonpayable",
					"type": "function"
				},
				{
					"inputs": [],
					"name": "pause",
					"outputs": [],
					"stateMutability": "nonpayable",
					"type": "function"
				},
				{
					"inputs": [],
					"name": "paused",
					"outputs": [
						{
							"internalType": "bool",
							"name": "",
							"type": "bool"
						}
					],
					"stateMutability": "view",
					"type": "function"
				},
				{
					"inputs": [],
					"name": "quieroparticiparotravez",
					"outputs": [],
					"stateMutability": "nonpayable",
					"type": "function"
				},
				{
					"inputs": [
						{
							"internalType": "bytes32",
							"name": "role",
							"type": "bytes32"
						},
						{
							"internalType": "address",
							"name": "account",
							"type": "address"
						}
					],
					"name": "renounceRole",
					"outputs": [],
					"stateMutability": "nonpayable",
					"type": "function"
				},
				{
					"inputs": [
						{
							"internalType": "bytes32",
							"name": "role",
							"type": "bytes32"
						},
						{
							"internalType": "address",
							"name": "account",
							"type": "address"
						}
					],
					"name": "revokeRole",
					"outputs": [],
					"stateMutability": "nonpayable",
					"type": "function"
				},
				{
					"inputs": [
						{
							"internalType": "address",
							"name": "_account",
							"type": "address"
						},
						{
							"internalType": "bool",
							"name": "_incluir",
							"type": "bool"
						}
					],
					"name": "setListaBlanca",
					"outputs": [],
					"stateMutability": "nonpayable",
					"type": "function"
				},
				{
					"inputs": [
						{
							"internalType": "bytes4",
							"name": "interfaceId",
							"type": "bytes4"
						}
					],
					"name": "supportsInterface",
					"outputs": [
						{
							"internalType": "bool",
							"name": "",
							"type": "bool"
						}
					],
					"stateMutability": "view",
					"type": "function"
				},
				{
					"inputs": [],
					"name": "unpause",
					"outputs": [],
					"stateMutability": "nonpayable",
					"type": "function"
				}
			],
			"devdoc": {
				"kind": "dev",
				"methods": {
					"getRoleAdmin(bytes32)": {
						"details": "Returns the admin role that controls `role`. See {grantRole} and {revokeRole}. To change a role's admin, use {_setRoleAdmin}."
					},
					"grantRole(bytes32,address)": {
						"details": "Grants `role` to `account`. If `account` had not been already granted `role`, emits a {RoleGranted} event. Requirements: - the caller must have ``role``'s admin role. May emit a {RoleGranted} event."
					},
					"hasRole(bytes32,address)": {
						"details": "Returns `true` if `account` has been granted `role`."
					},
					"paused()": {
						"details": "Returns true if the contract is paused, and false otherwise."
					},
					"renounceRole(bytes32,address)": {
						"details": "Revokes `role` from the calling account. Roles are often managed via {grantRole} and {revokeRole}: this function's purpose is to provide a mechanism for accounts to lose their privileges if they are compromised (such as when a trusted device is misplaced). If the calling account had been revoked `role`, emits a {RoleRevoked} event. Requirements: - the caller must be `account`. May emit a {RoleRevoked} event."
					},
					"revokeRole(bytes32,address)": {
						"details": "Revokes `role` from `account`. If `account` had been granted `role`, emits a {RoleRevoked} event. Requirements: - the caller must have ``role``'s admin role. May emit a {RoleRevoked} event."
					},
					"supportsInterface(bytes4)": {
						"details": "See {IERC165-supportsInterface}."
					}
				},
				"version": 1
			},
			"evm": {
				"assembly": "    /* \"Clase Contrato Airdrop/Airdrop.sol\":854:2713  contract Airdrop is Pausable, AccessControl {... */\n  mstore(0x40, 0x80)\n    /* \"Clase Contrato Airdrop/Airdrop.sol\":1189:1202  10 * 10 ** 18 */\n  0x8ac7230489e80000\n    /* \"Clase Contrato Airdrop/Airdrop.sol\":1158:1202  uint256 CantidadTokensMaximo = 10 * 10 ** 18 */\n  0x05\n  sstore\n    /* \"Clase Contrato Airdrop/Airdrop.sol\":2241:2362  constructor() {... */\n  callvalue\n  dup1\n  iszero\n  tag_1\n  jumpi\n  0x00\n  dup1\n  revert\ntag_1:\n  pop\n    /* \"@openzeppelin/contracts/security/Pausable.sol\":1006:1011  false */\n  0x00\n    /* \"@openzeppelin/contracts/security/Pausable.sol\":996:1003  _paused */\n  dup1\n  0x00\n    /* \"@openzeppelin/contracts/security/Pausable.sol\":996:1011  _paused = false */\n  0x0100\n  exp\n  dup2\n  sload\n  dup2\n  0xff\n  mul\n  not\n  and\n  swap1\n  dup4\n  iszero\n  iszero\n  mul\n  or\n  swap1\n  sstore\n  pop\n    /* \"Clase Contrato Airdrop/Airdrop.sol\":2266:2308  _grantRole(DEFAULT_ADMIN_ROLE, msg.sender) */\n  tag_6\n    /* \"@openzeppelin/contracts/access/AccessControl.sol\":2072:2076  0x00 */\n  0x00\n    /* \"Clase Contrato Airdrop/Airdrop.sol\":2277:2295  DEFAULT_ADMIN_ROLE */\n  dup1\n  shl\n    /* \"Clase Contrato Airdrop/Airdrop.sol\":2297:2307  msg.sender */\n  caller\n    /* \"Clase Contrato Airdrop/Airdrop.sol\":2266:2276  _grantRole */\n  shl(0x20, tag_7)\n    /* \"Clase Contrato Airdrop/Airdrop.sol\":2266:2308  _grantRole(DEFAULT_ADMIN_ROLE, msg.sender) */\n  0x20\n  shr\n  jump\t// in\ntag_6:\n    /* \"Clase Contrato Airdrop/Airdrop.sol\":2319:2354  _grantRole(PAUSER_ROLE, msg.sender) */\n  tag_8\n    /* \"Clase Contrato Airdrop/Airdrop.sol\":943:967  keccak256(\"PAUSER_ROLE\") */\n  0x65d7a28e3265b37a6474929f336521b332c1681b933f6cb9f3376673440d862a\n    /* \"Clase Contrato Airdrop/Airdrop.sol\":2343:2353  msg.sender */\n  caller\n    /* \"Clase Contrato Airdrop/Airdrop.sol\":2319:2329  _grantRole */\n  shl(0x20, tag_7)\n    /* \"Clase Contrato Airdrop/Airdrop.sol\":2319:2354  _grantRole(PAUSER_ROLE, msg.sender) */\n  0x20\n  shr\n  jump\t// in\ntag_8:\n    /* \"Clase Contrato Airdrop/Airdrop.sol\":854:2713  contract Airdrop is Pausable, AccessControl {... */\n  jump(tag_9)\n    /* \"@openzeppelin/contracts/access/AccessControl.sol\":7474:7707  function _grantRole(bytes32 role, address account) internal virtual {... */\ntag_7:\n    /* \"@openzeppelin/contracts/access/AccessControl.sol\":7557:7579  hasRole(role, account) */\n  tag_11\n    /* \"@openzeppelin/contracts/access/AccessControl.sol\":7565:7569  role */\n  dup3\n    /* \"@openzeppelin/contracts/access/AccessControl.sol\":7571:7578  account */\n  dup3\n    /* \"@openzeppelin/contracts/access/AccessControl.sol\":7557:7564  hasRole */\n  shl(0x20, tag_12)\n    /* \"@openzeppelin/contracts/access/AccessControl.sol\":7557:7579  hasRole(role, account) */\n  0x20\n  shr\n  jump\t// in\ntag_11:\n    /* \"@openzeppelin/contracts/access/AccessControl.sol\":7552:7701  if (!hasRole(role, account)) {... */\n  tag_13\n  jumpi\n    /* \"@openzeppelin/contracts/access/AccessControl.sol\":7627:7631  true */\n  0x01\n    /* \"@openzeppelin/contracts/access/AccessControl.sol\":7595:7601  _roles */\n  dup1\n    /* \"@openzeppelin/contracts/access/AccessControl.sol\":7595:7607  _roles[role] */\n  0x00\n    /* \"@openzeppelin/contracts/access/AccessControl.sol\":7602:7606  role */\n  dup5\n    /* \"@openzeppelin/contracts/access/AccessControl.sol\":7595:7607  _roles[role] */\n  dup2\n  mstore\n  0x20\n  add\n  swap1\n  dup2\n  mstore\n  0x20\n  add\n  0x00\n  keccak256\n    /* \"@openzeppelin/contracts/access/AccessControl.sol\":7595:7615  _roles[role].members */\n  0x00\n  add\n    /* \"@openzeppelin/contracts/access/AccessControl.sol\":7595:7624  _roles[role].members[account] */\n  0x00\n    /* \"@openzeppelin/contracts/access/AccessControl.sol\":7616:7623  account */\n  dup4\n    /* \"@openzeppelin/contracts/access/AccessControl.sol\":7595:7624  _roles[role].members[account] */\n  0xffffffffffffffffffffffffffffffffffffffff\n  and\n  0xffffffffffffffffffffffffffffffffffffffff\n  and\n  dup2\n  mstore\n  0x20\n  add\n  swap1\n  dup2\n  mstore\n  0x20\n  add\n  0x00\n  keccak256\n  0x00\n    /* \"@openzeppelin/contracts/access/AccessControl.sol\":7595:7631  _roles[role].members[account] = true */\n  0x0100\n  exp\n  dup2\n  sload\n  dup2\n  0xff\n  mul\n  not\n  and\n  swap1\n  dup4\n  iszero\n  iszero\n  mul\n  or\n  swap1\n  sstore\n  pop\n    /* \"@openzeppelin/contracts/access/AccessControl.sol\":7677:7689  _msgSender() */\n  tag_14\n    /* \"@openzeppelin/contracts/access/AccessControl.sol\":7677:7687  _msgSender */\n  shl(0x20, tag_15)\n    /* \"@openzeppelin/contracts/access/AccessControl.sol\":7677:7689  _msgSender() */\n  0x20\n  shr\n  jump\t// in\ntag_14:\n    /* \"@openzeppelin/contracts/access/AccessControl.sol\":7650:7690  RoleGranted(role, account, _msgSender()) */\n  0xffffffffffffffffffffffffffffffffffffffff\n  and\n    /* \"@openzeppelin/contracts/access/AccessControl.sol\":7668:7675  account */\n  dup2\n    /* \"@openzeppelin/contracts/access/AccessControl.sol\":7650:7690  RoleGranted(role, account, _msgSender()) */\n  0xffffffffffffffffffffffffffffffffffffffff\n  and\n    /* \"@openzeppelin/contracts/access/AccessControl.sol\":7662:7666  role */\n  dup4\n    /* \"@openzeppelin/contracts/access/AccessControl.sol\":7650:7690  RoleGranted(role, account, _msgSender()) */\n  0x2f8788117e7eff1d82e926ec794901d17c78024a50270940304540a733656f0d\n  mload(0x40)\n  mload(0x40)\n  dup1\n  swap2\n  sub\n  swap1\n  log4\n    /* \"@openzeppelin/contracts/access/AccessControl.sol\":7552:7701  if (!hasRole(role, account)) {... */\ntag_13:\n    /* \"@openzeppelin/contracts/access/AccessControl.sol\":7474:7707  function _grantRole(bytes32 role, address account) internal virtual {... */\n  pop\n  pop\n  jump\t// out\n    /* \"@openzeppelin/contracts/access/AccessControl.sol\":2895:3040  function hasRole(bytes32 role, address account) public view virtual override returns (bool) {... */\ntag_12:\n    /* \"@openzeppelin/contracts/access/AccessControl.sol\":2981:2985  bool */\n  0x00\n    /* \"@openzeppelin/contracts/access/AccessControl.sol\":3004:3010  _roles */\n  0x01\n    /* \"@openzeppelin/contracts/access/AccessControl.sol\":3004:3016  _roles[role] */\n  0x00\n    /* \"@openzeppelin/contracts/access/AccessControl.sol\":3011:3015  role */\n  dup5\n    /* \"@openzeppelin/contracts/access/AccessControl.sol\":3004:3016  _roles[role] */\n  dup2\n  mstore\n  0x20\n  add\n  swap1\n  dup2\n  mstore\n  0x20\n  add\n  0x00\n  keccak256\n    /* \"@openzeppelin/contracts/access/AccessControl.sol\":3004:3024  _roles[role].members */\n  0x00\n  add\n    /* \"@openzeppelin/contracts/access/AccessControl.sol\":3004:3033  _roles[role].members[account] */\n  0x00\n    /* \"@openzeppelin/contracts/access/AccessControl.sol\":3025:3032  account */\n  dup4\n    /* \"@openzeppelin/contracts/access/AccessControl.sol\":3004:3033  _roles[role].members[account] */\n  0xffffffffffffffffffffffffffffffffffffffff\n  and\n  0xffffffffffffffffffffffffffffffffffffffff\n  and\n  dup2\n  mstore\n  0x20\n  add\n  swap1\n  dup2\n  mstore\n  0x20\n  add\n  0x00\n  keccak256\n  0x00\n  swap1\n  sload\n  swap1\n  0x0100\n  exp\n  swap1\n  div\n  0xff\n  and\n    /* \"@openzeppelin/contracts/access/AccessControl.sol\":2997:3033  return _roles[role].members[account] */\n  swap1\n  pop\n    /* \"@openzeppelin/contracts/access/AccessControl.sol\":2895:3040  function hasRole(bytes32 role, address account) public view virtual override returns (bool) {... */\n  swap3\n  swap2\n  pop\n  pop\n  jump\t// out\n    /* \"@openzeppelin/contracts/utils/Context.sol\":640:736  function _msgSender() internal view virtual returns (address) {... */\ntag_15:\n    /* \"@openzeppelin/contracts/utils/Context.sol\":693:700  address */\n  0x00\n    /* \"@openzeppelin/contracts/utils/Context.sol\":719:729  msg.sender */\n  caller\n    /* \"@openzeppelin/contracts/utils/Context.sol\":712:729  return msg.sender */\n  swap1\n  pop\n    /* \"@openzeppelin/contracts/utils/Context.sol\":640:736  function _msgSender() internal view virtual returns (address) {... */\n  swap1\n  jump\t// out\n    /* \"Clase Contrato Airdrop/Airdrop.sol\":854:2713  contract Airdrop is Pausable, AccessControl {... */\ntag_9:\n  dataSize(sub_0)\n  dup1\n  dataOffset(sub_0)\n  0x00\n  codecopy\n  0x00\n  return\nstop\n\nsub_0: assembly {\n        /* \"Clase Contrato Airdrop/Airdrop.sol\":854:2713  contract Airdrop is Pausable, AccessControl {... */\n      mstore(0x40, 0x80)\n      callvalue\n      dup1\n      iszero\n      tag_1\n      jumpi\n      0x00\n      dup1\n      revert\n    tag_1:\n      pop\n      jumpi(tag_2, lt(calldatasize, 0x04))\n      shr(0xe0, calldataload(0x00))\n      dup1\n      0x8456cb59\n      gt\n      tag_18\n      jumpi\n      dup1\n      0xa217fddf\n      gt\n      tag_19\n      jumpi\n      dup1\n      0xa217fddf\n      eq\n      tag_14\n      jumpi\n      dup1\n      0xd547741f\n      eq\n      tag_15\n      jumpi\n      dup1\n      0xe63ab1e9\n      eq\n      tag_16\n      jumpi\n      dup1\n      0xeef8d491\n      eq\n      tag_17\n      jumpi\n      jump(tag_2)\n    tag_19:\n      dup1\n      0x8456cb59\n      eq\n      tag_10\n      jumpi\n      dup1\n      0x865933ee\n      eq\n      tag_11\n      jumpi\n      dup1\n      0x8f09f154\n      eq\n      tag_12\n      jumpi\n      dup1\n      0x91d14854\n      eq\n      tag_13\n      jumpi\n      jump(tag_2)\n    tag_18:\n      dup1\n      0x2f2ff15d\n      gt\n      tag_20\n      jumpi\n      dup1\n      0x2f2ff15d\n      eq\n      tag_6\n      jumpi\n      dup1\n      0x36568abe\n      eq\n      tag_7\n      jumpi\n      dup1\n      0x3f4ba83a\n      eq\n      tag_8\n      jumpi\n      dup1\n      0x5c975abb\n      eq\n      tag_9\n      jumpi\n      jump(tag_2)\n    tag_20:\n      dup1\n      0x01ffc9a7\n      eq\n      tag_3\n      jumpi\n      dup1\n      0x1ca3b020\n      eq\n      tag_4\n      jumpi\n      dup1\n      0x248a9ca3\n      eq\n      tag_5\n      jumpi\n    tag_2:\n      0x00\n      dup1\n      revert\n        /* \"@openzeppelin/contracts/access/AccessControl.sol\":2606:2808  function supportsInterface(bytes4 interfaceId) public view virtual override returns (bool) {... */\n    tag_3:\n      tag_21\n      0x04\n      dup1\n      calldatasize\n      sub\n      dup2\n      add\n      swap1\n      tag_22\n      swap2\n      swap1\n      tag_23\n      jump\t// in\n    tag_22:\n      tag_24\n      jump\t// in\n    tag_21:\n      mload(0x40)\n      tag_25\n      swap2\n      swap1\n      tag_26\n      jump\t// in\n    tag_25:\n      mload(0x40)\n      dup1\n      swap2\n      sub\n      swap1\n      return\n        /* \"Clase Contrato Airdrop/Airdrop.sol\":1250:1385  function setListaBlanca(address _account, bool _incluir) public onlyRole(LISTA_BLANCA){... */\n    tag_4:\n      tag_27\n      0x04\n      dup1\n      calldatasize\n      sub\n      dup2\n      add\n      swap1\n      tag_28\n      swap2\n      swap1\n      tag_29\n      jump\t// in\n    tag_28:\n      tag_30\n      jump\t// in\n    tag_27:\n      stop\n        /* \"@openzeppelin/contracts/access/AccessControl.sol\":4391:4520  function getRoleAdmin(bytes32 role) public view virtual override returns (bytes32) {... */\n    tag_5:\n      tag_31\n      0x04\n      dup1\n      calldatasize\n      sub\n      dup2\n      add\n      swap1\n      tag_32\n      swap2\n      swap1\n      tag_33\n      jump\t// in\n    tag_32:\n      tag_34\n      jump\t// in\n    tag_31:\n      mload(0x40)\n      tag_35\n      swap2\n      swap1\n      tag_36\n      jump\t// in\n    tag_35:\n      mload(0x40)\n      dup1\n      swap2\n      sub\n      swap1\n      return\n        /* \"@openzeppelin/contracts/access/AccessControl.sol\":4816:4961  function grantRole(bytes32 role, address account) public virtual override onlyRole(getRoleAdmin(role)) {... */\n    tag_6:\n      tag_37\n      0x04\n      dup1\n      calldatasize\n      sub\n      dup2\n      add\n      swap1\n      tag_38\n      swap2\n      swap1\n      tag_39\n      jump\t// in\n    tag_38:\n      tag_40\n      jump\t// in\n    tag_37:\n      stop\n        /* \"@openzeppelin/contracts/access/AccessControl.sol\":5925:6139  function renounceRole(bytes32 role, address account) public virtual override {... */\n    tag_7:\n      tag_41\n      0x04\n      dup1\n      calldatasize\n      sub\n      dup2\n      add\n      swap1\n      tag_42\n      swap2\n      swap1\n      tag_39\n      jump\t// in\n    tag_42:\n      tag_43\n      jump\t// in\n    tag_41:\n      stop\n        /* \"Clase Contrato Airdrop/Airdrop.sol\":2451:2528  function unpause() public onlyRole(PAUSER_ROLE) {... */\n    tag_8:\n      tag_44\n      tag_45\n      jump\t// in\n    tag_44:\n      stop\n        /* \"@openzeppelin/contracts/security/Pausable.sol\":1615:1699  function paused() public view virtual returns (bool) {... */\n    tag_9:\n      tag_46\n      tag_47\n      jump\t// in\n    tag_46:\n      mload(0x40)\n      tag_48\n      swap2\n      swap1\n      tag_26\n      jump\t// in\n    tag_48:\n      mload(0x40)\n      dup1\n      swap2\n      sub\n      swap1\n      return\n        /* \"Clase Contrato Airdrop/Airdrop.sol\":2370:2443  function pause() public onlyRole(PAUSER_ROLE) {... */\n    tag_10:\n      tag_49\n      tag_50\n      jump\t// in\n    tag_49:\n      stop\n        /* \"Clase Contrato Airdrop/Airdrop.sol\":974:1038  bytes32 public constant LISTA_BLANCA = keccak256(\"LISTA_BLANCA\") */\n    tag_11:\n      tag_51\n      tag_52\n      jump\t// in\n    tag_51:\n      mload(0x40)\n      tag_53\n      swap2\n      swap1\n      tag_36\n      jump\t// in\n    tag_53:\n      mload(0x40)\n      dup1\n      swap2\n      sub\n      swap1\n      return\n        /* \"Clase Contrato Airdrop/Airdrop.sol\":1393:2050  function participarAirdrop(bool quemar) public{... */\n    tag_12:\n      tag_54\n      0x04\n      dup1\n      calldatasize\n      sub\n      dup2\n      add\n      swap1\n      tag_55\n      swap2\n      swap1\n      tag_56\n      jump\t// in\n    tag_55:\n      tag_57\n      jump\t// in\n    tag_54:\n      stop\n        /* \"@openzeppelin/contracts/access/AccessControl.sol\":2895:3040  function hasRole(bytes32 role, address account) public view virtual override returns (bool) {... */\n    tag_13:\n      tag_58\n      0x04\n      dup1\n      calldatasize\n      sub\n      dup2\n      add\n      swap1\n      tag_59\n      swap2\n      swap1\n      tag_39\n      jump\t// in\n    tag_59:\n      tag_60\n      jump\t// in\n    tag_58:\n      mload(0x40)\n      tag_61\n      swap2\n      swap1\n      tag_26\n      jump\t// in\n    tag_61:\n      mload(0x40)\n      dup1\n      swap2\n      sub\n      swap1\n      return\n        /* \"@openzeppelin/contracts/access/AccessControl.sol\":2027:2076  bytes32 public constant DEFAULT_ADMIN_ROLE = 0x00 */\n    tag_14:\n      tag_62\n      tag_63\n      jump\t// in\n    tag_62:\n      mload(0x40)\n      tag_64\n      swap2\n      swap1\n      tag_36\n      jump\t// in\n    tag_64:\n      mload(0x40)\n      dup1\n      swap2\n      sub\n      swap1\n      return\n        /* \"@openzeppelin/contracts/access/AccessControl.sol\":5241:5388  function revokeRole(bytes32 role, address account) public virtual override onlyRole(getRoleAdmin(role)) {... */\n    tag_15:\n      tag_65\n      0x04\n      dup1\n      calldatasize\n      sub\n      dup2\n      add\n      swap1\n      tag_66\n      swap2\n      swap1\n      tag_39\n      jump\t// in\n    tag_66:\n      tag_67\n      jump\t// in\n    tag_65:\n      stop\n        /* \"Clase Contrato Airdrop/Airdrop.sol\":905:967  bytes32 public constant PAUSER_ROLE = keccak256(\"PAUSER_ROLE\") */\n    tag_16:\n      tag_68\n      tag_69\n      jump\t// in\n    tag_68:\n      mload(0x40)\n      tag_70\n      swap2\n      swap1\n      tag_36\n      jump\t// in\n    tag_70:\n      mload(0x40)\n      dup1\n      swap2\n      sub\n      swap1\n      return\n        /* \"Clase Contrato Airdrop/Airdrop.sol\":2058:2233  function quieroparticiparotravez() public{... */\n    tag_17:\n      tag_71\n      tag_72\n      jump\t// in\n    tag_71:\n      stop\n        /* \"@openzeppelin/contracts/access/AccessControl.sol\":2606:2808  function supportsInterface(bytes4 interfaceId) public view virtual override returns (bool) {... */\n    tag_24:\n        /* \"@openzeppelin/contracts/access/AccessControl.sol\":2691:2695  bool */\n      0x00\n        /* \"@openzeppelin/contracts/access/AccessControl.sol\":2729:2761  type(IAccessControl).interfaceId */\n      0x7965db0b00000000000000000000000000000000000000000000000000000000\n        /* \"@openzeppelin/contracts/access/AccessControl.sol\":2714:2761  interfaceId == type(IAccessControl).interfaceId */\n      not(0xffffffffffffffffffffffffffffffffffffffffffffffffffffffff)\n      and\n        /* \"@openzeppelin/contracts/access/AccessControl.sol\":2714:2725  interfaceId */\n      dup3\n        /* \"@openzeppelin/contracts/access/AccessControl.sol\":2714:2761  interfaceId == type(IAccessControl).interfaceId */\n      not(0xffffffffffffffffffffffffffffffffffffffffffffffffffffffff)\n      and\n      eq\n        /* \"@openzeppelin/contracts/access/AccessControl.sol\":2714:2801  interfaceId == type(IAccessControl).interfaceId || super.supportsInterface(interfaceId) */\n      dup1\n      tag_74\n      jumpi\n      pop\n        /* \"@openzeppelin/contracts/access/AccessControl.sol\":2765:2801  super.supportsInterface(interfaceId) */\n      tag_75\n        /* \"@openzeppelin/contracts/access/AccessControl.sol\":2789:2800  interfaceId */\n      dup3\n        /* \"@openzeppelin/contracts/access/AccessControl.sol\":2765:2788  super.supportsInterface */\n      tag_76\n        /* \"@openzeppelin/contracts/access/AccessControl.sol\":2765:2801  super.supportsInterface(interfaceId) */\n      jump\t// in\n    tag_75:\n        /* \"@openzeppelin/contracts/access/AccessControl.sol\":2714:2801  interfaceId == type(IAccessControl).interfaceId || super.supportsInterface(interfaceId) */\n    tag_74:\n        /* \"@openzeppelin/contracts/access/AccessControl.sol\":2707:2801  return interfaceId == type(IAccessControl).interfaceId || super.supportsInterface(interfaceId) */\n      swap1\n      pop\n        /* \"@openzeppelin/contracts/access/AccessControl.sol\":2606:2808  function supportsInterface(bytes4 interfaceId) public view virtual override returns (bool) {... */\n      swap2\n      swap1\n      pop\n      jump\t// out\n        /* \"Clase Contrato Airdrop/Airdrop.sol\":1250:1385  function setListaBlanca(address _account, bool _incluir) public onlyRole(LISTA_BLANCA){... */\n    tag_30:\n        /* \"Clase Contrato Airdrop/Airdrop.sol\":1013:1038  keccak256(\"LISTA_BLANCA\") */\n      0x22cb74f64761c93ce6756ae9e9c4dc3f25b4b70302a7bc77f586c0ed93a66385\n        /* \"@openzeppelin/contracts/access/AccessControl.sol\":2505:2521  _checkRole(role) */\n      tag_78\n        /* \"@openzeppelin/contracts/access/AccessControl.sol\":2516:2520  role */\n      dup2\n        /* \"@openzeppelin/contracts/access/AccessControl.sol\":2505:2515  _checkRole */\n      tag_79\n        /* \"@openzeppelin/contracts/access/AccessControl.sol\":2505:2521  _checkRole(role) */\n      jump\t// in\n    tag_78:\n        /* \"Clase Contrato Airdrop/Airdrop.sol\":1369:1377  _incluir */\n      dup2\n        /* \"Clase Contrato Airdrop/Airdrop.sol\":1347:1358  ListaBlanca */\n      0x02\n        /* \"Clase Contrato Airdrop/Airdrop.sol\":1347:1368  ListaBlanca[_account] */\n      0x00\n        /* \"Clase Contrato Airdrop/Airdrop.sol\":1359:1367  _account */\n      dup6\n        /* \"Clase Contrato Airdrop/Airdrop.sol\":1347:1368  ListaBlanca[_account] */\n      0xffffffffffffffffffffffffffffffffffffffff\n      and\n      0xffffffffffffffffffffffffffffffffffffffff\n      and\n      dup2\n      mstore\n      0x20\n      add\n      swap1\n      dup2\n      mstore\n      0x20\n      add\n      0x00\n      keccak256\n      0x00\n        /* \"Clase Contrato Airdrop/Airdrop.sol\":1347:1377  ListaBlanca[_account]=_incluir */\n      0x0100\n      exp\n      dup2\n      sload\n      dup2\n      0xff\n      mul\n      not\n      and\n      swap1\n      dup4\n      iszero\n      iszero\n      mul\n      or\n      swap1\n      sstore\n      pop\n        /* \"Clase Contrato Airdrop/Airdrop.sol\":1250:1385  function setListaBlanca(address _account, bool _incluir) public onlyRole(LISTA_BLANCA){... */\n      pop\n      pop\n      pop\n      jump\t// out\n        /* \"@openzeppelin/contracts/access/AccessControl.sol\":4391:4520  function getRoleAdmin(bytes32 role) public view virtual override returns (bytes32) {... */\n    tag_34:\n        /* \"@openzeppelin/contracts/access/AccessControl.sol\":4465:4472  bytes32 */\n      0x00\n        /* \"@openzeppelin/contracts/access/AccessControl.sol\":4491:4497  _roles */\n      0x01\n        /* \"@openzeppelin/contracts/access/AccessControl.sol\":4491:4503  _roles[role] */\n      0x00\n        /* \"@openzeppelin/contracts/access/AccessControl.sol\":4498:4502  role */\n      dup4\n        /* \"@openzeppelin/contracts/access/AccessControl.sol\":4491:4503  _roles[role] */\n      dup2\n      mstore\n      0x20\n      add\n      swap1\n      dup2\n      mstore\n      0x20\n      add\n      0x00\n      keccak256\n        /* \"@openzeppelin/contracts/access/AccessControl.sol\":4491:4513  _roles[role].adminRole */\n      0x01\n      add\n      sload\n        /* \"@openzeppelin/contracts/access/AccessControl.sol\":4484:4513  return _roles[role].adminRole */\n      swap1\n      pop\n        /* \"@openzeppelin/contracts/access/AccessControl.sol\":4391:4520  function getRoleAdmin(bytes32 role) public view virtual override returns (bytes32) {... */\n      swap2\n      swap1\n      pop\n      jump\t// out\n        /* \"@openzeppelin/contracts/access/AccessControl.sol\":4816:4961  function grantRole(bytes32 role, address account) public virtual override onlyRole(getRoleAdmin(role)) {... */\n    tag_40:\n        /* \"@openzeppelin/contracts/access/AccessControl.sol\":4899:4917  getRoleAdmin(role) */\n      tag_82\n        /* \"@openzeppelin/contracts/access/AccessControl.sol\":4912:4916  role */\n      dup3\n        /* \"@openzeppelin/contracts/access/AccessControl.sol\":4899:4911  getRoleAdmin */\n      tag_34\n        /* \"@openzeppelin/contracts/access/AccessControl.sol\":4899:4917  getRoleAdmin(role) */\n      jump\t// in\n    tag_82:\n        /* \"@openzeppelin/contracts/access/AccessControl.sol\":2505:2521  _checkRole(role) */\n      tag_84\n        /* \"@openzeppelin/contracts/access/AccessControl.sol\":2516:2520  role */\n      dup2\n        /* \"@openzeppelin/contracts/access/AccessControl.sol\":2505:2515  _checkRole */\n      tag_79\n        /* \"@openzeppelin/contracts/access/AccessControl.sol\":2505:2521  _checkRole(role) */\n      jump\t// in\n    tag_84:\n        /* \"@openzeppelin/contracts/access/AccessControl.sol\":4929:4954  _grantRole(role, account) */\n      tag_86\n        /* \"@openzeppelin/contracts/access/AccessControl.sol\":4940:4944  role */\n      dup4\n        /* \"@openzeppelin/contracts/access/AccessControl.sol\":4946:4953  account */\n      dup4\n        /* \"@openzeppelin/contracts/access/AccessControl.sol\":4929:4939  _grantRole */\n      tag_87\n        /* \"@openzeppelin/contracts/access/AccessControl.sol\":4929:4954  _grantRole(role, account) */\n      jump\t// in\n    tag_86:\n        /* \"@openzeppelin/contracts/access/AccessControl.sol\":4816:4961  function grantRole(bytes32 role, address account) public virtual override onlyRole(getRoleAdmin(role)) {... */\n      pop\n      pop\n      pop\n      jump\t// out\n        /* \"@openzeppelin/contracts/access/AccessControl.sol\":5925:6139  function renounceRole(bytes32 role, address account) public virtual override {... */\n    tag_43:\n        /* \"@openzeppelin/contracts/access/AccessControl.sol\":6031:6043  _msgSender() */\n      tag_89\n        /* \"@openzeppelin/contracts/access/AccessControl.sol\":6031:6041  _msgSender */\n      tag_90\n        /* \"@openzeppelin/contracts/access/AccessControl.sol\":6031:6043  _msgSender() */\n      jump\t// in\n    tag_89:\n        /* \"@openzeppelin/contracts/access/AccessControl.sol\":6020:6043  account == _msgSender() */\n      0xffffffffffffffffffffffffffffffffffffffff\n      and\n        /* \"@openzeppelin/contracts/access/AccessControl.sol\":6020:6027  account */\n      dup2\n        /* \"@openzeppelin/contracts/access/AccessControl.sol\":6020:6043  account == _msgSender() */\n      0xffffffffffffffffffffffffffffffffffffffff\n      and\n      eq\n        /* \"@openzeppelin/contracts/access/AccessControl.sol\":6012:6095  require(account == _msgSender(), \"AccessControl: can only renounce roles for self\") */\n      tag_91\n      jumpi\n      mload(0x40)\n      0x08c379a000000000000000000000000000000000000000000000000000000000\n      dup2\n      mstore\n      0x04\n      add\n      tag_92\n      swap1\n      tag_93\n      jump\t// in\n    tag_92:\n      mload(0x40)\n      dup1\n      swap2\n      sub\n      swap1\n      revert\n    tag_91:\n        /* \"@openzeppelin/contracts/access/AccessControl.sol\":6106:6132  _revokeRole(role, account) */\n      tag_94\n        /* \"@openzeppelin/contracts/access/AccessControl.sol\":6118:6122  role */\n      dup3\n        /* \"@openzeppelin/contracts/access/AccessControl.sol\":6124:6131  account */\n      dup3\n        /* \"@openzeppelin/contracts/access/AccessControl.sol\":6106:6117  _revokeRole */\n      tag_95\n        /* \"@openzeppelin/contracts/access/AccessControl.sol\":6106:6132  _revokeRole(role, account) */\n      jump\t// in\n    tag_94:\n        /* \"@openzeppelin/contracts/access/AccessControl.sol\":5925:6139  function renounceRole(bytes32 role, address account) public virtual override {... */\n      pop\n      pop\n      jump\t// out\n        /* \"Clase Contrato Airdrop/Airdrop.sol\":2451:2528  function unpause() public onlyRole(PAUSER_ROLE) {... */\n    tag_45:\n        /* \"Clase Contrato Airdrop/Airdrop.sol\":943:967  keccak256(\"PAUSER_ROLE\") */\n      0x65d7a28e3265b37a6474929f336521b332c1681b933f6cb9f3376673440d862a\n        /* \"@openzeppelin/contracts/access/AccessControl.sol\":2505:2521  _checkRole(role) */\n      tag_97\n        /* \"@openzeppelin/contracts/access/AccessControl.sol\":2516:2520  role */\n      dup2\n        /* \"@openzeppelin/contracts/access/AccessControl.sol\":2505:2515  _checkRole */\n      tag_79\n        /* \"@openzeppelin/contracts/access/AccessControl.sol\":2505:2521  _checkRole(role) */\n      jump\t// in\n    tag_97:\n        /* \"Clase Contrato Airdrop/Airdrop.sol\":2510:2520  _unpause() */\n      tag_99\n        /* \"Clase Contrato Airdrop/Airdrop.sol\":2510:2518  _unpause */\n      tag_100\n        /* \"Clase Contrato Airdrop/Airdrop.sol\":2510:2520  _unpause() */\n      jump\t// in\n    tag_99:\n        /* \"Clase Contrato Airdrop/Airdrop.sol\":2451:2528  function unpause() public onlyRole(PAUSER_ROLE) {... */\n      pop\n      jump\t// out\n        /* \"@openzeppelin/contracts/security/Pausable.sol\":1615:1699  function paused() public view virtual returns (bool) {... */\n    tag_47:\n        /* \"@openzeppelin/contracts/security/Pausable.sol\":1662:1666  bool */\n      0x00\n        /* \"@openzeppelin/contracts/security/Pausable.sol\":1685:1692  _paused */\n      dup1\n      0x00\n      swap1\n      sload\n      swap1\n      0x0100\n      exp\n      swap1\n      div\n      0xff\n      and\n        /* \"@openzeppelin/contracts/security/Pausable.sol\":1678:1692  return _paused */\n      swap1\n      pop\n        /* \"@openzeppelin/contracts/security/Pausable.sol\":1615:1699  function paused() public view virtual returns (bool) {... */\n      swap1\n      jump\t// out\n        /* \"Clase Contrato Airdrop/Airdrop.sol\":2370:2443  function pause() public onlyRole(PAUSER_ROLE) {... */\n    tag_50:\n        /* \"Clase Contrato Airdrop/Airdrop.sol\":943:967  keccak256(\"PAUSER_ROLE\") */\n      0x65d7a28e3265b37a6474929f336521b332c1681b933f6cb9f3376673440d862a\n        /* \"@openzeppelin/contracts/access/AccessControl.sol\":2505:2521  _checkRole(role) */\n      tag_103\n        /* \"@openzeppelin/contracts/access/AccessControl.sol\":2516:2520  role */\n      dup2\n        /* \"@openzeppelin/contracts/access/AccessControl.sol\":2505:2515  _checkRole */\n      tag_79\n        /* \"@openzeppelin/contracts/access/AccessControl.sol\":2505:2521  _checkRole(role) */\n      jump\t// in\n    tag_103:\n        /* \"Clase Contrato Airdrop/Airdrop.sol\":2427:2435  _pause() */\n      tag_105\n        /* \"Clase Contrato Airdrop/Airdrop.sol\":2427:2433  _pause */\n      tag_106\n        /* \"Clase Contrato Airdrop/Airdrop.sol\":2427:2435  _pause() */\n      jump\t// in\n    tag_105:\n        /* \"Clase Contrato Airdrop/Airdrop.sol\":2370:2443  function pause() public onlyRole(PAUSER_ROLE) {... */\n      pop\n      jump\t// out\n        /* \"Clase Contrato Airdrop/Airdrop.sol\":974:1038  bytes32 public constant LISTA_BLANCA = keccak256(\"LISTA_BLANCA\") */\n    tag_52:\n        /* \"Clase Contrato Airdrop/Airdrop.sol\":1013:1038  keccak256(\"LISTA_BLANCA\") */\n      0x22cb74f64761c93ce6756ae9e9c4dc3f25b4b70302a7bc77f586c0ed93a66385\n        /* \"Clase Contrato Airdrop/Airdrop.sol\":974:1038  bytes32 public constant LISTA_BLANCA = keccak256(\"LISTA_BLANCA\") */\n      dup2\n      jump\t// out\n        /* \"Clase Contrato Airdrop/Airdrop.sol\":1393:2050  function participarAirdrop(bool quemar) public{... */\n    tag_57:\n        /* \"Clase Contrato Airdrop/Airdrop.sol\":1483:1487  true */\n      0x01\n        /* \"Clase Contrato Airdrop/Airdrop.sol\":1458:1487  ListaBlanca[msg.sender]==true */\n      iszero\n      iszero\n        /* \"Clase Contrato Airdrop/Airdrop.sol\":1458:1469  ListaBlanca */\n      0x02\n        /* \"Clase Contrato Airdrop/Airdrop.sol\":1458:1481  ListaBlanca[msg.sender] */\n      0x00\n        /* \"Clase Contrato Airdrop/Airdrop.sol\":1470:1480  msg.sender */\n      caller\n        /* \"Clase Contrato Airdrop/Airdrop.sol\":1458:1481  ListaBlanca[msg.sender] */\n      0xffffffffffffffffffffffffffffffffffffffff\n      and\n      0xffffffffffffffffffffffffffffffffffffffff\n      and\n      dup2\n      mstore\n      0x20\n      add\n      swap1\n      dup2\n      mstore\n      0x20\n      add\n      0x00\n      keccak256\n      0x00\n      swap1\n      sload\n      swap1\n      0x0100\n      exp\n      swap1\n      div\n      0xff\n      and\n        /* \"Clase Contrato Airdrop/Airdrop.sol\":1458:1487  ListaBlanca[msg.sender]==true */\n      iszero\n      iszero\n      eq\n        /* \"Clase Contrato Airdrop/Airdrop.sol\":1450:1518  require(ListaBlanca[msg.sender]==true,\"No pertenece a Lista Blanca\") */\n      tag_108\n      jumpi\n      mload(0x40)\n      0x08c379a000000000000000000000000000000000000000000000000000000000\n      dup2\n      mstore\n      0x04\n      add\n      tag_109\n      swap1\n      tag_110\n      jump\t// in\n    tag_109:\n      mload(0x40)\n      dup1\n      swap2\n      sub\n      swap1\n      revert\n    tag_108:\n        /* \"Clase Contrato Airdrop/Airdrop.sol\":1529:1550  uint256 tokensganados */\n      0x00\n        /* \"Clase Contrato Airdrop/Airdrop.sol\":1553:1570  _getRadomNumber() */\n      tag_111\n        /* \"Clase Contrato Airdrop/Airdrop.sol\":1553:1568  _getRadomNumber */\n      tag_112\n        /* \"Clase Contrato Airdrop/Airdrop.sol\":1553:1570  _getRadomNumber() */\n      jump\t// in\n    tag_111:\n        /* \"Clase Contrato Airdrop/Airdrop.sol\":1529:1570  uint256 tokensganados = _getRadomNumber() */\n      swap1\n      pop\n        /* \"Clase Contrato Airdrop/Airdrop.sol\":1590:1598  Recibido */\n      0x03\n        /* \"Clase Contrato Airdrop/Airdrop.sol\":1590:1610  Recibido[msg.sender] */\n      0x00\n        /* \"Clase Contrato Airdrop/Airdrop.sol\":1599:1609  msg.sender */\n      caller\n        /* \"Clase Contrato Airdrop/Airdrop.sol\":1590:1610  Recibido[msg.sender] */\n      0xffffffffffffffffffffffffffffffffffffffff\n      and\n      0xffffffffffffffffffffffffffffffffffffffff\n      and\n      dup2\n      mstore\n      0x20\n      add\n      swap1\n      dup2\n      mstore\n      0x20\n      add\n      0x00\n      keccak256\n      0x00\n      swap1\n      sload\n      swap1\n      0x0100\n      exp\n      swap1\n      div\n      0xff\n      and\n        /* \"Clase Contrato Airdrop/Airdrop.sol\":1589:1610  !Recibido[msg.sender] */\n      iszero\n        /* \"Clase Contrato Airdrop/Airdrop.sol\":1581:1624  require(!Recibido[msg.sender],\"Ya recibio\") */\n      tag_113\n      jumpi\n      mload(0x40)\n      0x08c379a000000000000000000000000000000000000000000000000000000000\n      dup2\n      mstore\n      0x04\n      add\n      tag_114\n      swap1\n      tag_115\n      jump\t// in\n    tag_114:\n      mload(0x40)\n      dup1\n      swap2\n      sub\n      swap1\n      revert\n    tag_113:\n        /* \"Clase Contrato Airdrop/Airdrop.sol\":1669:1689  CantidadTokensMaximo */\n      sload(0x05)\n        /* \"Clase Contrato Airdrop/Airdrop.sol\":1643:1667  CantidadTokensRepartidos */\n      sload(0x06)\n        /* \"Clase Contrato Airdrop/Airdrop.sol\":1643:1689  CantidadTokensRepartidos<=CantidadTokensMaximo */\n      gt\n      iszero\n        /* \"Clase Contrato Airdrop/Airdrop.sol\":1635:1724  require(CantidadTokensRepartidos<=CantidadTokensMaximo,\"Supero maximo tokens repartidos\") */\n      tag_116\n      jumpi\n      mload(0x40)\n      0x08c379a000000000000000000000000000000000000000000000000000000000\n      dup2\n      mstore\n      0x04\n      add\n      tag_117\n      swap1\n      tag_118\n      jump\t// in\n    tag_117:\n      mload(0x40)\n      dup1\n      swap2\n      sub\n      swap1\n      revert\n    tag_116:\n        /* \"Clase Contrato Airdrop/Airdrop.sol\":1742:1753  DirContrato */\n      0x04\n      0x00\n      swap1\n      sload\n      swap1\n      0x0100\n      exp\n      swap1\n      div\n      0xffffffffffffffffffffffffffffffffffffffff\n      and\n        /* \"Clase Contrato Airdrop/Airdrop.sol\":1735:1759  IToken(DirContrato).mint */\n      0xffffffffffffffffffffffffffffffffffffffff\n      and\n      0x40c10f19\n        /* \"Clase Contrato Airdrop/Airdrop.sol\":1760:1770  msg.sender */\n      caller\n        /* \"Clase Contrato Airdrop/Airdrop.sol\":1771:1784  tokensganados */\n      dup4\n        /* \"Clase Contrato Airdrop/Airdrop.sol\":1735:1785  IToken(DirContrato).mint(msg.sender,tokensganados) */\n      mload(0x40)\n      dup4\n      0xffffffff\n      and\n      0xe0\n      shl\n      dup2\n      mstore\n      0x04\n      add\n      tag_119\n      swap3\n      swap2\n      swap1\n      tag_120\n      jump\t// in\n    tag_119:\n      0x00\n      mload(0x40)\n      dup1\n      dup4\n      sub\n      dup2\n      0x00\n      dup8\n      dup1\n      extcodesize\n      iszero\n      dup1\n      iszero\n      tag_121\n      jumpi\n      0x00\n      dup1\n      revert\n    tag_121:\n      pop\n      gas\n      call\n      iszero\n      dup1\n      iszero\n      tag_123\n      jumpi\n      returndatasize\n      0x00\n      dup1\n      returndatacopy\n      revert(0x00, returndatasize)\n    tag_123:\n      pop\n      pop\n      pop\n      pop\n        /* \"Clase Contrato Airdrop/Airdrop.sol\":1817:1821  true */\n      0x01\n        /* \"Clase Contrato Airdrop/Airdrop.sol\":1796:1804  Recibido */\n      0x03\n        /* \"Clase Contrato Airdrop/Airdrop.sol\":1796:1816  Recibido[msg.sender] */\n      0x00\n        /* \"Clase Contrato Airdrop/Airdrop.sol\":1805:1815  msg.sender */\n      caller\n        /* \"Clase Contrato Airdrop/Airdrop.sol\":1796:1816  Recibido[msg.sender] */\n      0xffffffffffffffffffffffffffffffffffffffff\n      and\n      0xffffffffffffffffffffffffffffffffffffffff\n      and\n      dup2\n      mstore\n      0x20\n      add\n      swap1\n      dup2\n      mstore\n      0x20\n      add\n      0x00\n      keccak256\n      0x00\n        /* \"Clase Contrato Airdrop/Airdrop.sol\":1796:1821  Recibido[msg.sender]=true */\n      0x0100\n      exp\n      dup2\n      sload\n      dup2\n      0xff\n      mul\n      not\n      and\n      swap1\n      dup4\n      iszero\n      iszero\n      mul\n      or\n      swap1\n      sstore\n      pop\n        /* \"Clase Contrato Airdrop/Airdrop.sol\":1858:1871  tokensganados */\n      dup1\n        /* \"Clase Contrato Airdrop/Airdrop.sol\":1832:1856  CantidadTokensRepartidos */\n      0x06\n      0x00\n        /* \"Clase Contrato Airdrop/Airdrop.sol\":1832:1871  CantidadTokensRepartidos+=tokensganados */\n      dup3\n      dup3\n      sload\n      tag_124\n      swap2\n      swap1\n      tag_125\n      jump\t// in\n    tag_124:\n      swap3\n      pop\n      pop\n      dup2\n      swap1\n      sstore\n      pop\n        /* \"Clase Contrato Airdrop/Airdrop.sol\":1886:1892  quemar */\n      dup2\n        /* \"Clase Contrato Airdrop/Airdrop.sol\":1882:2043  if (quemar){... */\n      iszero\n      tag_126\n      jumpi\n        /* \"Clase Contrato Airdrop/Airdrop.sol\":1915:1926  DirContrato */\n      0x04\n      0x00\n      swap1\n      sload\n      swap1\n      0x0100\n      exp\n      swap1\n      div\n      0xffffffffffffffffffffffffffffffffffffffff\n      and\n        /* \"Clase Contrato Airdrop/Airdrop.sol\":1908:1932  IToken(DirContrato).burn */\n      0xffffffffffffffffffffffffffffffffffffffff\n      and\n      0x9dc29fac\n        /* \"Clase Contrato Airdrop/Airdrop.sol\":1933:1943  msg.sender */\n      caller\n        /* \"Clase Contrato Airdrop/Airdrop.sol\":1944:1946  10 */\n      0x0a\n        /* \"Clase Contrato Airdrop/Airdrop.sol\":1908:1947  IToken(DirContrato).burn(msg.sender,10) */\n      mload(0x40)\n      dup4\n      0xffffffff\n      and\n      0xe0\n      shl\n      dup2\n      mstore\n      0x04\n      add\n      tag_127\n      swap3\n      swap2\n      swap1\n      tag_128\n      jump\t// in\n    tag_127:\n      0x00\n      mload(0x40)\n      dup1\n      dup4\n      sub\n      dup2\n      0x00\n      dup8\n      dup1\n      extcodesize\n      iszero\n      dup1\n      iszero\n      tag_129\n      jumpi\n      0x00\n      dup1\n      revert\n    tag_129:\n      pop\n      gas\n      call\n      iszero\n      dup1\n      iszero\n      tag_131\n      jumpi\n      returndatasize\n      0x00\n      dup1\n      returndatacopy\n      revert(0x00, returndatasize)\n    tag_131:\n      pop\n      pop\n      pop\n      pop\n        /* \"Clase Contrato Airdrop/Airdrop.sol\":1988:1990  10 */\n      0x0a\n        /* \"Clase Contrato Airdrop/Airdrop.sol\":1962:1986  CantidadTokensRepartidos */\n      0x06\n      0x00\n        /* \"Clase Contrato Airdrop/Airdrop.sol\":1962:1990  CantidadTokensRepartidos-=10 */\n      dup3\n      dup3\n      sload\n      tag_132\n      swap2\n      swap1\n      tag_133\n      jump\t// in\n    tag_132:\n      swap3\n      pop\n      pop\n      dup2\n      swap1\n      sstore\n      pop\n        /* \"Clase Contrato Airdrop/Airdrop.sol\":2026:2031  false */\n      0x00\n        /* \"Clase Contrato Airdrop/Airdrop.sol\":2005:2013  Recibido */\n      0x03\n        /* \"Clase Contrato Airdrop/Airdrop.sol\":2005:2025  Recibido[msg.sender] */\n      0x00\n        /* \"Clase Contrato Airdrop/Airdrop.sol\":2014:2024  msg.sender */\n      caller\n        /* \"Clase Contrato Airdrop/Airdrop.sol\":2005:2025  Recibido[msg.sender] */\n      0xffffffffffffffffffffffffffffffffffffffff\n      and\n      0xffffffffffffffffffffffffffffffffffffffff\n      and\n      dup2\n      mstore\n      0x20\n      add\n      swap1\n      dup2\n      mstore\n      0x20\n      add\n      0x00\n      keccak256\n      0x00\n        /* \"Clase Contrato Airdrop/Airdrop.sol\":2005:2031  Recibido[msg.sender]=false */\n      0x0100\n      exp\n      dup2\n      sload\n      dup2\n      0xff\n      mul\n      not\n      and\n      swap1\n      dup4\n      iszero\n      iszero\n      mul\n      or\n      swap1\n      sstore\n      pop\n        /* \"Clase Contrato Airdrop/Airdrop.sol\":1882:2043  if (quemar){... */\n    tag_126:\n        /* \"Clase Contrato Airdrop/Airdrop.sol\":1439:2050  {... */\n      pop\n        /* \"Clase Contrato Airdrop/Airdrop.sol\":1393:2050  function participarAirdrop(bool quemar) public{... */\n      pop\n      jump\t// out\n        /* \"@openzeppelin/contracts/access/AccessControl.sol\":2895:3040  function hasRole(bytes32 role, address account) public view virtual override returns (bool) {... */\n    tag_60:\n        /* \"@openzeppelin/contracts/access/AccessControl.sol\":2981:2985  bool */\n      0x00\n        /* \"@openzeppelin/contracts/access/AccessControl.sol\":3004:3010  _roles */\n      0x01\n        /* \"@openzeppelin/contracts/access/AccessControl.sol\":3004:3016  _roles[role] */\n      0x00\n        /* \"@openzeppelin/contracts/access/AccessControl.sol\":3011:3015  role */\n      dup5\n        /* \"@openzeppelin/contracts/access/AccessControl.sol\":3004:3016  _roles[role] */\n      dup2\n      mstore\n      0x20\n      add\n      swap1\n      dup2\n      mstore\n      0x20\n      add\n      0x00\n      keccak256\n        /* \"@openzeppelin/contracts/access/AccessControl.sol\":3004:3024  _roles[role].members */\n      0x00\n      add\n        /* \"@openzeppelin/contracts/access/AccessControl.sol\":3004:3033  _roles[role].members[account] */\n      0x00\n        /* \"@openzeppelin/contracts/access/AccessControl.sol\":3025:3032  account */\n      dup4\n        /* \"@openzeppelin/contracts/access/AccessControl.sol\":3004:3033  _roles[role].members[account] */\n      0xffffffffffffffffffffffffffffffffffffffff\n      and\n      0xffffffffffffffffffffffffffffffffffffffff\n      and\n      dup2\n      mstore\n      0x20\n      add\n      swap1\n      dup2\n      mstore\n      0x20\n      add\n      0x00\n      keccak256\n      0x00\n      swap1\n      sload\n      swap1\n      0x0100\n      exp\n      swap1\n      div\n      0xff\n      and\n        /* \"@openzeppelin/contracts/access/AccessControl.sol\":2997:3033  return _roles[role].members[account] */\n      swap1\n      pop\n        /* \"@openzeppelin/contracts/access/AccessControl.sol\":2895:3040  function hasRole(bytes32 role, address account) public view virtual override returns (bool) {... */\n      swap3\n      swap2\n      pop\n      pop\n      jump\t// out\n        /* \"@openzeppelin/contracts/access/AccessControl.sol\":2027:2076  bytes32 public constant DEFAULT_ADMIN_ROLE = 0x00 */\n    tag_63:\n        /* \"@openzeppelin/contracts/access/AccessControl.sol\":2072:2076  0x00 */\n      0x00\n        /* \"@openzeppelin/contracts/access/AccessControl.sol\":2027:2076  bytes32 public constant DEFAULT_ADMIN_ROLE = 0x00 */\n      dup1\n      shl\n      dup2\n      jump\t// out\n        /* \"@openzeppelin/contracts/access/AccessControl.sol\":5241:5388  function revokeRole(bytes32 role, address account) public virtual override onlyRole(getRoleAdmin(role)) {... */\n    tag_67:\n        /* \"@openzeppelin/contracts/access/AccessControl.sol\":5325:5343  getRoleAdmin(role) */\n      tag_135\n        /* \"@openzeppelin/contracts/access/AccessControl.sol\":5338:5342  role */\n      dup3\n        /* \"@openzeppelin/contracts/access/AccessControl.sol\":5325:5337  getRoleAdmin */\n      tag_34\n        /* \"@openzeppelin/contracts/access/AccessControl.sol\":5325:5343  getRoleAdmin(role) */\n      jump\t// in\n    tag_135:\n        /* \"@openzeppelin/contracts/access/AccessControl.sol\":2505:2521  _checkRole(role) */\n      tag_137\n        /* \"@openzeppelin/contracts/access/AccessControl.sol\":2516:2520  role */\n      dup2\n        /* \"@openzeppelin/contracts/access/AccessControl.sol\":2505:2515  _checkRole */\n      tag_79\n        /* \"@openzeppelin/contracts/access/AccessControl.sol\":2505:2521  _checkRole(role) */\n      jump\t// in\n    tag_137:\n        /* \"@openzeppelin/contracts/access/AccessControl.sol\":5355:5381  _revokeRole(role, account) */\n      tag_139\n        /* \"@openzeppelin/contracts/access/AccessControl.sol\":5367:5371  role */\n      dup4\n        /* \"@openzeppelin/contracts/access/AccessControl.sol\":5373:5380  account */\n      dup4\n        /* \"@openzeppelin/contracts/access/AccessControl.sol\":5355:5366  _revokeRole */\n      tag_95\n        /* \"@openzeppelin/contracts/access/AccessControl.sol\":5355:5381  _revokeRole(role, account) */\n      jump\t// in\n    tag_139:\n        /* \"@openzeppelin/contracts/access/AccessControl.sol\":5241:5388  function revokeRole(bytes32 role, address account) public virtual override onlyRole(getRoleAdmin(role)) {... */\n      pop\n      pop\n      pop\n      jump\t// out\n        /* \"Clase Contrato Airdrop/Airdrop.sol\":905:967  bytes32 public constant PAUSER_ROLE = keccak256(\"PAUSER_ROLE\") */\n    tag_69:\n        /* \"Clase Contrato Airdrop/Airdrop.sol\":943:967  keccak256(\"PAUSER_ROLE\") */\n      0x65d7a28e3265b37a6474929f336521b332c1681b933f6cb9f3376673440d862a\n        /* \"Clase Contrato Airdrop/Airdrop.sol\":905:967  bytes32 public constant PAUSER_ROLE = keccak256(\"PAUSER_ROLE\") */\n      dup2\n      jump\t// out\n        /* \"Clase Contrato Airdrop/Airdrop.sol\":2058:2233  function quieroparticiparotravez() public{... */\n    tag_72:\n        /* \"Clase Contrato Airdrop/Airdrop.sol\":2117:2128  DirContrato */\n      0x04\n      0x00\n      swap1\n      sload\n      swap1\n      0x0100\n      exp\n      swap1\n      div\n      0xffffffffffffffffffffffffffffffffffffffff\n      and\n        /* \"Clase Contrato Airdrop/Airdrop.sol\":2110:2134  IToken(DirContrato).burn */\n      0xffffffffffffffffffffffffffffffffffffffff\n      and\n      0x9dc29fac\n        /* \"Clase Contrato Airdrop/Airdrop.sol\":2135:2145  msg.sender */\n      caller\n        /* \"Clase Contrato Airdrop/Airdrop.sol\":2146:2148  10 */\n      0x0a\n        /* \"Clase Contrato Airdrop/Airdrop.sol\":2110:2149  IToken(DirContrato).burn(msg.sender,10) */\n      mload(0x40)\n      dup4\n      0xffffffff\n      and\n      0xe0\n      shl\n      dup2\n      mstore\n      0x04\n      add\n      tag_141\n      swap3\n      swap2\n      swap1\n      tag_128\n      jump\t// in\n    tag_141:\n      0x00\n      mload(0x40)\n      dup1\n      dup4\n      sub\n      dup2\n      0x00\n      dup8\n      dup1\n      extcodesize\n      iszero\n      dup1\n      iszero\n      tag_142\n      jumpi\n      0x00\n      dup1\n      revert\n    tag_142:\n      pop\n      gas\n      call\n      iszero\n      dup1\n      iszero\n      tag_144\n      jumpi\n      returndatasize\n      0x00\n      dup1\n      returndatacopy\n      revert(0x00, returndatasize)\n    tag_144:\n      pop\n      pop\n      pop\n      pop\n        /* \"Clase Contrato Airdrop/Airdrop.sol\":2186:2188  10 */\n      0x0a\n        /* \"Clase Contrato Airdrop/Airdrop.sol\":2160:2184  CantidadTokensRepartidos */\n      0x06\n      0x00\n        /* \"Clase Contrato Airdrop/Airdrop.sol\":2160:2188  CantidadTokensRepartidos-=10 */\n      dup3\n      dup3\n      sload\n      tag_145\n      swap2\n      swap1\n      tag_133\n      jump\t// in\n    tag_145:\n      swap3\n      pop\n      pop\n      dup2\n      swap1\n      sstore\n      pop\n        /* \"Clase Contrato Airdrop/Airdrop.sol\":2220:2225  false */\n      0x00\n        /* \"Clase Contrato Airdrop/Airdrop.sol\":2199:2207  Recibido */\n      0x03\n        /* \"Clase Contrato Airdrop/Airdrop.sol\":2199:2219  Recibido[msg.sender] */\n      0x00\n        /* \"Clase Contrato Airdrop/Airdrop.sol\":2208:2218  msg.sender */\n      caller\n        /* \"Clase Contrato Airdrop/Airdrop.sol\":2199:2219  Recibido[msg.sender] */\n      0xffffffffffffffffffffffffffffffffffffffff\n      and\n      0xffffffffffffffffffffffffffffffffffffffff\n      and\n      dup2\n      mstore\n      0x20\n      add\n      swap1\n      dup2\n      mstore\n      0x20\n      add\n      0x00\n      keccak256\n      0x00\n        /* \"Clase Contrato Airdrop/Airdrop.sol\":2199:2225  Recibido[msg.sender]=false */\n      0x0100\n      exp\n      dup2\n      sload\n      dup2\n      0xff\n      mul\n      not\n      and\n      swap1\n      dup4\n      iszero\n      iszero\n      mul\n      or\n      swap1\n      sstore\n      pop\n        /* \"Clase Contrato Airdrop/Airdrop.sol\":2058:2233  function quieroparticiparotravez() public{... */\n      jump\t// out\n        /* \"@openzeppelin/contracts/utils/introspection/ERC165.sol\":829:984  function supportsInterface(bytes4 interfaceId) public view virtual override returns (bool) {... */\n    tag_76:\n        /* \"@openzeppelin/contracts/utils/introspection/ERC165.sol\":914:918  bool */\n      0x00\n        /* \"@openzeppelin/contracts/utils/introspection/ERC165.sol\":952:977  type(IERC165).interfaceId */\n      0x01ffc9a700000000000000000000000000000000000000000000000000000000\n        /* \"@openzeppelin/contracts/utils/introspection/ERC165.sol\":937:977  interfaceId == type(IERC165).interfaceId */\n      not(0xffffffffffffffffffffffffffffffffffffffffffffffffffffffff)\n      and\n        /* \"@openzeppelin/contracts/utils/introspection/ERC165.sol\":937:948  interfaceId */\n      dup3\n        /* \"@openzeppelin/contracts/utils/introspection/ERC165.sol\":937:977  interfaceId == type(IERC165).interfaceId */\n      not(0xffffffffffffffffffffffffffffffffffffffffffffffffffffffff)\n      and\n      eq\n        /* \"@openzeppelin/contracts/utils/introspection/ERC165.sol\":930:977  return interfaceId == type(IERC165).interfaceId */\n      swap1\n      pop\n        /* \"@openzeppelin/contracts/utils/introspection/ERC165.sol\":829:984  function supportsInterface(bytes4 interfaceId) public view virtual override returns (bool) {... */\n      swap2\n      swap1\n      pop\n      jump\t// out\n        /* \"@openzeppelin/contracts/access/AccessControl.sol\":3334:3437  function _checkRole(bytes32 role) internal view virtual {... */\n    tag_79:\n        /* \"@openzeppelin/contracts/access/AccessControl.sol\":3400:3430  _checkRole(role, _msgSender()) */\n      tag_148\n        /* \"@openzeppelin/contracts/access/AccessControl.sol\":3411:3415  role */\n      dup2\n        /* \"@openzeppelin/contracts/access/AccessControl.sol\":3417:3429  _msgSender() */\n      tag_149\n        /* \"@openzeppelin/contracts/access/AccessControl.sol\":3417:3427  _msgSender */\n      tag_90\n        /* \"@openzeppelin/contracts/access/AccessControl.sol\":3417:3429  _msgSender() */\n      jump\t// in\n    tag_149:\n        /* \"@openzeppelin/contracts/access/AccessControl.sol\":3400:3410  _checkRole */\n      tag_150\n        /* \"@openzeppelin/contracts/access/AccessControl.sol\":3400:3430  _checkRole(role, _msgSender()) */\n      jump\t// in\n    tag_148:\n        /* \"@openzeppelin/contracts/access/AccessControl.sol\":3334:3437  function _checkRole(bytes32 role) internal view virtual {... */\n      pop\n      jump\t// out\n        /* \"@openzeppelin/contracts/access/AccessControl.sol\":7474:7707  function _grantRole(bytes32 role, address account) internal virtual {... */\n    tag_87:\n        /* \"@openzeppelin/contracts/access/AccessControl.sol\":7557:7579  hasRole(role, account) */\n      tag_152\n        /* \"@openzeppelin/contracts/access/AccessControl.sol\":7565:7569  role */\n      dup3\n        /* \"@openzeppelin/contracts/access/AccessControl.sol\":7571:7578  account */\n      dup3\n        /* \"@openzeppelin/contracts/access/AccessControl.sol\":7557:7564  hasRole */\n      tag_60\n        /* \"@openzeppelin/contracts/access/AccessControl.sol\":7557:7579  hasRole(role, account) */\n      jump\t// in\n    tag_152:\n        /* \"@openzeppelin/contracts/access/AccessControl.sol\":7552:7701  if (!hasRole(role, account)) {... */\n      tag_153\n      jumpi\n        /* \"@openzeppelin/contracts/access/AccessControl.sol\":7627:7631  true */\n      0x01\n        /* \"@openzeppelin/contracts/access/AccessControl.sol\":7595:7601  _roles */\n      dup1\n        /* \"@openzeppelin/contracts/access/AccessControl.sol\":7595:7607  _roles[role] */\n      0x00\n        /* \"@openzeppelin/contracts/access/AccessControl.sol\":7602:7606  role */\n      dup5\n        /* \"@openzeppelin/contracts/access/AccessControl.sol\":7595:7607  _roles[role] */\n      dup2\n      mstore\n      0x20\n      add\n      swap1\n      dup2\n      mstore\n      0x20\n      add\n      0x00\n      keccak256\n        /* \"@openzeppelin/contracts/access/AccessControl.sol\":7595:7615  _roles[role].members */\n      0x00\n      add\n        /* \"@openzeppelin/contracts/access/AccessControl.sol\":7595:7624  _roles[role].members[account] */\n      0x00\n        /* \"@openzeppelin/contracts/access/AccessControl.sol\":7616:7623  account */\n      dup4\n        /* \"@openzeppelin/contracts/access/AccessControl.sol\":7595:7624  _roles[role].members[account] */\n      0xffffffffffffffffffffffffffffffffffffffff\n      and\n      0xffffffffffffffffffffffffffffffffffffffff\n      and\n      dup2\n      mstore\n      0x20\n      add\n      swap1\n      dup2\n      mstore\n      0x20\n      add\n      0x00\n      keccak256\n      0x00\n        /* \"@openzeppelin/contracts/access/AccessControl.sol\":7595:7631  _roles[role].members[account] = true */\n      0x0100\n      exp\n      dup2\n      sload\n      dup2\n      0xff\n      mul\n      not\n      and\n      swap1\n      dup4\n      iszero\n      iszero\n      mul\n      or\n      swap1\n      sstore\n      pop\n        /* \"@openzeppelin/contracts/access/AccessControl.sol\":7677:7689  _msgSender() */\n      tag_154\n        /* \"@openzeppelin/contracts/access/AccessControl.sol\":7677:7687  _msgSender */\n      tag_90\n        /* \"@openzeppelin/contracts/access/AccessControl.sol\":7677:7689  _msgSender() */\n      jump\t// in\n    tag_154:\n        /* \"@openzeppelin/contracts/access/AccessControl.sol\":7650:7690  RoleGranted(role, account, _msgSender()) */\n      0xffffffffffffffffffffffffffffffffffffffff\n      and\n        /* \"@openzeppelin/contracts/access/AccessControl.sol\":7668:7675  account */\n      dup2\n        /* \"@openzeppelin/contracts/access/AccessControl.sol\":7650:7690  RoleGranted(role, account, _msgSender()) */\n      0xffffffffffffffffffffffffffffffffffffffff\n      and\n        /* \"@openzeppelin/contracts/access/AccessControl.sol\":7662:7666  role */\n      dup4\n        /* \"@openzeppelin/contracts/access/AccessControl.sol\":7650:7690  RoleGranted(role, account, _msgSender()) */\n      0x2f8788117e7eff1d82e926ec794901d17c78024a50270940304540a733656f0d\n      mload(0x40)\n      mload(0x40)\n      dup1\n      swap2\n      sub\n      swap1\n      log4\n        /* \"@openzeppelin/contracts/access/AccessControl.sol\":7552:7701  if (!hasRole(role, account)) {... */\n    tag_153:\n        /* \"@openzeppelin/contracts/access/AccessControl.sol\":7474:7707  function _grantRole(bytes32 role, address account) internal virtual {... */\n      pop\n      pop\n      jump\t// out\n        /* \"@openzeppelin/contracts/utils/Context.sol\":640:736  function _msgSender() internal view virtual returns (address) {... */\n    tag_90:\n        /* \"@openzeppelin/contracts/utils/Context.sol\":693:700  address */\n      0x00\n        /* \"@openzeppelin/contracts/utils/Context.sol\":719:729  msg.sender */\n      caller\n        /* \"@openzeppelin/contracts/utils/Context.sol\":712:729  return msg.sender */\n      swap1\n      pop\n        /* \"@openzeppelin/contracts/utils/Context.sol\":640:736  function _msgSender() internal view virtual returns (address) {... */\n      swap1\n      jump\t// out\n        /* \"@openzeppelin/contracts/access/AccessControl.sol\":7878:8112  function _revokeRole(bytes32 role, address account) internal virtual {... */\n    tag_95:\n        /* \"@openzeppelin/contracts/access/AccessControl.sol\":7961:7983  hasRole(role, account) */\n      tag_157\n        /* \"@openzeppelin/contracts/access/AccessControl.sol\":7969:7973  role */\n      dup3\n        /* \"@openzeppelin/contracts/access/AccessControl.sol\":7975:7982  account */\n      dup3\n        /* \"@openzeppelin/contracts/access/AccessControl.sol\":7961:7968  hasRole */\n      tag_60\n        /* \"@openzeppelin/contracts/access/AccessControl.sol\":7961:7983  hasRole(role, account) */\n      jump\t// in\n    tag_157:\n        /* \"@openzeppelin/contracts/access/AccessControl.sol\":7957:8106  if (hasRole(role, account)) {... */\n      iszero\n      tag_158\n      jumpi\n        /* \"@openzeppelin/contracts/access/AccessControl.sol\":8031:8036  false */\n      0x00\n        /* \"@openzeppelin/contracts/access/AccessControl.sol\":7999:8005  _roles */\n      0x01\n        /* \"@openzeppelin/contracts/access/AccessControl.sol\":7999:8011  _roles[role] */\n      0x00\n        /* \"@openzeppelin/contracts/access/AccessControl.sol\":8006:8010  role */\n      dup5\n        /* \"@openzeppelin/contracts/access/AccessControl.sol\":7999:8011  _roles[role] */\n      dup2\n      mstore\n      0x20\n      add\n      swap1\n      dup2\n      mstore\n      0x20\n      add\n      0x00\n      keccak256\n        /* \"@openzeppelin/contracts/access/AccessControl.sol\":7999:8019  _roles[role].members */\n      0x00\n      add\n        /* \"@openzeppelin/contracts/access/AccessControl.sol\":7999:8028  _roles[role].members[account] */\n      0x00\n        /* \"@openzeppelin/contracts/access/AccessControl.sol\":8020:8027  account */\n      dup4\n        /* \"@openzeppelin/contracts/access/AccessControl.sol\":7999:8028  _roles[role].members[account] */\n      0xffffffffffffffffffffffffffffffffffffffff\n      and\n      0xffffffffffffffffffffffffffffffffffffffff\n      and\n      dup2\n      mstore\n      0x20\n      add\n      swap1\n      dup2\n      mstore\n      0x20\n      add\n      0x00\n      keccak256\n      0x00\n        /* \"@openzeppelin/contracts/access/AccessControl.sol\":7999:8036  _roles[role].members[account] = false */\n      0x0100\n      exp\n      dup2\n      sload\n      dup2\n      0xff\n      mul\n      not\n      and\n      swap1\n      dup4\n      iszero\n      iszero\n      mul\n      or\n      swap1\n      sstore\n      pop\n        /* \"@openzeppelin/contracts/access/AccessControl.sol\":8082:8094  _msgSender() */\n      tag_159\n        /* \"@openzeppelin/contracts/access/AccessControl.sol\":8082:8092  _msgSender */\n      tag_90\n        /* \"@openzeppelin/contracts/access/AccessControl.sol\":8082:8094  _msgSender() */\n      jump\t// in\n    tag_159:\n        /* \"@openzeppelin/contracts/access/AccessControl.sol\":8055:8095  RoleRevoked(role, account, _msgSender()) */\n      0xffffffffffffffffffffffffffffffffffffffff\n      and\n        /* \"@openzeppelin/contracts/access/AccessControl.sol\":8073:8080  account */\n      dup2\n        /* \"@openzeppelin/contracts/access/AccessControl.sol\":8055:8095  RoleRevoked(role, account, _msgSender()) */\n      0xffffffffffffffffffffffffffffffffffffffff\n      and\n        /* \"@openzeppelin/contracts/access/AccessControl.sol\":8067:8071  role */\n      dup4\n        /* \"@openzeppelin/contracts/access/AccessControl.sol\":8055:8095  RoleRevoked(role, account, _msgSender()) */\n      0xf6391f5c32d9c69d2a47ea670b442974b53935d1edc7fd64eb21e047a839171b\n      mload(0x40)\n      mload(0x40)\n      dup1\n      swap2\n      sub\n      swap1\n      log4\n        /* \"@openzeppelin/contracts/access/AccessControl.sol\":7957:8106  if (hasRole(role, account)) {... */\n    tag_158:\n        /* \"@openzeppelin/contracts/access/AccessControl.sol\":7878:8112  function _revokeRole(bytes32 role, address account) internal virtual {... */\n      pop\n      pop\n      jump\t// out\n        /* \"@openzeppelin/contracts/security/Pausable.sol\":2433:2550  function _unpause() internal virtual whenPaused {... */\n    tag_100:\n        /* \"@openzeppelin/contracts/security/Pausable.sol\":1486:1502  _requirePaused() */\n      tag_161\n        /* \"@openzeppelin/contracts/security/Pausable.sol\":1486:1500  _requirePaused */\n      tag_162\n        /* \"@openzeppelin/contracts/security/Pausable.sol\":1486:1502  _requirePaused() */\n      jump\t// in\n    tag_161:\n        /* \"@openzeppelin/contracts/security/Pausable.sol\":2501:2506  false */\n      0x00\n        /* \"@openzeppelin/contracts/security/Pausable.sol\":2491:2498  _paused */\n      dup1\n      0x00\n        /* \"@openzeppelin/contracts/security/Pausable.sol\":2491:2506  _paused = false */\n      0x0100\n      exp\n      dup2\n      sload\n      dup2\n      0xff\n      mul\n      not\n      and\n      swap1\n      dup4\n      iszero\n      iszero\n      mul\n      or\n      swap1\n      sstore\n      pop\n        /* \"@openzeppelin/contracts/security/Pausable.sol\":2521:2543  Unpaused(_msgSender()) */\n      0x5db9ee0a495bf2e6ff9c91a7834c1ba4fdd244a5e8aa4e537bd38aeae4b073aa\n        /* \"@openzeppelin/contracts/security/Pausable.sol\":2530:2542  _msgSender() */\n      tag_164\n        /* \"@openzeppelin/contracts/security/Pausable.sol\":2530:2540  _msgSender */\n      tag_90\n        /* \"@openzeppelin/contracts/security/Pausable.sol\":2530:2542  _msgSender() */\n      jump\t// in\n    tag_164:\n        /* \"@openzeppelin/contracts/security/Pausable.sol\":2521:2543  Unpaused(_msgSender()) */\n      mload(0x40)\n      tag_165\n      swap2\n      swap1\n      tag_166\n      jump\t// in\n    tag_165:\n      mload(0x40)\n      dup1\n      swap2\n      sub\n      swap1\n      log1\n        /* \"@openzeppelin/contracts/security/Pausable.sol\":2433:2550  function _unpause() internal virtual whenPaused {... */\n      jump\t// out\n        /* \"@openzeppelin/contracts/security/Pausable.sol\":2186:2301  function _pause() internal virtual whenNotPaused {... */\n    tag_106:\n        /* \"@openzeppelin/contracts/security/Pausable.sol\":1239:1258  _requireNotPaused() */\n      tag_168\n        /* \"@openzeppelin/contracts/security/Pausable.sol\":1239:1256  _requireNotPaused */\n      tag_169\n        /* \"@openzeppelin/contracts/security/Pausable.sol\":1239:1258  _requireNotPaused() */\n      jump\t// in\n    tag_168:\n        /* \"@openzeppelin/contracts/security/Pausable.sol\":2255:2259  true */\n      0x01\n        /* \"@openzeppelin/contracts/security/Pausable.sol\":2245:2252  _paused */\n      0x00\n      dup1\n        /* \"@openzeppelin/contracts/security/Pausable.sol\":2245:2259  _paused = true */\n      0x0100\n      exp\n      dup2\n      sload\n      dup2\n      0xff\n      mul\n      not\n      and\n      swap1\n      dup4\n      iszero\n      iszero\n      mul\n      or\n      swap1\n      sstore\n      pop\n        /* \"@openzeppelin/contracts/security/Pausable.sol\":2274:2294  Paused(_msgSender()) */\n      0x62e78cea01bee320cd4e420270b5ea74000d11b0c9f74754ebdbfc544b05a258\n        /* \"@openzeppelin/contracts/security/Pausable.sol\":2281:2293  _msgSender() */\n      tag_171\n        /* \"@openzeppelin/contracts/security/Pausable.sol\":2281:2291  _msgSender */\n      tag_90\n        /* \"@openzeppelin/contracts/security/Pausable.sol\":2281:2293  _msgSender() */\n      jump\t// in\n    tag_171:\n        /* \"@openzeppelin/contracts/security/Pausable.sol\":2274:2294  Paused(_msgSender()) */\n      mload(0x40)\n      tag_172\n      swap2\n      swap1\n      tag_166\n      jump\t// in\n    tag_172:\n      mload(0x40)\n      dup1\n      swap2\n      sub\n      swap1\n      log1\n        /* \"@openzeppelin/contracts/security/Pausable.sol\":2186:2301  function _pause() internal virtual whenNotPaused {... */\n      jump\t// out\n        /* \"Clase Contrato Airdrop/Airdrop.sol\":2536:2710  function _getRadomNumber() internal view returns (uint256) {... */\n    tag_112:\n        /* \"Clase Contrato Airdrop/Airdrop.sol\":2586:2593  uint256 */\n      0x00\n        /* \"Clase Contrato Airdrop/Airdrop.sol\":2701:2702  1 */\n      0x01\n        /* \"Clase Contrato Airdrop/Airdrop.sol\":2694:2698  1000 */\n      0x03e8\n        /* \"Clase Contrato Airdrop/Airdrop.sol\":2661:2676  block.timestamp */\n      timestamp\n        /* \"Clase Contrato Airdrop/Airdrop.sol\":2678:2688  msg.sender */\n      caller\n        /* \"Clase Contrato Airdrop/Airdrop.sol\":2644:2689  abi.encodePacked(block.timestamp, msg.sender) */\n      add(0x20, mload(0x40))\n      tag_174\n      swap3\n      swap2\n      swap1\n      tag_175\n      jump\t// in\n    tag_174:\n      mload(0x40)\n      0x20\n      dup2\n      dup4\n      sub\n      sub\n      dup2\n      mstore\n      swap1\n      0x40\n      mstore\n        /* \"Clase Contrato Airdrop/Airdrop.sol\":2634:2690  keccak256(abi.encodePacked(block.timestamp, msg.sender)) */\n      dup1\n      mload\n      swap1\n      0x20\n      add\n      keccak256\n        /* \"Clase Contrato Airdrop/Airdrop.sol\":2626:2691  uint256(keccak256(abi.encodePacked(block.timestamp, msg.sender))) */\n      0x00\n      shr\n        /* \"Clase Contrato Airdrop/Airdrop.sol\":2626:2698  uint256(keccak256(abi.encodePacked(block.timestamp, msg.sender))) % 1000 */\n      tag_176\n      swap2\n      swap1\n      tag_177\n      jump\t// in\n    tag_176:\n        /* \"Clase Contrato Airdrop/Airdrop.sol\":2626:2702  uint256(keccak256(abi.encodePacked(block.timestamp, msg.sender))) % 1000 + 1 */\n      tag_178\n      swap2\n      swap1\n      tag_125\n      jump\t// in\n    tag_178:\n        /* \"Clase Contrato Airdrop/Airdrop.sol\":2606:2702  return... */\n      swap1\n      pop\n        /* \"Clase Contrato Airdrop/Airdrop.sol\":2536:2710  function _getRadomNumber() internal view returns (uint256) {... */\n      swap1\n      jump\t// out\n        /* \"@openzeppelin/contracts/access/AccessControl.sol\":3718:4210  function _checkRole(bytes32 role, address account) internal view virtual {... */\n    tag_150:\n        /* \"@openzeppelin/contracts/access/AccessControl.sol\":3806:3828  hasRole(role, account) */\n      tag_180\n        /* \"@openzeppelin/contracts/access/AccessControl.sol\":3814:3818  role */\n      dup3\n        /* \"@openzeppelin/contracts/access/AccessControl.sol\":3820:3827  account */\n      dup3\n        /* \"@openzeppelin/contracts/access/AccessControl.sol\":3806:3813  hasRole */\n      tag_60\n        /* \"@openzeppelin/contracts/access/AccessControl.sol\":3806:3828  hasRole(role, account) */\n      jump\t// in\n    tag_180:\n        /* \"@openzeppelin/contracts/access/AccessControl.sol\":3801:4204  if (!hasRole(role, account)) {... */\n      tag_181\n      jumpi\n        /* \"@openzeppelin/contracts/access/AccessControl.sol\":3989:4030  Strings.toHexString(uint160(account), 20) */\n      tag_182\n        /* \"@openzeppelin/contracts/access/AccessControl.sol\":4017:4024  account */\n      dup2\n        /* \"@openzeppelin/contracts/access/AccessControl.sol\":3989:4030  Strings.toHexString(uint160(account), 20) */\n      0xffffffffffffffffffffffffffffffffffffffff\n      and\n        /* \"@openzeppelin/contracts/access/AccessControl.sol\":4027:4029  20 */\n      0x14\n        /* \"@openzeppelin/contracts/access/AccessControl.sol\":3989:4008  Strings.toHexString */\n      tag_183\n        /* \"@openzeppelin/contracts/access/AccessControl.sol\":3989:4030  Strings.toHexString(uint160(account), 20) */\n      jump\t// in\n    tag_182:\n        /* \"@openzeppelin/contracts/access/AccessControl.sol\":4101:4139  Strings.toHexString(uint256(role), 32) */\n      tag_184\n        /* \"@openzeppelin/contracts/access/AccessControl.sol\":4129:4133  role */\n      dup4\n        /* \"@openzeppelin/contracts/access/AccessControl.sol\":4121:4134  uint256(role) */\n      0x00\n      shr\n        /* \"@openzeppelin/contracts/access/AccessControl.sol\":4136:4138  32 */\n      0x20\n        /* \"@openzeppelin/contracts/access/AccessControl.sol\":4101:4120  Strings.toHexString */\n      tag_183\n        /* \"@openzeppelin/contracts/access/AccessControl.sol\":4101:4139  Strings.toHexString(uint256(role), 32) */\n      jump\t// in\n    tag_184:\n        /* \"@openzeppelin/contracts/access/AccessControl.sol\":3896:4161  abi.encodePacked(... */\n      add(0x20, mload(0x40))\n      tag_185\n      swap3\n      swap2\n      swap1\n      tag_186\n      jump\t// in\n    tag_185:\n      mload(0x40)\n      0x20\n      dup2\n      dup4\n      sub\n      sub\n      dup2\n      mstore\n      swap1\n      0x40\n      mstore\n        /* \"@openzeppelin/contracts/access/AccessControl.sol\":3844:4193  revert(... */\n      mload(0x40)\n      0x08c379a000000000000000000000000000000000000000000000000000000000\n      dup2\n      mstore\n      0x04\n      add\n      tag_187\n      swap2\n      swap1\n      tag_188\n      jump\t// in\n    tag_187:\n      mload(0x40)\n      dup1\n      swap2\n      sub\n      swap1\n      revert\n        /* \"@openzeppelin/contracts/access/AccessControl.sol\":3801:4204  if (!hasRole(role, account)) {... */\n    tag_181:\n        /* \"@openzeppelin/contracts/access/AccessControl.sol\":3718:4210  function _checkRole(bytes32 role, address account) internal view virtual {... */\n      pop\n      pop\n      jump\t// out\n        /* \"@openzeppelin/contracts/security/Pausable.sol\":1945:2051  function _requirePaused() internal view virtual {... */\n    tag_162:\n        /* \"@openzeppelin/contracts/security/Pausable.sol\":2011:2019  paused() */\n      tag_190\n        /* \"@openzeppelin/contracts/security/Pausable.sol\":2011:2017  paused */\n      tag_47\n        /* \"@openzeppelin/contracts/security/Pausable.sol\":2011:2019  paused() */\n      jump\t// in\n    tag_190:\n        /* \"@openzeppelin/contracts/security/Pausable.sol\":2003:2044  require(paused(), \"Pausable: not paused\") */\n      tag_191\n      jumpi\n      mload(0x40)\n      0x08c379a000000000000000000000000000000000000000000000000000000000\n      dup2\n      mstore\n      0x04\n      add\n      tag_192\n      swap1\n      tag_193\n      jump\t// in\n    tag_192:\n      mload(0x40)\n      dup1\n      swap2\n      sub\n      swap1\n      revert\n    tag_191:\n        /* \"@openzeppelin/contracts/security/Pausable.sol\":1945:2051  function _requirePaused() internal view virtual {... */\n      jump\t// out\n        /* \"@openzeppelin/contracts/security/Pausable.sol\":1767:1873  function _requireNotPaused() internal view virtual {... */\n    tag_169:\n        /* \"@openzeppelin/contracts/security/Pausable.sol\":1837:1845  paused() */\n      tag_195\n        /* \"@openzeppelin/contracts/security/Pausable.sol\":1837:1843  paused */\n      tag_47\n        /* \"@openzeppelin/contracts/security/Pausable.sol\":1837:1845  paused() */\n      jump\t// in\n    tag_195:\n        /* \"@openzeppelin/contracts/security/Pausable.sol\":1836:1845  !paused() */\n      iszero\n        /* \"@openzeppelin/contracts/security/Pausable.sol\":1828:1866  require(!paused(), \"Pausable: paused\") */\n      tag_196\n      jumpi\n      mload(0x40)\n      0x08c379a000000000000000000000000000000000000000000000000000000000\n      dup2\n      mstore\n      0x04\n      add\n      tag_197\n      swap1\n      tag_198\n      jump\t// in\n    tag_197:\n      mload(0x40)\n      dup1\n      swap2\n      sub\n      swap1\n      revert\n    tag_196:\n        /* \"@openzeppelin/contracts/security/Pausable.sol\":1767:1873  function _requireNotPaused() internal view virtual {... */\n      jump\t// out\n        /* \"@openzeppelin/contracts/utils/Strings.sol\":1652:2093  function toHexString(uint256 value, uint256 length) internal pure returns (string memory) {... */\n    tag_183:\n        /* \"@openzeppelin/contracts/utils/Strings.sol\":1727:1740  string memory */\n      0x60\n        /* \"@openzeppelin/contracts/utils/Strings.sol\":1752:1771  bytes memory buffer */\n      0x00\n        /* \"@openzeppelin/contracts/utils/Strings.sol\":1797:1798  2 */\n      0x02\n        /* \"@openzeppelin/contracts/utils/Strings.sol\":1788:1794  length */\n      dup4\n        /* \"@openzeppelin/contracts/utils/Strings.sol\":1784:1785  2 */\n      0x02\n        /* \"@openzeppelin/contracts/utils/Strings.sol\":1784:1794  2 * length */\n      tag_200\n      swap2\n      swap1\n      tag_201\n      jump\t// in\n    tag_200:\n        /* \"@openzeppelin/contracts/utils/Strings.sol\":1784:1798  2 * length + 2 */\n      tag_202\n      swap2\n      swap1\n      tag_125\n      jump\t// in\n    tag_202:\n        /* \"@openzeppelin/contracts/utils/Strings.sol\":1774:1799  new bytes(2 * length + 2) */\n      0xffffffffffffffff\n      dup2\n      gt\n      iszero\n      tag_203\n      jumpi\n      tag_204\n      tag_205\n      jump\t// in\n    tag_204:\n    tag_203:\n      mload(0x40)\n      swap1\n      dup1\n      dup3\n      mstore\n      dup1\n      0x1f\n      add\n      not(0x1f)\n      and\n      0x20\n      add\n      dup3\n      add\n      0x40\n      mstore\n      dup1\n      iszero\n      tag_206\n      jumpi\n      dup2\n      0x20\n      add\n      0x01\n      dup3\n      mul\n      dup1\n      calldatasize\n      dup4\n      calldatacopy\n      dup1\n      dup3\n      add\n      swap2\n      pop\n      pop\n      swap1\n      pop\n    tag_206:\n      pop\n        /* \"@openzeppelin/contracts/utils/Strings.sol\":1752:1799  bytes memory buffer = new bytes(2 * length + 2) */\n      swap1\n      pop\n        /* \"@openzeppelin/contracts/utils/Strings.sol\":1809:1824  buffer[0] = \"0\" */\n      0x3000000000000000000000000000000000000000000000000000000000000000\n        /* \"@openzeppelin/contracts/utils/Strings.sol\":1809:1815  buffer */\n      dup2\n        /* \"@openzeppelin/contracts/utils/Strings.sol\":1816:1817  0 */\n      0x00\n        /* \"@openzeppelin/contracts/utils/Strings.sol\":1809:1818  buffer[0] */\n      dup2\n      mload\n      dup2\n      lt\n      tag_207\n      jumpi\n      tag_208\n      tag_209\n      jump\t// in\n    tag_208:\n    tag_207:\n      0x20\n      add\n      add\n        /* \"@openzeppelin/contracts/utils/Strings.sol\":1809:1824  buffer[0] = \"0\" */\n      swap1\n      not(0xffffffffffffffffffffffffffffffffffffffffffffffffffffffffffffff)\n      and\n      swap1\n      dup2\n      0x00\n      byte\n      swap1\n      mstore8\n      pop\n        /* \"@openzeppelin/contracts/utils/Strings.sol\":1834:1849  buffer[1] = \"x\" */\n      0x7800000000000000000000000000000000000000000000000000000000000000\n        /* \"@openzeppelin/contracts/utils/Strings.sol\":1834:1840  buffer */\n      dup2\n        /* \"@openzeppelin/contracts/utils/Strings.sol\":1841:1842  1 */\n      0x01\n        /* \"@openzeppelin/contracts/utils/Strings.sol\":1834:1843  buffer[1] */\n      dup2\n      mload\n      dup2\n      lt\n      tag_210\n      jumpi\n      tag_211\n      tag_209\n      jump\t// in\n    tag_211:\n    tag_210:\n      0x20\n      add\n      add\n        /* \"@openzeppelin/contracts/utils/Strings.sol\":1834:1849  buffer[1] = \"x\" */\n      swap1\n      not(0xffffffffffffffffffffffffffffffffffffffffffffffffffffffffffffff)\n      and\n      swap1\n      dup2\n      0x00\n      byte\n      swap1\n      mstore8\n      pop\n        /* \"@openzeppelin/contracts/utils/Strings.sol\":1864:1873  uint256 i */\n      0x00\n        /* \"@openzeppelin/contracts/utils/Strings.sol\":1889:1890  1 */\n      0x01\n        /* \"@openzeppelin/contracts/utils/Strings.sol\":1880:1886  length */\n      dup5\n        /* \"@openzeppelin/contracts/utils/Strings.sol\":1876:1877  2 */\n      0x02\n        /* \"@openzeppelin/contracts/utils/Strings.sol\":1876:1886  2 * length */\n      tag_215\n      swap2\n      swap1\n      tag_201\n      jump\t// in\n    tag_215:\n        /* \"@openzeppelin/contracts/utils/Strings.sol\":1876:1890  2 * length + 1 */\n      tag_216\n      swap2\n      swap1\n      tag_125\n      jump\t// in\n    tag_216:\n        /* \"@openzeppelin/contracts/utils/Strings.sol\":1864:1890  uint256 i = 2 * length + 1 */\n      swap1\n      pop\n        /* \"@openzeppelin/contracts/utils/Strings.sol\":1859:1991  for (uint256 i = 2 * length + 1; i > 1; --i) {... */\n    tag_212:\n        /* \"@openzeppelin/contracts/utils/Strings.sol\":1896:1897  1 */\n      0x01\n        /* \"@openzeppelin/contracts/utils/Strings.sol\":1892:1893  i */\n      dup2\n        /* \"@openzeppelin/contracts/utils/Strings.sol\":1892:1897  i > 1 */\n      gt\n        /* \"@openzeppelin/contracts/utils/Strings.sol\":1859:1991  for (uint256 i = 2 * length + 1; i > 1; --i) {... */\n      iszero\n      tag_213\n      jumpi\n        /* \"@openzeppelin/contracts/utils/Strings.sol\":1930:1942  _HEX_SYMBOLS */\n      0x3031323334353637383961626364656600000000000000000000000000000000\n        /* \"@openzeppelin/contracts/utils/Strings.sol\":1951:1954  0xf */\n      0x0f\n        /* \"@openzeppelin/contracts/utils/Strings.sol\":1943:1948  value */\n      dup7\n        /* \"@openzeppelin/contracts/utils/Strings.sol\":1943:1954  value & 0xf */\n      and\n        /* \"@openzeppelin/contracts/utils/Strings.sol\":1930:1955  _HEX_SYMBOLS[value & 0xf] */\n      0x10\n      dup2\n      lt\n      tag_217\n      jumpi\n      tag_218\n      tag_209\n      jump\t// in\n    tag_218:\n    tag_217:\n      byte\n      0xf8\n      shl\n        /* \"@openzeppelin/contracts/utils/Strings.sol\":1918:1924  buffer */\n      dup3\n        /* \"@openzeppelin/contracts/utils/Strings.sol\":1925:1926  i */\n      dup3\n        /* \"@openzeppelin/contracts/utils/Strings.sol\":1918:1927  buffer[i] */\n      dup2\n      mload\n      dup2\n      lt\n      tag_219\n      jumpi\n      tag_220\n      tag_209\n      jump\t// in\n    tag_220:\n    tag_219:\n      0x20\n      add\n      add\n        /* \"@openzeppelin/contracts/utils/Strings.sol\":1918:1955  buffer[i] = _HEX_SYMBOLS[value & 0xf] */\n      swap1\n      not(0xffffffffffffffffffffffffffffffffffffffffffffffffffffffffffffff)\n      and\n      swap1\n      dup2\n      0x00\n      byte\n      swap1\n      mstore8\n      pop\n        /* \"@openzeppelin/contracts/utils/Strings.sol\":1979:1980  4 */\n      0x04\n        /* \"@openzeppelin/contracts/utils/Strings.sol\":1969:1980  value >>= 4 */\n      dup6\n      swap1\n      shr\n      swap5\n      pop\n        /* \"@openzeppelin/contracts/utils/Strings.sol\":1899:1902  --i */\n      dup1\n      tag_221\n      swap1\n      tag_222\n      jump\t// in\n    tag_221:\n      swap1\n      pop\n        /* \"@openzeppelin/contracts/utils/Strings.sol\":1859:1991  for (uint256 i = 2 * length + 1; i > 1; --i) {... */\n      jump(tag_212)\n    tag_213:\n      pop\n        /* \"@openzeppelin/contracts/utils/Strings.sol\":2017:2018  0 */\n      0x00\n        /* \"@openzeppelin/contracts/utils/Strings.sol\":2008:2013  value */\n      dup5\n        /* \"@openzeppelin/contracts/utils/Strings.sol\":2008:2018  value == 0 */\n      eq\n        /* \"@openzeppelin/contracts/utils/Strings.sol\":2000:2055  require(value == 0, \"Strings: hex length insufficient\") */\n      tag_223\n      jumpi\n      mload(0x40)\n      0x08c379a000000000000000000000000000000000000000000000000000000000\n      dup2\n      mstore\n      0x04\n      add\n      tag_224\n      swap1\n      tag_225\n      jump\t// in\n    tag_224:\n      mload(0x40)\n      dup1\n      swap2\n      sub\n      swap1\n      revert\n    tag_223:\n        /* \"@openzeppelin/contracts/utils/Strings.sol\":2079:2085  buffer */\n      dup1\n        /* \"@openzeppelin/contracts/utils/Strings.sol\":2065:2086  return string(buffer) */\n      swap2\n      pop\n      pop\n        /* \"@openzeppelin/contracts/utils/Strings.sol\":1652:2093  function toHexString(uint256 value, uint256 length) internal pure returns (string memory) {... */\n      swap3\n      swap2\n      pop\n      pop\n      jump\t// out\n        /* \"#utility.yul\":88:205   */\n    tag_227:\n        /* \"#utility.yul\":197:198   */\n      0x00\n        /* \"#utility.yul\":194:195   */\n      dup1\n        /* \"#utility.yul\":187:199   */\n      revert\n        /* \"#utility.yul\":334:483   */\n    tag_229:\n        /* \"#utility.yul\":370:377   */\n      0x00\n        /* \"#utility.yul\":410:476   */\n      0xffffffff00000000000000000000000000000000000000000000000000000000\n        /* \"#utility.yul\":403:408   */\n      dup3\n        /* \"#utility.yul\":399:477   */\n      and\n        /* \"#utility.yul\":388:477   */\n      swap1\n      pop\n        /* \"#utility.yul\":334:483   */\n      swap2\n      swap1\n      pop\n      jump\t// out\n        /* \"#utility.yul\":489:609   */\n    tag_230:\n        /* \"#utility.yul\":561:584   */\n      tag_290\n        /* \"#utility.yul\":578:583   */\n      dup2\n        /* \"#utility.yul\":561:584   */\n      tag_229\n      jump\t// in\n    tag_290:\n        /* \"#utility.yul\":554:559   */\n      dup2\n        /* \"#utility.yul\":551:585   */\n      eq\n        /* \"#utility.yul\":541:603   */\n      tag_291\n      jumpi\n        /* \"#utility.yul\":599:600   */\n      0x00\n        /* \"#utility.yul\":596:597   */\n      dup1\n        /* \"#utility.yul\":589:601   */\n      revert\n        /* \"#utility.yul\":541:603   */\n    tag_291:\n        /* \"#utility.yul\":489:609   */\n      pop\n      jump\t// out\n        /* \"#utility.yul\":615:752   */\n    tag_231:\n        /* \"#utility.yul\":660:665   */\n      0x00\n        /* \"#utility.yul\":698:704   */\n      dup2\n        /* \"#utility.yul\":685:705   */\n      calldataload\n        /* \"#utility.yul\":676:705   */\n      swap1\n      pop\n        /* \"#utility.yul\":714:746   */\n      tag_293\n        /* \"#utility.yul\":740:745   */\n      dup2\n        /* \"#utility.yul\":714:746   */\n      tag_230\n      jump\t// in\n    tag_293:\n        /* \"#utility.yul\":615:752   */\n      swap3\n      swap2\n      pop\n      pop\n      jump\t// out\n        /* \"#utility.yul\":758:1085   */\n    tag_23:\n        /* \"#utility.yul\":816:822   */\n      0x00\n        /* \"#utility.yul\":865:867   */\n      0x20\n        /* \"#utility.yul\":853:862   */\n      dup3\n        /* \"#utility.yul\":844:851   */\n      dup5\n        /* \"#utility.yul\":840:863   */\n      sub\n        /* \"#utility.yul\":836:868   */\n      slt\n        /* \"#utility.yul\":833:952   */\n      iszero\n      tag_295\n      jumpi\n        /* \"#utility.yul\":871:950   */\n      tag_296\n      tag_227\n      jump\t// in\n    tag_296:\n        /* \"#utility.yul\":833:952   */\n    tag_295:\n        /* \"#utility.yul\":991:992   */\n      0x00\n        /* \"#utility.yul\":1016:1068   */\n      tag_297\n        /* \"#utility.yul\":1060:1067   */\n      dup5\n        /* \"#utility.yul\":1051:1057   */\n      dup3\n        /* \"#utility.yul\":1040:1049   */\n      dup6\n        /* \"#utility.yul\":1036:1058   */\n      add\n        /* \"#utility.yul\":1016:1068   */\n      tag_231\n      jump\t// in\n    tag_297:\n        /* \"#utility.yul\":1006:1068   */\n      swap2\n      pop\n        /* \"#utility.yul\":962:1078   */\n      pop\n        /* \"#utility.yul\":758:1085   */\n      swap3\n      swap2\n      pop\n      pop\n      jump\t// out\n        /* \"#utility.yul\":1091:1181   */\n    tag_232:\n        /* \"#utility.yul\":1125:1132   */\n      0x00\n        /* \"#utility.yul\":1168:1173   */\n      dup2\n        /* \"#utility.yul\":1161:1174   */\n      iszero\n        /* \"#utility.yul\":1154:1175   */\n      iszero\n        /* \"#utility.yul\":1143:1175   */\n      swap1\n      pop\n        /* \"#utility.yul\":1091:1181   */\n      swap2\n      swap1\n      pop\n      jump\t// out\n        /* \"#utility.yul\":1187:1296   */\n    tag_233:\n        /* \"#utility.yul\":1268:1289   */\n      tag_300\n        /* \"#utility.yul\":1283:1288   */\n      dup2\n        /* \"#utility.yul\":1268:1289   */\n      tag_232\n      jump\t// in\n    tag_300:\n        /* \"#utility.yul\":1263:1266   */\n      dup3\n        /* \"#utility.yul\":1256:1290   */\n      mstore\n        /* \"#utility.yul\":1187:1296   */\n      pop\n      pop\n      jump\t// out\n        /* \"#utility.yul\":1302:1512   */\n    tag_26:\n        /* \"#utility.yul\":1389:1393   */\n      0x00\n        /* \"#utility.yul\":1427:1429   */\n      0x20\n        /* \"#utility.yul\":1416:1425   */\n      dup3\n        /* \"#utility.yul\":1412:1430   */\n      add\n        /* \"#utility.yul\":1404:1430   */\n      swap1\n      pop\n        /* \"#utility.yul\":1440:1505   */\n      tag_302\n        /* \"#utility.yul\":1502:1503   */\n      0x00\n        /* \"#utility.yul\":1491:1500   */\n      dup4\n        /* \"#utility.yul\":1487:1504   */\n      add\n        /* \"#utility.yul\":1478:1484   */\n      dup5\n        /* \"#utility.yul\":1440:1505   */\n      tag_233\n      jump\t// in\n    tag_302:\n        /* \"#utility.yul\":1302:1512   */\n      swap3\n      swap2\n      pop\n      pop\n      jump\t// out\n        /* \"#utility.yul\":1518:1644   */\n    tag_234:\n        /* \"#utility.yul\":1555:1562   */\n      0x00\n        /* \"#utility.yul\":1595:1637   */\n      0xffffffffffffffffffffffffffffffffffffffff\n        /* \"#utility.yul\":1588:1593   */\n      dup3\n        /* \"#utility.yul\":1584:1638   */\n      and\n        /* \"#utility.yul\":1573:1638   */\n      swap1\n      pop\n        /* \"#utility.yul\":1518:1644   */\n      swap2\n      swap1\n      pop\n      jump\t// out\n        /* \"#utility.yul\":1650:1746   */\n    tag_235:\n        /* \"#utility.yul\":1687:1694   */\n      0x00\n        /* \"#utility.yul\":1716:1740   */\n      tag_305\n        /* \"#utility.yul\":1734:1739   */\n      dup3\n        /* \"#utility.yul\":1716:1740   */\n      tag_234\n      jump\t// in\n    tag_305:\n        /* \"#utility.yul\":1705:1740   */\n      swap1\n      pop\n        /* \"#utility.yul\":1650:1746   */\n      swap2\n      swap1\n      pop\n      jump\t// out\n        /* \"#utility.yul\":1752:1874   */\n    tag_236:\n        /* \"#utility.yul\":1825:1849   */\n      tag_307\n        /* \"#utility.yul\":1843:1848   */\n      dup2\n        /* \"#utility.yul\":1825:1849   */\n      tag_235\n      jump\t// in\n    tag_307:\n        /* \"#utility.yul\":1818:1823   */\n      dup2\n        /* \"#utility.yul\":1815:1850   */\n      eq\n        /* \"#utility.yul\":1805:1868   */\n      tag_308\n      jumpi\n        /* \"#utility.yul\":1864:1865   */\n      0x00\n        /* \"#utility.yul\":1861:1862   */\n      dup1\n        /* \"#utility.yul\":1854:1866   */\n      revert\n        /* \"#utility.yul\":1805:1868   */\n    tag_308:\n        /* \"#utility.yul\":1752:1874   */\n      pop\n      jump\t// out\n        /* \"#utility.yul\":1880:2019   */\n    tag_237:\n        /* \"#utility.yul\":1926:1931   */\n      0x00\n        /* \"#utility.yul\":1964:1970   */\n      dup2\n        /* \"#utility.yul\":1951:1971   */\n      calldataload\n        /* \"#utility.yul\":1942:1971   */\n      swap1\n      pop\n        /* \"#utility.yul\":1980:2013   */\n      tag_310\n        /* \"#utility.yul\":2007:2012   */\n      dup2\n        /* \"#utility.yul\":1980:2013   */\n      tag_236\n      jump\t// in\n    tag_310:\n        /* \"#utility.yul\":1880:2019   */\n      swap3\n      swap2\n      pop\n      pop\n      jump\t// out\n        /* \"#utility.yul\":2025:2141   */\n    tag_238:\n        /* \"#utility.yul\":2095:2116   */\n      tag_312\n        /* \"#utility.yul\":2110:2115   */\n      dup2\n        /* \"#utility.yul\":2095:2116   */\n      tag_232\n      jump\t// in\n    tag_312:\n        /* \"#utility.yul\":2088:2093   */\n      dup2\n        /* \"#utility.yul\":2085:2117   */\n      eq\n        /* \"#utility.yul\":2075:2135   */\n      tag_313\n      jumpi\n        /* \"#utility.yul\":2131:2132   */\n      0x00\n        /* \"#utility.yul\":2128:2129   */\n      dup1\n        /* \"#utility.yul\":2121:2133   */\n      revert\n        /* \"#utility.yul\":2075:2135   */\n    tag_313:\n        /* \"#utility.yul\":2025:2141   */\n      pop\n      jump\t// out\n        /* \"#utility.yul\":2147:2280   */\n    tag_239:\n        /* \"#utility.yul\":2190:2195   */\n      0x00\n        /* \"#utility.yul\":2228:2234   */\n      dup2\n        /* \"#utility.yul\":2215:2235   */\n      calldataload\n        /* \"#utility.yul\":2206:2235   */\n      swap1\n      pop\n        /* \"#utility.yul\":2244:2274   */\n      tag_315\n        /* \"#utility.yul\":2268:2273   */\n      dup2\n        /* \"#utility.yul\":2244:2274   */\n      tag_238\n      jump\t// in\n    tag_315:\n        /* \"#utility.yul\":2147:2280   */\n      swap3\n      swap2\n      pop\n      pop\n      jump\t// out\n        /* \"#utility.yul\":2286:2754   */\n    tag_29:\n        /* \"#utility.yul\":2351:2357   */\n      0x00\n        /* \"#utility.yul\":2359:2365   */\n      dup1\n        /* \"#utility.yul\":2408:2410   */\n      0x40\n        /* \"#utility.yul\":2396:2405   */\n      dup4\n        /* \"#utility.yul\":2387:2394   */\n      dup6\n        /* \"#utility.yul\":2383:2406   */\n      sub\n        /* \"#utility.yul\":2379:2411   */\n      slt\n        /* \"#utility.yul\":2376:2495   */\n      iszero\n      tag_317\n      jumpi\n        /* \"#utility.yul\":2414:2493   */\n      tag_318\n      tag_227\n      jump\t// in\n    tag_318:\n        /* \"#utility.yul\":2376:2495   */\n    tag_317:\n        /* \"#utility.yul\":2534:2535   */\n      0x00\n        /* \"#utility.yul\":2559:2612   */\n      tag_319\n        /* \"#utility.yul\":2604:2611   */\n      dup6\n        /* \"#utility.yul\":2595:2601   */\n      dup3\n        /* \"#utility.yul\":2584:2593   */\n      dup7\n        /* \"#utility.yul\":2580:2602   */\n      add\n        /* \"#utility.yul\":2559:2612   */\n      tag_237\n      jump\t// in\n    tag_319:\n        /* \"#utility.yul\":2549:2612   */\n      swap3\n      pop\n        /* \"#utility.yul\":2505:2622   */\n      pop\n        /* \"#utility.yul\":2661:2663   */\n      0x20\n        /* \"#utility.yul\":2687:2737   */\n      tag_320\n        /* \"#utility.yul\":2729:2736   */\n      dup6\n        /* \"#utility.yul\":2720:2726   */\n      dup3\n        /* \"#utility.yul\":2709:2718   */\n      dup7\n        /* \"#utility.yul\":2705:2727   */\n      add\n        /* \"#utility.yul\":2687:2737   */\n      tag_239\n      jump\t// in\n    tag_320:\n        /* \"#utility.yul\":2677:2737   */\n      swap2\n      pop\n        /* \"#utility.yul\":2632:2747   */\n      pop\n        /* \"#utility.yul\":2286:2754   */\n      swap3\n      pop\n      swap3\n      swap1\n      pop\n      jump\t// out\n        /* \"#utility.yul\":2760:2837   */\n    tag_240:\n        /* \"#utility.yul\":2797:2804   */\n      0x00\n        /* \"#utility.yul\":2826:2831   */\n      dup2\n        /* \"#utility.yul\":2815:2831   */\n      swap1\n      pop\n        /* \"#utility.yul\":2760:2837   */\n      swap2\n      swap1\n      pop\n      jump\t// out\n        /* \"#utility.yul\":2843:2965   */\n    tag_241:\n        /* \"#utility.yul\":2916:2940   */\n      tag_323\n        /* \"#utility.yul\":2934:2939   */\n      dup2\n        /* \"#utility.yul\":2916:2940   */\n      tag_240\n      jump\t// in\n    tag_323:\n        /* \"#utility.yul\":2909:2914   */\n      dup2\n        /* \"#utility.yul\":2906:2941   */\n      eq\n        /* \"#utility.yul\":2896:2959   */\n      tag_324\n      jumpi\n        /* \"#utility.yul\":2955:2956   */\n      0x00\n        /* \"#utility.yul\":2952:2953   */\n      dup1\n        /* \"#utility.yul\":2945:2957   */\n      revert\n        /* \"#utility.yul\":2896:2959   */\n    tag_324:\n        /* \"#utility.yul\":2843:2965   */\n      pop\n      jump\t// out\n        /* \"#utility.yul\":2971:3110   */\n    tag_242:\n        /* \"#utility.yul\":3017:3022   */\n      0x00\n        /* \"#utility.yul\":3055:3061   */\n      dup2\n        /* \"#utility.yul\":3042:3062   */\n      calldataload\n        /* \"#utility.yul\":3033:3062   */\n      swap1\n      pop\n        /* \"#utility.yul\":3071:3104   */\n      tag_326\n        /* \"#utility.yul\":3098:3103   */\n      dup2\n        /* \"#utility.yul\":3071:3104   */\n      tag_241\n      jump\t// in\n    tag_326:\n        /* \"#utility.yul\":2971:3110   */\n      swap3\n      swap2\n      pop\n      pop\n      jump\t// out\n        /* \"#utility.yul\":3116:3445   */\n    tag_33:\n        /* \"#utility.yul\":3175:3181   */\n      0x00\n        /* \"#utility.yul\":3224:3226   */\n      0x20\n        /* \"#utility.yul\":3212:3221   */\n      dup3\n        /* \"#utility.yul\":3203:3210   */\n      dup5\n        /* \"#utility.yul\":3199:3222   */\n      sub\n        /* \"#utility.yul\":3195:3227   */\n      slt\n        /* \"#utility.yul\":3192:3311   */\n      iszero\n      tag_328\n      jumpi\n        /* \"#utility.yul\":3230:3309   */\n      tag_329\n      tag_227\n      jump\t// in\n    tag_329:\n        /* \"#utility.yul\":3192:3311   */\n    tag_328:\n        /* \"#utility.yul\":3350:3351   */\n      0x00\n        /* \"#utility.yul\":3375:3428   */\n      tag_330\n        /* \"#utility.yul\":3420:3427   */\n      dup5\n        /* \"#utility.yul\":3411:3417   */\n      dup3\n        /* \"#utility.yul\":3400:3409   */\n      dup6\n        /* \"#utility.yul\":3396:3418   */\n      add\n        /* \"#utility.yul\":3375:3428   */\n      tag_242\n      jump\t// in\n    tag_330:\n        /* \"#utility.yul\":3365:3428   */\n      swap2\n      pop\n        /* \"#utility.yul\":3321:3438   */\n      pop\n        /* \"#utility.yul\":3116:3445   */\n      swap3\n      swap2\n      pop\n      pop\n      jump\t// out\n        /* \"#utility.yul\":3451:3569   */\n    tag_243:\n        /* \"#utility.yul\":3538:3562   */\n      tag_332\n        /* \"#utility.yul\":3556:3561   */\n      dup2\n        /* \"#utility.yul\":3538:3562   */\n      tag_240\n      jump\t// in\n    tag_332:\n        /* \"#utility.yul\":3533:3536   */\n      dup3\n        /* \"#utility.yul\":3526:3563   */\n      mstore\n        /* \"#utility.yul\":3451:3569   */\n      pop\n      pop\n      jump\t// out\n        /* \"#utility.yul\":3575:3797   */\n    tag_36:\n        /* \"#utility.yul\":3668:3672   */\n      0x00\n        /* \"#utility.yul\":3706:3708   */\n      0x20\n        /* \"#utility.yul\":3695:3704   */\n      dup3\n        /* \"#utility.yul\":3691:3709   */\n      add\n        /* \"#utility.yul\":3683:3709   */\n      swap1\n      pop\n        /* \"#utility.yul\":3719:3790   */\n      tag_334\n        /* \"#utility.yul\":3787:3788   */\n      0x00\n        /* \"#utility.yul\":3776:3785   */\n      dup4\n        /* \"#utility.yul\":3772:3789   */\n      add\n        /* \"#utility.yul\":3763:3769   */\n      dup5\n        /* \"#utility.yul\":3719:3790   */\n      tag_243\n      jump\t// in\n    tag_334:\n        /* \"#utility.yul\":3575:3797   */\n      swap3\n      swap2\n      pop\n      pop\n      jump\t// out\n        /* \"#utility.yul\":3803:4277   */\n    tag_39:\n        /* \"#utility.yul\":3871:3877   */\n      0x00\n        /* \"#utility.yul\":3879:3885   */\n      dup1\n        /* \"#utility.yul\":3928:3930   */\n      0x40\n        /* \"#utility.yul\":3916:3925   */\n      dup4\n        /* \"#utility.yul\":3907:3914   */\n      dup6\n        /* \"#utility.yul\":3903:3926   */\n      sub\n        /* \"#utility.yul\":3899:3931   */\n      slt\n        /* \"#utility.yul\":3896:4015   */\n      iszero\n      tag_336\n      jumpi\n        /* \"#utility.yul\":3934:4013   */\n      tag_337\n      tag_227\n      jump\t// in\n    tag_337:\n        /* \"#utility.yul\":3896:4015   */\n    tag_336:\n        /* \"#utility.yul\":4054:4055   */\n      0x00\n        /* \"#utility.yul\":4079:4132   */\n      tag_338\n        /* \"#utility.yul\":4124:4131   */\n      dup6\n        /* \"#utility.yul\":4115:4121   */\n      dup3\n        /* \"#utility.yul\":4104:4113   */\n      dup7\n        /* \"#utility.yul\":4100:4122   */\n      add\n        /* \"#utility.yul\":4079:4132   */\n      tag_242\n      jump\t// in\n    tag_338:\n        /* \"#utility.yul\":4069:4132   */\n      swap3\n      pop\n        /* \"#utility.yul\":4025:4142   */\n      pop\n        /* \"#utility.yul\":4181:4183   */\n      0x20\n        /* \"#utility.yul\":4207:4260   */\n      tag_339\n        /* \"#utility.yul\":4252:4259   */\n      dup6\n        /* \"#utility.yul\":4243:4249   */\n      dup3\n        /* \"#utility.yul\":4232:4241   */\n      dup7\n        /* \"#utility.yul\":4228:4250   */\n      add\n        /* \"#utility.yul\":4207:4260   */\n      tag_237\n      jump\t// in\n    tag_339:\n        /* \"#utility.yul\":4197:4260   */\n      swap2\n      pop\n        /* \"#utility.yul\":4152:4270   */\n      pop\n        /* \"#utility.yul\":3803:4277   */\n      swap3\n      pop\n      swap3\n      swap1\n      pop\n      jump\t// out\n        /* \"#utility.yul\":4283:4606   */\n    tag_56:\n        /* \"#utility.yul\":4339:4345   */\n      0x00\n        /* \"#utility.yul\":4388:4390   */\n      0x20\n        /* \"#utility.yul\":4376:4385   */\n      dup3\n        /* \"#utility.yul\":4367:4374   */\n      dup5\n        /* \"#utility.yul\":4363:4386   */\n      sub\n        /* \"#utility.yul\":4359:4391   */\n      slt\n        /* \"#utility.yul\":4356:4475   */\n      iszero\n      tag_341\n      jumpi\n        /* \"#utility.yul\":4394:4473   */\n      tag_342\n      tag_227\n      jump\t// in\n    tag_342:\n        /* \"#utility.yul\":4356:4475   */\n    tag_341:\n        /* \"#utility.yul\":4514:4515   */\n      0x00\n        /* \"#utility.yul\":4539:4589   */\n      tag_343\n        /* \"#utility.yul\":4581:4588   */\n      dup5\n        /* \"#utility.yul\":4572:4578   */\n      dup3\n        /* \"#utility.yul\":4561:4570   */\n      dup6\n        /* \"#utility.yul\":4557:4579   */\n      add\n        /* \"#utility.yul\":4539:4589   */\n      tag_239\n      jump\t// in\n    tag_343:\n        /* \"#utility.yul\":4529:4589   */\n      swap2\n      pop\n        /* \"#utility.yul\":4485:4599   */\n      pop\n        /* \"#utility.yul\":4283:4606   */\n      swap3\n      swap2\n      pop\n      pop\n      jump\t// out\n        /* \"#utility.yul\":4612:4781   */\n    tag_244:\n        /* \"#utility.yul\":4696:4707   */\n      0x00\n        /* \"#utility.yul\":4730:4736   */\n      dup3\n        /* \"#utility.yul\":4725:4728   */\n      dup3\n        /* \"#utility.yul\":4718:4737   */\n      mstore\n        /* \"#utility.yul\":4770:4774   */\n      0x20\n        /* \"#utility.yul\":4765:4768   */\n      dup3\n        /* \"#utility.yul\":4761:4775   */\n      add\n        /* \"#utility.yul\":4746:4775   */\n      swap1\n      pop\n        /* \"#utility.yul\":4612:4781   */\n      swap3\n      swap2\n      pop\n      pop\n      jump\t// out\n        /* \"#utility.yul\":4787:5021   */\n    tag_245:\n        /* \"#utility.yul\":4927:4961   */\n      0x416363657373436f6e74726f6c3a2063616e206f6e6c792072656e6f756e6365\n        /* \"#utility.yul\":4923:4924   */\n      0x00\n        /* \"#utility.yul\":4915:4921   */\n      dup3\n        /* \"#utility.yul\":4911:4925   */\n      add\n        /* \"#utility.yul\":4904:4962   */\n      mstore\n        /* \"#utility.yul\":4996:5013   */\n      0x20726f6c657320666f722073656c660000000000000000000000000000000000\n        /* \"#utility.yul\":4991:4993   */\n      0x20\n        /* \"#utility.yul\":4983:4989   */\n      dup3\n        /* \"#utility.yul\":4979:4994   */\n      add\n        /* \"#utility.yul\":4972:5014   */\n      mstore\n        /* \"#utility.yul\":4787:5021   */\n      pop\n      jump\t// out\n        /* \"#utility.yul\":5027:5393   */\n    tag_246:\n        /* \"#utility.yul\":5169:5172   */\n      0x00\n        /* \"#utility.yul\":5190:5257   */\n      tag_347\n        /* \"#utility.yul\":5254:5256   */\n      0x2f\n        /* \"#utility.yul\":5249:5252   */\n      dup4\n        /* \"#utility.yul\":5190:5257   */\n      tag_244\n      jump\t// in\n    tag_347:\n        /* \"#utility.yul\":5183:5257   */\n      swap2\n      pop\n        /* \"#utility.yul\":5266:5359   */\n      tag_348\n        /* \"#utility.yul\":5355:5358   */\n      dup3\n        /* \"#utility.yul\":5266:5359   */\n      tag_245\n      jump\t// in\n    tag_348:\n        /* \"#utility.yul\":5384:5386   */\n      0x40\n        /* \"#utility.yul\":5379:5382   */\n      dup3\n        /* \"#utility.yul\":5375:5387   */\n      add\n        /* \"#utility.yul\":5368:5387   */\n      swap1\n      pop\n        /* \"#utility.yul\":5027:5393   */\n      swap2\n      swap1\n      pop\n      jump\t// out\n        /* \"#utility.yul\":5399:5818   */\n    tag_93:\n        /* \"#utility.yul\":5565:5569   */\n      0x00\n        /* \"#utility.yul\":5603:5605   */\n      0x20\n        /* \"#utility.yul\":5592:5601   */\n      dup3\n        /* \"#utility.yul\":5588:5606   */\n      add\n        /* \"#utility.yul\":5580:5606   */\n      swap1\n      pop\n        /* \"#utility.yul\":5652:5661   */\n      dup2\n        /* \"#utility.yul\":5646:5650   */\n      dup2\n        /* \"#utility.yul\":5642:5662   */\n      sub\n        /* \"#utility.yul\":5638:5639   */\n      0x00\n        /* \"#utility.yul\":5627:5636   */\n      dup4\n        /* \"#utility.yul\":5623:5640   */\n      add\n        /* \"#utility.yul\":5616:5663   */\n      mstore\n        /* \"#utility.yul\":5680:5811   */\n      tag_350\n        /* \"#utility.yul\":5806:5810   */\n      dup2\n        /* \"#utility.yul\":5680:5811   */\n      tag_246\n      jump\t// in\n    tag_350:\n        /* \"#utility.yul\":5672:5811   */\n      swap1\n      pop\n        /* \"#utility.yul\":5399:5818   */\n      swap2\n      swap1\n      pop\n      jump\t// out\n        /* \"#utility.yul\":5824:6001   */\n    tag_247:\n        /* \"#utility.yul\":5964:5993   */\n      0x4e6f2070657274656e6563652061204c6973746120426c616e63610000000000\n        /* \"#utility.yul\":5960:5961   */\n      0x00\n        /* \"#utility.yul\":5952:5958   */\n      dup3\n        /* \"#utility.yul\":5948:5962   */\n      add\n        /* \"#utility.yul\":5941:5994   */\n      mstore\n        /* \"#utility.yul\":5824:6001   */\n      pop\n      jump\t// out\n        /* \"#utility.yul\":6007:6373   */\n    tag_248:\n        /* \"#utility.yul\":6149:6152   */\n      0x00\n        /* \"#utility.yul\":6170:6237   */\n      tag_353\n        /* \"#utility.yul\":6234:6236   */\n      0x1b\n        /* \"#utility.yul\":6229:6232   */\n      dup4\n        /* \"#utility.yul\":6170:6237   */\n      tag_244\n      jump\t// in\n    tag_353:\n        /* \"#utility.yul\":6163:6237   */\n      swap2\n      pop\n        /* \"#utility.yul\":6246:6339   */\n      tag_354\n        /* \"#utility.yul\":6335:6338   */\n      dup3\n        /* \"#utility.yul\":6246:6339   */\n      tag_247\n      jump\t// in\n    tag_354:\n        /* \"#utility.yul\":6364:6366   */\n      0x20\n        /* \"#utility.yul\":6359:6362   */\n      dup3\n        /* \"#utility.yul\":6355:6367   */\n      add\n        /* \"#utility.yul\":6348:6367   */\n      swap1\n      pop\n        /* \"#utility.yul\":6007:6373   */\n      swap2\n      swap1\n      pop\n      jump\t// out\n        /* \"#utility.yul\":6379:6798   */\n    tag_110:\n        /* \"#utility.yul\":6545:6549   */\n      0x00\n        /* \"#utility.yul\":6583:6585   */\n      0x20\n        /* \"#utility.yul\":6572:6581   */\n      dup3\n        /* \"#utility.yul\":6568:6586   */\n      add\n        /* \"#utility.yul\":6560:6586   */\n      swap1\n      pop\n        /* \"#utility.yul\":6632:6641   */\n      dup2\n        /* \"#utility.yul\":6626:6630   */\n      dup2\n        /* \"#utility.yul\":6622:6642   */\n      sub\n        /* \"#utility.yul\":6618:6619   */\n      0x00\n        /* \"#utility.yul\":6607:6616   */\n      dup4\n        /* \"#utility.yul\":6603:6620   */\n      add\n        /* \"#utility.yul\":6596:6643   */\n      mstore\n        /* \"#utility.yul\":6660:6791   */\n      tag_356\n        /* \"#utility.yul\":6786:6790   */\n      dup2\n        /* \"#utility.yul\":6660:6791   */\n      tag_248\n      jump\t// in\n    tag_356:\n        /* \"#utility.yul\":6652:6791   */\n      swap1\n      pop\n        /* \"#utility.yul\":6379:6798   */\n      swap2\n      swap1\n      pop\n      jump\t// out\n        /* \"#utility.yul\":6804:6964   */\n    tag_249:\n        /* \"#utility.yul\":6944:6956   */\n      0x5961207265636962696f00000000000000000000000000000000000000000000\n        /* \"#utility.yul\":6940:6941   */\n      0x00\n        /* \"#utility.yul\":6932:6938   */\n      dup3\n        /* \"#utility.yul\":6928:6942   */\n      add\n        /* \"#utility.yul\":6921:6957   */\n      mstore\n        /* \"#utility.yul\":6804:6964   */\n      pop\n      jump\t// out\n        /* \"#utility.yul\":6970:7336   */\n    tag_250:\n        /* \"#utility.yul\":7112:7115   */\n      0x00\n        /* \"#utility.yul\":7133:7200   */\n      tag_359\n        /* \"#utility.yul\":7197:7199   */\n      0x0a\n        /* \"#utility.yul\":7192:7195   */\n      dup4\n        /* \"#utility.yul\":7133:7200   */\n      tag_244\n      jump\t// in\n    tag_359:\n        /* \"#utility.yul\":7126:7200   */\n      swap2\n      pop\n        /* \"#utility.yul\":7209:7302   */\n      tag_360\n        /* \"#utility.yul\":7298:7301   */\n      dup3\n        /* \"#utility.yul\":7209:7302   */\n      tag_249\n      jump\t// in\n    tag_360:\n        /* \"#utility.yul\":7327:7329   */\n      0x20\n        /* \"#utility.yul\":7322:7325   */\n      dup3\n        /* \"#utility.yul\":7318:7330   */\n      add\n        /* \"#utility.yul\":7311:7330   */\n      swap1\n      pop\n        /* \"#utility.yul\":6970:7336   */\n      swap2\n      swap1\n      pop\n      jump\t// out\n        /* \"#utility.yul\":7342:7761   */\n    tag_115:\n        /* \"#utility.yul\":7508:7512   */\n      0x00\n        /* \"#utility.yul\":7546:7548   */\n      0x20\n        /* \"#utility.yul\":7535:7544   */\n      dup3\n        /* \"#utility.yul\":7531:7549   */\n      add\n        /* \"#utility.yul\":7523:7549   */\n      swap1\n      pop\n        /* \"#utility.yul\":7595:7604   */\n      dup2\n        /* \"#utility.yul\":7589:7593   */\n      dup2\n        /* \"#utility.yul\":7585:7605   */\n      sub\n        /* \"#utility.yul\":7581:7582   */\n      0x00\n        /* \"#utility.yul\":7570:7579   */\n      dup4\n        /* \"#utility.yul\":7566:7583   */\n      add\n        /* \"#utility.yul\":7559:7606   */\n      mstore\n        /* \"#utility.yul\":7623:7754   */\n      tag_362\n        /* \"#utility.yul\":7749:7753   */\n      dup2\n        /* \"#utility.yul\":7623:7754   */\n      tag_250\n      jump\t// in\n    tag_362:\n        /* \"#utility.yul\":7615:7754   */\n      swap1\n      pop\n        /* \"#utility.yul\":7342:7761   */\n      swap2\n      swap1\n      pop\n      jump\t// out\n        /* \"#utility.yul\":7767:7948   */\n    tag_251:\n        /* \"#utility.yul\":7907:7940   */\n      0x53757065726f206d6178696d6f20746f6b656e732072657061727469646f7300\n        /* \"#utility.yul\":7903:7904   */\n      0x00\n        /* \"#utility.yul\":7895:7901   */\n      dup3\n        /* \"#utility.yul\":7891:7905   */\n      add\n        /* \"#utility.yul\":7884:7941   */\n      mstore\n        /* \"#utility.yul\":7767:7948   */\n      pop\n      jump\t// out\n        /* \"#utility.yul\":7954:8320   */\n    tag_252:\n        /* \"#utility.yul\":8096:8099   */\n      0x00\n        /* \"#utility.yul\":8117:8184   */\n      tag_365\n        /* \"#utility.yul\":8181:8183   */\n      0x1f\n        /* \"#utility.yul\":8176:8179   */\n      dup4\n        /* \"#utility.yul\":8117:8184   */\n      tag_244\n      jump\t// in\n    tag_365:\n        /* \"#utility.yul\":8110:8184   */\n      swap2\n      pop\n        /* \"#utility.yul\":8193:8286   */\n      tag_366\n        /* \"#utility.yul\":8282:8285   */\n      dup3\n        /* \"#utility.yul\":8193:8286   */\n      tag_251\n      jump\t// in\n    tag_366:\n        /* \"#utility.yul\":8311:8313   */\n      0x20\n        /* \"#utility.yul\":8306:8309   */\n      dup3\n        /* \"#utility.yul\":8302:8314   */\n      add\n        /* \"#utility.yul\":8295:8314   */\n      swap1\n      pop\n        /* \"#utility.yul\":7954:8320   */\n      swap2\n      swap1\n      pop\n      jump\t// out\n        /* \"#utility.yul\":8326:8745   */\n    tag_118:\n        /* \"#utility.yul\":8492:8496   */\n      0x00\n        /* \"#utility.yul\":8530:8532   */\n      0x20\n        /* \"#utility.yul\":8519:8528   */\n      dup3\n        /* \"#utility.yul\":8515:8533   */\n      add\n        /* \"#utility.yul\":8507:8533   */\n      swap1\n      pop\n        /* \"#utility.yul\":8579:8588   */\n      dup2\n        /* \"#utility.yul\":8573:8577   */\n      dup2\n        /* \"#utility.yul\":8569:8589   */\n      sub\n        /* \"#utility.yul\":8565:8566   */\n      0x00\n        /* \"#utility.yul\":8554:8563   */\n      dup4\n        /* \"#utility.yul\":8550:8567   */\n      add\n        /* \"#utility.yul\":8543:8590   */\n      mstore\n        /* \"#utility.yul\":8607:8738   */\n      tag_368\n        /* \"#utility.yul\":8733:8737   */\n      dup2\n        /* \"#utility.yul\":8607:8738   */\n      tag_252\n      jump\t// in\n    tag_368:\n        /* \"#utility.yul\":8599:8738   */\n      swap1\n      pop\n        /* \"#utility.yul\":8326:8745   */\n      swap2\n      swap1\n      pop\n      jump\t// out\n        /* \"#utility.yul\":8751:8869   */\n    tag_253:\n        /* \"#utility.yul\":8838:8862   */\n      tag_370\n        /* \"#utility.yul\":8856:8861   */\n      dup2\n        /* \"#utility.yul\":8838:8862   */\n      tag_235\n      jump\t// in\n    tag_370:\n        /* \"#utility.yul\":8833:8836   */\n      dup3\n        /* \"#utility.yul\":8826:8863   */\n      mstore\n        /* \"#utility.yul\":8751:8869   */\n      pop\n      pop\n      jump\t// out\n        /* \"#utility.yul\":8875:8952   */\n    tag_254:\n        /* \"#utility.yul\":8912:8919   */\n      0x00\n        /* \"#utility.yul\":8941:8946   */\n      dup2\n        /* \"#utility.yul\":8930:8946   */\n      swap1\n      pop\n        /* \"#utility.yul\":8875:8952   */\n      swap2\n      swap1\n      pop\n      jump\t// out\n        /* \"#utility.yul\":8958:9076   */\n    tag_255:\n        /* \"#utility.yul\":9045:9069   */\n      tag_373\n        /* \"#utility.yul\":9063:9068   */\n      dup2\n        /* \"#utility.yul\":9045:9069   */\n      tag_254\n      jump\t// in\n    tag_373:\n        /* \"#utility.yul\":9040:9043   */\n      dup3\n        /* \"#utility.yul\":9033:9070   */\n      mstore\n        /* \"#utility.yul\":8958:9076   */\n      pop\n      pop\n      jump\t// out\n        /* \"#utility.yul\":9082:9414   */\n    tag_120:\n        /* \"#utility.yul\":9203:9207   */\n      0x00\n        /* \"#utility.yul\":9241:9243   */\n      0x40\n        /* \"#utility.yul\":9230:9239   */\n      dup3\n        /* \"#utility.yul\":9226:9244   */\n      add\n        /* \"#utility.yul\":9218:9244   */\n      swap1\n      pop\n        /* \"#utility.yul\":9254:9325   */\n      tag_375\n        /* \"#utility.yul\":9322:9323   */\n      0x00\n        /* \"#utility.yul\":9311:9320   */\n      dup4\n        /* \"#utility.yul\":9307:9324   */\n      add\n        /* \"#utility.yul\":9298:9304   */\n      dup6\n        /* \"#utility.yul\":9254:9325   */\n      tag_253\n      jump\t// in\n    tag_375:\n        /* \"#utility.yul\":9335:9407   */\n      tag_376\n        /* \"#utility.yul\":9403:9405   */\n      0x20\n        /* \"#utility.yul\":9392:9401   */\n      dup4\n        /* \"#utility.yul\":9388:9406   */\n      add\n        /* \"#utility.yul\":9379:9385   */\n      dup5\n        /* \"#utility.yul\":9335:9407   */\n      tag_255\n      jump\t// in\n    tag_376:\n        /* \"#utility.yul\":9082:9414   */\n      swap4\n      swap3\n      pop\n      pop\n      pop\n      jump\t// out\n        /* \"#utility.yul\":9420:9600   */\n    tag_256:\n        /* \"#utility.yul\":9468:9545   */\n      0x4e487b7100000000000000000000000000000000000000000000000000000000\n        /* \"#utility.yul\":9465:9466   */\n      0x00\n        /* \"#utility.yul\":9458:9546   */\n      mstore\n        /* \"#utility.yul\":9565:9569   */\n      0x11\n        /* \"#utility.yul\":9562:9563   */\n      0x04\n        /* \"#utility.yul\":9555:9570   */\n      mstore\n        /* \"#utility.yul\":9589:9593   */\n      0x24\n        /* \"#utility.yul\":9586:9587   */\n      0x00\n        /* \"#utility.yul\":9579:9594   */\n      revert\n        /* \"#utility.yul\":9606:9797   */\n    tag_125:\n        /* \"#utility.yul\":9646:9649   */\n      0x00\n        /* \"#utility.yul\":9665:9685   */\n      tag_379\n        /* \"#utility.yul\":9683:9684   */\n      dup3\n        /* \"#utility.yul\":9665:9685   */\n      tag_254\n      jump\t// in\n    tag_379:\n        /* \"#utility.yul\":9660:9685   */\n      swap2\n      pop\n        /* \"#utility.yul\":9699:9719   */\n      tag_380\n        /* \"#utility.yul\":9717:9718   */\n      dup4\n        /* \"#utility.yul\":9699:9719   */\n      tag_254\n      jump\t// in\n    tag_380:\n        /* \"#utility.yul\":9694:9719   */\n      swap3\n      pop\n        /* \"#utility.yul\":9742:9743   */\n      dup3\n        /* \"#utility.yul\":9739:9740   */\n      dup3\n        /* \"#utility.yul\":9735:9744   */\n      add\n        /* \"#utility.yul\":9728:9744   */\n      swap1\n      pop\n        /* \"#utility.yul\":9763:9766   */\n      dup1\n        /* \"#utility.yul\":9760:9761   */\n      dup3\n        /* \"#utility.yul\":9757:9767   */\n      gt\n        /* \"#utility.yul\":9754:9790   */\n      iszero\n      tag_381\n      jumpi\n        /* \"#utility.yul\":9770:9788   */\n      tag_382\n      tag_256\n      jump\t// in\n    tag_382:\n        /* \"#utility.yul\":9754:9790   */\n    tag_381:\n        /* \"#utility.yul\":9606:9797   */\n      swap3\n      swap2\n      pop\n      pop\n      jump\t// out\n        /* \"#utility.yul\":9803:9889   */\n    tag_257:\n        /* \"#utility.yul\":9849:9856   */\n      0x00\n        /* \"#utility.yul\":9878:9883   */\n      dup2\n        /* \"#utility.yul\":9867:9883   */\n      swap1\n      pop\n        /* \"#utility.yul\":9803:9889   */\n      swap2\n      swap1\n      pop\n      jump\t// out\n        /* \"#utility.yul\":9895:9955   */\n    tag_258:\n        /* \"#utility.yul\":9923:9926   */\n      0x00\n        /* \"#utility.yul\":9944:9949   */\n      dup2\n        /* \"#utility.yul\":9937:9949   */\n      swap1\n      pop\n        /* \"#utility.yul\":9895:9955   */\n      swap2\n      swap1\n      pop\n      jump\t// out\n        /* \"#utility.yul\":9961:10121   */\n    tag_259:\n        /* \"#utility.yul\":10020:10029   */\n      0x00\n        /* \"#utility.yul\":10053:10115   */\n      tag_386\n        /* \"#utility.yul\":10071:10114   */\n      tag_387\n        /* \"#utility.yul\":10080:10113   */\n      tag_388\n        /* \"#utility.yul\":10107:10112   */\n      dup5\n        /* \"#utility.yul\":10080:10113   */\n      tag_257\n      jump\t// in\n    tag_388:\n        /* \"#utility.yul\":10071:10114   */\n      tag_258\n      jump\t// in\n    tag_387:\n        /* \"#utility.yul\":10053:10115   */\n      tag_254\n      jump\t// in\n    tag_386:\n        /* \"#utility.yul\":10040:10115   */\n      swap1\n      pop\n        /* \"#utility.yul\":9961:10121   */\n      swap2\n      swap1\n      pop\n      jump\t// out\n        /* \"#utility.yul\":10127:10276   */\n    tag_260:\n        /* \"#utility.yul\":10223:10269   */\n      tag_390\n        /* \"#utility.yul\":10263:10268   */\n      dup2\n        /* \"#utility.yul\":10223:10269   */\n      tag_259\n      jump\t// in\n    tag_390:\n        /* \"#utility.yul\":10218:10221   */\n      dup3\n        /* \"#utility.yul\":10211:10270   */\n      mstore\n        /* \"#utility.yul\":10127:10276   */\n      pop\n      pop\n      jump\t// out\n        /* \"#utility.yul\":10282:10632   */\n    tag_128:\n        /* \"#utility.yul\":10412:10416   */\n      0x00\n        /* \"#utility.yul\":10450:10452   */\n      0x40\n        /* \"#utility.yul\":10439:10448   */\n      dup3\n        /* \"#utility.yul\":10435:10453   */\n      add\n        /* \"#utility.yul\":10427:10453   */\n      swap1\n      pop\n        /* \"#utility.yul\":10463:10534   */\n      tag_392\n        /* \"#utility.yul\":10531:10532   */\n      0x00\n        /* \"#utility.yul\":10520:10529   */\n      dup4\n        /* \"#utility.yul\":10516:10533   */\n      add\n        /* \"#utility.yul\":10507:10513   */\n      dup6\n        /* \"#utility.yul\":10463:10534   */\n      tag_253\n      jump\t// in\n    tag_392:\n        /* \"#utility.yul\":10544:10625   */\n      tag_393\n        /* \"#utility.yul\":10621:10623   */\n      0x20\n        /* \"#utility.yul\":10610:10619   */\n      dup4\n        /* \"#utility.yul\":10606:10624   */\n      add\n        /* \"#utility.yul\":10597:10603   */\n      dup5\n        /* \"#utility.yul\":10544:10625   */\n      tag_260\n      jump\t// in\n    tag_393:\n        /* \"#utility.yul\":10282:10632   */\n      swap4\n      swap3\n      pop\n      pop\n      pop\n      jump\t// out\n        /* \"#utility.yul\":10638:10832   */\n    tag_133:\n        /* \"#utility.yul\":10678:10682   */\n      0x00\n        /* \"#utility.yul\":10698:10718   */\n      tag_395\n        /* \"#utility.yul\":10716:10717   */\n      dup3\n        /* \"#utility.yul\":10698:10718   */\n      tag_254\n      jump\t// in\n    tag_395:\n        /* \"#utility.yul\":10693:10718   */\n      swap2\n      pop\n        /* \"#utility.yul\":10732:10752   */\n      tag_396\n        /* \"#utility.yul\":10750:10751   */\n      dup4\n        /* \"#utility.yul\":10732:10752   */\n      tag_254\n      jump\t// in\n    tag_396:\n        /* \"#utility.yul\":10727:10752   */\n      swap3\n      pop\n        /* \"#utility.yul\":10776:10777   */\n      dup3\n        /* \"#utility.yul\":10773:10774   */\n      dup3\n        /* \"#utility.yul\":10769:10778   */\n      sub\n        /* \"#utility.yul\":10761:10778   */\n      swap1\n      pop\n        /* \"#utility.yul\":10800:10801   */\n      dup2\n        /* \"#utility.yul\":10794:10798   */\n      dup2\n        /* \"#utility.yul\":10791:10802   */\n      gt\n        /* \"#utility.yul\":10788:10825   */\n      iszero\n      tag_397\n      jumpi\n        /* \"#utility.yul\":10805:10823   */\n      tag_398\n      tag_256\n      jump\t// in\n    tag_398:\n        /* \"#utility.yul\":10788:10825   */\n    tag_397:\n        /* \"#utility.yul\":10638:10832   */\n      swap3\n      swap2\n      pop\n      pop\n      jump\t// out\n        /* \"#utility.yul\":10838:11060   */\n    tag_166:\n        /* \"#utility.yul\":10931:10935   */\n      0x00\n        /* \"#utility.yul\":10969:10971   */\n      0x20\n        /* \"#utility.yul\":10958:10967   */\n      dup3\n        /* \"#utility.yul\":10954:10972   */\n      add\n        /* \"#utility.yul\":10946:10972   */\n      swap1\n      pop\n        /* \"#utility.yul\":10982:11053   */\n      tag_400\n        /* \"#utility.yul\":11050:11051   */\n      0x00\n        /* \"#utility.yul\":11039:11048   */\n      dup4\n        /* \"#utility.yul\":11035:11052   */\n      add\n        /* \"#utility.yul\":11026:11032   */\n      dup5\n        /* \"#utility.yul\":10982:11053   */\n      tag_253\n      jump\t// in\n    tag_400:\n        /* \"#utility.yul\":10838:11060   */\n      swap3\n      swap2\n      pop\n      pop\n      jump\t// out\n        /* \"#utility.yul\":11066:11145   */\n    tag_261:\n        /* \"#utility.yul\":11105:11112   */\n      0x00\n        /* \"#utility.yul\":11134:11139   */\n      dup2\n        /* \"#utility.yul\":11123:11139   */\n      swap1\n      pop\n        /* \"#utility.yul\":11066:11145   */\n      swap2\n      swap1\n      pop\n      jump\t// out\n        /* \"#utility.yul\":11151:11308   */\n    tag_262:\n        /* \"#utility.yul\":11256:11301   */\n      tag_403\n        /* \"#utility.yul\":11276:11300   */\n      tag_404\n        /* \"#utility.yul\":11294:11299   */\n      dup3\n        /* \"#utility.yul\":11276:11300   */\n      tag_254\n      jump\t// in\n    tag_404:\n        /* \"#utility.yul\":11256:11301   */\n      tag_261\n      jump\t// in\n    tag_403:\n        /* \"#utility.yul\":11251:11254   */\n      dup3\n        /* \"#utility.yul\":11244:11302   */\n      mstore\n        /* \"#utility.yul\":11151:11308   */\n      pop\n      pop\n      jump\t// out\n        /* \"#utility.yul\":11314:11408   */\n    tag_263:\n        /* \"#utility.yul\":11347:11355   */\n      0x00\n        /* \"#utility.yul\":11395:11400   */\n      dup2\n        /* \"#utility.yul\":11391:11393   */\n      0x60\n        /* \"#utility.yul\":11387:11401   */\n      shl\n        /* \"#utility.yul\":11366:11401   */\n      swap1\n      pop\n        /* \"#utility.yul\":11314:11408   */\n      swap2\n      swap1\n      pop\n      jump\t// out\n        /* \"#utility.yul\":11414:11508   */\n    tag_264:\n        /* \"#utility.yul\":11453:11460   */\n      0x00\n        /* \"#utility.yul\":11482:11502   */\n      tag_407\n        /* \"#utility.yul\":11496:11501   */\n      dup3\n        /* \"#utility.yul\":11482:11502   */\n      tag_263\n      jump\t// in\n    tag_407:\n        /* \"#utility.yul\":11471:11502   */\n      swap1\n      pop\n        /* \"#utility.yul\":11414:11508   */\n      swap2\n      swap1\n      pop\n      jump\t// out\n        /* \"#utility.yul\":11514:11614   */\n    tag_265:\n        /* \"#utility.yul\":11553:11560   */\n      0x00\n        /* \"#utility.yul\":11582:11608   */\n      tag_409\n        /* \"#utility.yul\":11602:11607   */\n      dup3\n        /* \"#utility.yul\":11582:11608   */\n      tag_264\n      jump\t// in\n    tag_409:\n        /* \"#utility.yul\":11571:11608   */\n      swap1\n      pop\n        /* \"#utility.yul\":11514:11614   */\n      swap2\n      swap1\n      pop\n      jump\t// out\n        /* \"#utility.yul\":11620:11777   */\n    tag_266:\n        /* \"#utility.yul\":11725:11770   */\n      tag_411\n        /* \"#utility.yul\":11745:11769   */\n      tag_412\n        /* \"#utility.yul\":11763:11768   */\n      dup3\n        /* \"#utility.yul\":11745:11769   */\n      tag_235\n      jump\t// in\n    tag_412:\n        /* \"#utility.yul\":11725:11770   */\n      tag_265\n      jump\t// in\n    tag_411:\n        /* \"#utility.yul\":11720:11723   */\n      dup3\n        /* \"#utility.yul\":11713:11771   */\n      mstore\n        /* \"#utility.yul\":11620:11777   */\n      pop\n      pop\n      jump\t// out\n        /* \"#utility.yul\":11783:12180   */\n    tag_175:\n        /* \"#utility.yul\":11923:11926   */\n      0x00\n        /* \"#utility.yul\":11938:12013   */\n      tag_414\n        /* \"#utility.yul\":12009:12012   */\n      dup3\n        /* \"#utility.yul\":12000:12006   */\n      dup6\n        /* \"#utility.yul\":11938:12013   */\n      tag_262\n      jump\t// in\n    tag_414:\n        /* \"#utility.yul\":12038:12040   */\n      0x20\n        /* \"#utility.yul\":12033:12036   */\n      dup3\n        /* \"#utility.yul\":12029:12041   */\n      add\n        /* \"#utility.yul\":12022:12041   */\n      swap2\n      pop\n        /* \"#utility.yul\":12051:12126   */\n      tag_415\n        /* \"#utility.yul\":12122:12125   */\n      dup3\n        /* \"#utility.yul\":12113:12119   */\n      dup5\n        /* \"#utility.yul\":12051:12126   */\n      tag_266\n      jump\t// in\n    tag_415:\n        /* \"#utility.yul\":12151:12153   */\n      0x14\n        /* \"#utility.yul\":12146:12149   */\n      dup3\n        /* \"#utility.yul\":12142:12154   */\n      add\n        /* \"#utility.yul\":12135:12154   */\n      swap2\n      pop\n        /* \"#utility.yul\":12171:12174   */\n      dup2\n        /* \"#utility.yul\":12164:12174   */\n      swap1\n      pop\n        /* \"#utility.yul\":11783:12180   */\n      swap4\n      swap3\n      pop\n      pop\n      pop\n      jump\t// out\n        /* \"#utility.yul\":12186:12366   */\n    tag_267:\n        /* \"#utility.yul\":12234:12311   */\n      0x4e487b7100000000000000000000000000000000000000000000000000000000\n        /* \"#utility.yul\":12231:12232   */\n      0x00\n        /* \"#utility.yul\":12224:12312   */\n      mstore\n        /* \"#utility.yul\":12331:12335   */\n      0x12\n        /* \"#utility.yul\":12328:12329   */\n      0x04\n        /* \"#utility.yul\":12321:12336   */\n      mstore\n        /* \"#utility.yul\":12355:12359   */\n      0x24\n        /* \"#utility.yul\":12352:12353   */\n      0x00\n        /* \"#utility.yul\":12345:12360   */\n      revert\n        /* \"#utility.yul\":12372:12548   */\n    tag_177:\n        /* \"#utility.yul\":12404:12405   */\n      0x00\n        /* \"#utility.yul\":12421:12441   */\n      tag_418\n        /* \"#utility.yul\":12439:12440   */\n      dup3\n        /* \"#utility.yul\":12421:12441   */\n      tag_254\n      jump\t// in\n    tag_418:\n        /* \"#utility.yul\":12416:12441   */\n      swap2\n      pop\n        /* \"#utility.yul\":12455:12475   */\n      tag_419\n        /* \"#utility.yul\":12473:12474   */\n      dup4\n        /* \"#utility.yul\":12455:12475   */\n      tag_254\n      jump\t// in\n    tag_419:\n        /* \"#utility.yul\":12450:12475   */\n      swap3\n      pop\n        /* \"#utility.yul\":12494:12495   */\n      dup3\n        /* \"#utility.yul\":12484:12519   */\n      tag_420\n      jumpi\n        /* \"#utility.yul\":12499:12517   */\n      tag_421\n      tag_267\n      jump\t// in\n    tag_421:\n        /* \"#utility.yul\":12484:12519   */\n    tag_420:\n        /* \"#utility.yul\":12540:12541   */\n      dup3\n        /* \"#utility.yul\":12537:12538   */\n      dup3\n        /* \"#utility.yul\":12533:12542   */\n      mod\n        /* \"#utility.yul\":12528:12542   */\n      swap1\n      pop\n        /* \"#utility.yul\":12372:12548   */\n      swap3\n      swap2\n      pop\n      pop\n      jump\t// out\n        /* \"#utility.yul\":12554:12702   */\n    tag_268:\n        /* \"#utility.yul\":12656:12667   */\n      0x00\n        /* \"#utility.yul\":12693:12696   */\n      dup2\n        /* \"#utility.yul\":12678:12696   */\n      swap1\n      pop\n        /* \"#utility.yul\":12554:12702   */\n      swap3\n      swap2\n      pop\n      pop\n      jump\t// out\n        /* \"#utility.yul\":12708:12881   */\n    tag_269:\n        /* \"#utility.yul\":12848:12873   */\n      0x416363657373436f6e74726f6c3a206163636f756e7420000000000000000000\n        /* \"#utility.yul\":12844:12845   */\n      0x00\n        /* \"#utility.yul\":12836:12842   */\n      dup3\n        /* \"#utility.yul\":12832:12846   */\n      add\n        /* \"#utility.yul\":12825:12874   */\n      mstore\n        /* \"#utility.yul\":12708:12881   */\n      pop\n      jump\t// out\n        /* \"#utility.yul\":12887:13289   */\n    tag_270:\n        /* \"#utility.yul\":13047:13050   */\n      0x00\n        /* \"#utility.yul\":13068:13153   */\n      tag_425\n        /* \"#utility.yul\":13150:13152   */\n      0x17\n        /* \"#utility.yul\":13145:13148   */\n      dup4\n        /* \"#utility.yul\":13068:13153   */\n      tag_268\n      jump\t// in\n    tag_425:\n        /* \"#utility.yul\":13061:13153   */\n      swap2\n      pop\n        /* \"#utility.yul\":13162:13255   */\n      tag_426\n        /* \"#utility.yul\":13251:13254   */\n      dup3\n        /* \"#utility.yul\":13162:13255   */\n      tag_269\n      jump\t// in\n    tag_426:\n        /* \"#utility.yul\":13280:13282   */\n      0x17\n        /* \"#utility.yul\":13275:13278   */\n      dup3\n        /* \"#utility.yul\":13271:13283   */\n      add\n        /* \"#utility.yul\":13264:13283   */\n      swap1\n      pop\n        /* \"#utility.yul\":12887:13289   */\n      swap2\n      swap1\n      pop\n      jump\t// out\n        /* \"#utility.yul\":13295:13394   */\n    tag_271:\n        /* \"#utility.yul\":13347:13353   */\n      0x00\n        /* \"#utility.yul\":13381:13386   */\n      dup2\n        /* \"#utility.yul\":13375:13387   */\n      mload\n        /* \"#utility.yul\":13365:13387   */\n      swap1\n      pop\n        /* \"#utility.yul\":13295:13394   */\n      swap2\n      swap1\n      pop\n      jump\t// out\n        /* \"#utility.yul\":13400:13646   */\n    tag_272:\n        /* \"#utility.yul\":13481:13482   */\n      0x00\n        /* \"#utility.yul\":13491:13604   */\n    tag_429:\n        /* \"#utility.yul\":13505:13511   */\n      dup4\n        /* \"#utility.yul\":13502:13503   */\n      dup2\n        /* \"#utility.yul\":13499:13512   */\n      lt\n        /* \"#utility.yul\":13491:13604   */\n      iszero\n      tag_431\n      jumpi\n        /* \"#utility.yul\":13590:13591   */\n      dup1\n        /* \"#utility.yul\":13585:13588   */\n      dup3\n        /* \"#utility.yul\":13581:13592   */\n      add\n        /* \"#utility.yul\":13575:13593   */\n      mload\n        /* \"#utility.yul\":13571:13572   */\n      dup2\n        /* \"#utility.yul\":13566:13569   */\n      dup5\n        /* \"#utility.yul\":13562:13573   */\n      add\n        /* \"#utility.yul\":13555:13594   */\n      mstore\n        /* \"#utility.yul\":13527:13529   */\n      0x20\n        /* \"#utility.yul\":13524:13525   */\n      dup2\n        /* \"#utility.yul\":13520:13530   */\n      add\n        /* \"#utility.yul\":13515:13530   */\n      swap1\n      pop\n        /* \"#utility.yul\":13491:13604   */\n      jump(tag_429)\n    tag_431:\n        /* \"#utility.yul\":13638:13639   */\n      0x00\n        /* \"#utility.yul\":13629:13635   */\n      dup5\n        /* \"#utility.yul\":13624:13627   */\n      dup5\n        /* \"#utility.yul\":13620:13636   */\n      add\n        /* \"#utility.yul\":13613:13640   */\n      mstore\n        /* \"#utility.yul\":13462:13646   */\n      pop\n        /* \"#utility.yul\":13400:13646   */\n      pop\n      pop\n      pop\n      jump\t// out\n        /* \"#utility.yul\":13652:14042   */\n    tag_273:\n        /* \"#utility.yul\":13758:13761   */\n      0x00\n        /* \"#utility.yul\":13786:13825   */\n      tag_433\n        /* \"#utility.yul\":13819:13824   */\n      dup3\n        /* \"#utility.yul\":13786:13825   */\n      tag_271\n      jump\t// in\n    tag_433:\n        /* \"#utility.yul\":13841:13930   */\n      tag_434\n        /* \"#utility.yul\":13923:13929   */\n      dup2\n        /* \"#utility.yul\":13918:13921   */\n      dup6\n        /* \"#utility.yul\":13841:13930   */\n      tag_268\n      jump\t// in\n    tag_434:\n        /* \"#utility.yul\":13834:13930   */\n      swap4\n      pop\n        /* \"#utility.yul\":13939:14004   */\n      tag_435\n        /* \"#utility.yul\":13997:14003   */\n      dup2\n        /* \"#utility.yul\":13992:13995   */\n      dup6\n        /* \"#utility.yul\":13985:13989   */\n      0x20\n        /* \"#utility.yul\":13978:13983   */\n      dup7\n        /* \"#utility.yul\":13974:13990   */\n      add\n        /* \"#utility.yul\":13939:14004   */\n      tag_272\n      jump\t// in\n    tag_435:\n        /* \"#utility.yul\":14029:14035   */\n      dup1\n        /* \"#utility.yul\":14024:14027   */\n      dup5\n        /* \"#utility.yul\":14020:14036   */\n      add\n        /* \"#utility.yul\":14013:14036   */\n      swap2\n      pop\n        /* \"#utility.yul\":13762:14042   */\n      pop\n        /* \"#utility.yul\":13652:14042   */\n      swap3\n      swap2\n      pop\n      pop\n      jump\t// out\n        /* \"#utility.yul\":14048:14215   */\n    tag_274:\n        /* \"#utility.yul\":14188:14207   */\n      0x206973206d697373696e6720726f6c6520000000000000000000000000000000\n        /* \"#utility.yul\":14184:14185   */\n      0x00\n        /* \"#utility.yul\":14176:14182   */\n      dup3\n        /* \"#utility.yul\":14172:14186   */\n      add\n        /* \"#utility.yul\":14165:14208   */\n      mstore\n        /* \"#utility.yul\":14048:14215   */\n      pop\n      jump\t// out\n        /* \"#utility.yul\":14221:14623   */\n    tag_275:\n        /* \"#utility.yul\":14381:14384   */\n      0x00\n        /* \"#utility.yul\":14402:14487   */\n      tag_438\n        /* \"#utility.yul\":14484:14486   */\n      0x11\n        /* \"#utility.yul\":14479:14482   */\n      dup4\n        /* \"#utility.yul\":14402:14487   */\n      tag_268\n      jump\t// in\n    tag_438:\n        /* \"#utility.yul\":14395:14487   */\n      swap2\n      pop\n        /* \"#utility.yul\":14496:14589   */\n      tag_439\n        /* \"#utility.yul\":14585:14588   */\n      dup3\n        /* \"#utility.yul\":14496:14589   */\n      tag_274\n      jump\t// in\n    tag_439:\n        /* \"#utility.yul\":14614:14616   */\n      0x11\n        /* \"#utility.yul\":14609:14612   */\n      dup3\n        /* \"#utility.yul\":14605:14617   */\n      add\n        /* \"#utility.yul\":14598:14617   */\n      swap1\n      pop\n        /* \"#utility.yul\":14221:14623   */\n      swap2\n      swap1\n      pop\n      jump\t// out\n        /* \"#utility.yul\":14629:15596   */\n    tag_186:\n        /* \"#utility.yul\":15011:15014   */\n      0x00\n        /* \"#utility.yul\":15033:15181   */\n      tag_441\n        /* \"#utility.yul\":15177:15180   */\n      dup3\n        /* \"#utility.yul\":15033:15181   */\n      tag_270\n      jump\t// in\n    tag_441:\n        /* \"#utility.yul\":15026:15181   */\n      swap2\n      pop\n        /* \"#utility.yul\":15198:15293   */\n      tag_442\n        /* \"#utility.yul\":15289:15292   */\n      dup3\n        /* \"#utility.yul\":15280:15286   */\n      dup6\n        /* \"#utility.yul\":15198:15293   */\n      tag_273\n      jump\t// in\n    tag_442:\n        /* \"#utility.yul\":15191:15293   */\n      swap2\n      pop\n        /* \"#utility.yul\":15310:15458   */\n      tag_443\n        /* \"#utility.yul\":15454:15457   */\n      dup3\n        /* \"#utility.yul\":15310:15458   */\n      tag_275\n      jump\t// in\n    tag_443:\n        /* \"#utility.yul\":15303:15458   */\n      swap2\n      pop\n        /* \"#utility.yul\":15475:15570   */\n      tag_444\n        /* \"#utility.yul\":15566:15569   */\n      dup3\n        /* \"#utility.yul\":15557:15563   */\n      dup5\n        /* \"#utility.yul\":15475:15570   */\n      tag_273\n      jump\t// in\n    tag_444:\n        /* \"#utility.yul\":15468:15570   */\n      swap2\n      pop\n        /* \"#utility.yul\":15587:15590   */\n      dup2\n        /* \"#utility.yul\":15580:15590   */\n      swap1\n      pop\n        /* \"#utility.yul\":14629:15596   */\n      swap4\n      swap3\n      pop\n      pop\n      pop\n      jump\t// out\n        /* \"#utility.yul\":15602:15704   */\n    tag_276:\n        /* \"#utility.yul\":15643:15649   */\n      0x00\n        /* \"#utility.yul\":15694:15696   */\n      0x1f\n        /* \"#utility.yul\":15690:15697   */\n      not\n        /* \"#utility.yul\":15685:15687   */\n      0x1f\n        /* \"#utility.yul\":15678:15683   */\n      dup4\n        /* \"#utility.yul\":15674:15688   */\n      add\n        /* \"#utility.yul\":15670:15698   */\n      and\n        /* \"#utility.yul\":15660:15698   */\n      swap1\n      pop\n        /* \"#utility.yul\":15602:15704   */\n      swap2\n      swap1\n      pop\n      jump\t// out\n        /* \"#utility.yul\":15710:16087   */\n    tag_277:\n        /* \"#utility.yul\":15798:15801   */\n      0x00\n        /* \"#utility.yul\":15826:15865   */\n      tag_447\n        /* \"#utility.yul\":15859:15864   */\n      dup3\n        /* \"#utility.yul\":15826:15865   */\n      tag_271\n      jump\t// in\n    tag_447:\n        /* \"#utility.yul\":15881:15952   */\n      tag_448\n        /* \"#utility.yul\":15945:15951   */\n      dup2\n        /* \"#utility.yul\":15940:15943   */\n      dup6\n        /* \"#utility.yul\":15881:15952   */\n      tag_244\n      jump\t// in\n    tag_448:\n        /* \"#utility.yul\":15874:15952   */\n      swap4\n      pop\n        /* \"#utility.yul\":15961:16026   */\n      tag_449\n        /* \"#utility.yul\":16019:16025   */\n      dup2\n        /* \"#utility.yul\":16014:16017   */\n      dup6\n        /* \"#utility.yul\":16007:16011   */\n      0x20\n        /* \"#utility.yul\":16000:16005   */\n      dup7\n        /* \"#utility.yul\":15996:16012   */\n      add\n        /* \"#utility.yul\":15961:16026   */\n      tag_272\n      jump\t// in\n    tag_449:\n        /* \"#utility.yul\":16051:16080   */\n      tag_450\n        /* \"#utility.yul\":16073:16079   */\n      dup2\n        /* \"#utility.yul\":16051:16080   */\n      tag_276\n      jump\t// in\n    tag_450:\n        /* \"#utility.yul\":16046:16049   */\n      dup5\n        /* \"#utility.yul\":16042:16081   */\n      add\n        /* \"#utility.yul\":16035:16081   */\n      swap2\n      pop\n        /* \"#utility.yul\":15802:16087   */\n      pop\n        /* \"#utility.yul\":15710:16087   */\n      swap3\n      swap2\n      pop\n      pop\n      jump\t// out\n        /* \"#utility.yul\":16093:16406   */\n    tag_188:\n        /* \"#utility.yul\":16206:16210   */\n      0x00\n        /* \"#utility.yul\":16244:16246   */\n      0x20\n        /* \"#utility.yul\":16233:16242   */\n      dup3\n        /* \"#utility.yul\":16229:16247   */\n      add\n        /* \"#utility.yul\":16221:16247   */\n      swap1\n      pop\n        /* \"#utility.yul\":16293:16302   */\n      dup2\n        /* \"#utility.yul\":16287:16291   */\n      dup2\n        /* \"#utility.yul\":16283:16303   */\n      sub\n        /* \"#utility.yul\":16279:16280   */\n      0x00\n        /* \"#utility.yul\":16268:16277   */\n      dup4\n        /* \"#utility.yul\":16264:16281   */\n      add\n        /* \"#utility.yul\":16257:16304   */\n      mstore\n        /* \"#utility.yul\":16321:16399   */\n      tag_452\n        /* \"#utility.yul\":16394:16398   */\n      dup2\n        /* \"#utility.yul\":16385:16391   */\n      dup5\n        /* \"#utility.yul\":16321:16399   */\n      tag_277\n      jump\t// in\n    tag_452:\n        /* \"#utility.yul\":16313:16399   */\n      swap1\n      pop\n        /* \"#utility.yul\":16093:16406   */\n      swap3\n      swap2\n      pop\n      pop\n      jump\t// out\n        /* \"#utility.yul\":16412:16582   */\n    tag_278:\n        /* \"#utility.yul\":16552:16574   */\n      0x5061757361626c653a206e6f7420706175736564000000000000000000000000\n        /* \"#utility.yul\":16548:16549   */\n      0x00\n        /* \"#utility.yul\":16540:16546   */\n      dup3\n        /* \"#utility.yul\":16536:16550   */\n      add\n        /* \"#utility.yul\":16529:16575   */\n      mstore\n        /* \"#utility.yul\":16412:16582   */\n      pop\n      jump\t// out\n        /* \"#utility.yul\":16588:16954   */\n    tag_279:\n        /* \"#utility.yul\":16730:16733   */\n      0x00\n        /* \"#utility.yul\":16751:16818   */\n      tag_455\n        /* \"#utility.yul\":16815:16817   */\n      0x14\n        /* \"#utility.yul\":16810:16813   */\n      dup4\n        /* \"#utility.yul\":16751:16818   */\n      tag_244\n      jump\t// in\n    tag_455:\n        /* \"#utility.yul\":16744:16818   */\n      swap2\n      pop\n        /* \"#utility.yul\":16827:16920   */\n      tag_456\n        /* \"#utility.yul\":16916:16919   */\n      dup3\n        /* \"#utility.yul\":16827:16920   */\n      tag_278\n      jump\t// in\n    tag_456:\n        /* \"#utility.yul\":16945:16947   */\n      0x20\n        /* \"#utility.yul\":16940:16943   */\n      dup3\n        /* \"#utility.yul\":16936:16948   */\n      add\n        /* \"#utility.yul\":16929:16948   */\n      swap1\n      pop\n        /* \"#utility.yul\":16588:16954   */\n      swap2\n      swap1\n      pop\n      jump\t// out\n        /* \"#utility.yul\":16960:17379   */\n    tag_193:\n        /* \"#utility.yul\":17126:17130   */\n      0x00\n        /* \"#utility.yul\":17164:17166   */\n      0x20\n        /* \"#utility.yul\":17153:17162   */\n      dup3\n        /* \"#utility.yul\":17149:17167   */\n      add\n        /* \"#utility.yul\":17141:17167   */\n      swap1\n      pop\n        /* \"#utility.yul\":17213:17222   */\n      dup2\n        /* \"#utility.yul\":17207:17211   */\n      dup2\n        /* \"#utility.yul\":17203:17223   */\n      sub\n        /* \"#utility.yul\":17199:17200   */\n      0x00\n        /* \"#utility.yul\":17188:17197   */\n      dup4\n        /* \"#utility.yul\":17184:17201   */\n      add\n        /* \"#utility.yul\":17177:17224   */\n      mstore\n        /* \"#utility.yul\":17241:17372   */\n      tag_458\n        /* \"#utility.yul\":17367:17371   */\n      dup2\n        /* \"#utility.yul\":17241:17372   */\n      tag_279\n      jump\t// in\n    tag_458:\n        /* \"#utility.yul\":17233:17372   */\n      swap1\n      pop\n        /* \"#utility.yul\":16960:17379   */\n      swap2\n      swap1\n      pop\n      jump\t// out\n        /* \"#utility.yul\":17385:17551   */\n    tag_280:\n        /* \"#utility.yul\":17525:17543   */\n      0x5061757361626c653a2070617573656400000000000000000000000000000000\n        /* \"#utility.yul\":17521:17522   */\n      0x00\n        /* \"#utility.yul\":17513:17519   */\n      dup3\n        /* \"#utility.yul\":17509:17523   */\n      add\n        /* \"#utility.yul\":17502:17544   */\n      mstore\n        /* \"#utility.yul\":17385:17551   */\n      pop\n      jump\t// out\n        /* \"#utility.yul\":17557:17923   */\n    tag_281:\n        /* \"#utility.yul\":17699:17702   */\n      0x00\n        /* \"#utility.yul\":17720:17787   */\n      tag_461\n        /* \"#utility.yul\":17784:17786   */\n      0x10\n        /* \"#utility.yul\":17779:17782   */\n      dup4\n        /* \"#utility.yul\":17720:17787   */\n      tag_244\n      jump\t// in\n    tag_461:\n        /* \"#utility.yul\":17713:17787   */\n      swap2\n      pop\n        /* \"#utility.yul\":17796:17889   */\n      tag_462\n        /* \"#utility.yul\":17885:17888   */\n      dup3\n        /* \"#utility.yul\":17796:17889   */\n      tag_280\n      jump\t// in\n    tag_462:\n        /* \"#utility.yul\":17914:17916   */\n      0x20\n        /* \"#utility.yul\":17909:17912   */\n      dup3\n        /* \"#utility.yul\":17905:17917   */\n      add\n        /* \"#utility.yul\":17898:17917   */\n      swap1\n      pop\n        /* \"#utility.yul\":17557:17923   */\n      swap2\n      swap1\n      pop\n      jump\t// out\n        /* \"#utility.yul\":17929:18348   */\n    tag_198:\n        /* \"#utility.yul\":18095:18099   */\n      0x00\n        /* \"#utility.yul\":18133:18135   */\n      0x20\n        /* \"#utility.yul\":18122:18131   */\n      dup3\n        /* \"#utility.yul\":18118:18136   */\n      add\n        /* \"#utility.yul\":18110:18136   */\n      swap1\n      pop\n        /* \"#utility.yul\":18182:18191   */\n      dup2\n        /* \"#utility.yul\":18176:18180   */\n      dup2\n        /* \"#utility.yul\":18172:18192   */\n      sub\n        /* \"#utility.yul\":18168:18169   */\n      0x00\n        /* \"#utility.yul\":18157:18166   */\n      dup4\n        /* \"#utility.yul\":18153:18170   */\n      add\n        /* \"#utility.yul\":18146:18193   */\n      mstore\n        /* \"#utility.yul\":18210:18341   */\n      tag_464\n        /* \"#utility.yul\":18336:18340   */\n      dup2\n        /* \"#utility.yul\":18210:18341   */\n      tag_281\n      jump\t// in\n    tag_464:\n        /* \"#utility.yul\":18202:18341   */\n      swap1\n      pop\n        /* \"#utility.yul\":17929:18348   */\n      swap2\n      swap1\n      pop\n      jump\t// out\n        /* \"#utility.yul\":18354:18764   */\n    tag_201:\n        /* \"#utility.yul\":18394:18401   */\n      0x00\n        /* \"#utility.yul\":18417:18437   */\n      tag_466\n        /* \"#utility.yul\":18435:18436   */\n      dup3\n        /* \"#utility.yul\":18417:18437   */\n      tag_254\n      jump\t// in\n    tag_466:\n        /* \"#utility.yul\":18412:18437   */\n      swap2\n      pop\n        /* \"#utility.yul\":18451:18471   */\n      tag_467\n        /* \"#utility.yul\":18469:18470   */\n      dup4\n        /* \"#utility.yul\":18451:18471   */\n      tag_254\n      jump\t// in\n    tag_467:\n        /* \"#utility.yul\":18446:18471   */\n      swap3\n      pop\n        /* \"#utility.yul\":18506:18507   */\n      dup3\n        /* \"#utility.yul\":18503:18504   */\n      dup3\n        /* \"#utility.yul\":18499:18508   */\n      mul\n        /* \"#utility.yul\":18528:18558   */\n      tag_468\n        /* \"#utility.yul\":18546:18557   */\n      dup2\n        /* \"#utility.yul\":18528:18558   */\n      tag_254\n      jump\t// in\n    tag_468:\n        /* \"#utility.yul\":18517:18558   */\n      swap2\n      pop\n        /* \"#utility.yul\":18707:18708   */\n      dup3\n        /* \"#utility.yul\":18698:18705   */\n      dup3\n        /* \"#utility.yul\":18694:18709   */\n      div\n        /* \"#utility.yul\":18691:18692   */\n      dup5\n        /* \"#utility.yul\":18688:18710   */\n      eq\n        /* \"#utility.yul\":18668:18669   */\n      dup4\n        /* \"#utility.yul\":18661:18670   */\n      iszero\n        /* \"#utility.yul\":18641:18724   */\n      or\n        /* \"#utility.yul\":18618:18757   */\n      tag_469\n      jumpi\n        /* \"#utility.yul\":18737:18755   */\n      tag_470\n      tag_256\n      jump\t// in\n    tag_470:\n        /* \"#utility.yul\":18618:18757   */\n    tag_469:\n        /* \"#utility.yul\":18402:18764   */\n      pop\n        /* \"#utility.yul\":18354:18764   */\n      swap3\n      swap2\n      pop\n      pop\n      jump\t// out\n        /* \"#utility.yul\":18770:18950   */\n    tag_205:\n        /* \"#utility.yul\":18818:18895   */\n      0x4e487b7100000000000000000000000000000000000000000000000000000000\n        /* \"#utility.yul\":18815:18816   */\n      0x00\n        /* \"#utility.yul\":18808:18896   */\n      mstore\n        /* \"#utility.yul\":18915:18919   */\n      0x41\n        /* \"#utility.yul\":18912:18913   */\n      0x04\n        /* \"#utility.yul\":18905:18920   */\n      mstore\n        /* \"#utility.yul\":18939:18943   */\n      0x24\n        /* \"#utility.yul\":18936:18937   */\n      0x00\n        /* \"#utility.yul\":18929:18944   */\n      revert\n        /* \"#utility.yul\":18956:19136   */\n    tag_209:\n        /* \"#utility.yul\":19004:19081   */\n      0x4e487b7100000000000000000000000000000000000000000000000000000000\n        /* \"#utility.yul\":19001:19002   */\n      0x00\n        /* \"#utility.yul\":18994:19082   */\n      mstore\n        /* \"#utility.yul\":19101:19105   */\n      0x32\n        /* \"#utility.yul\":19098:19099   */\n      0x04\n        /* \"#utility.yul\":19091:19106   */\n      mstore\n        /* \"#utility.yul\":19125:19129   */\n      0x24\n        /* \"#utility.yul\":19122:19123   */\n      0x00\n        /* \"#utility.yul\":19115:19130   */\n      revert\n        /* \"#utility.yul\":19142:19313   */\n    tag_222:\n        /* \"#utility.yul\":19181:19184   */\n      0x00\n        /* \"#utility.yul\":19204:19228   */\n      tag_474\n        /* \"#utility.yul\":19222:19227   */\n      dup3\n        /* \"#utility.yul\":19204:19228   */\n      tag_254\n      jump\t// in\n    tag_474:\n        /* \"#utility.yul\":19195:19228   */\n      swap2\n      pop\n        /* \"#utility.yul\":19250:19254   */\n      0x00\n        /* \"#utility.yul\":19243:19248   */\n      dup3\n        /* \"#utility.yul\":19240:19255   */\n      sub\n        /* \"#utility.yul\":19237:19278   */\n      tag_475\n      jumpi\n        /* \"#utility.yul\":19258:19276   */\n      tag_476\n      tag_256\n      jump\t// in\n    tag_476:\n        /* \"#utility.yul\":19237:19278   */\n    tag_475:\n        /* \"#utility.yul\":19305:19306   */\n      0x01\n        /* \"#utility.yul\":19298:19303   */\n      dup3\n        /* \"#utility.yul\":19294:19307   */\n      sub\n        /* \"#utility.yul\":19287:19307   */\n      swap1\n      pop\n        /* \"#utility.yul\":19142:19313   */\n      swap2\n      swap1\n      pop\n      jump\t// out\n        /* \"#utility.yul\":19319:19501   */\n    tag_282:\n        /* \"#utility.yul\":19459:19493   */\n      0x537472696e67733a20686578206c656e67746820696e73756666696369656e74\n        /* \"#utility.yul\":19455:19456   */\n      0x00\n        /* \"#utility.yul\":19447:19453   */\n      dup3\n        /* \"#utility.yul\":19443:19457   */\n      add\n        /* \"#utility.yul\":19436:19494   */\n      mstore\n        /* \"#utility.yul\":19319:19501   */\n      pop\n      jump\t// out\n        /* \"#utility.yul\":19507:19873   */\n    tag_283:\n        /* \"#utility.yul\":19649:19652   */\n      0x00\n        /* \"#utility.yul\":19670:19737   */\n      tag_479\n        /* \"#utility.yul\":19734:19736   */\n      0x20\n        /* \"#utility.yul\":19729:19732   */\n      dup4\n        /* \"#utility.yul\":19670:19737   */\n      tag_244\n      jump\t// in\n    tag_479:\n        /* \"#utility.yul\":19663:19737   */\n      swap2\n      pop\n        /* \"#utility.yul\":19746:19839   */\n      tag_480\n        /* \"#utility.yul\":19835:19838   */\n      dup3\n        /* \"#utility.yul\":19746:19839   */\n      tag_282\n      jump\t// in\n    tag_480:\n        /* \"#utility.yul\":19864:19866   */\n      0x20\n        /* \"#utility.yul\":19859:19862   */\n      dup3\n        /* \"#utility.yul\":19855:19867   */\n      add\n        /* \"#utility.yul\":19848:19867   */\n      swap1\n      pop\n        /* \"#utility.yul\":19507:19873   */\n      swap2\n      swap1\n      pop\n      jump\t// out\n        /* \"#utility.yul\":19879:20298   */\n    tag_225:\n        /* \"#utility.yul\":20045:20049   */\n      0x00\n        /* \"#utility.yul\":20083:20085   */\n      0x20\n        /* \"#utility.yul\":20072:20081   */\n      dup3\n        /* \"#utility.yul\":20068:20086   */\n      add\n        /* \"#utility.yul\":20060:20086   */\n      swap1\n      pop\n        /* \"#utility.yul\":20132:20141   */\n      dup2\n        /* \"#utility.yul\":20126:20130   */\n      dup2\n        /* \"#utility.yul\":20122:20142   */\n      sub\n        /* \"#utility.yul\":20118:20119   */\n      0x00\n        /* \"#utility.yul\":20107:20116   */\n      dup4\n        /* \"#utility.yul\":20103:20120   */\n      add\n        /* \"#utility.yul\":20096:20143   */\n      mstore\n        /* \"#utility.yul\":20160:20291   */\n      tag_482\n        /* \"#utility.yul\":20286:20290   */\n      dup2\n        /* \"#utility.yul\":20160:20291   */\n      tag_283\n      jump\t// in\n    tag_482:\n        /* \"#utility.yul\":20152:20291   */\n      swap1\n      pop\n        /* \"#utility.yul\":19879:20298   */\n      swap2\n      swap1\n      pop\n      jump\t// out\n\n    auxdata: 0xa26469706673582212200d6eb79522f10a0ddaae175dc7202fbb64ddd998b5149fbbf6822cadde73038864736f6c63430008110033\n}\n",
				"bytecode": {
					"linkReferences": {},
					"object": "6080604052678ac7230489e800006005553480156200001d57600080fd5b5060008060006101000a81548160ff0219169083151502179055506200004d6000801b336200008560201b60201c565b6200007f7f65d7a28e3265b37a6474929f336521b332c1681b933f6cb9f3376673440d862a336200008560201b60201c565b620001e9565b6200009782826200017660201b60201c565b6200017257600180600084815260200190815260200160002060000160008373ffffffffffffffffffffffffffffffffffffffff1673ffffffffffffffffffffffffffffffffffffffff16815260200190815260200160002060006101000a81548160ff02191690831515021790555062000117620001e160201b60201c565b73ffffffffffffffffffffffffffffffffffffffff168173ffffffffffffffffffffffffffffffffffffffff16837f2f8788117e7eff1d82e926ec794901d17c78024a50270940304540a733656f0d60405160405180910390a45b5050565b60006001600084815260200190815260200160002060000160008373ffffffffffffffffffffffffffffffffffffffff1673ffffffffffffffffffffffffffffffffffffffff16815260200190815260200160002060009054906101000a900460ff16905092915050565b600033905090565b611bd680620001f96000396000f3fe608060405234801561001057600080fd5b50600436106100f55760003560e01c80638456cb5911610097578063a217fddf11610066578063a217fddf1461024a578063d547741f14610268578063e63ab1e914610284578063eef8d491146102a2576100f5565b80638456cb59146101d6578063865933ee146101e05780638f09f154146101fe57806391d148541461021a576100f5565b80632f2ff15d116100d35780632f2ff15d1461017657806336568abe146101925780633f4ba83a146101ae5780635c975abb146101b8576100f5565b806301ffc9a7146100fa5780631ca3b0201461012a578063248a9ca314610146575b600080fd5b610114600480360381019061010f9190611170565b6102ac565b60405161012191906111b8565b60405180910390f35b610144600480360381019061013f919061125d565b610326565b005b610160600480360381019061015b91906112d3565b6103ac565b60405161016d919061130f565b60405180910390f35b610190600480360381019061018b919061132a565b6103cc565b005b6101ac60048036038101906101a7919061132a565b6103ed565b005b6101b6610470565b005b6101c06104a5565b6040516101cd91906111b8565b60405180910390f35b6101de6104bb565b005b6101e86104f0565b6040516101f5919061130f565b60405180910390f35b6102186004803603810190610213919061136a565b610514565b005b610234600480360381019061022f919061132a565b610894565b60405161024191906111b8565b60405180910390f35b6102526108ff565b60405161025f919061130f565b60405180910390f35b610282600480360381019061027d919061132a565b610906565b005b61028c610927565b604051610299919061130f565b60405180910390f35b6102aa61094b565b005b60007f7965db0b000000000000000000000000000000000000000000000000000000007bffffffffffffffffffffffffffffffffffffffffffffffffffffffff1916827bffffffffffffffffffffffffffffffffffffffffffffffffffffffff1916148061031f575061031e82610a4f565b5b9050919050565b7f22cb74f64761c93ce6756ae9e9c4dc3f25b4b70302a7bc77f586c0ed93a6638561035081610ab9565b81600260008573ffffffffffffffffffffffffffffffffffffffff1673ffffffffffffffffffffffffffffffffffffffff16815260200190815260200160002060006101000a81548160ff021916908315150217905550505050565b600060016000838152602001908152602001600020600101549050919050565b6103d5826103ac565b6103de81610ab9565b6103e88383610acd565b505050565b6103f5610bad565b73ffffffffffffffffffffffffffffffffffffffff168173ffffffffffffffffffffffffffffffffffffffff1614610462576040517f08c379a00000000000000000000000000000000000000000000000000000000081526004016104599061141a565b60405180910390fd5b61046c8282610bb5565b5050565b7f65d7a28e3265b37a6474929f336521b332c1681b933f6cb9f3376673440d862a61049a81610ab9565b6104a2610c97565b50565b60008060009054906101000a900460ff16905090565b7f65d7a28e3265b37a6474929f336521b332c1681b933f6cb9f3376673440d862a6104e581610ab9565b6104ed610cf9565b50565b7f22cb74f64761c93ce6756ae9e9c4dc3f25b4b70302a7bc77f586c0ed93a6638581565b60011515600260003373ffffffffffffffffffffffffffffffffffffffff1673ffffffffffffffffffffffffffffffffffffffff16815260200190815260200160002060009054906101000a900460ff161515146105a7576040517f08c379a000000000000000000000000000000000000000000000000000000000815260040161059e90611486565b60405180910390fd5b60006105b1610d5b565b9050600360003373ffffffffffffffffffffffffffffffffffffffff1673ffffffffffffffffffffffffffffffffffffffff16815260200190815260200160002060009054906101000a900460ff1615610640576040517f08c379a0000000000000000000000000000000000000000000000000000000008152600401610637906114f2565b60405180910390fd5b6005546006541115610687576040517f08c379a000000000000000000000000000000000000000000000000000000000815260040161067e9061155e565b60405180910390fd5b600460009054906101000a900473ffffffffffffffffffffffffffffffffffffffff1673ffffffffffffffffffffffffffffffffffffffff166340c10f1933836040518363ffffffff1660e01b81526004016106e49291906115a6565b600060405180830381600087803b1580156106fe57600080fd5b505af1158015610712573d6000803e3d6000fd5b505050506001600360003373ffffffffffffffffffffffffffffffffffffffff1673ffffffffffffffffffffffffffffffffffffffff16815260200190815260200160002060006101000a81548160ff021916908315150217905550806006600082825461078091906115fe565b92505081905550811561089057600460009054906101000a900473ffffffffffffffffffffffffffffffffffffffff1673ffffffffffffffffffffffffffffffffffffffff16639dc29fac33600a6040518363ffffffff1660e01b81526004016107eb929190611677565b600060405180830381600087803b15801561080557600080fd5b505af1158015610819573d6000803e3d6000fd5b50505050600a6006600082825461083091906116a0565b925050819055506000600360003373ffffffffffffffffffffffffffffffffffffffff1673ffffffffffffffffffffffffffffffffffffffff16815260200190815260200160002060006101000a81548160ff0219169083151502179055505b5050565b60006001600084815260200190815260200160002060000160008373ffffffffffffffffffffffffffffffffffffffff1673ffffffffffffffffffffffffffffffffffffffff16815260200190815260200160002060009054906101000a900460ff16905092915050565b6000801b81565b61090f826103ac565b61091881610ab9565b6109228383610bb5565b505050565b7f65d7a28e3265b37a6474929f336521b332c1681b933f6cb9f3376673440d862a81565b600460009054906101000a900473ffffffffffffffffffffffffffffffffffffffff1673ffffffffffffffffffffffffffffffffffffffff16639dc29fac33600a6040518363ffffffff1660e01b81526004016109a9929190611677565b600060405180830381600087803b1580156109c357600080fd5b505af11580156109d7573d6000803e3d6000fd5b50505050600a600660008282546109ee91906116a0565b925050819055506000600360003373ffffffffffffffffffffffffffffffffffffffff1673ffffffffffffffffffffffffffffffffffffffff16815260200190815260200160002060006101000a81548160ff021916908315150217905550565b60007f01ffc9a7000000000000000000000000000000000000000000000000000000007bffffffffffffffffffffffffffffffffffffffffffffffffffffffff1916827bffffffffffffffffffffffffffffffffffffffffffffffffffffffff1916149050919050565b610aca81610ac5610bad565b610da7565b50565b610ad78282610894565b610ba957600180600084815260200190815260200160002060000160008373ffffffffffffffffffffffffffffffffffffffff1673ffffffffffffffffffffffffffffffffffffffff16815260200190815260200160002060006101000a81548160ff021916908315150217905550610b4e610bad565b73ffffffffffffffffffffffffffffffffffffffff168173ffffffffffffffffffffffffffffffffffffffff16837f2f8788117e7eff1d82e926ec794901d17c78024a50270940304540a733656f0d60405160405180910390a45b5050565b600033905090565b610bbf8282610894565b15610c935760006001600084815260200190815260200160002060000160008373ffffffffffffffffffffffffffffffffffffffff1673ffffffffffffffffffffffffffffffffffffffff16815260200190815260200160002060006101000a81548160ff021916908315150217905550610c38610bad565b73ffffffffffffffffffffffffffffffffffffffff168173ffffffffffffffffffffffffffffffffffffffff16837ff6391f5c32d9c69d2a47ea670b442974b53935d1edc7fd64eb21e047a839171b60405160405180910390a45b5050565b610c9f610e44565b60008060006101000a81548160ff0219169083151502179055507f5db9ee0a495bf2e6ff9c91a7834c1ba4fdd244a5e8aa4e537bd38aeae4b073aa610ce2610bad565b604051610cef91906116d4565b60405180910390a1565b610d01610e8d565b60016000806101000a81548160ff0219169083151502179055507f62e78cea01bee320cd4e420270b5ea74000d11b0c9f74754ebdbfc544b05a258610d44610bad565b604051610d5191906116d4565b60405180910390a1565b600060016103e84233604051602001610d75929190611758565b6040516020818303038152906040528051906020012060001c610d9891906117b3565b610da291906115fe565b905090565b610db18282610894565b610e4057610dd68173ffffffffffffffffffffffffffffffffffffffff166014610ed7565b610de48360001c6020610ed7565b604051602001610df59291906118ed565b6040516020818303038152906040526040517f08c379a0000000000000000000000000000000000000000000000000000000008152600401610e379190611971565b60405180910390fd5b5050565b610e4c6104a5565b610e8b576040517f08c379a0000000000000000000000000000000000000000000000000000000008152600401610e82906119df565b60405180910390fd5b565b610e956104a5565b15610ed5576040517f08c379a0000000000000000000000000000000000000000000000000000000008152600401610ecc90611a4b565b60405180910390fd5b565b606060006002836002610eea9190611a6b565b610ef491906115fe565b67ffffffffffffffff811115610f0d57610f0c611aad565b5b6040519080825280601f01601f191660200182016040528015610f3f5781602001600182028036833780820191505090505b5090507f300000000000000000000000000000000000000000000000000000000000000081600081518110610f7757610f76611adc565b5b60200101907effffffffffffffffffffffffffffffffffffffffffffffffffffffffffffff1916908160001a9053507f780000000000000000000000000000000000000000000000000000000000000081600181518110610fdb57610fda611adc565b5b60200101907effffffffffffffffffffffffffffffffffffffffffffffffffffffffffffff1916908160001a9053506000600184600261101b9190611a6b565b61102591906115fe565b90505b60018111156110c5577f3031323334353637383961626364656600000000000000000000000000000000600f86166010811061106757611066611adc565b5b1a60f81b82828151811061107e5761107d611adc565b5b60200101907effffffffffffffffffffffffffffffffffffffffffffffffffffffffffffff1916908160001a905350600485901c9450806110be90611b0b565b9050611028565b5060008414611109576040517f08c379a000000000000000000000000000000000000000000000000000000000815260040161110090611b80565b60405180910390fd5b8091505092915050565b600080fd5b60007fffffffff0000000000000000000000000000000000000000000000000000000082169050919050565b61114d81611118565b811461115857600080fd5b50565b60008135905061116a81611144565b92915050565b60006020828403121561118657611185611113565b5b60006111948482850161115b565b91505092915050565b60008115159050919050565b6111b28161119d565b82525050565b60006020820190506111cd60008301846111a9565b92915050565b600073ffffffffffffffffffffffffffffffffffffffff82169050919050565b60006111fe826111d3565b9050919050565b61120e816111f3565b811461121957600080fd5b50565b60008135905061122b81611205565b92915050565b61123a8161119d565b811461124557600080fd5b50565b60008135905061125781611231565b92915050565b6000806040838503121561127457611273611113565b5b60006112828582860161121c565b925050602061129385828601611248565b9150509250929050565b6000819050919050565b6112b08161129d565b81146112bb57600080fd5b50565b6000813590506112cd816112a7565b92915050565b6000602082840312156112e9576112e8611113565b5b60006112f7848285016112be565b91505092915050565b6113098161129d565b82525050565b60006020820190506113246000830184611300565b92915050565b6000806040838503121561134157611340611113565b5b600061134f858286016112be565b92505060206113608582860161121c565b9150509250929050565b6000602082840312156113805761137f611113565b5b600061138e84828501611248565b91505092915050565b600082825260208201905092915050565b7f416363657373436f6e74726f6c3a2063616e206f6e6c792072656e6f756e636560008201527f20726f6c657320666f722073656c660000000000000000000000000000000000602082015250565b6000611404602f83611397565b915061140f826113a8565b604082019050919050565b60006020820190508181036000830152611433816113f7565b9050919050565b7f4e6f2070657274656e6563652061204c6973746120426c616e63610000000000600082015250565b6000611470601b83611397565b915061147b8261143a565b602082019050919050565b6000602082019050818103600083015261149f81611463565b9050919050565b7f5961207265636962696f00000000000000000000000000000000000000000000600082015250565b60006114dc600a83611397565b91506114e7826114a6565b602082019050919050565b6000602082019050818103600083015261150b816114cf565b9050919050565b7f53757065726f206d6178696d6f20746f6b656e732072657061727469646f7300600082015250565b6000611548601f83611397565b915061155382611512565b602082019050919050565b600060208201905081810360008301526115778161153b565b9050919050565b611587816111f3565b82525050565b6000819050919050565b6115a08161158d565b82525050565b60006040820190506115bb600083018561157e565b6115c86020830184611597565b9392505050565b7f4e487b7100000000000000000000000000000000000000000000000000000000600052601160045260246000fd5b60006116098261158d565b91506116148361158d565b925082820190508082111561162c5761162b6115cf565b5b92915050565b6000819050919050565b6000819050919050565b600061166161165c61165784611632565b61163c565b61158d565b9050919050565b61167181611646565b82525050565b600060408201905061168c600083018561157e565b6116996020830184611668565b9392505050565b60006116ab8261158d565b91506116b68361158d565b92508282039050818111156116ce576116cd6115cf565b5b92915050565b60006020820190506116e9600083018461157e565b92915050565b6000819050919050565b61170a6117058261158d565b6116ef565b82525050565b60008160601b9050919050565b600061172882611710565b9050919050565b600061173a8261171d565b9050919050565b61175261174d826111f3565b61172f565b82525050565b600061176482856116f9565b6020820191506117748284611741565b6014820191508190509392505050565b7f4e487b7100000000000000000000000000000000000000000000000000000000600052601260045260246000fd5b60006117be8261158d565b91506117c98361158d565b9250826117d9576117d8611784565b5b828206905092915050565b600081905092915050565b7f416363657373436f6e74726f6c3a206163636f756e7420000000000000000000600082015250565b60006118256017836117e4565b9150611830826117ef565b601782019050919050565b600081519050919050565b60005b83811015611864578082015181840152602081019050611849565b60008484015250505050565b600061187b8261183b565b61188581856117e4565b9350611895818560208601611846565b80840191505092915050565b7f206973206d697373696e6720726f6c6520000000000000000000000000000000600082015250565b60006118d76011836117e4565b91506118e2826118a1565b601182019050919050565b60006118f882611818565b91506119048285611870565b915061190f826118ca565b915061191b8284611870565b91508190509392505050565b6000601f19601f8301169050919050565b60006119438261183b565b61194d8185611397565b935061195d818560208601611846565b61196681611927565b840191505092915050565b6000602082019050818103600083015261198b8184611938565b905092915050565b7f5061757361626c653a206e6f7420706175736564000000000000000000000000600082015250565b60006119c9601483611397565b91506119d482611993565b602082019050919050565b600060208201905081810360008301526119f8816119bc565b9050919050565b7f5061757361626c653a2070617573656400000000000000000000000000000000600082015250565b6000611a35601083611397565b9150611a40826119ff565b602082019050919050565b60006020820190508181036000830152611a6481611a28565b9050919050565b6000611a768261158d565b9150611a818361158d565b9250828202611a8f8161158d565b91508282048414831517611aa657611aa56115cf565b5b5092915050565b7f4e487b7100000000000000000000000000000000000000000000000000000000600052604160045260246000fd5b7f4e487b7100000000000000000000000000000000000000000000000000000000600052603260045260246000fd5b6000611b168261158d565b915060008203611b2957611b286115cf565b5b600182039050919050565b7f537472696e67733a20686578206c656e67746820696e73756666696369656e74600082015250565b6000611b6a602083611397565b9150611b7582611b34565b602082019050919050565b60006020820190508181036000830152611b9981611b5d565b905091905056fea26469706673582212200d6eb79522f10a0ddaae175dc7202fbb64ddd998b5149fbbf6822cadde73038864736f6c63430008110033",
					"opcodes": "PUSH1 0x80 PUSH1 0x40 MSTORE PUSH8 0x8AC7230489E80000 PUSH1 0x5 SSTORE CALLVALUE DUP1 ISZERO PUSH3 0x1D JUMPI PUSH1 0x0 DUP1 REVERT JUMPDEST POP PUSH1 0x0 DUP1 PUSH1 0x0 PUSH2 0x100 EXP DUP2 SLOAD DUP2 PUSH1 0xFF MUL NOT AND SWAP1 DUP4 ISZERO ISZERO MUL OR SWAP1 SSTORE POP PUSH3 0x4D PUSH1 0x0 DUP1 SHL CALLER PUSH3 0x85 PUSH1 0x20 SHL PUSH1 0x20 SHR JUMP JUMPDEST PUSH3 0x7F PUSH32 0x65D7A28E3265B37A6474929F336521B332C1681B933F6CB9F3376673440D862A CALLER PUSH3 0x85 PUSH1 0x20 SHL PUSH1 0x20 SHR JUMP JUMPDEST PUSH3 0x1E9 JUMP JUMPDEST PUSH3 0x97 DUP3 DUP3 PUSH3 0x176 PUSH1 0x20 SHL PUSH1 0x20 SHR JUMP JUMPDEST PUSH3 0x172 JUMPI PUSH1 0x1 DUP1 PUSH1 0x0 DUP5 DUP2 MSTORE PUSH1 0x20 ADD SWAP1 DUP2 MSTORE PUSH1 0x20 ADD PUSH1 0x0 KECCAK256 PUSH1 0x0 ADD PUSH1 0x0 DUP4 PUSH20 0xFFFFFFFFFFFFFFFFFFFFFFFFFFFFFFFFFFFFFFFF AND PUSH20 0xFFFFFFFFFFFFFFFFFFFFFFFFFFFFFFFFFFFFFFFF AND DUP2 MSTORE PUSH1 0x20 ADD SWAP1 DUP2 MSTORE PUSH1 0x20 ADD PUSH1 0x0 KECCAK256 PUSH1 0x0 PUSH2 0x100 EXP DUP2 SLOAD DUP2 PUSH1 0xFF MUL NOT AND SWAP1 DUP4 ISZERO ISZERO MUL OR SWAP1 SSTORE POP PUSH3 0x117 PUSH3 0x1E1 PUSH1 0x20 SHL PUSH1 0x20 SHR JUMP JUMPDEST PUSH20 0xFFFFFFFFFFFFFFFFFFFFFFFFFFFFFFFFFFFFFFFF AND DUP2 PUSH20 0xFFFFFFFFFFFFFFFFFFFFFFFFFFFFFFFFFFFFFFFF AND DUP4 PUSH32 0x2F8788117E7EFF1D82E926EC794901D17C78024A50270940304540A733656F0D PUSH1 0x40 MLOAD PUSH1 0x40 MLOAD DUP1 SWAP2 SUB SWAP1 LOG4 JUMPDEST POP POP JUMP JUMPDEST PUSH1 0x0 PUSH1 0x1 PUSH1 0x0 DUP5 DUP2 MSTORE PUSH1 0x20 ADD SWAP1 DUP2 MSTORE PUSH1 0x20 ADD PUSH1 0x0 KECCAK256 PUSH1 0x0 ADD PUSH1 0x0 DUP4 PUSH20 0xFFFFFFFFFFFFFFFFFFFFFFFFFFFFFFFFFFFFFFFF AND PUSH20 0xFFFFFFFFFFFFFFFFFFFFFFFFFFFFFFFFFFFFFFFF AND DUP2 MSTORE PUSH1 0x20 ADD SWAP1 DUP2 MSTORE PUSH1 0x20 ADD PUSH1 0x0 KECCAK256 PUSH1 0x0 SWAP1 SLOAD SWAP1 PUSH2 0x100 EXP SWAP1 DIV PUSH1 0xFF AND SWAP1 POP SWAP3 SWAP2 POP POP JUMP JUMPDEST PUSH1 0x0 CALLER SWAP1 POP SWAP1 JUMP JUMPDEST PUSH2 0x1BD6 DUP1 PUSH3 0x1F9 PUSH1 0x0 CODECOPY PUSH1 0x0 RETURN INVALID PUSH1 0x80 PUSH1 0x40 MSTORE CALLVALUE DUP1 ISZERO PUSH2 0x10 JUMPI PUSH1 0x0 DUP1 REVERT JUMPDEST POP PUSH1 0x4 CALLDATASIZE LT PUSH2 0xF5 JUMPI PUSH1 0x0 CALLDATALOAD PUSH1 0xE0 SHR DUP1 PUSH4 0x8456CB59 GT PUSH2 0x97 JUMPI DUP1 PUSH4 0xA217FDDF GT PUSH2 0x66 JUMPI DUP1 PUSH4 0xA217FDDF EQ PUSH2 0x24A JUMPI DUP1 PUSH4 0xD547741F EQ PUSH2 0x268 JUMPI DUP1 PUSH4 0xE63AB1E9 EQ PUSH2 0x284 JUMPI DUP1 PUSH4 0xEEF8D491 EQ PUSH2 0x2A2 JUMPI PUSH2 0xF5 JUMP JUMPDEST DUP1 PUSH4 0x8456CB59 EQ PUSH2 0x1D6 JUMPI DUP1 PUSH4 0x865933EE EQ PUSH2 0x1E0 JUMPI DUP1 PUSH4 0x8F09F154 EQ PUSH2 0x1FE JUMPI DUP1 PUSH4 0x91D14854 EQ PUSH2 0x21A JUMPI PUSH2 0xF5 JUMP JUMPDEST DUP1 PUSH4 0x2F2FF15D GT PUSH2 0xD3 JUMPI DUP1 PUSH4 0x2F2FF15D EQ PUSH2 0x176 JUMPI DUP1 PUSH4 0x36568ABE EQ PUSH2 0x192 JUMPI DUP1 PUSH4 0x3F4BA83A EQ PUSH2 0x1AE JUMPI DUP1 PUSH4 0x5C975ABB EQ PUSH2 0x1B8 JUMPI PUSH2 0xF5 JUMP JUMPDEST DUP1 PUSH4 0x1FFC9A7 EQ PUSH2 0xFA JUMPI DUP1 PUSH4 0x1CA3B020 EQ PUSH2 0x12A JUMPI DUP1 PUSH4 0x248A9CA3 EQ PUSH2 0x146 JUMPI JUMPDEST PUSH1 0x0 DUP1 REVERT JUMPDEST PUSH2 0x114 PUSH1 0x4 DUP1 CALLDATASIZE SUB DUP2 ADD SWAP1 PUSH2 0x10F SWAP2 SWAP1 PUSH2 0x1170 JUMP JUMPDEST PUSH2 0x2AC JUMP JUMPDEST PUSH1 0x40 MLOAD PUSH2 0x121 SWAP2 SWAP1 PUSH2 0x11B8 JUMP JUMPDEST PUSH1 0x40 MLOAD DUP1 SWAP2 SUB SWAP1 RETURN JUMPDEST PUSH2 0x144 PUSH1 0x4 DUP1 CALLDATASIZE SUB DUP2 ADD SWAP1 PUSH2 0x13F SWAP2 SWAP1 PUSH2 0x125D JUMP JUMPDEST PUSH2 0x326 JUMP JUMPDEST STOP JUMPDEST PUSH2 0x160 PUSH1 0x4 DUP1 CALLDATASIZE SUB DUP2 ADD SWAP1 PUSH2 0x15B SWAP2 SWAP1 PUSH2 0x12D3 JUMP JUMPDEST PUSH2 0x3AC JUMP JUMPDEST PUSH1 0x40 MLOAD PUSH2 0x16D SWAP2 SWAP1 PUSH2 0x130F JUMP JUMPDEST PUSH1 0x40 MLOAD DUP1 SWAP2 SUB SWAP1 RETURN JUMPDEST PUSH2 0x190 PUSH1 0x4 DUP1 CALLDATASIZE SUB DUP2 ADD SWAP1 PUSH2 0x18B SWAP2 SWAP1 PUSH2 0x132A JUMP JUMPDEST PUSH2 0x3CC JUMP JUMPDEST STOP JUMPDEST PUSH2 0x1AC PUSH1 0x4 DUP1 CALLDATASIZE SUB DUP2 ADD SWAP1 PUSH2 0x1A7 SWAP2 SWAP1 PUSH2 0x132A JUMP JUMPDEST PUSH2 0x3ED JUMP JUMPDEST STOP JUMPDEST PUSH2 0x1B6 PUSH2 0x470 JUMP JUMPDEST STOP JUMPDEST PUSH2 0x1C0 PUSH2 0x4A5 JUMP JUMPDEST PUSH1 0x40 MLOAD PUSH2 0x1CD SWAP2 SWAP1 PUSH2 0x11B8 JUMP JUMPDEST PUSH1 0x40 MLOAD DUP1 SWAP2 SUB SWAP1 RETURN JUMPDEST PUSH2 0x1DE PUSH2 0x4BB JUMP JUMPDEST STOP JUMPDEST PUSH2 0x1E8 PUSH2 0x4F0 JUMP JUMPDEST PUSH1 0x40 MLOAD PUSH2 0x1F5 SWAP2 SWAP1 PUSH2 0x130F JUMP JUMPDEST PUSH1 0x40 MLOAD DUP1 SWAP2 SUB SWAP1 RETURN JUMPDEST PUSH2 0x218 PUSH1 0x4 DUP1 CALLDATASIZE SUB DUP2 ADD SWAP1 PUSH2 0x213 SWAP2 SWAP1 PUSH2 0x136A JUMP JUMPDEST PUSH2 0x514 JUMP JUMPDEST STOP JUMPDEST PUSH2 0x234 PUSH1 0x4 DUP1 CALLDATASIZE SUB DUP2 ADD SWAP1 PUSH2 0x22F SWAP2 SWAP1 PUSH2 0x132A JUMP JUMPDEST PUSH2 0x894 JUMP JUMPDEST PUSH1 0x40 MLOAD PUSH2 0x241 SWAP2 SWAP1 PUSH2 0x11B8 JUMP JUMPDEST PUSH1 0x40 MLOAD DUP1 SWAP2 SUB SWAP1 RETURN JUMPDEST PUSH2 0x252 PUSH2 0x8FF JUMP JUMPDEST PUSH1 0x40 MLOAD PUSH2 0x25F SWAP2 SWAP1 PUSH2 0x130F JUMP JUMPDEST PUSH1 0x40 MLOAD DUP1 SWAP2 SUB SWAP1 RETURN JUMPDEST PUSH2 0x282 PUSH1 0x4 DUP1 CALLDATASIZE SUB DUP2 ADD SWAP1 PUSH2 0x27D SWAP2 SWAP1 PUSH2 0x132A JUMP JUMPDEST PUSH2 0x906 JUMP JUMPDEST STOP JUMPDEST PUSH2 0x28C PUSH2 0x927 JUMP JUMPDEST PUSH1 0x40 MLOAD PUSH2 0x299 SWAP2 SWAP1 PUSH2 0x130F JUMP JUMPDEST PUSH1 0x40 MLOAD DUP1 SWAP2 SUB SWAP1 RETURN JUMPDEST PUSH2 0x2AA PUSH2 0x94B JUMP JUMPDEST STOP JUMPDEST PUSH1 0x0 PUSH32 0x7965DB0B00000000000000000000000000000000000000000000000000000000 PUSH28 0xFFFFFFFFFFFFFFFFFFFFFFFFFFFFFFFFFFFFFFFFFFFFFFFFFFFFFFFF NOT AND DUP3 PUSH28 0xFFFFFFFFFFFFFFFFFFFFFFFFFFFFFFFFFFFFFFFFFFFFFFFFFFFFFFFF NOT AND EQ DUP1 PUSH2 0x31F JUMPI POP PUSH2 0x31E DUP3 PUSH2 0xA4F JUMP JUMPDEST JUMPDEST SWAP1 POP SWAP2 SWAP1 POP JUMP JUMPDEST PUSH32 0x22CB74F64761C93CE6756AE9E9C4DC3F25B4B70302A7BC77F586C0ED93A66385 PUSH2 0x350 DUP2 PUSH2 0xAB9 JUMP JUMPDEST DUP2 PUSH1 0x2 PUSH1 0x0 DUP6 PUSH20 0xFFFFFFFFFFFFFFFFFFFFFFFFFFFFFFFFFFFFFFFF AND PUSH20 0xFFFFFFFFFFFFFFFFFFFFFFFFFFFFFFFFFFFFFFFF AND DUP2 MSTORE PUSH1 0x20 ADD SWAP1 DUP2 MSTORE PUSH1 0x20 ADD PUSH1 0x0 KECCAK256 PUSH1 0x0 PUSH2 0x100 EXP DUP2 SLOAD DUP2 PUSH1 0xFF MUL NOT AND SWAP1 DUP4 ISZERO ISZERO MUL OR SWAP1 SSTORE POP POP POP POP JUMP JUMPDEST PUSH1 0x0 PUSH1 0x1 PUSH1 0x0 DUP4 DUP2 MSTORE PUSH1 0x20 ADD SWAP1 DUP2 MSTORE PUSH1 0x20 ADD PUSH1 0x0 KECCAK256 PUSH1 0x1 ADD SLOAD SWAP1 POP SWAP2 SWAP1 POP JUMP JUMPDEST PUSH2 0x3D5 DUP3 PUSH2 0x3AC JUMP JUMPDEST PUSH2 0x3DE DUP2 PUSH2 0xAB9 JUMP JUMPDEST PUSH2 0x3E8 DUP4 DUP4 PUSH2 0xACD JUMP JUMPDEST POP POP POP JUMP JUMPDEST PUSH2 0x3F5 PUSH2 0xBAD JUMP JUMPDEST PUSH20 0xFFFFFFFFFFFFFFFFFFFFFFFFFFFFFFFFFFFFFFFF AND DUP2 PUSH20 0xFFFFFFFFFFFFFFFFFFFFFFFFFFFFFFFFFFFFFFFF AND EQ PUSH2 0x462 JUMPI PUSH1 0x40 MLOAD PUSH32 0x8C379A000000000000000000000000000000000000000000000000000000000 DUP2 MSTORE PUSH1 0x4 ADD PUSH2 0x459 SWAP1 PUSH2 0x141A JUMP JUMPDEST PUSH1 0x40 MLOAD DUP1 SWAP2 SUB SWAP1 REVERT JUMPDEST PUSH2 0x46C DUP3 DUP3 PUSH2 0xBB5 JUMP JUMPDEST POP POP JUMP JUMPDEST PUSH32 0x65D7A28E3265B37A6474929F336521B332C1681B933F6CB9F3376673440D862A PUSH2 0x49A DUP2 PUSH2 0xAB9 JUMP JUMPDEST PUSH2 0x4A2 PUSH2 0xC97 JUMP JUMPDEST POP JUMP JUMPDEST PUSH1 0x0 DUP1 PUSH1 0x0 SWAP1 SLOAD SWAP1 PUSH2 0x100 EXP SWAP1 DIV PUSH1 0xFF AND SWAP1 POP SWAP1 JUMP JUMPDEST PUSH32 0x65D7A28E3265B37A6474929F336521B332C1681B933F6CB9F3376673440D862A PUSH2 0x4E5 DUP2 PUSH2 0xAB9 JUMP JUMPDEST PUSH2 0x4ED PUSH2 0xCF9 JUMP JUMPDEST POP JUMP JUMPDEST PUSH32 0x22CB74F64761C93CE6756AE9E9C4DC3F25B4B70302A7BC77F586C0ED93A66385 DUP2 JUMP JUMPDEST PUSH1 0x1 ISZERO ISZERO PUSH1 0x2 PUSH1 0x0 CALLER PUSH20 0xFFFFFFFFFFFFFFFFFFFFFFFFFFFFFFFFFFFFFFFF AND PUSH20 0xFFFFFFFFFFFFFFFFFFFFFFFFFFFFFFFFFFFFFFFF AND DUP2 MSTORE PUSH1 0x20 ADD SWAP1 DUP2 MSTORE PUSH1 0x20 ADD PUSH1 0x0 KECCAK256 PUSH1 0x0 SWAP1 SLOAD SWAP1 PUSH2 0x100 EXP SWAP1 DIV PUSH1 0xFF AND ISZERO ISZERO EQ PUSH2 0x5A7 JUMPI PUSH1 0x40 MLOAD PUSH32 0x8C379A000000000000000000000000000000000000000000000000000000000 DUP2 MSTORE PUSH1 0x4 ADD PUSH2 0x59E SWAP1 PUSH2 0x1486 JUMP JUMPDEST PUSH1 0x40 MLOAD DUP1 SWAP2 SUB SWAP1 REVERT JUMPDEST PUSH1 0x0 PUSH2 0x5B1 PUSH2 0xD5B JUMP JUMPDEST SWAP1 POP PUSH1 0x3 PUSH1 0x0 CALLER PUSH20 0xFFFFFFFFFFFFFFFFFFFFFFFFFFFFFFFFFFFFFFFF AND PUSH20 0xFFFFFFFFFFFFFFFFFFFFFFFFFFFFFFFFFFFFFFFF AND DUP2 MSTORE PUSH1 0x20 ADD SWAP1 DUP2 MSTORE PUSH1 0x20 ADD PUSH1 0x0 KECCAK256 PUSH1 0x0 SWAP1 SLOAD SWAP1 PUSH2 0x100 EXP SWAP1 DIV PUSH1 0xFF AND ISZERO PUSH2 0x640 JUMPI PUSH1 0x40 MLOAD PUSH32 0x8C379A000000000000000000000000000000000000000000000000000000000 DUP2 MSTORE PUSH1 0x4 ADD PUSH2 0x637 SWAP1 PUSH2 0x14F2 JUMP JUMPDEST PUSH1 0x40 MLOAD DUP1 SWAP2 SUB SWAP1 REVERT JUMPDEST PUSH1 0x5 SLOAD PUSH1 0x6 SLOAD GT ISZERO PUSH2 0x687 JUMPI PUSH1 0x40 MLOAD PUSH32 0x8C379A000000000000000000000000000000000000000000000000000000000 DUP2 MSTORE PUSH1 0x4 ADD PUSH2 0x67E SWAP1 PUSH2 0x155E JUMP JUMPDEST PUSH1 0x40 MLOAD DUP1 SWAP2 SUB SWAP1 REVERT JUMPDEST PUSH1 0x4 PUSH1 0x0 SWAP1 SLOAD SWAP1 PUSH2 0x100 EXP SWAP1 DIV PUSH20 0xFFFFFFFFFFFFFFFFFFFFFFFFFFFFFFFFFFFFFFFF AND PUSH20 0xFFFFFFFFFFFFFFFFFFFFFFFFFFFFFFFFFFFFFFFF AND PUSH4 0x40C10F19 CALLER DUP4 PUSH1 0x40 MLOAD DUP4 PUSH4 0xFFFFFFFF AND PUSH1 0xE0 SHL DUP2 MSTORE PUSH1 0x4 ADD PUSH2 0x6E4 SWAP3 SWAP2 SWAP1 PUSH2 0x15A6 JUMP JUMPDEST PUSH1 0x0 PUSH1 0x40 MLOAD DUP1 DUP4 SUB DUP2 PUSH1 0x0 DUP8 DUP1 EXTCODESIZE ISZERO DUP1 ISZERO PUSH2 0x6FE JUMPI PUSH1 0x0 DUP1 REVERT JUMPDEST POP GAS CALL ISZERO DUP1 ISZERO PUSH2 0x712 JUMPI RETURNDATASIZE PUSH1 0x0 DUP1 RETURNDATACOPY RETURNDATASIZE PUSH1 0x0 REVERT JUMPDEST POP POP POP POP PUSH1 0x1 PUSH1 0x3 PUSH1 0x0 CALLER PUSH20 0xFFFFFFFFFFFFFFFFFFFFFFFFFFFFFFFFFFFFFFFF AND PUSH20 0xFFFFFFFFFFFFFFFFFFFFFFFFFFFFFFFFFFFFFFFF AND DUP2 MSTORE PUSH1 0x20 ADD SWAP1 DUP2 MSTORE PUSH1 0x20 ADD PUSH1 0x0 KECCAK256 PUSH1 0x0 PUSH2 0x100 EXP DUP2 SLOAD DUP2 PUSH1 0xFF MUL NOT AND SWAP1 DUP4 ISZERO ISZERO MUL OR SWAP1 SSTORE POP DUP1 PUSH1 0x6 PUSH1 0x0 DUP3 DUP3 SLOAD PUSH2 0x780 SWAP2 SWAP1 PUSH2 0x15FE JUMP JUMPDEST SWAP3 POP POP DUP2 SWAP1 SSTORE POP DUP2 ISZERO PUSH2 0x890 JUMPI PUSH1 0x4 PUSH1 0x0 SWAP1 SLOAD SWAP1 PUSH2 0x100 EXP SWAP1 DIV PUSH20 0xFFFFFFFFFFFFFFFFFFFFFFFFFFFFFFFFFFFFFFFF AND PUSH20 0xFFFFFFFFFFFFFFFFFFFFFFFFFFFFFFFFFFFFFFFF AND PUSH4 0x9DC29FAC CALLER PUSH1 0xA PUSH1 0x40 MLOAD DUP4 PUSH4 0xFFFFFFFF AND PUSH1 0xE0 SHL DUP2 MSTORE PUSH1 0x4 ADD PUSH2 0x7EB SWAP3 SWAP2 SWAP1 PUSH2 0x1677 JUMP JUMPDEST PUSH1 0x0 PUSH1 0x40 MLOAD DUP1 DUP4 SUB DUP2 PUSH1 0x0 DUP8 DUP1 EXTCODESIZE ISZERO DUP1 ISZERO PUSH2 0x805 JUMPI PUSH1 0x0 DUP1 REVERT JUMPDEST POP GAS CALL ISZERO DUP1 ISZERO PUSH2 0x819 JUMPI RETURNDATASIZE PUSH1 0x0 DUP1 RETURNDATACOPY RETURNDATASIZE PUSH1 0x0 REVERT JUMPDEST POP POP POP POP PUSH1 0xA PUSH1 0x6 PUSH1 0x0 DUP3 DUP3 SLOAD PUSH2 0x830 SWAP2 SWAP1 PUSH2 0x16A0 JUMP JUMPDEST SWAP3 POP POP DUP2 SWAP1 SSTORE POP PUSH1 0x0 PUSH1 0x3 PUSH1 0x0 CALLER PUSH20 0xFFFFFFFFFFFFFFFFFFFFFFFFFFFFFFFFFFFFFFFF AND PUSH20 0xFFFFFFFFFFFFFFFFFFFFFFFFFFFFFFFFFFFFFFFF AND DUP2 MSTORE PUSH1 0x20 ADD SWAP1 DUP2 MSTORE PUSH1 0x20 ADD PUSH1 0x0 KECCAK256 PUSH1 0x0 PUSH2 0x100 EXP DUP2 SLOAD DUP2 PUSH1 0xFF MUL NOT AND SWAP1 DUP4 ISZERO ISZERO MUL OR SWAP1 SSTORE POP JUMPDEST POP POP JUMP JUMPDEST PUSH1 0x0 PUSH1 0x1 PUSH1 0x0 DUP5 DUP2 MSTORE PUSH1 0x20 ADD SWAP1 DUP2 MSTORE PUSH1 0x20 ADD PUSH1 0x0 KECCAK256 PUSH1 0x0 ADD PUSH1 0x0 DUP4 PUSH20 0xFFFFFFFFFFFFFFFFFFFFFFFFFFFFFFFFFFFFFFFF AND PUSH20 0xFFFFFFFFFFFFFFFFFFFFFFFFFFFFFFFFFFFFFFFF AND DUP2 MSTORE PUSH1 0x20 ADD SWAP1 DUP2 MSTORE PUSH1 0x20 ADD PUSH1 0x0 KECCAK256 PUSH1 0x0 SWAP1 SLOAD SWAP1 PUSH2 0x100 EXP SWAP1 DIV PUSH1 0xFF AND SWAP1 POP SWAP3 SWAP2 POP POP JUMP JUMPDEST PUSH1 0x0 DUP1 SHL DUP2 JUMP JUMPDEST PUSH2 0x90F DUP3 PUSH2 0x3AC JUMP JUMPDEST PUSH2 0x918 DUP2 PUSH2 0xAB9 JUMP JUMPDEST PUSH2 0x922 DUP4 DUP4 PUSH2 0xBB5 JUMP JUMPDEST POP POP POP JUMP JUMPDEST PUSH32 0x65D7A28E3265B37A6474929F336521B332C1681B933F6CB9F3376673440D862A DUP2 JUMP JUMPDEST PUSH1 0x4 PUSH1 0x0 SWAP1 SLOAD SWAP1 PUSH2 0x100 EXP SWAP1 DIV PUSH20 0xFFFFFFFFFFFFFFFFFFFFFFFFFFFFFFFFFFFFFFFF AND PUSH20 0xFFFFFFFFFFFFFFFFFFFFFFFFFFFFFFFFFFFFFFFF AND PUSH4 0x9DC29FAC CALLER PUSH1 0xA PUSH1 0x40 MLOAD DUP4 PUSH4 0xFFFFFFFF AND PUSH1 0xE0 SHL DUP2 MSTORE PUSH1 0x4 ADD PUSH2 0x9A9 SWAP3 SWAP2 SWAP1 PUSH2 0x1677 JUMP JUMPDEST PUSH1 0x0 PUSH1 0x40 MLOAD DUP1 DUP4 SUB DUP2 PUSH1 0x0 DUP8 DUP1 EXTCODESIZE ISZERO DUP1 ISZERO PUSH2 0x9C3 JUMPI PUSH1 0x0 DUP1 REVERT JUMPDEST POP GAS CALL ISZERO DUP1 ISZERO PUSH2 0x9D7 JUMPI RETURNDATASIZE PUSH1 0x0 DUP1 RETURNDATACOPY RETURNDATASIZE PUSH1 0x0 REVERT JUMPDEST POP POP POP POP PUSH1 0xA PUSH1 0x6 PUSH1 0x0 DUP3 DUP3 SLOAD PUSH2 0x9EE SWAP2 SWAP1 PUSH2 0x16A0 JUMP JUMPDEST SWAP3 POP POP DUP2 SWAP1 SSTORE POP PUSH1 0x0 PUSH1 0x3 PUSH1 0x0 CALLER PUSH20 0xFFFFFFFFFFFFFFFFFFFFFFFFFFFFFFFFFFFFFFFF AND PUSH20 0xFFFFFFFFFFFFFFFFFFFFFFFFFFFFFFFFFFFFFFFF AND DUP2 MSTORE PUSH1 0x20 ADD SWAP1 DUP2 MSTORE PUSH1 0x20 ADD PUSH1 0x0 KECCAK256 PUSH1 0x0 PUSH2 0x100 EXP DUP2 SLOAD DUP2 PUSH1 0xFF MUL NOT AND SWAP1 DUP4 ISZERO ISZERO MUL OR SWAP1 SSTORE POP JUMP JUMPDEST PUSH1 0x0 PUSH32 0x1FFC9A700000000000000000000000000000000000000000000000000000000 PUSH28 0xFFFFFFFFFFFFFFFFFFFFFFFFFFFFFFFFFFFFFFFFFFFFFFFFFFFFFFFF NOT AND DUP3 PUSH28 0xFFFFFFFFFFFFFFFFFFFFFFFFFFFFFFFFFFFFFFFFFFFFFFFFFFFFFFFF NOT AND EQ SWAP1 POP SWAP2 SWAP1 POP JUMP JUMPDEST PUSH2 0xACA DUP2 PUSH2 0xAC5 PUSH2 0xBAD JUMP JUMPDEST PUSH2 0xDA7 JUMP JUMPDEST POP JUMP JUMPDEST PUSH2 0xAD7 DUP3 DUP3 PUSH2 0x894 JUMP JUMPDEST PUSH2 0xBA9 JUMPI PUSH1 0x1 DUP1 PUSH1 0x0 DUP5 DUP2 MSTORE PUSH1 0x20 ADD SWAP1 DUP2 MSTORE PUSH1 0x20 ADD PUSH1 0x0 KECCAK256 PUSH1 0x0 ADD PUSH1 0x0 DUP4 PUSH20 0xFFFFFFFFFFFFFFFFFFFFFFFFFFFFFFFFFFFFFFFF AND PUSH20 0xFFFFFFFFFFFFFFFFFFFFFFFFFFFFFFFFFFFFFFFF AND DUP2 MSTORE PUSH1 0x20 ADD SWAP1 DUP2 MSTORE PUSH1 0x20 ADD PUSH1 0x0 KECCAK256 PUSH1 0x0 PUSH2 0x100 EXP DUP2 SLOAD DUP2 PUSH1 0xFF MUL NOT AND SWAP1 DUP4 ISZERO ISZERO MUL OR SWAP1 SSTORE POP PUSH2 0xB4E PUSH2 0xBAD JUMP JUMPDEST PUSH20 0xFFFFFFFFFFFFFFFFFFFFFFFFFFFFFFFFFFFFFFFF AND DUP2 PUSH20 0xFFFFFFFFFFFFFFFFFFFFFFFFFFFFFFFFFFFFFFFF AND DUP4 PUSH32 0x2F8788117E7EFF1D82E926EC794901D17C78024A50270940304540A733656F0D PUSH1 0x40 MLOAD PUSH1 0x40 MLOAD DUP1 SWAP2 SUB SWAP1 LOG4 JUMPDEST POP POP JUMP JUMPDEST PUSH1 0x0 CALLER SWAP1 POP SWAP1 JUMP JUMPDEST PUSH2 0xBBF DUP3 DUP3 PUSH2 0x894 JUMP JUMPDEST ISZERO PUSH2 0xC93 JUMPI PUSH1 0x0 PUSH1 0x1 PUSH1 0x0 DUP5 DUP2 MSTORE PUSH1 0x20 ADD SWAP1 DUP2 MSTORE PUSH1 0x20 ADD PUSH1 0x0 KECCAK256 PUSH1 0x0 ADD PUSH1 0x0 DUP4 PUSH20 0xFFFFFFFFFFFFFFFFFFFFFFFFFFFFFFFFFFFFFFFF AND PUSH20 0xFFFFFFFFFFFFFFFFFFFFFFFFFFFFFFFFFFFFFFFF AND DUP2 MSTORE PUSH1 0x20 ADD SWAP1 DUP2 MSTORE PUSH1 0x20 ADD PUSH1 0x0 KECCAK256 PUSH1 0x0 PUSH2 0x100 EXP DUP2 SLOAD DUP2 PUSH1 0xFF MUL NOT AND SWAP1 DUP4 ISZERO ISZERO MUL OR SWAP1 SSTORE POP PUSH2 0xC38 PUSH2 0xBAD JUMP JUMPDEST PUSH20 0xFFFFFFFFFFFFFFFFFFFFFFFFFFFFFFFFFFFFFFFF AND DUP2 PUSH20 0xFFFFFFFFFFFFFFFFFFFFFFFFFFFFFFFFFFFFFFFF AND DUP4 PUSH32 0xF6391F5C32D9C69D2A47EA670B442974B53935D1EDC7FD64EB21E047A839171B PUSH1 0x40 MLOAD PUSH1 0x40 MLOAD DUP1 SWAP2 SUB SWAP1 LOG4 JUMPDEST POP POP JUMP JUMPDEST PUSH2 0xC9F PUSH2 0xE44 JUMP JUMPDEST PUSH1 0x0 DUP1 PUSH1 0x0 PUSH2 0x100 EXP DUP2 SLOAD DUP2 PUSH1 0xFF MUL NOT AND SWAP1 DUP4 ISZERO ISZERO MUL OR SWAP1 SSTORE POP PUSH32 0x5DB9EE0A495BF2E6FF9C91A7834C1BA4FDD244A5E8AA4E537BD38AEAE4B073AA PUSH2 0xCE2 PUSH2 0xBAD JUMP JUMPDEST PUSH1 0x40 MLOAD PUSH2 0xCEF SWAP2 SWAP1 PUSH2 0x16D4 JUMP JUMPDEST PUSH1 0x40 MLOAD DUP1 SWAP2 SUB SWAP1 LOG1 JUMP JUMPDEST PUSH2 0xD01 PUSH2 0xE8D JUMP JUMPDEST PUSH1 0x1 PUSH1 0x0 DUP1 PUSH2 0x100 EXP DUP2 SLOAD DUP2 PUSH1 0xFF MUL NOT AND SWAP1 DUP4 ISZERO ISZERO MUL OR SWAP1 SSTORE POP PUSH32 0x62E78CEA01BEE320CD4E420270B5EA74000D11B0C9F74754EBDBFC544B05A258 PUSH2 0xD44 PUSH2 0xBAD JUMP JUMPDEST PUSH1 0x40 MLOAD PUSH2 0xD51 SWAP2 SWAP1 PUSH2 0x16D4 JUMP JUMPDEST PUSH1 0x40 MLOAD DUP1 SWAP2 SUB SWAP1 LOG1 JUMP JUMPDEST PUSH1 0x0 PUSH1 0x1 PUSH2 0x3E8 TIMESTAMP CALLER PUSH1 0x40 MLOAD PUSH1 0x20 ADD PUSH2 0xD75 SWAP3 SWAP2 SWAP1 PUSH2 0x1758 JUMP JUMPDEST PUSH1 0x40 MLOAD PUSH1 0x20 DUP2 DUP4 SUB SUB DUP2 MSTORE SWAP1 PUSH1 0x40 MSTORE DUP1 MLOAD SWAP1 PUSH1 0x20 ADD KECCAK256 PUSH1 0x0 SHR PUSH2 0xD98 SWAP2 SWAP1 PUSH2 0x17B3 JUMP JUMPDEST PUSH2 0xDA2 SWAP2 SWAP1 PUSH2 0x15FE JUMP JUMPDEST SWAP1 POP SWAP1 JUMP JUMPDEST PUSH2 0xDB1 DUP3 DUP3 PUSH2 0x894 JUMP JUMPDEST PUSH2 0xE40 JUMPI PUSH2 0xDD6 DUP2 PUSH20 0xFFFFFFFFFFFFFFFFFFFFFFFFFFFFFFFFFFFFFFFF AND PUSH1 0x14 PUSH2 0xED7 JUMP JUMPDEST PUSH2 0xDE4 DUP4 PUSH1 0x0 SHR PUSH1 0x20 PUSH2 0xED7 JUMP JUMPDEST PUSH1 0x40 MLOAD PUSH1 0x20 ADD PUSH2 0xDF5 SWAP3 SWAP2 SWAP1 PUSH2 0x18ED JUMP JUMPDEST PUSH1 0x40 MLOAD PUSH1 0x20 DUP2 DUP4 SUB SUB DUP2 MSTORE SWAP1 PUSH1 0x40 MSTORE PUSH1 0x40 MLOAD PUSH32 0x8C379A000000000000000000000000000000000000000000000000000000000 DUP2 MSTORE PUSH1 0x4 ADD PUSH2 0xE37 SWAP2 SWAP1 PUSH2 0x1971 JUMP JUMPDEST PUSH1 0x40 MLOAD DUP1 SWAP2 SUB SWAP1 REVERT JUMPDEST POP POP JUMP JUMPDEST PUSH2 0xE4C PUSH2 0x4A5 JUMP JUMPDEST PUSH2 0xE8B JUMPI PUSH1 0x40 MLOAD PUSH32 0x8C379A000000000000000000000000000000000000000000000000000000000 DUP2 MSTORE PUSH1 0x4 ADD PUSH2 0xE82 SWAP1 PUSH2 0x19DF JUMP JUMPDEST PUSH1 0x40 MLOAD DUP1 SWAP2 SUB SWAP1 REVERT JUMPDEST JUMP JUMPDEST PUSH2 0xE95 PUSH2 0x4A5 JUMP JUMPDEST ISZERO PUSH2 0xED5 JUMPI PUSH1 0x40 MLOAD PUSH32 0x8C379A000000000000000000000000000000000000000000000000000000000 DUP2 MSTORE PUSH1 0x4 ADD PUSH2 0xECC SWAP1 PUSH2 0x1A4B JUMP JUMPDEST PUSH1 0x40 MLOAD DUP1 SWAP2 SUB SWAP1 REVERT JUMPDEST JUMP JUMPDEST PUSH1 0x60 PUSH1 0x0 PUSH1 0x2 DUP4 PUSH1 0x2 PUSH2 0xEEA SWAP2 SWAP1 PUSH2 0x1A6B JUMP JUMPDEST PUSH2 0xEF4 SWAP2 SWAP1 PUSH2 0x15FE JUMP JUMPDEST PUSH8 0xFFFFFFFFFFFFFFFF DUP2 GT ISZERO PUSH2 0xF0D JUMPI PUSH2 0xF0C PUSH2 0x1AAD JUMP JUMPDEST JUMPDEST PUSH1 0x40 MLOAD SWAP1 DUP1 DUP3 MSTORE DUP1 PUSH1 0x1F ADD PUSH1 0x1F NOT AND PUSH1 0x20 ADD DUP3 ADD PUSH1 0x40 MSTORE DUP1 ISZERO PUSH2 0xF3F JUMPI DUP2 PUSH1 0x20 ADD PUSH1 0x1 DUP3 MUL DUP1 CALLDATASIZE DUP4 CALLDATACOPY DUP1 DUP3 ADD SWAP2 POP POP SWAP1 POP JUMPDEST POP SWAP1 POP PUSH32 0x3000000000000000000000000000000000000000000000000000000000000000 DUP2 PUSH1 0x0 DUP2 MLOAD DUP2 LT PUSH2 0xF77 JUMPI PUSH2 0xF76 PUSH2 0x1ADC JUMP JUMPDEST JUMPDEST PUSH1 0x20 ADD ADD SWAP1 PUSH31 0xFFFFFFFFFFFFFFFFFFFFFFFFFFFFFFFFFFFFFFFFFFFFFFFFFFFFFFFFFFFFFF NOT AND SWAP1 DUP2 PUSH1 0x0 BYTE SWAP1 MSTORE8 POP PUSH32 0x7800000000000000000000000000000000000000000000000000000000000000 DUP2 PUSH1 0x1 DUP2 MLOAD DUP2 LT PUSH2 0xFDB JUMPI PUSH2 0xFDA PUSH2 0x1ADC JUMP JUMPDEST JUMPDEST PUSH1 0x20 ADD ADD SWAP1 PUSH31 0xFFFFFFFFFFFFFFFFFFFFFFFFFFFFFFFFFFFFFFFFFFFFFFFFFFFFFFFFFFFFFF NOT AND SWAP1 DUP2 PUSH1 0x0 BYTE SWAP1 MSTORE8 POP PUSH1 0x0 PUSH1 0x1 DUP5 PUSH1 0x2 PUSH2 0x101B SWAP2 SWAP1 PUSH2 0x1A6B JUMP JUMPDEST PUSH2 0x1025 SWAP2 SWAP1 PUSH2 0x15FE JUMP JUMPDEST SWAP1 POP JUMPDEST PUSH1 0x1 DUP2 GT ISZERO PUSH2 0x10C5 JUMPI PUSH32 0x3031323334353637383961626364656600000000000000000000000000000000 PUSH1 0xF DUP7 AND PUSH1 0x10 DUP2 LT PUSH2 0x1067 JUMPI PUSH2 0x1066 PUSH2 0x1ADC JUMP JUMPDEST JUMPDEST BYTE PUSH1 0xF8 SHL DUP3 DUP3 DUP2 MLOAD DUP2 LT PUSH2 0x107E JUMPI PUSH2 0x107D PUSH2 0x1ADC JUMP JUMPDEST JUMPDEST PUSH1 0x20 ADD ADD SWAP1 PUSH31 0xFFFFFFFFFFFFFFFFFFFFFFFFFFFFFFFFFFFFFFFFFFFFFFFFFFFFFFFFFFFFFF NOT AND SWAP1 DUP2 PUSH1 0x0 BYTE SWAP1 MSTORE8 POP PUSH1 0x4 DUP6 SWAP1 SHR SWAP5 POP DUP1 PUSH2 0x10BE SWAP1 PUSH2 0x1B0B JUMP JUMPDEST SWAP1 POP PUSH2 0x1028 JUMP JUMPDEST POP PUSH1 0x0 DUP5 EQ PUSH2 0x1109 JUMPI PUSH1 0x40 MLOAD PUSH32 0x8C379A000000000000000000000000000000000000000000000000000000000 DUP2 MSTORE PUSH1 0x4 ADD PUSH2 0x1100 SWAP1 PUSH2 0x1B80 JUMP JUMPDEST PUSH1 0x40 MLOAD DUP1 SWAP2 SUB SWAP1 REVERT JUMPDEST DUP1 SWAP2 POP POP SWAP3 SWAP2 POP POP JUMP JUMPDEST PUSH1 0x0 DUP1 REVERT JUMPDEST PUSH1 0x0 PUSH32 0xFFFFFFFF00000000000000000000000000000000000000000000000000000000 DUP3 AND SWAP1 POP SWAP2 SWAP1 POP JUMP JUMPDEST PUSH2 0x114D DUP2 PUSH2 0x1118 JUMP JUMPDEST DUP2 EQ PUSH2 0x1158 JUMPI PUSH1 0x0 DUP1 REVERT JUMPDEST POP JUMP JUMPDEST PUSH1 0x0 DUP2 CALLDATALOAD SWAP1 POP PUSH2 0x116A DUP2 PUSH2 0x1144 JUMP JUMPDEST SWAP3 SWAP2 POP POP JUMP JUMPDEST PUSH1 0x0 PUSH1 0x20 DUP3 DUP5 SUB SLT ISZERO PUSH2 0x1186 JUMPI PUSH2 0x1185 PUSH2 0x1113 JUMP JUMPDEST JUMPDEST PUSH1 0x0 PUSH2 0x1194 DUP5 DUP3 DUP6 ADD PUSH2 0x115B JUMP JUMPDEST SWAP2 POP POP SWAP3 SWAP2 POP POP JUMP JUMPDEST PUSH1 0x0 DUP2 ISZERO ISZERO SWAP1 POP SWAP2 SWAP1 POP JUMP JUMPDEST PUSH2 0x11B2 DUP2 PUSH2 0x119D JUMP JUMPDEST DUP3 MSTORE POP POP JUMP JUMPDEST PUSH1 0x0 PUSH1 0x20 DUP3 ADD SWAP1 POP PUSH2 0x11CD PUSH1 0x0 DUP4 ADD DUP5 PUSH2 0x11A9 JUMP JUMPDEST SWAP3 SWAP2 POP POP JUMP JUMPDEST PUSH1 0x0 PUSH20 0xFFFFFFFFFFFFFFFFFFFFFFFFFFFFFFFFFFFFFFFF DUP3 AND SWAP1 POP SWAP2 SWAP1 POP JUMP JUMPDEST PUSH1 0x0 PUSH2 0x11FE DUP3 PUSH2 0x11D3 JUMP JUMPDEST SWAP1 POP SWAP2 SWAP1 POP JUMP JUMPDEST PUSH2 0x120E DUP2 PUSH2 0x11F3 JUMP JUMPDEST DUP2 EQ PUSH2 0x1219 JUMPI PUSH1 0x0 DUP1 REVERT JUMPDEST POP JUMP JUMPDEST PUSH1 0x0 DUP2 CALLDATALOAD SWAP1 POP PUSH2 0x122B DUP2 PUSH2 0x1205 JUMP JUMPDEST SWAP3 SWAP2 POP POP JUMP JUMPDEST PUSH2 0x123A DUP2 PUSH2 0x119D JUMP JUMPDEST DUP2 EQ PUSH2 0x1245 JUMPI PUSH1 0x0 DUP1 REVERT JUMPDEST POP JUMP JUMPDEST PUSH1 0x0 DUP2 CALLDATALOAD SWAP1 POP PUSH2 0x1257 DUP2 PUSH2 0x1231 JUMP JUMPDEST SWAP3 SWAP2 POP POP JUMP JUMPDEST PUSH1 0x0 DUP1 PUSH1 0x40 DUP4 DUP6 SUB SLT ISZERO PUSH2 0x1274 JUMPI PUSH2 0x1273 PUSH2 0x1113 JUMP JUMPDEST JUMPDEST PUSH1 0x0 PUSH2 0x1282 DUP6 DUP3 DUP7 ADD PUSH2 0x121C JUMP JUMPDEST SWAP3 POP POP PUSH1 0x20 PUSH2 0x1293 DUP6 DUP3 DUP7 ADD PUSH2 0x1248 JUMP JUMPDEST SWAP2 POP POP SWAP3 POP SWAP3 SWAP1 POP JUMP JUMPDEST PUSH1 0x0 DUP2 SWAP1 POP SWAP2 SWAP1 POP JUMP JUMPDEST PUSH2 0x12B0 DUP2 PUSH2 0x129D JUMP JUMPDEST DUP2 EQ PUSH2 0x12BB JUMPI PUSH1 0x0 DUP1 REVERT JUMPDEST POP JUMP JUMPDEST PUSH1 0x0 DUP2 CALLDATALOAD SWAP1 POP PUSH2 0x12CD DUP2 PUSH2 0x12A7 JUMP JUMPDEST SWAP3 SWAP2 POP POP JUMP JUMPDEST PUSH1 0x0 PUSH1 0x20 DUP3 DUP5 SUB SLT ISZERO PUSH2 0x12E9 JUMPI PUSH2 0x12E8 PUSH2 0x1113 JUMP JUMPDEST JUMPDEST PUSH1 0x0 PUSH2 0x12F7 DUP5 DUP3 DUP6 ADD PUSH2 0x12BE JUMP JUMPDEST SWAP2 POP POP SWAP3 SWAP2 POP POP JUMP JUMPDEST PUSH2 0x1309 DUP2 PUSH2 0x129D JUMP JUMPDEST DUP3 MSTORE POP POP JUMP JUMPDEST PUSH1 0x0 PUSH1 0x20 DUP3 ADD SWAP1 POP PUSH2 0x1324 PUSH1 0x0 DUP4 ADD DUP5 PUSH2 0x1300 JUMP JUMPDEST SWAP3 SWAP2 POP POP JUMP JUMPDEST PUSH1 0x0 DUP1 PUSH1 0x40 DUP4 DUP6 SUB SLT ISZERO PUSH2 0x1341 JUMPI PUSH2 0x1340 PUSH2 0x1113 JUMP JUMPDEST JUMPDEST PUSH1 0x0 PUSH2 0x134F DUP6 DUP3 DUP7 ADD PUSH2 0x12BE JUMP JUMPDEST SWAP3 POP POP PUSH1 0x20 PUSH2 0x1360 DUP6 DUP3 DUP7 ADD PUSH2 0x121C JUMP JUMPDEST SWAP2 POP POP SWAP3 POP SWAP3 SWAP1 POP JUMP JUMPDEST PUSH1 0x0 PUSH1 0x20 DUP3 DUP5 SUB SLT ISZERO PUSH2 0x1380 JUMPI PUSH2 0x137F PUSH2 0x1113 JUMP JUMPDEST JUMPDEST PUSH1 0x0 PUSH2 0x138E DUP5 DUP3 DUP6 ADD PUSH2 0x1248 JUMP JUMPDEST SWAP2 POP POP SWAP3 SWAP2 POP POP JUMP JUMPDEST PUSH1 0x0 DUP3 DUP3 MSTORE PUSH1 0x20 DUP3 ADD SWAP1 POP SWAP3 SWAP2 POP POP JUMP JUMPDEST PUSH32 0x416363657373436F6E74726F6C3A2063616E206F6E6C792072656E6F756E6365 PUSH1 0x0 DUP3 ADD MSTORE PUSH32 0x20726F6C657320666F722073656C660000000000000000000000000000000000 PUSH1 0x20 DUP3 ADD MSTORE POP JUMP JUMPDEST PUSH1 0x0 PUSH2 0x1404 PUSH1 0x2F DUP4 PUSH2 0x1397 JUMP JUMPDEST SWAP2 POP PUSH2 0x140F DUP3 PUSH2 0x13A8 JUMP JUMPDEST PUSH1 0x40 DUP3 ADD SWAP1 POP SWAP2 SWAP1 POP JUMP JUMPDEST PUSH1 0x0 PUSH1 0x20 DUP3 ADD SWAP1 POP DUP2 DUP2 SUB PUSH1 0x0 DUP4 ADD MSTORE PUSH2 0x1433 DUP2 PUSH2 0x13F7 JUMP JUMPDEST SWAP1 POP SWAP2 SWAP1 POP JUMP JUMPDEST PUSH32 0x4E6F2070657274656E6563652061204C6973746120426C616E63610000000000 PUSH1 0x0 DUP3 ADD MSTORE POP JUMP JUMPDEST PUSH1 0x0 PUSH2 0x1470 PUSH1 0x1B DUP4 PUSH2 0x1397 JUMP JUMPDEST SWAP2 POP PUSH2 0x147B DUP3 PUSH2 0x143A JUMP JUMPDEST PUSH1 0x20 DUP3 ADD SWAP1 POP SWAP2 SWAP1 POP JUMP JUMPDEST PUSH1 0x0 PUSH1 0x20 DUP3 ADD SWAP1 POP DUP2 DUP2 SUB PUSH1 0x0 DUP4 ADD MSTORE PUSH2 0x149F DUP2 PUSH2 0x1463 JUMP JUMPDEST SWAP1 POP SWAP2 SWAP1 POP JUMP JUMPDEST PUSH32 0x5961207265636962696F00000000000000000000000000000000000000000000 PUSH1 0x0 DUP3 ADD MSTORE POP JUMP JUMPDEST PUSH1 0x0 PUSH2 0x14DC PUSH1 0xA DUP4 PUSH2 0x1397 JUMP JUMPDEST SWAP2 POP PUSH2 0x14E7 DUP3 PUSH2 0x14A6 JUMP JUMPDEST PUSH1 0x20 DUP3 ADD SWAP1 POP SWAP2 SWAP1 POP JUMP JUMPDEST PUSH1 0x0 PUSH1 0x20 DUP3 ADD SWAP1 POP DUP2 DUP2 SUB PUSH1 0x0 DUP4 ADD MSTORE PUSH2 0x150B DUP2 PUSH2 0x14CF JUMP JUMPDEST SWAP1 POP SWAP2 SWAP1 POP JUMP JUMPDEST PUSH32 0x53757065726F206D6178696D6F20746F6B656E732072657061727469646F7300 PUSH1 0x0 DUP3 ADD MSTORE POP JUMP JUMPDEST PUSH1 0x0 PUSH2 0x1548 PUSH1 0x1F DUP4 PUSH2 0x1397 JUMP JUMPDEST SWAP2 POP PUSH2 0x1553 DUP3 PUSH2 0x1512 JUMP JUMPDEST PUSH1 0x20 DUP3 ADD SWAP1 POP SWAP2 SWAP1 POP JUMP JUMPDEST PUSH1 0x0 PUSH1 0x20 DUP3 ADD SWAP1 POP DUP2 DUP2 SUB PUSH1 0x0 DUP4 ADD MSTORE PUSH2 0x1577 DUP2 PUSH2 0x153B JUMP JUMPDEST SWAP1 POP SWAP2 SWAP1 POP JUMP JUMPDEST PUSH2 0x1587 DUP2 PUSH2 0x11F3 JUMP JUMPDEST DUP3 MSTORE POP POP JUMP JUMPDEST PUSH1 0x0 DUP2 SWAP1 POP SWAP2 SWAP1 POP JUMP JUMPDEST PUSH2 0x15A0 DUP2 PUSH2 0x158D JUMP JUMPDEST DUP3 MSTORE POP POP JUMP JUMPDEST PUSH1 0x0 PUSH1 0x40 DUP3 ADD SWAP1 POP PUSH2 0x15BB PUSH1 0x0 DUP4 ADD DUP6 PUSH2 0x157E JUMP JUMPDEST PUSH2 0x15C8 PUSH1 0x20 DUP4 ADD DUP5 PUSH2 0x1597 JUMP JUMPDEST SWAP4 SWAP3 POP POP POP JUMP JUMPDEST PUSH32 0x4E487B7100000000000000000000000000000000000000000000000000000000 PUSH1 0x0 MSTORE PUSH1 0x11 PUSH1 0x4 MSTORE PUSH1 0x24 PUSH1 0x0 REVERT JUMPDEST PUSH1 0x0 PUSH2 0x1609 DUP3 PUSH2 0x158D JUMP JUMPDEST SWAP2 POP PUSH2 0x1614 DUP4 PUSH2 0x158D JUMP JUMPDEST SWAP3 POP DUP3 DUP3 ADD SWAP1 POP DUP1 DUP3 GT ISZERO PUSH2 0x162C JUMPI PUSH2 0x162B PUSH2 0x15CF JUMP JUMPDEST JUMPDEST SWAP3 SWAP2 POP POP JUMP JUMPDEST PUSH1 0x0 DUP2 SWAP1 POP SWAP2 SWAP1 POP JUMP JUMPDEST PUSH1 0x0 DUP2 SWAP1 POP SWAP2 SWAP1 POP JUMP JUMPDEST PUSH1 0x0 PUSH2 0x1661 PUSH2 0x165C PUSH2 0x1657 DUP5 PUSH2 0x1632 JUMP JUMPDEST PUSH2 0x163C JUMP JUMPDEST PUSH2 0x158D JUMP JUMPDEST SWAP1 POP SWAP2 SWAP1 POP JUMP JUMPDEST PUSH2 0x1671 DUP2 PUSH2 0x1646 JUMP JUMPDEST DUP3 MSTORE POP POP JUMP JUMPDEST PUSH1 0x0 PUSH1 0x40 DUP3 ADD SWAP1 POP PUSH2 0x168C PUSH1 0x0 DUP4 ADD DUP6 PUSH2 0x157E JUMP JUMPDEST PUSH2 0x1699 PUSH1 0x20 DUP4 ADD DUP5 PUSH2 0x1668 JUMP JUMPDEST SWAP4 SWAP3 POP POP POP JUMP JUMPDEST PUSH1 0x0 PUSH2 0x16AB DUP3 PUSH2 0x158D JUMP JUMPDEST SWAP2 POP PUSH2 0x16B6 DUP4 PUSH2 0x158D JUMP JUMPDEST SWAP3 POP DUP3 DUP3 SUB SWAP1 POP DUP2 DUP2 GT ISZERO PUSH2 0x16CE JUMPI PUSH2 0x16CD PUSH2 0x15CF JUMP JUMPDEST JUMPDEST SWAP3 SWAP2 POP POP JUMP JUMPDEST PUSH1 0x0 PUSH1 0x20 DUP3 ADD SWAP1 POP PUSH2 0x16E9 PUSH1 0x0 DUP4 ADD DUP5 PUSH2 0x157E JUMP JUMPDEST SWAP3 SWAP2 POP POP JUMP JUMPDEST PUSH1 0x0 DUP2 SWAP1 POP SWAP2 SWAP1 POP JUMP JUMPDEST PUSH2 0x170A PUSH2 0x1705 DUP3 PUSH2 0x158D JUMP JUMPDEST PUSH2 0x16EF JUMP JUMPDEST DUP3 MSTORE POP POP JUMP JUMPDEST PUSH1 0x0 DUP2 PUSH1 0x60 SHL SWAP1 POP SWAP2 SWAP1 POP JUMP JUMPDEST PUSH1 0x0 PUSH2 0x1728 DUP3 PUSH2 0x1710 JUMP JUMPDEST SWAP1 POP SWAP2 SWAP1 POP JUMP JUMPDEST PUSH1 0x0 PUSH2 0x173A DUP3 PUSH2 0x171D JUMP JUMPDEST SWAP1 POP SWAP2 SWAP1 POP JUMP JUMPDEST PUSH2 0x1752 PUSH2 0x174D DUP3 PUSH2 0x11F3 JUMP JUMPDEST PUSH2 0x172F JUMP JUMPDEST DUP3 MSTORE POP POP JUMP JUMPDEST PUSH1 0x0 PUSH2 0x1764 DUP3 DUP6 PUSH2 0x16F9 JUMP JUMPDEST PUSH1 0x20 DUP3 ADD SWAP2 POP PUSH2 0x1774 DUP3 DUP5 PUSH2 0x1741 JUMP JUMPDEST PUSH1 0x14 DUP3 ADD SWAP2 POP DUP2 SWAP1 POP SWAP4 SWAP3 POP POP POP JUMP JUMPDEST PUSH32 0x4E487B7100000000000000000000000000000000000000000000000000000000 PUSH1 0x0 MSTORE PUSH1 0x12 PUSH1 0x4 MSTORE PUSH1 0x24 PUSH1 0x0 REVERT JUMPDEST PUSH1 0x0 PUSH2 0x17BE DUP3 PUSH2 0x158D JUMP JUMPDEST SWAP2 POP PUSH2 0x17C9 DUP4 PUSH2 0x158D JUMP JUMPDEST SWAP3 POP DUP3 PUSH2 0x17D9 JUMPI PUSH2 0x17D8 PUSH2 0x1784 JUMP JUMPDEST JUMPDEST DUP3 DUP3 MOD SWAP1 POP SWAP3 SWAP2 POP POP JUMP JUMPDEST PUSH1 0x0 DUP2 SWAP1 POP SWAP3 SWAP2 POP POP JUMP JUMPDEST PUSH32 0x416363657373436F6E74726F6C3A206163636F756E7420000000000000000000 PUSH1 0x0 DUP3 ADD MSTORE POP JUMP JUMPDEST PUSH1 0x0 PUSH2 0x1825 PUSH1 0x17 DUP4 PUSH2 0x17E4 JUMP JUMPDEST SWAP2 POP PUSH2 0x1830 DUP3 PUSH2 0x17EF JUMP JUMPDEST PUSH1 0x17 DUP3 ADD SWAP1 POP SWAP2 SWAP1 POP JUMP JUMPDEST PUSH1 0x0 DUP2 MLOAD SWAP1 POP SWAP2 SWAP1 POP JUMP JUMPDEST PUSH1 0x0 JUMPDEST DUP4 DUP2 LT ISZERO PUSH2 0x1864 JUMPI DUP1 DUP3 ADD MLOAD DUP2 DUP5 ADD MSTORE PUSH1 0x20 DUP2 ADD SWAP1 POP PUSH2 0x1849 JUMP JUMPDEST PUSH1 0x0 DUP5 DUP5 ADD MSTORE POP POP POP POP JUMP JUMPDEST PUSH1 0x0 PUSH2 0x187B DUP3 PUSH2 0x183B JUMP JUMPDEST PUSH2 0x1885 DUP2 DUP6 PUSH2 0x17E4 JUMP JUMPDEST SWAP4 POP PUSH2 0x1895 DUP2 DUP6 PUSH1 0x20 DUP7 ADD PUSH2 0x1846 JUMP JUMPDEST DUP1 DUP5 ADD SWAP2 POP POP SWAP3 SWAP2 POP POP JUMP JUMPDEST PUSH32 0x206973206D697373696E6720726F6C6520000000000000000000000000000000 PUSH1 0x0 DUP3 ADD MSTORE POP JUMP JUMPDEST PUSH1 0x0 PUSH2 0x18D7 PUSH1 0x11 DUP4 PUSH2 0x17E4 JUMP JUMPDEST SWAP2 POP PUSH2 0x18E2 DUP3 PUSH2 0x18A1 JUMP JUMPDEST PUSH1 0x11 DUP3 ADD SWAP1 POP SWAP2 SWAP1 POP JUMP JUMPDEST PUSH1 0x0 PUSH2 0x18F8 DUP3 PUSH2 0x1818 JUMP JUMPDEST SWAP2 POP PUSH2 0x1904 DUP3 DUP6 PUSH2 0x1870 JUMP JUMPDEST SWAP2 POP PUSH2 0x190F DUP3 PUSH2 0x18CA JUMP JUMPDEST SWAP2 POP PUSH2 0x191B DUP3 DUP5 PUSH2 0x1870 JUMP JUMPDEST SWAP2 POP DUP2 SWAP1 POP SWAP4 SWAP3 POP POP POP JUMP JUMPDEST PUSH1 0x0 PUSH1 0x1F NOT PUSH1 0x1F DUP4 ADD AND SWAP1 POP SWAP2 SWAP1 POP JUMP JUMPDEST PUSH1 0x0 PUSH2 0x1943 DUP3 PUSH2 0x183B JUMP JUMPDEST PUSH2 0x194D DUP2 DUP6 PUSH2 0x1397 JUMP JUMPDEST SWAP4 POP PUSH2 0x195D DUP2 DUP6 PUSH1 0x20 DUP7 ADD PUSH2 0x1846 JUMP JUMPDEST PUSH2 0x1966 DUP2 PUSH2 0x1927 JUMP JUMPDEST DUP5 ADD SWAP2 POP POP SWAP3 SWAP2 POP POP JUMP JUMPDEST PUSH1 0x0 PUSH1 0x20 DUP3 ADD SWAP1 POP DUP2 DUP2 SUB PUSH1 0x0 DUP4 ADD MSTORE PUSH2 0x198B DUP2 DUP5 PUSH2 0x1938 JUMP JUMPDEST SWAP1 POP SWAP3 SWAP2 POP POP JUMP JUMPDEST PUSH32 0x5061757361626C653A206E6F7420706175736564000000000000000000000000 PUSH1 0x0 DUP3 ADD MSTORE POP JUMP JUMPDEST PUSH1 0x0 PUSH2 0x19C9 PUSH1 0x14 DUP4 PUSH2 0x1397 JUMP JUMPDEST SWAP2 POP PUSH2 0x19D4 DUP3 PUSH2 0x1993 JUMP JUMPDEST PUSH1 0x20 DUP3 ADD SWAP1 POP SWAP2 SWAP1 POP JUMP JUMPDEST PUSH1 0x0 PUSH1 0x20 DUP3 ADD SWAP1 POP DUP2 DUP2 SUB PUSH1 0x0 DUP4 ADD MSTORE PUSH2 0x19F8 DUP2 PUSH2 0x19BC JUMP JUMPDEST SWAP1 POP SWAP2 SWAP1 POP JUMP JUMPDEST PUSH32 0x5061757361626C653A2070617573656400000000000000000000000000000000 PUSH1 0x0 DUP3 ADD MSTORE POP JUMP JUMPDEST PUSH1 0x0 PUSH2 0x1A35 PUSH1 0x10 DUP4 PUSH2 0x1397 JUMP JUMPDEST SWAP2 POP PUSH2 0x1A40 DUP3 PUSH2 0x19FF JUMP JUMPDEST PUSH1 0x20 DUP3 ADD SWAP1 POP SWAP2 SWAP1 POP JUMP JUMPDEST PUSH1 0x0 PUSH1 0x20 DUP3 ADD SWAP1 POP DUP2 DUP2 SUB PUSH1 0x0 DUP4 ADD MSTORE PUSH2 0x1A64 DUP2 PUSH2 0x1A28 JUMP JUMPDEST SWAP1 POP SWAP2 SWAP1 POP JUMP JUMPDEST PUSH1 0x0 PUSH2 0x1A76 DUP3 PUSH2 0x158D JUMP JUMPDEST SWAP2 POP PUSH2 0x1A81 DUP4 PUSH2 0x158D JUMP JUMPDEST SWAP3 POP DUP3 DUP3 MUL PUSH2 0x1A8F DUP2 PUSH2 0x158D JUMP JUMPDEST SWAP2 POP DUP3 DUP3 DIV DUP5 EQ DUP4 ISZERO OR PUSH2 0x1AA6 JUMPI PUSH2 0x1AA5 PUSH2 0x15CF JUMP JUMPDEST JUMPDEST POP SWAP3 SWAP2 POP POP JUMP JUMPDEST PUSH32 0x4E487B7100000000000000000000000000000000000000000000000000000000 PUSH1 0x0 MSTORE PUSH1 0x41 PUSH1 0x4 MSTORE PUSH1 0x24 PUSH1 0x0 REVERT JUMPDEST PUSH32 0x4E487B7100000000000000000000000000000000000000000000000000000000 PUSH1 0x0 MSTORE PUSH1 0x32 PUSH1 0x4 MSTORE PUSH1 0x24 PUSH1 0x0 REVERT JUMPDEST PUSH1 0x0 PUSH2 0x1B16 DUP3 PUSH2 0x158D JUMP JUMPDEST SWAP2 POP PUSH1 0x0 DUP3 SUB PUSH2 0x1B29 JUMPI PUSH2 0x1B28 PUSH2 0x15CF JUMP JUMPDEST JUMPDEST PUSH1 0x1 DUP3 SUB SWAP1 POP SWAP2 SWAP1 POP JUMP JUMPDEST PUSH32 0x537472696E67733A20686578206C656E67746820696E73756666696369656E74 PUSH1 0x0 DUP3 ADD MSTORE POP JUMP JUMPDEST PUSH1 0x0 PUSH2 0x1B6A PUSH1 0x20 DUP4 PUSH2 0x1397 JUMP JUMPDEST SWAP2 POP PUSH2 0x1B75 DUP3 PUSH2 0x1B34 JUMP JUMPDEST PUSH1 0x20 DUP3 ADD SWAP1 POP SWAP2 SWAP1 POP JUMP JUMPDEST PUSH1 0x0 PUSH1 0x20 DUP3 ADD SWAP1 POP DUP2 DUP2 SUB PUSH1 0x0 DUP4 ADD MSTORE PUSH2 0x1B99 DUP2 PUSH2 0x1B5D JUMP JUMPDEST SWAP1 POP SWAP2 SWAP1 POP JUMP INVALID LOG2 PUSH5 0x6970667358 0x22 SLT KECCAK256 0xD PUSH15 0xB79522F10A0DDAAE175DC7202FBB64 0xDD 0xD9 SWAP9 0xB5 EQ SWAP16 0xBB 0xF6 DUP3 0x2C 0xAD 0xDE PUSH20 0x38864736F6C6343000811003300000000000000 "
				},
				"gasEstimates": {
					"creation": {
						"codeDepositCost": "1425200",
						"executionCost": "infinite",
						"totalCost": "infinite"
					},
					"external": {
						"DEFAULT_ADMIN_ROLE()": "357",
						"LISTA_BLANCA()": "374",
						"PAUSER_ROLE()": "395",
						"getRoleAdmin(bytes32)": "infinite",
						"grantRole(bytes32,address)": "infinite",
						"hasRole(bytes32,address)": "3229",
						"participarAirdrop(bool)": "infinite",
						"pause()": "infinite",
						"paused()": "2568",
						"quieroparticiparotravez()": "infinite",
						"renounceRole(bytes32,address)": "infinite",
						"revokeRole(bytes32,address)": "infinite",
						"setListaBlanca(address,bool)": "infinite",
						"supportsInterface(bytes4)": "751",
						"unpause()": "infinite"
					},
					"internal": {
						"_getRadomNumber()": "infinite"
					}
				},
				"methodIdentifiers": {
					"DEFAULT_ADMIN_ROLE()": "a217fddf",
					"LISTA_BLANCA()": "865933ee",
					"PAUSER_ROLE()": "e63ab1e9",
					"getRoleAdmin(bytes32)": "248a9ca3",
					"grantRole(bytes32,address)": "2f2ff15d",
					"hasRole(bytes32,address)": "91d14854",
					"participarAirdrop(bool)": "8f09f154",
					"pause()": "8456cb59",
					"paused()": "5c975abb",
					"quieroparticiparotravez()": "eef8d491",
					"renounceRole(bytes32,address)": "36568abe",
					"revokeRole(bytes32,address)": "d547741f",
					"setListaBlanca(address,bool)": "1ca3b020",
					"supportsInterface(bytes4)": "01ffc9a7",
					"unpause()": "3f4ba83a"
				}
			},
			"storageLayout": {
				"storage": [
					{
						"astId": 410,
						"contract": "Clase Contrato Airdrop/Airdrop.sol:Airdrop",
						"label": "_paused",
						"offset": 0,
						"slot": "0",
						"type": "t_bool"
					},
					{
						"astId": 24,
						"contract": "Clase Contrato Airdrop/Airdrop.sol:Airdrop",
						"label": "_roles",
						"offset": 0,
						"slot": "1",
						"type": "t_mapping(t_bytes32,t_struct(RoleData)19_storage)"
					},
					{
						"astId": 821,
						"contract": "Clase Contrato Airdrop/Airdrop.sol:Airdrop",
						"label": "ListaBlanca",
						"offset": 0,
						"slot": "2",
						"type": "t_mapping(t_address,t_bool)"
					},
					{
						"astId": 825,
						"contract": "Clase Contrato Airdrop/Airdrop.sol:Airdrop",
						"label": "Recibido",
						"offset": 0,
						"slot": "3",
						"type": "t_mapping(t_address,t_bool)"
					},
					{
						"astId": 827,
						"contract": "Clase Contrato Airdrop/Airdrop.sol:Airdrop",
						"label": "DirContrato",
						"offset": 0,
						"slot": "4",
						"type": "t_address"
					},
					{
						"astId": 834,
						"contract": "Clase Contrato Airdrop/Airdrop.sol:Airdrop",
						"label": "CantidadTokensMaximo",
						"offset": 0,
						"slot": "5",
						"type": "t_uint256"
					},
					{
						"astId": 836,
						"contract": "Clase Contrato Airdrop/Airdrop.sol:Airdrop",
						"label": "CantidadTokensRepartidos",
						"offset": 0,
						"slot": "6",
						"type": "t_uint256"
					}
				],
				"types": {
					"t_address": {
						"encoding": "inplace",
						"label": "address",
						"numberOfBytes": "20"
					},
					"t_bool": {
						"encoding": "inplace",
						"label": "bool",
						"numberOfBytes": "1"
					},
					"t_bytes32": {
						"encoding": "inplace",
						"label": "bytes32",
						"numberOfBytes": "32"
					},
					"t_mapping(t_address,t_bool)": {
						"encoding": "mapping",
						"key": "t_address",
						"label": "mapping(address => bool)",
						"numberOfBytes": "32",
						"value": "t_bool"
					},
					"t_mapping(t_bytes32,t_struct(RoleData)19_storage)": {
						"encoding": "mapping",
						"key": "t_bytes32",
						"label": "mapping(bytes32 => struct AccessControl.RoleData)",
						"numberOfBytes": "32",
						"value": "t_struct(RoleData)19_storage"
					},
					"t_struct(RoleData)19_storage": {
						"encoding": "inplace",
						"label": "struct AccessControl.RoleData",
						"members": [
							{
								"astId": 16,
								"contract": "Clase Contrato Airdrop/Airdrop.sol:Airdrop",
								"label": "members",
								"offset": 0,
								"slot": "0",
								"type": "t_mapping(t_address,t_bool)"
							},
							{
								"astId": 18,
								"contract": "Clase Contrato Airdrop/Airdrop.sol:Airdrop",
								"label": "adminRole",
								"offset": 0,
								"slot": "1",
								"type": "t_bytes32"
							}
						],
						"numberOfBytes": "64"
					},
					"t_uint256": {
						"encoding": "inplace",
						"label": "uint256",
						"numberOfBytes": "32"
					}
				}
			},
			"userdoc": {
				"kind": "user",
				"methods": {},
				"version": 1
			}
		}
	}
}